{
  "address": "0xF19D775F559AD370B55669A92DA5cCe19203891C",
  "abi": [
    {
      "inputs": [
        {
          "internalType": "address",
          "name": "_debtTokenImplementation",
          "type": "address"
        },
        {
          "internalType": "address",
          "name": "_registry",
          "type": "address"
        }
      ],
      "stateMutability": "nonpayable",
      "type": "constructor"
    },
    {
      "anonymous": false,
      "inputs": [
        {
          "indexed": false,
          "internalType": "address",
          "name": "debtAddress",
          "type": "address"
        }
      ],
      "name": "DebtTokenCreated",
      "type": "event"
    },
    {
      "anonymous": false,
      "inputs": [
        {
          "indexed": true,
          "internalType": "address",
          "name": "previousOwner",
          "type": "address"
        },
        {
          "indexed": true,
          "internalType": "address",
          "name": "newOwner",
          "type": "address"
        }
      ],
      "name": "OwnershipTransferred",
      "type": "event"
    },
    {
      "anonymous": false,
      "inputs": [
        {
          "indexed": true,
          "internalType": "address",
          "name": "implementation",
          "type": "address"
        }
      ],
      "name": "Upgraded",
      "type": "event"
    },
    {
      "inputs": [],
      "name": "bucketsFactory",
      "outputs": [
        {
          "internalType": "address",
          "name": "",
          "type": "address"
        }
      ],
      "stateMutability": "view",
      "type": "function"
    },
    {
      "inputs": [
        {
          "internalType": "string",
          "name": "_name",
          "type": "string"
        },
        {
          "internalType": "string",
          "name": "_symbol",
          "type": "string"
        },
        {
          "internalType": "uint8",
          "name": "_decimals",
          "type": "uint8"
        }
      ],
      "name": "createDebtToken",
      "outputs": [
        {
          "internalType": "contract IDebtToken",
          "name": "",
          "type": "address"
        }
      ],
      "stateMutability": "nonpayable",
      "type": "function"
    },
    {
      "inputs": [],
      "name": "implementation",
      "outputs": [
        {
          "internalType": "address",
          "name": "",
          "type": "address"
        }
      ],
      "stateMutability": "view",
      "type": "function"
    },
    {
      "inputs": [],
      "name": "owner",
      "outputs": [
        {
          "internalType": "address",
          "name": "",
          "type": "address"
        }
      ],
      "stateMutability": "view",
      "type": "function"
    },
    {
      "inputs": [],
      "name": "registry",
      "outputs": [
        {
          "internalType": "address",
          "name": "",
          "type": "address"
        }
      ],
      "stateMutability": "view",
      "type": "function"
    },
    {
      "inputs": [],
      "name": "renounceOwnership",
      "outputs": [],
      "stateMutability": "nonpayable",
      "type": "function"
    },
    {
      "inputs": [
        {
          "internalType": "address",
          "name": "_bucketsFactory",
          "type": "address"
        }
      ],
      "name": "setBucketsFactory",
      "outputs": [],
      "stateMutability": "nonpayable",
      "type": "function"
    },
    {
      "inputs": [
        {
          "internalType": "bytes4",
          "name": "_interfaceId",
          "type": "bytes4"
        }
      ],
      "name": "supportsInterface",
      "outputs": [
        {
          "internalType": "bool",
          "name": "",
          "type": "bool"
        }
      ],
      "stateMutability": "view",
      "type": "function"
    },
    {
      "inputs": [
        {
          "internalType": "address",
          "name": "newOwner",
          "type": "address"
        }
      ],
      "name": "transferOwnership",
      "outputs": [],
      "stateMutability": "nonpayable",
      "type": "function"
    },
    {
      "inputs": [
        {
          "internalType": "address",
          "name": "_debtTokenImplementation",
          "type": "address"
        }
      ],
      "name": "upgradeTo",
      "outputs": [],
      "stateMutability": "nonpayable",
      "type": "function"
    }
  ],
  "transactionHash": "0x954284b69d9b03d00336d4cdd1fd58e4aa1fc0a25f83072097c981e261e51ba7",
  "args": [
    "0x99b38366db66050004Ad16FE260501E6B0D616b8",
    "0x7Efd1965390D1EDb1A6d0d7bdAa5b501d0aEc7bB"
  ],
  "numDeployments": 1,
  "solcInputHash": "ac08d1652288d4d03be56436412dd0c4",
  "bytecode": "0x608060409080825234620002285781816200116b80380380916200002482856200022d565b83398101031262000228576200003a8162000267565b906200004a602080920162000267565b60008054336001600160a01b031980831682178455875190966001600160a01b0396949390929087167f8be0079c531659141344cd1fd0a4f28419497f9722a3daafe3b4186f6b6457e08580a3813b15620001c0575084168086600154161760015586519280846024816301ffc9a760e01b95868252633d5b079f60e11b60048301525afa938415620001b657839462000192575b508362000119575b5050501562000108571690600354161760035551610ed49081620002978239f35b835163044aa57560e41b8152600490fd5b8751918252637965db0b60e01b60048301529192509080826024818789165afa92831562000187579262000153575b5050388080620000e7565b620001779250803d106200017f575b6200016e81836200022d565b8101906200027c565b388062000148565b503d62000162565b8751903d90823e3d90fd5b81620001ae9295503d86116200017f576200016e81836200022d565b9238620000df565b88513d85823e3d90fd5b62461bcd60e51b815260048101849052603360248201527f5570677261646561626c65426561636f6e3a20696d706c656d656e746174696f60448201527f6e206973206e6f74206120636f6e7472616374000000000000000000000000006064820152608490fd5b600080fd5b601f909101601f19168101906001600160401b038211908210176200025157604052565b634e487b7160e01b600052604160045260246000fd5b51906001600160a01b03821682036200022857565b90816020910312620002285751801515810362000228579056fe60806040818152600490813610156200001757600080fd5b600092833560e01c90816301ffc9a714620006875750806325a2e21a14620005005780633659cfe614620003c15780635c60da1b1462000396578063715018a614620003355780637b103999146200030a57806385ebb12b14620002df5780638da5cb5b14620002b15780638fece8d0146200016f5763f2fde38b146200009d57600080fd5b346200016b5760203660031901126200016b576001600160a01b038235818116939192908490036200016757620000d36200077a565b83156200011557505082546001600160a01b0319811683178455167f8be0079c531659141344cd1fd0a4f28419497f9722a3daafe3b4186f6b6457e08380a380f35b906020608492519162461bcd60e51b8352820152602660248201527f4f776e61626c653a206e6577206f776e657220697320746865207a65726f206160448201526564647265737360d01b6064820152fd5b8480fd5b8280fd5b5090346200016b5760209182600319360112620002ad5781356001600160a01b038181169491859003620002a9578160449160035416845192838092632474521560e21b82528a898301523360248301525afa9081156200026f57869162000287575b5015620002795781516301ffc9a760e01b81526313e9760960e01b848201528181602481885afa9182156200026f5786926200023b575b5050156200022e5750506bffffffffffffffffffffffff60a01b600254161760025580f35b5163044aa57560e41b8152fd5b6200025f9250803d1062000267575b620002568183620006e0565b81019062000815565b388062000209565b503d6200024a565b83513d88823e3d90fd5b505163036be76f60e61b8152fd5b620002a29150823d84116200026757620002568183620006e0565b38620001d2565b8580fd5b8380fd5b838234620002db5781600319360112620002db57905490516001600160a01b039091168152602090f35b5080fd5b838234620002db5781600319360112620002db5760025490516001600160a01b039091168152602090f35b838234620002db5781600319360112620002db5760035490516001600160a01b039091168152602090f35b83346200039357806003193601126200039357620003526200077a565b80546001600160a01b03198116825581906001600160a01b03167f8be0079c531659141344cd1fd0a4f28419497f9722a3daafe3b4186f6b6457e08280a380f35b80fd5b838234620002db5781600319360112620002db5760015490516001600160a01b039091168152602090f35b5090346200016b5760203660031901126200016b5780356001600160a01b0381169290838103620001675781516301ffc9a760e01b8152633d5b079f60e11b84820152602081602481885afa9081156200026f578691620004dd575b5015620004cf576200042e6200077a565b3b1562000470575050600180546001600160a01b031916821790557fbc7cd75a20ee27fd9adebab32041f755214dbc6bffa90cc0225b39da2e5c2d3b8280a280f35b906020608492519162461bcd60e51b8352820152603360248201527f5570677261646561626c65426561636f6e3a20696d706c656d656e746174696f6044820152721b881a5cc81b9bdd08184818dbdb9d1c9858dd606a1b6064820152fd5b505163044aa57560e41b8152fd5b620004f9915060203d81116200026757620002568183620006e0565b386200041d565b5090346200016b5760603660031901126200016b5767ffffffffffffffff908035828111620001675762000538903690830162000719565b91602435818111620002a95762000553903690840162000719565b9260443560ff811680910362000683576002546001600160a01b039590861690338203620006735791620005b0949391620005c3620005dd948a5197889563de7ea79d60e01b60208801526080602488015260a4870190620007d3565b85810360231901604487015290620007d3565b916064840152608483015203601f198101845283620006e0565b84519261066f9081850192858410908411176200066057509185620006159285946200083086393081528160208201520190620007d3565b039084f0801562000654576020935016907fa04071def2118a99b8bbefa9ed83b2c676f122681248ac9c946001262c592282838251848152a151908152f35b505051903d90823e3d90fd5b634e487b7160e01b885260419052602487fd5b8751633399906560e11b81528690fd5b8680fd5b849084346200016b5760203660031901126200016b573563ffffffff60e01b81168091036200016b5760209250630a96b04f60e31b8114908115620006ce575b5015158152f35b6301ffc9a760e01b14905083620006c7565b90601f8019910116810190811067ffffffffffffffff8211176200070357604052565b634e487b7160e01b600052604160045260246000fd5b81601f82011215620007755780359067ffffffffffffffff821162000703576040519262000752601f8401601f191660200185620006e0565b828452602083830101116200077557816000926020809301838601378301015290565b600080fd5b6000546001600160a01b031633036200078f57565b606460405162461bcd60e51b815260206004820152602060248201527f4f776e61626c653a2063616c6c6572206973206e6f7420746865206f776e65726044820152fd5b919082519283825260005b84811062000800575050826000602080949584010152601f8019910116010190565b602081830181015184830182015201620007de565b90816020910312620007755751801515810362000775579056fe608060409080825261066f80380380916100198285610350565b8339810190828183031261034b5761003081610373565b6020828101516001600160401b039391929184821161034b57019084601f8301121561034b5781519161006283610387565b9261006f88519485610350565b8084528484019685828401011161034b57868561008c93016103a2565b803b156102f9578551635c60da1b60e01b80825292916001600160a01b0316908481600481855afa9081156102ee576000916102b9575b503b1561025c577fa3f0ad74e5423aebfd80d3ef4346578335a9a72aeaee59ff6cb3582b35133d5080546001600160a01b03191682179055865192817f1cf3b03a6cf19fa2baba4df148e9dcabedea7f8a5c07840e207e5c089be95d3e600080a2825115801590610254575b610142575b87516101f690816104798239f35b6004848693819382525afa9182156102495760009261020f575b5085519360608501908111858210176101f9578652602784527f416464726573733a206c6f772d6c6576656c2064656c65676174652063616c6c83850152660819985a5b195960ca1b84870152516101e3946000918291845af4903d156101f0573d6101c781610387565b906101d488519283610350565b8152600081943d92013e6103c5565b5038808080808080610134565b606092506103c5565b634e487b7160e01b600052604160045260246000fd5b90918382813d8311610242575b6102268183610350565b8101031261023f575061023890610373565b903861015c565b80fd5b503d61021c565b86513d6000823e3d90fd5b50600061012f565b865162461bcd60e51b815260048101859052603060248201527f455243313936373a20626561636f6e20696d706c656d656e746174696f6e206960448201526f1cc81b9bdd08184818dbdb9d1c9858dd60821b6064820152608490fd5b908582813d83116102e7575b6102cf8183610350565b8101031261023f57506102e190610373565b386100c3565b503d6102c5565b88513d6000823e3d90fd5b855162461bcd60e51b815260048101849052602560248201527f455243313936373a206e657720626561636f6e206973206e6f74206120636f6e6044820152641d1c9858dd60da1b6064820152608490fd5b600080fd5b601f909101601f19168101906001600160401b038211908210176101f957604052565b51906001600160a01b038216820361034b57565b6001600160401b0381116101f957601f01601f191660200190565b60005b8381106103b55750506000910152565b81810151838201526020016103a5565b9192901561042757508151156103d9575090565b3b156103e25790565b60405162461bcd60e51b815260206004820152601d60248201527f416464726573733a2063616c6c20746f206e6f6e2d636f6e74726163740000006044820152606490fd5b82519091501561043a5750805190602001fd5b6044604051809262461bcd60e51b82526020600483015261046a81518092816024860152602086860191016103a2565b601f01601f19168101030190fdfe608080604052366100c4577fa3f0ad74e5423aebfd80d3ef4346578335a9a72aeaee59ff6cb3582b35133d5054635c60da1b60e01b8252602090829060049082906001600160a01b03165afa9081156100b857600091610060575b5061015b565b6020903d82116100b0575b601f8201601f1916810167ffffffffffffffff81118282101761009c5761009693506040520161017a565b3861005a565b634e487b7160e01b84526041600452602484fd5b3d915061006b565b6040513d6000823e3d90fd5b7fa3f0ad74e5423aebfd80d3ef4346578335a9a72aeaee59ff6cb3582b35133d5054604051635c60da1b60e01b815290602090829060049082906001600160a01b03165afa9081156100b85760009161011d575061015b565b60203d8111610154575b601f8101601f1916820167ffffffffffffffff81118382101761009c5761009693506040528101906101a1565b503d610127565b6000808092368280378136915af43d82803e15610176573d90f35b3d90fd5b602090607f19011261019c576080516001600160a01b038116810361019c5790565b600080fd5b9081602091031261019c57516001600160a01b038116810361019c579056fea2646970667358221220906e70dfc3e25db0371b9dd68435d657e2dba67c04d60c8925c269032b42667c64736f6c63430008120033a264697066735822122020c7c189c0cbedf05a466374d62225cdd4e1327e8a79c4e881ab557fb18ebd7564736f6c63430008120033",
  "libraries": {
    "Errors": "0xB959663e3FAb840C9bfebC6d2d32822D25317292"
  },
  "devdoc": {
    "events": {
      "Upgraded(address)": {
        "details": "Emitted when the implementation returned by the beacon is changed."
      }
    },
    "kind": "dev",
    "methods": {
      "createDebtToken(string,string,uint8)": {
        "details": "Deploying a new DebtToken contract. Can be called by BucketsFactory only.",
        "params": {
          "_name": "The name of the new DebtToken.",
          "_symbol": "The symbol of the new DebtToken."
        }
      },
      "implementation()": {
        "details": "Returns the current implementation address."
      },
      "owner()": {
        "details": "Returns the address of the current owner."
      },
      "renounceOwnership()": {
        "details": "Leaves the contract without owner. It will not be possible to call `onlyOwner` functions. Can only be called by the current owner. NOTE: Renouncing ownership will leave the contract without an owner, thereby disabling any functionality that is only available to the owner."
      },
      "setBucketsFactory(address)": {
        "details": "Sets the BucketsFactory address. Only callable by the BIG_TIMELOCK_ADMIN role.",
        "params": {
          "bucketsFactory": "The BucketsFactory address."
        }
      },
      "transferOwnership(address)": {
        "details": "Transfers ownership of the contract to a new account (`newOwner`). Can only be called by the current owner."
      },
      "upgradeTo(address)": {
        "details": "Upgrades the beacon to a new implementation. Emits an {Upgraded} event. Requirements: - msg.sender must be the owner of the contract. - `newImplementation` must be a contract."
      }
    },
    "stateVariables": {
      "bucketsFactory": {
        "details": "Gets a BucketsFactory contract address."
      },
      "registry": {
        "details": "Gets a Registry contract address."
      }
    },
    "version": 1
  },
  "userdoc": {
    "kind": "user",
    "methods": {
      "supportsInterface(bytes4)": {
        "notice": "Interface checker"
      }
    },
    "version": 1
  },
  "storageLayout": {
    "storage": [
      {
        "astId": 7887,
        "contract": "contracts/DebtToken/DebtTokenFactory.sol:DebtTokensFactory",
        "label": "_owner",
        "offset": 0,
        "slot": "0",
        "type": "t_address"
      },
      {
        "astId": 9450,
        "contract": "contracts/DebtToken/DebtTokenFactory.sol:DebtTokensFactory",
        "label": "_implementation",
        "offset": 0,
        "slot": "1",
        "type": "t_address"
      },
      {
        "astId": 27427,
        "contract": "contracts/DebtToken/DebtTokenFactory.sol:DebtTokensFactory",
        "label": "bucketsFactory",
        "offset": 0,
        "slot": "2",
        "type": "t_address"
      },
      {
        "astId": 27430,
        "contract": "contracts/DebtToken/DebtTokenFactory.sol:DebtTokensFactory",
        "label": "registry",
        "offset": 0,
        "slot": "3",
        "type": "t_address"
      }
    ],
    "types": {
      "t_address": {
        "encoding": "inplace",
        "label": "address",
        "numberOfBytes": "20"
      }
    }
  }
}