{
  "address": "0xbB3131AB7F69b6939687991185903616ecbB67ce",
  "abi": [
    {
      "inputs": [],
      "name": "DS_MATH_ADD_OVERFLOW",
      "type": "error"
    },
    {
      "inputs": [],
      "name": "DS_MATH_MUL_OVERFLOW",
      "type": "error"
    },
    {
      "anonymous": false,
      "inputs": [
        {
          "indexed": true,
          "internalType": "address",
          "name": "bucket",
          "type": "address"
        },
        {
          "indexed": false,
          "internalType": "uint256",
          "name": "urOptimal",
          "type": "uint256"
        },
        {
          "indexed": false,
          "internalType": "uint256",
          "name": "k0",
          "type": "uint256"
        },
        {
          "indexed": false,
          "internalType": "uint256",
          "name": "k1",
          "type": "uint256"
        },
        {
          "indexed": false,
          "internalType": "uint256",
          "name": "b0",
          "type": "uint256"
        },
        {
          "indexed": false,
          "internalType": "int256",
          "name": "b1",
          "type": "int256"
        }
      ],
      "name": "BarCalculationParamsChanged",
      "type": "event"
    },
    {
      "inputs": [
        {
          "internalType": "uint256",
          "name": "ur",
          "type": "uint256"
        },
        {
          "internalType": "uint256",
          "name": "reserveRate",
          "type": "uint256"
        }
      ],
      "name": "calculateInterestRates",
      "outputs": [
        {
          "internalType": "uint128",
          "name": "",
          "type": "uint128"
        },
        {
          "internalType": "uint128",
          "name": "",
          "type": "uint128"
        }
      ],
      "stateMutability": "view",
      "type": "function"
    },
    {
      "inputs": [
        {
          "internalType": "address",
          "name": "_address",
          "type": "address"
        }
      ],
      "name": "getBarCalculationParams",
      "outputs": [
        {
          "components": [
            {
              "internalType": "uint256",
              "name": "urOptimal",
              "type": "uint256"
            },
            {
              "internalType": "uint256",
              "name": "k0",
              "type": "uint256"
            },
            {
              "internalType": "uint256",
              "name": "k1",
              "type": "uint256"
            },
            {
              "internalType": "uint256",
              "name": "b0",
              "type": "uint256"
            },
            {
              "internalType": "int256",
              "name": "b1",
              "type": "int256"
            }
          ],
          "internalType": "struct IInterestRateStrategy.BarCalculationParams",
          "name": "",
          "type": "tuple"
        }
      ],
      "stateMutability": "view",
      "type": "function"
    },
    {
      "inputs": [
        {
          "internalType": "bytes",
          "name": "_params",
          "type": "bytes"
        }
      ],
      "name": "setBarCalculationParams",
      "outputs": [],
      "stateMutability": "nonpayable",
      "type": "function"
    },
    {
      "inputs": [
        {
          "internalType": "bytes4",
          "name": "_interfaceId",
          "type": "bytes4"
        }
      ],
      "name": "supportsInterface",
      "outputs": [
        {
          "internalType": "bool",
          "name": "",
          "type": "bool"
        }
      ],
      "stateMutability": "view",
      "type": "function"
    }
  ],
  "transactionHash": "0xd89e9615051cfe2944231dc6d78a158b937630bcec21283b14dadf1f699ba168",
  "args": [],
  "numDeployments": 1,
  "solcInputHash": "ac08d1652288d4d03be56436412dd0c4",
  "bytecode": "0x60808060405234610016576105be908161001c8239f35b600080fdfe608060408181526004908136101561001657600080fd5b600092833560e01c90816301ffc9a71461024057508063110966fa146102045780632acabb11146101055763ddce49171461005057600080fd5b346101015760203660031901126101015781356001600160a01b038116908190036100fd5783829160a0956080610085610294565b82815282602082015282868201528260608201520152815280602052206100aa610294565b918154938484526001830154602085019081526080600285015492848701938452600386015495606088019687520154950194855282519586525160208601525190840152516060830152516080820152f35b8380fd5b8280fd5b50903461010157602036600319011261010157803567ffffffffffffffff80821161020057366023830112156102005781830135908111610200578101366024820111610200578160a09103126100fd5761015e610294565b602482013581526020810193604483013585528082016064840135815260608301926084850135845260a46080820195013585523388528760205282882090519687825551918260018301555193846002830155519485600383015551958691015581519586526020860152840152606083015260808201527f7bd145cdd7c4e4ed7a51e9e3e4baa3c3c1622230c4dd7b084156536b0b930c1060a03392a280f35b8480fd5b50913461023d578260031936011261023d57506102259060243590356102ed565b82516001600160801b03928316815291166020820152f35b80fd5b84908434610101576020366003190112610101573563ffffffff60e01b81168091036101015760209250633983653f60e21b8114908115610283575b5015158152f35b6301ffc9a760e01b1490508361027c565b6040519060a0820182811067ffffffffffffffff8211176102b457604052565b634e487b7160e01b600052604160045260246000fd5b919082018092116102d757565b634e487b7160e01b600052601160045260246000fd5b9190916b033b2e3c9fd0803ce80000008082116104e15781156104d55760009333855284602052604080862091610322610294565b8354808252858760018701549360208101948552600288015480888301526003890154946060830195865260806004809b0154930192835283111560001461045557505061037761037c916103859551610525565b6104f3565b049051906102ca565b935b6001600160801b0395868611610445576103776103a49187610525565b0496816103cb575b50508386116103be5750508116921690565b5163fab766b560e01b8152fd5b909196670de0b6b3a76400009283039083821161043257906103ec91610525565b6706f05b59d3b2000081019182821161041f5750811061040f57049438806103ac565b8651630a77254f60e01b81528390fd5b634e487b7160e01b815260118552602490fd5b634e487b7160e01b835260118552602483fd5b50505051635ebef97160e01b8152fd5b61037792919550610467939450610525565b049080518981126000146104c457505180890381156000198383051417156104b157821061044557810190811161049e5793610387565b634e487b7160e01b885260118452602488fd5b634e487b7160e01b8a526011865260248afd5b90506104cf916102ca565b93610387565b50509050600090600090565b6040516356610cc760e01b8152600490fd5b906b019d971e4fe8401e740000008201918281116102d757821061051357565b604051630a77254f60e01b8152600490fd5b9190600092811591821561054f575b50501561053d57565b604051631550e8b760e01b8152600490fd5b818192939550028281048214831517156102d75780946105725704143880610534565b634e487b7160e01b600052601260045260246000fdfea264697066735822122033792019b2dbc0ca39c0b38c7a855c1f75dc3481133d879bfd3abd88033b28c864736f6c63430008120033",
  "libraries": {
    "Errors": "0xB959663e3FAb840C9bfebC6d2d32822D25317292"
  },
  "devdoc": {
    "kind": "dev",
    "methods": {
      "calculateInterestRates(uint256,uint256)": {
        "details": "Updates bucket's BAR and LAR. Calculates using utilization ratio (UR): BAR = UR <= URoptimal ? (k0 * UR + b0) : (k1 * UR + b1), where 'b1' may be < 0, LAR = BAR * UR, if reserveRate != 0, then LAR = LAR * (1 - reserveRate)",
        "params": {
          "reserveRate": "The reserve portion of the interest that goes to the Primex reserve",
          "ur": "Utilization ratio"
        },
        "returns": {
          "_0": "tuple containing BAR and LAR"
        }
      },
      "getBarCalculationParams(address)": {
        "details": "Retrieves the calculation parameters for the Bar calculation.",
        "params": {
          "_address": "an address of the bucket"
        },
        "returns": {
          "_0": "BarCalculationParams struct containing the parameters."
        }
      },
      "setBarCalculationParams(bytes)": {
        "details": "Set parameters for BAR calculation.",
        "params": {
          "_params": "parameters are represented in byte string"
        }
      },
      "supportsInterface(bytes4)": {
        "params": {
          "_interfaceId": "The interface id to check"
        }
      }
    },
    "version": 1
  },
  "userdoc": {
    "kind": "user",
    "methods": {
      "supportsInterface(bytes4)": {
        "notice": "Interface checker"
      }
    },
    "version": 1
  },
  "storageLayout": {
    "storage": [
      {
        "astId": 30711,
        "contract": "contracts/InterestRateStrategy.sol:InterestRateStrategy",
        "label": "calculationParams",
        "offset": 0,
        "slot": "0",
        "type": "t_mapping(t_address,t_struct(BarCalculationParams)57180_storage)"
      }
    ],
    "types": {
      "t_address": {
        "encoding": "inplace",
        "label": "address",
        "numberOfBytes": "20"
      },
      "t_int256": {
        "encoding": "inplace",
        "label": "int256",
        "numberOfBytes": "32"
      },
      "t_mapping(t_address,t_struct(BarCalculationParams)57180_storage)": {
        "encoding": "mapping",
        "key": "t_address",
        "label": "mapping(address => struct IInterestRateStrategy.BarCalculationParams)",
        "numberOfBytes": "32",
        "value": "t_struct(BarCalculationParams)57180_storage"
      },
      "t_struct(BarCalculationParams)57180_storage": {
        "encoding": "inplace",
        "label": "struct IInterestRateStrategy.BarCalculationParams",
        "members": [
          {
            "astId": 57171,
            "contract": "contracts/InterestRateStrategy.sol:InterestRateStrategy",
            "label": "urOptimal",
            "offset": 0,
            "slot": "0",
            "type": "t_uint256"
          },
          {
            "astId": 57173,
            "contract": "contracts/InterestRateStrategy.sol:InterestRateStrategy",
            "label": "k0",
            "offset": 0,
            "slot": "1",
            "type": "t_uint256"
          },
          {
            "astId": 57175,
            "contract": "contracts/InterestRateStrategy.sol:InterestRateStrategy",
            "label": "k1",
            "offset": 0,
            "slot": "2",
            "type": "t_uint256"
          },
          {
            "astId": 57177,
            "contract": "contracts/InterestRateStrategy.sol:InterestRateStrategy",
            "label": "b0",
            "offset": 0,
            "slot": "3",
            "type": "t_uint256"
          },
          {
            "astId": 57179,
            "contract": "contracts/InterestRateStrategy.sol:InterestRateStrategy",
            "label": "b1",
            "offset": 0,
            "slot": "4",
            "type": "t_int256"
          }
        ],
        "numberOfBytes": "160"
      },
      "t_uint256": {
        "encoding": "inplace",
        "label": "uint256",
        "numberOfBytes": "32"
      }
    }
  }
}