{
  "address": "0xc47c2B4c0F019d4f2fD63fe8c8307349534a48ef",
  "abi": [
    {
      "inputs": [],
      "name": "DS_MATH_ADD_OVERFLOW",
      "type": "error"
    },
    {
      "inputs": [],
      "name": "DS_MATH_MUL_OVERFLOW",
      "type": "error"
    },
    {
      "anonymous": false,
      "inputs": [
        {
          "indexed": true,
          "internalType": "address",
          "name": "bucket",
          "type": "address"
        },
        {
          "indexed": false,
          "internalType": "uint256",
          "name": "urOptimal",
          "type": "uint256"
        },
        {
          "indexed": false,
          "internalType": "uint256",
          "name": "k0",
          "type": "uint256"
        },
        {
          "indexed": false,
          "internalType": "uint256",
          "name": "k1",
          "type": "uint256"
        },
        {
          "indexed": false,
          "internalType": "uint256",
          "name": "b0",
          "type": "uint256"
        },
        {
          "indexed": false,
          "internalType": "int256",
          "name": "b1",
          "type": "int256"
        }
      ],
      "name": "BarCalculationParamsChanged",
      "type": "event"
    },
    {
      "inputs": [
        {
          "internalType": "uint256",
          "name": "ur",
          "type": "uint256"
        },
        {
          "internalType": "uint256",
          "name": "reserveRate",
          "type": "uint256"
        }
      ],
      "name": "calculateInterestRates",
      "outputs": [
        {
          "internalType": "uint128",
          "name": "",
          "type": "uint128"
        },
        {
          "internalType": "uint128",
          "name": "",
          "type": "uint128"
        }
      ],
      "stateMutability": "view",
      "type": "function"
    },
    {
      "inputs": [
        {
          "internalType": "address",
          "name": "_address",
          "type": "address"
        }
      ],
      "name": "getBarCalculationParams",
      "outputs": [
        {
          "components": [
            {
              "internalType": "uint256",
              "name": "urOptimal",
              "type": "uint256"
            },
            {
              "internalType": "uint256",
              "name": "k0",
              "type": "uint256"
            },
            {
              "internalType": "uint256",
              "name": "k1",
              "type": "uint256"
            },
            {
              "internalType": "uint256",
              "name": "b0",
              "type": "uint256"
            },
            {
              "internalType": "int256",
              "name": "b1",
              "type": "int256"
            }
          ],
          "internalType": "struct IInterestRateStrategy.BarCalculationParams",
          "name": "",
          "type": "tuple"
        }
      ],
      "stateMutability": "view",
      "type": "function"
    },
    {
      "inputs": [
        {
          "internalType": "bytes",
          "name": "_params",
          "type": "bytes"
        }
      ],
      "name": "setBarCalculationParams",
      "outputs": [],
      "stateMutability": "nonpayable",
      "type": "function"
    },
    {
      "inputs": [
        {
          "internalType": "bytes4",
          "name": "_interfaceId",
          "type": "bytes4"
        }
      ],
      "name": "supportsInterface",
      "outputs": [
        {
          "internalType": "bool",
          "name": "",
          "type": "bool"
        }
      ],
      "stateMutability": "view",
      "type": "function"
    }
  ],
  "transactionHash": "0x2bdd0ccd8f7c758c8f7b72caf4a12140505f0d270bfae1365eb599344f8db7da",
  "args": [],
  "numDeployments": 2,
  "solcInputHash": "89aabf2fa537de3869c847bae20cae69",
  "bytecode": "0x60808060405234601557610590908161001b8239f35b600080fdfe608080604052600436101561001357600080fd5b60003560e01c90816301ffc9a71461024f57508063110966fa146102155780632acabb11146101075763ddce49171461004b57600080fd5b34610102576020366003190112610102576004356001600160a01b03811690819003610102576000608061007d6102a2565b8281528260208201528260408201528260608201520152600052600060205260a060406000206100ab6102a2565b81549182825260018101546020830190815260028201549060408401918252608060046003850154946060870195865201549401938452604051948552516020850152516040840152516060830152516080820152f35b600080fd5b346101025760203660031901126101025760043567ffffffffffffffff8111610102573660238201121561010257806004013567ffffffffffffffff81116101025781013660248201116101025760a0908290031261010257600090600461016d6102a2565b9160248101358352602083019260448201358452604081016064830135815260608201916084840135835260a4608082019401358452338752866020526040872090519586825551918260018301555192836002830155519384600383015551948591015560405194855260208501526040840152606083015260808201527f7bd145cdd7c4e4ed7a51e9e3e4baa3c3c1622230c4dd7b084156536b0b930c1060a03392a280f35b346101025760403660031901126101025760406001600160801b0361023e6024356004356102fb565b835191831682529091166020820152f35b34610102576020366003190112610102576004359063ffffffff60e01b821680920361010257602091633983653f60e21b8114908115610291575b5015158152f35b6301ffc9a760e01b1490508361028a565b6040519060a0820182811067ffffffffffffffff8211176102c257604052565b634e487b7160e01b600052604160045260246000fd5b919082018092116102e557565b634e487b7160e01b600052601160045260246000fd5b9190916b033b2e3c9fd0803ce800000081116104ad5780156104a457336000526000602052604060002061032d6102a2565b9082815480845260018301549360208101948552600284015480604083015260806004600387015496606085019788520154920191825260009284111560001461044f575050506103829061038a93516104bf565b9051906102d8565b905b6001600160801b03821161043d576103a490826104bf565b92806103dc575b506001600160801b0383116103ca576001600160801b03809116921690565b60405163fab766b560e01b8152600490fd5b670de0b6b3a764000093919303670de0b6b3a764000081116102e557610401916104f8565b6706f05b59d3b200008101908181116102e557811061042c57670de0b6b3a7640000900491386103ab565b630a77254f60e01b60005260046000fd5b604051635ebef97160e01b8152600490fd5b90935061045e929194506104bf565b815190928112156104935750518060000381810560001914821517156102e557821061043d5781019081116102e5579061038c565b905061049e916102d8565b9061038c565b50600091508190565b6040516356610cc760e01b8152600490fd5b906104c9916104f8565b6b019d971e4fe8401e740000008101908181116102e557811061042c576b033b2e3c9fd0803ce8000000900490565b91906000928115918215610521575b50501561051057565b631550e8b760e01b60005260046000fd5b818192939550028281048214831517156102e55780946105445704143880610507565b634e487b7160e01b600052601260045260246000fdfea2646970667358221220557c33b5d37e318b48bc0fe63eccce0710561e2c54f1265fbd4cf06553a52a1364736f6c634300081a0033",
  "libraries": {
    "Errors": "0xB959663e3FAb840C9bfebC6d2d32822D25317292"
  },
  "devdoc": {
    "kind": "dev",
    "methods": {
      "calculateInterestRates(uint256,uint256)": {
        "details": "Updates bucket's BAR and LAR. Calculates using utilization ratio (UR): BAR = UR <= URoptimal ? (k0 * UR + b0) : (k1 * UR + b1), where 'b1' may be < 0, LAR = BAR * UR, if reserveRate != 0, then LAR = LAR * (1 - reserveRate)",
        "params": {
          "reserveRate": "The reserve portion of the interest that goes to the Primex reserve",
          "ur": "Utilization ratio"
        },
        "returns": {
          "_0": "tuple containing BAR and LAR"
        }
      },
      "getBarCalculationParams(address)": {
        "details": "Retrieves the calculation parameters for the Bar calculation.",
        "params": {
          "_address": "an address of the bucket"
        },
        "returns": {
          "_0": "BarCalculationParams struct containing the parameters."
        }
      },
      "setBarCalculationParams(bytes)": {
        "details": "Set parameters for BAR calculation.",
        "params": {
          "_params": "parameters are represented in byte string"
        }
      },
      "supportsInterface(bytes4)": {
        "params": {
          "_interfaceId": "The interface id to check"
        }
      }
    },
    "version": 1
  },
  "userdoc": {
    "kind": "user",
    "methods": {
      "supportsInterface(bytes4)": {
        "notice": "Interface checker"
      }
    },
    "version": 1
  },
  "storageLayout": {
    "storage": [
      {
        "astId": 39847,
        "contract": "contracts/InterestRateStrategy.sol:InterestRateStrategy",
        "label": "calculationParams",
        "offset": 0,
        "slot": "0",
        "type": "t_mapping(t_address,t_struct(BarCalculationParams)70461_storage)"
      }
    ],
    "types": {
      "t_address": {
        "encoding": "inplace",
        "label": "address",
        "numberOfBytes": "20"
      },
      "t_int256": {
        "encoding": "inplace",
        "label": "int256",
        "numberOfBytes": "32"
      },
      "t_mapping(t_address,t_struct(BarCalculationParams)70461_storage)": {
        "encoding": "mapping",
        "key": "t_address",
        "label": "mapping(address => struct IInterestRateStrategy.BarCalculationParams)",
        "numberOfBytes": "32",
        "value": "t_struct(BarCalculationParams)70461_storage"
      },
      "t_struct(BarCalculationParams)70461_storage": {
        "encoding": "inplace",
        "label": "struct IInterestRateStrategy.BarCalculationParams",
        "members": [
          {
            "astId": 70452,
            "contract": "contracts/InterestRateStrategy.sol:InterestRateStrategy",
            "label": "urOptimal",
            "offset": 0,
            "slot": "0",
            "type": "t_uint256"
          },
          {
            "astId": 70454,
            "contract": "contracts/InterestRateStrategy.sol:InterestRateStrategy",
            "label": "k0",
            "offset": 0,
            "slot": "1",
            "type": "t_uint256"
          },
          {
            "astId": 70456,
            "contract": "contracts/InterestRateStrategy.sol:InterestRateStrategy",
            "label": "k1",
            "offset": 0,
            "slot": "2",
            "type": "t_uint256"
          },
          {
            "astId": 70458,
            "contract": "contracts/InterestRateStrategy.sol:InterestRateStrategy",
            "label": "b0",
            "offset": 0,
            "slot": "3",
            "type": "t_uint256"
          },
          {
            "astId": 70460,
            "contract": "contracts/InterestRateStrategy.sol:InterestRateStrategy",
            "label": "b1",
            "offset": 0,
            "slot": "4",
            "type": "t_int256"
          }
        ],
        "numberOfBytes": "160"
      },
      "t_uint256": {
        "encoding": "inplace",
        "label": "uint256",
        "numberOfBytes": "32"
      }
    }
  }
}