{
  "address": "0x86890E30cE9E1e13Db5560BbEb435c55567Af1cd",
  "abi": [
    {
      "inputs": [],
      "stateMutability": "nonpayable",
      "type": "constructor"
    },
    {
      "inputs": [],
      "name": "DS_MATH_ADD_OVERFLOW",
      "type": "error"
    },
    {
      "inputs": [],
      "name": "DS_MATH_MUL_OVERFLOW",
      "type": "error"
    },
    {
      "anonymous": false,
      "inputs": [
        {
          "indexed": true,
          "internalType": "uint256",
          "name": "additionalGas",
          "type": "uint256"
        }
      ],
      "name": "AdditionalGasChanged",
      "type": "event"
    },
    {
      "anonymous": false,
      "inputs": [
        {
          "indexed": true,
          "internalType": "address",
          "name": "keeper",
          "type": "address"
        },
        {
          "indexed": true,
          "internalType": "address",
          "name": "asset",
          "type": "address"
        },
        {
          "indexed": false,
          "internalType": "uint256",
          "name": "amount",
          "type": "uint256"
        }
      ],
      "name": "ClaimFees",
      "type": "event"
    },
    {
      "anonymous": false,
      "inputs": [
        {
          "indexed": false,
          "internalType": "enum IKeeperRewardDistributorStorage.KeeperCallingMethod",
          "name": "callingMethod",
          "type": "uint8"
        },
        {
          "indexed": false,
          "internalType": "uint256",
          "name": "maxRoutesLength",
          "type": "uint256"
        },
        {
          "indexed": false,
          "internalType": "uint256",
          "name": "baseLength",
          "type": "uint256"
        }
      ],
      "name": "DataLengthRestrictionsChanged",
      "type": "event"
    },
    {
      "anonymous": false,
      "inputs": [
        {
          "indexed": true,
          "internalType": "enum IKeeperRewardDistributorStorage.DecreasingReason",
          "name": "reason",
          "type": "uint8"
        },
        {
          "indexed": false,
          "internalType": "uint256",
          "name": "amount",
          "type": "uint256"
        }
      ],
      "name": "DecreasingGasByReasonChanged",
      "type": "event"
    },
    {
      "anonymous": false,
      "inputs": [
        {
          "indexed": true,
          "internalType": "uint256",
          "name": "defaultMaxGasPrice",
          "type": "uint256"
        }
      ],
      "name": "DefaultMaxGasPriceChanged",
      "type": "event"
    },
    {
      "anonymous": false,
      "inputs": [
        {
          "indexed": false,
          "internalType": "uint8",
          "name": "version",
          "type": "uint8"
        }
      ],
      "name": "Initialized",
      "type": "event"
    },
    {
      "anonymous": false,
      "inputs": [
        {
          "indexed": true,
          "internalType": "address",
          "name": "keeper",
          "type": "address"
        },
        {
          "indexed": false,
          "internalType": "uint256",
          "name": "rewardInPmx",
          "type": "uint256"
        },
        {
          "indexed": false,
          "internalType": "uint256",
          "name": "rewardInNativeCurrency",
          "type": "uint256"
        }
      ],
      "name": "KeeperRewardUpdated",
      "type": "event"
    },
    {
      "anonymous": false,
      "inputs": [
        {
          "indexed": true,
          "internalType": "enum IKeeperRewardDistributorStorage.KeeperActionType",
          "name": "actionType",
          "type": "uint8"
        },
        {
          "components": [
            {
              "internalType": "uint256",
              "name": "baseMaxGas1",
              "type": "uint256"
            },
            {
              "internalType": "uint256",
              "name": "baseMaxGas2",
              "type": "uint256"
            },
            {
              "internalType": "uint256",
              "name": "multiplier1",
              "type": "uint256"
            },
            {
              "internalType": "uint256",
              "name": "multiplier2",
              "type": "uint256"
            },
            {
              "internalType": "uint256",
              "name": "inflectionPoint",
              "type": "uint256"
            }
          ],
          "indexed": false,
          "internalType": "struct IKeeperRewardDistributorStorage.KeeperActionRewardConfig",
          "name": "config",
          "type": "tuple"
        }
      ],
      "name": "MaxGasPerPositionChanged",
      "type": "event"
    },
    {
      "anonymous": false,
      "inputs": [
        {
          "indexed": false,
          "internalType": "int256",
          "name": "newMinPositionSizeMultiplier",
          "type": "int256"
        }
      ],
      "name": "MinPositionSizeMultiplierChanged",
      "type": "event"
    },
    {
      "anonymous": false,
      "inputs": [
        {
          "indexed": true,
          "internalType": "uint256",
          "name": "nativePartInReward",
          "type": "uint256"
        }
      ],
      "name": "NativePartInRewardChanged",
      "type": "event"
    },
    {
      "anonymous": false,
      "inputs": [
        {
          "indexed": true,
          "internalType": "uint256",
          "name": "oracleGasPriceTolerance",
          "type": "uint256"
        }
      ],
      "name": "OracleGasPriceToleranceChanged",
      "type": "event"
    },
    {
      "anonymous": false,
      "inputs": [
        {
          "indexed": false,
          "internalType": "address",
          "name": "account",
          "type": "address"
        }
      ],
      "name": "Paused",
      "type": "event"
    },
    {
      "anonymous": false,
      "inputs": [
        {
          "indexed": true,
          "internalType": "uint256",
          "name": "pmxPartInReward",
          "type": "uint256"
        }
      ],
      "name": "PmxPartInRewardChanged",
      "type": "event"
    },
    {
      "anonymous": false,
      "inputs": [
        {
          "indexed": true,
          "internalType": "uint256",
          "name": "positionSizeCoefficientA",
          "type": "uint256"
        },
        {
          "indexed": true,
          "internalType": "int256",
          "name": "positionSizeCoefficientB",
          "type": "int256"
        }
      ],
      "name": "PositionSizeCoefficientsChanged",
      "type": "event"
    },
    {
      "anonymous": false,
      "inputs": [
        {
          "indexed": false,
          "internalType": "address",
          "name": "account",
          "type": "address"
        }
      ],
      "name": "Unpaused",
      "type": "event"
    },
    {
      "inputs": [],
      "name": "additionalGas",
      "outputs": [
        {
          "internalType": "uint256",
          "name": "",
          "type": "uint256"
        }
      ],
      "stateMutability": "view",
      "type": "function"
    },
    {
      "inputs": [
        {
          "internalType": "uint256",
          "name": "_pmxAmount",
          "type": "uint256"
        },
        {
          "internalType": "uint256",
          "name": "_nativeAmount",
          "type": "uint256"
        }
      ],
      "name": "claim",
      "outputs": [],
      "stateMutability": "nonpayable",
      "type": "function"
    },
    {
      "inputs": [
        {
          "internalType": "enum IKeeperRewardDistributorStorage.KeeperCallingMethod",
          "name": "",
          "type": "uint8"
        }
      ],
      "name": "dataLengthRestrictions",
      "outputs": [
        {
          "internalType": "uint256",
          "name": "maxRoutesLength",
          "type": "uint256"
        },
        {
          "internalType": "uint256",
          "name": "baseLength",
          "type": "uint256"
        }
      ],
      "stateMutability": "view",
      "type": "function"
    },
    {
      "inputs": [
        {
          "internalType": "enum IKeeperRewardDistributorStorage.DecreasingReason",
          "name": "",
          "type": "uint8"
        }
      ],
      "name": "decreasingGasByReason",
      "outputs": [
        {
          "internalType": "uint256",
          "name": "",
          "type": "uint256"
        }
      ],
      "stateMutability": "view",
      "type": "function"
    },
    {
      "inputs": [],
      "name": "defaultMaxGasPrice",
      "outputs": [
        {
          "internalType": "uint256",
          "name": "",
          "type": "uint256"
        }
      ],
      "stateMutability": "view",
      "type": "function"
    },
    {
      "inputs": [
        {
          "components": [
            {
              "internalType": "address",
              "name": "priceOracle",
              "type": "address"
            },
            {
              "internalType": "address",
              "name": "registry",
              "type": "address"
            },
            {
              "internalType": "address",
              "name": "pmx",
              "type": "address"
            },
            {
              "internalType": "address",
              "name": "treasury",
              "type": "address"
            },
            {
              "internalType": "address",
              "name": "whiteBlackList",
              "type": "address"
            },
            {
              "internalType": "uint256",
              "name": "pmxPartInReward",
              "type": "uint256"
            },
            {
              "internalType": "uint256",
              "name": "nativePartInReward",
              "type": "uint256"
            },
            {
              "internalType": "uint256",
              "name": "positionSizeCoefficientA",
              "type": "uint256"
            },
            {
              "internalType": "int256",
              "name": "positionSizeCoefficientB",
              "type": "int256"
            },
            {
              "internalType": "uint256",
              "name": "additionalGas",
              "type": "uint256"
            },
            {
              "internalType": "uint256",
              "name": "defaultMaxGasPrice",
              "type": "uint256"
            },
            {
              "internalType": "uint256",
              "name": "oracleGasPriceTolerance",
              "type": "uint256"
            },
            {
              "internalType": "enum IKeeperRewardDistributorStorage.PaymentModel",
              "name": "paymentModel",
              "type": "uint8"
            },
            {
              "components": [
                {
                  "internalType": "enum IKeeperRewardDistributorStorage.KeeperActionType",
                  "name": "actionType",
                  "type": "uint8"
                },
                {
                  "components": [
                    {
                      "internalType": "uint256",
                      "name": "baseMaxGas1",
                      "type": "uint256"
                    },
                    {
                      "internalType": "uint256",
                      "name": "baseMaxGas2",
                      "type": "uint256"
                    },
                    {
                      "internalType": "uint256",
                      "name": "multiplier1",
                      "type": "uint256"
                    },
                    {
                      "internalType": "uint256",
                      "name": "multiplier2",
                      "type": "uint256"
                    },
                    {
                      "internalType": "uint256",
                      "name": "inflectionPoint",
                      "type": "uint256"
                    }
                  ],
                  "internalType": "struct IKeeperRewardDistributorStorage.KeeperActionRewardConfig",
                  "name": "config",
                  "type": "tuple"
                }
              ],
              "internalType": "struct IKeeperRewardDistributor.MaxGasPerPositionParams[]",
              "name": "maxGasPerPositionParams",
              "type": "tuple[]"
            },
            {
              "components": [
                {
                  "internalType": "enum IKeeperRewardDistributorStorage.DecreasingReason",
                  "name": "reason",
                  "type": "uint8"
                },
                {
                  "internalType": "uint256",
                  "name": "amount",
                  "type": "uint256"
                }
              ],
              "internalType": "struct IKeeperRewardDistributor.DecreasingGasByReasonParams[]",
              "name": "decreasingGasByReasonParams",
              "type": "tuple[]"
            }
          ],
          "internalType": "struct IKeeperRewardDistributor.InitParams",
          "name": "_params",
          "type": "tuple"
        }
      ],
      "name": "initialize",
      "outputs": [],
      "stateMutability": "nonpayable",
      "type": "function"
    },
    {
      "inputs": [
        {
          "internalType": "address",
          "name": "",
          "type": "address"
        }
      ],
      "name": "keeperBalance",
      "outputs": [
        {
          "internalType": "uint256",
          "name": "pmxBalance",
          "type": "uint256"
        },
        {
          "internalType": "uint256",
          "name": "nativeBalance",
          "type": "uint256"
        }
      ],
      "stateMutability": "view",
      "type": "function"
    },
    {
      "inputs": [
        {
          "internalType": "enum IKeeperRewardDistributorStorage.KeeperActionType",
          "name": "",
          "type": "uint8"
        }
      ],
      "name": "maxGasPerPosition",
      "outputs": [
        {
          "internalType": "uint256",
          "name": "baseMaxGas1",
          "type": "uint256"
        },
        {
          "internalType": "uint256",
          "name": "baseMaxGas2",
          "type": "uint256"
        },
        {
          "internalType": "uint256",
          "name": "multiplier1",
          "type": "uint256"
        },
        {
          "internalType": "uint256",
          "name": "multiplier2",
          "type": "uint256"
        },
        {
          "internalType": "uint256",
          "name": "inflectionPoint",
          "type": "uint256"
        }
      ],
      "stateMutability": "view",
      "type": "function"
    },
    {
      "inputs": [],
      "name": "minPositionSizeMultiplier",
      "outputs": [
        {
          "internalType": "int256",
          "name": "",
          "type": "int256"
        }
      ],
      "stateMutability": "view",
      "type": "function"
    },
    {
      "inputs": [],
      "name": "nativePartInReward",
      "outputs": [
        {
          "internalType": "uint256",
          "name": "",
          "type": "uint256"
        }
      ],
      "stateMutability": "view",
      "type": "function"
    },
    {
      "inputs": [],
      "name": "oracleGasPriceTolerance",
      "outputs": [
        {
          "internalType": "uint256",
          "name": "",
          "type": "uint256"
        }
      ],
      "stateMutability": "view",
      "type": "function"
    },
    {
      "inputs": [],
      "name": "pause",
      "outputs": [],
      "stateMutability": "nonpayable",
      "type": "function"
    },
    {
      "inputs": [],
      "name": "paused",
      "outputs": [
        {
          "internalType": "bool",
          "name": "",
          "type": "bool"
        }
      ],
      "stateMutability": "view",
      "type": "function"
    },
    {
      "inputs": [],
      "name": "paymentModel",
      "outputs": [
        {
          "internalType": "enum IKeeperRewardDistributorStorage.PaymentModel",
          "name": "",
          "type": "uint8"
        }
      ],
      "stateMutability": "view",
      "type": "function"
    },
    {
      "inputs": [],
      "name": "pmx",
      "outputs": [
        {
          "internalType": "address",
          "name": "",
          "type": "address"
        }
      ],
      "stateMutability": "view",
      "type": "function"
    },
    {
      "inputs": [],
      "name": "pmxPartInReward",
      "outputs": [
        {
          "internalType": "uint256",
          "name": "",
          "type": "uint256"
        }
      ],
      "stateMutability": "view",
      "type": "function"
    },
    {
      "inputs": [],
      "name": "positionSizeCoefficientA",
      "outputs": [
        {
          "internalType": "uint256",
          "name": "",
          "type": "uint256"
        }
      ],
      "stateMutability": "view",
      "type": "function"
    },
    {
      "inputs": [],
      "name": "positionSizeCoefficientB",
      "outputs": [
        {
          "internalType": "int256",
          "name": "",
          "type": "int256"
        }
      ],
      "stateMutability": "view",
      "type": "function"
    },
    {
      "inputs": [],
      "name": "priceOracle",
      "outputs": [
        {
          "internalType": "address",
          "name": "",
          "type": "address"
        }
      ],
      "stateMutability": "view",
      "type": "function"
    },
    {
      "inputs": [],
      "name": "registry",
      "outputs": [
        {
          "internalType": "address",
          "name": "",
          "type": "address"
        }
      ],
      "stateMutability": "view",
      "type": "function"
    },
    {
      "inputs": [
        {
          "internalType": "uint256",
          "name": "_additionalGas",
          "type": "uint256"
        }
      ],
      "name": "setAdditionalGas",
      "outputs": [],
      "stateMutability": "nonpayable",
      "type": "function"
    },
    {
      "inputs": [
        {
          "internalType": "enum IKeeperRewardDistributorStorage.KeeperCallingMethod",
          "name": "_callingMethod",
          "type": "uint8"
        },
        {
          "internalType": "uint256",
          "name": "_maxRoutesLength",
          "type": "uint256"
        },
        {
          "internalType": "uint256",
          "name": "_baseLength",
          "type": "uint256"
        }
      ],
      "name": "setDataLengthRestrictions",
      "outputs": [],
      "stateMutability": "nonpayable",
      "type": "function"
    },
    {
      "inputs": [
        {
          "internalType": "enum IKeeperRewardDistributorStorage.DecreasingReason",
          "name": "_reason",
          "type": "uint8"
        },
        {
          "internalType": "uint256",
          "name": "_amount",
          "type": "uint256"
        }
      ],
      "name": "setDecreasingGasByReason",
      "outputs": [],
      "stateMutability": "nonpayable",
      "type": "function"
    },
    {
      "inputs": [
        {
          "internalType": "uint256",
          "name": "_defaultMaxGasPrice",
          "type": "uint256"
        }
      ],
      "name": "setDefaultMaxGasPrice",
      "outputs": [],
      "stateMutability": "nonpayable",
      "type": "function"
    },
    {
      "inputs": [
        {
          "internalType": "enum IKeeperRewardDistributorStorage.KeeperActionType",
          "name": "_actionType",
          "type": "uint8"
        },
        {
          "components": [
            {
              "internalType": "uint256",
              "name": "baseMaxGas1",
              "type": "uint256"
            },
            {
              "internalType": "uint256",
              "name": "baseMaxGas2",
              "type": "uint256"
            },
            {
              "internalType": "uint256",
              "name": "multiplier1",
              "type": "uint256"
            },
            {
              "internalType": "uint256",
              "name": "multiplier2",
              "type": "uint256"
            },
            {
              "internalType": "uint256",
              "name": "inflectionPoint",
              "type": "uint256"
            }
          ],
          "internalType": "struct IKeeperRewardDistributorStorage.KeeperActionRewardConfig",
          "name": "_config",
          "type": "tuple"
        }
      ],
      "name": "setMaxGasPerPosition",
      "outputs": [],
      "stateMutability": "nonpayable",
      "type": "function"
    },
    {
      "inputs": [
        {
          "internalType": "int256",
          "name": "_minPositionSizeMultiplier",
          "type": "int256"
        }
      ],
      "name": "setMinPositionSizeMultiplier",
      "outputs": [],
      "stateMutability": "nonpayable",
      "type": "function"
    },
    {
      "inputs": [
        {
          "internalType": "uint256",
          "name": "_nativePartInReward",
          "type": "uint256"
        }
      ],
      "name": "setNativePartInReward",
      "outputs": [],
      "stateMutability": "nonpayable",
      "type": "function"
    },
    {
      "inputs": [
        {
          "internalType": "uint256",
          "name": "_oracleGasPriceTolerance",
          "type": "uint256"
        }
      ],
      "name": "setOracleGasPriceTolerance",
      "outputs": [],
      "stateMutability": "nonpayable",
      "type": "function"
    },
    {
      "inputs": [
        {
          "internalType": "uint256",
          "name": "_pmxPartInReward",
          "type": "uint256"
        }
      ],
      "name": "setPmxPartInReward",
      "outputs": [],
      "stateMutability": "nonpayable",
      "type": "function"
    },
    {
      "inputs": [
        {
          "internalType": "uint256",
          "name": "_positionSizeCoefficientA",
          "type": "uint256"
        },
        {
          "internalType": "int256",
          "name": "_positionSizeCoefficientB",
          "type": "int256"
        }
      ],
      "name": "setPositionSizeCoefficients",
      "outputs": [],
      "stateMutability": "nonpayable",
      "type": "function"
    },
    {
      "inputs": [
        {
          "internalType": "bytes4",
          "name": "_interfaceId",
          "type": "bytes4"
        }
      ],
      "name": "supportsInterface",
      "outputs": [
        {
          "internalType": "bool",
          "name": "",
          "type": "bool"
        }
      ],
      "stateMutability": "view",
      "type": "function"
    },
    {
      "inputs": [],
      "name": "totalBalance",
      "outputs": [
        {
          "internalType": "uint256",
          "name": "pmxBalance",
          "type": "uint256"
        },
        {
          "internalType": "uint256",
          "name": "nativeBalance",
          "type": "uint256"
        }
      ],
      "stateMutability": "view",
      "type": "function"
    },
    {
      "inputs": [],
      "name": "treasury",
      "outputs": [
        {
          "internalType": "address payable",
          "name": "",
          "type": "address"
        }
      ],
      "stateMutability": "view",
      "type": "function"
    },
    {
      "inputs": [],
      "name": "unpause",
      "outputs": [],
      "stateMutability": "nonpayable",
      "type": "function"
    },
    {
      "inputs": [
        {
          "components": [
            {
              "internalType": "address",
              "name": "keeper",
              "type": "address"
            },
            {
              "internalType": "address",
              "name": "positionAsset",
              "type": "address"
            },
            {
              "internalType": "uint256",
              "name": "positionSize",
              "type": "uint256"
            },
            {
              "internalType": "enum IKeeperRewardDistributorStorage.KeeperActionType",
              "name": "action",
              "type": "uint8"
            },
            {
              "internalType": "uint256",
              "name": "numberOfActions",
              "type": "uint256"
            },
            {
              "internalType": "uint256",
              "name": "gasSpent",
              "type": "uint256"
            },
            {
              "internalType": "uint256[]",
              "name": "decreasingCounter",
              "type": "uint256[]"
            },
            {
              "internalType": "uint256",
              "name": "routesLength",
              "type": "uint256"
            }
          ],
          "internalType": "struct IKeeperRewardDistributor.UpdateRewardParams",
          "name": "_params",
          "type": "tuple"
        }
      ],
      "name": "updateReward",
      "outputs": [],
      "stateMutability": "nonpayable",
      "type": "function"
    }
  ],
  "transactionHash": "0x06bcfd9e75e51fcd7893c3edbf88d8f38cf39d17bac626b7e686393b6b7d91a6",
  "args": [],
  "numDeployments": 1,
  "solcInputHash": "ac08d1652288d4d03be56436412dd0c4",
  "bytecode": "0x608080604052346100c1576000549060ff8260081c1661006f575060ff80821603610034575b6040516124c890816100c78239f35b60ff90811916176000557f7f26b83ff96e1f2b6a682f133852f6798a09c465da95921460cefb3847402498602060405160ff8152a138610025565b62461bcd60e51b815260206004820152602760248201527f496e697469616c697a61626c653a20636f6e747261637420697320696e697469604482015266616c697a696e6760c81b6064820152608490fd5b600080fdfe6080604081815260048036101561001557600080fd5b600092833560e01c90816301ffc9a7146119bd575080630460f0f314611994578063129d82fb146119755780632630c12f1461194c5780632c4c4bc71461189a578063332a72a1146117b45780633963cecd146117955780633f4ba83a14611686578063466c552e146116675780634a8a4f01146115a657806351ed1b201461150c578063522b4a711461143e57806359fd074b146113d95780635c975abb146113b557806361d027b31461138c57806365bf568a146112da578063748397301461121e5780637b103999146111f55780638456cb59146111135780639ba6049f146110d7578063a16538aa14610f09578063a3c37fc714610eea578063a5552950146108ef578063ad7a672f146108c7578063bb9d3dbb14610887578063c01031cd14610868578063c28ee59414610849578063c349026314610577578063c38dca08146104ab578063c932eff61461048c578063d604c08b14610469578063e36d6ebf1461032a578063e6e13338146102f1578063ef1f3c33146101ea5763fcd3f03e146101a457600080fd5b346101e65760203660031901126101e657356001600160a01b038116908190036101e657918192815260d5602052206001815491015482519182526020820152f35b8280fd5b50346101e65760603660031901126101e65780359160038310156102ed57602435604435926044602060018060a01b0360ca5416855192838092632474521560e21b8252600080516020612473833981519152878301523360248301525afa9081156102e35787916102b5575b50156102a757509183916060938260016102917f914216b6e367e07ec47e2356460e0e9ec4997e7919489ed5e8da444b2128a8fa98611a49565b838155015581519384526020840152820152a180f35b825163036be76f60e61b8152fd5b6102d6915060203d81116102dc575b6102ce8183611aa5565b810190611ac7565b38610257565b503d6102c4565b84513d89823e3d90fd5b8380fd5b50346101e65760203660031901126101e6573560058110156101e6576020928161031b8493611a29565b815260da845220549051908152f35b5090346101e65760c03660031901126101e65781359160058310156102ed5760a03660231901126102ed5760ca548251632474521560e21b81526000805160206124738339815191528382015233602482015290602090829060449082906001600160a01b03165afa90811561045f578591610441575b5015610433577fbfc6fa01f8337395cfd01c20354d665a007fc28c8cd1ee7d33ef9924dc9cc4249160a0916103d585611a29565b8460005260d8602052816000206024359283825560443590816001840155606435918260028501556084359384600382015560a435958691015561041889611a29565b8151958652602086015284015260608301526080820152a280f35b905163036be76f60e61b8152fd5b610459915060203d81116102dc576102ce8183611aa5565b386103a1565b83513d87823e3d90fd5b50503461048857816003193601126104885760209060dc549051908152f35b5080fd5b50503461048857816003193601126104885760209060cf549051908152f35b50346101e657816003193601126101e657803590602435926044602060018060a01b0360ca5416835192838092632474521560e21b8252600080516020612473833981519152888301523360248301525afa90811561056d57869161054f575b50156105425750508060cf558160d0557fa4789945324ec10a380a207a60e56ee9a5b8d7b1335a4f98f7e495b07780139c8380a380f35b5163036be76f60e61b8152fd5b610567915060203d81116102dc576102ce8183611aa5565b3861050b565b82513d88823e3d90fd5b5090346101e657806003193601126101e6578135906024356002600154146108065760026001556105a6612214565b60db548251630723eb0360e51b815233868201526020926001600160a01b039290919084908290602490829087165afa9081156107bf5788916107e9575b506107d957908691859084819733865260d58252610603888720611c26565b9081518091116107d1575b5001518091116107c9575b5080610702575b508461062f575b506001805580f35b33825260d58352600184832001610647868254612207565b90556106558560d754612207565b60d75560cc541694853b1561048857848451916334ec91f960e21b83528201528181606481837399ec76235f8a5a52611b0da5f0c6b09e1dcd2c9e9a8b60248401523360448401525af180156106f8576106e0575b50507f3a7691a2eabd7b5e0660276ff6ab206719a7f37c923c70c4fd59567243e2cffd91519283523392a3388080808481610627565b6106e990611a7b565b6106f45784386106aa565b8480fd5b84513d84823e3d90fd5b90915033875260d5835283872061071a828254612207565b90556107288160d654612207565b60d6558160cc5416878360cb541691803b15610488576064898386938a5196879586946334ec91f960e21b865285015260248401523360448401525af180156107bf576107aa575b509086918160cb54169085519081527f3a7691a2eabd7b5e0660276ff6ab206719a7f37c923c70c4fd59567243e2cffd853392a338610620565b6107b79097919297611a7b565b959038610770565b85513d8a823e3d90fd5b955038610619565b93503861060e565b83516333df015b60e01b81528690fd5b6108009150843d86116102dc576102ce8183611aa5565b386105e4565b815162461bcd60e51b8152602081860152601f60248201527f5265656e7472616e637947756172643a207265656e7472616e742063616c6c006044820152606490fd5b50503461048857816003193601126104885760209060d2549051908152f35b50503461048857816003193601126104885760209060d3549051908152f35b5091903461048857816003193601126104885760ff60d4541690519160028210156108b457602083838152f35b634e487b7160e01b815260218452602490fd5b8284346108ec57806003193601126108ec575060d65460d75482519182526020820152f35b80fd5b50346101e6576020906003199282843601126106f45781359367ffffffffffffffff8511610ee6576101e0858401918636030112610ee65785549460ff8660081c161591828093610ed9575b8015610ec2575b15610e685760019460ff199784878a8316178b55610e57575b506024838101906001600160a01b03908b908261097785611a62565b1689518c8184816301ffc9a760e01b95868252637965db0b60e01b8c8301525afa938415610d7657908d929194610e38575b5083610dde575b83610d81575b83610d19575b83610cb2575b50505015610ca25780610a10816109db60448901611a62565b16936bffffffffffffffffffffffff60a01b948560cb54161760cb5582610a0188611a62565b168560c954161760c955611a62565b168260ca54161760ca5580610a2760648701611a62565b168260cc54161760cc55610a3d60848601611a62565b169060db54161760db5560a483013560cd5560c483013560ce5560e483013560cf5561010483013560d05561012483013560d15561014483013560d25561016483013560d3556101848301359060029182811015610c9e57908793929160ff8b60d4541691161760d4558a91846101a48701905b610bae575b505050506101c4899301915b610b49575b505050610b0b86549560ff8760081c1690610ae182611ba6565b610aea82611ba6565b858055610af682611ba6565b610aff82611ba6565b60655416606555611ba6565b610b13578480f35b7f7f26b83ff96e1f2b6a682f133852f6798a09c465da95921460cefb38474024989361ff001916855551908152a1388080808480f35b610b538282611b60565b9050831015610ba957610b7083610b6a8484611b60565b90611b96565b356005811015610ba55783610b9a610b9f928a610b928b98610b6a8989611b60565b013590612258565b611adf565b92610ac2565b8980fd5b610ac7565b9091929394610bbd8287611b04565b9050851015610c9757508b610bdc85610bd68489611b04565b90611b3a565b35946005861015610488578a957fbfc6fa01f8337395cfd01c20354d665a007fc28c8cd1ee7d33ef9924dc9cc424610c8c938c8f899082610c22888f8c610bd691611b04565b94610c2c88611a29565b87815260d88352208c8b8387013595868455808801358093850155606092838901358093860155608095868a01359586600382015560a0809b01359889910155610c758c611a29565b8251988952880152860152840152820152a2611adf565b929190849594610ab1565b9493610ab6565b8a80fd5b865163044aa57560e41b81528390fd5b9091925083610cc360848a01611a62565b16928a51809481938252633df6cef760e01b898301525afa908115610d0f578c91610cf2575b50388a816109c2565b610d0991508a3d8c116102dc576102ce8183611aa5565b38610ce9565b88513d8e823e3d90fd5b9250818e9185610d2b60448c01611a62565b168c51928380928882526336372b0760e01b8c8301525afa918215610d7657908d92610d59575b50926109bc565b610d709150823d84116102dc576102ce8183611aa5565b38610d52565b8b51903d90823e3d90fd5b9250818e9185610d9360648c01611a62565b168c51928380928882526329abf30760e11b8c8301525afa918215610d7657908d92610dc1575b50926109b6565b610dd89150823d84116102dc576102ce8183611aa5565b38610dba565b9250818e9185610ded8a611a62565b168c51928380928882526341636c7560e11b8c8301525afa918215610d7657908d92610e1b575b50926109b0565b610e329150823d84116102dc576102ce8183611aa5565b38610e14565b610e50919450823d84116102dc576102ce8183611aa5565b92386109a9565b61ffff19166101011789553861095b565b835162461bcd60e51b8152808601879052602e60248201527f496e697469616c697a61626c653a20636f6e747261637420697320616c72656160448201526d191e481a5b9a5d1a585b1a5e995960921b6064820152608490fd5b50303b1580156109425750600160ff881614610942565b50600160ff88161061093b565b8580fd5b50503461048857816003193601126104885760209060ce549051908152f35b509190346104885760031990602036830181136102ed5784359267ffffffffffffffff84116106f4576101009084360301126102ed5760ca548251632474521560e21b8082527f5580ea9b7f9becaa48a78f506a2019ea24794b7a717ee6a4b9f62e36b94c25a68883015233602483015290916001600160a01b0316908383604481855afa9283156110ae5787936110b8575b508215611042575b8215610fd2575b5050905015610fc35750610fc0919201611c55565b80f35b5163036be76f60e61b81528390fd5b83919250604485518094819382527f28eb28c26cbbd48a6bfad016505ccf4a189452995f59d16217af8920961ed25c8b8301523360248301525afa91821561045f578592611025575b5050803880610fab565b61103b9250803d106102dc576102ce8183611aa5565b388061101b565b915083518281527f8f8b3dc194d940c9ce77bea0cf23855523a0d7b641973e714d9dc5f3528a573a888201523360248201528381604481855afa9081156110ae578791611091575b5091610fa4565b6110a89150843d86116102dc576102ce8183611aa5565b3861108a565b85513d89823e3d90fd5b6110d0919350843d86116102dc576102ce8183611aa5565b9138610f9c565b5082903461048857602036600319011261048857359060038210156108ec575061110090611a49565b6001815491015482519182526020820152f35b50346101e657826003193601126101e65760ca548251632474521560e21b81527f5c91514091af31f62f596a314af7d5be40146b2f2355969392f055e12e0982fb8382015233602482015290602090829060449082906001600160a01b03165afa9081156111e85784916111ca575b5015610433575060207f62e78cea01bee320cd4e420270b5ea74000d11b0c9f74754ebdbfc544b05a258916111b5612214565b600160ff19606554161760655551338152a180f35b6111e2915060203d81116102dc576102ce8183611aa5565b38611182565b50505051903d90823e3d90fd5b50503461048857816003193601126104885760ca5490516001600160a01b039091168152602090f35b50346101e65760203660031901126101e65760ca548251632474521560e21b81526000805160206124738339815191528184015233602482015282359391602090829060449082906001600160a01b03165afa9081156112d05785916112b2575b50156105425750508060d1557fac3e0e532f107b556a4483ee89fa8a6d20788e9ec96a2b0131246a2e790f0f098280a280f35b6112ca915060203d81116102dc576102ce8183611aa5565b3861127f565b82513d87823e3d90fd5b50346101e65760203660031901126101e65760ca548251632474521560e21b81526000805160206124738339815191528184015233602482015282359391602090829060449082906001600160a01b03165afa9081156112d057859161136e575b50156105425750508060d3557fc9b6fec85cf82ed032526c3a1bbc72a81c4cef31fa9ab33b10794ba8403513f48280a280f35b611386915060203d81116102dc576102ce8183611aa5565b3861133b565b50503461048857816003193601126104885760cc5490516001600160a01b039091168152602090f35b50503461048857816003193601126104885760209060ff6065541690519015158152f35b5090346101e65760203660031901126101e657813560058110156102ed5760a093816114058493611a29565b815260d8602052208054926001820154926002830154916003840154930154938151958652602086015284015260608301526080820152f35b50346101e65760203660031901126101e65760ca548251632474521560e21b81526000805160206124738339815191528184015233602482015282359391602090829060449082906001600160a01b03165afa9081156112d05785916114ee575b501561054257678ac7230489e8000083116114e15750508060cd557f0866f0eddab536ffa2ae6d0c094f37e4876779d4079734c513b8ab63520f40468280a280f35b51632e72686160e21b8152fd5b611506915060203d81116102dc576102ce8183611aa5565b3861149f565b50346101e657816003193601126101e65780359160058310156102ed5760ca548151632474521560e21b81526000805160206124738339815191528482015233602482015290602090829060449082906001600160a01b03165afa9081156112d0578591611588575b50156105425783610fc060243585612258565b6115a0915060203d81116102dc576102ce8183611aa5565b38611575565b50346101e65760203660031901126101e65760ca548251632474521560e21b81526000805160206124738339815191528184015233602482015282359391602090829060449082906001600160a01b03165afa9081156112d0578591611649575b501561054257678ac7230489e8000083116114e15750508060ce557fac4e2f47a168b9426760c27ccec778fd54ea706bd269dd48617d7cf68a014a998280a280f35b611661915060203d81116102dc576102ce8183611aa5565b38611607565b50503461048857816003193601126104885760209060cd549051908152f35b50346101e657826003193601126101e65760ca548251632474521560e21b81527f5a7d4408f4759dddd7fdfd0d21abd99341dc2f52cda14804988a9b2df20766d88382015233602482015290602090829060449082906001600160a01b03165afa9081156111e8578491611777575b5015610433576065549060ff82161561173d575060ff1916606555513381527f5db9ee0a495bf2e6ff9c91a7834c1ba4fdd244a5e8aa4e537bd38aeae4b073aa90602090a180f35b606490602084519162461bcd60e51b8352820152601460248201527314185d5cd8589b194e881b9bdd081c185d5cd95960621b6044820152fd5b61178f915060203d81116102dc576102ce8183611aa5565b386116f5565b50503461048857816003193601126104885760209060d0549051908152f35b5090346101e65760203660031901126101e65760ca548151632474521560e21b81526000805160206124738339815191528185015233602482015283359391602090829060449082906001600160a01b03165afa90811561045f57859161187c575b5015610433578383138061186a575b1561185c5750816020917f40066df7a841da7e7ca0b9fb5454b80f1a2d22bca3e3d99d8f395348bdb0799f9360dc5551908152a180f35b90516326711fb360e11b8152fd5b50671bc16d674ec80000831115611825565b611894915060203d81116102dc576102ce8183611aa5565b38611816565b50346101e65760203660031901126101e65760ca548251632474521560e21b81526000805160206124738339815191528184015233602482015282359391602090829060449082906001600160a01b03165afa9081156112d057859161192e575b50156105425750508060d2557f123d6dec98f165501c5a4efa12a37cee89b488c3dbaad98fb2c365bdedf1a8a98280a280f35b611946915060203d81116102dc576102ce8183611aa5565b386118fb565b50503461048857816003193601126104885760c95490516001600160a01b039091168152602090f35b50503461048857816003193601126104885760209060d1549051908152f35b50503461048857816003193601126104885760cb5490516001600160a01b039091168152602090f35b925050346101e65760203660031901126101e6573563ffffffff60e01b81168091036101e6576020925063332a72a160e01b8114908115611a18575b8115611a07575b5015158152f35b6301ffc9a760e01b14905038611a00565b6307cba1f360e41b811491506119f9565b60051115611a3357565b634e487b7160e01b600052602160045260246000fd5b6003811015611a335760005260d9602052604060002090565b356001600160a01b0381168103611a765790565b600080fd5b67ffffffffffffffff8111611a8f57604052565b634e487b7160e01b600052604160045260246000fd5b90601f8019910116810190811067ffffffffffffffff821117611a8f57604052565b90816020910312611a7657518015158103611a765790565b6000198114611aee5760010190565b634e487b7160e01b600052601160045260246000fd5b903590601e1981360301821215611a76570180359067ffffffffffffffff8211611a76576020019160c0820236038313611a7657565b9190811015611b4a5760c0020190565b634e487b7160e01b600052603260045260246000fd5b903590601e1981360301821215611a76570180359067ffffffffffffffff8211611a7657602001918160061b36038313611a7657565b9190811015611b4a5760061b0190565b15611bad57565b60405162461bcd60e51b815260206004820152602b60248201527f496e697469616c697a61626c653a20636f6e7472616374206973206e6f74206960448201526a6e697469616c697a696e6760a81b6064820152608490fd5b91908201809211611aee57565b81810292918115918404141715611aee57565b906040516040810181811067ffffffffffffffff821117611a8f57604052602060018294805484520154910152565b611c6160208201611a62565b60c9546040805163a3f092a760e01b81526001600160a01b0393841660048201527399ec76235f8a5a52611b0da5f0c6b09e1dcd2c9e60248201529084013560448201529116606482015260208160848173ab03C0c0Ba39a886eD51757272E91cd7395421185af48015611fca576000906121d3575b611ce5915060cf54906123df565b9060d0549160008382019384129112908015821691151617611aee578160008113156121ce5760dc548091126121c6575b5060d15460c0820135601e1983360301811215611a765782019081359167ffffffffffffffff8311611a76576020018260051b36038113611a7657611d6992611d639160a08601356122b7565b90611c06565b91600560608301351015611a7657611d8960808301356060840135612352565b8084116121be575b5060c95460405163455259cb60e01b81526001600160a01b0390911693903a90602081600481895afa908115611fca5760009161218c575b5060008113156121835760d354670de0b6b3a7640000908101809111611aee57611df2916123df565b80821161217b575b5060009160ff60d45416600281101561216757600114611fd6575b91611e27611e2c92611e319594611c13565b611c06565b6123df565b611e3d60ce54826123df565b9260018060a01b0360cb5416916040519263a3f092a760e01b84527399ec76235f8a5a52611b0da5f0c6b09e1dcd2c9e600485015260248401526044830152606482015260208160848173ab03C0c0Ba39a886eD51757272E91cd7395421185af4908115611fca57600091611f78575b507fb5b60f38246a38a2fd794a7da06cc6a0c32cf4d0b94c9683fde017ee3ea5dbf691611edf60409260cd54906123df565b906001600160a01b03611ef182611a62565b1660005260d560205282600020611f09838254611c06565b90556001600160a01b03611f1c82611a62565b1660005260d560205260018360002001611f37868254611c06565b9055611f458260d654611c06565b60d655611f548560d754611c06565b60d7556001600160a01b0390611f6990611a62565b169382519182526020820152a2565b906020823d602011611fc2575b81611f9260209383611aa5565b810103126108ec5750517fb5b60f38246a38a2fd794a7da06cc6a0c32cf4d0b94c9683fde017ee3ea5dbf6611ead565b3d9150611f85565b6040513d6000823e3d90fd5b9180600160808701351115612132575060026080860135608087013560061b04604014608087013515171561211e5761203a61202161201c608089013560061b93611a49565b611c26565b9160e08801358351808210600014612116575090611c06565b60405163f5d6ded760e01b815291602083600481606c5afa92831561210b5784936120d7575b508260041b92808404601014901517156120c3576020015161208191611c06565b91608c83018093116120af5750611e2c926120a4611e31969593611e2793611c13565b949550925050611e15565b634e487b7160e01b81526011600452602490fd5b634e487b7160e01b84526011600452602484fd5b9092506020813d602011612103575b816120f360209383611aa5565b810103126102ed57519138612060565b3d91506120e6565b6040513d86823e3d90fd5b905090611c06565b634e487b7160e01b82526011600452602482fd5b61213f6060870135611a29565b60608601356121585761203a61202161201c6001611a49565b61203a61202161201c84611a49565b634e487b7160e01b84526021600452602484fd5b905038611dfa565b5060d254611df2565b906020823d6020116121b6575b816121a660209383611aa5565b810103126108ec57505138611dc9565b3d9150612199565b925038611d91565b915038611d16565b505050565b6020823d6020116121ff575b816121ec60209383611aa5565b810103126108ec5750611ce59051611cd7565b3d91506121df565b91908203918211611aee57565b60ff6065541661222057565b60405162461bcd60e51b815260206004820152601060248201526f14185d5cd8589b194e881c185d5cd95960821b6044820152606490fd5b9060207f58ab8557e0e847f289f2134b72a469c160191d9b98144339d9bf394987082bb09161228684611a29565b8360005260da82528060406000205561229e84611a29565b604051908152a2565b9190811015611b4a5760051b0190565b919081156122e857600091825b8181106122ed575050506000918181116000146122e8576122e59250612207565b90565b505090565b6122f88183856122a7565b3561230c575b61230790611adf565b6122c4565b9261234a61230791611d636123228786886122a7565b3561232c88611a29565b61233588611a29565b8760005260da60205260406000205490611c13565b9390506122fe565b61235b81611a29565b80156123c05761236a81611a29565b60005260d8602052604060002060048101548281159182156123b6575b50506123a357611d636122e59260036001840154930154611c13565b611d636122e59260028354930154611c13565b1190508238612387565b90506123cb81611a29565b60005260d860205260026040600020015490565b90600091811591821561243f575b50501561242d576706f05b59d3b20000810190818111611aee57811061241b57670de0b6b3a7640000900490565b604051630a77254f60e01b8152600490fd5b604051631550e8b760e01b8152600490fd5b9091925061244d8183611c13565b9261245c5782041438806123ed565b634e487b7160e01b600052601260045260246000fdfec0fc8e4dc5cff6febdf550b80d566f654e2baf1a02ea1060208c2f8ab2dd1b63a2646970667358221220ab8419020d9fb3361c2e0962f708dfc0ed8a4cd13232564699d0257354106ad964736f6c63430008120033",
  "deployedBytecode": "0x6080604081815260048036101561001557600080fd5b600092833560e01c90816301ffc9a7146119bd575080630460f0f314611994578063129d82fb146119755780632630c12f1461194c5780632c4c4bc71461189a578063332a72a1146117b45780633963cecd146117955780633f4ba83a14611686578063466c552e146116675780634a8a4f01146115a657806351ed1b201461150c578063522b4a711461143e57806359fd074b146113d95780635c975abb146113b557806361d027b31461138c57806365bf568a146112da578063748397301461121e5780637b103999146111f55780638456cb59146111135780639ba6049f146110d7578063a16538aa14610f09578063a3c37fc714610eea578063a5552950146108ef578063ad7a672f146108c7578063bb9d3dbb14610887578063c01031cd14610868578063c28ee59414610849578063c349026314610577578063c38dca08146104ab578063c932eff61461048c578063d604c08b14610469578063e36d6ebf1461032a578063e6e13338146102f1578063ef1f3c33146101ea5763fcd3f03e146101a457600080fd5b346101e65760203660031901126101e657356001600160a01b038116908190036101e657918192815260d5602052206001815491015482519182526020820152f35b8280fd5b50346101e65760603660031901126101e65780359160038310156102ed57602435604435926044602060018060a01b0360ca5416855192838092632474521560e21b8252600080516020612473833981519152878301523360248301525afa9081156102e35787916102b5575b50156102a757509183916060938260016102917f914216b6e367e07ec47e2356460e0e9ec4997e7919489ed5e8da444b2128a8fa98611a49565b838155015581519384526020840152820152a180f35b825163036be76f60e61b8152fd5b6102d6915060203d81116102dc575b6102ce8183611aa5565b810190611ac7565b38610257565b503d6102c4565b84513d89823e3d90fd5b8380fd5b50346101e65760203660031901126101e6573560058110156101e6576020928161031b8493611a29565b815260da845220549051908152f35b5090346101e65760c03660031901126101e65781359160058310156102ed5760a03660231901126102ed5760ca548251632474521560e21b81526000805160206124738339815191528382015233602482015290602090829060449082906001600160a01b03165afa90811561045f578591610441575b5015610433577fbfc6fa01f8337395cfd01c20354d665a007fc28c8cd1ee7d33ef9924dc9cc4249160a0916103d585611a29565b8460005260d8602052816000206024359283825560443590816001840155606435918260028501556084359384600382015560a435958691015561041889611a29565b8151958652602086015284015260608301526080820152a280f35b905163036be76f60e61b8152fd5b610459915060203d81116102dc576102ce8183611aa5565b386103a1565b83513d87823e3d90fd5b50503461048857816003193601126104885760209060dc549051908152f35b5080fd5b50503461048857816003193601126104885760209060cf549051908152f35b50346101e657816003193601126101e657803590602435926044602060018060a01b0360ca5416835192838092632474521560e21b8252600080516020612473833981519152888301523360248301525afa90811561056d57869161054f575b50156105425750508060cf558160d0557fa4789945324ec10a380a207a60e56ee9a5b8d7b1335a4f98f7e495b07780139c8380a380f35b5163036be76f60e61b8152fd5b610567915060203d81116102dc576102ce8183611aa5565b3861050b565b82513d88823e3d90fd5b5090346101e657806003193601126101e6578135906024356002600154146108065760026001556105a6612214565b60db548251630723eb0360e51b815233868201526020926001600160a01b039290919084908290602490829087165afa9081156107bf5788916107e9575b506107d957908691859084819733865260d58252610603888720611c26565b9081518091116107d1575b5001518091116107c9575b5080610702575b508461062f575b506001805580f35b33825260d58352600184832001610647868254612207565b90556106558560d754612207565b60d75560cc541694853b1561048857848451916334ec91f960e21b83528201528181606481837399ec76235f8a5a52611b0da5f0c6b09e1dcd2c9e9a8b60248401523360448401525af180156106f8576106e0575b50507f3a7691a2eabd7b5e0660276ff6ab206719a7f37c923c70c4fd59567243e2cffd91519283523392a3388080808481610627565b6106e990611a7b565b6106f45784386106aa565b8480fd5b84513d84823e3d90fd5b90915033875260d5835283872061071a828254612207565b90556107288160d654612207565b60d6558160cc5416878360cb541691803b15610488576064898386938a5196879586946334ec91f960e21b865285015260248401523360448401525af180156107bf576107aa575b509086918160cb54169085519081527f3a7691a2eabd7b5e0660276ff6ab206719a7f37c923c70c4fd59567243e2cffd853392a338610620565b6107b79097919297611a7b565b959038610770565b85513d8a823e3d90fd5b955038610619565b93503861060e565b83516333df015b60e01b81528690fd5b6108009150843d86116102dc576102ce8183611aa5565b386105e4565b815162461bcd60e51b8152602081860152601f60248201527f5265656e7472616e637947756172643a207265656e7472616e742063616c6c006044820152606490fd5b50503461048857816003193601126104885760209060d2549051908152f35b50503461048857816003193601126104885760209060d3549051908152f35b5091903461048857816003193601126104885760ff60d4541690519160028210156108b457602083838152f35b634e487b7160e01b815260218452602490fd5b8284346108ec57806003193601126108ec575060d65460d75482519182526020820152f35b80fd5b50346101e6576020906003199282843601126106f45781359367ffffffffffffffff8511610ee6576101e0858401918636030112610ee65785549460ff8660081c161591828093610ed9575b8015610ec2575b15610e685760019460ff199784878a8316178b55610e57575b506024838101906001600160a01b03908b908261097785611a62565b1689518c8184816301ffc9a760e01b95868252637965db0b60e01b8c8301525afa938415610d7657908d929194610e38575b5083610dde575b83610d81575b83610d19575b83610cb2575b50505015610ca25780610a10816109db60448901611a62565b16936bffffffffffffffffffffffff60a01b948560cb54161760cb5582610a0188611a62565b168560c954161760c955611a62565b168260ca54161760ca5580610a2760648701611a62565b168260cc54161760cc55610a3d60848601611a62565b169060db54161760db5560a483013560cd5560c483013560ce5560e483013560cf5561010483013560d05561012483013560d15561014483013560d25561016483013560d3556101848301359060029182811015610c9e57908793929160ff8b60d4541691161760d4558a91846101a48701905b610bae575b505050506101c4899301915b610b49575b505050610b0b86549560ff8760081c1690610ae182611ba6565b610aea82611ba6565b858055610af682611ba6565b610aff82611ba6565b60655416606555611ba6565b610b13578480f35b7f7f26b83ff96e1f2b6a682f133852f6798a09c465da95921460cefb38474024989361ff001916855551908152a1388080808480f35b610b538282611b60565b9050831015610ba957610b7083610b6a8484611b60565b90611b96565b356005811015610ba55783610b9a610b9f928a610b928b98610b6a8989611b60565b013590612258565b611adf565b92610ac2565b8980fd5b610ac7565b9091929394610bbd8287611b04565b9050851015610c9757508b610bdc85610bd68489611b04565b90611b3a565b35946005861015610488578a957fbfc6fa01f8337395cfd01c20354d665a007fc28c8cd1ee7d33ef9924dc9cc424610c8c938c8f899082610c22888f8c610bd691611b04565b94610c2c88611a29565b87815260d88352208c8b8387013595868455808801358093850155606092838901358093860155608095868a01359586600382015560a0809b01359889910155610c758c611a29565b8251988952880152860152840152820152a2611adf565b929190849594610ab1565b9493610ab6565b8a80fd5b865163044aa57560e41b81528390fd5b9091925083610cc360848a01611a62565b16928a51809481938252633df6cef760e01b898301525afa908115610d0f578c91610cf2575b50388a816109c2565b610d0991508a3d8c116102dc576102ce8183611aa5565b38610ce9565b88513d8e823e3d90fd5b9250818e9185610d2b60448c01611a62565b168c51928380928882526336372b0760e01b8c8301525afa918215610d7657908d92610d59575b50926109bc565b610d709150823d84116102dc576102ce8183611aa5565b38610d52565b8b51903d90823e3d90fd5b9250818e9185610d9360648c01611a62565b168c51928380928882526329abf30760e11b8c8301525afa918215610d7657908d92610dc1575b50926109b6565b610dd89150823d84116102dc576102ce8183611aa5565b38610dba565b9250818e9185610ded8a611a62565b168c51928380928882526341636c7560e11b8c8301525afa918215610d7657908d92610e1b575b50926109b0565b610e329150823d84116102dc576102ce8183611aa5565b38610e14565b610e50919450823d84116102dc576102ce8183611aa5565b92386109a9565b61ffff19166101011789553861095b565b835162461bcd60e51b8152808601879052602e60248201527f496e697469616c697a61626c653a20636f6e747261637420697320616c72656160448201526d191e481a5b9a5d1a585b1a5e995960921b6064820152608490fd5b50303b1580156109425750600160ff881614610942565b50600160ff88161061093b565b8580fd5b50503461048857816003193601126104885760209060ce549051908152f35b509190346104885760031990602036830181136102ed5784359267ffffffffffffffff84116106f4576101009084360301126102ed5760ca548251632474521560e21b8082527f5580ea9b7f9becaa48a78f506a2019ea24794b7a717ee6a4b9f62e36b94c25a68883015233602483015290916001600160a01b0316908383604481855afa9283156110ae5787936110b8575b508215611042575b8215610fd2575b5050905015610fc35750610fc0919201611c55565b80f35b5163036be76f60e61b81528390fd5b83919250604485518094819382527f28eb28c26cbbd48a6bfad016505ccf4a189452995f59d16217af8920961ed25c8b8301523360248301525afa91821561045f578592611025575b5050803880610fab565b61103b9250803d106102dc576102ce8183611aa5565b388061101b565b915083518281527f8f8b3dc194d940c9ce77bea0cf23855523a0d7b641973e714d9dc5f3528a573a888201523360248201528381604481855afa9081156110ae578791611091575b5091610fa4565b6110a89150843d86116102dc576102ce8183611aa5565b3861108a565b85513d89823e3d90fd5b6110d0919350843d86116102dc576102ce8183611aa5565b9138610f9c565b5082903461048857602036600319011261048857359060038210156108ec575061110090611a49565b6001815491015482519182526020820152f35b50346101e657826003193601126101e65760ca548251632474521560e21b81527f5c91514091af31f62f596a314af7d5be40146b2f2355969392f055e12e0982fb8382015233602482015290602090829060449082906001600160a01b03165afa9081156111e85784916111ca575b5015610433575060207f62e78cea01bee320cd4e420270b5ea74000d11b0c9f74754ebdbfc544b05a258916111b5612214565b600160ff19606554161760655551338152a180f35b6111e2915060203d81116102dc576102ce8183611aa5565b38611182565b50505051903d90823e3d90fd5b50503461048857816003193601126104885760ca5490516001600160a01b039091168152602090f35b50346101e65760203660031901126101e65760ca548251632474521560e21b81526000805160206124738339815191528184015233602482015282359391602090829060449082906001600160a01b03165afa9081156112d05785916112b2575b50156105425750508060d1557fac3e0e532f107b556a4483ee89fa8a6d20788e9ec96a2b0131246a2e790f0f098280a280f35b6112ca915060203d81116102dc576102ce8183611aa5565b3861127f565b82513d87823e3d90fd5b50346101e65760203660031901126101e65760ca548251632474521560e21b81526000805160206124738339815191528184015233602482015282359391602090829060449082906001600160a01b03165afa9081156112d057859161136e575b50156105425750508060d3557fc9b6fec85cf82ed032526c3a1bbc72a81c4cef31fa9ab33b10794ba8403513f48280a280f35b611386915060203d81116102dc576102ce8183611aa5565b3861133b565b50503461048857816003193601126104885760cc5490516001600160a01b039091168152602090f35b50503461048857816003193601126104885760209060ff6065541690519015158152f35b5090346101e65760203660031901126101e657813560058110156102ed5760a093816114058493611a29565b815260d8602052208054926001820154926002830154916003840154930154938151958652602086015284015260608301526080820152f35b50346101e65760203660031901126101e65760ca548251632474521560e21b81526000805160206124738339815191528184015233602482015282359391602090829060449082906001600160a01b03165afa9081156112d05785916114ee575b501561054257678ac7230489e8000083116114e15750508060cd557f0866f0eddab536ffa2ae6d0c094f37e4876779d4079734c513b8ab63520f40468280a280f35b51632e72686160e21b8152fd5b611506915060203d81116102dc576102ce8183611aa5565b3861149f565b50346101e657816003193601126101e65780359160058310156102ed5760ca548151632474521560e21b81526000805160206124738339815191528482015233602482015290602090829060449082906001600160a01b03165afa9081156112d0578591611588575b50156105425783610fc060243585612258565b6115a0915060203d81116102dc576102ce8183611aa5565b38611575565b50346101e65760203660031901126101e65760ca548251632474521560e21b81526000805160206124738339815191528184015233602482015282359391602090829060449082906001600160a01b03165afa9081156112d0578591611649575b501561054257678ac7230489e8000083116114e15750508060ce557fac4e2f47a168b9426760c27ccec778fd54ea706bd269dd48617d7cf68a014a998280a280f35b611661915060203d81116102dc576102ce8183611aa5565b38611607565b50503461048857816003193601126104885760209060cd549051908152f35b50346101e657826003193601126101e65760ca548251632474521560e21b81527f5a7d4408f4759dddd7fdfd0d21abd99341dc2f52cda14804988a9b2df20766d88382015233602482015290602090829060449082906001600160a01b03165afa9081156111e8578491611777575b5015610433576065549060ff82161561173d575060ff1916606555513381527f5db9ee0a495bf2e6ff9c91a7834c1ba4fdd244a5e8aa4e537bd38aeae4b073aa90602090a180f35b606490602084519162461bcd60e51b8352820152601460248201527314185d5cd8589b194e881b9bdd081c185d5cd95960621b6044820152fd5b61178f915060203d81116102dc576102ce8183611aa5565b386116f5565b50503461048857816003193601126104885760209060d0549051908152f35b5090346101e65760203660031901126101e65760ca548151632474521560e21b81526000805160206124738339815191528185015233602482015283359391602090829060449082906001600160a01b03165afa90811561045f57859161187c575b5015610433578383138061186a575b1561185c5750816020917f40066df7a841da7e7ca0b9fb5454b80f1a2d22bca3e3d99d8f395348bdb0799f9360dc5551908152a180f35b90516326711fb360e11b8152fd5b50671bc16d674ec80000831115611825565b611894915060203d81116102dc576102ce8183611aa5565b38611816565b50346101e65760203660031901126101e65760ca548251632474521560e21b81526000805160206124738339815191528184015233602482015282359391602090829060449082906001600160a01b03165afa9081156112d057859161192e575b50156105425750508060d2557f123d6dec98f165501c5a4efa12a37cee89b488c3dbaad98fb2c365bdedf1a8a98280a280f35b611946915060203d81116102dc576102ce8183611aa5565b386118fb565b50503461048857816003193601126104885760c95490516001600160a01b039091168152602090f35b50503461048857816003193601126104885760209060d1549051908152f35b50503461048857816003193601126104885760cb5490516001600160a01b039091168152602090f35b925050346101e65760203660031901126101e6573563ffffffff60e01b81168091036101e6576020925063332a72a160e01b8114908115611a18575b8115611a07575b5015158152f35b6301ffc9a760e01b14905038611a00565b6307cba1f360e41b811491506119f9565b60051115611a3357565b634e487b7160e01b600052602160045260246000fd5b6003811015611a335760005260d9602052604060002090565b356001600160a01b0381168103611a765790565b600080fd5b67ffffffffffffffff8111611a8f57604052565b634e487b7160e01b600052604160045260246000fd5b90601f8019910116810190811067ffffffffffffffff821117611a8f57604052565b90816020910312611a7657518015158103611a765790565b6000198114611aee5760010190565b634e487b7160e01b600052601160045260246000fd5b903590601e1981360301821215611a76570180359067ffffffffffffffff8211611a76576020019160c0820236038313611a7657565b9190811015611b4a5760c0020190565b634e487b7160e01b600052603260045260246000fd5b903590601e1981360301821215611a76570180359067ffffffffffffffff8211611a7657602001918160061b36038313611a7657565b9190811015611b4a5760061b0190565b15611bad57565b60405162461bcd60e51b815260206004820152602b60248201527f496e697469616c697a61626c653a20636f6e7472616374206973206e6f74206960448201526a6e697469616c697a696e6760a81b6064820152608490fd5b91908201809211611aee57565b81810292918115918404141715611aee57565b906040516040810181811067ffffffffffffffff821117611a8f57604052602060018294805484520154910152565b611c6160208201611a62565b60c9546040805163a3f092a760e01b81526001600160a01b0393841660048201527399ec76235f8a5a52611b0da5f0c6b09e1dcd2c9e60248201529084013560448201529116606482015260208160848173__$75df3f6366b0557754cd3ba14359105414$__5af48015611fca576000906121d3575b611ce5915060cf54906123df565b9060d0549160008382019384129112908015821691151617611aee578160008113156121ce5760dc548091126121c6575b5060d15460c0820135601e1983360301811215611a765782019081359167ffffffffffffffff8311611a76576020018260051b36038113611a7657611d6992611d639160a08601356122b7565b90611c06565b91600560608301351015611a7657611d8960808301356060840135612352565b8084116121be575b5060c95460405163455259cb60e01b81526001600160a01b0390911693903a90602081600481895afa908115611fca5760009161218c575b5060008113156121835760d354670de0b6b3a7640000908101809111611aee57611df2916123df565b80821161217b575b5060009160ff60d45416600281101561216757600114611fd6575b91611e27611e2c92611e319594611c13565b611c06565b6123df565b611e3d60ce54826123df565b9260018060a01b0360cb5416916040519263a3f092a760e01b84527399ec76235f8a5a52611b0da5f0c6b09e1dcd2c9e600485015260248401526044830152606482015260208160848173__$75df3f6366b0557754cd3ba14359105414$__5af4908115611fca57600091611f78575b507fb5b60f38246a38a2fd794a7da06cc6a0c32cf4d0b94c9683fde017ee3ea5dbf691611edf60409260cd54906123df565b906001600160a01b03611ef182611a62565b1660005260d560205282600020611f09838254611c06565b90556001600160a01b03611f1c82611a62565b1660005260d560205260018360002001611f37868254611c06565b9055611f458260d654611c06565b60d655611f548560d754611c06565b60d7556001600160a01b0390611f6990611a62565b169382519182526020820152a2565b906020823d602011611fc2575b81611f9260209383611aa5565b810103126108ec5750517fb5b60f38246a38a2fd794a7da06cc6a0c32cf4d0b94c9683fde017ee3ea5dbf6611ead565b3d9150611f85565b6040513d6000823e3d90fd5b9180600160808701351115612132575060026080860135608087013560061b04604014608087013515171561211e5761203a61202161201c608089013560061b93611a49565b611c26565b9160e08801358351808210600014612116575090611c06565b60405163f5d6ded760e01b815291602083600481606c5afa92831561210b5784936120d7575b508260041b92808404601014901517156120c3576020015161208191611c06565b91608c83018093116120af5750611e2c926120a4611e31969593611e2793611c13565b949550925050611e15565b634e487b7160e01b81526011600452602490fd5b634e487b7160e01b84526011600452602484fd5b9092506020813d602011612103575b816120f360209383611aa5565b810103126102ed57519138612060565b3d91506120e6565b6040513d86823e3d90fd5b905090611c06565b634e487b7160e01b82526011600452602482fd5b61213f6060870135611a29565b60608601356121585761203a61202161201c6001611a49565b61203a61202161201c84611a49565b634e487b7160e01b84526021600452602484fd5b905038611dfa565b5060d254611df2565b906020823d6020116121b6575b816121a660209383611aa5565b810103126108ec57505138611dc9565b3d9150612199565b925038611d91565b915038611d16565b505050565b6020823d6020116121ff575b816121ec60209383611aa5565b810103126108ec5750611ce59051611cd7565b3d91506121df565b91908203918211611aee57565b60ff6065541661222057565b60405162461bcd60e51b815260206004820152601060248201526f14185d5cd8589b194e881c185d5cd95960821b6044820152606490fd5b9060207f58ab8557e0e847f289f2134b72a469c160191d9b98144339d9bf394987082bb09161228684611a29565b8360005260da82528060406000205561229e84611a29565b604051908152a2565b9190811015611b4a5760051b0190565b919081156122e857600091825b8181106122ed575050506000918181116000146122e8576122e59250612207565b90565b505090565b6122f88183856122a7565b3561230c575b61230790611adf565b6122c4565b9261234a61230791611d636123228786886122a7565b3561232c88611a29565b61233588611a29565b8760005260da60205260406000205490611c13565b9390506122fe565b61235b81611a29565b80156123c05761236a81611a29565b60005260d8602052604060002060048101548281159182156123b6575b50506123a357611d636122e59260036001840154930154611c13565b611d636122e59260028354930154611c13565b1190508238612387565b90506123cb81611a29565b60005260d860205260026040600020015490565b90600091811591821561243f575b50501561242d576706f05b59d3b20000810190818111611aee57811061241b57670de0b6b3a7640000900490565b604051630a77254f60e01b8152600490fd5b604051631550e8b760e01b8152600490fd5b9091925061244d8183611c13565b9261245c5782041438806123ed565b634e487b7160e01b600052601260045260246000fdfec0fc8e4dc5cff6febdf550b80d566f654e2baf1a02ea1060208c2f8ab2dd1b63a2646970667358221220ab8419020d9fb3361c2e0962f708dfc0ed8a4cd13232564699d0257354106ad964736f6c63430008120033",
  "libraries": {
    "PrimexPricingLibrary": "0xab03C0c0Ba39a886eD51757272E91cd739542118",
    "TokenTransfersLibrary": "0xF90aCbeF0eDDdd6854c96137f416a5b7dD67D904",
    "Errors": "0xB959663e3FAb840C9bfebC6d2d32822D25317292"
  },
  "devdoc": {
    "events": {
      "Initialized(uint8)": {
        "details": "Triggered when the contract has been initialized or reinitialized."
      },
      "Paused(address)": {
        "details": "Emitted when the pause is triggered by `account`."
      },
      "Unpaused(address)": {
        "details": "Emitted when the pause is lifted by `account`."
      }
    },
    "kind": "dev",
    "methods": {
      "claim(uint256,uint256)": {
        "params": {
          "_nativeAmount": "Amount of native token to claim",
          "_pmxAmount": "Amount of PMX token to claim"
        }
      },
      "initialize((address,address,address,address,address,uint256,uint256,uint256,int256,uint256,uint256,uint256,uint8,(uint8,(uint256,uint256,uint256,uint256,uint256))[],(uint8,uint256)[]))": {
        "params": {
          "_params": "Parameters for initialization"
        }
      },
      "pause()": {
        "details": "Triggers stopped state. This function can only be called by an address with the EMERGENCY_ADMIN role. Requirements: - The contract must not be paused."
      },
      "paused()": {
        "details": "Returns true if the contract is paused, and false otherwise."
      },
      "setAdditionalGas(uint256)": {
        "details": "Only callable by the MEDIUM_TIMELOCK_ADMIN role.",
        "params": {
          "_additionalGas": "The new additionalGas value."
        }
      },
      "setDataLengthRestrictions(uint8,uint256,uint256)": {
        "params": {
          "_baseLength": "The length of the data entering the protocol function including method signature and excluding dynamic types(e.g, routesLength), in bytes",
          "_callingMethod": "The calling method for which dataLengthRestrictions is set",
          "_maxRoutesLength": "The maximum routes length for which an additional fee will be paid in the ARBITRUM payment model, in bytes"
        }
      },
      "setDecreasingGasByReason(uint8,uint256)": {
        "details": "Only callable by the MEDIUM_TIMELOCK_ADMIN role.",
        "params": {
          "_amount": "Gas amount.",
          "_reason": "The reason for which an amount is set"
        }
      },
      "setDefaultMaxGasPrice(uint256)": {
        "details": "Only callable by the MEDIUM_TIMELOCK_ADMIN role.",
        "params": {
          "_defaultMaxGasPrice": "The new default maximum gas price value."
        }
      },
      "setMaxGasPerPosition(uint8,(uint256,uint256,uint256,uint256,uint256))": {
        "details": "Only callable by the MEDIUM_TIMELOCK_ADMIN role.",
        "params": {
          "_actionType": "The action type for which the config is set",
          "_config": "The KeeperActionRewardConfig struct"
        }
      },
      "setMinPositionSizeMultiplier(int256)": {
        "details": "Only callable by the MEDIUM_TIMELOCK_ADMIN role.",
        "params": {
          "_minPositionSizeMultiplier": "The new minPositionSizeMultiplier value (in WAD)."
        }
      },
      "setNativePartInReward(uint256)": {
        "details": "Only callable by the MEDIUM_TIMELOCK_ADMIN role.",
        "params": {
          "_nativePartInReward": "The new native token's portion in the reward calculation (percent expressed as WAD)."
        }
      },
      "setOracleGasPriceTolerance(uint256)": {
        "details": "Only callable by the MEDIUM_TIMELOCK_ADMIN role.",
        "params": {
          "_oracleGasPriceTolerance": "The new oracle gas price tolerance value (percent expressed as WAD)."
        }
      },
      "setPmxPartInReward(uint256)": {
        "details": "Only callable by the MEDIUM_TIMELOCK_ADMIN role.",
        "params": {
          "_pmxPartInReward": "The new PMX token's portion in the reward calculation (percent expressed as WAD)."
        }
      },
      "setPositionSizeCoefficients(uint256,int256)": {
        "details": "Only callable by the MEDIUM_TIMELOCK_ADMIN role.",
        "params": {
          "_positionSizeCoefficientA": "The new positionSizeCoefficientA value (in WAD).",
          "_positionSizeCoefficientB": "The new positionSizeCoefficientB value (in WAD)."
        }
      },
      "supportsInterface(bytes4)": {
        "params": {
          "_interfaceId": "The interface id to check"
        }
      },
      "unpause()": {
        "details": "Returns to normal state. This function can only be called by an address with the SMALL_TIMELOCK_ADMIN or MEDIUM_TIMELOCK_ADMIN role depending on the contract. Requirements: - The contract must be paused."
      },
      "updateReward((address,address,uint256,uint8,uint256,uint256,uint256[],uint256))": {
        "details": "Only callable by the PM_ROLE, LOM_ROLE, BATCH_MANAGER_ROLE roles.",
        "params": {
          "_params": "The UpdateRewardParams params"
        }
      }
    },
    "version": 1
  },
  "userdoc": {
    "kind": "user",
    "methods": {
      "claim(uint256,uint256)": {
        "notice": "Claims earned reward of the keeper"
      },
      "initialize((address,address,address,address,address,uint256,uint256,uint256,int256,uint256,uint256,uint256,uint8,(uint8,(uint256,uint256,uint256,uint256,uint256))[],(uint8,uint256)[]))": {
        "notice": "Initializes the KeeperRewardDistributor contract."
      },
      "setAdditionalGas(uint256)": {
        "notice": "Sets the additional gas value for reward calculations."
      },
      "setDataLengthRestrictions(uint8,uint256,uint256)": {
        "notice": "Sets the dataLengthRestrictions for the specified KeeperCallingMethod."
      },
      "setDecreasingGasByReason(uint8,uint256)": {
        "notice": "Sets the amount of gas to be removed for the specified reason"
      },
      "setDefaultMaxGasPrice(uint256)": {
        "notice": "Sets the default maximum gas price allowed."
      },
      "setMaxGasPerPosition(uint8,(uint256,uint256,uint256,uint256,uint256))": {
        "notice": "Sets the KeeperActionRewardConfig for the specified action type"
      },
      "setMinPositionSizeMultiplier(int256)": {
        "notice": "Sets the minPositionSizeMultiplier for reward calculations."
      },
      "setNativePartInReward(uint256)": {
        "notice": "Sets the native token's portion in the reward calculation."
      },
      "setOracleGasPriceTolerance(uint256)": {
        "notice": "Sets the tolerance for gas price fluctuations from the oracle price."
      },
      "setPmxPartInReward(uint256)": {
        "notice": "Sets the PMX token's portion in the reward calculation."
      },
      "setPositionSizeCoefficients(uint256,int256)": {
        "notice": "Sets the position size coefficients for reward calculations."
      },
      "supportsInterface(bytes4)": {
        "notice": "Interface checker"
      },
      "updateReward((address,address,uint256,uint8,uint256,uint256,uint256[],uint256))": {
        "notice": "Updates reward for keeper for closing position or executing order"
      }
    },
    "version": 1
  },
  "storageLayout": {
    "storage": [
      {
        "astId": 2890,
        "contract": "contracts/KeeperRewardDistributor/KeeperRewardDistributor.sol:KeeperRewardDistributor",
        "label": "_initialized",
        "offset": 0,
        "slot": "0",
        "type": "t_uint8"
      },
      {
        "astId": 2893,
        "contract": "contracts/KeeperRewardDistributor/KeeperRewardDistributor.sol:KeeperRewardDistributor",
        "label": "_initializing",
        "offset": 1,
        "slot": "0",
        "type": "t_bool"
      },
      {
        "astId": 3193,
        "contract": "contracts/KeeperRewardDistributor/KeeperRewardDistributor.sol:KeeperRewardDistributor",
        "label": "_status",
        "offset": 0,
        "slot": "1",
        "type": "t_uint256"
      },
      {
        "astId": 3262,
        "contract": "contracts/KeeperRewardDistributor/KeeperRewardDistributor.sol:KeeperRewardDistributor",
        "label": "__gap",
        "offset": 0,
        "slot": "2",
        "type": "t_array(t_uint256)49_storage"
      },
      {
        "astId": 5867,
        "contract": "contracts/KeeperRewardDistributor/KeeperRewardDistributor.sol:KeeperRewardDistributor",
        "label": "__gap",
        "offset": 0,
        "slot": "51",
        "type": "t_array(t_uint256)50_storage"
      },
      {
        "astId": 3073,
        "contract": "contracts/KeeperRewardDistributor/KeeperRewardDistributor.sol:KeeperRewardDistributor",
        "label": "_paused",
        "offset": 0,
        "slot": "101",
        "type": "t_bool"
      },
      {
        "astId": 3178,
        "contract": "contracts/KeeperRewardDistributor/KeeperRewardDistributor.sol:KeeperRewardDistributor",
        "label": "__gap",
        "offset": 0,
        "slot": "102",
        "type": "t_array(t_uint256)49_storage"
      },
      {
        "astId": 6506,
        "contract": "contracts/KeeperRewardDistributor/KeeperRewardDistributor.sol:KeeperRewardDistributor",
        "label": "__gap",
        "offset": 0,
        "slot": "151",
        "type": "t_array(t_uint256)50_storage"
      },
      {
        "astId": 32595,
        "contract": "contracts/KeeperRewardDistributor/KeeperRewardDistributor.sol:KeeperRewardDistributor",
        "label": "priceOracle",
        "offset": 0,
        "slot": "201",
        "type": "t_address"
      },
      {
        "astId": 32598,
        "contract": "contracts/KeeperRewardDistributor/KeeperRewardDistributor.sol:KeeperRewardDistributor",
        "label": "registry",
        "offset": 0,
        "slot": "202",
        "type": "t_address"
      },
      {
        "astId": 32601,
        "contract": "contracts/KeeperRewardDistributor/KeeperRewardDistributor.sol:KeeperRewardDistributor",
        "label": "pmx",
        "offset": 0,
        "slot": "203",
        "type": "t_address"
      },
      {
        "astId": 32604,
        "contract": "contracts/KeeperRewardDistributor/KeeperRewardDistributor.sol:KeeperRewardDistributor",
        "label": "treasury",
        "offset": 0,
        "slot": "204",
        "type": "t_address_payable"
      },
      {
        "astId": 32607,
        "contract": "contracts/KeeperRewardDistributor/KeeperRewardDistributor.sol:KeeperRewardDistributor",
        "label": "pmxPartInReward",
        "offset": 0,
        "slot": "205",
        "type": "t_uint256"
      },
      {
        "astId": 32610,
        "contract": "contracts/KeeperRewardDistributor/KeeperRewardDistributor.sol:KeeperRewardDistributor",
        "label": "nativePartInReward",
        "offset": 0,
        "slot": "206",
        "type": "t_uint256"
      },
      {
        "astId": 32613,
        "contract": "contracts/KeeperRewardDistributor/KeeperRewardDistributor.sol:KeeperRewardDistributor",
        "label": "positionSizeCoefficientA",
        "offset": 0,
        "slot": "207",
        "type": "t_uint256"
      },
      {
        "astId": 32616,
        "contract": "contracts/KeeperRewardDistributor/KeeperRewardDistributor.sol:KeeperRewardDistributor",
        "label": "positionSizeCoefficientB",
        "offset": 0,
        "slot": "208",
        "type": "t_int256"
      },
      {
        "astId": 32619,
        "contract": "contracts/KeeperRewardDistributor/KeeperRewardDistributor.sol:KeeperRewardDistributor",
        "label": "additionalGas",
        "offset": 0,
        "slot": "209",
        "type": "t_uint256"
      },
      {
        "astId": 32622,
        "contract": "contracts/KeeperRewardDistributor/KeeperRewardDistributor.sol:KeeperRewardDistributor",
        "label": "defaultMaxGasPrice",
        "offset": 0,
        "slot": "210",
        "type": "t_uint256"
      },
      {
        "astId": 32625,
        "contract": "contracts/KeeperRewardDistributor/KeeperRewardDistributor.sol:KeeperRewardDistributor",
        "label": "oracleGasPriceTolerance",
        "offset": 0,
        "slot": "211",
        "type": "t_uint256"
      },
      {
        "astId": 32629,
        "contract": "contracts/KeeperRewardDistributor/KeeperRewardDistributor.sol:KeeperRewardDistributor",
        "label": "paymentModel",
        "offset": 0,
        "slot": "212",
        "type": "t_enum(PaymentModel)31254"
      },
      {
        "astId": 32635,
        "contract": "contracts/KeeperRewardDistributor/KeeperRewardDistributor.sol:KeeperRewardDistributor",
        "label": "keeperBalance",
        "offset": 0,
        "slot": "213",
        "type": "t_mapping(t_address,t_struct(KeeperBalance)31251_storage)"
      },
      {
        "astId": 32639,
        "contract": "contracts/KeeperRewardDistributor/KeeperRewardDistributor.sol:KeeperRewardDistributor",
        "label": "totalBalance",
        "offset": 0,
        "slot": "214",
        "type": "t_struct(KeeperBalance)31251_storage"
      },
      {
        "astId": 32646,
        "contract": "contracts/KeeperRewardDistributor/KeeperRewardDistributor.sol:KeeperRewardDistributor",
        "label": "maxGasPerPosition",
        "offset": 0,
        "slot": "216",
        "type": "t_mapping(t_enum(KeeperActionType)31226,t_struct(KeeperActionRewardConfig)31246_storage)"
      },
      {
        "astId": 32653,
        "contract": "contracts/KeeperRewardDistributor/KeeperRewardDistributor.sol:KeeperRewardDistributor",
        "label": "dataLengthRestrictions",
        "offset": 0,
        "slot": "217",
        "type": "t_mapping(t_enum(KeeperCallingMethod)31230,t_struct(DataLengthRestrictions)31235_storage)"
      },
      {
        "astId": 32659,
        "contract": "contracts/KeeperRewardDistributor/KeeperRewardDistributor.sol:KeeperRewardDistributor",
        "label": "decreasingGasByReason",
        "offset": 0,
        "slot": "218",
        "type": "t_mapping(t_enum(DecreasingReason)31220,t_uint256)"
      },
      {
        "astId": 32662,
        "contract": "contracts/KeeperRewardDistributor/KeeperRewardDistributor.sol:KeeperRewardDistributor",
        "label": "whiteBlackList",
        "offset": 0,
        "slot": "219",
        "type": "t_contract(IWhiteBlackList)54241"
      },
      {
        "astId": 32670,
        "contract": "contracts/KeeperRewardDistributor/KeeperRewardDistributor.sol:KeeperRewardDistributor",
        "label": "minPositionSizeMultiplier",
        "offset": 0,
        "slot": "220",
        "type": "t_int256"
      }
    ],
    "types": {
      "t_address": {
        "encoding": "inplace",
        "label": "address",
        "numberOfBytes": "20"
      },
      "t_address_payable": {
        "encoding": "inplace",
        "label": "address payable",
        "numberOfBytes": "20"
      },
      "t_array(t_uint256)49_storage": {
        "base": "t_uint256",
        "encoding": "inplace",
        "label": "uint256[49]",
        "numberOfBytes": "1568"
      },
      "t_array(t_uint256)50_storage": {
        "base": "t_uint256",
        "encoding": "inplace",
        "label": "uint256[50]",
        "numberOfBytes": "1600"
      },
      "t_bool": {
        "encoding": "inplace",
        "label": "bool",
        "numberOfBytes": "1"
      },
      "t_contract(IWhiteBlackList)54241": {
        "encoding": "inplace",
        "label": "contract IWhiteBlackList",
        "numberOfBytes": "20"
      },
      "t_enum(DecreasingReason)31220": {
        "encoding": "inplace",
        "label": "enum IKeeperRewardDistributorStorage.DecreasingReason",
        "numberOfBytes": "1"
      },
      "t_enum(KeeperActionType)31226": {
        "encoding": "inplace",
        "label": "enum IKeeperRewardDistributorStorage.KeeperActionType",
        "numberOfBytes": "1"
      },
      "t_enum(KeeperCallingMethod)31230": {
        "encoding": "inplace",
        "label": "enum IKeeperRewardDistributorStorage.KeeperCallingMethod",
        "numberOfBytes": "1"
      },
      "t_enum(PaymentModel)31254": {
        "encoding": "inplace",
        "label": "enum IKeeperRewardDistributorStorage.PaymentModel",
        "numberOfBytes": "1"
      },
      "t_int256": {
        "encoding": "inplace",
        "label": "int256",
        "numberOfBytes": "32"
      },
      "t_mapping(t_address,t_struct(KeeperBalance)31251_storage)": {
        "encoding": "mapping",
        "key": "t_address",
        "label": "mapping(address => struct IKeeperRewardDistributorStorage.KeeperBalance)",
        "numberOfBytes": "32",
        "value": "t_struct(KeeperBalance)31251_storage"
      },
      "t_mapping(t_enum(DecreasingReason)31220,t_uint256)": {
        "encoding": "mapping",
        "key": "t_enum(DecreasingReason)31220",
        "label": "mapping(enum IKeeperRewardDistributorStorage.DecreasingReason => uint256)",
        "numberOfBytes": "32",
        "value": "t_uint256"
      },
      "t_mapping(t_enum(KeeperActionType)31226,t_struct(KeeperActionRewardConfig)31246_storage)": {
        "encoding": "mapping",
        "key": "t_enum(KeeperActionType)31226",
        "label": "mapping(enum IKeeperRewardDistributorStorage.KeeperActionType => struct IKeeperRewardDistributorStorage.KeeperActionRewardConfig)",
        "numberOfBytes": "32",
        "value": "t_struct(KeeperActionRewardConfig)31246_storage"
      },
      "t_mapping(t_enum(KeeperCallingMethod)31230,t_struct(DataLengthRestrictions)31235_storage)": {
        "encoding": "mapping",
        "key": "t_enum(KeeperCallingMethod)31230",
        "label": "mapping(enum IKeeperRewardDistributorStorage.KeeperCallingMethod => struct IKeeperRewardDistributorStorage.DataLengthRestrictions)",
        "numberOfBytes": "32",
        "value": "t_struct(DataLengthRestrictions)31235_storage"
      },
      "t_struct(DataLengthRestrictions)31235_storage": {
        "encoding": "inplace",
        "label": "struct IKeeperRewardDistributorStorage.DataLengthRestrictions",
        "members": [
          {
            "astId": 31232,
            "contract": "contracts/KeeperRewardDistributor/KeeperRewardDistributor.sol:KeeperRewardDistributor",
            "label": "maxRoutesLength",
            "offset": 0,
            "slot": "0",
            "type": "t_uint256"
          },
          {
            "astId": 31234,
            "contract": "contracts/KeeperRewardDistributor/KeeperRewardDistributor.sol:KeeperRewardDistributor",
            "label": "baseLength",
            "offset": 0,
            "slot": "1",
            "type": "t_uint256"
          }
        ],
        "numberOfBytes": "64"
      },
      "t_struct(KeeperActionRewardConfig)31246_storage": {
        "encoding": "inplace",
        "label": "struct IKeeperRewardDistributorStorage.KeeperActionRewardConfig",
        "members": [
          {
            "astId": 31237,
            "contract": "contracts/KeeperRewardDistributor/KeeperRewardDistributor.sol:KeeperRewardDistributor",
            "label": "baseMaxGas1",
            "offset": 0,
            "slot": "0",
            "type": "t_uint256"
          },
          {
            "astId": 31239,
            "contract": "contracts/KeeperRewardDistributor/KeeperRewardDistributor.sol:KeeperRewardDistributor",
            "label": "baseMaxGas2",
            "offset": 0,
            "slot": "1",
            "type": "t_uint256"
          },
          {
            "astId": 31241,
            "contract": "contracts/KeeperRewardDistributor/KeeperRewardDistributor.sol:KeeperRewardDistributor",
            "label": "multiplier1",
            "offset": 0,
            "slot": "2",
            "type": "t_uint256"
          },
          {
            "astId": 31243,
            "contract": "contracts/KeeperRewardDistributor/KeeperRewardDistributor.sol:KeeperRewardDistributor",
            "label": "multiplier2",
            "offset": 0,
            "slot": "3",
            "type": "t_uint256"
          },
          {
            "astId": 31245,
            "contract": "contracts/KeeperRewardDistributor/KeeperRewardDistributor.sol:KeeperRewardDistributor",
            "label": "inflectionPoint",
            "offset": 0,
            "slot": "4",
            "type": "t_uint256"
          }
        ],
        "numberOfBytes": "160"
      },
      "t_struct(KeeperBalance)31251_storage": {
        "encoding": "inplace",
        "label": "struct IKeeperRewardDistributorStorage.KeeperBalance",
        "members": [
          {
            "astId": 31248,
            "contract": "contracts/KeeperRewardDistributor/KeeperRewardDistributor.sol:KeeperRewardDistributor",
            "label": "pmxBalance",
            "offset": 0,
            "slot": "0",
            "type": "t_uint256"
          },
          {
            "astId": 31250,
            "contract": "contracts/KeeperRewardDistributor/KeeperRewardDistributor.sol:KeeperRewardDistributor",
            "label": "nativeBalance",
            "offset": 0,
            "slot": "1",
            "type": "t_uint256"
          }
        ],
        "numberOfBytes": "64"
      },
      "t_uint256": {
        "encoding": "inplace",
        "label": "uint256",
        "numberOfBytes": "32"
      },
      "t_uint8": {
        "encoding": "inplace",
        "label": "uint8",
        "numberOfBytes": "1"
      }
    }
  }
}