{
  "address": "0xDf7B923a7bF62331092B49fd36EE26A21755DFa1",
  "abi": [
    {
      "inputs": [],
      "stateMutability": "nonpayable",
      "type": "constructor"
    },
    {
      "inputs": [],
      "name": "DS_MATH_ADD_OVERFLOW",
      "type": "error"
    },
    {
      "inputs": [],
      "name": "DS_MATH_MUL_OVERFLOW",
      "type": "error"
    },
    {
      "anonymous": false,
      "inputs": [
        {
          "indexed": true,
          "internalType": "uint256",
          "name": "positionId",
          "type": "uint256"
        },
        {
          "indexed": true,
          "internalType": "address",
          "name": "trader",
          "type": "address"
        },
        {
          "indexed": false,
          "internalType": "uint256",
          "name": "depositDelta",
          "type": "uint256"
        },
        {
          "indexed": false,
          "internalType": "uint256",
          "name": "scaledDebtAmount",
          "type": "uint256"
        }
      ],
      "name": "DecreaseDeposit",
      "type": "event"
    },
    {
      "anonymous": false,
      "inputs": [
        {
          "indexed": true,
          "internalType": "uint256",
          "name": "positionId",
          "type": "uint256"
        },
        {
          "indexed": true,
          "internalType": "address",
          "name": "trader",
          "type": "address"
        },
        {
          "indexed": false,
          "internalType": "uint256",
          "name": "depositDelta",
          "type": "uint256"
        },
        {
          "indexed": false,
          "internalType": "uint256",
          "name": "scaledDebtAmount",
          "type": "uint256"
        }
      ],
      "name": "IncreaseDeposit",
      "type": "event"
    },
    {
      "anonymous": false,
      "inputs": [
        {
          "indexed": false,
          "internalType": "uint8",
          "name": "version",
          "type": "uint8"
        }
      ],
      "name": "Initialized",
      "type": "event"
    },
    {
      "anonymous": false,
      "inputs": [
        {
          "indexed": true,
          "internalType": "address",
          "name": "_keeperRewardDistributor",
          "type": "address"
        }
      ],
      "name": "KeeperRewardDistributorChanged",
      "type": "event"
    },
    {
      "anonymous": false,
      "inputs": [
        {
          "indexed": true,
          "internalType": "uint256",
          "name": "maintenanceBuffer",
          "type": "uint256"
        }
      ],
      "name": "MaintenanceBufferChanged",
      "type": "event"
    },
    {
      "anonymous": false,
      "inputs": [
        {
          "indexed": true,
          "internalType": "uint256",
          "name": "_minPositionSize",
          "type": "uint256"
        },
        {
          "indexed": true,
          "internalType": "address",
          "name": "_minPositionAsset",
          "type": "address"
        }
      ],
      "name": "MinPositionSizeAndAssetChanged",
      "type": "event"
    },
    {
      "anonymous": false,
      "inputs": [
        {
          "indexed": true,
          "internalType": "uint256",
          "name": "positionId",
          "type": "uint256"
        },
        {
          "indexed": true,
          "internalType": "address",
          "name": "trader",
          "type": "address"
        },
        {
          "indexed": true,
          "internalType": "address",
          "name": "openedBy",
          "type": "address"
        },
        {
          "components": [
            {
              "internalType": "uint256",
              "name": "id",
              "type": "uint256"
            },
            {
              "internalType": "uint256",
              "name": "scaledDebtAmount",
              "type": "uint256"
            },
            {
              "internalType": "contract IBucket",
              "name": "bucket",
              "type": "address"
            },
            {
              "internalType": "address",
              "name": "soldAsset",
              "type": "address"
            },
            {
              "internalType": "uint256",
              "name": "depositAmountInSoldAsset",
              "type": "uint256"
            },
            {
              "internalType": "address",
              "name": "positionAsset",
              "type": "address"
            },
            {
              "internalType": "uint256",
              "name": "positionAmount",
              "type": "uint256"
            },
            {
              "internalType": "address",
              "name": "trader",
              "type": "address"
            },
            {
              "internalType": "uint256",
              "name": "openBorrowIndex",
              "type": "uint256"
            },
            {
              "internalType": "uint256",
              "name": "createdAt",
              "type": "uint256"
            },
            {
              "internalType": "uint256",
              "name": "updatedConditionsAt",
              "type": "uint256"
            },
            {
              "internalType": "bytes",
              "name": "extraParams",
              "type": "bytes"
            }
          ],
          "indexed": false,
          "internalType": "struct PositionLibrary.Position",
          "name": "position",
          "type": "tuple"
        },
        {
          "indexed": false,
          "internalType": "address",
          "name": "feeToken",
          "type": "address"
        },
        {
          "indexed": false,
          "internalType": "uint256",
          "name": "protocolFee",
          "type": "uint256"
        },
        {
          "indexed": false,
          "internalType": "uint256",
          "name": "entryPrice",
          "type": "uint256"
        },
        {
          "indexed": false,
          "internalType": "uint256",
          "name": "leverage",
          "type": "uint256"
        },
        {
          "components": [
            {
              "internalType": "uint256",
              "name": "managerType",
              "type": "uint256"
            },
            {
              "internalType": "bytes",
              "name": "params",
              "type": "bytes"
            }
          ],
          "indexed": false,
          "internalType": "struct LimitOrderLibrary.Condition[]",
          "name": "closeConditions",
          "type": "tuple[]"
        }
      ],
      "name": "OpenPosition",
      "type": "event"
    },
    {
      "anonymous": false,
      "inputs": [
        {
          "indexed": true,
          "internalType": "uint256",
          "name": "newMultiplier",
          "type": "uint256"
        }
      ],
      "name": "OracleTolerableLimitMultiplierChanged",
      "type": "event"
    },
    {
      "anonymous": false,
      "inputs": [
        {
          "indexed": true,
          "internalType": "uint256",
          "name": "positionId",
          "type": "uint256"
        },
        {
          "indexed": true,
          "internalType": "address",
          "name": "trader",
          "type": "address"
        },
        {
          "indexed": false,
          "internalType": "address",
          "name": "bucketAddress",
          "type": "address"
        },
        {
          "indexed": false,
          "internalType": "address",
          "name": "soldAsset",
          "type": "address"
        },
        {
          "indexed": false,
          "internalType": "address",
          "name": "positionAsset",
          "type": "address"
        },
        {
          "indexed": false,
          "internalType": "uint256",
          "name": "decreasePositionAmount",
          "type": "uint256"
        },
        {
          "indexed": false,
          "internalType": "uint256",
          "name": "depositedAmount",
          "type": "uint256"
        },
        {
          "indexed": false,
          "internalType": "uint256",
          "name": "scaledDebtAmount",
          "type": "uint256"
        },
        {
          "indexed": false,
          "internalType": "int256",
          "name": "profit",
          "type": "int256"
        },
        {
          "indexed": false,
          "internalType": "uint256",
          "name": "positionDebt",
          "type": "uint256"
        },
        {
          "indexed": false,
          "internalType": "uint256",
          "name": "amountOut",
          "type": "uint256"
        }
      ],
      "name": "PartialClosePosition",
      "type": "event"
    },
    {
      "anonymous": false,
      "inputs": [
        {
          "indexed": false,
          "internalType": "address",
          "name": "account",
          "type": "address"
        }
      ],
      "name": "Paused",
      "type": "event"
    },
    {
      "anonymous": false,
      "inputs": [
        {
          "indexed": true,
          "internalType": "uint256",
          "name": "securityBuffer",
          "type": "uint256"
        }
      ],
      "name": "SecurityBufferChanged",
      "type": "event"
    },
    {
      "anonymous": false,
      "inputs": [
        {
          "indexed": true,
          "internalType": "uint256",
          "name": "oracleTolerableLimit",
          "type": "uint256"
        }
      ],
      "name": "SetDefaultOracleTolerableLimit",
      "type": "event"
    },
    {
      "anonymous": false,
      "inputs": [
        {
          "indexed": false,
          "internalType": "address",
          "name": "token0",
          "type": "address"
        },
        {
          "indexed": false,
          "internalType": "address",
          "name": "token1",
          "type": "address"
        },
        {
          "indexed": false,
          "internalType": "uint256",
          "name": "amountInToken0",
          "type": "uint256"
        },
        {
          "indexed": false,
          "internalType": "uint256",
          "name": "amountInToken1",
          "type": "uint256"
        }
      ],
      "name": "SetMaxPositionSize",
      "type": "event"
    },
    {
      "anonymous": false,
      "inputs": [
        {
          "indexed": true,
          "internalType": "address",
          "name": "assetA",
          "type": "address"
        },
        {
          "indexed": true,
          "internalType": "address",
          "name": "assetB",
          "type": "address"
        },
        {
          "indexed": false,
          "internalType": "uint256",
          "name": "oracleTolerableLimit",
          "type": "uint256"
        }
      ],
      "name": "SetOracleTolerableLimit",
      "type": "event"
    },
    {
      "anonymous": false,
      "inputs": [
        {
          "indexed": false,
          "internalType": "address",
          "name": "account",
          "type": "address"
        }
      ],
      "name": "Unpaused",
      "type": "event"
    },
    {
      "anonymous": false,
      "inputs": [
        {
          "indexed": true,
          "internalType": "uint256",
          "name": "positionId",
          "type": "uint256"
        },
        {
          "indexed": true,
          "internalType": "address",
          "name": "trader",
          "type": "address"
        },
        {
          "components": [
            {
              "internalType": "uint256",
              "name": "managerType",
              "type": "uint256"
            },
            {
              "internalType": "bytes",
              "name": "params",
              "type": "bytes"
            }
          ],
          "indexed": false,
          "internalType": "struct LimitOrderLibrary.Condition[]",
          "name": "closeConditions",
          "type": "tuple[]"
        }
      ],
      "name": "UpdatePositionConditions",
      "type": "event"
    },
    {
      "inputs": [
        {
          "internalType": "address",
          "name": "",
          "type": "address"
        },
        {
          "internalType": "uint256",
          "name": "",
          "type": "uint256"
        }
      ],
      "name": "bucketPositionIds",
      "outputs": [
        {
          "internalType": "uint256",
          "name": "",
          "type": "uint256"
        }
      ],
      "stateMutability": "view",
      "type": "function"
    },
    {
      "inputs": [
        {
          "internalType": "uint256",
          "name": "_positionId",
          "type": "uint256"
        },
        {
          "internalType": "uint256",
          "name": "_conditionIndex",
          "type": "uint256"
        },
        {
          "internalType": "bytes",
          "name": "_additionalParams",
          "type": "bytes"
        }
      ],
      "name": "canBeClosed",
      "outputs": [
        {
          "internalType": "bool",
          "name": "",
          "type": "bool"
        }
      ],
      "stateMutability": "nonpayable",
      "type": "function"
    },
    {
      "inputs": [
        {
          "internalType": "uint256",
          "name": "_id",
          "type": "uint256"
        },
        {
          "internalType": "address",
          "name": "_depositReceiver",
          "type": "address"
        },
        {
          "components": [
            {
              "internalType": "uint256",
              "name": "shares",
              "type": "uint256"
            },
            {
              "components": [
                {
                  "internalType": "string",
                  "name": "dexName",
                  "type": "string"
                },
                {
                  "internalType": "bytes",
                  "name": "encodedPath",
                  "type": "bytes"
                }
              ],
              "internalType": "struct PrimexPricingLibrary.SwapPath[]",
              "name": "paths",
              "type": "tuple[]"
            }
          ],
          "internalType": "struct PrimexPricingLibrary.Route[]",
          "name": "_routes",
          "type": "tuple[]"
        },
        {
          "internalType": "uint256",
          "name": "_amountOutMin",
          "type": "uint256"
        }
      ],
      "name": "closePosition",
      "outputs": [],
      "stateMutability": "nonpayable",
      "type": "function"
    },
    {
      "inputs": [
        {
          "internalType": "uint256",
          "name": "_id",
          "type": "uint256"
        },
        {
          "internalType": "address",
          "name": "_keeper",
          "type": "address"
        },
        {
          "components": [
            {
              "internalType": "uint256",
              "name": "shares",
              "type": "uint256"
            },
            {
              "components": [
                {
                  "internalType": "string",
                  "name": "dexName",
                  "type": "string"
                },
                {
                  "internalType": "bytes",
                  "name": "encodedPath",
                  "type": "bytes"
                }
              ],
              "internalType": "struct PrimexPricingLibrary.SwapPath[]",
              "name": "paths",
              "type": "tuple[]"
            }
          ],
          "internalType": "struct PrimexPricingLibrary.Route[]",
          "name": "_routes",
          "type": "tuple[]"
        },
        {
          "internalType": "uint256",
          "name": "_conditionIndex",
          "type": "uint256"
        },
        {
          "internalType": "bytes",
          "name": "_ccmAdditionalParams",
          "type": "bytes"
        },
        {
          "internalType": "enum PositionLibrary.CloseReason",
          "name": "_closeReason",
          "type": "uint8"
        }
      ],
      "name": "closePositionByCondition",
      "outputs": [],
      "stateMutability": "nonpayable",
      "type": "function"
    },
    {
      "inputs": [
        {
          "internalType": "uint256",
          "name": "_positionId",
          "type": "uint256"
        },
        {
          "internalType": "uint256",
          "name": "_amount",
          "type": "uint256"
        }
      ],
      "name": "decreaseDeposit",
      "outputs": [],
      "stateMutability": "nonpayable",
      "type": "function"
    },
    {
      "inputs": [],
      "name": "defaultOracleTolerableLimit",
      "outputs": [
        {
          "internalType": "uint256",
          "name": "",
          "type": "uint256"
        }
      ],
      "stateMutability": "view",
      "type": "function"
    },
    {
      "inputs": [
        {
          "internalType": "uint256[]",
          "name": "_ids",
          "type": "uint256[]"
        },
        {
          "internalType": "address[]",
          "name": "_traders",
          "type": "address[]"
        },
        {
          "internalType": "uint256",
          "name": "_length",
          "type": "uint256"
        },
        {
          "internalType": "address",
          "name": "_bucket",
          "type": "address"
        }
      ],
      "name": "deletePositions",
      "outputs": [],
      "stateMutability": "nonpayable",
      "type": "function"
    },
    {
      "inputs": [
        {
          "internalType": "address",
          "name": "_token",
          "type": "address"
        },
        {
          "internalType": "address",
          "name": "_to",
          "type": "address"
        },
        {
          "internalType": "uint256",
          "name": "_amount",
          "type": "uint256"
        }
      ],
      "name": "doTransferOut",
      "outputs": [],
      "stateMutability": "nonpayable",
      "type": "function"
    },
    {
      "inputs": [],
      "name": "getAllPositionsLength",
      "outputs": [
        {
          "internalType": "uint256",
          "name": "",
          "type": "uint256"
        }
      ],
      "stateMutability": "view",
      "type": "function"
    },
    {
      "inputs": [
        {
          "internalType": "address",
          "name": "_bucket",
          "type": "address"
        }
      ],
      "name": "getBucketPositionsLength",
      "outputs": [
        {
          "internalType": "uint256",
          "name": "",
          "type": "uint256"
        }
      ],
      "stateMutability": "view",
      "type": "function"
    },
    {
      "inputs": [
        {
          "internalType": "uint256",
          "name": "_positionId",
          "type": "uint256"
        },
        {
          "internalType": "uint256",
          "name": "_index",
          "type": "uint256"
        }
      ],
      "name": "getCloseCondition",
      "outputs": [
        {
          "components": [
            {
              "internalType": "uint256",
              "name": "managerType",
              "type": "uint256"
            },
            {
              "internalType": "bytes",
              "name": "params",
              "type": "bytes"
            }
          ],
          "internalType": "struct LimitOrderLibrary.Condition",
          "name": "",
          "type": "tuple"
        }
      ],
      "stateMutability": "view",
      "type": "function"
    },
    {
      "inputs": [
        {
          "internalType": "uint256",
          "name": "_positionId",
          "type": "uint256"
        }
      ],
      "name": "getCloseConditions",
      "outputs": [
        {
          "components": [
            {
              "internalType": "uint256",
              "name": "managerType",
              "type": "uint256"
            },
            {
              "internalType": "bytes",
              "name": "params",
              "type": "bytes"
            }
          ],
          "internalType": "struct LimitOrderLibrary.Condition[]",
          "name": "",
          "type": "tuple[]"
        }
      ],
      "stateMutability": "view",
      "type": "function"
    },
    {
      "inputs": [
        {
          "internalType": "address",
          "name": "assetA",
          "type": "address"
        },
        {
          "internalType": "address",
          "name": "assetB",
          "type": "address"
        }
      ],
      "name": "getOracleTolerableLimit",
      "outputs": [
        {
          "internalType": "uint256",
          "name": "",
          "type": "uint256"
        }
      ],
      "stateMutability": "view",
      "type": "function"
    },
    {
      "inputs": [
        {
          "internalType": "uint256",
          "name": "_id",
          "type": "uint256"
        }
      ],
      "name": "getPosition",
      "outputs": [
        {
          "components": [
            {
              "internalType": "uint256",
              "name": "id",
              "type": "uint256"
            },
            {
              "internalType": "uint256",
              "name": "scaledDebtAmount",
              "type": "uint256"
            },
            {
              "internalType": "contract IBucket",
              "name": "bucket",
              "type": "address"
            },
            {
              "internalType": "address",
              "name": "soldAsset",
              "type": "address"
            },
            {
              "internalType": "uint256",
              "name": "depositAmountInSoldAsset",
              "type": "uint256"
            },
            {
              "internalType": "address",
              "name": "positionAsset",
              "type": "address"
            },
            {
              "internalType": "uint256",
              "name": "positionAmount",
              "type": "uint256"
            },
            {
              "internalType": "address",
              "name": "trader",
              "type": "address"
            },
            {
              "internalType": "uint256",
              "name": "openBorrowIndex",
              "type": "uint256"
            },
            {
              "internalType": "uint256",
              "name": "createdAt",
              "type": "uint256"
            },
            {
              "internalType": "uint256",
              "name": "updatedConditionsAt",
              "type": "uint256"
            },
            {
              "internalType": "bytes",
              "name": "extraParams",
              "type": "bytes"
            }
          ],
          "internalType": "struct PositionLibrary.Position",
          "name": "",
          "type": "tuple"
        }
      ],
      "stateMutability": "view",
      "type": "function"
    },
    {
      "inputs": [
        {
          "internalType": "uint256",
          "name": "_index",
          "type": "uint256"
        }
      ],
      "name": "getPositionByIndex",
      "outputs": [
        {
          "components": [
            {
              "internalType": "uint256",
              "name": "id",
              "type": "uint256"
            },
            {
              "internalType": "uint256",
              "name": "scaledDebtAmount",
              "type": "uint256"
            },
            {
              "internalType": "contract IBucket",
              "name": "bucket",
              "type": "address"
            },
            {
              "internalType": "address",
              "name": "soldAsset",
              "type": "address"
            },
            {
              "internalType": "uint256",
              "name": "depositAmountInSoldAsset",
              "type": "uint256"
            },
            {
              "internalType": "address",
              "name": "positionAsset",
              "type": "address"
            },
            {
              "internalType": "uint256",
              "name": "positionAmount",
              "type": "uint256"
            },
            {
              "internalType": "address",
              "name": "trader",
              "type": "address"
            },
            {
              "internalType": "uint256",
              "name": "openBorrowIndex",
              "type": "uint256"
            },
            {
              "internalType": "uint256",
              "name": "createdAt",
              "type": "uint256"
            },
            {
              "internalType": "uint256",
              "name": "updatedConditionsAt",
              "type": "uint256"
            },
            {
              "internalType": "bytes",
              "name": "extraParams",
              "type": "bytes"
            }
          ],
          "internalType": "struct PositionLibrary.Position",
          "name": "",
          "type": "tuple"
        }
      ],
      "stateMutability": "view",
      "type": "function"
    },
    {
      "inputs": [
        {
          "internalType": "uint256",
          "name": "_id",
          "type": "uint256"
        }
      ],
      "name": "getPositionDebt",
      "outputs": [
        {
          "internalType": "uint256",
          "name": "",
          "type": "uint256"
        }
      ],
      "stateMutability": "view",
      "type": "function"
    },
    {
      "inputs": [
        {
          "internalType": "address",
          "name": "_trader",
          "type": "address"
        }
      ],
      "name": "getTraderPositionsLength",
      "outputs": [
        {
          "internalType": "uint256",
          "name": "",
          "type": "uint256"
        }
      ],
      "stateMutability": "view",
      "type": "function"
    },
    {
      "inputs": [
        {
          "internalType": "uint256",
          "name": "_id",
          "type": "uint256"
        }
      ],
      "name": "healthPosition",
      "outputs": [
        {
          "internalType": "uint256",
          "name": "",
          "type": "uint256"
        }
      ],
      "stateMutability": "view",
      "type": "function"
    },
    {
      "inputs": [
        {
          "internalType": "uint256",
          "name": "_positionId",
          "type": "uint256"
        },
        {
          "internalType": "uint256",
          "name": "_amount",
          "type": "uint256"
        },
        {
          "internalType": "address",
          "name": "_asset",
          "type": "address"
        },
        {
          "internalType": "bool",
          "name": "_takeDepositFromWallet",
          "type": "bool"
        },
        {
          "components": [
            {
              "internalType": "uint256",
              "name": "shares",
              "type": "uint256"
            },
            {
              "components": [
                {
                  "internalType": "string",
                  "name": "dexName",
                  "type": "string"
                },
                {
                  "internalType": "bytes",
                  "name": "encodedPath",
                  "type": "bytes"
                }
              ],
              "internalType": "struct PrimexPricingLibrary.SwapPath[]",
              "name": "paths",
              "type": "tuple[]"
            }
          ],
          "internalType": "struct PrimexPricingLibrary.Route[]",
          "name": "_routes",
          "type": "tuple[]"
        },
        {
          "internalType": "uint256",
          "name": "_amountOutMin",
          "type": "uint256"
        }
      ],
      "name": "increaseDeposit",
      "outputs": [],
      "stateMutability": "nonpayable",
      "type": "function"
    },
    {
      "inputs": [
        {
          "internalType": "address",
          "name": "_registry",
          "type": "address"
        },
        {
          "internalType": "address",
          "name": "_primexDNS",
          "type": "address"
        },
        {
          "internalType": "address payable",
          "name": "_traderBalanceVault",
          "type": "address"
        },
        {
          "internalType": "address",
          "name": "_priceOracle",
          "type": "address"
        },
        {
          "internalType": "address",
          "name": "_keeperRewardDistributor",
          "type": "address"
        },
        {
          "internalType": "address",
          "name": "_whiteBlackList",
          "type": "address"
        }
      ],
      "name": "initialize",
      "outputs": [],
      "stateMutability": "nonpayable",
      "type": "function"
    },
    {
      "inputs": [
        {
          "internalType": "uint256",
          "name": "_id",
          "type": "uint256"
        }
      ],
      "name": "isDelistedPosition",
      "outputs": [
        {
          "internalType": "bool",
          "name": "",
          "type": "bool"
        }
      ],
      "stateMutability": "view",
      "type": "function"
    },
    {
      "inputs": [
        {
          "internalType": "uint256",
          "name": "_id",
          "type": "uint256"
        }
      ],
      "name": "isPositionRisky",
      "outputs": [
        {
          "internalType": "bool",
          "name": "",
          "type": "bool"
        }
      ],
      "stateMutability": "view",
      "type": "function"
    },
    {
      "inputs": [],
      "name": "keeperRewardDistributor",
      "outputs": [
        {
          "internalType": "contract IKeeperRewardDistributor",
          "name": "",
          "type": "address"
        }
      ],
      "stateMutability": "view",
      "type": "function"
    },
    {
      "inputs": [],
      "name": "maintenanceBuffer",
      "outputs": [
        {
          "internalType": "uint256",
          "name": "",
          "type": "uint256"
        }
      ],
      "stateMutability": "view",
      "type": "function"
    },
    {
      "inputs": [
        {
          "internalType": "address",
          "name": "",
          "type": "address"
        },
        {
          "internalType": "address",
          "name": "",
          "type": "address"
        }
      ],
      "name": "maxPositionSize",
      "outputs": [
        {
          "internalType": "uint256",
          "name": "",
          "type": "uint256"
        }
      ],
      "stateMutability": "view",
      "type": "function"
    },
    {
      "inputs": [],
      "name": "minPositionAsset",
      "outputs": [
        {
          "internalType": "address",
          "name": "",
          "type": "address"
        }
      ],
      "stateMutability": "view",
      "type": "function"
    },
    {
      "inputs": [],
      "name": "minPositionSize",
      "outputs": [
        {
          "internalType": "uint256",
          "name": "",
          "type": "uint256"
        }
      ],
      "stateMutability": "view",
      "type": "function"
    },
    {
      "inputs": [
        {
          "components": [
            {
              "components": [
                {
                  "internalType": "string",
                  "name": "bucket",
                  "type": "string"
                },
                {
                  "internalType": "uint256",
                  "name": "borrowedAmount",
                  "type": "uint256"
                },
                {
                  "components": [
                    {
                      "internalType": "uint256",
                      "name": "shares",
                      "type": "uint256"
                    },
                    {
                      "components": [
                        {
                          "internalType": "string",
                          "name": "dexName",
                          "type": "string"
                        },
                        {
                          "internalType": "bytes",
                          "name": "encodedPath",
                          "type": "bytes"
                        }
                      ],
                      "internalType": "struct PrimexPricingLibrary.SwapPath[]",
                      "name": "paths",
                      "type": "tuple[]"
                    }
                  ],
                  "internalType": "struct PrimexPricingLibrary.Route[]",
                  "name": "depositInThirdAssetRoutes",
                  "type": "tuple[]"
                }
              ],
              "internalType": "struct PositionLibrary.OpenPositionMarginParams",
              "name": "marginParams",
              "type": "tuple"
            },
            {
              "components": [
                {
                  "internalType": "uint256",
                  "name": "shares",
                  "type": "uint256"
                },
                {
                  "components": [
                    {
                      "internalType": "string",
                      "name": "dexName",
                      "type": "string"
                    },
                    {
                      "internalType": "bytes",
                      "name": "encodedPath",
                      "type": "bytes"
                    }
                  ],
                  "internalType": "struct PrimexPricingLibrary.SwapPath[]",
                  "name": "paths",
                  "type": "tuple[]"
                }
              ],
              "internalType": "struct PrimexPricingLibrary.Route[]",
              "name": "firstAssetRoutes",
              "type": "tuple[]"
            },
            {
              "internalType": "address",
              "name": "depositAsset",
              "type": "address"
            },
            {
              "internalType": "uint256",
              "name": "depositAmount",
              "type": "uint256"
            },
            {
              "internalType": "address",
              "name": "positionAsset",
              "type": "address"
            },
            {
              "internalType": "uint256",
              "name": "amountOutMin",
              "type": "uint256"
            },
            {
              "internalType": "uint256",
              "name": "deadline",
              "type": "uint256"
            },
            {
              "internalType": "bool",
              "name": "takeDepositFromWallet",
              "type": "bool"
            },
            {
              "internalType": "bool",
              "name": "payFeeFromWallet",
              "type": "bool"
            },
            {
              "internalType": "bool",
              "name": "isProtocolFeeInPmx",
              "type": "bool"
            },
            {
              "components": [
                {
                  "internalType": "uint256",
                  "name": "managerType",
                  "type": "uint256"
                },
                {
                  "internalType": "bytes",
                  "name": "params",
                  "type": "bytes"
                }
              ],
              "internalType": "struct LimitOrderLibrary.Condition[]",
              "name": "closeConditions",
              "type": "tuple[]"
            }
          ],
          "internalType": "struct PositionLibrary.OpenPositionParams",
          "name": "_params",
          "type": "tuple"
        }
      ],
      "name": "openPosition",
      "outputs": [],
      "stateMutability": "payable",
      "type": "function"
    },
    {
      "inputs": [
        {
          "components": [
            {
              "internalType": "address",
              "name": "sender",
              "type": "address"
            },
            {
              "components": [
                {
                  "internalType": "contract IBucket",
                  "name": "bucket",
                  "type": "address"
                },
                {
                  "internalType": "address",
                  "name": "positionAsset",
                  "type": "address"
                },
                {
                  "internalType": "address",
                  "name": "depositAsset",
                  "type": "address"
                },
                {
                  "internalType": "uint256",
                  "name": "depositAmount",
                  "type": "uint256"
                },
                {
                  "internalType": "address",
                  "name": "feeToken",
                  "type": "address"
                },
                {
                  "internalType": "uint256",
                  "name": "protocolFee",
                  "type": "uint256"
                },
                {
                  "internalType": "address",
                  "name": "trader",
                  "type": "address"
                },
                {
                  "internalType": "uint256",
                  "name": "deadline",
                  "type": "uint256"
                },
                {
                  "internalType": "uint256",
                  "name": "id",
                  "type": "uint256"
                },
                {
                  "internalType": "uint256",
                  "name": "leverage",
                  "type": "uint256"
                },
                {
                  "internalType": "bool",
                  "name": "shouldOpenPosition",
                  "type": "bool"
                },
                {
                  "internalType": "uint256",
                  "name": "createdAt",
                  "type": "uint256"
                },
                {
                  "internalType": "uint256",
                  "name": "updatedConditionsAt",
                  "type": "uint256"
                },
                {
                  "internalType": "bytes",
                  "name": "extraParams",
                  "type": "bytes"
                }
              ],
              "internalType": "struct LimitOrderLibrary.LimitOrder",
              "name": "order",
              "type": "tuple"
            },
            {
              "components": [
                {
                  "internalType": "uint256",
                  "name": "managerType",
                  "type": "uint256"
                },
                {
                  "internalType": "bytes",
                  "name": "params",
                  "type": "bytes"
                }
              ],
              "internalType": "struct LimitOrderLibrary.Condition[]",
              "name": "closeConditions",
              "type": "tuple[]"
            },
            {
              "components": [
                {
                  "internalType": "uint256",
                  "name": "shares",
                  "type": "uint256"
                },
                {
                  "components": [
                    {
                      "internalType": "string",
                      "name": "dexName",
                      "type": "string"
                    },
                    {
                      "internalType": "bytes",
                      "name": "encodedPath",
                      "type": "bytes"
                    }
                  ],
                  "internalType": "struct PrimexPricingLibrary.SwapPath[]",
                  "name": "paths",
                  "type": "tuple[]"
                }
              ],
              "internalType": "struct PrimexPricingLibrary.Route[]",
              "name": "firstAssetRoutes",
              "type": "tuple[]"
            },
            {
              "components": [
                {
                  "internalType": "uint256",
                  "name": "shares",
                  "type": "uint256"
                },
                {
                  "components": [
                    {
                      "internalType": "string",
                      "name": "dexName",
                      "type": "string"
                    },
                    {
                      "internalType": "bytes",
                      "name": "encodedPath",
                      "type": "bytes"
                    }
                  ],
                  "internalType": "struct PrimexPricingLibrary.SwapPath[]",
                  "name": "paths",
                  "type": "tuple[]"
                }
              ],
              "internalType": "struct PrimexPricingLibrary.Route[]",
              "name": "depositInThirdAssetRoutes",
              "type": "tuple[]"
            }
          ],
          "internalType": "struct LimitOrderLibrary.OpenPositionByOrderParams",
          "name": "_params",
          "type": "tuple"
        }
      ],
      "name": "openPositionByOrder",
      "outputs": [
        {
          "internalType": "uint256",
          "name": "",
          "type": "uint256"
        },
        {
          "internalType": "uint256",
          "name": "",
          "type": "uint256"
        },
        {
          "internalType": "uint256",
          "name": "",
          "type": "uint256"
        },
        {
          "internalType": "uint256",
          "name": "",
          "type": "uint256"
        }
      ],
      "stateMutability": "nonpayable",
      "type": "function"
    },
    {
      "inputs": [],
      "name": "oracleTolerableLimitMultiplier",
      "outputs": [
        {
          "internalType": "uint256",
          "name": "",
          "type": "uint256"
        }
      ],
      "stateMutability": "view",
      "type": "function"
    },
    {
      "inputs": [
        {
          "internalType": "uint256",
          "name": "_positionId",
          "type": "uint256"
        },
        {
          "internalType": "uint256",
          "name": "_amount",
          "type": "uint256"
        },
        {
          "internalType": "address",
          "name": "_depositReceiver",
          "type": "address"
        },
        {
          "components": [
            {
              "internalType": "uint256",
              "name": "shares",
              "type": "uint256"
            },
            {
              "components": [
                {
                  "internalType": "string",
                  "name": "dexName",
                  "type": "string"
                },
                {
                  "internalType": "bytes",
                  "name": "encodedPath",
                  "type": "bytes"
                }
              ],
              "internalType": "struct PrimexPricingLibrary.SwapPath[]",
              "name": "paths",
              "type": "tuple[]"
            }
          ],
          "internalType": "struct PrimexPricingLibrary.Route[]",
          "name": "_routes",
          "type": "tuple[]"
        },
        {
          "internalType": "uint256",
          "name": "_amountOutMin",
          "type": "uint256"
        }
      ],
      "name": "partiallyClosePosition",
      "outputs": [],
      "stateMutability": "nonpayable",
      "type": "function"
    },
    {
      "inputs": [],
      "name": "pause",
      "outputs": [],
      "stateMutability": "nonpayable",
      "type": "function"
    },
    {
      "inputs": [],
      "name": "paused",
      "outputs": [
        {
          "internalType": "bool",
          "name": "",
          "type": "bool"
        }
      ],
      "stateMutability": "view",
      "type": "function"
    },
    {
      "inputs": [],
      "name": "positionsId",
      "outputs": [
        {
          "internalType": "uint256",
          "name": "",
          "type": "uint256"
        }
      ],
      "stateMutability": "view",
      "type": "function"
    },
    {
      "inputs": [],
      "name": "priceOracle",
      "outputs": [
        {
          "internalType": "contract IPriceOracle",
          "name": "",
          "type": "address"
        }
      ],
      "stateMutability": "view",
      "type": "function"
    },
    {
      "inputs": [],
      "name": "primexDNS",
      "outputs": [
        {
          "internalType": "contract IPrimexDNS",
          "name": "",
          "type": "address"
        }
      ],
      "stateMutability": "view",
      "type": "function"
    },
    {
      "inputs": [],
      "name": "registry",
      "outputs": [
        {
          "internalType": "contract IAccessControl",
          "name": "",
          "type": "address"
        }
      ],
      "stateMutability": "view",
      "type": "function"
    },
    {
      "inputs": [],
      "name": "securityBuffer",
      "outputs": [
        {
          "internalType": "uint256",
          "name": "",
          "type": "uint256"
        }
      ],
      "stateMutability": "view",
      "type": "function"
    },
    {
      "inputs": [
        {
          "internalType": "uint256",
          "name": "_percent",
          "type": "uint256"
        }
      ],
      "name": "setDefaultOracleTolerableLimit",
      "outputs": [],
      "stateMutability": "nonpayable",
      "type": "function"
    },
    {
      "inputs": [
        {
          "internalType": "contract IKeeperRewardDistributor",
          "name": "_keeperRewardDistributor",
          "type": "address"
        }
      ],
      "name": "setKeeperRewardDistributor",
      "outputs": [],
      "stateMutability": "nonpayable",
      "type": "function"
    },
    {
      "inputs": [
        {
          "internalType": "uint256",
          "name": "_newMaintenanceBuffer",
          "type": "uint256"
        }
      ],
      "name": "setMaintenanceBuffer",
      "outputs": [],
      "stateMutability": "nonpayable",
      "type": "function"
    },
    {
      "inputs": [
        {
          "internalType": "address",
          "name": "_token0",
          "type": "address"
        },
        {
          "internalType": "address",
          "name": "_token1",
          "type": "address"
        },
        {
          "internalType": "uint256",
          "name": "_amountInToken0",
          "type": "uint256"
        },
        {
          "internalType": "uint256",
          "name": "_amountInToken1",
          "type": "uint256"
        }
      ],
      "name": "setMaxPositionSize",
      "outputs": [],
      "stateMutability": "nonpayable",
      "type": "function"
    },
    {
      "inputs": [
        {
          "internalType": "uint256",
          "name": "_minPositionSize",
          "type": "uint256"
        },
        {
          "internalType": "address",
          "name": "_minPositionAsset",
          "type": "address"
        }
      ],
      "name": "setMinPositionSize",
      "outputs": [],
      "stateMutability": "nonpayable",
      "type": "function"
    },
    {
      "inputs": [
        {
          "internalType": "address",
          "name": "_assetA",
          "type": "address"
        },
        {
          "internalType": "address",
          "name": "_assetB",
          "type": "address"
        },
        {
          "internalType": "uint256",
          "name": "_percent",
          "type": "uint256"
        }
      ],
      "name": "setOracleTolerableLimit",
      "outputs": [],
      "stateMutability": "nonpayable",
      "type": "function"
    },
    {
      "inputs": [
        {
          "internalType": "uint256",
          "name": "newMultiplier",
          "type": "uint256"
        }
      ],
      "name": "setOracleTolerableLimitMultiplier",
      "outputs": [],
      "stateMutability": "nonpayable",
      "type": "function"
    },
    {
      "inputs": [
        {
          "internalType": "uint256",
          "name": "_newSecurityBuffer",
          "type": "uint256"
        }
      ],
      "name": "setSecurityBuffer",
      "outputs": [],
      "stateMutability": "nonpayable",
      "type": "function"
    },
    {
      "inputs": [
        {
          "internalType": "address",
          "name": "_spotTradingRewardDistributor",
          "type": "address"
        }
      ],
      "name": "setSpotTradingRewardDistributor",
      "outputs": [],
      "stateMutability": "nonpayable",
      "type": "function"
    },
    {
      "inputs": [],
      "name": "spotTradingRewardDistributor",
      "outputs": [
        {
          "internalType": "contract ISpotTradingRewardDistributor",
          "name": "",
          "type": "address"
        }
      ],
      "stateMutability": "view",
      "type": "function"
    },
    {
      "inputs": [
        {
          "internalType": "bytes4",
          "name": "_interfaceId",
          "type": "bytes4"
        }
      ],
      "name": "supportsInterface",
      "outputs": [
        {
          "internalType": "bool",
          "name": "",
          "type": "bool"
        }
      ],
      "stateMutability": "view",
      "type": "function"
    },
    {
      "inputs": [],
      "name": "traderBalanceVault",
      "outputs": [
        {
          "internalType": "contract ITraderBalanceVault",
          "name": "",
          "type": "address"
        }
      ],
      "stateMutability": "view",
      "type": "function"
    },
    {
      "inputs": [
        {
          "internalType": "address",
          "name": "",
          "type": "address"
        },
        {
          "internalType": "uint256",
          "name": "",
          "type": "uint256"
        }
      ],
      "name": "traderPositionIds",
      "outputs": [
        {
          "internalType": "uint256",
          "name": "",
          "type": "uint256"
        }
      ],
      "stateMutability": "view",
      "type": "function"
    },
    {
      "inputs": [],
      "name": "unpause",
      "outputs": [],
      "stateMutability": "nonpayable",
      "type": "function"
    },
    {
      "inputs": [
        {
          "internalType": "uint256",
          "name": "_positionId",
          "type": "uint256"
        },
        {
          "components": [
            {
              "internalType": "uint256",
              "name": "managerType",
              "type": "uint256"
            },
            {
              "internalType": "bytes",
              "name": "params",
              "type": "bytes"
            }
          ],
          "internalType": "struct LimitOrderLibrary.Condition[]",
          "name": "_closeConditions",
          "type": "tuple[]"
        }
      ],
      "name": "updatePositionConditions",
      "outputs": [],
      "stateMutability": "nonpayable",
      "type": "function"
    }
  ],
  "transactionHash": "0x072aa416b6ee7ac2149ee074ad3a44b00201c11ca41794c8f7bfa7cbd928f5b0",
  "args": [],
  "numDeployments": 1,
  "solcInputHash": "ac08d1652288d4d03be56436412dd0c4",
  "bytecode": "0x60808060405234620000c6576000549060ff8260081c1662000074575060ff8082160362000038575b604051615fe09081620000cc8239f35b60ff90811916176000557f7f26b83ff96e1f2b6a682f133852f6798a09c465da95921460cefb3847402498602060405160ff8152a13862000028565b62461bcd60e51b815260206004820152602760248201527f496e697469616c697a61626c653a20636f6e747261637420697320696e697469604482015266616c697a696e6760c81b6064820152608490fd5b600080fdfe61014080604052600436101561001457600080fd5b600090813560e01c90816301ffc9a714613bec575080630bbabf2914613bce5780630f2bd83914613b875780631555ec0214613acc5780631682f62314613a635780631785884c14613a3a5780631840de6e146136be578063212d55ec146136a05780632630c12f1461367757806326aaeaca1461338c57806328c85512146133135780632beb2e9f146131ee578063365b03e4146131d05780633f17ebb7146131635780633f4a2d271461313a5780633f4ba83a1461301057806344ff7dc314612fe457806350f4132214612fbb57806357c647c614612f7b5780635c975abb14612f5857806360fa88e414612f1f578063678d62fc1461288657806368a270c1146127ce578063777d24c0146127b057806377c30daf146126ef5780637b103999146126c65780638053b058146124ae5780638262b7c5146122605780638456cb591461216d5780638753ee6014611c1f5780638992c91114611c015780639968861e14611bd85780639c68a60814611bba578063a41b4ea414611b72578063a8905dab14611b45578063aa98ee3714611b1e578063b35ac73214611acf578063b4b6ce6014611a65578063bace71801461165b578063bb8313c21461163d578063bd83eb4c1461157a578063c66c2536146114f0578063cc2a9a5b1461103a578063d0061e3a146107d7578063d64470e914610781578063d7638a4614610748578063e56c926314610717578063e92d529a146106ee578063ea0341a81461066d578063eaf36179146105eb578063eb02c3011461058c578063f360fdb6146103685763fa824a821461026957600080fd5b34610365576020366003190112610365576004356001600160a01b0381169081900361036157610297615de9565b6040516301ffc9a760e01b81526307cba1f360e41b6004820152602081602481855afa908115610356578391610319575b50156103075760d880546001600160a01b031916821790557f3b8f7040d16ad94528a612b931acee6355587dda723c170b4d5949f59560579f8280a280f35b60405163044aa57560e41b8152600490fd5b90506020813d821161034e575b8161033360209383613fd2565b8101031261034a5761034490613ff3565b386102c8565b8280fd5b3d9150610326565b6040513d85823e3d90fd5b5080fd5b80fd5b50346103655760c036600319011261036557610382613d31565b6064359081151580920361057b576084356001600160401b038111610588576103af903690600401613cbf565b6103ba939193614a2e565b6103c2615e32565b600435855260dc6020526103d960408620546147b4565b509361042e60018060a01b0360d654169160018060a01b0360d754169360018060a01b0360d55416956040519761040f89613f49565b60243589526001600160a01b0316602089015260408801523691614ba1565b6060850152608084015260a083015260c082015260a43560e0820152602060405180809363f7e2251760e01b8252856004830152604060248301528051604483015260018060a01b038482015116606483015260408101511515608483015260e06104aa606083015161010060a4860152610144850190614d20565b60808301516001600160a01b0390811660c486015260a0840151811660e486015260c084015116610104850152910151610124830152038173E56d397236252188dd45aba573D57c1Fa4a8E75C5af4908115610356578391610551575b507fad6b2ae912630f53b4805f4a0718a98a9cc995c7ac0dd218a8850dd8464a745160408354926001808060a01b0360078701541695015482519182526020820152a36001805580f35b90506020813d602011610580575b8161056c60209383613fd2565b8101031261057b575138610507565b600080fd5b3d915061055f565b8380fd5b5034610365576020366003190112610365576105d36105cd60406105e7936004356105b5615048565b506105bf81615ebf565b815260dc60205220546147b4565b506148bf565b604051918291602083526020830190613d88565b0390f35b503461036557602036600319011261036557600435610608615d81565b670de0b6b3a76400008110158061065c575b1561064a578060ce557f2de46581b5873212cac819667b4965f685fa93f3341a7f60b1ab25321e06daa18280a280f35b60405163970e254b60e01b8152600490fd5b50678ac7230489e80000811061061a565b50346103655760208060031936011261036157600435825260d3815260408220805490610699826141b3565b936106a76040519586613fd2565b828552908152828120838086015b8484106106cf57604051828152806105e78185018a613e80565b6001916002916106de85614aba565b81520192019201919084906106b5565b503461036557806003193601126103655760d8546040516001600160a01b039091168152602090f35b5034610365576020366003190112610365576020670de0b6b3a764000061073f6004356150da565b10604051908152f35b5034610365576020366003190112610365576020906040906001600160a01b03610770613d05565b16815260d283522054604051908152f35b50346103655760403660031901126103655761079b613d05565b6001600160a01b0316815260d160205260408120805460243592908310156103655760206107c98484613e52565b90546040519160031b1c8152f35b50346103655760c0366003190112610365576107f1613d1b565b6001600160401b039060443582811161058857610812903690600401613cbf565b60a052916064359060843590811161103657610832903690600401613d5b565b9290600760a435101561103257610847614a2e565b60a4351561102057610857615e32565b5a93610861614a84565b93600435885260d36020526040882080548210610ffd575b505090610887913691614ae4565b91610893600435615ebf565b6001600160a01b0382161561030757604051926108af84613f12565b6108b7615048565b845260006020850152600060408501526000606085015260043560005260dc6020526109216108ed6105cd6040600020546147b4565b808652602080820151151590870152600160608088019190915260a08201519101516001600160a01b0390811691166150a1565b60408501526044602060018060a01b0360d4541660405192838092632474521560e21b82527f5770eb0b3cb4d032328b9b2070b33a4b2779280a0ec69c0dfa26ce7c00bb682860048301523360248301525afa908115610ef257600091610fc3575b50610fa8575b835160c081015160808201516020808401516040808a015160d65460d75460d554868e015160a08b01516060909b01519551631dae49b960e21b81526001600160a01b039b8c166004820152958b166024870152989b979a959998151598959796908616959182169491909216929181604481875afa988915610ef2578f919a8e9b60009b610f5c575b5090610a619291606060cb549d015115159d610a346040518060e052613f2d565b60e05152602060e0510152604060e051015260018060a01b038d16606060e0510152369060a05190614ba1565b608060e0510152600060a060e051015260c060e051015260e08051015261010060e051015261012060e051015261014060e051015261016060e051015261018060e05101526101a060e05101526101c060e05101526101e060e0510152610ae76080835160405180938192630b2aa09960e11b8352606060048401526064830190613d88565b60031982820301602483015260e051518152602060e05101516020820152604060e0510151604082015260018060a01b03606060e0510151166060820152610bc7610bb1610b448660e05101516102008089870152850190614d20565b60a060e051015160a085015260c060e051015160c085015260018060a01b0360e0805101511660e085015260018060a01b0361010060e05101511661010085015260018060a01b0361012060e05101511661012085015261014060e0510151848203610140860152613c9f565b61016060e0510151838203610160850152613c7a565b9061018060e051015115156101808201526101a060e05101516101a08201526101c060e05101516101c08201526101e08060e0510151151591015260a4356044830152038173E56d397236252188dd45aba573D57c1Fa4a8E75C5af48015610ef257606091600091610f2d575b500151916005831015610f17578051604081015160e090910151610c67916001600160a01b0391821691166004356158dd565b51906101408201514203610c7e575b856001805580f35b60d85460a083015160c0939093015195966001600160a01b03918216959390911692610cab905a906147a7565b9260405195610cb987613fb7565b60008752604051936040850160208087015260a05190526060850196606060a05160051b870101988b9760009a5b60a0518c1015610dc057888103605f19018b52610d048a8f614621565b610d1a60408301918035845260208101906145ed565b8091926040602086015252606083019060608160051b85010193836000905b838210610d5a575050505050506020806001929b019b019b019a9998610ce7565b909192939495602080610db2600193605f19888203018a52610d7c8b87614621565b90610da5610d9b610d8d848061459b565b6040855260408501916145cc565b928581019061459b565b91858185039101526145cc565b980196019493920190610d39565b9197949a50959b50610de39298508391975099939903601f198101835282613fd2565b519360405195610df287613f49565b6001600160a01b0316865260208601978852604086019182526060860190815260016080870190815260a0870193845260c0870194855260e0870195865291873b1561057b576040516350b29c5560e11b81526020600482015296516001600160a01b0390811660248901529851909816604487015296516064860152955193956101248701946005811015610f175760848801525160a48701525160c48601525161010060e48601528051928390528492610144840192916020019060005b818110610efe5750505060008381959381935161010483015203925af18015610ef257610ee3575b80808080610c76565b610eec90613ee9565b38610eda565b6040513d6000823e3d90fd5b8251855287955060209485019490920191600101610eb2565b634e487b7160e01b600052602160045260246000fd5b610f4f915060803d608011610f55575b610f478183613fd2565b810190614dfe565b38610c34565b503d610f3d565b92509a5091929394959697986020823d602011610fa0575b81610f8160209383613fd2565b810103126103655750518c999098979695949392918f91610a61610a13565b3d9150610f74565b610fb9604085015160ce5490615f27565b6040850152610989565b906020823d602011610ff5575b81610fdd60209383613fd2565b810103126103655750610fef90613ff3565b38610983565b3d9150610fd0565b610887939295506110179161101191614a9e565b50614aba565b93909138610879565b60405163036be76f60e61b8152600490fd5b8580fd5b8480fd5b50346103655760c036600319011261036557611054613d05565b61105c613d1b565b6044356001600160a01b0381811693918490036110365761107b613cef565b9360843582811680910361057b5760a4359280841680940361057b5787549660ff8860081c1615958680976114e3575b80156114cc575b1561147057829060ff19998860018c8316178d5561145f575b501693604051976301ffc9a760e01b98898152637965db0b60e01b60048201526020998c6024918c8484818d5afa9384156112da578d9294611427575b50836113bb575b83611351575b836112e5575b8361126c575b836111f5575b505050156103075783906001600160601b0360a01b968760d454161760d455168560d654161760d6558460d554161760d555168260d754161760d7558160d854161760d85560df54161760df556111b684549360ff8560081c169061118b82614000565b61119482614000565b606554166065556111a481614000565b6111ad81614000565b60018055614000565b6111be578280f35b7f7f26b83ff96e1f2b6a682f133852f6798a09c465da95921460cefb38474024989161ff001916835560405160018152a138808280f35b604051908152633df6cef760e01b60048201529250908290818b5afa908115611261578c91611228575b50388a81611127565b90508981813d831161125a575b61123f8183613fd2565b810103126112565761125090613ff3565b3861121f565b8b80fd5b503d611235565b6040513d8e823e3d90fd5b9250508c6040518381526307cba1f360e41b60048201528c8184818c5afa9081156112da578d92916112a0575b5092611121565b82819392503d83116112d3575b6112b78183613fd2565b810103126112cf576112c98c91613ff3565b38611299565b8d80fd5b503d6112ad565b6040513d84823e3d90fd5b9250508c6040518381526341636c7560e11b60048201528c8184818b8b165afa9081156112da578d929161131b575b509261111b565b82819392503d831161134a575b6113328183613fd2565b810103126112cf576113448c91613ff3565b38611314565b503d611328565b9250508c6040518381526312b3ed2b60e01b60048201528c818481895afa9081156112da578d9291611385575b5092611115565b82819392503d83116113b4575b61139c8183613fd2565b810103126112cf576113ae8c91613ff3565b3861137e565b503d611392565b9250508c60405183815263fa6ab0ef60e01b60048201528c8184818b89165afa9081156112da578d92916113f1575b509261110f565b82819392503d8311611420575b6114088183613fd2565b810103126112cf5761141a8c91613ff3565b386113ea565b503d6113fe565b8281939295503d8311611458575b61143f8183613fd2565b810103126112cf576114518c91613ff3565b9238611108565b503d611435565b61ffff1916610101178b55386110cb565b60405162461bcd60e51b815260206004820152602e60248201527f496e697469616c697a61626c653a20636f6e747261637420697320616c72656160448201526d191e481a5b9a5d1a585b1a5e995960921b6064820152608490fd5b50303b1580156110b25750600160ff8a16146110b2565b50600160ff8a16106110ab565b5034610365578061150036613e1d565b61150b929192615cdf565b73F90aCbeF0eDDdd6854c96137f416a5b7dD67D904803b1561103657604051636336129b60e11b81526001600160a01b03938416600482015293909216602484015260448301528290829060649082905af480156112da5761156a5750f35b61157390613ee9565b6103655780f35b503461036557602090816003193601126103655760043561159a81615ebf565b815260dc82526115d5826115b46105cd60408520546147b4565b60405180938192632ac0a2ad60e21b83528460048401526024830190613d88565b038173E56d397236252188dd45aba573D57c1Fa4a8E75C5af49182156116315791611604575b50604051908152f35b90508181813d831161162a575b61161b8183613fd2565b8101031261057b5751386115fb565b503d611611565b604051903d90823e3d90fd5b5034610365578060031936011261036557602060da54604051908152f35b503461036557602060031991818336011261036557600435926001600160401b03841161036157836004019360a08136039283011261034a5761169c6149ea565b60d454604051632474521560e21b81527f8f8b3dc194d940c9ce77bea0cf23855523a0d7b641973e714d9dc5f3528a573a60048201523360248201526001600160a01b0396918690829060449082908b165afa908115610ef257600091611a30575b5015611020578560d75416604051926398509a3560e01b8452604060048501528761172884613d47565b16604485015260248101948535906101c21901811215611a2c578101600481019060a0606487015281358a8116809103611a2857869361184461183086958e8d99966118a39660e48a01528161178060248301613d47565b169161010492838b01528061179760448401613d47565b1661012490818c015261180f6101448c8160648701359101528c610204856117c160848901613d47565b169461016495868401526101849660a4890135888501526117e460c48a01613d47565b16986101a4998a85015260e48901356101c48501528801356101e48401528701359101528401613edc565b15156102248c01528201356102448b01528101356102648a0152019061459b565b6101c06102848801526102a48701916145cc565b611894608461188c61186f61185c604487018d6145ed565b6043198b88038101868d01529691614635565b61187c606487018d6145ed565b90868b84030160a48c01526146b3565b9301896145ed565b918684030160c48701526146b3565b906024830152038173E56d397236252188dd45aba573D57c1Fa4a8E75C5af4918215611a1d57849085936119f6575b50826118dd9161528d565b60cf54909460001982019182116119e257506118f8906147b4565b50611902906148bf565b9261190d818361496a565b60c00161191990614980565b968060a0860151169760c08601988951836040890151169161193a93615c4b565b845190611947838561496a565b60c00161195390614980565b9361195d81614980565b936119679161496a565b60800161197390614980565b9287519389890198895190604001516101a089015191856040519687961699169761199f948c87614994565b03600080516020615f8b83398151915291a46080015160808201516119c3916149dd565b9351905191519260405194855284015260408301526060820152608090f35b634e487b7160e01b81526011600452602490fd5b6118dd9350611a1791503d8087833e611a0f8183613fd2565b810190614352565b926118d2565b6040513d86823e3d90fd5b8880fd5b8680fd5b908682813d8311611a5e575b611a468183613fd2565b810103126103655750611a5890613ff3565b386116fe565b503d611a3c565b503461036557602036600319011261036557600435611a82615d81565b670de0b6b3a7640000811015611abd578060cb557fc585f8bc75966d22aaa8e0939f33adbf1bf3f6c52b616ea3055221ed374631a08280a280f35b604051631d9c9aaf60e31b8152600490fd5b503461036557604036600319011261036557611ae9613d05565b6040611af3613d1b565b9260018060a01b03809316815260c96020522091166000526020526020604060002054604051908152f35b5034610365576020366003190112610365576020611b3d6004356150da565b604051908152f35b5034610365576040366003190112610365576020611b3d611b64613d05565b611b6c613d1b565b906150a1565b503461036557604036600319011261036557611b8c613d05565b6001600160a01b0316815260d260205260408120805460243592908310156103655760206107c98484613e52565b5034610365578060031936011261036557602060ce54604051908152f35b503461036557806003193601126103655760d5546040516001600160a01b039091168152602090f35b5034610365578060031936011261036557602060ca54604051908152f35b503461036557608036600319011261036557611c39613d1b565b906044356001600160401b03811161036157611c59903690600401613cbf565b9290611c63614a2e565b611c6b615e32565b611c73614a84565b9160405192611c8184613fb7565b848452611c8f600435615ebf565b6001600160a01b038216156103075760405193611cab85613f12565b611cb3615048565b855260006020860152600060408601526000606086015260043560005260dc602052611ce66105cd6040600020546147b4565b80865260208101511515806020880152806060880152612089575b508451918560c08401519560808501519560208601519160408401519060018060a01b0360d654169260018060a01b0360d754169460208060018060a01b0360d5541698015115159a60018060a01b0360a08201511690606060018060a01b03910151169060405180608052631dae49b960e21b9052611da26080519283926004840190602090939293604083019460018060a01b03809216845216910152565b03608051895afa9a8b15610ef25760009b612051575b918d9e9f91611e0c94939d9e9d606060cb549f015115159f611de06040518061010052613f2d565b61010051526020610100510152604061010051015260018060a01b031660606101005101523691614ba1565b608061010051015260643560a061010051015260c061010051015260e0610100510152610100805101526101206101005101526101406101005101526101606101005101526101806101005101526101a06101005101526101c06101005101526101e0610100510152611e9e6080825160405180938192630b2aa09960e11b8352606060048401526064830190613d88565b60031982820301602483015261010051518152602061010051015160208201526040610100510151604082015260018060a01b036060610100510151166060820152611f89611f72611f00866101005101516102008089870152850190614d20565b60a061010051015160a085015260c061010051015160c085015260018060a01b0360e06101005101511660e085015260018060a01b03610100805101511661010085015260018060a01b0361012061010051015116610120850152610140610100510151848203610140860152613c9f565b610160610100510151838203610160850152613c7a565b9061018061010051015115156101808201526101a06101005101516101a08201526101c06101005101516101c08201526101e080610100510151151591015260006044830152038173E56d397236252188dd45aba573D57c1Fa4a8E75C5af4908115610ef257600591606091600091612032575b5001511015610f175751604081015160e09091015161202b916001600160a01b0391821691166004356158dd565b6001805580f35b61204b915060803d608011610f5557610f478183613fd2565b38611ffd565b9a6020903d602011612081575b61206a82608051613fd2565b60206080518093810103126103655750519a611db8565b3d915061205e565b60a08101516060909101516120aa916001600160a01b0391821691166150a1565b60408601526044602060018060a01b0360d4541660405192838092632474521560e21b82527f5770eb0b3cb4d032328b9b2070b33a4b2779280a0ec69c0dfa26ce7c00bb682860048301523360248301525afa908115610ef257600091612133575b50612118575b38611d01565b612129604086015160ce5490615f27565b6040860152612112565b906020823d602011612165575b8161214d60209383613fd2565b81010312610365575061215f90613ff3565b3861210c565b3d9150612140565b503461036557806003193601126103655760d454604051632474521560e21b81527f5c91514091af31f62f596a314af7d5be40146b2f2355969392f055e12e0982fb600482015233602482015290602090829060449082906001600160a01b03165afa908115610ef257600091612227575b5015611020576121ed6149ea565b600160ff1960655416176065557f62e78cea01bee320cd4e420270b5ea74000d11b0c9f74754ebdbfc544b05a2586020604051338152a180f35b906020823d8211612258575b8161224060209383613fd2565b81010312610365575061225290613ff3565b386121df565b3d9150612233565b5034610365576040366003190112610365576024356001600160401b03811161036157612291903690600401613cbf565b9061229a614a2e565b6122a2615e32565b6004358352602060dc81526122ba60408520546147b4565b506007810180549092906001600160a01b0316330361249c57604051818101906122f7816122e9898986614b1b565b03601f198101835282613fd2565b51902090600435875260d381526040872090604051908181810193604082018386528154809152606083019360608260051b850101928d52808d20948d905b83821061245f5750505050612354925003601f198101835282613fd2565b51902003612365575b846001805580f35b8461236f826148bf565b60d6546001600160a01b03169073E56d397236252188dd45aba573D57c1Fa4a8E75C90813b156105885783916123c76123e19260405195869485938493634b4ea89960e11b8552608060048601526084850190613d88565b60d360248501528381036003190160448501528d8d614635565b90606483015203915af480156112da5761244b575b50507f7eae323942fab89b6464d6efc98661e980ff52b318d132930eed2b31b0fbf38c9161243f91600a4291015560018060a01b03905416936040519182916004359583614b1b565b0390a33880808061235d565b61245490613ee9565b6110365784386123f6565b91600191939550600261248a60408397605f198c82030187528a548152818582015201848a01614829565b97019201920186949295939195612336565b60405163014d683360e41b8152600490fd5b5034610365576124bd36613c41565b906124c6614a2e565b6124ce6149ea565b6124d6615e32565b8252602060dc81526124eb60408420546147b4565b5060d65460d75460d55460058401546003850154604051631dae49b960e21b81526001600160a01b03928316600482018190529183166024820181905296989297929692958a958916948916939089169273E56d397236252188dd45aba573D57c1Fa4a8E75C929188836044818a5afa9283156126bb578893612686575b506125779060cb54926150a1565b9060cc54926040519761258989613f49565b8b89528a890196875260408901908152606089019788526080890191825260a0890192835260c0890193845260e08901948552853b156126825789978d8f98928180946040519d8e9c8d6319498bc360e21b8152600401525160248d0152511660448b015251166064890152511660848701525160a48601525160c48501525160e484015251610104830152815a9161012492f480156112da5761266e575b50507f21b98b9d6fb2ba49b9764bd2d465450aa78464b9f9ddf9846bca69ce7e0e9695916040916001865495600788015416960154908351928352820152a36001805580f35b61267790613ee9565b611036578438612628565b8980fd5b975091508787813d81116126b4575b61269f8183613fd2565b8101031261057b576125778c97519290612569565b503d612695565b6040513d8a823e3d90fd5b503461036557806003193601126103655760d4546040516001600160a01b039091168152602090f35b5034610365576126fe36613e1d565b612706615de9565b8373E56d397236252188dd45aba573D57c1Fa4a8E75C93843b156103615781608491604051928380926393ed1f6560e01b825260cd600483015260018060a01b038091169889602484015216988960448301528760648301525af480156112da5761279c575b505060207f938d851f75d7ce6b1bbe32add24a326e1d035a93c033dcfff2bff0a48d4337cd91604051908152a380f35b6127a590613ee9565b61058857833861276c565b5034610365578060031936011261036557602060cb54604051908152f35b50346103655760209081600319360112610365576004356127ee81615ebf565b815260dc825261280160408220546147b4565b50600201546001600160a01b031682816128225750505b6040519015158152f35b604051634ad09aa560e01b815291829060049082905afa91821561163157809261284e575b5050612818565b9091508282813d831161287f575b6128668183613fd2565b81010312610365575061287890613ff3565b3880612847565b503d61285c565b50346103655760a0366003190112610365576128a0613d31565b6064356001600160401b03811161034a576128bf903690600401613cbf565b6128ca929192614a2e565b6128d2615e32565b6128dd600435615ebf565b600435845260dc6020526128f76105cd60408620546147b4565b60e08101519092906001600160a01b0316330361249c5760c08301516024351015612f0d576040519361292985613f12565b85855285602086015285604086015285606086015260208401511515606086015260c084015191670de0b6b3a76400009081602435029160243583048114602435151715612ef75760243590830403612ee5576129898460011c836149dd565b918210612ed35786612a79936129a18a968995615f07565b808352606083015115612ecc576129bc906020860151615f27565b60208301526129d16080850151835190615f27565b60408301526129de614a84565b9260408301519760208401519260608501511515600014612ec55760a08701516060880151612a19916001600160a01b0391821691166150a1565b915b60d65460d75460d55460609889015160a08c01519b90990151604051631dae49b960e21b81526001600160a01b039c8d166004820152908c1660248201529b9815159a908116989181169792169591906020908c9081906044820190565b03818a5afa9a8b15611261578f9c9b612e84575b5090612ada939291606060cb549d015115159d612aaf6040518060c052613f2d565b60243560c05152602060c0510152604060c051015260018060a01b0316606060c05101523691614ba1565b608060c051015260843560a060c051015260c08051015260e060c051015261010060c051015261012060c051015261014060c0510152604051612b1c81613fb7565b87815261016060c051015261018060c05101526101a060c05101526101c060c05101526101e060c051015260405191630b2aa09960e11b83526060600484015260808380612b6d6064820186613d88565b60031982820301602483015260c051518152602060c05101516020820152604060c0510151604082015260018060a01b03606060c0510151166060820152612c4d612c37612bca8660c05101516102008089870152850190614d20565b60a060c051015160a085015260c08051015160c085015260018060a01b0360e060c05101511660e085015260018060a01b0361010060c05101511661010085015260018060a01b0361012060c05101511661012085015261014060c0510151848203610140860152613c9f565b61016060c0510151838203610160850152613c7a565b9061018060c051015115156101808201526101a060c05101516101a08201526101c060c05101516101c08201526101e08060c0510151151591015260006044830152038173E56d397236252188dd45aba573D57c1Fa4a8E75C5af4928315611a1d578493612e5c575b506040612cf591612ccd60243560c08601516147a7565b60c0850152612ce4602082015160208601516147a7565b6020850152015160808301516147a7565b608082015260da5460db5460c083015160a084015160d754879492936001600160a01b0391821693908216929091169073ab03C0c0Ba39a886eD51757272E91cd739542118803b15611a2c57869460a493604051978896879563d3b9cb1560e01b8752600487015260248601526044850152606484015260848301525af480156112da57612e48575b5050600435835260dc602052612da181612d9b60408620546147b4565b90614e9f565b60018060a01b036040820151169160018060a01b036060830151169160018060a01b0360a0820151169060206080820151910151908351926040602086015195015195604051978852602088015260408701526024356060870152608086015260a085015260c084015260e083015261010082015233907fda47f84a849dfb28125ae28a0bf305b75e72bff27796fc4bca36e2f848b0a0e661012060043592a36001805580f35b612e5190613ee9565b61034a578238612d7e565b612cf5919350612e7c60409160803d608011610f5557610f478183613fd2565b939150612cb6565b9392919b5099506020833d602011612ebd575b81612ea460209383613fd2565b8101031261057b578d9a612ada93519a90919293612a8d565b3d9150612e97565b8891612a1b565b50856129bc565b604051630a77254f60e01b8152600490fd5b604051631550e8b760e01b8152600490fd5b634e487b7160e01b600052601160045260246000fd5b60405163242e4c2b60e11b8152600490fd5b5034610365576020366003190112610365576020906040906001600160a01b03612f47613d05565b16815260d183522054604051908152f35b5034610365578060031936011261036557602060ff606554166040519015158152f35b503461036557602036600319011261036557612f95613d05565b612f9d615de9565b60018060a01b03166001600160601b0360a01b60d954161760d95580f35b503461036557806003193601126103655760d9546040516001600160a01b039091168152602090f35b503461036557602036600319011261036557612ffe615048565b506105e76105d36105cd6004356147b4565b503461036557806003193601126103655760d454604051632474521560e21b81527f5a7d4408f4759dddd7fdfd0d21abd99341dc2f52cda14804988a9b2df20766d860048201523360248201526020918290829060449082906001600160a01b03165afa908115610ef257600091613105575b50156110205760655460ff8116156130c95760ff19166065556040513381527f5db9ee0a495bf2e6ff9c91a7834c1ba4fdd244a5e8aa4e537bd38aeae4b073aa9190a180f35b60405162461bcd60e51b815260048101839052601460248201527314185d5cd8589b194e881b9bdd081c185d5cd95960621b6044820152606490fd5b908282813d8311613133575b61311b8183613fd2565b81010312610365575061312d90613ff3565b38613083565b503d613111565b503461036557806003193601126103655760d6546040516001600160a01b039091168152602090f35b503461036557604036600319011261036557600435613180613d1b565b613188615d81565b8160da5560018060a01b031690816001600160601b0360a01b60db54161760db557f3f9f9aeb96d4eed71499314018db12ebc53e1ce77f3e372e27ec82e61e77982c8380a380f35b5034610365578060031936011261036557602060cf54604051908152f35b503461036557608036600319011261036557613208613d05565b613210613d1b565b9060443560643591613220615d81565b73E56d397236252188dd45aba573D57c1Fa4a8E75C9085823b156103655760a49160405192838092635323cdb560e11b825260c9600483015260018060a01b03809116998a602484015216958660448301528760648301528860848301525af48015613308576132cc575b50917fa73bd1411d7cefafbca3c39b9dfc6d263533671c6b50b796f2f4a31eb63a47119391608093604051938452602084015260408301526060820152a180f35b9160809391956132fd7fa73bd1411d7cefafbca3c39b9dfc6d263533671c6b50b796f2f4a31eb63a47119694613ee9565b95919350919361328b565b6040513d88823e3d90fd5b503461036557602036600319011261036557600435613330615d81565b8015158061337b575b15613369578060cc557fbaff4968173e39aed42691fb55671c5a687a43b3b936a129ab68365a791d006d8280a280f35b6040516333e75a7f60e11b8152600490fd5b50670de0b6b3a76400008110613339565b5034610365576003199060603683011261036557600435602435926044356001600160401b038111610588576133c6903690600401613d5b565b91909280855260209560d387526040862054811015613665576133f39082875260d3885260408720614a9e565b5060018060a01b03908160d65416958882546024604051809a81936352ff146960e11b835260048301525afa9384156126bb579189969594939189938495613619575b6134fb9950845260dc885261344e60408520546147b4565b509560018093016040519a8b986319b4835960e31b8a52606060048b0152805460648b01528581015460848b01528660028201541660a48b01528660038201541660c48b0152600481015460e48b0152866005820154166101048b015260068101546101248b0152866007820154166101448b015260088101546101648b015260098101546101848b0152600a8101546101a48b01526101806101c48b0152600b6101e48b019101614829565b828982030160248a01528694825492613513846147ef565b938484528d83821691826000146135f45750506001146135a2575b5050505091869761354b92889798948584030160448601526145cc565b0393165af191821561163157809261356a575b50506040519015158152f35b9091508282813d831161359b575b6135828183613fd2565b81010312610365575061359490613ff3565b388061355e565b503d613578565b888d9598999a9b9c9750939193528389209289935b8285106135d95750959a9998979692909101909201935090508782888061352e565b80548486018701528e9c508f9a508d959094019381016135b7565b60ff19168582015294151560051b90930190930195508a92508491508990508061352e565b969892959780929550839194503d831161365e575b6136388183613fd2565b8101031261365a57926134fb96949288926136548b9896614060565b94613436565b8780fd5b503d61362e565b6040516316f5923f60e31b8152600490fd5b503461036557806003193601126103655760d7546040516001600160a01b039091168152602090f35b5034610365578060031936011261036557602060cc54604051908152f35b506020600319818136011261034a57600435916001600160401b038311610588578260040184843603936101608091860112610361576136fc614a2e565b6137046149ea565b61370c615e32565b60d65460d7546040516393824ad160e01b8152606060048201526001600160a01b03979095803593891692891691606219018412156110325786948a8695019060048201906064870152613760818061459b565b6101c4880160609052610224880190613778926145cc565b9160248101356101e4880152604401613790916145ed565b8683036101c319016102048801526137a892916146b3565b906137b660248c01826145ed565b9260631993848883030160848901526137ce926146b3565b908a6137dc60448e01613d47565b1660a487015260648c013560c48701528a6137f960848e01613d47565b1660e48701528b61010460a4820135818901526101249060c4830135828a015260e4830161382690613edc565b15159261014493848b01520161383b90613edc565b15156101648901528d019c61384f8e613edc565b151561018489015201613861916145ed565b9092868303016101a487015261387692614635565b9160248401526044830152038173E56d397236252188dd45aba573D57c1Fa4a8E75C5af4908115613a2f5785908692613a10575b50816138b59161528d565b60cf5460001981019081116139fc576105cd6138d0916147b4565b6138ed8560a08301511660c0830151876040850151169133615c4b565b8051928560e08301511696358015158103611a28578790156139ca5750846004959660d6541660405196878092630460f0f360e01b82525afa80156126bb5787958991613977575b509561396d91600080516020615f8b833981519152959697945b6101a060408251948301519201519201519260405196879687614994565b0390a46001805580f35b8092959650878092503d83116139c3575b6139928183613fd2565b8101031261365a578695600080516020615f8b833981519152946139b861396d93614060565b919796955091613935565b503d613988565b9550600080516020615f8b833981519152939461396d917399ec76235f8a5a52611b0da5f0c6b09e1dcd2c9e9461394f565b634e487b7160e01b87526011600452602487fd5b6138b59250613a2991503d8088833e611a0f8183613fd2565b916138aa565b6040513d87823e3d90fd5b503461036557806003193601126103655760db546040516001600160a01b039091168152602090f35b503461036557602036600319011261036557600435613a80615d81565b670de0b6b3a76400008111613aba578060ca557f9cc578c88f7a198c4ccced6601ea38cdc1fc2dbacf6b476b689ba507edbe94e68280a280f35b60405163948b756d60e01b8152600490fd5b5034610365576080366003190112610365576001600160401b0360043581811161034a57613afe903690600401613cbf565b9160243590811161058857613b17903690600401613cbf565b60449291923593613b26613cef565b92613b2f615cdf565b865b868110613b3c578780f35b80613b54613b4e613b82938686615038565b35615ebf565b613b7d613b62828686615038565b3587613b77613b72858a8d615038565b614980565b916158dd565b615029565b613b31565b503461036557613bba6110116105e7926040613ba236613c41565b9290613bac614a84565b50815260d360205220614a9e565b604051918291602083526020830190613c9f565b5034610365578060031936011261036557602060d054604051908152f35b9050346103615760203660031901126103615760043563ffffffff60e01b811680910361034a57602092506306cc15a560e11b8114908115613c30575b5015158152f35b6301ffc9a760e01b14905038613c29565b604090600319011261057b576004359060243590565b60005b838110613c6a5750506000910152565b8181015183820152602001613c5a565b90602091613c9381518092818552858086019101613c57565b601f01601f1916010190565b9060406020613cbc93805184520151918160208201520190613c7a565b90565b9181601f8401121561057b578235916001600160401b03831161057b576020808501948460051b01011161057b57565b606435906001600160a01b038216820361057b57565b600435906001600160a01b038216820361057b57565b602435906001600160a01b038216820361057b57565b604435906001600160a01b038216820361057b57565b35906001600160a01b038216820361057b57565b9181601f8401121561057b578235916001600160401b03831161057b576020838186019501011161057b57565b90613cbc91805182526020810151602083015260018060a01b03806040830151166040840152806060830151166060840152608082015160808401528060a08301511660a084015260c082015160c084015260e08201511660e0830152610100808201519083015261012080820151908301526101408082015190830152610160809101519161018080928201520190613c7a565b606090600319011261057b576001600160a01b0390600435828116810361057b5791602435908116810361057b579060443590565b8054821015613e6a5760005260206000200190600090565b634e487b7160e01b600052603260045260246000fd5b908082519081815260208091019281808460051b8301019501936000915b848310613eae5750505050505090565b9091929394958480613ecc600193601f198682030187528a51613c9f565b9801930193019194939290613e9e565b3590811515820361057b57565b6001600160401b038111613efc57604052565b634e487b7160e01b600052604160045260246000fd5b608081019081106001600160401b03821117613efc57604052565b61020081019081106001600160401b03821117613efc57604052565b61010081019081106001600160401b03821117613efc57604052565b61018081019081106001600160401b03821117613efc57604052565b604081019081106001600160401b03821117613efc57604052565b606081019081106001600160401b03821117613efc57604052565b602081019081106001600160401b03821117613efc57604052565b90601f801991011681019081106001600160401b03821117613efc57604052565b5190811515820361057b57565b1561400757565b60405162461bcd60e51b815260206004820152602b60248201527f496e697469616c697a61626c653a20636f6e7472616374206973206e6f74206960448201526a6e697469616c697a696e6760a81b6064820152608490fd5b51906001600160a01b038216820361057b57565b6001600160401b038111613efc57601f01601f191660200190565b9092919261409c81614074565b916140aa6040519384613fd2565b82948284528282011161057b5760206140c4930190613c57565b565b9080601f8301121561057b578151613cbc9260200161408f565b91906101808382031261057b57604051906140fa82613f65565b83518252602080850151908301526040840151919384926001600160a01b038116810361057b57604084015261413260608201614060565b60608401526080810151608084015261414d60a08201614060565b60a084015260c081015160c084015261416860e08201614060565b60e084015261010080820151908401526101208082015190840152610140808201519084015261016091828201516001600160401b03811161057b576141ae92016140c6565b910152565b6001600160401b038111613efc5760051b60200190565b81601f8201121561057b578051916141e1836141b3565b9260406141f081519586613fd2565b8185526020938486019185600594851b8301019480861161057b57868301935b86851061422257505050505050505090565b84516001600160401b039081811161057b5785019084601f19838603011261057b5784519161425083613f81565b8a8101518352858101519082821161057b570184603f8201121561057b578a8101519061427c826141b3565b9261428988519485613fd2565b828452878d8501938c1b8301019187831161057b579081898f97959896949301975b8389106142c8575050505083809550820152815201940193614210565b909192939597809597505183811161057b5782018a603f19828c03011261057b578f918b516142f681613f81565b8c83015186811161057b5783018c605f8201121561057b576143208d8f830151606080940161408f565b82528301519286841161057b578c8e869561433c9301016140c6565b83820152815201940196949291908e96946142ab565b9190604090818482031261057b578351936001600160401b039485811161057b578261437f9183016140e0565b94602091828101519082821161057b57019182840390610240821261057b578551956101e09283880188811086821117613efc578252855185811161057b57876143ca9188016141ca565b8852828601519085821161057b576143e68860809389016141ca565b89850152603f19011261057b5780516143fe81613f12565b81860151815261441060608701614060565b8382015260808601518282015260a086015160608201528188015261443760c08601614060565b606088015260e08501516080880152610100958686015160a08901526101208087015160c08a01526144c961014095614471878a01613ff3565b60e08c0152610160996144858b8b01613ff3565b908c015261018092614498848b01613ff3565b908c01526101a0966144ab888b01613ff3565b908c01526101c0996144be8b8b01613ff3565b908c01528801614060565b9089015261020086015185811161057b5786019181601f8401121561057b578251906144f4826141b3565b9661450182519889613fd2565b828852858089019360051b8601019484861161057b57868101935b868510614544575050505050505050916102209161453d9386015201613ff3565b9082015290565b845183811161057b5782019084601f19838903011261057b5784519061456982613f81565b898301518252858301519185831161057b5761458c898c809695819601016140c6565b8382015281520194019361451c565b9035601e198236030181121561057b5701602081359101916001600160401b03821161057b57813603831361057b57565b908060209392818452848401376000828201840152601f01601f1916010190565b9035601e198236030181121561057b5701602081359101916001600160401b03821161057b578160051b3603831361057b57565b9035603e198236030181121561057b570190565b9082818152602080910193818360051b82010194846000925b85841061465f575050505050505090565b9091929394959685806146a2600193601f198682030188526146916146848d89614621565b803583528481019061459b565b9091604090818682015201916145cc565b99019401940192959493919061464e565b91908082526020809201918260059383851b810195809560009182945b8786106146e35750505050505050505090565b9091929394959697999881810386526146fc8b84614621565b9060409061471482820193803583528b8101906145ed565b809194848d850152526060918281019282891b8201019480948a915b848310614759575050505050505087806001929c9b9c9b019601960194979695939291906146d0565b909192939495968e80614798600193605f19898203018b5261477b8c87614621565b90610da5610d9b61478c848061459b565b8b85528b8501916145cc565b99019701959493019190614730565b91908203918211612ef757565b60cf54811015613e6a57600c9060cf600052027facb8d954e2cfef495862221e91bd7523613cf8808827cb33edfe4904cc51bf290190600090565b90600182811c9216801561481f575b602083101461480957565b634e487b7160e01b600052602260045260246000fd5b91607f16916147fe565b906000929180549161483a836147ef565b91828252600193848116908160001461489c575060011461485c575b50505050565b90919394506000526020928360002092846000945b838610614888575050505001019038808080614856565b805485870183015294019385908201614871565b9294505050602093945060ff191683830152151560051b01019038808080614856565b90600b6101606040516148d181613f65565b6149668195805483526001810154602084015260018060a01b03806002830154166040850152806003830154166060850152600482015460808501528060058301541660a0850152600682015460c085015260078201541660e084015260088101546101008401526009810154610120840152600a81015461014084015261495f6040518096819301614829565b0384613fd2565b0152565b9035906101be198136030182121561057b570190565b356001600160a01b038116810361057b5790565b926149af613cbc97959296939660c0865260c0860190613d88565b6001600160a01b03909616602085015260408401526060830152608082015280830360a09190910152613e80565b91908201809211612ef757565b60ff606554166149f657565b60405162461bcd60e51b815260206004820152601060248201526f14185d5cd8589b194e881c185d5cd95960821b6044820152606490fd5b600260015414614a3f576002600155565b60405162461bcd60e51b815260206004820152601f60248201527f5265656e7472616e637947756172643a207265656e7472616e742063616c6c006044820152606490fd5b60405190614a9182613f81565b6060602083600081520152565b8054821015613e6a5760005260206000209060011b0190600090565b9060016020604051614acb81613f81565b61496681958054835261495f6040518096819301614829565b929192614af082614074565b91614afe6040519384613fd2565b82948184528183011161057b578281602093846000960137010152565b9160208181850182865252604093848101858460051b83010195856000935b868510614b4c57505050505050505090565b90919293949596978680614b8f60019387614b80614b738f603f198a8603018d528a614621565b803584528581019061459b565b919092818682015201916145cc565b9a019501950193969594929190614b3a565b9291614bac826141b3565b90604094614bbc86519384613fd2565b82958484526020610120948186520192600595861b83019581871161057b5783945b878610614bef575050505050505050565b6001600160401b03863581811161057b57860190858286031261057b57855191614c1883613f81565b8035835289518101359082821161057b570185601f8201121561057b578035614c40816141b3565b92614c4d89519485613fd2565b8184528b51928380860193891b8201019389851161057b578101925b848410614c89575050505050885182015281528651019486510194614bde565b833583811161057b5782018b601f19828d03011261057b578b51908f614cae83613f81565b5190818101359186831161057b578d92820190603f93848301121561057b578f918f9192614ce0938201359101614ae4565b83528d81013586811161057b578d9101918201121561057b578f908c614d0d918f84518201359101614ae4565b905182015281528d519384019301614c69565b908151808252602080920191826005938284861b830196019460009081935b868510614d5157505050505050505090565b9091929394959697818103855286895191604090828282019480518352015193828483015284518091526060918483820193838a1b83010196019389905b838210614db257505050505050806001929a019501950193969594929190614d3f565b91939580614ded600193959799605f19888203018a528a519083614ddd835189845289840190613c7a565b9201519084818403910152613c7a565b9801960192018c9594929391614d8f565b9081608091031261057b57606060405191614e1883613f12565b8051835260208101516020840152604081015160408401520151600581101561057b57606082015290565b818110614e4e575050565b60008155600101614e43565b9190601f8111614e6957505050565b6140c4926000526020600020906020601f840160051c83019310614e95575b601f0160051c0190614e43565b9091508190614e88565b9061501357815181556020610160600b8285015193600194858201556002810160018060a01b039081604089015116906001600160601b0360a01b9182825416179055600383018260608a0151168282541617905560808801516004840155600583018260a08a0151168282541617905560c08801516006840155600783019160e0890151169082541617905561010086015160088201556101208601516009820155610140860151600a82015501930151908151916001600160401b038311613efc57614f7783614f7187546147ef565b87614e5a565b81601f8411600114614fb05750928293918392600094614fa5575b50501b916000199060031b1c1916179055565b015192503880614f92565b919083601f1981168760005284600020946000905b88838310614ff95750505010614fe0575b505050811b019055565b015160001960f88460031b161c19169055388080614fd6565b858701518855909601959485019487935090810190614fc5565b634e487b7160e01b600052600060045260246000fd5b6000198114612ef75760010190565b9190811015613e6a5760051b0190565b6040519061505582613f65565b606061016083600080825280602083015280604083015280848301528060808301528060a08301528060c08301528060e083015280610100830152806101208301526101408201520152565b60018060a01b0380911660005260cd602052604060002091166000526020526040600020548015156000146150d35790565b5060ca5490565b6150e381615ebf565b600090815260209060dc82526150fc60408220546147b4565b5090615107826148bf565b60d7546005840154600390940154604051631dae49b960e21b81526001600160a01b0395861660048201819052918616602482018190529095909216918686604481865afa958615613a2f579087949392918697615218575b509061517461519894939260cb54926150a1565b906040519788958695633f7c5f7960e21b875260a0600488015260a4870190613d88565b936024860152604485015260648401526084830152038173E56d397236252188dd45aba573D57c1Fa4a8E75C5af492831561520b5781936151da575b50505090565b9091809350813d8311615204575b6151f28183613fd2565b810103126103655750513880806151d4565b503d6151e8565b50604051903d90823e3d90fd5b8581939495969298503d831161524a575b6152338183613fd2565b810103126110365751948693929190615174615160565b503d615229565b90815491600160401b831015613efc57826152749160016140c495018155613e52565b90919082549060031b91821b91600019901b1916179055565b60006040805161529c81613f9c565b82815260208101839052015260d65460d75460d5546101008501516001600160a01b0393841694939283169290911690156157705760408501516020015160a08401516152f5916001600160a01b0391821691166150a1565b6101c08601511561576857606084015160a0850151615320916001600160a01b0391821691166150a1565b905b60da549160018060a01b0360db54169360018060a01b0360608801511660005260c9602052604060002060018060a01b0360a08901511660005260205260406000205495604051986153738a613f49565b8952602089015260408801526060870152608086015260a085015260c084015260e08301526153bc60405191637e5eae6360e11b83526101406004840152610144830190613d88565b9160031982840301602483015260e06153f36153e18651610240808852870190614d20565b60208701518682036020880152614d20565b91606060408701518051604088015260018060a01b036020820151168288015260408101516080880152015160a086015260018060a01b0360608701511660c086015260808601518286015260a08601516101008601526154c560c08701519361012094858801528388015115156101408801526101008801511515946101609586890152880151151561018090818901526101408901511515956101a096878a015289015115156101c089015260018060a01b0390890151166101e088015284880151878203610200890152613e80565b6101c087015115156102209096019590955280516001600160a01b039081166044860152602082015181166064860152604082015181166084860152606082015160a4860152608082015160c486015260a082015160e486015260c082015116610104850152015161012483015273E56d397236252188dd45aba573D57c1Fa4a8E75C92600090839081900381865af4938415610ef2576000926000956156ef575b5061557660d054808552615029565b60d05560cf54600160401b811015613efc5783612d9b82600161559c940160cf556147b4565b60cf5460001990818101908111612ef757845160005260dc60205260406000205560e0840160018060a01b0381511660005260d16020526155e36040600020865190615251565b516001600160a01b0316600090815260d16020526040902054818101908111612ef757845160005260dd6020526040600020556040840160018060a01b0381511660005260d260205261563c6040600020865190615251565b516001600160a01b0316600090815260d26020526040902054908101908111612ef7578351600090815260de6020526040902055015160d6546001600160a01b031692803b1561057b576156b56000936156ce9560405196879586948594634b4ea89960e11b8652608060048701526084860190613d88565b60d3602486015284810360031901604486015290613e80565b90606483015203915af48015610ef2576156e6575090565b613cbc90613ee9565b925093503d806000843e6157038184613fd2565b8201828103906080821261057b5783516001600160401b03811161057b5760609161572f9186016140e0565b91601f19011261057b5760606040519361574885613f9c565b602081015185526040810151602086015201516040840152919338615567565b600090615322565b60006152f5565b61578181546147ef565b908161578b575050565b81601f6000931160011461579d575055565b9080839182526157bc601f60208420940160051c840160018501614e43565b5555565b80549081156157ea57600019918201916157da8383613e52565b909182549160031b1b1916905555565b634e487b7160e01b600052603160045260246000fd5b908082146158d95761581281546147ef565b906001600160401b038211613efc5781906158378261583186546147ef565b86614e5a565b600090601f831160011461586e57600092615863575b50508160011b916000199060031b1c1916179055565b01549050388061584d565b81526020808220858352818320935090601f1985169083905b8282106158c05750509084600195949392106158a757505050811b019055565b015460001960f88460031b161c19169055388080614fd6565b8495819295850154815560018091019601940190615887565b5050565b9160009280845260209160d3835260409384862080549087815581615bf4575b50506001600160a01b0390811680875260d285528587208054600019949291858201918211615be05761595f88615274898c8e61593f8b9a999860de98613e52565b90549060031b1c96879589835260d2815283832094835252205490613e52565b868a5260de8852888a2054908a52888a2055885260d286526159828789206157c0565b84885260de865287878120551680875260d18552858720805490848201918211615bcc57906159b091613e52565b90549060031b1c81885260d186526159d981615274898b20888c5260dd8a528a8c205490613e52565b84885260dd86528688205490885286882055865260d184526159fc8587206157c0565b82865260dd8452858581205560cf548281019081116139fc57615a1e906147b4565b5083875260dc8552615a32868820546147b4565b919091615bb857808203615b0b575b50505081855260dc83528385205460cf548281019081116139fc57615a65906147b4565b5054865260dc84528486205560cf548015615af75701615a84816147b4565b615ae35790615ad8600b838860dc9796955588600182015588600282015588600382015588600482015588600582015588600682015588600782015588600882015588600982015588600a82015501615777565b60cf55845252812055565b634e487b7160e01b86526004869052602486fd5b634e487b7160e01b86526031600452602486fd5b600b81615bb0948293548555600182015460018601556002850181600284015416906001600160601b0360a01b918282541617905560038601826003850154168282541617905560048301546004870155600586018260058501541682825416179055600683015460068701556007860191600784015416908254161790556008810154600885015560098101546009850155600a810154600a850155019101615800565b388080615a41565b634e487b7160e01b88526004889052602488fd5b634e487b7160e01b89526011600452602489fd5b634e487b7160e01b8a52601160045260248afd5b6001600160ff1b0382168203615c3757875284872090600190811b8201915b828110615c2057506158fd565b808960029255615c31838201615777565b01615c13565b634e487b7160e01b88526011600452602488fd5b90929091906001600160a01b039081161580615cd2575b615c6c5750505050565b60d95416803b1561057b5760405163bda9200360e01b81526001600160a01b03938416600482015293909216602484015260448301526000908290606490829084905af18015610ef257615cc3575b808080614856565b615ccc90613ee9565b38615cbb565b508060d954161515615c62565b60d454604051632474521560e21b81527f28eb28c26cbbd48a6bfad016505ccf4a189452995f59d16217af8920961ed25c600482015233602482015290602090829060449082906001600160a01b03165afa908115610ef257600091615d48575b501561102057565b906020823d8211615d79575b81615d6160209383613fd2565b810103126103655750615d7390613ff3565b38615d40565b3d9150615d54565b60d454604051632474521560e21b81527fc0fc8e4dc5cff6febdf550b80d566f654e2baf1a02ea1060208c2f8ab2dd1b63600482015233602482015290602090829060449082906001600160a01b03165afa908115610ef257600091615d4857501561102057565b60d454604051632474521560e21b81526000600482015233602482015290602090829060449082906001600160a01b03165afa908115610ef257600091615d4857501561102057565b60df54604051630723eb0360e51b815233600482015290602090829060249082906001600160a01b03165afa908115610ef257600091615e86575b50615e7457565b6040516333df015b60e01b8152600490fd5b906020823d8211615eb7575b81615e9f60209383613fd2565b810103126103655750615eb190613ff3565b38615e6d565b3d9150615e92565b60cf5415159081615ee5575b5015615ed357565b604051631eab2a3b60e31b8152600490fd5b80915060005260dc602052615efe6040600020546147b4565b50541438615ecb565b8115615f11570490565b634e487b7160e01b600052601260045260246000fd5b906000918115918215615f63575b505015612ee5576706f05b59d3b20000810190818111612ef7578110612ed357670de0b6b3a7640000900490565b818192935002928284048214831517156119e25750615f829083615f07565b143880615f3556fe3f505465ce78d219c28bcf9bed881a651c4800d1161454b0d5c93225196e7b8ea26469706673582212204ab0eb33c45d99a812610d6cdac25745e58aa349ca570e155950e4c71c675f6564736f6c63430008120033",
  "deployedBytecode": "0x61014080604052600436101561001457600080fd5b600090813560e01c90816301ffc9a714613bec575080630bbabf2914613bce5780630f2bd83914613b875780631555ec0214613acc5780631682f62314613a635780631785884c14613a3a5780631840de6e146136be578063212d55ec146136a05780632630c12f1461367757806326aaeaca1461338c57806328c85512146133135780632beb2e9f146131ee578063365b03e4146131d05780633f17ebb7146131635780633f4a2d271461313a5780633f4ba83a1461301057806344ff7dc314612fe457806350f4132214612fbb57806357c647c614612f7b5780635c975abb14612f5857806360fa88e414612f1f578063678d62fc1461288657806368a270c1146127ce578063777d24c0146127b057806377c30daf146126ef5780637b103999146126c65780638053b058146124ae5780638262b7c5146122605780638456cb591461216d5780638753ee6014611c1f5780638992c91114611c015780639968861e14611bd85780639c68a60814611bba578063a41b4ea414611b72578063a8905dab14611b45578063aa98ee3714611b1e578063b35ac73214611acf578063b4b6ce6014611a65578063bace71801461165b578063bb8313c21461163d578063bd83eb4c1461157a578063c66c2536146114f0578063cc2a9a5b1461103a578063d0061e3a146107d7578063d64470e914610781578063d7638a4614610748578063e56c926314610717578063e92d529a146106ee578063ea0341a81461066d578063eaf36179146105eb578063eb02c3011461058c578063f360fdb6146103685763fa824a821461026957600080fd5b34610365576020366003190112610365576004356001600160a01b0381169081900361036157610297615de9565b6040516301ffc9a760e01b81526307cba1f360e41b6004820152602081602481855afa908115610356578391610319575b50156103075760d880546001600160a01b031916821790557f3b8f7040d16ad94528a612b931acee6355587dda723c170b4d5949f59560579f8280a280f35b60405163044aa57560e41b8152600490fd5b90506020813d821161034e575b8161033360209383613fd2565b8101031261034a5761034490613ff3565b386102c8565b8280fd5b3d9150610326565b6040513d85823e3d90fd5b5080fd5b80fd5b50346103655760c036600319011261036557610382613d31565b6064359081151580920361057b576084356001600160401b038111610588576103af903690600401613cbf565b6103ba939193614a2e565b6103c2615e32565b600435855260dc6020526103d960408620546147b4565b509361042e60018060a01b0360d654169160018060a01b0360d754169360018060a01b0360d55416956040519761040f89613f49565b60243589526001600160a01b0316602089015260408801523691614ba1565b6060850152608084015260a083015260c082015260a43560e0820152602060405180809363f7e2251760e01b8252856004830152604060248301528051604483015260018060a01b038482015116606483015260408101511515608483015260e06104aa606083015161010060a4860152610144850190614d20565b60808301516001600160a01b0390811660c486015260a0840151811660e486015260c084015116610104850152910151610124830152038173__$3ea787592ca519a32436565b5d70444cd7$__5af4908115610356578391610551575b507fad6b2ae912630f53b4805f4a0718a98a9cc995c7ac0dd218a8850dd8464a745160408354926001808060a01b0360078701541695015482519182526020820152a36001805580f35b90506020813d602011610580575b8161056c60209383613fd2565b8101031261057b575138610507565b600080fd5b3d915061055f565b8380fd5b5034610365576020366003190112610365576105d36105cd60406105e7936004356105b5615048565b506105bf81615ebf565b815260dc60205220546147b4565b506148bf565b604051918291602083526020830190613d88565b0390f35b503461036557602036600319011261036557600435610608615d81565b670de0b6b3a76400008110158061065c575b1561064a578060ce557f2de46581b5873212cac819667b4965f685fa93f3341a7f60b1ab25321e06daa18280a280f35b60405163970e254b60e01b8152600490fd5b50678ac7230489e80000811061061a565b50346103655760208060031936011261036157600435825260d3815260408220805490610699826141b3565b936106a76040519586613fd2565b828552908152828120838086015b8484106106cf57604051828152806105e78185018a613e80565b6001916002916106de85614aba565b81520192019201919084906106b5565b503461036557806003193601126103655760d8546040516001600160a01b039091168152602090f35b5034610365576020366003190112610365576020670de0b6b3a764000061073f6004356150da565b10604051908152f35b5034610365576020366003190112610365576020906040906001600160a01b03610770613d05565b16815260d283522054604051908152f35b50346103655760403660031901126103655761079b613d05565b6001600160a01b0316815260d160205260408120805460243592908310156103655760206107c98484613e52565b90546040519160031b1c8152f35b50346103655760c0366003190112610365576107f1613d1b565b6001600160401b039060443582811161058857610812903690600401613cbf565b60a052916064359060843590811161103657610832903690600401613d5b565b9290600760a435101561103257610847614a2e565b60a4351561102057610857615e32565b5a93610861614a84565b93600435885260d36020526040882080548210610ffd575b505090610887913691614ae4565b91610893600435615ebf565b6001600160a01b0382161561030757604051926108af84613f12565b6108b7615048565b845260006020850152600060408501526000606085015260043560005260dc6020526109216108ed6105cd6040600020546147b4565b808652602080820151151590870152600160608088019190915260a08201519101516001600160a01b0390811691166150a1565b60408501526044602060018060a01b0360d4541660405192838092632474521560e21b82527f5770eb0b3cb4d032328b9b2070b33a4b2779280a0ec69c0dfa26ce7c00bb682860048301523360248301525afa908115610ef257600091610fc3575b50610fa8575b835160c081015160808201516020808401516040808a015160d65460d75460d554868e015160a08b01516060909b01519551631dae49b960e21b81526001600160a01b039b8c166004820152958b166024870152989b979a959998151598959796908616959182169491909216929181604481875afa988915610ef2578f919a8e9b60009b610f5c575b5090610a619291606060cb549d015115159d610a346040518060e052613f2d565b60e05152602060e0510152604060e051015260018060a01b038d16606060e0510152369060a05190614ba1565b608060e0510152600060a060e051015260c060e051015260e08051015261010060e051015261012060e051015261014060e051015261016060e051015261018060e05101526101a060e05101526101c060e05101526101e060e0510152610ae76080835160405180938192630b2aa09960e11b8352606060048401526064830190613d88565b60031982820301602483015260e051518152602060e05101516020820152604060e0510151604082015260018060a01b03606060e0510151166060820152610bc7610bb1610b448660e05101516102008089870152850190614d20565b60a060e051015160a085015260c060e051015160c085015260018060a01b0360e0805101511660e085015260018060a01b0361010060e05101511661010085015260018060a01b0361012060e05101511661012085015261014060e0510151848203610140860152613c9f565b61016060e0510151838203610160850152613c7a565b9061018060e051015115156101808201526101a060e05101516101a08201526101c060e05101516101c08201526101e08060e0510151151591015260a4356044830152038173__$3ea787592ca519a32436565b5d70444cd7$__5af48015610ef257606091600091610f2d575b500151916005831015610f17578051604081015160e090910151610c67916001600160a01b0391821691166004356158dd565b51906101408201514203610c7e575b856001805580f35b60d85460a083015160c0939093015195966001600160a01b03918216959390911692610cab905a906147a7565b9260405195610cb987613fb7565b60008752604051936040850160208087015260a05190526060850196606060a05160051b870101988b9760009a5b60a0518c1015610dc057888103605f19018b52610d048a8f614621565b610d1a60408301918035845260208101906145ed565b8091926040602086015252606083019060608160051b85010193836000905b838210610d5a575050505050506020806001929b019b019b019a9998610ce7565b909192939495602080610db2600193605f19888203018a52610d7c8b87614621565b90610da5610d9b610d8d848061459b565b6040855260408501916145cc565b928581019061459b565b91858185039101526145cc565b980196019493920190610d39565b9197949a50959b50610de39298508391975099939903601f198101835282613fd2565b519360405195610df287613f49565b6001600160a01b0316865260208601978852604086019182526060860190815260016080870190815260a0870193845260c0870194855260e0870195865291873b1561057b576040516350b29c5560e11b81526020600482015296516001600160a01b0390811660248901529851909816604487015296516064860152955193956101248701946005811015610f175760848801525160a48701525160c48601525161010060e48601528051928390528492610144840192916020019060005b818110610efe5750505060008381959381935161010483015203925af18015610ef257610ee3575b80808080610c76565b610eec90613ee9565b38610eda565b6040513d6000823e3d90fd5b8251855287955060209485019490920191600101610eb2565b634e487b7160e01b600052602160045260246000fd5b610f4f915060803d608011610f55575b610f478183613fd2565b810190614dfe565b38610c34565b503d610f3d565b92509a5091929394959697986020823d602011610fa0575b81610f8160209383613fd2565b810103126103655750518c999098979695949392918f91610a61610a13565b3d9150610f74565b610fb9604085015160ce5490615f27565b6040850152610989565b906020823d602011610ff5575b81610fdd60209383613fd2565b810103126103655750610fef90613ff3565b38610983565b3d9150610fd0565b610887939295506110179161101191614a9e565b50614aba565b93909138610879565b60405163036be76f60e61b8152600490fd5b8580fd5b8480fd5b50346103655760c036600319011261036557611054613d05565b61105c613d1b565b6044356001600160a01b0381811693918490036110365761107b613cef565b9360843582811680910361057b5760a4359280841680940361057b5787549660ff8860081c1615958680976114e3575b80156114cc575b1561147057829060ff19998860018c8316178d5561145f575b501693604051976301ffc9a760e01b98898152637965db0b60e01b60048201526020998c6024918c8484818d5afa9384156112da578d9294611427575b50836113bb575b83611351575b836112e5575b8361126c575b836111f5575b505050156103075783906001600160601b0360a01b968760d454161760d455168560d654161760d6558460d554161760d555168260d754161760d7558160d854161760d85560df54161760df556111b684549360ff8560081c169061118b82614000565b61119482614000565b606554166065556111a481614000565b6111ad81614000565b60018055614000565b6111be578280f35b7f7f26b83ff96e1f2b6a682f133852f6798a09c465da95921460cefb38474024989161ff001916835560405160018152a138808280f35b604051908152633df6cef760e01b60048201529250908290818b5afa908115611261578c91611228575b50388a81611127565b90508981813d831161125a575b61123f8183613fd2565b810103126112565761125090613ff3565b3861121f565b8b80fd5b503d611235565b6040513d8e823e3d90fd5b9250508c6040518381526307cba1f360e41b60048201528c8184818c5afa9081156112da578d92916112a0575b5092611121565b82819392503d83116112d3575b6112b78183613fd2565b810103126112cf576112c98c91613ff3565b38611299565b8d80fd5b503d6112ad565b6040513d84823e3d90fd5b9250508c6040518381526341636c7560e11b60048201528c8184818b8b165afa9081156112da578d929161131b575b509261111b565b82819392503d831161134a575b6113328183613fd2565b810103126112cf576113448c91613ff3565b38611314565b503d611328565b9250508c6040518381526312b3ed2b60e01b60048201528c818481895afa9081156112da578d9291611385575b5092611115565b82819392503d83116113b4575b61139c8183613fd2565b810103126112cf576113ae8c91613ff3565b3861137e565b503d611392565b9250508c60405183815263fa6ab0ef60e01b60048201528c8184818b89165afa9081156112da578d92916113f1575b509261110f565b82819392503d8311611420575b6114088183613fd2565b810103126112cf5761141a8c91613ff3565b386113ea565b503d6113fe565b8281939295503d8311611458575b61143f8183613fd2565b810103126112cf576114518c91613ff3565b9238611108565b503d611435565b61ffff1916610101178b55386110cb565b60405162461bcd60e51b815260206004820152602e60248201527f496e697469616c697a61626c653a20636f6e747261637420697320616c72656160448201526d191e481a5b9a5d1a585b1a5e995960921b6064820152608490fd5b50303b1580156110b25750600160ff8a16146110b2565b50600160ff8a16106110ab565b5034610365578061150036613e1d565b61150b929192615cdf565b73__$183737d697d7aa9b5df9988cbe11bc4947$__803b1561103657604051636336129b60e11b81526001600160a01b03938416600482015293909216602484015260448301528290829060649082905af480156112da5761156a5750f35b61157390613ee9565b6103655780f35b503461036557602090816003193601126103655760043561159a81615ebf565b815260dc82526115d5826115b46105cd60408520546147b4565b60405180938192632ac0a2ad60e21b83528460048401526024830190613d88565b038173__$3ea787592ca519a32436565b5d70444cd7$__5af49182156116315791611604575b50604051908152f35b90508181813d831161162a575b61161b8183613fd2565b8101031261057b5751386115fb565b503d611611565b604051903d90823e3d90fd5b5034610365578060031936011261036557602060da54604051908152f35b503461036557602060031991818336011261036557600435926001600160401b03841161036157836004019360a08136039283011261034a5761169c6149ea565b60d454604051632474521560e21b81527f8f8b3dc194d940c9ce77bea0cf23855523a0d7b641973e714d9dc5f3528a573a60048201523360248201526001600160a01b0396918690829060449082908b165afa908115610ef257600091611a30575b5015611020578560d75416604051926398509a3560e01b8452604060048501528761172884613d47565b16604485015260248101948535906101c21901811215611a2c578101600481019060a0606487015281358a8116809103611a2857869361184461183086958e8d99966118a39660e48a01528161178060248301613d47565b169161010492838b01528061179760448401613d47565b1661012490818c015261180f6101448c8160648701359101528c610204856117c160848901613d47565b169461016495868401526101849660a4890135888501526117e460c48a01613d47565b16986101a4998a85015260e48901356101c48501528801356101e48401528701359101528401613edc565b15156102248c01528201356102448b01528101356102648a0152019061459b565b6101c06102848801526102a48701916145cc565b611894608461188c61186f61185c604487018d6145ed565b6043198b88038101868d01529691614635565b61187c606487018d6145ed565b90868b84030160a48c01526146b3565b9301896145ed565b918684030160c48701526146b3565b906024830152038173__$3ea787592ca519a32436565b5d70444cd7$__5af4918215611a1d57849085936119f6575b50826118dd9161528d565b60cf54909460001982019182116119e257506118f8906147b4565b50611902906148bf565b9261190d818361496a565b60c00161191990614980565b968060a0860151169760c08601988951836040890151169161193a93615c4b565b845190611947838561496a565b60c00161195390614980565b9361195d81614980565b936119679161496a565b60800161197390614980565b9287519389890198895190604001516101a089015191856040519687961699169761199f948c87614994565b03600080516020615f8b83398151915291a46080015160808201516119c3916149dd565b9351905191519260405194855284015260408301526060820152608090f35b634e487b7160e01b81526011600452602490fd5b6118dd9350611a1791503d8087833e611a0f8183613fd2565b810190614352565b926118d2565b6040513d86823e3d90fd5b8880fd5b8680fd5b908682813d8311611a5e575b611a468183613fd2565b810103126103655750611a5890613ff3565b386116fe565b503d611a3c565b503461036557602036600319011261036557600435611a82615d81565b670de0b6b3a7640000811015611abd578060cb557fc585f8bc75966d22aaa8e0939f33adbf1bf3f6c52b616ea3055221ed374631a08280a280f35b604051631d9c9aaf60e31b8152600490fd5b503461036557604036600319011261036557611ae9613d05565b6040611af3613d1b565b9260018060a01b03809316815260c96020522091166000526020526020604060002054604051908152f35b5034610365576020366003190112610365576020611b3d6004356150da565b604051908152f35b5034610365576040366003190112610365576020611b3d611b64613d05565b611b6c613d1b565b906150a1565b503461036557604036600319011261036557611b8c613d05565b6001600160a01b0316815260d260205260408120805460243592908310156103655760206107c98484613e52565b5034610365578060031936011261036557602060ce54604051908152f35b503461036557806003193601126103655760d5546040516001600160a01b039091168152602090f35b5034610365578060031936011261036557602060ca54604051908152f35b503461036557608036600319011261036557611c39613d1b565b906044356001600160401b03811161036157611c59903690600401613cbf565b9290611c63614a2e565b611c6b615e32565b611c73614a84565b9160405192611c8184613fb7565b848452611c8f600435615ebf565b6001600160a01b038216156103075760405193611cab85613f12565b611cb3615048565b855260006020860152600060408601526000606086015260043560005260dc602052611ce66105cd6040600020546147b4565b80865260208101511515806020880152806060880152612089575b508451918560c08401519560808501519560208601519160408401519060018060a01b0360d654169260018060a01b0360d754169460208060018060a01b0360d5541698015115159a60018060a01b0360a08201511690606060018060a01b03910151169060405180608052631dae49b960e21b9052611da26080519283926004840190602090939293604083019460018060a01b03809216845216910152565b03608051895afa9a8b15610ef25760009b612051575b918d9e9f91611e0c94939d9e9d606060cb549f015115159f611de06040518061010052613f2d565b61010051526020610100510152604061010051015260018060a01b031660606101005101523691614ba1565b608061010051015260643560a061010051015260c061010051015260e0610100510152610100805101526101206101005101526101406101005101526101606101005101526101806101005101526101a06101005101526101c06101005101526101e0610100510152611e9e6080825160405180938192630b2aa09960e11b8352606060048401526064830190613d88565b60031982820301602483015261010051518152602061010051015160208201526040610100510151604082015260018060a01b036060610100510151166060820152611f89611f72611f00866101005101516102008089870152850190614d20565b60a061010051015160a085015260c061010051015160c085015260018060a01b0360e06101005101511660e085015260018060a01b03610100805101511661010085015260018060a01b0361012061010051015116610120850152610140610100510151848203610140860152613c9f565b610160610100510151838203610160850152613c7a565b9061018061010051015115156101808201526101a06101005101516101a08201526101c06101005101516101c08201526101e080610100510151151591015260006044830152038173__$3ea787592ca519a32436565b5d70444cd7$__5af4908115610ef257600591606091600091612032575b5001511015610f175751604081015160e09091015161202b916001600160a01b0391821691166004356158dd565b6001805580f35b61204b915060803d608011610f5557610f478183613fd2565b38611ffd565b9a6020903d602011612081575b61206a82608051613fd2565b60206080518093810103126103655750519a611db8565b3d915061205e565b60a08101516060909101516120aa916001600160a01b0391821691166150a1565b60408601526044602060018060a01b0360d4541660405192838092632474521560e21b82527f5770eb0b3cb4d032328b9b2070b33a4b2779280a0ec69c0dfa26ce7c00bb682860048301523360248301525afa908115610ef257600091612133575b50612118575b38611d01565b612129604086015160ce5490615f27565b6040860152612112565b906020823d602011612165575b8161214d60209383613fd2565b81010312610365575061215f90613ff3565b3861210c565b3d9150612140565b503461036557806003193601126103655760d454604051632474521560e21b81527f5c91514091af31f62f596a314af7d5be40146b2f2355969392f055e12e0982fb600482015233602482015290602090829060449082906001600160a01b03165afa908115610ef257600091612227575b5015611020576121ed6149ea565b600160ff1960655416176065557f62e78cea01bee320cd4e420270b5ea74000d11b0c9f74754ebdbfc544b05a2586020604051338152a180f35b906020823d8211612258575b8161224060209383613fd2565b81010312610365575061225290613ff3565b386121df565b3d9150612233565b5034610365576040366003190112610365576024356001600160401b03811161036157612291903690600401613cbf565b9061229a614a2e565b6122a2615e32565b6004358352602060dc81526122ba60408520546147b4565b506007810180549092906001600160a01b0316330361249c57604051818101906122f7816122e9898986614b1b565b03601f198101835282613fd2565b51902090600435875260d381526040872090604051908181810193604082018386528154809152606083019360608260051b850101928d52808d20948d905b83821061245f5750505050612354925003601f198101835282613fd2565b51902003612365575b846001805580f35b8461236f826148bf565b60d6546001600160a01b03169073__$3ea787592ca519a32436565b5d70444cd7$__90813b156105885783916123c76123e19260405195869485938493634b4ea89960e11b8552608060048601526084850190613d88565b60d360248501528381036003190160448501528d8d614635565b90606483015203915af480156112da5761244b575b50507f7eae323942fab89b6464d6efc98661e980ff52b318d132930eed2b31b0fbf38c9161243f91600a4291015560018060a01b03905416936040519182916004359583614b1b565b0390a33880808061235d565b61245490613ee9565b6110365784386123f6565b91600191939550600261248a60408397605f198c82030187528a548152818582015201848a01614829565b97019201920186949295939195612336565b60405163014d683360e41b8152600490fd5b5034610365576124bd36613c41565b906124c6614a2e565b6124ce6149ea565b6124d6615e32565b8252602060dc81526124eb60408420546147b4565b5060d65460d75460d55460058401546003850154604051631dae49b960e21b81526001600160a01b03928316600482018190529183166024820181905296989297929692958a958916948916939089169273__$3ea787592ca519a32436565b5d70444cd7$__929188836044818a5afa9283156126bb578893612686575b506125779060cb54926150a1565b9060cc54926040519761258989613f49565b8b89528a890196875260408901908152606089019788526080890191825260a0890192835260c0890193845260e08901948552853b156126825789978d8f98928180946040519d8e9c8d6319498bc360e21b8152600401525160248d0152511660448b015251166064890152511660848701525160a48601525160c48501525160e484015251610104830152815a9161012492f480156112da5761266e575b50507f21b98b9d6fb2ba49b9764bd2d465450aa78464b9f9ddf9846bca69ce7e0e9695916040916001865495600788015416960154908351928352820152a36001805580f35b61267790613ee9565b611036578438612628565b8980fd5b975091508787813d81116126b4575b61269f8183613fd2565b8101031261057b576125778c97519290612569565b503d612695565b6040513d8a823e3d90fd5b503461036557806003193601126103655760d4546040516001600160a01b039091168152602090f35b5034610365576126fe36613e1d565b612706615de9565b8373__$3ea787592ca519a32436565b5d70444cd7$__93843b156103615781608491604051928380926393ed1f6560e01b825260cd600483015260018060a01b038091169889602484015216988960448301528760648301525af480156112da5761279c575b505060207f938d851f75d7ce6b1bbe32add24a326e1d035a93c033dcfff2bff0a48d4337cd91604051908152a380f35b6127a590613ee9565b61058857833861276c565b5034610365578060031936011261036557602060cb54604051908152f35b50346103655760209081600319360112610365576004356127ee81615ebf565b815260dc825261280160408220546147b4565b50600201546001600160a01b031682816128225750505b6040519015158152f35b604051634ad09aa560e01b815291829060049082905afa91821561163157809261284e575b5050612818565b9091508282813d831161287f575b6128668183613fd2565b81010312610365575061287890613ff3565b3880612847565b503d61285c565b50346103655760a0366003190112610365576128a0613d31565b6064356001600160401b03811161034a576128bf903690600401613cbf565b6128ca929192614a2e565b6128d2615e32565b6128dd600435615ebf565b600435845260dc6020526128f76105cd60408620546147b4565b60e08101519092906001600160a01b0316330361249c5760c08301516024351015612f0d576040519361292985613f12565b85855285602086015285604086015285606086015260208401511515606086015260c084015191670de0b6b3a76400009081602435029160243583048114602435151715612ef75760243590830403612ee5576129898460011c836149dd565b918210612ed35786612a79936129a18a968995615f07565b808352606083015115612ecc576129bc906020860151615f27565b60208301526129d16080850151835190615f27565b60408301526129de614a84565b9260408301519760208401519260608501511515600014612ec55760a08701516060880151612a19916001600160a01b0391821691166150a1565b915b60d65460d75460d55460609889015160a08c01519b90990151604051631dae49b960e21b81526001600160a01b039c8d166004820152908c1660248201529b9815159a908116989181169792169591906020908c9081906044820190565b03818a5afa9a8b15611261578f9c9b612e84575b5090612ada939291606060cb549d015115159d612aaf6040518060c052613f2d565b60243560c05152602060c0510152604060c051015260018060a01b0316606060c05101523691614ba1565b608060c051015260843560a060c051015260c08051015260e060c051015261010060c051015261012060c051015261014060c0510152604051612b1c81613fb7565b87815261016060c051015261018060c05101526101a060c05101526101c060c05101526101e060c051015260405191630b2aa09960e11b83526060600484015260808380612b6d6064820186613d88565b60031982820301602483015260c051518152602060c05101516020820152604060c0510151604082015260018060a01b03606060c0510151166060820152612c4d612c37612bca8660c05101516102008089870152850190614d20565b60a060c051015160a085015260c08051015160c085015260018060a01b0360e060c05101511660e085015260018060a01b0361010060c05101511661010085015260018060a01b0361012060c05101511661012085015261014060c0510151848203610140860152613c9f565b61016060c0510151838203610160850152613c7a565b9061018060c051015115156101808201526101a060c05101516101a08201526101c060c05101516101c08201526101e08060c0510151151591015260006044830152038173__$3ea787592ca519a32436565b5d70444cd7$__5af4928315611a1d578493612e5c575b506040612cf591612ccd60243560c08601516147a7565b60c0850152612ce4602082015160208601516147a7565b6020850152015160808301516147a7565b608082015260da5460db5460c083015160a084015160d754879492936001600160a01b0391821693908216929091169073__$75df3f6366b0557754cd3ba14359105414$__803b15611a2c57869460a493604051978896879563d3b9cb1560e01b8752600487015260248601526044850152606484015260848301525af480156112da57612e48575b5050600435835260dc602052612da181612d9b60408620546147b4565b90614e9f565b60018060a01b036040820151169160018060a01b036060830151169160018060a01b0360a0820151169060206080820151910151908351926040602086015195015195604051978852602088015260408701526024356060870152608086015260a085015260c084015260e083015261010082015233907fda47f84a849dfb28125ae28a0bf305b75e72bff27796fc4bca36e2f848b0a0e661012060043592a36001805580f35b612e5190613ee9565b61034a578238612d7e565b612cf5919350612e7c60409160803d608011610f5557610f478183613fd2565b939150612cb6565b9392919b5099506020833d602011612ebd575b81612ea460209383613fd2565b8101031261057b578d9a612ada93519a90919293612a8d565b3d9150612e97565b8891612a1b565b50856129bc565b604051630a77254f60e01b8152600490fd5b604051631550e8b760e01b8152600490fd5b634e487b7160e01b600052601160045260246000fd5b60405163242e4c2b60e11b8152600490fd5b5034610365576020366003190112610365576020906040906001600160a01b03612f47613d05565b16815260d183522054604051908152f35b5034610365578060031936011261036557602060ff606554166040519015158152f35b503461036557602036600319011261036557612f95613d05565b612f9d615de9565b60018060a01b03166001600160601b0360a01b60d954161760d95580f35b503461036557806003193601126103655760d9546040516001600160a01b039091168152602090f35b503461036557602036600319011261036557612ffe615048565b506105e76105d36105cd6004356147b4565b503461036557806003193601126103655760d454604051632474521560e21b81527f5a7d4408f4759dddd7fdfd0d21abd99341dc2f52cda14804988a9b2df20766d860048201523360248201526020918290829060449082906001600160a01b03165afa908115610ef257600091613105575b50156110205760655460ff8116156130c95760ff19166065556040513381527f5db9ee0a495bf2e6ff9c91a7834c1ba4fdd244a5e8aa4e537bd38aeae4b073aa9190a180f35b60405162461bcd60e51b815260048101839052601460248201527314185d5cd8589b194e881b9bdd081c185d5cd95960621b6044820152606490fd5b908282813d8311613133575b61311b8183613fd2565b81010312610365575061312d90613ff3565b38613083565b503d613111565b503461036557806003193601126103655760d6546040516001600160a01b039091168152602090f35b503461036557604036600319011261036557600435613180613d1b565b613188615d81565b8160da5560018060a01b031690816001600160601b0360a01b60db54161760db557f3f9f9aeb96d4eed71499314018db12ebc53e1ce77f3e372e27ec82e61e77982c8380a380f35b5034610365578060031936011261036557602060cf54604051908152f35b503461036557608036600319011261036557613208613d05565b613210613d1b565b9060443560643591613220615d81565b73__$3ea787592ca519a32436565b5d70444cd7$__9085823b156103655760a49160405192838092635323cdb560e11b825260c9600483015260018060a01b03809116998a602484015216958660448301528760648301528860848301525af48015613308576132cc575b50917fa73bd1411d7cefafbca3c39b9dfc6d263533671c6b50b796f2f4a31eb63a47119391608093604051938452602084015260408301526060820152a180f35b9160809391956132fd7fa73bd1411d7cefafbca3c39b9dfc6d263533671c6b50b796f2f4a31eb63a47119694613ee9565b95919350919361328b565b6040513d88823e3d90fd5b503461036557602036600319011261036557600435613330615d81565b8015158061337b575b15613369578060cc557fbaff4968173e39aed42691fb55671c5a687a43b3b936a129ab68365a791d006d8280a280f35b6040516333e75a7f60e11b8152600490fd5b50670de0b6b3a76400008110613339565b5034610365576003199060603683011261036557600435602435926044356001600160401b038111610588576133c6903690600401613d5b565b91909280855260209560d387526040862054811015613665576133f39082875260d3885260408720614a9e565b5060018060a01b03908160d65416958882546024604051809a81936352ff146960e11b835260048301525afa9384156126bb579189969594939189938495613619575b6134fb9950845260dc885261344e60408520546147b4565b509560018093016040519a8b986319b4835960e31b8a52606060048b0152805460648b01528581015460848b01528660028201541660a48b01528660038201541660c48b0152600481015460e48b0152866005820154166101048b015260068101546101248b0152866007820154166101448b015260088101546101648b015260098101546101848b0152600a8101546101a48b01526101806101c48b0152600b6101e48b019101614829565b828982030160248a01528694825492613513846147ef565b938484528d83821691826000146135f45750506001146135a2575b5050505091869761354b92889798948584030160448601526145cc565b0393165af191821561163157809261356a575b50506040519015158152f35b9091508282813d831161359b575b6135828183613fd2565b81010312610365575061359490613ff3565b388061355e565b503d613578565b888d9598999a9b9c9750939193528389209289935b8285106135d95750959a9998979692909101909201935090508782888061352e565b80548486018701528e9c508f9a508d959094019381016135b7565b60ff19168582015294151560051b90930190930195508a92508491508990508061352e565b969892959780929550839194503d831161365e575b6136388183613fd2565b8101031261365a57926134fb96949288926136548b9896614060565b94613436565b8780fd5b503d61362e565b6040516316f5923f60e31b8152600490fd5b503461036557806003193601126103655760d7546040516001600160a01b039091168152602090f35b5034610365578060031936011261036557602060cc54604051908152f35b506020600319818136011261034a57600435916001600160401b038311610588578260040184843603936101608091860112610361576136fc614a2e565b6137046149ea565b61370c615e32565b60d65460d7546040516393824ad160e01b8152606060048201526001600160a01b03979095803593891692891691606219018412156110325786948a8695019060048201906064870152613760818061459b565b6101c4880160609052610224880190613778926145cc565b9160248101356101e4880152604401613790916145ed565b8683036101c319016102048801526137a892916146b3565b906137b660248c01826145ed565b9260631993848883030160848901526137ce926146b3565b908a6137dc60448e01613d47565b1660a487015260648c013560c48701528a6137f960848e01613d47565b1660e48701528b61010460a4820135818901526101249060c4830135828a015260e4830161382690613edc565b15159261014493848b01520161383b90613edc565b15156101648901528d019c61384f8e613edc565b151561018489015201613861916145ed565b9092868303016101a487015261387692614635565b9160248401526044830152038173__$3ea787592ca519a32436565b5d70444cd7$__5af4908115613a2f5785908692613a10575b50816138b59161528d565b60cf5460001981019081116139fc576105cd6138d0916147b4565b6138ed8560a08301511660c0830151876040850151169133615c4b565b8051928560e08301511696358015158103611a28578790156139ca5750846004959660d6541660405196878092630460f0f360e01b82525afa80156126bb5787958991613977575b509561396d91600080516020615f8b833981519152959697945b6101a060408251948301519201519201519260405196879687614994565b0390a46001805580f35b8092959650878092503d83116139c3575b6139928183613fd2565b8101031261365a578695600080516020615f8b833981519152946139b861396d93614060565b919796955091613935565b503d613988565b9550600080516020615f8b833981519152939461396d917399ec76235f8a5a52611b0da5f0c6b09e1dcd2c9e9461394f565b634e487b7160e01b87526011600452602487fd5b6138b59250613a2991503d8088833e611a0f8183613fd2565b916138aa565b6040513d87823e3d90fd5b503461036557806003193601126103655760db546040516001600160a01b039091168152602090f35b503461036557602036600319011261036557600435613a80615d81565b670de0b6b3a76400008111613aba578060ca557f9cc578c88f7a198c4ccced6601ea38cdc1fc2dbacf6b476b689ba507edbe94e68280a280f35b60405163948b756d60e01b8152600490fd5b5034610365576080366003190112610365576001600160401b0360043581811161034a57613afe903690600401613cbf565b9160243590811161058857613b17903690600401613cbf565b60449291923593613b26613cef565b92613b2f615cdf565b865b868110613b3c578780f35b80613b54613b4e613b82938686615038565b35615ebf565b613b7d613b62828686615038565b3587613b77613b72858a8d615038565b614980565b916158dd565b615029565b613b31565b503461036557613bba6110116105e7926040613ba236613c41565b9290613bac614a84565b50815260d360205220614a9e565b604051918291602083526020830190613c9f565b5034610365578060031936011261036557602060d054604051908152f35b9050346103615760203660031901126103615760043563ffffffff60e01b811680910361034a57602092506306cc15a560e11b8114908115613c30575b5015158152f35b6301ffc9a760e01b14905038613c29565b604090600319011261057b576004359060243590565b60005b838110613c6a5750506000910152565b8181015183820152602001613c5a565b90602091613c9381518092818552858086019101613c57565b601f01601f1916010190565b9060406020613cbc93805184520151918160208201520190613c7a565b90565b9181601f8401121561057b578235916001600160401b03831161057b576020808501948460051b01011161057b57565b606435906001600160a01b038216820361057b57565b600435906001600160a01b038216820361057b57565b602435906001600160a01b038216820361057b57565b604435906001600160a01b038216820361057b57565b35906001600160a01b038216820361057b57565b9181601f8401121561057b578235916001600160401b03831161057b576020838186019501011161057b57565b90613cbc91805182526020810151602083015260018060a01b03806040830151166040840152806060830151166060840152608082015160808401528060a08301511660a084015260c082015160c084015260e08201511660e0830152610100808201519083015261012080820151908301526101408082015190830152610160809101519161018080928201520190613c7a565b606090600319011261057b576001600160a01b0390600435828116810361057b5791602435908116810361057b579060443590565b8054821015613e6a5760005260206000200190600090565b634e487b7160e01b600052603260045260246000fd5b908082519081815260208091019281808460051b8301019501936000915b848310613eae5750505050505090565b9091929394958480613ecc600193601f198682030187528a51613c9f565b9801930193019194939290613e9e565b3590811515820361057b57565b6001600160401b038111613efc57604052565b634e487b7160e01b600052604160045260246000fd5b608081019081106001600160401b03821117613efc57604052565b61020081019081106001600160401b03821117613efc57604052565b61010081019081106001600160401b03821117613efc57604052565b61018081019081106001600160401b03821117613efc57604052565b604081019081106001600160401b03821117613efc57604052565b606081019081106001600160401b03821117613efc57604052565b602081019081106001600160401b03821117613efc57604052565b90601f801991011681019081106001600160401b03821117613efc57604052565b5190811515820361057b57565b1561400757565b60405162461bcd60e51b815260206004820152602b60248201527f496e697469616c697a61626c653a20636f6e7472616374206973206e6f74206960448201526a6e697469616c697a696e6760a81b6064820152608490fd5b51906001600160a01b038216820361057b57565b6001600160401b038111613efc57601f01601f191660200190565b9092919261409c81614074565b916140aa6040519384613fd2565b82948284528282011161057b5760206140c4930190613c57565b565b9080601f8301121561057b578151613cbc9260200161408f565b91906101808382031261057b57604051906140fa82613f65565b83518252602080850151908301526040840151919384926001600160a01b038116810361057b57604084015261413260608201614060565b60608401526080810151608084015261414d60a08201614060565b60a084015260c081015160c084015261416860e08201614060565b60e084015261010080820151908401526101208082015190840152610140808201519084015261016091828201516001600160401b03811161057b576141ae92016140c6565b910152565b6001600160401b038111613efc5760051b60200190565b81601f8201121561057b578051916141e1836141b3565b9260406141f081519586613fd2565b8185526020938486019185600594851b8301019480861161057b57868301935b86851061422257505050505050505090565b84516001600160401b039081811161057b5785019084601f19838603011261057b5784519161425083613f81565b8a8101518352858101519082821161057b570184603f8201121561057b578a8101519061427c826141b3565b9261428988519485613fd2565b828452878d8501938c1b8301019187831161057b579081898f97959896949301975b8389106142c8575050505083809550820152815201940193614210565b909192939597809597505183811161057b5782018a603f19828c03011261057b578f918b516142f681613f81565b8c83015186811161057b5783018c605f8201121561057b576143208d8f830151606080940161408f565b82528301519286841161057b578c8e869561433c9301016140c6565b83820152815201940196949291908e96946142ab565b9190604090818482031261057b578351936001600160401b039485811161057b578261437f9183016140e0565b94602091828101519082821161057b57019182840390610240821261057b578551956101e09283880188811086821117613efc578252855185811161057b57876143ca9188016141ca565b8852828601519085821161057b576143e68860809389016141ca565b89850152603f19011261057b5780516143fe81613f12565b81860151815261441060608701614060565b8382015260808601518282015260a086015160608201528188015261443760c08601614060565b606088015260e08501516080880152610100958686015160a08901526101208087015160c08a01526144c961014095614471878a01613ff3565b60e08c0152610160996144858b8b01613ff3565b908c015261018092614498848b01613ff3565b908c01526101a0966144ab888b01613ff3565b908c01526101c0996144be8b8b01613ff3565b908c01528801614060565b9089015261020086015185811161057b5786019181601f8401121561057b578251906144f4826141b3565b9661450182519889613fd2565b828852858089019360051b8601019484861161057b57868101935b868510614544575050505050505050916102209161453d9386015201613ff3565b9082015290565b845183811161057b5782019084601f19838903011261057b5784519061456982613f81565b898301518252858301519185831161057b5761458c898c809695819601016140c6565b8382015281520194019361451c565b9035601e198236030181121561057b5701602081359101916001600160401b03821161057b57813603831361057b57565b908060209392818452848401376000828201840152601f01601f1916010190565b9035601e198236030181121561057b5701602081359101916001600160401b03821161057b578160051b3603831361057b57565b9035603e198236030181121561057b570190565b9082818152602080910193818360051b82010194846000925b85841061465f575050505050505090565b9091929394959685806146a2600193601f198682030188526146916146848d89614621565b803583528481019061459b565b9091604090818682015201916145cc565b99019401940192959493919061464e565b91908082526020809201918260059383851b810195809560009182945b8786106146e35750505050505050505090565b9091929394959697999881810386526146fc8b84614621565b9060409061471482820193803583528b8101906145ed565b809194848d850152526060918281019282891b8201019480948a915b848310614759575050505050505087806001929c9b9c9b019601960194979695939291906146d0565b909192939495968e80614798600193605f19898203018b5261477b8c87614621565b90610da5610d9b61478c848061459b565b8b85528b8501916145cc565b99019701959493019190614730565b91908203918211612ef757565b60cf54811015613e6a57600c9060cf600052027facb8d954e2cfef495862221e91bd7523613cf8808827cb33edfe4904cc51bf290190600090565b90600182811c9216801561481f575b602083101461480957565b634e487b7160e01b600052602260045260246000fd5b91607f16916147fe565b906000929180549161483a836147ef565b91828252600193848116908160001461489c575060011461485c575b50505050565b90919394506000526020928360002092846000945b838610614888575050505001019038808080614856565b805485870183015294019385908201614871565b9294505050602093945060ff191683830152151560051b01019038808080614856565b90600b6101606040516148d181613f65565b6149668195805483526001810154602084015260018060a01b03806002830154166040850152806003830154166060850152600482015460808501528060058301541660a0850152600682015460c085015260078201541660e084015260088101546101008401526009810154610120840152600a81015461014084015261495f6040518096819301614829565b0384613fd2565b0152565b9035906101be198136030182121561057b570190565b356001600160a01b038116810361057b5790565b926149af613cbc97959296939660c0865260c0860190613d88565b6001600160a01b03909616602085015260408401526060830152608082015280830360a09190910152613e80565b91908201809211612ef757565b60ff606554166149f657565b60405162461bcd60e51b815260206004820152601060248201526f14185d5cd8589b194e881c185d5cd95960821b6044820152606490fd5b600260015414614a3f576002600155565b60405162461bcd60e51b815260206004820152601f60248201527f5265656e7472616e637947756172643a207265656e7472616e742063616c6c006044820152606490fd5b60405190614a9182613f81565b6060602083600081520152565b8054821015613e6a5760005260206000209060011b0190600090565b9060016020604051614acb81613f81565b61496681958054835261495f6040518096819301614829565b929192614af082614074565b91614afe6040519384613fd2565b82948184528183011161057b578281602093846000960137010152565b9160208181850182865252604093848101858460051b83010195856000935b868510614b4c57505050505050505090565b90919293949596978680614b8f60019387614b80614b738f603f198a8603018d528a614621565b803584528581019061459b565b919092818682015201916145cc565b9a019501950193969594929190614b3a565b9291614bac826141b3565b90604094614bbc86519384613fd2565b82958484526020610120948186520192600595861b83019581871161057b5783945b878610614bef575050505050505050565b6001600160401b03863581811161057b57860190858286031261057b57855191614c1883613f81565b8035835289518101359082821161057b570185601f8201121561057b578035614c40816141b3565b92614c4d89519485613fd2565b8184528b51928380860193891b8201019389851161057b578101925b848410614c89575050505050885182015281528651019486510194614bde565b833583811161057b5782018b601f19828d03011261057b578b51908f614cae83613f81565b5190818101359186831161057b578d92820190603f93848301121561057b578f918f9192614ce0938201359101614ae4565b83528d81013586811161057b578d9101918201121561057b578f908c614d0d918f84518201359101614ae4565b905182015281528d519384019301614c69565b908151808252602080920191826005938284861b830196019460009081935b868510614d5157505050505050505090565b9091929394959697818103855286895191604090828282019480518352015193828483015284518091526060918483820193838a1b83010196019389905b838210614db257505050505050806001929a019501950193969594929190614d3f565b91939580614ded600193959799605f19888203018a528a519083614ddd835189845289840190613c7a565b9201519084818403910152613c7a565b9801960192018c9594929391614d8f565b9081608091031261057b57606060405191614e1883613f12565b8051835260208101516020840152604081015160408401520151600581101561057b57606082015290565b818110614e4e575050565b60008155600101614e43565b9190601f8111614e6957505050565b6140c4926000526020600020906020601f840160051c83019310614e95575b601f0160051c0190614e43565b9091508190614e88565b9061501357815181556020610160600b8285015193600194858201556002810160018060a01b039081604089015116906001600160601b0360a01b9182825416179055600383018260608a0151168282541617905560808801516004840155600583018260a08a0151168282541617905560c08801516006840155600783019160e0890151169082541617905561010086015160088201556101208601516009820155610140860151600a82015501930151908151916001600160401b038311613efc57614f7783614f7187546147ef565b87614e5a565b81601f8411600114614fb05750928293918392600094614fa5575b50501b916000199060031b1c1916179055565b015192503880614f92565b919083601f1981168760005284600020946000905b88838310614ff95750505010614fe0575b505050811b019055565b015160001960f88460031b161c19169055388080614fd6565b858701518855909601959485019487935090810190614fc5565b634e487b7160e01b600052600060045260246000fd5b6000198114612ef75760010190565b9190811015613e6a5760051b0190565b6040519061505582613f65565b606061016083600080825280602083015280604083015280848301528060808301528060a08301528060c08301528060e083015280610100830152806101208301526101408201520152565b60018060a01b0380911660005260cd602052604060002091166000526020526040600020548015156000146150d35790565b5060ca5490565b6150e381615ebf565b600090815260209060dc82526150fc60408220546147b4565b5090615107826148bf565b60d7546005840154600390940154604051631dae49b960e21b81526001600160a01b0395861660048201819052918616602482018190529095909216918686604481865afa958615613a2f579087949392918697615218575b509061517461519894939260cb54926150a1565b906040519788958695633f7c5f7960e21b875260a0600488015260a4870190613d88565b936024860152604485015260648401526084830152038173__$3ea787592ca519a32436565b5d70444cd7$__5af492831561520b5781936151da575b50505090565b9091809350813d8311615204575b6151f28183613fd2565b810103126103655750513880806151d4565b503d6151e8565b50604051903d90823e3d90fd5b8581939495969298503d831161524a575b6152338183613fd2565b810103126110365751948693929190615174615160565b503d615229565b90815491600160401b831015613efc57826152749160016140c495018155613e52565b90919082549060031b91821b91600019901b1916179055565b60006040805161529c81613f9c565b82815260208101839052015260d65460d75460d5546101008501516001600160a01b0393841694939283169290911690156157705760408501516020015160a08401516152f5916001600160a01b0391821691166150a1565b6101c08601511561576857606084015160a0850151615320916001600160a01b0391821691166150a1565b905b60da549160018060a01b0360db54169360018060a01b0360608801511660005260c9602052604060002060018060a01b0360a08901511660005260205260406000205495604051986153738a613f49565b8952602089015260408801526060870152608086015260a085015260c084015260e08301526153bc60405191637e5eae6360e11b83526101406004840152610144830190613d88565b9160031982840301602483015260e06153f36153e18651610240808852870190614d20565b60208701518682036020880152614d20565b91606060408701518051604088015260018060a01b036020820151168288015260408101516080880152015160a086015260018060a01b0360608701511660c086015260808601518286015260a08601516101008601526154c560c08701519361012094858801528388015115156101408801526101008801511515946101609586890152880151151561018090818901526101408901511515956101a096878a015289015115156101c089015260018060a01b0390890151166101e088015284880151878203610200890152613e80565b6101c087015115156102209096019590955280516001600160a01b039081166044860152602082015181166064860152604082015181166084860152606082015160a4860152608082015160c486015260a082015160e486015260c082015116610104850152015161012483015273__$3ea787592ca519a32436565b5d70444cd7$__92600090839081900381865af4938415610ef2576000926000956156ef575b5061557660d054808552615029565b60d05560cf54600160401b811015613efc5783612d9b82600161559c940160cf556147b4565b60cf5460001990818101908111612ef757845160005260dc60205260406000205560e0840160018060a01b0381511660005260d16020526155e36040600020865190615251565b516001600160a01b0316600090815260d16020526040902054818101908111612ef757845160005260dd6020526040600020556040840160018060a01b0381511660005260d260205261563c6040600020865190615251565b516001600160a01b0316600090815260d26020526040902054908101908111612ef7578351600090815260de6020526040902055015160d6546001600160a01b031692803b1561057b576156b56000936156ce9560405196879586948594634b4ea89960e11b8652608060048701526084860190613d88565b60d3602486015284810360031901604486015290613e80565b90606483015203915af48015610ef2576156e6575090565b613cbc90613ee9565b925093503d806000843e6157038184613fd2565b8201828103906080821261057b5783516001600160401b03811161057b5760609161572f9186016140e0565b91601f19011261057b5760606040519361574885613f9c565b602081015185526040810151602086015201516040840152919338615567565b600090615322565b60006152f5565b61578181546147ef565b908161578b575050565b81601f6000931160011461579d575055565b9080839182526157bc601f60208420940160051c840160018501614e43565b5555565b80549081156157ea57600019918201916157da8383613e52565b909182549160031b1b1916905555565b634e487b7160e01b600052603160045260246000fd5b908082146158d95761581281546147ef565b906001600160401b038211613efc5781906158378261583186546147ef565b86614e5a565b600090601f831160011461586e57600092615863575b50508160011b916000199060031b1c1916179055565b01549050388061584d565b81526020808220858352818320935090601f1985169083905b8282106158c05750509084600195949392106158a757505050811b019055565b015460001960f88460031b161c19169055388080614fd6565b8495819295850154815560018091019601940190615887565b5050565b9160009280845260209160d3835260409384862080549087815581615bf4575b50506001600160a01b0390811680875260d285528587208054600019949291858201918211615be05761595f88615274898c8e61593f8b9a999860de98613e52565b90549060031b1c96879589835260d2815283832094835252205490613e52565b868a5260de8852888a2054908a52888a2055885260d286526159828789206157c0565b84885260de865287878120551680875260d18552858720805490848201918211615bcc57906159b091613e52565b90549060031b1c81885260d186526159d981615274898b20888c5260dd8a528a8c205490613e52565b84885260dd86528688205490885286882055865260d184526159fc8587206157c0565b82865260dd8452858581205560cf548281019081116139fc57615a1e906147b4565b5083875260dc8552615a32868820546147b4565b919091615bb857808203615b0b575b50505081855260dc83528385205460cf548281019081116139fc57615a65906147b4565b5054865260dc84528486205560cf548015615af75701615a84816147b4565b615ae35790615ad8600b838860dc9796955588600182015588600282015588600382015588600482015588600582015588600682015588600782015588600882015588600982015588600a82015501615777565b60cf55845252812055565b634e487b7160e01b86526004869052602486fd5b634e487b7160e01b86526031600452602486fd5b600b81615bb0948293548555600182015460018601556002850181600284015416906001600160601b0360a01b918282541617905560038601826003850154168282541617905560048301546004870155600586018260058501541682825416179055600683015460068701556007860191600784015416908254161790556008810154600885015560098101546009850155600a810154600a850155019101615800565b388080615a41565b634e487b7160e01b88526004889052602488fd5b634e487b7160e01b89526011600452602489fd5b634e487b7160e01b8a52601160045260248afd5b6001600160ff1b0382168203615c3757875284872090600190811b8201915b828110615c2057506158fd565b808960029255615c31838201615777565b01615c13565b634e487b7160e01b88526011600452602488fd5b90929091906001600160a01b039081161580615cd2575b615c6c5750505050565b60d95416803b1561057b5760405163bda9200360e01b81526001600160a01b03938416600482015293909216602484015260448301526000908290606490829084905af18015610ef257615cc3575b808080614856565b615ccc90613ee9565b38615cbb565b508060d954161515615c62565b60d454604051632474521560e21b81527f28eb28c26cbbd48a6bfad016505ccf4a189452995f59d16217af8920961ed25c600482015233602482015290602090829060449082906001600160a01b03165afa908115610ef257600091615d48575b501561102057565b906020823d8211615d79575b81615d6160209383613fd2565b810103126103655750615d7390613ff3565b38615d40565b3d9150615d54565b60d454604051632474521560e21b81527fc0fc8e4dc5cff6febdf550b80d566f654e2baf1a02ea1060208c2f8ab2dd1b63600482015233602482015290602090829060449082906001600160a01b03165afa908115610ef257600091615d4857501561102057565b60d454604051632474521560e21b81526000600482015233602482015290602090829060449082906001600160a01b03165afa908115610ef257600091615d4857501561102057565b60df54604051630723eb0360e51b815233600482015290602090829060249082906001600160a01b03165afa908115610ef257600091615e86575b50615e7457565b6040516333df015b60e01b8152600490fd5b906020823d8211615eb7575b81615e9f60209383613fd2565b810103126103655750615eb190613ff3565b38615e6d565b3d9150615e92565b60cf5415159081615ee5575b5015615ed357565b604051631eab2a3b60e31b8152600490fd5b80915060005260dc602052615efe6040600020546147b4565b50541438615ecb565b8115615f11570490565b634e487b7160e01b600052601260045260246000fd5b906000918115918215615f63575b505015612ee5576706f05b59d3b20000810190818111612ef7578110612ed357670de0b6b3a7640000900490565b818192935002928284048214831517156119e25750615f829083615f07565b143880615f3556fe3f505465ce78d219c28bcf9bed881a651c4800d1161454b0d5c93225196e7b8ea26469706673582212204ab0eb33c45d99a812610d6cdac25745e58aa349ca570e155950e4c71c675f6564736f6c63430008120033",
  "libraries": {
    "PrimexPricingLibrary": "0xab03C0c0Ba39a886eD51757272E91cd739542118",
    "PositionLibrary": "0xE56d397236252188dd45aba573D57c1Fa4a8E75C",
    "TokenTransfersLibrary": "0xF90aCbeF0eDDdd6854c96137f416a5b7dD67D904",
    "Errors": "0xB959663e3FAb840C9bfebC6d2d32822D25317292"
  },
  "devdoc": {
    "events": {
      "Initialized(uint8)": {
        "details": "Triggered when the contract has been initialized or reinitialized."
      },
      "Paused(address)": {
        "details": "Emitted when the pause is triggered by `account`."
      },
      "Unpaused(address)": {
        "details": "Emitted when the pause is lifted by `account`."
      }
    },
    "kind": "dev",
    "methods": {
      "canBeClosed(uint256,uint256,bytes)": {
        "params": {
          "_additionalParams": "Additional parameters required for the condition check.",
          "_conditionIndex": "The index of the condition within the position's close conditions.",
          "_positionId": "The ID of the position."
        },
        "returns": {
          "_0": "A boolean indicating whether the position can be closed."
        }
      },
      "closePosition(uint256,address,(uint256,(string,bytes)[])[],uint256)": {
        "details": "Protocol will fall down (revert) if two conditions occur both: 1. (token1Price + position.depositedAmount).wdiv(positionDebt) will become lower than 1, so position will make loss for Protocol. 2. Not enough liquidity in bucket to pay that loss.",
        "params": {
          "_amountOutMin": "minimum allowed amount out for position",
          "_dealReceiver": "The receiver of the rest of trader's deposit.",
          "_id": "Position id for `msg.sender`.",
          "_routes": "swap routes on dexes"
        }
      },
      "closePositionByCondition(uint256,address,(uint256,(string,bytes)[])[],uint256,bytes,uint8)": {
        "params": {
          "_ccmAdditionalParams": "Additional params needed for canBeClosed() of the ConditionalClosingManager.",
          "_closeReason": "The reason for closing the position.",
          "_conditionIndex": "The index of the condition to be used for closing the position.",
          "_id": "Position id.",
          "_keeper": "The address of the keeper or the recipient of the reward.",
          "_routes": "An array of routes for executing trades, swap routes on dexes."
        }
      },
      "decreaseDeposit(uint256,uint256)": {
        "params": {
          "_amount": "The amount to decrease the deposit by.",
          "_positionId": "The ID of the position."
        }
      },
      "deletePositions(uint256[],address[],uint256,address)": {
        "params": {
          "_bucket": "The address of the bucket from which the position is to be deleted.",
          "_ids": "The IDs of the positions to be deleted.",
          "_length": "The length of the traders array.",
          "_traders": "The addresses of the traders who owns the position."
        }
      },
      "doTransferOut(address,address,uint256)": {
        "details": "Only callable by the BATCH_MANAGER_ROLE role.",
        "params": {
          "_amount": "The amount of tokens to be transferred.",
          "_to": "The address to which the tokens will be transferred.",
          "_token": "The address of the token to be transferred."
        }
      },
      "getAllPositionsLength()": {
        "returns": {
          "_0": "The length of the positions array."
        }
      },
      "getBucketPositionsLength(address)": {
        "params": {
          "_bucket": "The address of the bucket."
        },
        "returns": {
          "_0": "The number of positions the bucket has."
        }
      },
      "getCloseCondition(uint256,uint256)": {
        "params": {
          "_index": "The index of the close condition.",
          "_positionId": "The identifier of the position."
        },
        "returns": {
          "_0": "The close condition at the specified position and index."
        }
      },
      "getCloseConditions(uint256)": {
        "params": {
          "_positionId": "The ID of the position."
        },
        "returns": {
          "_0": "An array of close conditions associated with the position."
        }
      },
      "getOracleTolerableLimit(address,address)": {
        "params": {
          "assetA": "The address of the first asset in the pair.",
          "assetB": "The address of the second asset in the pair."
        },
        "returns": {
          "_0": "The oracle tolerable limit in WAD format (1 WAD = 100%) for the asset pair."
        }
      },
      "getPosition(uint256)": {
        "params": {
          "_id": "The ID of the position to retrieve."
        },
        "returns": {
          "_0": "position The position information associated with the given ID."
        }
      },
      "getPositionByIndex(uint256)": {
        "params": {
          "_index": "The index of the position to retrieve."
        },
        "returns": {
          "_0": "The Position struct at the specified index."
        }
      },
      "getPositionDebt(uint256)": {
        "params": {
          "_id": "The ID of the position."
        },
        "returns": {
          "_0": "The debt of the position, measured in the same decimal format as debtTokens."
        }
      },
      "getTraderPositionsLength(address)": {
        "params": {
          "_trader": "The address of the trader."
        },
        "returns": {
          "_0": "The number of positions the trader has."
        }
      },
      "healthPosition(uint256)": {
        "params": {
          "_id": "The ID of the position."
        },
        "returns": {
          "_0": "The health value of the position in WAD format."
        }
      },
      "increaseDeposit(uint256,uint256,address,bool,(uint256,(string,bytes)[])[],uint256)": {
        "params": {
          "_amount": "The amount to increase the deposit by.",
          "_amountOutMin": "The minimum amount of the output asset to receive from trading.",
          "_asset": "The address of the asset to deposit.",
          "_positionId": "The ID of the position to increase the deposit for.",
          "_routes": "An array of routes to use for trading.",
          "_takeDepositFromWallet": "A flag indicating whether to make the deposit immediately."
        }
      },
      "initialize(address,address,address,address,address,address)": {
        "params": {
          "_keeperRewardDistributor": "The address of the KeeperRewardDistributor contract.",
          "_priceOracle": "The address of the PriceOracle contract.",
          "_primexDNS": "The address of the PrimexDNS contract.",
          "_registry": "The address of the Registry contract.",
          "_traderBalanceVault": "The address of the TraderBalanceVault contract.",
          "_whiteBlackList": "The address of the WhiteBlacklist contract."
        }
      },
      "isDelistedPosition(uint256)": {
        "params": {
          "_id": "The ID of the position."
        },
        "returns": {
          "_0": "A boolean indicating whether the position is delisted or not."
        }
      },
      "isPositionRisky(uint256)": {
        "params": {
          "_id": "the id of the position"
        },
        "returns": {
          "_0": "(1) True if position is risky"
        }
      },
      "openPosition(((string,uint256,(uint256,(string,bytes)[])[]),(uint256,(string,bytes)[])[],address,uint256,address,uint256,uint256,bool,bool,bool,(uint256,bytes)[]))": {
        "details": "Locks trader's collateral in TraderBalanceVault. Takes loan from bucket for deal. Makes swap bucket borrowedAsset amount on '_dex'. Updates rates and indexes in the '_bucket'. Mints debtToken for trader (msg.sender)",
        "params": {
          "_params": "The parameters required to open a position."
        }
      },
      "openPositionByOrder((address,(address,address,address,uint256,address,uint256,address,uint256,uint256,uint256,bool,uint256,uint256,bytes),(uint256,bytes)[],(uint256,(string,bytes)[])[],(uint256,(string,bytes)[])[]))": {
        "details": "Only callable by the LOM_ROLE role.",
        "params": {
          "_params": "The parameters for opening a position."
        },
        "returns": {
          "_0": "The total borrowed amount, position amount, position ID, and entry price of the new position."
        }
      },
      "partiallyClosePosition(uint256,uint256,address,(uint256,(string,bytes)[])[],uint256)": {
        "params": {
          "_amount": "The amount of the position asset to be closed from the position.",
          "_amountOutMin": "The minimum amount to be received after swapping, measured in the same decimal format as the position's asset.",
          "_depositReceiver": "The address where the remaining deposit will be sent.",
          "_positionId": "The ID of the position to be partially closed.",
          "_routes": "The routing information for swapping assets."
        }
      },
      "pause()": {
        "details": "Triggers stopped state. This function can only be called by an address with the EMERGENCY_ADMIN role. Requirements: - The contract must not be paused."
      },
      "paused()": {
        "details": "Returns true if the contract is paused, and false otherwise."
      },
      "setDefaultOracleTolerableLimit(uint256)": {
        "details": "Only callable by the MEDIUM_TIMELOCK_ADMIN role.",
        "params": {
          "_percent": "The new value for the default oracle tolerable limit. Measured in WAD (1 WAD = 100%)."
        }
      },
      "setKeeperRewardDistributor(address)": {
        "details": "Only callable by the BIG_TIMELOCK_ADMIN role.",
        "params": {
          "_keeperRewardDistributor": "The address of the KeeperRewardDistributor contract."
        }
      },
      "setMaintenanceBuffer(uint256)": {
        "details": "Only callable by the MEDIUM_TIMELOCK_ADMIN role. The new maintenance buffer value should be greater than zero and less than one. Maintenance buffer is used in calculating the maximum leverage https://docs.google.com/document/d/1kR8eaqV4289MAbLKgIfKsZ2NgjFpeC0vpVL7jVUTvho/edit#bookmark=id.87oc1j1s9z21",
        "params": {
          "newMaintenanceBuffer": "The new value of the maintenance buffer in WAD format."
        }
      },
      "setMaxPositionSize(address,address,uint256,uint256)": {
        "details": "Only callable by the MEDIUM_TIMELOCK_ADMIN role.",
        "params": {
          "_amountInToken0": "The maximum amount of token0 allowed in the position.",
          "_amountInToken1": "The maximum amount of token1 allowed in the position.",
          "_token0": "The address of the first token in the pair.",
          "_token1": "The address of the second token in the pair."
        }
      },
      "setMinPositionSize(uint256,address)": {
        "details": "Only callable by the MEDIUM_TIMELOCK_ADMIN role.",
        "params": {
          "_minPositionAsset": "The address of the asset associated with the minimum position size.",
          "_minPositionSize": "The new minimum position size."
        }
      },
      "setOracleTolerableLimit(address,address,uint256)": {
        "details": "Only callable by the BIG_TIMELOCK_ADMIN role.",
        "params": {
          "_assetA": "The address of the first asset.",
          "_assetB": "The address of the second asset.",
          "_percent": "The new value for the oracle tolerable limit between two assets. Measured in WAD (1 WAD = 100%)."
        }
      },
      "setOracleTolerableLimitMultiplier(uint256)": {
        "details": "Only callable by the MEDIUM_TIMELOCK_ADMIN role.",
        "params": {
          "newMultiplier": "New multiplier in WAD format."
        }
      },
      "setSecurityBuffer(uint256)": {
        "details": "Only callable by the MEDIUM_TIMELOCK_ADMIN role. 0 <= newSecurityBuffer < 1. Buffer security parameter is used in calculating the liquidation conditions https://docs.google.com/document/d/1kR8eaqV4289MAbLKgIfKsZ2NgjFpeC0vpVL7jVUTvho/edit#bookmark=id.i9v508hvrv42",
        "params": {
          "newSecurityBuffer": "The new value of the security buffer in WAD format."
        }
      },
      "setSpotTradingRewardDistributor(address)": {
        "details": "Only callable by the BIG_TIMELOCK_ADMIN role.",
        "params": {
          "_spotTradingRewardDistributor": "The address of the SpotTradingRewardDistributor contract."
        }
      },
      "supportsInterface(bytes4)": {
        "params": {
          "_interfaceId": "The interface id to check"
        }
      },
      "unpause()": {
        "details": "Returns to normal state. This function can only be called by an address with the SMALL_TIMELOCK_ADMIN or MEDIUM_TIMELOCK_ADMIN role depending on the contract. Requirements: - The contract must be paused."
      },
      "updatePositionConditions(uint256,(uint256,bytes)[])": {
        "details": "The caller of this function must be the trader who owns the position.Emits an `UpdatePositionConditions` event upon successful update.",
        "params": {
          "_closeConditions": "An array of close conditions for the position.",
          "_positionId": "The ID of the position to update."
        }
      }
    },
    "version": 1
  },
  "userdoc": {
    "kind": "user",
    "methods": {
      "canBeClosed(uint256,uint256,bytes)": {
        "notice": "Checks if a position can be closed based on a specific condition."
      },
      "closePosition(uint256,address,(uint256,(string,bytes)[])[],uint256)": {
        "notice": "Close trader's active position or liquidate risky position."
      },
      "closePositionByCondition(uint256,address,(uint256,(string,bytes)[])[],uint256,bytes,uint8)": {
        "notice": "Closes trader's active position by closing condition"
      },
      "decreaseDeposit(uint256,uint256)": {
        "notice": "Decreases the deposit amount for a given position."
      },
      "deletePositions(uint256[],address[],uint256,address)": {
        "notice": "Deletes a positions by their IDs from a specific bucket for a given traders."
      },
      "doTransferOut(address,address,uint256)": {
        "notice": "Transfers a specified amount of tokens from the contract to a specified address."
      },
      "getAllPositionsLength()": {
        "notice": "Returns the length of the positions array."
      },
      "getBucketPositionsLength(address)": {
        "notice": "Returns the length of the array containing the positions of a specific bucket."
      },
      "getCloseCondition(uint256,uint256)": {
        "notice": "Retrieves the close condition for a given position and index."
      },
      "getCloseConditions(uint256)": {
        "notice": "Retrieves the close conditions for a specific position."
      },
      "getOracleTolerableLimit(address,address)": {
        "notice": "Returns the oracle tolerable limit for the given asset pair."
      },
      "getPosition(uint256)": {
        "notice": "Retrieves the position information for a given ID."
      },
      "getPositionByIndex(uint256)": {
        "notice": "Retrieves the position at the specified index."
      },
      "getPositionDebt(uint256)": {
        "notice": "Returns the debt of a position with the given ID."
      },
      "getTraderPositionsLength(address)": {
        "notice": "Returns the length of the array containing the positions of a specific trader."
      },
      "healthPosition(uint256)": {
        "notice": "Retrieves the health value of a position."
      },
      "increaseDeposit(uint256,uint256,address,bool,(uint256,(string,bytes)[])[],uint256)": {
        "notice": "Increases the deposit amount for a given position."
      },
      "initialize(address,address,address,address,address,address)": {
        "notice": "Initializes the contract with the specified addresses and initializes inherited contracts."
      },
      "isDelistedPosition(uint256)": {
        "notice": "Checks if a position with the given ID is delisted."
      },
      "isPositionRisky(uint256)": {
        "notice": "hecks if the position is risky."
      },
      "openPosition(((string,uint256,(uint256,(string,bytes)[])[]),(uint256,(string,bytes)[])[],address,uint256,address,uint256,uint256,bool,bool,bool,(uint256,bytes)[]))": {
        "notice": "Opens margin position."
      },
      "openPositionByOrder((address,(address,address,address,uint256,address,uint256,address,uint256,uint256,uint256,bool,uint256,uint256,bytes),(uint256,bytes)[],(uint256,(string,bytes)[])[],(uint256,(string,bytes)[])[]))": {
        "notice": "Opens a position based on the provided order parameters."
      },
      "partiallyClosePosition(uint256,uint256,address,(uint256,(string,bytes)[])[],uint256)": {
        "notice": "Allows the trader to partially close a position."
      },
      "setDefaultOracleTolerableLimit(uint256)": {
        "notice": "Sets the default oracle tolerable limit for the protocol."
      },
      "setKeeperRewardDistributor(address)": {
        "notice": "Sets the KeeperRewardDistributor contract."
      },
      "setMaintenanceBuffer(uint256)": {
        "notice": "Sets the maintenance buffer value."
      },
      "setMaxPositionSize(address,address,uint256,uint256)": {
        "notice": "Sets the maximum position size for a pair of tokens."
      },
      "setMinPositionSize(uint256,address)": {
        "notice": "Sets the minimum position size and the corresponding asset for positions."
      },
      "setOracleTolerableLimit(address,address,uint256)": {
        "notice": "Sets the oracle tolerable limit between two assets."
      },
      "setOracleTolerableLimitMultiplier(uint256)": {
        "notice": "Function to set oracleTolerableLimitMultiplier."
      },
      "setSecurityBuffer(uint256)": {
        "notice": "Sets the security buffer value."
      },
      "setSpotTradingRewardDistributor(address)": {
        "notice": "Sets the address of the SpotTradingRewardDistributor contract."
      },
      "supportsInterface(bytes4)": {
        "notice": "Interface checker"
      },
      "updatePositionConditions(uint256,(uint256,bytes)[])": {
        "notice": "Updates the position with the given position ID by setting new close conditions."
      }
    },
    "version": 1
  },
  "storageLayout": {
    "storage": [
      {
        "astId": 2890,
        "contract": "contracts/PositionManager/PositionManager.sol:PositionManager",
        "label": "_initialized",
        "offset": 0,
        "slot": "0",
        "type": "t_uint8"
      },
      {
        "astId": 2893,
        "contract": "contracts/PositionManager/PositionManager.sol:PositionManager",
        "label": "_initializing",
        "offset": 1,
        "slot": "0",
        "type": "t_bool"
      },
      {
        "astId": 3193,
        "contract": "contracts/PositionManager/PositionManager.sol:PositionManager",
        "label": "_status",
        "offset": 0,
        "slot": "1",
        "type": "t_uint256"
      },
      {
        "astId": 3262,
        "contract": "contracts/PositionManager/PositionManager.sol:PositionManager",
        "label": "__gap",
        "offset": 0,
        "slot": "2",
        "type": "t_array(t_uint256)49_storage"
      },
      {
        "astId": 5867,
        "contract": "contracts/PositionManager/PositionManager.sol:PositionManager",
        "label": "__gap",
        "offset": 0,
        "slot": "51",
        "type": "t_array(t_uint256)50_storage"
      },
      {
        "astId": 3073,
        "contract": "contracts/PositionManager/PositionManager.sol:PositionManager",
        "label": "_paused",
        "offset": 0,
        "slot": "101",
        "type": "t_bool"
      },
      {
        "astId": 3178,
        "contract": "contracts/PositionManager/PositionManager.sol:PositionManager",
        "label": "__gap",
        "offset": 0,
        "slot": "102",
        "type": "t_array(t_uint256)49_storage"
      },
      {
        "astId": 6506,
        "contract": "contracts/PositionManager/PositionManager.sol:PositionManager",
        "label": "__gap",
        "offset": 0,
        "slot": "151",
        "type": "t_array(t_uint256)50_storage"
      },
      {
        "astId": 42296,
        "contract": "contracts/PositionManager/PositionManager.sol:PositionManager",
        "label": "maxPositionSize",
        "offset": 0,
        "slot": "201",
        "type": "t_mapping(t_address,t_mapping(t_address,t_uint256))"
      },
      {
        "astId": 42299,
        "contract": "contracts/PositionManager/PositionManager.sol:PositionManager",
        "label": "defaultOracleTolerableLimit",
        "offset": 0,
        "slot": "202",
        "type": "t_uint256"
      },
      {
        "astId": 42302,
        "contract": "contracts/PositionManager/PositionManager.sol:PositionManager",
        "label": "securityBuffer",
        "offset": 0,
        "slot": "203",
        "type": "t_uint256"
      },
      {
        "astId": 42305,
        "contract": "contracts/PositionManager/PositionManager.sol:PositionManager",
        "label": "maintenanceBuffer",
        "offset": 0,
        "slot": "204",
        "type": "t_uint256"
      },
      {
        "astId": 42311,
        "contract": "contracts/PositionManager/PositionManager.sol:PositionManager",
        "label": "oracleTolerableLimits",
        "offset": 0,
        "slot": "205",
        "type": "t_mapping(t_address,t_mapping(t_address,t_uint256))"
      },
      {
        "astId": 42313,
        "contract": "contracts/PositionManager/PositionManager.sol:PositionManager",
        "label": "oracleTolerableLimitMultiplier",
        "offset": 0,
        "slot": "206",
        "type": "t_uint256"
      },
      {
        "astId": 42317,
        "contract": "contracts/PositionManager/PositionManager.sol:PositionManager",
        "label": "positions",
        "offset": 0,
        "slot": "207",
        "type": "t_array(t_struct(Position)65021_storage)dyn_storage"
      },
      {
        "astId": 42320,
        "contract": "contracts/PositionManager/PositionManager.sol:PositionManager",
        "label": "positionsId",
        "offset": 0,
        "slot": "208",
        "type": "t_uint256"
      },
      {
        "astId": 42326,
        "contract": "contracts/PositionManager/PositionManager.sol:PositionManager",
        "label": "traderPositionIds",
        "offset": 0,
        "slot": "209",
        "type": "t_mapping(t_address,t_array(t_uint256)dyn_storage)"
      },
      {
        "astId": 42332,
        "contract": "contracts/PositionManager/PositionManager.sol:PositionManager",
        "label": "bucketPositionIds",
        "offset": 0,
        "slot": "210",
        "type": "t_mapping(t_address,t_array(t_uint256)dyn_storage)"
      },
      {
        "astId": 42338,
        "contract": "contracts/PositionManager/PositionManager.sol:PositionManager",
        "label": "closeConditions",
        "offset": 0,
        "slot": "211",
        "type": "t_mapping(t_uint256,t_array(t_struct(Condition)63501_storage)dyn_storage)"
      },
      {
        "astId": 42342,
        "contract": "contracts/PositionManager/PositionManager.sol:PositionManager",
        "label": "registry",
        "offset": 0,
        "slot": "212",
        "type": "t_contract(IAccessControl)7879"
      },
      {
        "astId": 42346,
        "contract": "contracts/PositionManager/PositionManager.sol:PositionManager",
        "label": "traderBalanceVault",
        "offset": 0,
        "slot": "213",
        "type": "t_contract(ITraderBalanceVault)52564"
      },
      {
        "astId": 42350,
        "contract": "contracts/PositionManager/PositionManager.sol:PositionManager",
        "label": "primexDNS",
        "offset": 0,
        "slot": "214",
        "type": "t_contract(IPrimexDNS)43597"
      },
      {
        "astId": 42354,
        "contract": "contracts/PositionManager/PositionManager.sol:PositionManager",
        "label": "priceOracle",
        "offset": 0,
        "slot": "215",
        "type": "t_contract(IPriceOracle)42543"
      },
      {
        "astId": 42358,
        "contract": "contracts/PositionManager/PositionManager.sol:PositionManager",
        "label": "keeperRewardDistributor",
        "offset": 0,
        "slot": "216",
        "type": "t_contract(IKeeperRewardDistributor)31197"
      },
      {
        "astId": 42362,
        "contract": "contracts/PositionManager/PositionManager.sol:PositionManager",
        "label": "spotTradingRewardDistributor",
        "offset": 0,
        "slot": "217",
        "type": "t_contract(ISpotTradingRewardDistributor)48148"
      },
      {
        "astId": 42365,
        "contract": "contracts/PositionManager/PositionManager.sol:PositionManager",
        "label": "minPositionSize",
        "offset": 0,
        "slot": "218",
        "type": "t_uint256"
      },
      {
        "astId": 42368,
        "contract": "contracts/PositionManager/PositionManager.sol:PositionManager",
        "label": "minPositionAsset",
        "offset": 0,
        "slot": "219",
        "type": "t_address"
      },
      {
        "astId": 42372,
        "contract": "contracts/PositionManager/PositionManager.sol:PositionManager",
        "label": "positionIndexes",
        "offset": 0,
        "slot": "220",
        "type": "t_mapping(t_uint256,t_uint256)"
      },
      {
        "astId": 42376,
        "contract": "contracts/PositionManager/PositionManager.sol:PositionManager",
        "label": "traderPositionIndexes",
        "offset": 0,
        "slot": "221",
        "type": "t_mapping(t_uint256,t_uint256)"
      },
      {
        "astId": 42380,
        "contract": "contracts/PositionManager/PositionManager.sol:PositionManager",
        "label": "bucketPositionIndexes",
        "offset": 0,
        "slot": "222",
        "type": "t_mapping(t_uint256,t_uint256)"
      },
      {
        "astId": 42383,
        "contract": "contracts/PositionManager/PositionManager.sol:PositionManager",
        "label": "whiteBlackList",
        "offset": 0,
        "slot": "223",
        "type": "t_contract(IWhiteBlackList)54241"
      }
    ],
    "types": {
      "t_address": {
        "encoding": "inplace",
        "label": "address",
        "numberOfBytes": "20"
      },
      "t_array(t_struct(Condition)63501_storage)dyn_storage": {
        "base": "t_struct(Condition)63501_storage",
        "encoding": "dynamic_array",
        "label": "struct LimitOrderLibrary.Condition[]",
        "numberOfBytes": "32"
      },
      "t_array(t_struct(Position)65021_storage)dyn_storage": {
        "base": "t_struct(Position)65021_storage",
        "encoding": "dynamic_array",
        "label": "struct PositionLibrary.Position[]",
        "numberOfBytes": "32"
      },
      "t_array(t_uint256)49_storage": {
        "base": "t_uint256",
        "encoding": "inplace",
        "label": "uint256[49]",
        "numberOfBytes": "1568"
      },
      "t_array(t_uint256)50_storage": {
        "base": "t_uint256",
        "encoding": "inplace",
        "label": "uint256[50]",
        "numberOfBytes": "1600"
      },
      "t_array(t_uint256)dyn_storage": {
        "base": "t_uint256",
        "encoding": "dynamic_array",
        "label": "uint256[]",
        "numberOfBytes": "32"
      },
      "t_bool": {
        "encoding": "inplace",
        "label": "bool",
        "numberOfBytes": "1"
      },
      "t_bytes_storage": {
        "encoding": "bytes",
        "label": "bytes",
        "numberOfBytes": "32"
      },
      "t_contract(IAccessControl)7879": {
        "encoding": "inplace",
        "label": "contract IAccessControl",
        "numberOfBytes": "20"
      },
      "t_contract(IBucket)26102": {
        "encoding": "inplace",
        "label": "contract IBucket",
        "numberOfBytes": "20"
      },
      "t_contract(IKeeperRewardDistributor)31197": {
        "encoding": "inplace",
        "label": "contract IKeeperRewardDistributor",
        "numberOfBytes": "20"
      },
      "t_contract(IPriceOracle)42543": {
        "encoding": "inplace",
        "label": "contract IPriceOracle",
        "numberOfBytes": "20"
      },
      "t_contract(IPrimexDNS)43597": {
        "encoding": "inplace",
        "label": "contract IPrimexDNS",
        "numberOfBytes": "20"
      },
      "t_contract(ISpotTradingRewardDistributor)48148": {
        "encoding": "inplace",
        "label": "contract ISpotTradingRewardDistributor",
        "numberOfBytes": "20"
      },
      "t_contract(ITraderBalanceVault)52564": {
        "encoding": "inplace",
        "label": "contract ITraderBalanceVault",
        "numberOfBytes": "20"
      },
      "t_contract(IWhiteBlackList)54241": {
        "encoding": "inplace",
        "label": "contract IWhiteBlackList",
        "numberOfBytes": "20"
      },
      "t_mapping(t_address,t_array(t_uint256)dyn_storage)": {
        "encoding": "mapping",
        "key": "t_address",
        "label": "mapping(address => uint256[])",
        "numberOfBytes": "32",
        "value": "t_array(t_uint256)dyn_storage"
      },
      "t_mapping(t_address,t_mapping(t_address,t_uint256))": {
        "encoding": "mapping",
        "key": "t_address",
        "label": "mapping(address => mapping(address => uint256))",
        "numberOfBytes": "32",
        "value": "t_mapping(t_address,t_uint256)"
      },
      "t_mapping(t_address,t_uint256)": {
        "encoding": "mapping",
        "key": "t_address",
        "label": "mapping(address => uint256)",
        "numberOfBytes": "32",
        "value": "t_uint256"
      },
      "t_mapping(t_uint256,t_array(t_struct(Condition)63501_storage)dyn_storage)": {
        "encoding": "mapping",
        "key": "t_uint256",
        "label": "mapping(uint256 => struct LimitOrderLibrary.Condition[])",
        "numberOfBytes": "32",
        "value": "t_array(t_struct(Condition)63501_storage)dyn_storage"
      },
      "t_mapping(t_uint256,t_uint256)": {
        "encoding": "mapping",
        "key": "t_uint256",
        "label": "mapping(uint256 => uint256)",
        "numberOfBytes": "32",
        "value": "t_uint256"
      },
      "t_struct(Condition)63501_storage": {
        "encoding": "inplace",
        "label": "struct LimitOrderLibrary.Condition",
        "members": [
          {
            "astId": 63498,
            "contract": "contracts/PositionManager/PositionManager.sol:PositionManager",
            "label": "managerType",
            "offset": 0,
            "slot": "0",
            "type": "t_uint256"
          },
          {
            "astId": 63500,
            "contract": "contracts/PositionManager/PositionManager.sol:PositionManager",
            "label": "params",
            "offset": 0,
            "slot": "1",
            "type": "t_bytes_storage"
          }
        ],
        "numberOfBytes": "64"
      },
      "t_struct(Position)65021_storage": {
        "encoding": "inplace",
        "label": "struct PositionLibrary.Position",
        "members": [
          {
            "astId": 64997,
            "contract": "contracts/PositionManager/PositionManager.sol:PositionManager",
            "label": "id",
            "offset": 0,
            "slot": "0",
            "type": "t_uint256"
          },
          {
            "astId": 64999,
            "contract": "contracts/PositionManager/PositionManager.sol:PositionManager",
            "label": "scaledDebtAmount",
            "offset": 0,
            "slot": "1",
            "type": "t_uint256"
          },
          {
            "astId": 65002,
            "contract": "contracts/PositionManager/PositionManager.sol:PositionManager",
            "label": "bucket",
            "offset": 0,
            "slot": "2",
            "type": "t_contract(IBucket)26102"
          },
          {
            "astId": 65004,
            "contract": "contracts/PositionManager/PositionManager.sol:PositionManager",
            "label": "soldAsset",
            "offset": 0,
            "slot": "3",
            "type": "t_address"
          },
          {
            "astId": 65006,
            "contract": "contracts/PositionManager/PositionManager.sol:PositionManager",
            "label": "depositAmountInSoldAsset",
            "offset": 0,
            "slot": "4",
            "type": "t_uint256"
          },
          {
            "astId": 65008,
            "contract": "contracts/PositionManager/PositionManager.sol:PositionManager",
            "label": "positionAsset",
            "offset": 0,
            "slot": "5",
            "type": "t_address"
          },
          {
            "astId": 65010,
            "contract": "contracts/PositionManager/PositionManager.sol:PositionManager",
            "label": "positionAmount",
            "offset": 0,
            "slot": "6",
            "type": "t_uint256"
          },
          {
            "astId": 65012,
            "contract": "contracts/PositionManager/PositionManager.sol:PositionManager",
            "label": "trader",
            "offset": 0,
            "slot": "7",
            "type": "t_address"
          },
          {
            "astId": 65014,
            "contract": "contracts/PositionManager/PositionManager.sol:PositionManager",
            "label": "openBorrowIndex",
            "offset": 0,
            "slot": "8",
            "type": "t_uint256"
          },
          {
            "astId": 65016,
            "contract": "contracts/PositionManager/PositionManager.sol:PositionManager",
            "label": "createdAt",
            "offset": 0,
            "slot": "9",
            "type": "t_uint256"
          },
          {
            "astId": 65018,
            "contract": "contracts/PositionManager/PositionManager.sol:PositionManager",
            "label": "updatedConditionsAt",
            "offset": 0,
            "slot": "10",
            "type": "t_uint256"
          },
          {
            "astId": 65020,
            "contract": "contracts/PositionManager/PositionManager.sol:PositionManager",
            "label": "extraParams",
            "offset": 0,
            "slot": "11",
            "type": "t_bytes_storage"
          }
        ],
        "numberOfBytes": "384"
      },
      "t_uint256": {
        "encoding": "inplace",
        "label": "uint256",
        "numberOfBytes": "32"
      },
      "t_uint8": {
        "encoding": "inplace",
        "label": "uint8",
        "numberOfBytes": "1"
      }
    }
  }
}