{
  "address": "0xd43052E7A4FE8bC7EC2bD83ACef15118311DCfff",
  "abi": [
    {
      "inputs": [],
      "stateMutability": "nonpayable",
      "type": "constructor"
    },
    {
      "inputs": [],
      "name": "DS_MATH_ADD_OVERFLOW",
      "type": "error"
    },
    {
      "inputs": [],
      "name": "DS_MATH_MUL_OVERFLOW",
      "type": "error"
    },
    {
      "anonymous": false,
      "inputs": [
        {
          "indexed": true,
          "internalType": "address",
          "name": "uniswapV2Token",
          "type": "address"
        }
      ],
      "name": "AddUniswapV2LPToken",
      "type": "event"
    },
    {
      "anonymous": false,
      "inputs": [
        {
          "indexed": true,
          "internalType": "address",
          "name": "token",
          "type": "address"
        },
        {
          "indexed": true,
          "internalType": "address",
          "name": "priceFeed",
          "type": "address"
        }
      ],
      "name": "ChainlinkPriceFeedUpdated",
      "type": "event"
    },
    {
      "anonymous": false,
      "inputs": [
        {
          "indexed": true,
          "internalType": "enum IPriceOracleStorageV4.CurveOracleKind",
          "name": "oracleType",
          "type": "uint8"
        },
        {
          "indexed": true,
          "internalType": "address",
          "name": "oracle",
          "type": "address"
        }
      ],
      "name": "CurveOracleUpdated",
      "type": "event"
    },
    {
      "anonymous": false,
      "inputs": [
        {
          "indexed": true,
          "internalType": "address",
          "name": "token",
          "type": "address"
        },
        {
          "indexed": false,
          "internalType": "address",
          "name": "underlyingAsset",
          "type": "address"
        }
      ],
      "name": "EIP4626TokenToUnderlyingAssetUpdated",
      "type": "event"
    },
    {
      "anonymous": false,
      "inputs": [
        {
          "indexed": false,
          "internalType": "address",
          "name": "priceFeed",
          "type": "address"
        }
      ],
      "name": "GasPriceFeedChanged",
      "type": "event"
    },
    {
      "anonymous": false,
      "inputs": [
        {
          "indexed": false,
          "internalType": "uint8",
          "name": "version",
          "type": "uint8"
        }
      ],
      "name": "Initialized",
      "type": "event"
    },
    {
      "anonymous": false,
      "inputs": [
        {
          "indexed": true,
          "internalType": "address",
          "name": "tokenA",
          "type": "address"
        },
        {
          "indexed": true,
          "internalType": "address",
          "name": "tokenB",
          "type": "address"
        },
        {
          "indexed": false,
          "internalType": "string",
          "name": "symbol",
          "type": "string"
        }
      ],
      "name": "OrallySymbolUpdated",
      "type": "event"
    },
    {
      "anonymous": false,
      "inputs": [
        {
          "indexed": false,
          "internalType": "uint256",
          "name": "timeTolerance",
          "type": "uint256"
        }
      ],
      "name": "OrallyTimeToleranceUpdated",
      "type": "event"
    },
    {
      "anonymous": false,
      "inputs": [
        {
          "indexed": true,
          "internalType": "address",
          "name": "assetA",
          "type": "address"
        },
        {
          "indexed": true,
          "internalType": "address",
          "name": "assetB",
          "type": "address"
        },
        {
          "indexed": false,
          "internalType": "uint256",
          "name": "pairPriceDrop",
          "type": "uint256"
        }
      ],
      "name": "PairPriceDropChanged",
      "type": "event"
    },
    {
      "anonymous": false,
      "inputs": [
        {
          "indexed": true,
          "internalType": "address",
          "name": "assetA",
          "type": "address"
        },
        {
          "indexed": true,
          "internalType": "address",
          "name": "assetB",
          "type": "address"
        },
        {
          "indexed": true,
          "internalType": "address",
          "name": "priceDropFeed",
          "type": "address"
        }
      ],
      "name": "PriceDropFeedUpdated",
      "type": "event"
    },
    {
      "anonymous": false,
      "inputs": [
        {
          "indexed": true,
          "internalType": "address",
          "name": "assetA",
          "type": "address"
        },
        {
          "indexed": true,
          "internalType": "address",
          "name": "assetB",
          "type": "address"
        },
        {
          "indexed": true,
          "internalType": "address",
          "name": "priceFeed",
          "type": "address"
        }
      ],
      "name": "PriceFeedUpdated",
      "type": "event"
    },
    {
      "anonymous": false,
      "inputs": [
        {
          "indexed": true,
          "internalType": "address",
          "name": "token",
          "type": "address"
        },
        {
          "indexed": true,
          "internalType": "bytes32",
          "name": "priceFeedId",
          "type": "bytes32"
        }
      ],
      "name": "PythPairIdUpdated",
      "type": "event"
    },
    {
      "anonymous": false,
      "inputs": [
        {
          "indexed": true,
          "internalType": "address",
          "name": "uniswapV2Token",
          "type": "address"
        }
      ],
      "name": "RemoveUniswapV2LPToken",
      "type": "event"
    },
    {
      "anonymous": false,
      "inputs": [
        {
          "indexed": true,
          "internalType": "address",
          "name": "tokenA",
          "type": "address"
        },
        {
          "indexed": true,
          "internalType": "address",
          "name": "tokenB",
          "type": "address"
        },
        {
          "indexed": false,
          "internalType": "string",
          "name": "pairId",
          "type": "string"
        }
      ],
      "name": "StorkPairIdUpdated",
      "type": "event"
    },
    {
      "anonymous": false,
      "inputs": [
        {
          "indexed": true,
          "internalType": "address",
          "name": "tokenA",
          "type": "address"
        },
        {
          "indexed": true,
          "internalType": "address",
          "name": "tokenB",
          "type": "address"
        },
        {
          "indexed": false,
          "internalType": "uint256",
          "name": "id",
          "type": "uint256"
        }
      ],
      "name": "SupraDataFeedUpdated",
      "type": "event"
    },
    {
      "anonymous": false,
      "inputs": [
        {
          "indexed": false,
          "internalType": "uint256",
          "name": "timeTolerance",
          "type": "uint256"
        }
      ],
      "name": "TimeToleranceUpdated",
      "type": "event"
    },
    {
      "anonymous": false,
      "inputs": [
        {
          "indexed": true,
          "internalType": "uint256",
          "name": "oracleType",
          "type": "uint256"
        },
        {
          "indexed": true,
          "internalType": "address",
          "name": "oracle",
          "type": "address"
        }
      ],
      "name": "Univ3OracleUpdated",
      "type": "event"
    },
    {
      "anonymous": false,
      "inputs": [
        {
          "indexed": true,
          "internalType": "uint256",
          "name": "oracleType",
          "type": "uint256"
        },
        {
          "indexed": true,
          "internalType": "address",
          "name": "tokenA",
          "type": "address"
        },
        {
          "indexed": true,
          "internalType": "address",
          "name": "tokenB",
          "type": "address"
        },
        {
          "indexed": false,
          "internalType": "bool",
          "name": "isTrusted",
          "type": "bool"
        }
      ],
      "name": "Univ3TrustedPairUpdated",
      "type": "event"
    },
    {
      "inputs": [
        {
          "internalType": "address[]",
          "name": "_lpTokens",
          "type": "address[]"
        }
      ],
      "name": "addUniswapV2LPTokens",
      "outputs": [],
      "stateMutability": "nonpayable",
      "type": "function"
    },
    {
      "inputs": [
        {
          "internalType": "address",
          "name": "",
          "type": "address"
        }
      ],
      "name": "chainlinkPriceFeedsUsd",
      "outputs": [
        {
          "internalType": "address",
          "name": "",
          "type": "address"
        }
      ],
      "stateMutability": "view",
      "type": "function"
    },
    {
      "inputs": [
        {
          "internalType": "enum IPriceOracleStorageV4.CurveOracleKind",
          "name": "",
          "type": "uint8"
        }
      ],
      "name": "curveTypeOracles",
      "outputs": [
        {
          "internalType": "address",
          "name": "",
          "type": "address"
        }
      ],
      "stateMutability": "view",
      "type": "function"
    },
    {
      "inputs": [
        {
          "internalType": "address",
          "name": "",
          "type": "address"
        }
      ],
      "name": "eip4626TokenToUnderlyingAsset",
      "outputs": [
        {
          "internalType": "address",
          "name": "",
          "type": "address"
        }
      ],
      "stateMutability": "view",
      "type": "function"
    },
    {
      "inputs": [],
      "name": "eth",
      "outputs": [
        {
          "internalType": "address",
          "name": "",
          "type": "address"
        }
      ],
      "stateMutability": "view",
      "type": "function"
    },
    {
      "inputs": [],
      "name": "gasPriceFeed",
      "outputs": [
        {
          "internalType": "address",
          "name": "",
          "type": "address"
        }
      ],
      "stateMutability": "view",
      "type": "function"
    },
    {
      "inputs": [
        {
          "internalType": "address",
          "name": "assetA",
          "type": "address"
        },
        {
          "internalType": "address",
          "name": "assetB",
          "type": "address"
        },
        {
          "internalType": "bytes",
          "name": "oracleData",
          "type": "bytes"
        }
      ],
      "name": "getExchangeRate",
      "outputs": [
        {
          "internalType": "uint256",
          "name": "",
          "type": "uint256"
        }
      ],
      "stateMutability": "payable",
      "type": "function"
    },
    {
      "inputs": [],
      "name": "getGasPrice",
      "outputs": [
        {
          "internalType": "int256",
          "name": "price",
          "type": "int256"
        }
      ],
      "stateMutability": "view",
      "type": "function"
    },
    {
      "inputs": [
        {
          "internalType": "address",
          "name": "assetA",
          "type": "address"
        },
        {
          "internalType": "address",
          "name": "assetB",
          "type": "address"
        }
      ],
      "name": "getOraclePriceDrop",
      "outputs": [
        {
          "internalType": "uint256",
          "name": "",
          "type": "uint256"
        }
      ],
      "stateMutability": "view",
      "type": "function"
    },
    {
      "inputs": [
        {
          "internalType": "address",
          "name": "assetA",
          "type": "address"
        },
        {
          "internalType": "address",
          "name": "assetB",
          "type": "address"
        }
      ],
      "name": "getOraclePriceDropFeed",
      "outputs": [
        {
          "internalType": "address",
          "name": "",
          "type": "address"
        }
      ],
      "stateMutability": "view",
      "type": "function"
    },
    {
      "inputs": [
        {
          "internalType": "address",
          "name": "_assetA",
          "type": "address"
        },
        {
          "internalType": "address",
          "name": "_assetB",
          "type": "address"
        }
      ],
      "name": "getPairPriceDrop",
      "outputs": [
        {
          "internalType": "uint256",
          "name": "priceDrop",
          "type": "uint256"
        }
      ],
      "stateMutability": "view",
      "type": "function"
    },
    {
      "inputs": [
        {
          "internalType": "address",
          "name": "_assetA",
          "type": "address"
        },
        {
          "internalType": "address",
          "name": "_assetB",
          "type": "address"
        },
        {
          "internalType": "uint256",
          "name": "_pairPriceDrop",
          "type": "uint256"
        }
      ],
      "name": "increasePairPriceDrop",
      "outputs": [],
      "stateMutability": "nonpayable",
      "type": "function"
    },
    {
      "inputs": [
        {
          "internalType": "address",
          "name": "_registry",
          "type": "address"
        },
        {
          "internalType": "address",
          "name": "_eth",
          "type": "address"
        },
        {
          "internalType": "address",
          "name": "_usdt",
          "type": "address"
        },
        {
          "internalType": "address",
          "name": "_treasury",
          "type": "address"
        }
      ],
      "name": "initialize",
      "outputs": [],
      "stateMutability": "nonpayable",
      "type": "function"
    },
    {
      "inputs": [
        {
          "internalType": "address",
          "name": "",
          "type": "address"
        }
      ],
      "name": "isUniswapV2LP",
      "outputs": [
        {
          "internalType": "bool",
          "name": "",
          "type": "bool"
        }
      ],
      "stateMutability": "view",
      "type": "function"
    },
    {
      "inputs": [],
      "name": "orallyOracle",
      "outputs": [
        {
          "internalType": "contract IOrallyVerifierOracle",
          "name": "",
          "type": "address"
        }
      ],
      "stateMutability": "view",
      "type": "function"
    },
    {
      "inputs": [
        {
          "internalType": "address",
          "name": "",
          "type": "address"
        },
        {
          "internalType": "address",
          "name": "",
          "type": "address"
        }
      ],
      "name": "orallySymbol",
      "outputs": [
        {
          "internalType": "string",
          "name": "",
          "type": "string"
        }
      ],
      "stateMutability": "view",
      "type": "function"
    },
    {
      "inputs": [],
      "name": "orallyTimeTolerance",
      "outputs": [
        {
          "internalType": "uint256",
          "name": "",
          "type": "uint256"
        }
      ],
      "stateMutability": "view",
      "type": "function"
    },
    {
      "inputs": [
        {
          "internalType": "address",
          "name": "",
          "type": "address"
        },
        {
          "internalType": "address",
          "name": "",
          "type": "address"
        }
      ],
      "name": "pairPriceDrops",
      "outputs": [
        {
          "internalType": "uint256",
          "name": "",
          "type": "uint256"
        }
      ],
      "stateMutability": "view",
      "type": "function"
    },
    {
      "inputs": [],
      "name": "pyth",
      "outputs": [
        {
          "internalType": "contract IPyth",
          "name": "",
          "type": "address"
        }
      ],
      "stateMutability": "view",
      "type": "function"
    },
    {
      "inputs": [
        {
          "internalType": "address",
          "name": "",
          "type": "address"
        }
      ],
      "name": "pythPairIds",
      "outputs": [
        {
          "internalType": "bytes32",
          "name": "",
          "type": "bytes32"
        }
      ],
      "stateMutability": "view",
      "type": "function"
    },
    {
      "inputs": [],
      "name": "registry",
      "outputs": [
        {
          "internalType": "address",
          "name": "",
          "type": "address"
        }
      ],
      "stateMutability": "view",
      "type": "function"
    },
    {
      "inputs": [
        {
          "internalType": "address[]",
          "name": "_lpTokens",
          "type": "address[]"
        }
      ],
      "name": "removeUniswapV2LPTokens",
      "outputs": [],
      "stateMutability": "nonpayable",
      "type": "function"
    },
    {
      "inputs": [
        {
          "internalType": "address",
          "name": "priceFeed",
          "type": "address"
        }
      ],
      "name": "setGasPriceFeed",
      "outputs": [],
      "stateMutability": "nonpayable",
      "type": "function"
    },
    {
      "inputs": [
        {
          "internalType": "address",
          "name": "_orally",
          "type": "address"
        }
      ],
      "name": "setOrallyOracle",
      "outputs": [],
      "stateMutability": "nonpayable",
      "type": "function"
    },
    {
      "inputs": [
        {
          "internalType": "uint256",
          "name": "_orallyTimeTolerance",
          "type": "uint256"
        }
      ],
      "name": "setOrallyTimeTolerance",
      "outputs": [],
      "stateMutability": "nonpayable",
      "type": "function"
    },
    {
      "inputs": [
        {
          "internalType": "address",
          "name": "_assetA",
          "type": "address"
        },
        {
          "internalType": "address",
          "name": "_assetB",
          "type": "address"
        },
        {
          "internalType": "uint256",
          "name": "_pairPriceDrop",
          "type": "uint256"
        }
      ],
      "name": "setPairPriceDrop",
      "outputs": [],
      "stateMutability": "nonpayable",
      "type": "function"
    },
    {
      "inputs": [
        {
          "internalType": "address",
          "name": "_pyth",
          "type": "address"
        }
      ],
      "name": "setPyth",
      "outputs": [],
      "stateMutability": "nonpayable",
      "type": "function"
    },
    {
      "inputs": [
        {
          "internalType": "address",
          "name": "_storkPublicKey",
          "type": "address"
        }
      ],
      "name": "setStorkPublicKey",
      "outputs": [],
      "stateMutability": "nonpayable",
      "type": "function"
    },
    {
      "inputs": [
        {
          "internalType": "address",
          "name": "_storkVerify",
          "type": "address"
        }
      ],
      "name": "setStorkVerify",
      "outputs": [],
      "stateMutability": "nonpayable",
      "type": "function"
    },
    {
      "inputs": [
        {
          "internalType": "address",
          "name": "_supraPullOracle",
          "type": "address"
        }
      ],
      "name": "setSupraPullOracle",
      "outputs": [],
      "stateMutability": "nonpayable",
      "type": "function"
    },
    {
      "inputs": [
        {
          "internalType": "address",
          "name": "_supraStorageOracle",
          "type": "address"
        }
      ],
      "name": "setSupraStorageOracle",
      "outputs": [],
      "stateMutability": "nonpayable",
      "type": "function"
    },
    {
      "inputs": [
        {
          "internalType": "uint256",
          "name": "_timeTolerance",
          "type": "uint256"
        }
      ],
      "name": "setTimeTolerance",
      "outputs": [],
      "stateMutability": "nonpayable",
      "type": "function"
    },
    {
      "inputs": [
        {
          "internalType": "address",
          "name": "_treasury",
          "type": "address"
        }
      ],
      "name": "setTreasury",
      "outputs": [],
      "stateMutability": "nonpayable",
      "type": "function"
    },
    {
      "inputs": [
        {
          "internalType": "address",
          "name": "_usdt",
          "type": "address"
        }
      ],
      "name": "setUSDT",
      "outputs": [],
      "stateMutability": "nonpayable",
      "type": "function"
    },
    {
      "inputs": [
        {
          "internalType": "address",
          "name": "_uniswapV2LPOracle",
          "type": "address"
        }
      ],
      "name": "setUniswapV2LPOracle",
      "outputs": [],
      "stateMutability": "nonpayable",
      "type": "function"
    },
    {
      "inputs": [
        {
          "internalType": "address",
          "name": "",
          "type": "address"
        },
        {
          "internalType": "address",
          "name": "",
          "type": "address"
        }
      ],
      "name": "storkAssetPairId",
      "outputs": [
        {
          "internalType": "string",
          "name": "",
          "type": "string"
        }
      ],
      "stateMutability": "view",
      "type": "function"
    },
    {
      "inputs": [],
      "name": "storkPublicKey",
      "outputs": [
        {
          "internalType": "address",
          "name": "",
          "type": "address"
        }
      ],
      "stateMutability": "view",
      "type": "function"
    },
    {
      "inputs": [],
      "name": "storkVerify",
      "outputs": [
        {
          "internalType": "contract IStorkVerify",
          "name": "",
          "type": "address"
        }
      ],
      "stateMutability": "view",
      "type": "function"
    },
    {
      "inputs": [
        {
          "internalType": "bytes4",
          "name": "_interfaceId",
          "type": "bytes4"
        }
      ],
      "name": "supportsInterface",
      "outputs": [
        {
          "internalType": "bool",
          "name": "",
          "type": "bool"
        }
      ],
      "stateMutability": "view",
      "type": "function"
    },
    {
      "inputs": [
        {
          "internalType": "address",
          "name": "",
          "type": "address"
        },
        {
          "internalType": "address",
          "name": "",
          "type": "address"
        }
      ],
      "name": "supraDataFeedID",
      "outputs": [
        {
          "internalType": "uint256",
          "name": "id",
          "type": "uint256"
        },
        {
          "internalType": "bool",
          "name": "initialize",
          "type": "bool"
        }
      ],
      "stateMutability": "view",
      "type": "function"
    },
    {
      "inputs": [],
      "name": "supraPullOracle",
      "outputs": [
        {
          "internalType": "contract ISupraOraclePull",
          "name": "",
          "type": "address"
        }
      ],
      "stateMutability": "view",
      "type": "function"
    },
    {
      "inputs": [],
      "name": "supraStorageOracle",
      "outputs": [
        {
          "internalType": "contract ISupraSValueFeed",
          "name": "",
          "type": "address"
        }
      ],
      "stateMutability": "view",
      "type": "function"
    },
    {
      "inputs": [],
      "name": "timeTolerance",
      "outputs": [
        {
          "internalType": "uint256",
          "name": "",
          "type": "uint256"
        }
      ],
      "stateMutability": "view",
      "type": "function"
    },
    {
      "inputs": [],
      "name": "treasury",
      "outputs": [
        {
          "internalType": "address",
          "name": "",
          "type": "address"
        }
      ],
      "stateMutability": "view",
      "type": "function"
    },
    {
      "inputs": [],
      "name": "uniswapV2LPOracle",
      "outputs": [
        {
          "internalType": "contract IUniswapV2LPOracle",
          "name": "",
          "type": "address"
        }
      ],
      "stateMutability": "view",
      "type": "function"
    },
    {
      "inputs": [
        {
          "internalType": "uint256",
          "name": "",
          "type": "uint256"
        },
        {
          "internalType": "address",
          "name": "",
          "type": "address"
        },
        {
          "internalType": "address",
          "name": "",
          "type": "address"
        }
      ],
      "name": "univ3TrustedPairs",
      "outputs": [
        {
          "internalType": "bool",
          "name": "",
          "type": "bool"
        }
      ],
      "stateMutability": "view",
      "type": "function"
    },
    {
      "inputs": [
        {
          "internalType": "uint256",
          "name": "",
          "type": "uint256"
        }
      ],
      "name": "univ3TypeOracles",
      "outputs": [
        {
          "internalType": "address",
          "name": "",
          "type": "address"
        }
      ],
      "stateMutability": "view",
      "type": "function"
    },
    {
      "inputs": [
        {
          "internalType": "address[]",
          "name": "_tokens",
          "type": "address[]"
        },
        {
          "internalType": "address[]",
          "name": "_feeds",
          "type": "address[]"
        }
      ],
      "name": "updateChainlinkPriceFeedsUsd",
      "outputs": [],
      "stateMutability": "nonpayable",
      "type": "function"
    },
    {
      "inputs": [
        {
          "internalType": "enum IPriceOracleStorageV4.CurveOracleKind[]",
          "name": "_oracleTypes",
          "type": "uint8[]"
        },
        {
          "internalType": "address[]",
          "name": "_oracles",
          "type": "address[]"
        }
      ],
      "name": "updateCurveTypeOracle",
      "outputs": [],
      "stateMutability": "nonpayable",
      "type": "function"
    },
    {
      "inputs": [
        {
          "internalType": "address[]",
          "name": "_rebaseTokens",
          "type": "address[]"
        },
        {
          "internalType": "address[]",
          "name": "_underlyingAssets",
          "type": "address[]"
        }
      ],
      "name": "updateEIP4626TokenToUnderlyingAsset",
      "outputs": [],
      "stateMutability": "nonpayable",
      "type": "function"
    },
    {
      "inputs": [
        {
          "components": [
            {
              "internalType": "string",
              "name": "symbol",
              "type": "string"
            },
            {
              "internalType": "address[2]",
              "name": "tokens",
              "type": "address[2]"
            }
          ],
          "internalType": "struct IPriceOracleV3.UpdateOrallySymbolsParams[]",
          "name": "params",
          "type": "tuple[]"
        }
      ],
      "name": "updateOrallySymbols",
      "outputs": [],
      "stateMutability": "nonpayable",
      "type": "function"
    },
    {
      "inputs": [
        {
          "internalType": "address",
          "name": "assetA",
          "type": "address"
        },
        {
          "internalType": "address",
          "name": "assetB",
          "type": "address"
        },
        {
          "internalType": "address",
          "name": "priceDropFeed",
          "type": "address"
        }
      ],
      "name": "updatePriceDropFeed",
      "outputs": [],
      "stateMutability": "nonpayable",
      "type": "function"
    },
    {
      "inputs": [
        {
          "components": [
            {
              "internalType": "address",
              "name": "assetA",
              "type": "address"
            },
            {
              "internalType": "address",
              "name": "assetB",
              "type": "address"
            },
            {
              "internalType": "address",
              "name": "priceDropFeed",
              "type": "address"
            }
          ],
          "internalType": "struct IPriceOracleV2.UpdatePriceDropFeedsParams[]",
          "name": "_updateParams",
          "type": "tuple[]"
        }
      ],
      "name": "updatePriceDropFeeds",
      "outputs": [],
      "stateMutability": "nonpayable",
      "type": "function"
    },
    {
      "inputs": [
        {
          "internalType": "bytes[][]",
          "name": "_data",
          "type": "bytes[][]"
        },
        {
          "internalType": "uint256[]",
          "name": "_oracleTypes",
          "type": "uint256[]"
        }
      ],
      "name": "updatePullOracle",
      "outputs": [],
      "stateMutability": "payable",
      "type": "function"
    },
    {
      "inputs": [
        {
          "internalType": "address[]",
          "name": "_tokens",
          "type": "address[]"
        },
        {
          "internalType": "bytes32[]",
          "name": "_priceFeedIds",
          "type": "bytes32[]"
        }
      ],
      "name": "updatePythPairId",
      "outputs": [],
      "stateMutability": "nonpayable",
      "type": "function"
    },
    {
      "inputs": [
        {
          "components": [
            {
              "internalType": "string",
              "name": "pair",
              "type": "string"
            },
            {
              "internalType": "address[2]",
              "name": "tokens",
              "type": "address[2]"
            }
          ],
          "internalType": "struct IPriceOracleV3.UpdateStorkPairIdsParams[]",
          "name": "params",
          "type": "tuple[]"
        }
      ],
      "name": "updateStorkPairIds",
      "outputs": [],
      "stateMutability": "nonpayable",
      "type": "function"
    },
    {
      "inputs": [
        {
          "components": [
            {
              "internalType": "address",
              "name": "tokenA",
              "type": "address"
            },
            {
              "internalType": "address",
              "name": "tokenB",
              "type": "address"
            },
            {
              "components": [
                {
                  "internalType": "uint256",
                  "name": "id",
                  "type": "uint256"
                },
                {
                  "internalType": "bool",
                  "name": "initialize",
                  "type": "bool"
                }
              ],
              "internalType": "struct IPriceOracleStorageV3.SupraDataFeedId",
              "name": "feedData",
              "type": "tuple"
            }
          ],
          "internalType": "struct IPriceOracleV2.UpdateSupraDataFeedParams[]",
          "name": "_params",
          "type": "tuple[]"
        }
      ],
      "name": "updateSupraDataFeed",
      "outputs": [],
      "stateMutability": "nonpayable",
      "type": "function"
    },
    {
      "inputs": [
        {
          "components": [
            {
              "internalType": "uint256",
              "name": "oracleType",
              "type": "uint256"
            },
            {
              "internalType": "address",
              "name": "tokenA",
              "type": "address"
            },
            {
              "internalType": "address",
              "name": "tokenB",
              "type": "address"
            },
            {
              "internalType": "bool",
              "name": "isTrusted",
              "type": "bool"
            }
          ],
          "internalType": "struct IPriceOracleV2.UpdateUniv3TrustedPairParams[]",
          "name": "_updateParams",
          "type": "tuple[]"
        }
      ],
      "name": "updateUniv3TrustedPair",
      "outputs": [],
      "stateMutability": "nonpayable",
      "type": "function"
    },
    {
      "inputs": [
        {
          "internalType": "uint256[]",
          "name": "_oracleTypes",
          "type": "uint256[]"
        },
        {
          "internalType": "address[]",
          "name": "_oracles",
          "type": "address[]"
        }
      ],
      "name": "updateUniv3TypeOracle",
      "outputs": [],
      "stateMutability": "nonpayable",
      "type": "function"
    },
    {
      "inputs": [],
      "name": "usdt",
      "outputs": [
        {
          "internalType": "address",
          "name": "",
          "type": "address"
        }
      ],
      "stateMutability": "view",
      "type": "function"
    }
  ],
  "transactionHash": "0xa054928254216c926dea0ba965708d728c0ad66747d6ce4969e3d55f8006a190",
  "args": [],
  "numDeployments": 4,
  "solcInputHash": "b9821e6aa5ae8bcd6a583375e546781d",
  "bytecode": "0x6080806040523460bd576000549060ff8260081c16606b575060ff808216036031575b604051614fbe90816100c38239f35b60ff90811916176000557f7f26b83ff96e1f2b6a682f133852f6798a09c465da95921460cefb3847402498602060405160ff8152a1386022565b62461bcd60e51b815260206004820152602760248201527f496e697469616c697a61626c653a20636f6e747261637420697320696e697469604482015266616c697a696e6760c81b6064820152608490fd5b600080fdfe608080604052600436101561001357600080fd5b60003560e01c90816301ffc9a71461312f5750806304aca68b14612fe05780630a3c434c14612eb55780630bc6b20314612e515780630fa95a4214612e33578063150fc4dd14612df457806318c92f4114612dcb5780631e6a948f14612da257806322c1ea4014612d4c5780632ecd987d14612caa5780632f48ab7d14612c8157806339d9043414612ae6578063416be2f3146126b4578063455259cb146126205780634858138f146125cf57806350c1b9231461252d57806350d3a9c61461228e57806350f60990146122485780635362be5a146121da57806354f76237146121385780635510bfce14611f205780635d4934c014611e7e5780635e25359714611d4157806361d027b314611d1857806376b926e414611cec5780637b10399914611cc35780638457473814611c595780638c7c9e0c14611c305780638eeae4a714611c07578063970b6e7814611b5257806398bbc8dd14611b1e5780639fb9b68f14611a7c578063a5bbe8b5146119d3578063a6d1b92014611991578063ac8c5db914611901578063b29ce00d146118c7578063b45994f8146117ee578063b508e5d11461174c578063b8b72b1f14611491578063bc5adf3714611376578063be49304e14611292578063c83978fa14611274578063caf8f6b31461124b578063cbaf3d091461118c578063cc2e4c4b14611052578063ce87385314610f30578063da3bd62114610e0c578063dec0af6a14610dd8578063e1031e0e14610d36578063e6402f3d14610cf4578063e963971514610ccb578063e9a8f48414610baf578063ee22fd6f14610b0d578063ef44920d14610ae4578063f0c9738e14610abe578063f0f4426014610a33578063f197ce3514610620578063f7d2401a14610559578063f8c8765e146102e15763f98d06f0146102b357600080fd5b346102dc5760003660031901126102dc576039546040516001600160a01b039091168152602090f35b600080fd5b346102dc5760803660031901126102dc576102fa613202565b610302613218565b61030a61322e565b606435906001600160a01b03821682036102dc576000549360ff8560081c16159485809661054c575b8015610535575b156104d95760ff198116600117600055856104c7575b506040516301ffc9a760e01b8152637965db0b60e01b60048201526001600160a01b03919091169390602081602481885afa9081156104bb5760009161048c575b501561047a57603380546001600160a01b031990811690951790556034805485166001600160a01b03928316179055604280549094169116179091556103d690614daa565b6000549060ff8260081c1615610421576103ec57005b61ff0019166000557f7f26b83ff96e1f2b6a682f133852f6798a09c465da95921460cefb3847402498602060405160018152a1005b60405162461bcd60e51b815260206004820152602b60248201527f496e697469616c697a61626c653a20636f6e7472616374206973206e6f74206960448201526a6e697469616c697a696e6760a81b6064820152608490fd5b60405163044aa57560e41b8152600490fd5b6104ae915060203d6020116104b4575b6104a681836132cf565b810190613450565b86610391565b503d61049c565b6040513d6000823e3d90fd5b61ffff19166101011760005585610350565b60405162461bcd60e51b815260206004820152602e60248201527f496e697469616c697a61626c653a20636f6e747261637420697320616c72656160448201526d191e481a5b9a5d1a585b1a5e995960921b6064820152608490fd5b50303b15801561033a5750600160ff82161461033a565b50600160ff821610610333565b346102dc5760203660031901126102dc576004356044602060018060a01b036033541660405192838092632474521560e21b8252600080516020614f4983398151915260048301523360248301525afa9081156104bb57600091610601575b50156105ef576020817fe588a2371c46c5565aa8f0737ea1b716d8518750afaa9a930c8df8877d8746c492604655604051908152a1005b60405163036be76f60e61b8152600490fd5b61061a915060203d6020116104b4576104a681836132cf565b826105b8565b610629366131b2565b92838303610a2157349360005b8181106106bf57858061064557005b60008060018060a01b03604354166020936040519061066486836132cf565b83825285820191601f19870136843751925af1903d156106b95760003d9161068b836134c0565b9261069960405194856132cf565b83523d92013e5b156106a757005b60405163c71509d160e01b8152600490fd5b506106a0565b6106ca818386613468565b356107de5760395461070c966001600160a01b03909116919060206106f08389886137bb565b60405163d47eed4560e01b81529a8b9283929060048401613914565b0381865afa9788156104bb576000986107a8575b508088116107975787610732916134db565b9661073e8288876137bb565b9093803b156102dc57604051631df3cbc560e31b81529460009386938492839161076b9160048401613914565b03925af19182156104bb57600192610786575b505b01610636565b6000610791916132cf565b8761077e565b604051624726cd60e11b8152600490fd5b90976020823d82116107d6575b816107c2602093836132cf565b810103126107d35750519688610720565b80fd5b3d91506107b5565b60016107eb828487613468565b350361092857603f546001600160a01b0316906108098187866137bb565b15610912576108469261081e82600093613594565b83604093929351809781958294632ce81dbd60e21b84526020600485015260248401916135c6565b03925af180156104bb5761085e575b60019150610780565b3d806000843e61086e81846132cf565b8201916020818403126102dc578051906001600160401b0382116102dc57016060818403126102dc57604051906108a48261327e565b80516001600160401b0381116102dc57846108c09183016138b7565b825260208101516001600160401b0381116102dc57846108e19183016138b7565b60208301526040810151906001600160401b0382116102dc5760019460409261090a92016138b7565b910152610855565b634e487b7160e01b600052603260045260246000fd5b6002610935828487613468565b3514610944575b600190610780565b926000959192955b6109578587896137bb565b9050811015610a14576044546001600160a01b031661097786888a6137bb565b600090841015610a00575082916109996000926109c39560051b810190613594565b6040516340bd1a9f60e01b81526020600482015295869392849286928492909160248401916135c6565b03925af19182156104bb576001926109dd575b500161094c565b6109f9903d806000833e6109f181836132cf565b810190613834565b50886109d6565b634e487b7160e01b81526032600452602490fd5b509094909290919061093c565b60405163554a08d160e11b8152600490fd5b346102dc5760203660031901126102dc57610a4c613202565b603354604051632474521560e21b81526000600482015233602482015290602090829060449082906001600160a01b03165afa9081156104bb57600091610a9f575b50156105ef57610a9d90614daa565b005b610ab8915060203d6020116104b4576104a681836132cf565b82610a8e565b346102dc5760003660031901126102dc57602060018060a01b0360405416604051908152f35b346102dc5760003660031901126102dc57603f546040516001600160a01b039091168152602090f35b346102dc5760203660031901126102dc57610b26613202565b603354604051632474521560e21b81526000600482015233602482015290602090829060449082906001600160a01b03165afa9081156104bb57600091610b90575b50156105ef57603980546001600160a01b0319166001600160a01b0392909216919091179055005b610ba9915060203d6020116104b4576104a681836132cf565b82610b68565b346102dc57610bbd366131b2565b603354604051632474521560e21b8152600080516020614f49833981519152600482015233602482015291949190602090829060449082906001600160a01b03165afa9081156104bb57600091610cac575b50156105ef57838303610a215760005b838110610c2857005b80610c366001928786613468565b35828060a01b03610c50610c4b848988613468565b613478565b16600052603c602052604060002055610c6d610c4b828786613468565b610c78828887613468565b3590838060a01b03167f5f0ac2c1d339aa71cfd244b1806061c2dd58c142319c355a4b503464f39f0ce5600080a301610c1f565b610cc5915060203d6020116104b4576104a681836132cf565b85610c0f565b346102dc5760003660031901126102dc576044546040516001600160a01b039091168152602090f35b346102dc5760203660031901126102dc576001600160a01b03610d15613202565b16600052604b602052602060018060a01b0360406000205416604051908152f35b346102dc5760203660031901126102dc57610d4f613202565b603354604051632474521560e21b81526000600482015233602482015290602090829060449082906001600160a01b03165afa9081156104bb57600091610db9575b50156105ef57604d80546001600160a01b0319166001600160a01b0392909216919091179055005b610dd2915060203d6020116104b4576104a681836132cf565b82610d91565b346102dc5760203660031901126102dc57600435600052603d602052602060018060a01b0360406000205416604051908152f35b346102dc5760203660031901126102dc576004356001600160401b0381116102dc57610e3c903690600401613182565b603354604051632474521560e21b8152600080516020614f49833981519152600482015233602482015291929190602090829060449082906001600160a01b03165afa9081156104bb57600091610f11575b50156105ef5760005b828110610ea057005b6001906001600160a01b03610eb9610c4b838787613468565b16600052604c60205260406000208260ff19825416179055818060a01b03610ee5610c4b838787613468565b167fd63a7e11f9ca79ad96b1afb09ff5d5e3f49476dca65c972896e83135314a273f600080a201610e97565b610f2a915060203d6020116104b4576104a681836132cf565b83610e8e565b346102dc5760203660031901126102dc576004356001600160401b0381116102dc57610f60903690600401613182565b603354604051632474521560e21b8152600080516020614f49833981519152600482015233602482015291929190602090829060449082906001600160a01b03165afa9081156104bb57600091611033575b50156105ef5760005b828110610fc457005b6001906001600160a01b03610fdd610c4b838787613468565b16600052604c602052604060002060ff198154169055818060a01b03611007610c4b838787613468565b167f0d995214b04653d7a20d03bf4d4e1ad1e893df0fb927faa445f402e9b880bef8600080a201610fbb565b61104c915060203d6020116104b4576104a681836132cf565b83610fb2565b346102dc57611060366131b2565b603354604051632474521560e21b8152600080516020614f49833981519152600482015233602482015291929190602090829060449082906001600160a01b03165afa9081156104bb5760009161116d575b50156105ef57818303610a215760005b8381106110cb57005b806110dc610c4b6001938686613468565b828060a01b036110f0610c4b84898b613468565b16600052603b602052604060002090838060a01b03166001600160601b0360a01b825416179055611125610c4b828789613468565b828060a01b03611139610c4b848888613468565b1690838060a01b03167fe57bb0967c057cc1250686db6226a32119cd5417ae09e1905b8f844499880fe2600080a3016110c2565b611186915060203d6020116104b4576104a681836132cf565b856110b2565b346102dc5761119a36613416565b603354604051632474521560e21b8152600080516020614f49833981519152600482015233602482015291929190602090829060449082906001600160a01b03165afa9081156104bb5760009161122c575b50156105ef578115158061121b575b1561120957610a9d92614d04565b604051633c15d6ff60e21b8152600490fd5b50670de0b6b3a764000082106111fb565b611245915060203d6020116104b4576104a681836132cf565b846111ec565b346102dc5760003660031901126102dc57604d546040516001600160a01b039091168152602090f35b346102dc5760003660031901126102dc576020604654604051908152f35b346102dc576112a036613416565b603354604051632474521560e21b81527f5c91514091af31f62f596a314af7d5be40146b2f2355969392f055e12e0982fb600482015233602482015291929190602090829060449082906001600160a01b03165afa9081156104bb57600091611357575b50156105ef576001600160a01b03838116600090815260366020908152604080832093851683529290522054821180611345571561120957610a9d92614d04565b506706f05b59d3b200008211156111fb565b611370915060203d6020116104b4576104a681836132cf565b84611304565b346102dc5760203660031901126102dc576004356001600160401b0381116102dc57366023820112156102dc578060040135906001600160401b0382116102dc57602481019060243691606085020101116102dc57603354604051632474521560e21b8152600080516020614f69833981519152600482015233602482015290602090829060449082906001600160a01b03165afa9081156104bb57600091611472575b50156105ef5760005b82811061142c57005b8061146c611440610c4b600194878761378b565b611456602061145085898961378b565b01613478565b6114666040611450868a8a61378b565b91614c8f565b01611423565b61148b915060203d6020116104b4576104a681836132cf565b8361141a565b346102dc5760203660031901126102dc576004356001600160401b0381116102dc576114c1903690600401613182565b603354604051632474521560e21b8152600080516020614f49833981519152600482015233602482015290602090829060449082906001600160a01b03165afa9081156104bb5760009161172d575b50156105ef57906000915b80831061152457005b611538611532848385613572565b80613594565b93906001600160a01b036115526020611450858789613572565b1660005260496020526040806000206115708261145086888a613572565b6001600160a01b0316600090815260209190915220906001600160401b0386116117175761159e8254613244565b601f81116116cf575b50600090601f871160011461166757958091600195969760009261165c575b5050600019600383901b1c191690841b1790555b6115ea6020611450838688613572565b6115fa6040611450848789613572565b7f4dbaefd1a2b997bf0a063a0ad7e482d970c424dc4a8b9fdb33669e9d1c9ad69861162961153285888a613572565b9261165160405192839260208452898060a01b031696898060a01b03169560208401916135c6565b0390a301919061151b565b0135905087806115c6565b8282526020822091601f198816815b8181106116b757509160019697989291838895931061169d575b505050811b0190556115da565b0135600019600384901b60f8161c19169055878080611690565b83830135855560019094019360209283019201611676565b826000526020600020601f880160051c8101916020891061170d575b601f0160051c01905b81811061170157506115a7565b600081556001016116f4565b90915081906116eb565b634e487b7160e01b600052604160045260246000fd5b611746915060203d6020116104b4576104a681836132cf565b83611510565b346102dc5760203660031901126102dc57611765613202565b603354604051632474521560e21b81526000600482015233602482015290602090829060449082906001600160a01b03165afa9081156104bb576000916117cf575b50156105ef57604780546001600160a01b0319166001600160a01b0392909216919091179055005b6117e8915060203d6020116104b4576104a681836132cf565b826117a7565b346102dc5760203660031901126102dc57611807613202565b603354604051632474521560e21b8152600080516020614f69833981519152600482015233602482015290602090829060449082906001600160a01b03165afa9081156104bb576000916118a8575b50156105ef57603580546001600160a01b0319166001600160a01b0390921691821790556040519081527f5689afd64620ca3aba1015be2907df3b5ae25149d96691ba3de19f92e96ec14d90602090a1005b6118c1915060203d6020116104b4576104a681836132cf565b82611856565b346102dc5760203660031901126102dc576001600160a01b036118e8613202565b16600052603c6020526020604060002054604051908152f35b346102dc5760403660031901126102dc5761191a613202565b611922613218565b906001600160a01b03908116908216811461197f5760009081526037602090815260408083206001600160a01b03948516845290915290205416801561196d57602090604051908152f35b604051636ae912f160e11b8152600490fd5b60405163b213646160e01b8152600490fd5b346102dc5760203660031901126102dc576001600160a01b036119b2613202565b16600052603b602052602060018060a01b0360406000205416604051908152f35b346102dc5760603660031901126102dc576119ec613202565b6119f4613218565b6119fc61322e565b603354604051632474521560e21b8152600080516020614f69833981519152600482015233602482015291929190602090829060449082906001600160a01b03165afa9081156104bb57600091611a5d575b50156105ef57610a9d92614c8f565b611a76915060203d6020116104b4576104a681836132cf565b84611a4e565b346102dc5760203660031901126102dc57611a95613202565b603354604051632474521560e21b81526000600482015233602482015290602090829060449082906001600160a01b03165afa9081156104bb57600091611aff575b50156105ef57603f80546001600160a01b0319166001600160a01b0392909216919091179055005b611b18915060203d6020116104b4576104a681836132cf565b82611ad7565b346102dc5760403660031901126102dc576020611b4a611b3c613202565b611b44613218565b9061367f565b604051908152f35b346102dc5760203660031901126102dc576004356044602060018060a01b036033541660405192838092632474521560e21b8252600080516020614f4983398151915260048301523360248301525afa9081156104bb57600091611be8575b50156105ef576020817f13c9323fdd8bdc59bca744cb04a1255896c91de5ebfd82b75e0040ffd672a2ec92603a55604051908152a1005b611c01915060203d6020116104b4576104a681836132cf565b82611bb1565b346102dc5760003660031901126102dc576048546040516001600160a01b039091168152602090f35b346102dc5760003660031901126102dc576034546040516001600160a01b039091168152602090f35b346102dc5760603660031901126102dc57611c72613218565b611c7a61322e565b90600435600052603e60205260406000209060018060a01b031660005260205260406000209060018060a01b0316600052602052602060ff604060002054166040519015158152f35b346102dc5760003660031901126102dc576033546040516001600160a01b039091168152602090f35b346102dc5760403660031901126102dc576020611b4a611d0a613202565b611d12613218565b906135e7565b346102dc5760003660031901126102dc576043546040516001600160a01b039091168152602090f35b346102dc57611d4f366131b2565b603354604051632474521560e21b8152600080516020614f49833981519152600482015233602482015291949190602090829060449082906001600160a01b03165afa9081156104bb57600091611e5f575b50156105ef57838303610a215760005b838110611dba57005b80611dcb610c4b6001938887613468565b828060a01b03611ddf610c4b848988613468565b16600052604b602052604060002090838060a01b03166001600160601b0360a01b825416179055611e14610c4b828786613468565b7fd9c8bb4bc29d42f7149cb137ee0071b6acae6b34c414465e87e4bca0ad83d2a86020611e45610c4b858b8a613468565b60405160a087901b8790039182168152931692a201611db1565b611e78915060203d6020116104b4576104a681836132cf565b85611da1565b346102dc5760203660031901126102dc57611e97613202565b603354604051632474521560e21b81526000600482015233602482015290602090829060449082906001600160a01b03165afa9081156104bb57600091611f01575b50156105ef57604080546001600160a01b0319166001600160a01b0392909216919091179055005b611f1a915060203d6020116104b4576104a681836132cf565b82611ed9565b346102dc5760203660031901126102dc576004356001600160401b0381116102dc57611f509036906004016133dc565b603354604051632474521560e21b8152600080516020614f49833981519152600482015233602482015290602090829060449082906001600160a01b03165afa9081156104bb57600091612119575b50156105ef5760005b818110611fb157005b8061203a611fcd6060611fc7600195878961348c565b0161349c565b611fd883868861348c565b35600052603e60205260408080600020611ff86020611450888b8d61348c565b90600091888060a01b031682526020522061201882611450878a8c61348c565b90600091878060a01b03168252602052209060ff801983541691151516179055565b61209861204d6060611fc784878961348c565b61205883868861348c565b35600052603e6020526040808060002061207782611450888b8d61348c565b90600091888060a01b03168252602052206120186020611450878a8c61348c565b6120a381848661348c565b356120b4602061145084878961348c565b906120c5604061145085888a61348c565b907fb9a3049feba6628f1f03d582f4092ed3d7b923b1e9b3e115ac55f7fd2d78198f60206120f96060611fc7888b8d61348c565b936040519415158552878060a01b031694878060a01b031693a401611fa8565b612132915060203d6020116104b4576104a681836132cf565b83611f9f565b346102dc5760203660031901126102dc57612151613202565b603354604051632474521560e21b81526000600482015233602482015290602090829060449082906001600160a01b03165afa9081156104bb576000916121bb575b50156105ef57604480546001600160a01b0319166001600160a01b0392909216919091179055005b6121d4915060203d6020116104b4576104a681836132cf565b82612193565b346102dc5760403660031901126102dc576121f3613202565b6121fb613218565b9060018060a01b0316600052604560205260406000209060018060a01b031660005260205261224461223060406000206132f0565b6040519182916020835260208301906133b7565b0390f35b346102dc5760203660031901126102dc5760043560038110156102dc5761226e8161340c565b600052604a602052602060018060a01b0360406000205416604051908152f35b346102dc5760203660031901126102dc576004356001600160401b0381116102dc576122be903690600401613182565b603354604051632474521560e21b8152600080516020614f49833981519152600482015233602482015290602090829060449082906001600160a01b03165afa9081156104bb5760009161250e575b50156105ef57906000915b80831061232157005b61232f611532848385613572565b93906001600160a01b036123496020611450858789613572565b1660005260456020526040806000206123678261145086888a613572565b6001600160a01b0316600090815260209190915220906001600160401b038611611717576123958254613244565b601f81116124c6575b50600090601f871160011461245e579580916001959697600092612453575b5050600019600383901b1c191690841b1790555b6123e16020611450838688613572565b6123f16040611450848789613572565b7f6d9aa9fead4615c8c7f606f3037bd4acd950dcbd5676999b5923de04025da9a861242061153285888a613572565b9261244860405192839260208452898060a01b031696898060a01b03169560208401916135c6565b0390a3019190612318565b0135905087806123bd565b8282526020822091601f198816815b8181106124ae575091600196979892918388959310612494575b505050811b0190556123d1565b0135600019600384901b60f8161c19169055878080612487565b8383013585556001909401936020928301920161246d565b826000526020600020601f880160051c81019160208910612504575b601f0160051c01905b8181106124f8575061239e565b600081556001016124eb565b90915081906124e2565b612527915060203d6020116104b4576104a681836132cf565b8361230d565b346102dc5760203660031901126102dc57612546613202565b603354604051632474521560e21b81526000600482015233602482015290602090829060449082906001600160a01b03165afa9081156104bb576000916125b0575b50156105ef57604280546001600160a01b0319166001600160a01b0392909216919091179055005b6125c9915060203d6020116104b4576104a681836132cf565b82612588565b346102dc5760403660031901126102dc576125e8613202565b6125f0613218565b6001600160a01b039182166000908152603660209081526040808320949093168252928352819020549051908152f35b346102dc5760003660031901126102dc576035546001600160a01b0316600081612650575b602090604051908152f35b5060a060049160405192838092633fabe5a360e21b82525afa80156104bb57602091600091612680575b50612645565b6126a2915060a03d60a0116126ad575b61269a81836132cf565b81019061353d565b50505090508261267a565b503d612690565b60603660031901126102dc576126c8613202565b6126d0613218565b906044356001600160401b0381116102dc57366023820112156102dc5780600401356001600160401b0381116102dc5781019060248201903682116102dc576020818403126102dc576024810135906001600160401b0382116102dc5701816043820112156102dc57602481013592612748846134a9565b9361275660405195866132cf565b808552602060248187019260051b85010101928484116102dc5760448101915b848310612a1a5788888880518015159081612a0f575b50156129fd57805160001981019081116129e7576001600160a01b03906127b39083613505565b5151166001600160a01b038416036129d55760038151146129a5575b60048151146128f4575b819291670de0b6b3a7640000926000936000925b84518410156128e95761280c60206128058688613505565b5101613519565b60098110156128d35760021480156128b2575b806128aa575b61286c575b906128436128499261283c8688613505565b5190613b31565b90614c12565b9460016001600160a01b0361285e8587613505565b5151169301929590956127ed565b9450612877866139a6565b8061289b575b6128895760019461282a565b604051630efbb43d60e21b8152600490fd5b506128a5826139a6565b61287d565b508515612825565b506128c260206128058688613505565b60098110156128d35760041461281f565b634e487b7160e01b600052602160045260246000fd5b602082604051908152f35b60206128ff826134e8565b51015160098110156128d3576002141560008161292e575b506127d95760405163980171a360e01b8152600490fd5b905061293e6020612805846134f8565b600981101561299157600214908115612959575b5084612917565b90506129696020612805846134f8565b90600982101561297d575060041484612952565b634e487b7160e01b81526021600452602490fd5b634e487b7160e01b82526021600452602482fd5b60206129b0826134e8565b51015160098110156128d3576002036127cf5760405163980171a360e01b8152600490fd5b6040516309bf411560e11b8152600490fd5b634e487b7160e01b600052601160045260246000fd5b60405163308c6ea760e21b8152600490fd5b60059150108461278c565b82356001600160401b0381116102dc5782016024810191906060908603601f1901126102dc5760405191612a4d8361327e565b60208101356001600160a01b03811681036102dc578352604081013560098110156102dc57602084015260608101356001600160401b0381116102dc5760209101019087601f830112156102dc57813592612aa7846134c0565b612ab460405191826132cf565b84815289602086860101116102dc57600060208681978280980183860137830101526040820152815201920191612776565b346102dc5760203660031901126102dc576004356001600160401b0381116102dc57612b169036906004016133dc565b603354604051632474521560e21b8152600080516020614f49833981519152600482015233602482015290602090829060449082906001600160a01b03165afa9081156104bb57600091612c62575b50156105ef5760005b818110612b7757005b80612bf4612b88600193858761348c565b838060a01b03612b9c610c4b85888a61348c565b16600052604160205283612be16060604089612bc260206114508a8d866000209561348c565b90600091868060a01b031682526020522093604081013585550161349c565b91019060ff801983541691151516179055565b612c02610c4b82858761348c565b612c12602061145084878961348c565b7fa38bfa44bbba9266438e9ec2c9f2001eb6517aa484626b25ec296ee888517f7960206040612c4286898b61348c565b013592604051938452868060a01b031693868060a01b031692a301612b6e565b612c7b915060203d6020116104b4576104a681836132cf565b83612b65565b346102dc5760003660031901126102dc576042546040516001600160a01b039091168152602090f35b346102dc5760203660031901126102dc57612cc3613202565b603354604051632474521560e21b81526000600482015233602482015290602090829060449082906001600160a01b03165afa9081156104bb57600091612d2d575b50156105ef57604880546001600160a01b0319166001600160a01b0392909216919091179055005b612d46915060203d6020116104b4576104a681836132cf565b82612d05565b346102dc5760403660031901126102dc57612d65613202565b612d6d613218565b9060018060a01b0316600052604960205260406000209060018060a01b031660005260205261224461223060406000206132f0565b346102dc5760003660031901126102dc576035546040516001600160a01b039091168152602090f35b346102dc5760003660031901126102dc576047546040516001600160a01b039091168152602090f35b346102dc5760203660031901126102dc576001600160a01b03612e15613202565b16600052604c602052602060ff604060002054166040519015158152f35b346102dc5760003660031901126102dc576020603a54604051908152f35b346102dc5760403660031901126102dc57612e6a613202565b612e72613218565b9060018060a01b0316600052604160205260406000209060018060a01b031660005260205260408060002060ff6001825492015416825191825215156020820152f35b346102dc57612ec3366131b2565b603354604051632474521560e21b8152600080516020614f49833981519152600482015233602482015293949391929190602090829060449082906001600160a01b03165afa9081156104bb57600091612fc1575b50156105ef57818403610a215760005b848110612f3157005b80612f42610c4b6001938686613468565b612f4d828888613468565b35600052603d602052604060002090838060a01b03166001600160601b0360a01b825416179055612f7f818787613468565b35828060a01b03612f94610c4b848888613468565b16907f23e0d9edcf44c0ab085e4918b7030577f9da7dd0c7869257b4598f9e7ff59eff600080a301612f28565b612fda915060203d6020116104b4576104a681836132cf565b85612f18565b346102dc57612fee366131b2565b603354604051632474521560e21b8152600080516020614f6983398151915260048201523360248201529194939190602090829060449082906001600160a01b03165afa9081156104bb57600091613110575b50156105ef57838103610a215760005b81811061305a57005b613068610c4b828786613468565b613073828487613468565b3560038110156102dc576130868161340c565b600052604a60205260406000209060018060a01b03166001600160601b0360a01b8254161790556130b8818386613468565b359060038210156102dc576001916130d4610c4b838988613468565b6130dd8261340c565b838060a01b0316907fe6574ff52bd4d3e89a140bba3bd969bfa5aad8116f46d1bce8d214e3229b9b0c600080a301613051565b613129915060203d6020116104b4576104a681836132cf565b85613041565b346102dc5760203660031901126102dc576004359063ffffffff60e01b82168092036102dc576020916333ca6d2360e21b8114908115613171575b5015158152f35b6301ffc9a760e01b1490508361316a565b9181601f840112156102dc578235916001600160401b0383116102dc576020808501948460051b0101116102dc57565b60406003198201126102dc576004356001600160401b0381116102dc57816131dc91600401613182565b92909291602435906001600160401b0382116102dc576131fe91600401613182565b9091565b600435906001600160a01b03821682036102dc57565b602435906001600160a01b03821682036102dc57565b604435906001600160a01b03821682036102dc57565b90600182811c92168015613274575b602083101461325e57565b634e487b7160e01b600052602260045260246000fd5b91607f1691613253565b606081019081106001600160401b0382111761171757604052565b608081019081106001600160401b0382111761171757604052565b604081019081106001600160401b0382111761171757604052565b90601f801991011681019081106001600160401b0382111761171757604052565b906040519182600082549261330484613244565b8084529360018116908115613372575060011461332b575b50613329925003836132cf565b565b90506000929192526020600020906000915b818310613356575050906020613329928201013861331c565b602091935080600191548385890101520191019091849261333d565b90506020925061332994915060ff191682840152151560051b8201013861331c565b60005b8381106133a75750506000910152565b8181015183820152602001613397565b906020916133d081518092818552858086019101613394565b601f01601f1916010190565b9181601f840112156102dc578235916001600160401b0383116102dc576020808501948460071b0101116102dc57565b600311156128d357565b60609060031901126102dc576004356001600160a01b03811681036102dc57906024356001600160a01b03811681036102dc579060443590565b908160209103126102dc575180151581036102dc5790565b91908110156109125760051b0190565b356001600160a01b03811681036102dc5790565b91908110156109125760071b0190565b3580151581036102dc5790565b6001600160401b0381116117175760051b60200190565b6001600160401b03811161171757601f01601f191660200190565b919082039182116129e757565b8051600110156109125760400190565b8051156109125760200190565b80518210156109125760209160051b010190565b5160098110156128d35790565b519069ffffffffffffffffffff821682036102dc57565b908160a09103126102dc5761355181613526565b9160208201519160408101519161356f608060608401519301613526565b90565b91908110156109125760051b81013590605e19813603018212156102dc570190565b903590601e19813603018212156102dc57018035906001600160401b0382116102dc576020019181360383136102dc57565b908060209392818452848401376000828201840152601f01601f1916010190565b906135f2818361367f565b9160018060a01b0316600052603660205260406000209060018060a01b03166000526020526040600020549080821160001461364957505b670de0b6b3a7640000811161363c5790565b50670de0b6b3a764000090565b905061362a565b519060ff821682036102dc57565b604d81116129e757600a0a90565b818102929181159184041417156129e757565b6001600160a01b0390811660009081526037602090815260408083209484168352939052919091205416801561378557604051633fabe5a360e21b81529060a082600481845afa9182156104bb57600092613759575b5060206004916040519283809263313ce56760e01b82525afa80156104bb5760009061371f575b60ff91501660120390601282116129e75761371961356f9261365e565b9061366c565b506020813d602011613751575b81613739602093836132cf565b810103126102dc5761374c60ff91613650565b6136fc565b3d915061372c565b600491925061377860209160a03d60a0116126ad5761269a81836132cf565b50505090509291506136d5565b50600090565b9190811015610912576060020190565b81156137a5570490565b634e487b7160e01b600052601260045260246000fd5b91908110156109125760051b81013590601e19813603018212156102dc5701908135916001600160401b0383116102dc576020018260051b360381136102dc579190565b9092919261380c816134c0565b9161381a60405193846132cf565b8294828452828201116102dc576020613329930190613394565b6020818303126102dc578051906001600160401b0382116102dc5701906080828203126102dc576040519161386883613299565b80516001600160401b0381116102dc57810182601f820112156102dc57606092816020613897935191016137ff565b835260208101516020840152604081015160408401520151606082015290565b9080601f830112156102dc5781516138ce816134a9565b926138dc60405194856132cf565b81845260208085019260051b8201019283116102dc57602001905b8282106139045750505090565b81518152602091820191016138f7565b9180602084016020855252604083019060408160051b8501019383600091601e1982360301905b84841061394c575050505050505090565b90919293949596603f198282030187528735838112156102dc57840190602082359201916001600160401b0381116102dc5780360383136102dc5761399760209283926001956135c6565b9901970195940192919061393b565b6001600160a01b03166000818152603c6020526040902054613a3e576000818152603b60205260409020546001600160a01b0316613a3e57806000526041602052604060002061034860005260205260ff60016040600020015416613a3e5760009081526041602090815260408083206042546001600160a01b0316845290915290206001015460ff16613a3957600090565b600190565b50600190565b908160809103126102dc57606060405191613a5e83613299565b8051835260208101516020840152604081015160408401520151606082015290565b60ff166012039060ff82116129e757565b60ff16604d81116129e757600a0a90565b81601f820112156102dc57805190613ab9826134a9565b92613ac760405194856132cf565b82845260208085019360051b830101918183116102dc5760208101935b838510613af357505050505090565b84516001600160401b0381116102dc57820183603f820112156102dc57602091613b2685836040868096015191016137ff565b815201940193613ae4565b602082018051926001600160a01b0383169290916103488414919060098610156128d35760009515614ab657805160098110156141e3576003146148be57805160098110156141e3576001146146df57805160098110156141e35760041461453257805160098110156141e35760051461437857805160098110156141e3576006146141f757805160098110156141e357600714613ebe57516009811015613eaa57600814613cff575050604081015191602083519301519260208110613ce9575b50828452603d60205260408420546001600160a01b0316928315613cd7578452603e60209081526040808620838752825280862084516001600160a01b0316875290915284205460ff1615613cc5579051604051635d5530df60e11b815260048101929092526001600160a01b03166024820152906020908290604490829086905af1918215613cb9578092613c8857505090565b9091506020823d602011613cb1575b81613ca4602093836132cf565b810103126107d357505190565b3d9150613c97565b604051903d90823e3d90fd5b604051632ccb516160e21b8152600490fd5b6040516345f68a8f60e11b8152600490fd5b6000939193199060200360031b1b169138613bf3565b90809294935015613e83575b8115613e7e575082516001600160a01b03165b6001600160a01b0316808352604c602052604083205490939060ff1615613e6c576040015180518101602082820312613e68576020820151906001600160401b038211613e645760209283613dcb9381613d7b9401920101613aa2565b604d546001600160a01b03169085613d9c613d95836134f8565b51926134e8565b5197613ddd604051998a968795869463b8b7523960e01b865260048601526060602486015260648501906133b7565b838103600319016044850152906133b7565b03925af1928315613e59578293613e21575b5015613e1d575061356f90613e18613e0e670de0b6b3a7640000614ef8565b8260011c90614f34565b61379b565b5090565b9092506020813d602011613e51575b81613e3d602093836132cf565b81010312613e4d57519138613def565b5080fd5b3d9150613e30565b6040513d84823e3d90fd5b8480fd5b8380fd5b6040516372b06ab960e11b8152600490fd5b613d1e565b83516001600160a01b0316610347190115613d0b576040516345e90b8760e01b8152600490fd5b634e487b7160e01b86526021600452602486fd5b509080949350156141bc575b83156141b7575080516001600160a01b03165b6001600160a01b03908116808452604b602052604084205490929116156141a55760405163313ce56760e01b8152602081600481865afa801561419a57849061415f575b613f2b9150613a91565b6040516338d52e0f60e01b8152602081600481875afa9081156140d057859161411c575b5060405163313ce56760e01b815290602090829060049082906001600160a01b03165afa9081156140d05785916140db575b50613f8e613f9391613a80565b613a91565b906040519063266d6a8360e11b82526004820152602081602481875afa9081156140d057859161409c575b5091613fcf60209261401c9461366c565b938552604b825260408086205491810151905163416be2f360e01b81526001600160a01b0390921660048301526103486024830152606060448301529092839182919060648301906133b7565b038186305af1908115614091578391614059575b5061403a91614c12565b9115613e1d575061356f90613e18613e0e670de0b6b3a7640000614ef8565b90506020813d602011614089575b81614074602093836132cf565b81010312614085575161403a614030565b8280fd5b3d9150614067565b6040513d85823e3d90fd5b90506020813d6020116140c8575b816140b7602093836132cf565b81010312613e645751613fcf613fbe565b3d91506140aa565b6040513d87823e3d90fd5b90506020813d602011614114575b816140f6602093836132cf565b81010312613e6457613f8e61410d613f9392613650565b9150613f81565b3d91506140e9565b90506020813d602011614157575b81614137602093836132cf565b81010312613e6457516001600160a01b0381168103613e64576020613f4f565b3d915061412a565b506020813d602011614192575b81614179602093836132cf565b81010312613e685761418d613f2b91613650565b613f21565b3d915061416c565b6040513d86823e3d90fd5b604051632b5d296d60e21b8152600490fd5b613edd565b81516001600160a01b0316610347190115613eca57604051634c508a4f60e01b8152600490fd5b634e487b7160e01b87526021600452602487fd5b5090809294935015614351575b6040840151938451850194604081870312613e64576020810151956040820151906001600160401b03821161434d57614244926020918201920101613aa2565b9461424e8161340c565b6142578161340c565b8452604a60205260408420546001600160a01b0316918215613cd7578315614343575060018060a01b039051168394915b604080516313f839b960e01b81526001600160a01b03909316600484015260248301528251604483018190529195600583901b87016064908101948894602090910191839086015b828210614311575050505082908160209503925af1928315613e59578293613e21575015613e1d575061356f90613e18613e0e670de0b6b3a7640000614ef8565b929550925092946020806143316001936063198d820301865288516133b7565b960192019201928894959388936142d0565b9050839491614288565b8680fd5b83516001600160a01b0316610347190115614204576040516386170b0d60e01b8152600490fd5b50505060408193929301519260a084805181010312614085576020840151906040850151946060810151916143b460a060808401519301613650565b81875260496020908152604080892088516001600160a01b03168a5290915287209092906143e1906132f0565b9187968351156144e1575b5050604754604854604051639c88171560e01b81526001600160a01b03918216600482015260e060248201529560209587959290931693859384938d9360ff939161443b9060e48801906133b7565b948c60448801526064870152608486015260a48501521660c483015203915afa90811561419a5784916144c2575b50156144b05761447b603a54426134db565b1161449e5715613e1d575061356f90613e18613e0e670de0b6b3a7640000614ef8565b60405163141f934360e31b8152600490fd5b6040516318f57d1360e21b8152600490fd5b6144db915060203d6020116104b4576104a681836132cf565b38614469565b516001600160a01b03168852604960209081526040808a20928a52919052872090955061450e91506132f0565b805115614520576001948160206143ec565b604051638d55073560e01b8152600490fd5b50505081835260456020908152604080852083516001600160a01b0316865290915283208390614561906132f0565b819281511561468c575b5061459f935060018060a01b0360445416604051808096819463b50584b360e01b83526020600484015260248301906133b7565b03915afa918215614091578392614670575b50602082019081511561465e5760608301516145cf604654426134db565b1161449e57156146265760409051910151601203601281116146125761356f92916137196145fc9261365e565b9050613e18613e0e670de0b6b3a7640000614ef8565b634e487b7160e01b83526011600452602483fd5b60409092919251920151601203906012821161464a57509061371961356f9261365e565b634e487b7160e01b81526011600452602490fd5b6040516305a22a3360e11b8152600490fd5b6146859192503d8085833e6109f181836132cf565b90386145b1565b516001600160a01b0316855250506045602090815260408085209385529290525081206146b8906132f0565b8051156146cd5761459f90826001913861456b565b60405163dde5170160e01b8152600490fd5b509080935015614897575b82156148905750516001600160a01b03165b6001600160a01b039081168352603b6020526040832054168015613cd757604051633fabe5a360e21b81529160a083600481855afa92831561419a57849361486a575b508383131561485857156147d55760206004916040519283809263313ce56760e01b82525afa908115614091578391614788575b5061356f9291613719613f8e6145fc93613a80565b90506020813d6020116147cd575b816147a3602093836132cf565b810103126140855761356f9291613719613f8e6147c26145fc94613650565b935050509192614773565b3d9150614796565b60206004916040949394519283809263313ce56760e01b82525afa918215613cb9578092614810575b505090613719613f8e61356f93613a80565b9091506020823d602011614850575b8161482c602093836132cf565b810103126107d3575090613719613f8e61484861356f94613650565b9293506147fe565b3d915061481f565b6040516302eb41cf60e51b8152600490fd5b61488491935060a03d60a0116126ad5761269a81836132cf565b5050509050913861473f565b90506146fc565b81516001600160a01b03166103471901156146ea576040516381c30d7b60e01b8152600490fd5b50505081835260416020908152604080852083516001600160a01b03168652909152808420905192919060ff906001906148f7866132b4565b8054865201541615156020840190815260405161491381613299565b858152602081018690526040810186905260600185905251156149d9575050608060018060a01b036040541691516024604051809481936344dca75160e11b835260048301525afa908115613e595782916149aa575b50809160206060830151920151601203906012821161464a57506040916137196149929261365e565b915b01516149a2603a54426134db565b1161449e5790565b6149cc915060803d6080116149d2575b6149c481836132cf565b810190613a44565b38614969565b503d6149ba565b516001600160a01b03168352604160209081526040808520928552919052808320905192915060ff90600190614a0e856132b4565b805485520154161580156020840152613cd757608060018060a01b036040541692516024604051809581936344dca75160e11b835260048301525afa918215614aa9578192614a88575b5081602060608201519101516012036012811161461257916145fc614a829261371960409561365e565b91614994565b614aa291925060803d6080116149d2576149c481836132cf565b9038614a58565b50604051903d90823e3d90fd5b50908094935015614beb575b8315614be45750516001600160a01b03165b6001600160a01b03168152603c6020526040812054918215613cd7576039546040516331d98b3f60e01b81526004810194909452608090849060249082906001600160a01b03165afa928315613e59578293614b5d575b506060830151614b3d603a54426134db565b1161449e5715614b53576145fc61356f92614e37565b5061356f90614e37565b9092506080813d608011614bdc575b81614b79608093836132cf565b81010312613e4d5760405190614b8e82613299565b80518060070b8103613e6857825260208101516001600160401b0381168103613e6857602083015260408101518060030b8103613e6857906060916040840152015160608201529138614b2b565b3d9150614b6c565b9050614ad4565b81516001600160a01b0316610347190115614ac257604051633c2f4f2360e21b8152600490fd5b6000918015918215614c6f575b505015614c5e576706f05b59d3b200008101908181116129e7578110614c4d57670de0b6b3a7640000900490565b630a77254f60e01b60005260046000fd5b631550e8b760e01b60005260046000fd5b91509150614c87614c80838361366c565b928361379b565b143880614c1f565b6001600160a01b039081169291169082821461197f576000838152603760209081526040808320858452909152812080546001600160a01b0319166001600160a01b039390931692831790559092907f410d79a2eddf639a562ae356290f947311e7c951e05ee1e957f18898bd664bb39080a4565b6001600160a01b03169081151580614d98575b15614d86576001600160a01b031691818314614d745760207ffc6e73fcfea315539ce6038e373ebf76c8fd5169e820723ef2d2f4485528ced8918360005260368252604060002085600052825280604060002055604051908152a3565b604051631d8fdb5560e11b8152600490fd5b604051630803ae7360e11b8152600490fd5b506001600160a01b0381161515614d17565b6040516301ffc9a760e01b81526329abf30760e11b60048201526001600160a01b039190911690602081602481855afa9081156104bb57600091614e04575b501561047a576001600160601b0360a01b6043541617604355565b614e1d915060203d6020116104b4576104a681836132cf565b38614de9565b63ffffffff16604d81116129e757600a0a90565b6000815160070b128015614ee7575b8015614ed5575b614ec357604081015160030b600003808060030b036129e75760ff169060128211614e95579061371960ff614e8f6001600160401b0361356f95511693613a80565b16614e23565b51601119909101906001600160401b031660ff82116129e757614ebd60ff61356f9316614e23565b9061379b565b6040516365a5785160e11b8152600490fd5b5060fe19604082015160030b12614e4d565b506000604082015160030b13614e46565b90600091670de0b6b3a7640000808202828104821483151715614f20578094500403614c5e57565b634e487b7160e01b85526011600452602485fd5b91908201918281116129e7578210614c4d5756fe5a7d4408f4759dddd7fdfd0d21abd99341dc2f52cda14804988a9b2df20766d8c0fc8e4dc5cff6febdf550b80d566f654e2baf1a02ea1060208c2f8ab2dd1b63a26469706673582212202143f1ff30658835dd4cc30228586312d1eb70bcbad2d6c94e77d2e2b12c5eeb64736f6c634300081a0033",
  "libraries": {},
  "devdoc": {
    "events": {
      "Initialized(uint8)": {
        "details": "Triggered when the contract has been initialized or reinitialized."
      }
    },
    "kind": "dev",
    "methods": {
      "addUniswapV2LPTokens(address[])": {
        "details": "Only callable by the SMALL_TIMELOCK_ADMIN role.",
        "params": {
          "_lpTokens": "the addresses of lp tokens"
        }
      },
      "getExchangeRate(address,address,bytes)": {
        "params": {
          "assetA": "The address of the first asset in the pair.",
          "assetB": "The address of the second asset in the pair.",
          "oracleData": "The list of oracles to use for price calculations"
        },
        "returns": {
          "_0": "exchangeRate for assetA/assetB in 10**18 decimality"
        }
      },
      "getGasPrice()": {
        "returns": {
          "price": "The current gas price."
        }
      },
      "getOraclePriceDrop(address,address)": {
        "params": {
          "assetA": "The address of the first asset.",
          "assetB": "The address of the second asset."
        },
        "returns": {
          "_0": "The priceDrop rate as a uint256 value."
        }
      },
      "getOraclePriceDropFeed(address,address)": {
        "params": {
          "assetA": "The address of the first asset in the pair.",
          "assetB": "The address of the second asset in the pair."
        },
        "returns": {
          "_0": "priceDropFeed The address of the priceDrop feed associated with the asset pair."
        }
      },
      "getPairPriceDrop(address,address)": {
        "params": {
          "_assetA": "The address of asset A.",
          "_assetB": "The address of asset B."
        },
        "returns": {
          "priceDrop": "The priceDrop rate."
        }
      },
      "increasePairPriceDrop(address,address,uint256)": {
        "details": "Only callable by the EMERGENCY_ADMIN role. The _pairPriceDrop value must be greater than the current priceDrop value for the pair and less than the maximum allowed priceDrop (WadRayMath.WAD / 2).",
        "params": {
          "_assetA": "The address of position asset",
          "_assetB": "The address of borrowed asset",
          "_pairPriceDrop": "The new priceDrop value for the pair (in wad)"
        }
      },
      "initialize(address,address,address,address)": {
        "params": {
          "_eth": "Weth address if eth isn't native token of network. Otherwise set to zero address.",
          "_registry": "The address of PrimexRegistry contract",
          "_treasury": "Address of the Treasury",
          "_usdt": "Address of the USDT token"
        }
      },
      "removeUniswapV2LPTokens(address[])": {
        "details": "Only callable by the SMALL_TIMELOCK_ADMIN role.",
        "params": {
          "_lpTokens": "the addresses of lp tokens"
        }
      },
      "setGasPriceFeed(address)": {
        "details": "Only callable by the MEDIUM_TIMELOCK_ADMIN role.",
        "params": {
          "priceFeed": "The address of the gas price feed contract."
        }
      },
      "setOrallyOracle(address)": {
        "details": "Only callable by the BIG_TIMELOCK_ADMIN role.",
        "params": {
          "_orally": "the address of the Orally oracle"
        }
      },
      "setOrallyTimeTolerance(uint256)": {
        "details": "Only callable by the SMALL_TIMELOCK_ADMIN role.",
        "params": {
          "_orallyTimeTolerance": "Time tolerance in seconds"
        }
      },
      "setPairPriceDrop(address,address,uint256)": {
        "details": "Only callable by the SMALL_TIMELOCK_ADMIN.",
        "params": {
          "_assetA": "The address of position asset",
          "_assetB": "The address of borrowed asset",
          "_pairPriceDrop": "The pair priceDrop (in wad)"
        }
      },
      "setPyth(address)": {
        "details": "Only callable by the BIG_TIMELOCK_ADMIN role.",
        "params": {
          "_pyth": "the address of the Pyth oracle"
        }
      },
      "setStorkPublicKey(address)": {
        "details": "Only callable by the BIG_TIMELOCK_ADMIN role.",
        "params": {
          "_storkPublicKey": "the Stork public key address"
        }
      },
      "setStorkVerify(address)": {
        "details": "Only callable by the BIG_TIMELOCK_ADMIN role.",
        "params": {
          "_storkVerify": "the Stork verify address"
        }
      },
      "setSupraPullOracle(address)": {
        "details": "Only callable by the BIG_TIMELOCK_ADMIN role.",
        "params": {
          "_supraPullOracle": "the address of the Supra pull oracle"
        }
      },
      "setSupraStorageOracle(address)": {
        "details": "Only callable by the BIG_TIMELOCK_ADMIN role.",
        "params": {
          "_supraStorageOracle": "the address of the Supra storage"
        }
      },
      "setTimeTolerance(uint256)": {
        "details": "Only callable by the SMALL_TIMELOCK_ADMIN role.",
        "params": {
          "_timeTolerance": "Time tolerance in seconds"
        }
      },
      "setTreasury(address)": {
        "details": "Only callable by the BIG_TIMELOCK_ADMIN role.",
        "params": {
          "_treasury": "the address of the treasury"
        }
      },
      "setUSDT(address)": {
        "details": "Only callable by the BIG_TIMELOCK_ADMIN role.",
        "params": {
          "_usdt": "the address of the USDT"
        }
      },
      "setUniswapV2LPOracle(address)": {
        "details": "Only callable by the BIG_TIMELOCK_ADMIN role.",
        "params": {
          "_uniswapV2LPOracle": "the UniswapV2LP oracle address"
        }
      },
      "supportsInterface(bytes4)": {
        "params": {
          "_interfaceId": "The interface id to check"
        }
      },
      "updateChainlinkPriceFeedsUsd(address[],address[])": {
        "details": "Only callable by the SMALL_TIMELOCK_ADMIN role.",
        "params": {
          "_feeds": "Array of price feeds.",
          "_tokens": "Array of token addresses."
        }
      },
      "updateOrallySymbols((string,address[2])[])": {
        "details": "Only callable by the SMALL_TIMELOCK_ADMIN role.",
        "params": {
          "params": "Array of UpdateOrallySymbolsParams struct"
        }
      },
      "updatePriceDropFeed(address,address,address)": {
        "details": "Add or update priceDrop feed for assets pair. Only callable by the MEDIUM_TIMELOCK_ADMIN role.",
        "params": {
          "assetA": "The address of the first asset in the pair.",
          "assetB": "The address of the second asset in the pair.",
          "priceDropFeed": "The chain link priceDrop feed address for the pair assetA/assetB"
        }
      },
      "updatePriceDropFeeds((address,address,address)[])": {
        "details": "Add or update priceDrop feed for assets pair. Only callable by the MEDIUM_TIMELOCK_ADMIN role.",
        "params": {
          "_updateParams": "The array of the UpdatePriceDropFeedsParams structs"
        }
      },
      "updatePullOracle(bytes[][],uint256[])": {
        "params": {
          "_data": "An array of update data for passed oracles",
          "_pullOracleTypes": "An array of oracle types  (Must conform to the UpdatePullOracle struct)"
        }
      },
      "updatePythPairId(address[],bytes32[])": {
        "details": "Only callable by the SMALL_TIMELOCK_ADMIN role.",
        "params": {
          "_priceFeedIds": "Array of pair ids.",
          "_tokens": "Array of token addresses."
        }
      },
      "updateStorkPairIds((string,address[2])[])": {
        "details": "Only callable by the SMALL_TIMELOCK_ADMIN role.",
        "params": {
          "params": "Array of UpdateStorkPairIdsParams struct"
        }
      },
      "updateSupraDataFeed((address,address,(uint256,bool))[])": {
        "details": "Only callable by the SMALL_TIMELOCK_ADMIN role.",
        "params": {
          "_params": "Array of token pairs and Supra ids."
        }
      },
      "updateUniv3TrustedPair((uint256,address,address,bool)[])": {
        "details": "Only callable by the SMALL_TIMELOCK_ADMIN role.",
        "params": {
          "_updateParams": "Array of token pairs, their DEXs and new trusted status."
        }
      },
      "updateUniv3TypeOracle(uint256[],address[])": {
        "details": "Only callable by the SMALL_TIMELOCK_ADMIN role.",
        "params": {
          "_oracleTypes": "Array of ids of TWAP contracts.",
          "_oracles": "Array of TWAP contract addresses."
        }
      }
    },
    "version": 1
  },
  "userdoc": {
    "kind": "user",
    "methods": {
      "addUniswapV2LPTokens(address[])": {
        "notice": "Sets the flag to true for the passed tokens"
      },
      "getExchangeRate(address,address,bytes)": {
        "notice": "Calculates exchange rate of one token to another according to the specific oracle route"
      },
      "getGasPrice()": {
        "notice": "Retrieves the current gas price from the specified gas price feed."
      },
      "getOraclePriceDrop(address,address)": {
        "notice": "Retrieves the priceDrop rate between two assets based on the oracle pair priceDrop."
      },
      "getOraclePriceDropFeed(address,address)": {
        "notice": "Retreives a priceDrop feed address from the oraclePriceDropFeeds mapping"
      },
      "getPairPriceDrop(address,address)": {
        "notice": "For a given asset pair retrieves the priceDrop rate which is the higher of the oracle pair priceDrop and the historical pair priceDrop."
      },
      "increasePairPriceDrop(address,address,uint256)": {
        "notice": "Increases the priceDrop of a pair of assets in the system."
      },
      "removeUniswapV2LPTokens(address[])": {
        "notice": "Sets the flag to false for the passed tokens"
      },
      "setGasPriceFeed(address)": {
        "notice": "Sets the gas price feed contract address."
      },
      "setOrallyOracle(address)": {
        "notice": "Sets the orally oracle address"
      },
      "setOrallyTimeTolerance(uint256)": {
        "notice": "Sets the time tolerance specially for the orally"
      },
      "setPairPriceDrop(address,address,uint256)": {
        "notice": "Function to set (change) the pair priceDrop of the trading assets"
      },
      "setPyth(address)": {
        "notice": "Sets the Pyth address"
      },
      "setStorkPublicKey(address)": {
        "notice": "Sets the stork public key (address)"
      },
      "setStorkVerify(address)": {
        "notice": "Sets the stork verify address"
      },
      "setSupraPullOracle(address)": {
        "notice": "Sets the Supra pull oracle address"
      },
      "setSupraStorageOracle(address)": {
        "notice": "Sets the Supra storage address"
      },
      "setTimeTolerance(uint256)": {
        "notice": "Sets the time tolerance"
      },
      "setTreasury(address)": {
        "notice": "Sets the treasury address"
      },
      "setUSDT(address)": {
        "notice": "Sets the usdt address"
      },
      "setUniswapV2LPOracle(address)": {
        "notice": "Sets the UniswapV2LP oracle"
      },
      "supportsInterface(bytes4)": {
        "notice": "Interface checker"
      },
      "updateChainlinkPriceFeedsUsd(address[],address[])": {
        "notice": "Sets or updates the Chainlink price feed for the list of tokens to usd."
      },
      "updateOrallySymbols((string,address[2])[])": {
        "notice": "Sets or updates the Orally token symbol for the list of tokens (tokens order MATTERS)"
      },
      "updatePriceDropFeed(address,address,address)": {
        "notice": "Updates the priceDrop feed for a specific pair of assets."
      },
      "updatePriceDropFeeds((address,address,address)[])": {
        "notice": "Updates the priceDrop feed for a specific pair of assets."
      },
      "updatePullOracle(bytes[][],uint256[])": {
        "notice": "Updates pull oracle data for passed oracle types"
      },
      "updatePythPairId(address[],bytes32[])": {
        "notice": "Sets or updates the Pyth pair ids for the list of tokens."
      },
      "updateStorkPairIds((string,address[2])[])": {
        "notice": "Sets or updates the Stork Pair Ids"
      },
      "updateSupraDataFeed((address,address,(uint256,bool))[])": {
        "notice": "Sets or updates the Supra price feeds for the list of tokens."
      },
      "updateUniv3TrustedPair((uint256,address,address,bool)[])": {
        "notice": "Sets or updates the Supra price feeds for the list of tokens."
      },
      "updateUniv3TypeOracle(uint256[],address[])": {
        "notice": "Sets Uni v3-based TWAP price oracle contracts."
      }
    },
    "version": 1
  },
  "storageLayout": {
    "storage": [
      {
        "astId": 3021,
        "contract": "contracts/PriceOracle/PriceOracle.sol:PriceOracle",
        "label": "_initialized",
        "offset": 0,
        "slot": "0",
        "type": "t_uint8"
      },
      {
        "astId": 3024,
        "contract": "contracts/PriceOracle/PriceOracle.sol:PriceOracle",
        "label": "_initializing",
        "offset": 1,
        "slot": "0",
        "type": "t_bool"
      },
      {
        "astId": 6637,
        "contract": "contracts/PriceOracle/PriceOracle.sol:PriceOracle",
        "label": "__gap",
        "offset": 0,
        "slot": "1",
        "type": "t_array(t_uint256)50_storage"
      },
      {
        "astId": 59696,
        "contract": "contracts/PriceOracle/PriceOracle.sol:PriceOracle",
        "label": "registry",
        "offset": 0,
        "slot": "51",
        "type": "t_address"
      },
      {
        "astId": 59699,
        "contract": "contracts/PriceOracle/PriceOracle.sol:PriceOracle",
        "label": "eth",
        "offset": 0,
        "slot": "52",
        "type": "t_address"
      },
      {
        "astId": 59702,
        "contract": "contracts/PriceOracle/PriceOracle.sol:PriceOracle",
        "label": "gasPriceFeed",
        "offset": 0,
        "slot": "53",
        "type": "t_address"
      },
      {
        "astId": 59709,
        "contract": "contracts/PriceOracle/PriceOracle.sol:PriceOracle",
        "label": "pairPriceDrops",
        "offset": 0,
        "slot": "54",
        "type": "t_mapping(t_address,t_mapping(t_address,t_uint256))"
      },
      {
        "astId": 59716,
        "contract": "contracts/PriceOracle/PriceOracle.sol:PriceOracle",
        "label": "oraclePriceDropFeeds",
        "offset": 0,
        "slot": "55",
        "type": "t_mapping(t_address,t_mapping(t_address,t_address))"
      },
      {
        "astId": 59723,
        "contract": "contracts/PriceOracle/PriceOracle.sol:PriceOracle",
        "label": "chainLinkPriceFeeds",
        "offset": 0,
        "slot": "56",
        "type": "t_mapping(t_address,t_mapping(t_address,t_address))"
      },
      {
        "astId": 59732,
        "contract": "contracts/PriceOracle/PriceOracle.sol:PriceOracle",
        "label": "pyth",
        "offset": 0,
        "slot": "57",
        "type": "t_contract(IPyth)15661"
      },
      {
        "astId": 59735,
        "contract": "contracts/PriceOracle/PriceOracle.sol:PriceOracle",
        "label": "timeTolerance",
        "offset": 0,
        "slot": "58",
        "type": "t_uint256"
      },
      {
        "astId": 59740,
        "contract": "contracts/PriceOracle/PriceOracle.sol:PriceOracle",
        "label": "chainlinkPriceFeedsUsd",
        "offset": 0,
        "slot": "59",
        "type": "t_mapping(t_address,t_address)"
      },
      {
        "astId": 59745,
        "contract": "contracts/PriceOracle/PriceOracle.sol:PriceOracle",
        "label": "pythPairIds",
        "offset": 0,
        "slot": "60",
        "type": "t_mapping(t_address,t_bytes32)"
      },
      {
        "astId": 59750,
        "contract": "contracts/PriceOracle/PriceOracle.sol:PriceOracle",
        "label": "univ3TypeOracles",
        "offset": 0,
        "slot": "61",
        "type": "t_mapping(t_uint256,t_address)"
      },
      {
        "astId": 59759,
        "contract": "contracts/PriceOracle/PriceOracle.sol:PriceOracle",
        "label": "univ3TrustedPairs",
        "offset": 0,
        "slot": "62",
        "type": "t_mapping(t_uint256,t_mapping(t_address,t_mapping(t_address,t_bool)))"
      },
      {
        "astId": 59768,
        "contract": "contracts/PriceOracle/PriceOracle.sol:PriceOracle",
        "label": "supraPullOracle",
        "offset": 0,
        "slot": "63",
        "type": "t_contract(ISupraOraclePull)78486"
      },
      {
        "astId": 59772,
        "contract": "contracts/PriceOracle/PriceOracle.sol:PriceOracle",
        "label": "supraStorageOracle",
        "offset": 0,
        "slot": "64",
        "type": "t_contract(ISupraSValueFeed)78525"
      },
      {
        "astId": 59780,
        "contract": "contracts/PriceOracle/PriceOracle.sol:PriceOracle",
        "label": "supraDataFeedID",
        "offset": 0,
        "slot": "65",
        "type": "t_mapping(t_address,t_mapping(t_address,t_struct(SupraDataFeedId)56799_storage))"
      },
      {
        "astId": 59783,
        "contract": "contracts/PriceOracle/PriceOracle.sol:PriceOracle",
        "label": "usdt",
        "offset": 0,
        "slot": "66",
        "type": "t_address"
      },
      {
        "astId": 59786,
        "contract": "contracts/PriceOracle/PriceOracle.sol:PriceOracle",
        "label": "treasury",
        "offset": 0,
        "slot": "67",
        "type": "t_address"
      },
      {
        "astId": 59795,
        "contract": "contracts/PriceOracle/PriceOracle.sol:PriceOracle",
        "label": "orallyOracle",
        "offset": 0,
        "slot": "68",
        "type": "t_contract(IOrallyVerifierOracle)15114"
      },
      {
        "astId": 59802,
        "contract": "contracts/PriceOracle/PriceOracle.sol:PriceOracle",
        "label": "orallySymbol",
        "offset": 0,
        "slot": "69",
        "type": "t_mapping(t_address,t_mapping(t_address,t_string_storage))"
      },
      {
        "astId": 59805,
        "contract": "contracts/PriceOracle/PriceOracle.sol:PriceOracle",
        "label": "orallyTimeTolerance",
        "offset": 0,
        "slot": "70",
        "type": "t_uint256"
      },
      {
        "astId": 59809,
        "contract": "contracts/PriceOracle/PriceOracle.sol:PriceOracle",
        "label": "storkVerify",
        "offset": 0,
        "slot": "71",
        "type": "t_contract(IStorkVerify)78465"
      },
      {
        "astId": 59812,
        "contract": "contracts/PriceOracle/PriceOracle.sol:PriceOracle",
        "label": "storkPublicKey",
        "offset": 0,
        "slot": "72",
        "type": "t_address"
      },
      {
        "astId": 59819,
        "contract": "contracts/PriceOracle/PriceOracle.sol:PriceOracle",
        "label": "storkAssetPairId",
        "offset": 0,
        "slot": "73",
        "type": "t_mapping(t_address,t_mapping(t_address,t_string_storage))"
      },
      {
        "astId": 59825,
        "contract": "contracts/PriceOracle/PriceOracle.sol:PriceOracle",
        "label": "curveTypeOracles",
        "offset": 0,
        "slot": "74",
        "type": "t_mapping(t_enum(CurveOracleKind)56839,t_address)"
      },
      {
        "astId": 59830,
        "contract": "contracts/PriceOracle/PriceOracle.sol:PriceOracle",
        "label": "eip4626TokenToUnderlyingAsset",
        "offset": 0,
        "slot": "75",
        "type": "t_mapping(t_address,t_address)"
      },
      {
        "astId": 59835,
        "contract": "contracts/PriceOracle/PriceOracle.sol:PriceOracle",
        "label": "isUniswapV2LP",
        "offset": 0,
        "slot": "76",
        "type": "t_mapping(t_address,t_bool)"
      },
      {
        "astId": 59839,
        "contract": "contracts/PriceOracle/PriceOracle.sol:PriceOracle",
        "label": "uniswapV2LPOracle",
        "offset": 0,
        "slot": "77",
        "type": "t_contract(IUniswapV2LPOracle)74574"
      }
    ],
    "types": {
      "t_address": {
        "encoding": "inplace",
        "label": "address",
        "numberOfBytes": "20"
      },
      "t_array(t_uint256)50_storage": {
        "base": "t_uint256",
        "encoding": "inplace",
        "label": "uint256[50]",
        "numberOfBytes": "1600"
      },
      "t_bool": {
        "encoding": "inplace",
        "label": "bool",
        "numberOfBytes": "1"
      },
      "t_bytes32": {
        "encoding": "inplace",
        "label": "bytes32",
        "numberOfBytes": "32"
      },
      "t_contract(IOrallyVerifierOracle)15114": {
        "encoding": "inplace",
        "label": "contract IOrallyVerifierOracle",
        "numberOfBytes": "20"
      },
      "t_contract(IPyth)15661": {
        "encoding": "inplace",
        "label": "contract IPyth",
        "numberOfBytes": "20"
      },
      "t_contract(IStorkVerify)78465": {
        "encoding": "inplace",
        "label": "contract IStorkVerify",
        "numberOfBytes": "20"
      },
      "t_contract(ISupraOraclePull)78486": {
        "encoding": "inplace",
        "label": "contract ISupraOraclePull",
        "numberOfBytes": "20"
      },
      "t_contract(ISupraSValueFeed)78525": {
        "encoding": "inplace",
        "label": "contract ISupraSValueFeed",
        "numberOfBytes": "20"
      },
      "t_contract(IUniswapV2LPOracle)74574": {
        "encoding": "inplace",
        "label": "contract IUniswapV2LPOracle",
        "numberOfBytes": "20"
      },
      "t_enum(CurveOracleKind)56839": {
        "encoding": "inplace",
        "label": "enum IPriceOracleStorageV4.CurveOracleKind",
        "numberOfBytes": "1"
      },
      "t_mapping(t_address,t_address)": {
        "encoding": "mapping",
        "key": "t_address",
        "label": "mapping(address => address)",
        "numberOfBytes": "32",
        "value": "t_address"
      },
      "t_mapping(t_address,t_bool)": {
        "encoding": "mapping",
        "key": "t_address",
        "label": "mapping(address => bool)",
        "numberOfBytes": "32",
        "value": "t_bool"
      },
      "t_mapping(t_address,t_bytes32)": {
        "encoding": "mapping",
        "key": "t_address",
        "label": "mapping(address => bytes32)",
        "numberOfBytes": "32",
        "value": "t_bytes32"
      },
      "t_mapping(t_address,t_mapping(t_address,t_address))": {
        "encoding": "mapping",
        "key": "t_address",
        "label": "mapping(address => mapping(address => address))",
        "numberOfBytes": "32",
        "value": "t_mapping(t_address,t_address)"
      },
      "t_mapping(t_address,t_mapping(t_address,t_bool))": {
        "encoding": "mapping",
        "key": "t_address",
        "label": "mapping(address => mapping(address => bool))",
        "numberOfBytes": "32",
        "value": "t_mapping(t_address,t_bool)"
      },
      "t_mapping(t_address,t_mapping(t_address,t_string_storage))": {
        "encoding": "mapping",
        "key": "t_address",
        "label": "mapping(address => mapping(address => string))",
        "numberOfBytes": "32",
        "value": "t_mapping(t_address,t_string_storage)"
      },
      "t_mapping(t_address,t_mapping(t_address,t_struct(SupraDataFeedId)56799_storage))": {
        "encoding": "mapping",
        "key": "t_address",
        "label": "mapping(address => mapping(address => struct IPriceOracleStorageV3.SupraDataFeedId))",
        "numberOfBytes": "32",
        "value": "t_mapping(t_address,t_struct(SupraDataFeedId)56799_storage)"
      },
      "t_mapping(t_address,t_mapping(t_address,t_uint256))": {
        "encoding": "mapping",
        "key": "t_address",
        "label": "mapping(address => mapping(address => uint256))",
        "numberOfBytes": "32",
        "value": "t_mapping(t_address,t_uint256)"
      },
      "t_mapping(t_address,t_string_storage)": {
        "encoding": "mapping",
        "key": "t_address",
        "label": "mapping(address => string)",
        "numberOfBytes": "32",
        "value": "t_string_storage"
      },
      "t_mapping(t_address,t_struct(SupraDataFeedId)56799_storage)": {
        "encoding": "mapping",
        "key": "t_address",
        "label": "mapping(address => struct IPriceOracleStorageV3.SupraDataFeedId)",
        "numberOfBytes": "32",
        "value": "t_struct(SupraDataFeedId)56799_storage"
      },
      "t_mapping(t_address,t_uint256)": {
        "encoding": "mapping",
        "key": "t_address",
        "label": "mapping(address => uint256)",
        "numberOfBytes": "32",
        "value": "t_uint256"
      },
      "t_mapping(t_enum(CurveOracleKind)56839,t_address)": {
        "encoding": "mapping",
        "key": "t_enum(CurveOracleKind)56839",
        "label": "mapping(enum IPriceOracleStorageV4.CurveOracleKind => address)",
        "numberOfBytes": "32",
        "value": "t_address"
      },
      "t_mapping(t_uint256,t_address)": {
        "encoding": "mapping",
        "key": "t_uint256",
        "label": "mapping(uint256 => address)",
        "numberOfBytes": "32",
        "value": "t_address"
      },
      "t_mapping(t_uint256,t_mapping(t_address,t_mapping(t_address,t_bool)))": {
        "encoding": "mapping",
        "key": "t_uint256",
        "label": "mapping(uint256 => mapping(address => mapping(address => bool)))",
        "numberOfBytes": "32",
        "value": "t_mapping(t_address,t_mapping(t_address,t_bool))"
      },
      "t_string_storage": {
        "encoding": "bytes",
        "label": "string",
        "numberOfBytes": "32"
      },
      "t_struct(SupraDataFeedId)56799_storage": {
        "encoding": "inplace",
        "label": "struct IPriceOracleStorageV3.SupraDataFeedId",
        "members": [
          {
            "astId": 56796,
            "contract": "contracts/PriceOracle/PriceOracle.sol:PriceOracle",
            "label": "id",
            "offset": 0,
            "slot": "0",
            "type": "t_uint256"
          },
          {
            "astId": 56798,
            "contract": "contracts/PriceOracle/PriceOracle.sol:PriceOracle",
            "label": "initialize",
            "offset": 0,
            "slot": "1",
            "type": "t_bool"
          }
        ],
        "numberOfBytes": "64"
      },
      "t_uint256": {
        "encoding": "inplace",
        "label": "uint256",
        "numberOfBytes": "32"
      },
      "t_uint8": {
        "encoding": "inplace",
        "label": "uint8",
        "numberOfBytes": "1"
      }
    }
  }
}