{
  "address": "0xA9AE323eb7240F7978dE216899D53A1069EF9640",
  "abi": [
    {
      "inputs": [],
      "name": "DS_MATH_ADD_OVERFLOW",
      "type": "error"
    },
    {
      "inputs": [],
      "name": "DS_MATH_MUL_OVERFLOW",
      "type": "error"
    },
    {
      "inputs": [],
      "name": "ToAddressOutOfBounds",
      "type": "error"
    },
    {
      "inputs": [],
      "name": "ToAddressOverflow",
      "type": "error"
    },
    {
      "anonymous": false,
      "inputs": [
        {
          "indexed": true,
          "internalType": "address",
          "name": "withdrawer",
          "type": "address"
        },
        {
          "indexed": false,
          "internalType": "address",
          "name": "borrowAssetReceiver",
          "type": "address"
        },
        {
          "indexed": false,
          "internalType": "address",
          "name": "borrowedAsset",
          "type": "address"
        },
        {
          "indexed": false,
          "internalType": "uint256",
          "name": "amount",
          "type": "uint256"
        },
        {
          "indexed": false,
          "internalType": "uint256",
          "name": "timestamp",
          "type": "uint256"
        }
      ],
      "name": "Withdraw",
      "type": "event"
    },
    {
      "inputs": [
        {
          "internalType": "bytes",
          "name": "encodedPath",
          "type": "bytes"
        },
        {
          "internalType": "address",
          "name": "dexRouter",
          "type": "address"
        },
        {
          "internalType": "address payable",
          "name": "dexAdapter",
          "type": "address"
        }
      ],
      "name": "decodePath",
      "outputs": [
        {
          "internalType": "address[]",
          "name": "path",
          "type": "address[]"
        }
      ],
      "stateMutability": "view",
      "type": "function"
    },
    {
      "inputs": [
        {
          "internalType": "address[]",
          "name": "path",
          "type": "address[]"
        },
        {
          "internalType": "address",
          "name": "dexRouter",
          "type": "address"
        },
        {
          "internalType": "bytes32",
          "name": "ancillaryData",
          "type": "bytes32"
        },
        {
          "internalType": "address payable",
          "name": "dexAdapter",
          "type": "address"
        },
        {
          "internalType": "bool",
          "name": "isAmountToBuy",
          "type": "bool"
        }
      ],
      "name": "encodePath",
      "outputs": [
        {
          "internalType": "bytes",
          "name": "",
          "type": "bytes"
        }
      ],
      "stateMutability": "view",
      "type": "function"
    },
    {
      "inputs": [
        {
          "internalType": "address",
          "name": "_bucket",
          "type": "address"
        },
        {
          "internalType": "address",
          "name": "_positionAsset",
          "type": "address"
        },
        {
          "internalType": "uint256",
          "name": "_positionAmount",
          "type": "uint256"
        },
        {
          "internalType": "uint256",
          "name": "_positionDebt",
          "type": "uint256"
        },
        {
          "internalType": "address",
          "name": "_primexDNS",
          "type": "address"
        }
      ],
      "name": "getLiquidationPrice",
      "outputs": [
        {
          "internalType": "uint256",
          "name": "",
          "type": "uint256"
        }
      ],
      "stateMutability": "view",
      "type": "function"
    },
    {
      "inputs": [
        {
          "internalType": "address",
          "name": "_priceOracle",
          "type": "address"
        },
        {
          "internalType": "contract IKeeperRewardDistributorV3",
          "name": "_keeperRewardDistributor",
          "type": "IKeeperRewardDistributorV3"
        },
        {
          "internalType": "contract IPrimexDNSV3",
          "name": "_primexDNS",
          "type": "IPrimexDNSV3"
        },
        {
          "internalType": "enum IPrimexDNSStorageV3.TradingOrderType",
          "name": "_tradingOrderType",
          "type": "IPrimexDNSStorageV3.TradingOrderType"
        }
      ],
      "name": "minPositionSize",
      "outputs": [
        {
          "internalType": "uint256",
          "name": "minPositionSizeInNativeAsset",
          "type": "uint256"
        }
      ],
      "stateMutability": "view",
      "type": "function"
    }
  ],
  "transactionHash": "0x7a844822f747d99dd25f0cb41ff607c21027ba6b05871f39602e3e5d14b9ac52",
  "args": [],
  "numDeployments": 4,
  "solcInputHash": "b9821e6aa5ae8bcd6a583375e546781d",
  "bytecode": "0x60808060405234601b5761458c90816100218239308160070152f35b600080fdfe6080604052307f000000000000000000000000000000000000000000000000000000000000000014600436101561003557600080fd5b60003560e01c80631e6b63d6146101825780632ec174b8146101775780634de2ac66146101725780635f335960146101675780635f6602211461015c57806360e7c0e414610157578063681e0f5a146101525780637296b81114610147578063735aad251461013c57806373dd1d05146101315780639227001414610126578063ae3e51781461011b578063b18bb31314610110578063ce4fda7a14610105578063e6e928f0146100fa5763f1c55e3f146100ef57600080fd5b15611a6f575b600080fd5b50156119eb57600080fd5b501561196657600080fd5b501561185357600080fd5b501561121257600080fd5b501561116757600080fd5b501561100a57600080fd5b5015610f7957600080fd5b5015610ee457600080fd5b610d80565b6107f2565b501561077f57600080fd5b501561069957600080fd5b610610565b501561058e57600080fd5b6102ed565b634e487b7160e01b600052604160045260246000fd5b608081019081106001600160401b038211176101b857604052565b610187565b90601f801991011681019081106001600160401b038211176101b857604052565b604051906101ee610100836101bd565b565b604051906101ee610180836101bd565b604051906101ee6101c0836101bd565b9291926001600160401b0382116101b85760405191610239601f8201601f1916602001846101bd565b8294818452818301116100f5578281602093846000960137010152565b9080601f830112156100f55781602061027193359101610210565b90565b6001600160a01b038116036100f557565b602435906101ee82610274565b35906101ee82610274565b606435906101ee82610274565b602060408183019282815284518094520192019060005b8181106102ce5750505090565b82516001600160a01b03168452602093840193909201916001016102c1565b60603660031901126100f5576004356001600160401b0381116100f557610318903690600401610256565b610362602060243561032981610274565b60443561033581610274565b60405163c2909fed60e01b81526001600160a01b0390921660048301529092839190829081906024820190565b03916001600160a01b03165afa90811561054d5760009161051e575b5061038881611c0e565b60018114801561050b575b156103bf57506103af816020806103bb94518301019101611f1a565b604051918291826102aa565b0390f35b6103c881611c0e565b60028103610445575060006103e76103e283516017900490565b611d06565b906103f182611c75565b926000915b83831061040a57505050506103bb906103af565b61043d60019161043861041f855183876140e2565b610429878a611cdf565b6001600160a01b039091169052565b611d14565b9201916103f6565b61044e81611c0e565b60038103610473575061046d816020806103bb94518301019101611ed3565b506103af565b61047c81611c0e565b600481036104a2575061049b816020806103bb94518301019101611e1d565b50506103af565b806104ae600592611c0e565b036105065760006104c182516014900490565b906104cb82611c75565b926000915b8383106104e457505050506103bb906103af565b6104fe6001916104f961041f855183876140e2565b611cf3565b9201916104d0565b6140d0565b5061051581611c0e565b60068114610393565b610540915060203d602011610546575b61053881836101bd565b810190611bd4565b3861037e565b503d61052e565b611bec565b60a4359060068210156100f557565b9181601f840112156100f5578235916001600160401b0383116100f557602083818601950101116100f557565b60e03660031901126100f5576004356105a681610274565b604435906024356105b683610274565b606435916105c383610274565b6084356105cf81610274565b6105d7610552565b9060c435946001600160401b0386116100f5576020966105fe610606973690600401610561565b969095611f3f565b6040519015158152f35b60803660031901126100f55760043561062881610274565b6024359061063582610274565b60443561064181610274565b6064359060068210156100f55760209361065a93611f92565b604051908152f35b801515036100f557565b608435906101ee82610662565b35906101ee82610662565b600811156100f557565b35906101ee82610684565b60203660031901126100f5576004356001600160401b0381116100f55761010060031982360301126100f5576106cd6101de565b90806004013582526106e160248201610292565b60208301526106f260448201610292565b604083015261070360648201610292565b606083015261071460848201610292565b608083015261072560a48201610679565b60a083015261073660c4820161068e565b60c083015260e4810135916001600160401b0383116100f55761076561076f9260046103bb9536920101610256565b60e0820152612115565b6040519081529081906020820190565b60e03660031901126100f55760043561079781610274565b602435906107a482610274565b604435916107b183610274565b6064359160a4356084356107c482610274565b60c435946001600160401b0386116100f5576020966107ea61065a973690600401610561565b969095612380565b60a03660031901126100f55760043561080a81610274565b6024359061081782610274565b6064359160049060843560443561082d82610274565b6001600160a01b03831692610843841515614421565b61085d61084e612417565b6001600160a01b039097168752565b855160209061087c906001600160a01b03165b6001600160a01b031690565b604051631e46e62f60e21b815296879182905afa801561054d57600495600091610cf8575b506001600160a01b03166020870190815286516020906108c9906001600160a01b0316610870565b60405163011ddaef60e71b815297889182905afa95861561054d57600096610cd0575b506001600160a01b0390951660608701908152946004929190805160209061091c906001600160a01b0316610870565b604051632630c12f60e01b815295869182905afa91821561054d57600494600093610c9f575b506001600160a01b039092166040890190815291875160209061096d906001600160a01b0316610870565b60405163313ce56760e01b815296879182905afa801561054d5761099f6109a491600497600091610c86575b5061246a565b61247b565b82519098906020906109be906001600160a01b0316610870565b6040516301ddf49360e61b815297889182905afa801561054d57610a046108706109f6602093610a4c9a600091610c39575b5061248c565b95516001600160a01b031690565b8251610a18906001600160a01b0316610870565b60405163a8905dab60e01b81526001600160a01b038087166004830152909116602482015297889190829081906044820190565b03915afa95861561054d57610870610a92610870610a84602097610a7e610ad49c610aa097600091610c6f575061248c565b90614392565b97516001600160a01b031690565b92516001600160a01b031690565b604051631dae49b960e21b81526001600160a01b039384166004820152921660248301529094859190829081906044820190565b03915afa90811561054d57610a7e610af792610afc95600091610c56575061248c565b614392565b6040516345a1aa4160e11b815260026004820152600060248201529091602090829060449082906001600160a01b03165afa801561054d57600492610a7e610b4e92602094600091610c39575061248c565b926040519283809263313ce56760e01b82525afa91821561054d576108706109f6610b9292610b8c61099f600497602097600091610c0c575061246a565b90611f7f565b60405163280188b760e21b815292839182905afa92831561054d57610bd383610bce6103bb9761076f97610bd896600091610bdd575b50614392565b611f7f565b614485565b611c33565b610bff915060203d602011610c05575b610bf781836101bd565b810190612371565b38610bc8565b503d610bed565b610c2c9150883d8a11610c32575b610c2481836101bd565b810190612451565b38610999565b503d610c1a565b610c509150853d8711610c0557610bf781836101bd565b386109f0565b610c50915060203d602011610c0557610bf781836101bd565b610c5091508b3d8d11610c0557610bf781836101bd565b610c2c915060203d602011610c3257610c2481836101bd565b610cc291935060203d602011610cc9575b610cba81836101bd565b81019061243c565b9138610942565b503d610cb0565b60049392919650610cef9060203d602011610cc957610cba81836101bd565b959091926108ec565b610d11915060203d602011610cc957610cba81836101bd565b386108a1565b6001600160401b0381116101b85760051b60200190565b919082519283825260005b848110610d5a575050826000602080949584010152601f8019910116010190565b80602080928401015182828601015201610d39565b906020610271928181520190610d2e565b60a03660031901126100f5576004356001600160401b0381116100f557366023820112156100f557806004013590610db782610d17565b91610dc560405193846101bd565b8083526024602084019160051b830101913683116100f557602401905b828210610e1e576103bb610e1285610df8610285565b604435610e0361029d565b91610e0c61066c565b9361265f565b60405191829182610d6f565b602080918335610e2d81610274565b815201910190610de2565b929190610e4481610d17565b93610e5260405195866101bd565b602085838152019160051b81019283116100f557905b828210610e7457505050565b8135815260209182019101610e68565b9080601f830112156100f55781602061027193359101610e38565b906020808351928381520192019060005b818110610ebd5750505090565b8251845260209384019390920191600101610eb0565b906020610271928181520190610e9f565b60a03660031901126100f557600435610efc81610274565b60243590610f0982610274565b6044356001600160401b0381116100f557610f28903690600401610e84565b9160643591610f3683610274565b608435926001600160401b0384116100f5576103bb94610f5d610f65953690600401610561565b9490936128f3565b604051918291602083526020830190610e9f565b60a03660031901126100f557600435610f9181610274565b60243590610f9e82610274565b60443590606435610fae81610274565b608435926001600160401b0384116100f557602094610fd461065a953690600401610256565b93612c07565b9181601f840112156100f5578235916001600160401b0383116100f5576020808501948460051b0101116100f557565b60603660031901126100f5576004356001600160401b0381116100f55761018060031982360301126100f55761103e6101f0565b908060040135825261105260248201610292565b602083015261106360448201610292565b60408301526110746064820161068e565b606083015261108560848201610292565b608083015260a48101356001600160401b0381116100f557611105916110b46101649260043691840101610e84565b60a08501526110c560c48201610292565b60c085015260e481013560e08501526101048101356101008501526110ed6101248201610292565b61012085015261014481013561014085015201610679565b6101608201526024356001600160401b0381116100f55761112a903690600401610561565b9190604435916001600160401b0383116100f5576103bb9361115361115b943690600401610fda565b939092612e14565b60405191829182610ed3565b60c03660031901126100f5576004356001600160401b0381116100f55760c060031982360301126100f557604435906024356111a283610274565b606435916111af83610274565b6084356111bb81610662565b60a435936001600160401b0385116100f5576103bb956111e261076f963690600401610561565b9590946004016133d2565b909161120461027193604084526040840190610e9f565b916020818403910152610e9f565b60203660031901126100f5576001600160401b03600435116100f5576101e0600435360360031901126100f55761124761356d565b6004356004013561125781611c75565b5061126181611c75565b9161012460043501600460a06112796108708461311c565b60405163062be34160e41b815292839182905afa90811561054d5784926000808182948396611817575b50604088019460e089019660c08a015286526112c790859060018060a01b03169052565b6001600160a01b031660208701526001600160a01b031685526112e99061311c565b916112f860a46004350161311c565b9161130760c4600435016135fd565b61131560846004350161311c565b61132760048035606481019101613607565b6113366101046004350161311c565b94516004356101848101359661014490910135959094916001600160a01b03166001600160a01b03169751986113716101646004350161363c565b9a61137a6101f0565b9c8d526001600160a01b031660208d01526001600160a01b031660408c01526113a69060608c01613646565b6001600160a01b031660808a015236906113bf92610e38565b60a08801526001600160a01b031660c087015260e08601526101008501526001600160a01b0316610120840152610140830152151561016082015261140d600480356101a481019101613652565b9161142060048035604481019101613607565b9261142c949192612e14565b9160005b818110611449575050506103bb604051928392836111ed565b61147261087061146d83611467602460043501600435600401613607565b90613684565b61311c565b156117f5576114dc604061148d61087060e46004350161311c565b6114a861146d85611467604460043501600435600401613607565b8651835163c23f001f60e01b81526001600160a01b0392831660048201529116602482015292839190829081906044820190565b03915afa90811561054d576000916117c6575b50608084015261150b6115076101646004350161363c565b1590565b80611785575b80611778575b611526575b6001905b01611430565b8251611576906001600160a01b031661154360846004350161311c565b608086015161155660a46004350161311c565b91610fd461156f6101c460043501600435600401613652565b3691610210565b60a0840190815261159661158a8387611cdf565b5160c086015190614392565b6115b76115af6060870192808452608088015190611f7f565b835190611c33565b6115c18489611cdf565b528151905111611691575060006115d88286611cdf565b526115ea61087060e46004350161311c565b9061160661146d82611467604460043501600435600401613607565b60208501516001600160a01b031685519093906001600160a01b03169061162d848a611cdf565b5194813b156100f5576000809461165a6040519889968795869463c268dd3160e01b8652600486016136b5565b03925af191821561054d57600192611676575b505b905061151c565b80611685600061168b936101bd565b806136aa565b3861166d565b6116b46116c49160808601516116a7858a611cdf565b525160c086015190614485565b6116be8387611cdf565b516124a8565b6116ce8286611cdf565b526116e061087060e46004350161311c565b906116fc61146d82611467604460043501600435600401613607565b60208501516001600160a01b031685519093906001600160a01b031690608087015194813b156100f5576000809461174a6040519889968795869463c268dd3160e01b8652600486016136b5565b03925af191821561054d57600192611763575b5061166f565b806116856000611772936101bd565b3861175d565b5060808301511515611517565b506117a161146d82611467602460043501600435600401613607565b83516117b5906001600160a01b0316610870565b6001600160a01b0390911614611511565b6117e7915060403d81116117ee575b6117df81836101bd565b810190613694565b50386114ef565b503d6117d5565b80600061180460019387611cdf565b5260006118118288611cdf565b52611520565b93955050505061183f915060a03d60a01161184c575b61183781836101bd565b8101906135bb565b94909390929091386112a3565b503d61182d565b60203660031901126100f5576004356001600160401b0381116100f55761018060031982360301126100f5576118876101f0565b61189382600401610292565b81526118a160248301610292565b60208201526118b26044830161068e565b60408201526118c360648301610292565b6060820152608482013560808201526118de60a48301610292565b60a082015260c482013560c08201526118f960e48301610679565b60e0820152610104820135906001600160401b0382116100f55761195b6101646103bb9461193061076f9560043691840101610256565b6101008501526119436101248201610292565b61012085015261014481013561014085015201610292565b6101608201526136fc565b60e03660031901126100f55760243560043561198182610274565b6044359161198e83610274565b60643561199a81610274565b6084356119a681610274565b6119ae610552565b9160c435956001600160401b0387116100f5576105fe6119d2973690600401610561565b156119d957005b60405163b9748abb60e01b8152600490fd5b60a03660031901126100f5576004356001600160401b0381116100f557608060031982360301126100f55760243590611a2382610662565b60443591611a3083610274565b60643591611a3d83610274565b608435926001600160401b0384116100f5576103bb94611a6461076f953690600401610561565b949093600401613a83565b60203660031901126100f5576004356001600160401b0381116100f5576101c060031982360301126100f557611aa3610200565b611aaf82600401610292565b8152611abd60248301610292565b6020820152611ace60448301610292565b6040820152611adf6064830161068e565b6060820152611af060848301610292565b6080820152611b0160a48301610292565b60a0820152611b1260c48301610292565b60c0820152611b2360e48301610292565b60e0820152611b356101048301610292565b610100820152610124820135610120820152610144820135610140820152611b606101648301610679565b6101608201526101848201356001600160401b0381116100f557611b8a9060043691850101610256565b6101808201526101a48201356001600160401b0381116100f557611bc2926004611bb79236920101610256565b6101a0820152613bbf565b60408051928352602083019190915290f35b908160209103126100f5575160098110156100f55790565b6040513d6000823e3d90fd5b634e487b7160e01b600052602160045260246000fd5b60091115611c1857565b611bf8565b634e487b7160e01b600052601160045260246000fd5b8115611c3d570490565b634e487b7160e01b600052601260045260246000fd5b60408051909190611c6483826101bd565b6001815291601f1901366020840137565b90611c7f82610d17565b611c8c60405191826101bd565b8281528092611c9d601f1991610d17565b0190602036910137565b634e487b7160e01b600052603260045260246000fd5b805160011015611ccd5760400190565b611ca7565b805115611ccd5760200190565b8051821015611ccd5760209160051b010190565b9060148201809211611d0157565b611c1d565b9060018201809211611d0157565b9060178201809211611d0157565b670de0b6b3a7640000019081670de0b6b3a764000011611d0157565b90608c8201809211611d0157565b91908201809211611d0157565b9080601f830112156100f5578151611d7081610d17565b92611d7e60405194856101bd565b81845260208085019260051b8201019283116100f557602001905b828210611da65750505090565b602080918351611db581610274565b815201910190611d99565b9080601f830112156100f5578151611dd781610d17565b92611de560405194856101bd565b81845260208085019260051b8201019283116100f557602001905b828210611e0d5750505090565b8151815260209182019101611e00565b916060838303126100f55782516001600160401b0381116100f55782611e44918501611d59565b9260208101516001600160401b0381116100f557810183601f820112156100f557805190611e7182610d17565b91611e7f60405193846101bd565b80835260208084019160051b830101918683116100f557602001905b828210611ec3575050509260408201516001600160401b0381116100f5576102719201611dc0565b8151815260209182019101611e9b565b9190916040818403126100f55780516001600160401b0381116100f55783611efc918301611d59565b9260208201516001600160401b0381116100f5576102719201611d59565b906020828203126100f55781516001600160401b0381116100f5576102719201611d59565b94611f5690611f5e9395611f649893999587611f92565b923691610210565b92612ae7565b111590565b908160041b9180830460101490151715611d0157565b81810292918115918404141715611d0157565b81611f9f91959495614149565b91604051946310d9d4d760e31b86526006811015611c18576004860152608090859060249082906001600160a01b03165afa91821561054d57600091828096819561200b575b509261200661027196979361200061200694610af797614273565b92611f7f565b611d4c565b9450955091506080833d608011612055575b8161202a608093836101bd565b81010312612051578251602084015160408501516060909501519496509290612006611fe5565b8480fd5b3d915061201d565b6040519061018082018281106001600160401b038211176101b8576040526000610160838281528260208201528260408201528260608201528260808201528260a08201528260c08201528260e08201528261010082015282610120820152826101408201520152565b60081115611c1857565b60021115611c1857565b908160a09103126100f5578051916020820151916040810151916080606083015192015190565b919060208301926002821015611c185752565b61211d61205d565b60408201805160608401805190949291612143916001600160a01b039081169116614149565b6020840190815260c083016002815161215b816120c7565b612164816120c7565b14908115612353575b50156123465760016101408501525b60808301516121c790612197906001600160a01b0316610870565b9160a06101408701938451906121ac826120d1565b6040518080968194639a9a775f60e01b835260048301612102565b03915afa96871561054d57866102719860009283809481978294612300575b509161221a9161222094936060870197608088019a60a089019887610100820152528752895286525160018060a01b031690565b90614273565b946040890195865261223560a0890151151590565b1561229157505092612251612251926122599551905190611f7f565b905190611d4c565b60c08401525b602082015160e0906122889060c0906001600160a01b031695015192516001600160a01b031690565b92015192612ae7565b6001919250516122a0816120d1565b6122a9816120d1565b036122ce57506122c492612251612251928851905190611f7f565b60c084015261225f565b92612251612251926122f26122ea6122c4978a51905190611d4c565b8a519061440f565b908160e08b01525190611f7f565b91505061221a9650612330919450612220925060a03d60a01161233f575b61232881836101bd565b8101906120db565b909891969094509291906121e6565b503d61231e565b600061014085015261217c565b6003915051612361816120c7565b61236a816120c7565b143861216d565b908160209103126100f5575190565b9596929361239d6123a39296936123978189614149565b92614273565b94611f7f565b928301809311611d01576040516324890e1560e21b815290602090829060049082906001600160a01b03165afa90811561054d576000916123f8575b508201809211611d015761027194611f5e913691610210565b612411915060203d602011610c0557610bf781836101bd565b386123df565b604051906124248261019d565b60006060838281528260208201528260408201520152565b908160209103126100f5575161027181610274565b908160209103126100f5575160ff811681036100f55790565b60ff166012039060ff8211611d0157565b60ff16604d8111611d0157600a0a90565b670de0b6b3a76400000390670de0b6b3a76400008211611d0157565b91908203918211611d0157565b906008821015611c185752565b60206000919392936124d88160408101966124b5565b0152565b906020808351928381520192019060005b8181106124fa5750505090565b82516001600160a01b03168452602093840193909201916001016124ed565b9060206102719281815201906124dc565b6040516001600160601b031991821660208201526001600160e81b031990921660348301529091166037820152602b8152906101ee604b836101bd565b6040516001600160601b031991821660208201529116603482015260288152906101ee6048836101bd565b90916125a9610271936040845260408401906124dc565b9160208184039101526124dc565b604051606091906125c883826101bd565b6002815291601f1901366020840137565b906125ec906060835260608301906124dc565b81810360208301526020808451928381520193019060005b8181106126495750505060408183039101526020808351928381520192019060005b8181106126335750505090565b8251845260209384019390920191600101612626565b8251855260209485019490920191600101612604565b60405163c2909fed60e01b81526001600160a01b03928316600482015292949093909160209184916024918391165afa91821561054d57600092612873575b506126a882611c0e565b600182148015612860575b612846576126c082611c0e565b600282146127f1576126d182611c0e565b6005821461278257506126e381611c0e565b6003811461274d57806126f7600492611c0e565b036140d0576102719061273f61270b6125b7565b6001600160ff1b0361271c82611cd2565b52612725611c53565b9461272f86611cd2565b52604051948593602085016125d9565b03601f1981018352826101bd565b506102719061277061275d611c53565b936001600160a01b031661042985611cd2565b61273f60405193849260208401612592565b919250506127cf57806127c96127b36127a66127c36127b36127a661027197611cd2565b516001600160a01b031690565b60601b6001600160601b03191690565b93611cbd565b90612567565b806127c96127b36127a66127eb6127b36127a661027197611cbd565b93611cd2565b905091909161282a57816128166127b36127a66127c36127b36127a661027198611cd2565b9160e81b6001600160e81b0319169061252a565b816128166127b36127a66127eb6127b36127a661027198611cbd565b505061273f91506102719060405192839160208301612519565b5061286a82611c0e565b600682146126b3565b61288d91925060203d6020116105465761053881836101bd565b903861269e565b908160209103126100f5575161027181610662565b908060209392818452848401376000828201840152601f01601f1916010190565b6001600160a01b03918216815291166020820152606060408201819052610271939101916128a9565b6040516301ffc9a760e01b81526333ca6d2360e21b6004820152929695909490936001600160a01b031692602081602481875afa801561054d5761293f91600091612a8f575b50614421565b6001600160a01b038281169390861692838514612a8657906020929160006129678b51611c75565b98612988604051998a968795869463416be2f360e01b8652600486016128ca565b03925af192831561054d57600093612a61575b5060206004916040519283809263313ce56760e01b82525afa90811561054d576129d461099f600493602093600091612a4a575061246a565b926040519283809263313ce56760e01b82525afa90811561054d57612a049161099f91600091610c86575061246a565b9460005b8151811015612a415780612a3088610bd887610af788612a2a6001988a611cdf565b51611f7f565b612a3a8288611cdf565b5201612a08565b50929450505050565b610c2c9150843d8611610c3257610c2481836101bd565b6004919350612a7e602091823d8411610c0557610bf781836101bd565b93915061299b565b50505050505050565b612ab1915060203d602011612ab7575b612aa981836101bd565b810190612894565b38612939565b503d612a9f565b6001600160a01b0391821681529116602082015260606040820181905261027192910190610d2e565b6040516301ffc9a760e01b81526333ca6d2360e21b6004820152919390926001600160a01b031691602081602481865afa801561054d57612b2f91600091612a8f5750614421565b7399ec76235f8a5a52611b0da5f0c6b09e1dcd2c9e6001600160a01b03841614612c0157612b8f6000949260209260405196878094819363416be2f360e01b8352897399ec76235f8a5a52611b0da5f0c6b09e1dcd2c9e60048501612abe565b03925af192831561054d5761027193612bd692612bd092600092612bdc575b50610af790610b8c7399ec76235f8a5a52611b0da5f0c6b09e1dcd2c9e6144d8565b916144d8565b90611c33565b610af7919250612bfa9060203d602011610c0557610bf781836101bd565b9190612bae565b50505090565b6040516301ffc9a760e01b81526333ca6d2360e21b6004820152909491936001600160a01b03169190602081602481865afa801561054d57612c5091600091612a8f5750614421565b6001600160a01b0385811690851614612cde57612c8a60009260209260405194858094819363416be2f360e01b83528a8c60048501612abe565b03925af193841561054d5761027194612bd693612bd093600092612cb7575b50610b8c610af792936144d8565b610af79250612cd7610b8c9160203d602011610c0557610bf781836101bd565b9250612ca9565b505091505090565b60405190612cf38261019d565b60006060838181528260208201528260408201520152565b6020818303126100f5578051906001600160401b0382116100f557019080601f830112156100f5578151612d3e81610d17565b92612d4c60405194856101bd565b81845260208085019260051b8201019283116100f557602001905b828210612d745750505090565b8151815260209182019101612d67565b602080825281018390526040019160005b818110612da25750505090565b9091926020806001928635612db681610274565b848060a01b031681520194019101919091612d95565b6060602091612ddf8160408101956124b5565b60408382015284518094520192019060005b818110612dfe5750505090565b8251845260209384019390920191600101612df1565b94909194612e20612ce6565b9361014082015160001981146000146130eb5750612e92600019975b6040878101998a5260808501519085015160c08601516001600160a01b039182169892821691612e6c9116610870565b60e0870151610100880151602089018051909b919391906001600160a01b031694612380565b9360608601948552612ea48351611c75565b8652606091610160840197612eb98951151590565b15612ff657505051612f0490602090612eda906001600160a01b0316610870565b606085015190612ee9826120c7565b60405180809581946345a1aa4160e11b8352600483016124c2565b03915afa90811561054d57600091612fd7575b5060208601529491945b602085019260005b8351811015612fcb57600190612f426115078451151590565b612fb9575b612f8560a08601612f65612f5c848351611cdf565b51895190614392565b612f70848c51611cdf565b52612f7e838a519251611cdf565b511161443a565b612fa7612f9f612f96838b51611cdf565b51895190614549565b8b519061440f565b612fb2828a51611cdf565b5201612f29565b612fc38185611cdf565b518652612f47565b50509351955050505050565b612ff0915060203d602011610c0557610bf781836101bd565b38612f17565b915190925061305a9190600090613015906001600160a01b0316610870565b91606086015194613025866120c7565b61012087015161303d906001600160a01b0316610870565b9060405180968194829363467ae8d760e11b845260048401612d84565b03915afa90811561054d576130909360009384936130cf575b50604051809581948293637445646560e11b845260048401612dcc565b03915afa90811561054d576000916130ac575b50949194612f21565b6130c991503d806000833e6130c181836101bd565b810190612d0b565b386130a3565b6130e49193503d8086833e6130c181836101bd565b9138613073565b60808301516040840151612e9292613116926001600160a01b03908116921690611f5e368d8b610210565b97612e3c565b3561027181610274565b9035601e19823603018112156100f55701602081359101916001600160401b0382116100f5578160051b360383136100f557565b9035601e19823603018112156100f55701602081359101916001600160401b0382116100f55781360383136100f557565b9035603e19823603018112156100f5570190565b8183526020600583901b8401810193926000918401835b8284106131c65750505050505090565b90919293949695601f198882030183526131e0868361318b565b6131f66040830191803584526020810190613126565b839192604060208396015252606081019060608460051b82010193836000905b82821061323c5750505050505060208060019297019301940192919390969495966131b6565b909192939495605f9d9c9b9d19858203018652613259878361318b565b906132826040820192803561326d81610274565b6001600160a01b031683526020810190613126565b829193604060208395015252606081019060608360051b820101938093600092605e1983360301925b8285106132d357505050505050506020809d9e9c9d6001929801960192019093929193613216565b90919293949596605f198382030187528735858112156100f5576020613339600193858394019061332b61331861330a848061315a565b6060855260608501916128a9565b928581013586840152604081019061315a565b9160408185039101526128a9565b990197019501939291906132ab565b60208152813561335781610274565b6001600160a01b031660208281019190915282013561337581610274565b60018060a01b031660408201526040820135606082015260c060a06133b06133a06060860186613126565b84608087015260e086019161319f565b9360808101356133bf81610274565b600180841b031682850152013591015290565b9195939594909294602083019061342d6133f16108706108708561311c565b602060808701916134018361311c565b6040516370a0823160e01b81526001600160a01b03909116600482015293849190829081906024820190565b03915afa91821561054d5760009261354c575b50602060405180946319cb60dd60e11b8252816000816134638c60048301613348565b03926001600160a01b03165af190811561054d5761349c93602092613531575b506134016134966108706108708861311c565b9161311c565b03915afa801561054d576134b892600091613512575b506124a8565b966134c7575b50505050505090565b613507956134ff9584610fd46134f99560406134ee6134e8610a7e9a61311c565b9761311c565b930135933691610210565b9161248c565b821015614453565b3880808080806134be565b61352b915060203d602011610c0557610bf781836101bd565b386134b2565b61354790833d8511610c0557610bf781836101bd565b613483565b61356691925060203d602011610c0557610bf781836101bd565b9038613440565b6040519061010082018281106001600160401b038211176101b857604052600060e0838281528260208201528260408201528260608201528260808201528260a08201528260c08201520152565b908160a09103126100f55780516135d181610274565b9160208201516135e081610274565b9160408101516135ef81610274565b916080606083015192015190565b3561027181610684565b903590601e19813603018212156100f557018035906001600160401b0382116100f557602001918160051b360383136100f557565b3561027181610662565b6008821015611c185752565b903590601e19813603018212156100f557018035906001600160401b0382116100f5576020019181360383136100f557565b9190811015611ccd5760051b0190565b91908260409103126100f5576020825192015190565b60009103126100f557565b6001600160a01b0391821681529181166020830152909116604082015260608101919091526000608082015260a00190565b602090939291936124d88160408101966124b5565b613704612417565b815190919061371b906001600160a01b0316610870565b90604081019283519361372d856120c7565b60e083019461373c8651151590565b1561399157602090613768956000915b6040518098819482936345a1aa4160e11b8452600484016136e7565b03915afa93841561054d57600094613970575b5083825261378e60808401948551614392565b946020830195865261014084015160001981146000146139425750600019935b6040840194855282516137c0816120c7565b6137c9816120c7565b158015613925575b8015613908575b156137f657505050506137f09150825190519061440f565b81525190565b9260606138e96137f097946138f694610765886138e060c06139009b0151946138d761382a8985015160018060a01b031690565b60208501519096906138c7906001600160a01b031660a08701516138b89061385a906001600160a01b0316610870565b916138a861010061387b6138748c5160018060a01b031690565b9751151590565b98519a6138878c6120c7565b01519b60206138946101de565b9e8f526001600160a01b03909116908e0152565b6001600160a01b031660408c0152565b6001600160a01b0316898c0152565b6001600160a01b03166080880152565b151560a0860152565b60c08401613646565b910192818452511161443a565b8451905190614549565b90519061440f565b5060078351613916816120c7565b61391f816120c7565b146137d8565b5060018351613933816120c7565b61393c816120c7565b146137d1565b6060850151602086015161010087015161396a9390926001600160a01b039283169216612ae7565b936137ae565b61398a91945060203d602011610c0557610bf781836101bd565b923861377b565b6101208401516139e391906020906139b1906001600160a01b0316610870565b61016087015160405163304f823d60e11b81526001600160a01b03909116600482015293849190829081906024820190565b03915afa95861561054d5761376896602093600091613a04575b509161374c565b613a1b9150843d8611610c0557610bf781836101bd565b386139fd565b60a0613a7361027193602084528035613a3981610274565b600180851b031660208501526020810135613a5381610274565b600180851b03166040850152604081013560608501526060810190613126565b919092608080820152019161319f565b6040516301ffc9a760e01b81526333ca6d2360e21b60048201529195929493909290916020816024816001600160a01b0387165afa801561054d57613acf91600091612a8f5750614421565b613ad88361311c565b926020810193613aea6108708661311c565b6001600160a01b0390911614613b985760206040518097637d744fc960e11b825281600081613b1c8760048301613a21565b03926001600160a01b03165af195861561054d57600096613b77575b508596613b485750505050505090565b610fd4613b5d9560406134ee6134e88561311c565b809111613b6f575b80808080806134be565b905038613b65565b613b9191965060203d602011610c0557610bf781836101bd565b9438613b38565b94505050505060409150613bba613bb26060830183613607565b90501561446c565b013590565b8051600092906001600160a01b0316156140c757613bdb61356d565b60e08301805160049060a090613bf9906001600160a01b0316610870565b60405163062be34160e41b815292839182905afa801561054d576000918293838092819461409b575b5060c0870193845260e087019283526001600160a01b039094166040870190815260208701959094906001600160a01b031686526001600160a01b03168652516001600160a01b03166040880180519194916001600160a01b03169460608a015195613c8d876120c7565b6101008b01805190958c916001600160a01b031661012083015160c0840151909791906001600160a01b0316610140850151906101608601998a51613cd190151590565b6101a088015195519094906001600160a01b03166001600160a01b0316965160209098018051909f906001600160a01b031699613d0c6101f0565b6001600160a01b03909c168c526001600160a01b031660208c0152613d349060408c01613646565b6001600160a01b031660608a015260808901526001600160a01b031660a088015260c0870152151560e08601526101008501526001600160a01b03166101208401526101408301526001600160a01b0316610160820152613d94906136fc565b60808a01805187518a5160405163c23f001f60e01b81526001600160a01b0392831660048201529082166024820152929d939c93929116816044815a93604094fa90811561054d5760009161407b575b5060808a0181815283519095906001600160a01b03168b51613e0e906001600160a01b0316610870565b6001600160a01b03909116149182614071575b5081614067575b501561403557508751613e689291906001600160a01b031685519092906001600160a01b031685519151610180906001600160a01b031693015193612c07565b97613e74845182614392565b98613e8481610bd885518d611f7f565b998110613f0a575050505050613ebc613eae613eae613eae61087060009a5160018060a01b031690565b93516001600160a01b031690565b90803b156100f557859360008094613eea6040519788968795869463c268dd3160e01b8652600486016136b5565b03925af1801561054d57613efb5750565b8061168560006101ee936101bd565b82939795949950613f32610a9292613f2c61087093613f4096519d5190614485565b906124a8565b9a516001600160a01b031690565b8451909290613f60906001600160a01b031694516001600160a01b031690565b915193813b156100f55760008094613f8e6040519788968795869463c268dd3160e01b8652600486016136b5565b03925af1801561054d57614020575b5090517306722b0998Fa48c2Ad5e7cFeCFACDa54E148d37d9190613fd3906001600160a01b03165b91516001600160a01b031690565b90823b156100f557604051636336129b60e11b81526001600160a01b039182166004820152911660248201526044810185905290600090829060649082905af4801561054d57613efb5750565b80611685600061402f936101bd565b38613f9d565b999a5050505093505050613fd3613fc57306722b0998Fa48c2Ad5e7cFeCFACDa54E148d37d935160018060a01b031690565b5115905038613e28565b1515915038613e21565b614094915060403d6040116117ee576117df81836101bd565b5038613de4565b9350509350506140ba915060a03d60a01161184c5761183781836101bd565b9294919390919038613c22565b60009250829150565b6040516368a1e68f60e11b8152600490fd5b91601482019082821061410d57106140fc57016014015190565b63a78aa27f60e01b60005260046000fd5b633b8a373160e11b60005260046000fd5b91908260809103126100f5578151916020810151916060604083015192015160038110156100f55790565b9190614153612417565b60405163455259cb60e01b81523a94602090829060049082906001600160a01b03165afa92831561054d5760049360809260009161424a575b508352604051632c18d6af60e21b815293849182906001600160a01b03165afa91821561054d57602092600091600091614217575b508060408401528160608401528251906000821360001461420c5750610a7e6141e992611d22565b9182915b0152803a118015614204575b6142005750565b9150565b503a156141f9565b9150509182916141ed565b905061423b915060803d608011614243575b61423381836101bd565b81019061411e565b5050386141c1565b503d614229565b614263915060203d602011610c0557610bf781836101bd565b3861418c565b60031115611c1857565b604051632c18d6af60e21b81529091608090829060049082906001600160a01b03165afa801561054d5760009160009161436c575b506142b281614269565b6001811461430e57806142c6600292614269565b146142d2575050600090565b60405163f1c7a58b60e01b81526004810192909252602082602481600f602160991b015afa801561054d5761027192600091610bdd5750614392565b505060405163f5d6ded760e01b815290602082600481606c5afa801561054d57614347610b8c916102719460009161434d575b50611f69565b91611d3e565b614366915060203d602011610c0557610bf781836101bd565b38614341565b9050614387915060803d6080116142435761423381836101bd565b9250905090386142a8565b60009180159182156143ef575b5050156143de576706f05b59d3b20000810190818111611d015781106143cd57670de0b6b3a7640000900490565b630a77254f60e01b60005260046000fd5b631550e8b760e01b60005260046000fd5b915091506144076144008383611f7f565b9283611c33565b14388061439f565b908082101561441c575090565b905090565b1561442857565b60405163044aa57560e41b8152600490fd5b1561444157565b6040516320d4705560e01b8152600490fd5b1561445a57565b6040516305a8e09560e31b8152600490fd5b1561447357565b6040516336c2f55f60e21b8152600490fd5b90600091670de0b6b3a7640000810292818404670de0b6b3a76400001482151715611d015750670de0b6b3a76400008304036143de578060011c820191828111611d015782106143cd5761027191611c33565b6001600160a01b03167399ec76235f8a5a52611b0da5f0c6b09e1dcd2c9e81146145435761034881146145395760206004916040519283809263313ce56760e01b82525afa90811561054d576102719161099f91600091610c86575061246a565b506402540be40090565b50600190565b908082111561441c57509056fea2646970667358221220a693a28e0d1b8f0f00d2ca8bc22978583dddc199a2a024e4433fe4bfb4584a3164736f6c634300081a0033",
  "deployedBytecode": "0x6080604052307f000000000000000000000000000000000000000000000000000000000000000014600436101561003557600080fd5b60003560e01c80631e6b63d6146101825780632ec174b8146101775780634de2ac66146101725780635f335960146101675780635f6602211461015c57806360e7c0e414610157578063681e0f5a146101525780637296b81114610147578063735aad251461013c57806373dd1d05146101315780639227001414610126578063ae3e51781461011b578063b18bb31314610110578063ce4fda7a14610105578063e6e928f0146100fa5763f1c55e3f146100ef57600080fd5b15611a6f575b600080fd5b50156119eb57600080fd5b501561196657600080fd5b501561185357600080fd5b501561121257600080fd5b501561116757600080fd5b501561100a57600080fd5b5015610f7957600080fd5b5015610ee457600080fd5b610d80565b6107f2565b501561077f57600080fd5b501561069957600080fd5b610610565b501561058e57600080fd5b6102ed565b634e487b7160e01b600052604160045260246000fd5b608081019081106001600160401b038211176101b857604052565b610187565b90601f801991011681019081106001600160401b038211176101b857604052565b604051906101ee610100836101bd565b565b604051906101ee610180836101bd565b604051906101ee6101c0836101bd565b9291926001600160401b0382116101b85760405191610239601f8201601f1916602001846101bd565b8294818452818301116100f5578281602093846000960137010152565b9080601f830112156100f55781602061027193359101610210565b90565b6001600160a01b038116036100f557565b602435906101ee82610274565b35906101ee82610274565b606435906101ee82610274565b602060408183019282815284518094520192019060005b8181106102ce5750505090565b82516001600160a01b03168452602093840193909201916001016102c1565b60603660031901126100f5576004356001600160401b0381116100f557610318903690600401610256565b610362602060243561032981610274565b60443561033581610274565b60405163c2909fed60e01b81526001600160a01b0390921660048301529092839190829081906024820190565b03916001600160a01b03165afa90811561054d5760009161051e575b5061038881611c0e565b60018114801561050b575b156103bf57506103af816020806103bb94518301019101611f1a565b604051918291826102aa565b0390f35b6103c881611c0e565b60028103610445575060006103e76103e283516017900490565b611d06565b906103f182611c75565b926000915b83831061040a57505050506103bb906103af565b61043d60019161043861041f855183876140e2565b610429878a611cdf565b6001600160a01b039091169052565b611d14565b9201916103f6565b61044e81611c0e565b60038103610473575061046d816020806103bb94518301019101611ed3565b506103af565b61047c81611c0e565b600481036104a2575061049b816020806103bb94518301019101611e1d565b50506103af565b806104ae600592611c0e565b036105065760006104c182516014900490565b906104cb82611c75565b926000915b8383106104e457505050506103bb906103af565b6104fe6001916104f961041f855183876140e2565b611cf3565b9201916104d0565b6140d0565b5061051581611c0e565b60068114610393565b610540915060203d602011610546575b61053881836101bd565b810190611bd4565b3861037e565b503d61052e565b611bec565b60a4359060068210156100f557565b9181601f840112156100f5578235916001600160401b0383116100f557602083818601950101116100f557565b60e03660031901126100f5576004356105a681610274565b604435906024356105b683610274565b606435916105c383610274565b6084356105cf81610274565b6105d7610552565b9060c435946001600160401b0386116100f5576020966105fe610606973690600401610561565b969095611f3f565b6040519015158152f35b60803660031901126100f55760043561062881610274565b6024359061063582610274565b60443561064181610274565b6064359060068210156100f55760209361065a93611f92565b604051908152f35b801515036100f557565b608435906101ee82610662565b35906101ee82610662565b600811156100f557565b35906101ee82610684565b60203660031901126100f5576004356001600160401b0381116100f55761010060031982360301126100f5576106cd6101de565b90806004013582526106e160248201610292565b60208301526106f260448201610292565b604083015261070360648201610292565b606083015261071460848201610292565b608083015261072560a48201610679565b60a083015261073660c4820161068e565b60c083015260e4810135916001600160401b0383116100f55761076561076f9260046103bb9536920101610256565b60e0820152612115565b6040519081529081906020820190565b60e03660031901126100f55760043561079781610274565b602435906107a482610274565b604435916107b183610274565b6064359160a4356084356107c482610274565b60c435946001600160401b0386116100f5576020966107ea61065a973690600401610561565b969095612380565b60a03660031901126100f55760043561080a81610274565b6024359061081782610274565b6064359160049060843560443561082d82610274565b6001600160a01b03831692610843841515614421565b61085d61084e612417565b6001600160a01b039097168752565b855160209061087c906001600160a01b03165b6001600160a01b031690565b604051631e46e62f60e21b815296879182905afa801561054d57600495600091610cf8575b506001600160a01b03166020870190815286516020906108c9906001600160a01b0316610870565b60405163011ddaef60e71b815297889182905afa95861561054d57600096610cd0575b506001600160a01b0390951660608701908152946004929190805160209061091c906001600160a01b0316610870565b604051632630c12f60e01b815295869182905afa91821561054d57600494600093610c9f575b506001600160a01b039092166040890190815291875160209061096d906001600160a01b0316610870565b60405163313ce56760e01b815296879182905afa801561054d5761099f6109a491600497600091610c86575b5061246a565b61247b565b82519098906020906109be906001600160a01b0316610870565b6040516301ddf49360e61b815297889182905afa801561054d57610a046108706109f6602093610a4c9a600091610c39575b5061248c565b95516001600160a01b031690565b8251610a18906001600160a01b0316610870565b60405163a8905dab60e01b81526001600160a01b038087166004830152909116602482015297889190829081906044820190565b03915afa95861561054d57610870610a92610870610a84602097610a7e610ad49c610aa097600091610c6f575061248c565b90614392565b97516001600160a01b031690565b92516001600160a01b031690565b604051631dae49b960e21b81526001600160a01b039384166004820152921660248301529094859190829081906044820190565b03915afa90811561054d57610a7e610af792610afc95600091610c56575061248c565b614392565b6040516345a1aa4160e11b815260026004820152600060248201529091602090829060449082906001600160a01b03165afa801561054d57600492610a7e610b4e92602094600091610c39575061248c565b926040519283809263313ce56760e01b82525afa91821561054d576108706109f6610b9292610b8c61099f600497602097600091610c0c575061246a565b90611f7f565b60405163280188b760e21b815292839182905afa92831561054d57610bd383610bce6103bb9761076f97610bd896600091610bdd575b50614392565b611f7f565b614485565b611c33565b610bff915060203d602011610c05575b610bf781836101bd565b810190612371565b38610bc8565b503d610bed565b610c2c9150883d8a11610c32575b610c2481836101bd565b810190612451565b38610999565b503d610c1a565b610c509150853d8711610c0557610bf781836101bd565b386109f0565b610c50915060203d602011610c0557610bf781836101bd565b610c5091508b3d8d11610c0557610bf781836101bd565b610c2c915060203d602011610c3257610c2481836101bd565b610cc291935060203d602011610cc9575b610cba81836101bd565b81019061243c565b9138610942565b503d610cb0565b60049392919650610cef9060203d602011610cc957610cba81836101bd565b959091926108ec565b610d11915060203d602011610cc957610cba81836101bd565b386108a1565b6001600160401b0381116101b85760051b60200190565b919082519283825260005b848110610d5a575050826000602080949584010152601f8019910116010190565b80602080928401015182828601015201610d39565b906020610271928181520190610d2e565b60a03660031901126100f5576004356001600160401b0381116100f557366023820112156100f557806004013590610db782610d17565b91610dc560405193846101bd565b8083526024602084019160051b830101913683116100f557602401905b828210610e1e576103bb610e1285610df8610285565b604435610e0361029d565b91610e0c61066c565b9361265f565b60405191829182610d6f565b602080918335610e2d81610274565b815201910190610de2565b929190610e4481610d17565b93610e5260405195866101bd565b602085838152019160051b81019283116100f557905b828210610e7457505050565b8135815260209182019101610e68565b9080601f830112156100f55781602061027193359101610e38565b906020808351928381520192019060005b818110610ebd5750505090565b8251845260209384019390920191600101610eb0565b906020610271928181520190610e9f565b60a03660031901126100f557600435610efc81610274565b60243590610f0982610274565b6044356001600160401b0381116100f557610f28903690600401610e84565b9160643591610f3683610274565b608435926001600160401b0384116100f5576103bb94610f5d610f65953690600401610561565b9490936128f3565b604051918291602083526020830190610e9f565b60a03660031901126100f557600435610f9181610274565b60243590610f9e82610274565b60443590606435610fae81610274565b608435926001600160401b0384116100f557602094610fd461065a953690600401610256565b93612c07565b9181601f840112156100f5578235916001600160401b0383116100f5576020808501948460051b0101116100f557565b60603660031901126100f5576004356001600160401b0381116100f55761018060031982360301126100f55761103e6101f0565b908060040135825261105260248201610292565b602083015261106360448201610292565b60408301526110746064820161068e565b606083015261108560848201610292565b608083015260a48101356001600160401b0381116100f557611105916110b46101649260043691840101610e84565b60a08501526110c560c48201610292565b60c085015260e481013560e08501526101048101356101008501526110ed6101248201610292565b61012085015261014481013561014085015201610679565b6101608201526024356001600160401b0381116100f55761112a903690600401610561565b9190604435916001600160401b0383116100f5576103bb9361115361115b943690600401610fda565b939092612e14565b60405191829182610ed3565b60c03660031901126100f5576004356001600160401b0381116100f55760c060031982360301126100f557604435906024356111a283610274565b606435916111af83610274565b6084356111bb81610662565b60a435936001600160401b0385116100f5576103bb956111e261076f963690600401610561565b9590946004016133d2565b909161120461027193604084526040840190610e9f565b916020818403910152610e9f565b60203660031901126100f5576001600160401b03600435116100f5576101e0600435360360031901126100f55761124761356d565b6004356004013561125781611c75565b5061126181611c75565b9161012460043501600460a06112796108708461311c565b60405163062be34160e41b815292839182905afa90811561054d5784926000808182948396611817575b50604088019460e089019660c08a015286526112c790859060018060a01b03169052565b6001600160a01b031660208701526001600160a01b031685526112e99061311c565b916112f860a46004350161311c565b9161130760c4600435016135fd565b61131560846004350161311c565b61132760048035606481019101613607565b6113366101046004350161311c565b94516004356101848101359661014490910135959094916001600160a01b03166001600160a01b03169751986113716101646004350161363c565b9a61137a6101f0565b9c8d526001600160a01b031660208d01526001600160a01b031660408c01526113a69060608c01613646565b6001600160a01b031660808a015236906113bf92610e38565b60a08801526001600160a01b031660c087015260e08601526101008501526001600160a01b0316610120840152610140830152151561016082015261140d600480356101a481019101613652565b9161142060048035604481019101613607565b9261142c949192612e14565b9160005b818110611449575050506103bb604051928392836111ed565b61147261087061146d83611467602460043501600435600401613607565b90613684565b61311c565b156117f5576114dc604061148d61087060e46004350161311c565b6114a861146d85611467604460043501600435600401613607565b8651835163c23f001f60e01b81526001600160a01b0392831660048201529116602482015292839190829081906044820190565b03915afa90811561054d576000916117c6575b50608084015261150b6115076101646004350161363c565b1590565b80611785575b80611778575b611526575b6001905b01611430565b8251611576906001600160a01b031661154360846004350161311c565b608086015161155660a46004350161311c565b91610fd461156f6101c460043501600435600401613652565b3691610210565b60a0840190815261159661158a8387611cdf565b5160c086015190614392565b6115b76115af6060870192808452608088015190611f7f565b835190611c33565b6115c18489611cdf565b528151905111611691575060006115d88286611cdf565b526115ea61087060e46004350161311c565b9061160661146d82611467604460043501600435600401613607565b60208501516001600160a01b031685519093906001600160a01b03169061162d848a611cdf565b5194813b156100f5576000809461165a6040519889968795869463c268dd3160e01b8652600486016136b5565b03925af191821561054d57600192611676575b505b905061151c565b80611685600061168b936101bd565b806136aa565b3861166d565b6116b46116c49160808601516116a7858a611cdf565b525160c086015190614485565b6116be8387611cdf565b516124a8565b6116ce8286611cdf565b526116e061087060e46004350161311c565b906116fc61146d82611467604460043501600435600401613607565b60208501516001600160a01b031685519093906001600160a01b031690608087015194813b156100f5576000809461174a6040519889968795869463c268dd3160e01b8652600486016136b5565b03925af191821561054d57600192611763575b5061166f565b806116856000611772936101bd565b3861175d565b5060808301511515611517565b506117a161146d82611467602460043501600435600401613607565b83516117b5906001600160a01b0316610870565b6001600160a01b0390911614611511565b6117e7915060403d81116117ee575b6117df81836101bd565b810190613694565b50386114ef565b503d6117d5565b80600061180460019387611cdf565b5260006118118288611cdf565b52611520565b93955050505061183f915060a03d60a01161184c575b61183781836101bd565b8101906135bb565b94909390929091386112a3565b503d61182d565b60203660031901126100f5576004356001600160401b0381116100f55761018060031982360301126100f5576118876101f0565b61189382600401610292565b81526118a160248301610292565b60208201526118b26044830161068e565b60408201526118c360648301610292565b6060820152608482013560808201526118de60a48301610292565b60a082015260c482013560c08201526118f960e48301610679565b60e0820152610104820135906001600160401b0382116100f55761195b6101646103bb9461193061076f9560043691840101610256565b6101008501526119436101248201610292565b61012085015261014481013561014085015201610292565b6101608201526136fc565b60e03660031901126100f55760243560043561198182610274565b6044359161198e83610274565b60643561199a81610274565b6084356119a681610274565b6119ae610552565b9160c435956001600160401b0387116100f5576105fe6119d2973690600401610561565b156119d957005b60405163b9748abb60e01b8152600490fd5b60a03660031901126100f5576004356001600160401b0381116100f557608060031982360301126100f55760243590611a2382610662565b60443591611a3083610274565b60643591611a3d83610274565b608435926001600160401b0384116100f5576103bb94611a6461076f953690600401610561565b949093600401613a83565b60203660031901126100f5576004356001600160401b0381116100f5576101c060031982360301126100f557611aa3610200565b611aaf82600401610292565b8152611abd60248301610292565b6020820152611ace60448301610292565b6040820152611adf6064830161068e565b6060820152611af060848301610292565b6080820152611b0160a48301610292565b60a0820152611b1260c48301610292565b60c0820152611b2360e48301610292565b60e0820152611b356101048301610292565b610100820152610124820135610120820152610144820135610140820152611b606101648301610679565b6101608201526101848201356001600160401b0381116100f557611b8a9060043691850101610256565b6101808201526101a48201356001600160401b0381116100f557611bc2926004611bb79236920101610256565b6101a0820152613bbf565b60408051928352602083019190915290f35b908160209103126100f5575160098110156100f55790565b6040513d6000823e3d90fd5b634e487b7160e01b600052602160045260246000fd5b60091115611c1857565b611bf8565b634e487b7160e01b600052601160045260246000fd5b8115611c3d570490565b634e487b7160e01b600052601260045260246000fd5b60408051909190611c6483826101bd565b6001815291601f1901366020840137565b90611c7f82610d17565b611c8c60405191826101bd565b8281528092611c9d601f1991610d17565b0190602036910137565b634e487b7160e01b600052603260045260246000fd5b805160011015611ccd5760400190565b611ca7565b805115611ccd5760200190565b8051821015611ccd5760209160051b010190565b9060148201809211611d0157565b611c1d565b9060018201809211611d0157565b9060178201809211611d0157565b670de0b6b3a7640000019081670de0b6b3a764000011611d0157565b90608c8201809211611d0157565b91908201809211611d0157565b9080601f830112156100f5578151611d7081610d17565b92611d7e60405194856101bd565b81845260208085019260051b8201019283116100f557602001905b828210611da65750505090565b602080918351611db581610274565b815201910190611d99565b9080601f830112156100f5578151611dd781610d17565b92611de560405194856101bd565b81845260208085019260051b8201019283116100f557602001905b828210611e0d5750505090565b8151815260209182019101611e00565b916060838303126100f55782516001600160401b0381116100f55782611e44918501611d59565b9260208101516001600160401b0381116100f557810183601f820112156100f557805190611e7182610d17565b91611e7f60405193846101bd565b80835260208084019160051b830101918683116100f557602001905b828210611ec3575050509260408201516001600160401b0381116100f5576102719201611dc0565b8151815260209182019101611e9b565b9190916040818403126100f55780516001600160401b0381116100f55783611efc918301611d59565b9260208201516001600160401b0381116100f5576102719201611d59565b906020828203126100f55781516001600160401b0381116100f5576102719201611d59565b94611f5690611f5e9395611f649893999587611f92565b923691610210565b92612ae7565b111590565b908160041b9180830460101490151715611d0157565b81810292918115918404141715611d0157565b81611f9f91959495614149565b91604051946310d9d4d760e31b86526006811015611c18576004860152608090859060249082906001600160a01b03165afa91821561054d57600091828096819561200b575b509261200661027196979361200061200694610af797614273565b92611f7f565b611d4c565b9450955091506080833d608011612055575b8161202a608093836101bd565b81010312612051578251602084015160408501516060909501519496509290612006611fe5565b8480fd5b3d915061201d565b6040519061018082018281106001600160401b038211176101b8576040526000610160838281528260208201528260408201528260608201528260808201528260a08201528260c08201528260e08201528261010082015282610120820152826101408201520152565b60081115611c1857565b60021115611c1857565b908160a09103126100f5578051916020820151916040810151916080606083015192015190565b919060208301926002821015611c185752565b61211d61205d565b60408201805160608401805190949291612143916001600160a01b039081169116614149565b6020840190815260c083016002815161215b816120c7565b612164816120c7565b14908115612353575b50156123465760016101408501525b60808301516121c790612197906001600160a01b0316610870565b9160a06101408701938451906121ac826120d1565b6040518080968194639a9a775f60e01b835260048301612102565b03915afa96871561054d57866102719860009283809481978294612300575b509161221a9161222094936060870197608088019a60a089019887610100820152528752895286525160018060a01b031690565b90614273565b946040890195865261223560a0890151151590565b1561229157505092612251612251926122599551905190611f7f565b905190611d4c565b60c08401525b602082015160e0906122889060c0906001600160a01b031695015192516001600160a01b031690565b92015192612ae7565b6001919250516122a0816120d1565b6122a9816120d1565b036122ce57506122c492612251612251928851905190611f7f565b60c084015261225f565b92612251612251926122f26122ea6122c4978a51905190611d4c565b8a519061440f565b908160e08b01525190611f7f565b91505061221a9650612330919450612220925060a03d60a01161233f575b61232881836101bd565b8101906120db565b909891969094509291906121e6565b503d61231e565b600061014085015261217c565b6003915051612361816120c7565b61236a816120c7565b143861216d565b908160209103126100f5575190565b9596929361239d6123a39296936123978189614149565b92614273565b94611f7f565b928301809311611d01576040516324890e1560e21b815290602090829060049082906001600160a01b03165afa90811561054d576000916123f8575b508201809211611d015761027194611f5e913691610210565b612411915060203d602011610c0557610bf781836101bd565b386123df565b604051906124248261019d565b60006060838281528260208201528260408201520152565b908160209103126100f5575161027181610274565b908160209103126100f5575160ff811681036100f55790565b60ff166012039060ff8211611d0157565b60ff16604d8111611d0157600a0a90565b670de0b6b3a76400000390670de0b6b3a76400008211611d0157565b91908203918211611d0157565b906008821015611c185752565b60206000919392936124d88160408101966124b5565b0152565b906020808351928381520192019060005b8181106124fa5750505090565b82516001600160a01b03168452602093840193909201916001016124ed565b9060206102719281815201906124dc565b6040516001600160601b031991821660208201526001600160e81b031990921660348301529091166037820152602b8152906101ee604b836101bd565b6040516001600160601b031991821660208201529116603482015260288152906101ee6048836101bd565b90916125a9610271936040845260408401906124dc565b9160208184039101526124dc565b604051606091906125c883826101bd565b6002815291601f1901366020840137565b906125ec906060835260608301906124dc565b81810360208301526020808451928381520193019060005b8181106126495750505060408183039101526020808351928381520192019060005b8181106126335750505090565b8251845260209384019390920191600101612626565b8251855260209485019490920191600101612604565b60405163c2909fed60e01b81526001600160a01b03928316600482015292949093909160209184916024918391165afa91821561054d57600092612873575b506126a882611c0e565b600182148015612860575b612846576126c082611c0e565b600282146127f1576126d182611c0e565b6005821461278257506126e381611c0e565b6003811461274d57806126f7600492611c0e565b036140d0576102719061273f61270b6125b7565b6001600160ff1b0361271c82611cd2565b52612725611c53565b9461272f86611cd2565b52604051948593602085016125d9565b03601f1981018352826101bd565b506102719061277061275d611c53565b936001600160a01b031661042985611cd2565b61273f60405193849260208401612592565b919250506127cf57806127c96127b36127a66127c36127b36127a661027197611cd2565b516001600160a01b031690565b60601b6001600160601b03191690565b93611cbd565b90612567565b806127c96127b36127a66127eb6127b36127a661027197611cbd565b93611cd2565b905091909161282a57816128166127b36127a66127c36127b36127a661027198611cd2565b9160e81b6001600160e81b0319169061252a565b816128166127b36127a66127eb6127b36127a661027198611cbd565b505061273f91506102719060405192839160208301612519565b5061286a82611c0e565b600682146126b3565b61288d91925060203d6020116105465761053881836101bd565b903861269e565b908160209103126100f5575161027181610662565b908060209392818452848401376000828201840152601f01601f1916010190565b6001600160a01b03918216815291166020820152606060408201819052610271939101916128a9565b6040516301ffc9a760e01b81526333ca6d2360e21b6004820152929695909490936001600160a01b031692602081602481875afa801561054d5761293f91600091612a8f575b50614421565b6001600160a01b038281169390861692838514612a8657906020929160006129678b51611c75565b98612988604051998a968795869463416be2f360e01b8652600486016128ca565b03925af192831561054d57600093612a61575b5060206004916040519283809263313ce56760e01b82525afa90811561054d576129d461099f600493602093600091612a4a575061246a565b926040519283809263313ce56760e01b82525afa90811561054d57612a049161099f91600091610c86575061246a565b9460005b8151811015612a415780612a3088610bd887610af788612a2a6001988a611cdf565b51611f7f565b612a3a8288611cdf565b5201612a08565b50929450505050565b610c2c9150843d8611610c3257610c2481836101bd565b6004919350612a7e602091823d8411610c0557610bf781836101bd565b93915061299b565b50505050505050565b612ab1915060203d602011612ab7575b612aa981836101bd565b810190612894565b38612939565b503d612a9f565b6001600160a01b0391821681529116602082015260606040820181905261027192910190610d2e565b6040516301ffc9a760e01b81526333ca6d2360e21b6004820152919390926001600160a01b031691602081602481865afa801561054d57612b2f91600091612a8f5750614421565b7399ec76235f8a5a52611b0da5f0c6b09e1dcd2c9e6001600160a01b03841614612c0157612b8f6000949260209260405196878094819363416be2f360e01b8352897399ec76235f8a5a52611b0da5f0c6b09e1dcd2c9e60048501612abe565b03925af192831561054d5761027193612bd692612bd092600092612bdc575b50610af790610b8c7399ec76235f8a5a52611b0da5f0c6b09e1dcd2c9e6144d8565b916144d8565b90611c33565b610af7919250612bfa9060203d602011610c0557610bf781836101bd565b9190612bae565b50505090565b6040516301ffc9a760e01b81526333ca6d2360e21b6004820152909491936001600160a01b03169190602081602481865afa801561054d57612c5091600091612a8f5750614421565b6001600160a01b0385811690851614612cde57612c8a60009260209260405194858094819363416be2f360e01b83528a8c60048501612abe565b03925af193841561054d5761027194612bd693612bd093600092612cb7575b50610b8c610af792936144d8565b610af79250612cd7610b8c9160203d602011610c0557610bf781836101bd565b9250612ca9565b505091505090565b60405190612cf38261019d565b60006060838181528260208201528260408201520152565b6020818303126100f5578051906001600160401b0382116100f557019080601f830112156100f5578151612d3e81610d17565b92612d4c60405194856101bd565b81845260208085019260051b8201019283116100f557602001905b828210612d745750505090565b8151815260209182019101612d67565b602080825281018390526040019160005b818110612da25750505090565b9091926020806001928635612db681610274565b848060a01b031681520194019101919091612d95565b6060602091612ddf8160408101956124b5565b60408382015284518094520192019060005b818110612dfe5750505090565b8251845260209384019390920191600101612df1565b94909194612e20612ce6565b9361014082015160001981146000146130eb5750612e92600019975b6040878101998a5260808501519085015160c08601516001600160a01b039182169892821691612e6c9116610870565b60e0870151610100880151602089018051909b919391906001600160a01b031694612380565b9360608601948552612ea48351611c75565b8652606091610160840197612eb98951151590565b15612ff657505051612f0490602090612eda906001600160a01b0316610870565b606085015190612ee9826120c7565b60405180809581946345a1aa4160e11b8352600483016124c2565b03915afa90811561054d57600091612fd7575b5060208601529491945b602085019260005b8351811015612fcb57600190612f426115078451151590565b612fb9575b612f8560a08601612f65612f5c848351611cdf565b51895190614392565b612f70848c51611cdf565b52612f7e838a519251611cdf565b511161443a565b612fa7612f9f612f96838b51611cdf565b51895190614549565b8b519061440f565b612fb2828a51611cdf565b5201612f29565b612fc38185611cdf565b518652612f47565b50509351955050505050565b612ff0915060203d602011610c0557610bf781836101bd565b38612f17565b915190925061305a9190600090613015906001600160a01b0316610870565b91606086015194613025866120c7565b61012087015161303d906001600160a01b0316610870565b9060405180968194829363467ae8d760e11b845260048401612d84565b03915afa90811561054d576130909360009384936130cf575b50604051809581948293637445646560e11b845260048401612dcc565b03915afa90811561054d576000916130ac575b50949194612f21565b6130c991503d806000833e6130c181836101bd565b810190612d0b565b386130a3565b6130e49193503d8086833e6130c181836101bd565b9138613073565b60808301516040840151612e9292613116926001600160a01b03908116921690611f5e368d8b610210565b97612e3c565b3561027181610274565b9035601e19823603018112156100f55701602081359101916001600160401b0382116100f5578160051b360383136100f557565b9035601e19823603018112156100f55701602081359101916001600160401b0382116100f55781360383136100f557565b9035603e19823603018112156100f5570190565b8183526020600583901b8401810193926000918401835b8284106131c65750505050505090565b90919293949695601f198882030183526131e0868361318b565b6131f66040830191803584526020810190613126565b839192604060208396015252606081019060608460051b82010193836000905b82821061323c5750505050505060208060019297019301940192919390969495966131b6565b909192939495605f9d9c9b9d19858203018652613259878361318b565b906132826040820192803561326d81610274565b6001600160a01b031683526020810190613126565b829193604060208395015252606081019060608360051b820101938093600092605e1983360301925b8285106132d357505050505050506020809d9e9c9d6001929801960192019093929193613216565b90919293949596605f198382030187528735858112156100f5576020613339600193858394019061332b61331861330a848061315a565b6060855260608501916128a9565b928581013586840152604081019061315a565b9160408185039101526128a9565b990197019501939291906132ab565b60208152813561335781610274565b6001600160a01b031660208281019190915282013561337581610274565b60018060a01b031660408201526040820135606082015260c060a06133b06133a06060860186613126565b84608087015260e086019161319f565b9360808101356133bf81610274565b600180841b031682850152013591015290565b9195939594909294602083019061342d6133f16108706108708561311c565b602060808701916134018361311c565b6040516370a0823160e01b81526001600160a01b03909116600482015293849190829081906024820190565b03915afa91821561054d5760009261354c575b50602060405180946319cb60dd60e11b8252816000816134638c60048301613348565b03926001600160a01b03165af190811561054d5761349c93602092613531575b506134016134966108706108708861311c565b9161311c565b03915afa801561054d576134b892600091613512575b506124a8565b966134c7575b50505050505090565b613507956134ff9584610fd46134f99560406134ee6134e8610a7e9a61311c565b9761311c565b930135933691610210565b9161248c565b821015614453565b3880808080806134be565b61352b915060203d602011610c0557610bf781836101bd565b386134b2565b61354790833d8511610c0557610bf781836101bd565b613483565b61356691925060203d602011610c0557610bf781836101bd565b9038613440565b6040519061010082018281106001600160401b038211176101b857604052600060e0838281528260208201528260408201528260608201528260808201528260a08201528260c08201520152565b908160a09103126100f55780516135d181610274565b9160208201516135e081610274565b9160408101516135ef81610274565b916080606083015192015190565b3561027181610684565b903590601e19813603018212156100f557018035906001600160401b0382116100f557602001918160051b360383136100f557565b3561027181610662565b6008821015611c185752565b903590601e19813603018212156100f557018035906001600160401b0382116100f5576020019181360383136100f557565b9190811015611ccd5760051b0190565b91908260409103126100f5576020825192015190565b60009103126100f557565b6001600160a01b0391821681529181166020830152909116604082015260608101919091526000608082015260a00190565b602090939291936124d88160408101966124b5565b613704612417565b815190919061371b906001600160a01b0316610870565b90604081019283519361372d856120c7565b60e083019461373c8651151590565b1561399157602090613768956000915b6040518098819482936345a1aa4160e11b8452600484016136e7565b03915afa93841561054d57600094613970575b5083825261378e60808401948551614392565b946020830195865261014084015160001981146000146139425750600019935b6040840194855282516137c0816120c7565b6137c9816120c7565b158015613925575b8015613908575b156137f657505050506137f09150825190519061440f565b81525190565b9260606138e96137f097946138f694610765886138e060c06139009b0151946138d761382a8985015160018060a01b031690565b60208501519096906138c7906001600160a01b031660a08701516138b89061385a906001600160a01b0316610870565b916138a861010061387b6138748c5160018060a01b031690565b9751151590565b98519a6138878c6120c7565b01519b60206138946101de565b9e8f526001600160a01b03909116908e0152565b6001600160a01b031660408c0152565b6001600160a01b0316898c0152565b6001600160a01b03166080880152565b151560a0860152565b60c08401613646565b910192818452511161443a565b8451905190614549565b90519061440f565b5060078351613916816120c7565b61391f816120c7565b146137d8565b5060018351613933816120c7565b61393c816120c7565b146137d1565b6060850151602086015161010087015161396a9390926001600160a01b039283169216612ae7565b936137ae565b61398a91945060203d602011610c0557610bf781836101bd565b923861377b565b6101208401516139e391906020906139b1906001600160a01b0316610870565b61016087015160405163304f823d60e11b81526001600160a01b03909116600482015293849190829081906024820190565b03915afa95861561054d5761376896602093600091613a04575b509161374c565b613a1b9150843d8611610c0557610bf781836101bd565b386139fd565b60a0613a7361027193602084528035613a3981610274565b600180851b031660208501526020810135613a5381610274565b600180851b03166040850152604081013560608501526060810190613126565b919092608080820152019161319f565b6040516301ffc9a760e01b81526333ca6d2360e21b60048201529195929493909290916020816024816001600160a01b0387165afa801561054d57613acf91600091612a8f5750614421565b613ad88361311c565b926020810193613aea6108708661311c565b6001600160a01b0390911614613b985760206040518097637d744fc960e11b825281600081613b1c8760048301613a21565b03926001600160a01b03165af195861561054d57600096613b77575b508596613b485750505050505090565b610fd4613b5d9560406134ee6134e88561311c565b809111613b6f575b80808080806134be565b905038613b65565b613b9191965060203d602011610c0557610bf781836101bd565b9438613b38565b94505050505060409150613bba613bb26060830183613607565b90501561446c565b013590565b8051600092906001600160a01b0316156140c757613bdb61356d565b60e08301805160049060a090613bf9906001600160a01b0316610870565b60405163062be34160e41b815292839182905afa801561054d576000918293838092819461409b575b5060c0870193845260e087019283526001600160a01b039094166040870190815260208701959094906001600160a01b031686526001600160a01b03168652516001600160a01b03166040880180519194916001600160a01b03169460608a015195613c8d876120c7565b6101008b01805190958c916001600160a01b031661012083015160c0840151909791906001600160a01b0316610140850151906101608601998a51613cd190151590565b6101a088015195519094906001600160a01b03166001600160a01b0316965160209098018051909f906001600160a01b031699613d0c6101f0565b6001600160a01b03909c168c526001600160a01b031660208c0152613d349060408c01613646565b6001600160a01b031660608a015260808901526001600160a01b031660a088015260c0870152151560e08601526101008501526001600160a01b03166101208401526101408301526001600160a01b0316610160820152613d94906136fc565b60808a01805187518a5160405163c23f001f60e01b81526001600160a01b0392831660048201529082166024820152929d939c93929116816044815a93604094fa90811561054d5760009161407b575b5060808a0181815283519095906001600160a01b03168b51613e0e906001600160a01b0316610870565b6001600160a01b03909116149182614071575b5081614067575b501561403557508751613e689291906001600160a01b031685519092906001600160a01b031685519151610180906001600160a01b031693015193612c07565b97613e74845182614392565b98613e8481610bd885518d611f7f565b998110613f0a575050505050613ebc613eae613eae613eae61087060009a5160018060a01b031690565b93516001600160a01b031690565b90803b156100f557859360008094613eea6040519788968795869463c268dd3160e01b8652600486016136b5565b03925af1801561054d57613efb5750565b8061168560006101ee936101bd565b82939795949950613f32610a9292613f2c61087093613f4096519d5190614485565b906124a8565b9a516001600160a01b031690565b8451909290613f60906001600160a01b031694516001600160a01b031690565b915193813b156100f55760008094613f8e6040519788968795869463c268dd3160e01b8652600486016136b5565b03925af1801561054d57614020575b50905173__$183737d697d7aa9b5df9988cbe11bc4947$__9190613fd3906001600160a01b03165b91516001600160a01b031690565b90823b156100f557604051636336129b60e11b81526001600160a01b039182166004820152911660248201526044810185905290600090829060649082905af4801561054d57613efb5750565b80611685600061402f936101bd565b38613f9d565b999a5050505093505050613fd3613fc573__$183737d697d7aa9b5df9988cbe11bc4947$__935160018060a01b031690565b5115905038613e28565b1515915038613e21565b614094915060403d6040116117ee576117df81836101bd565b5038613de4565b9350509350506140ba915060a03d60a01161184c5761183781836101bd565b9294919390919038613c22565b60009250829150565b6040516368a1e68f60e11b8152600490fd5b91601482019082821061410d57106140fc57016014015190565b63a78aa27f60e01b60005260046000fd5b633b8a373160e11b60005260046000fd5b91908260809103126100f5578151916020810151916060604083015192015160038110156100f55790565b9190614153612417565b60405163455259cb60e01b81523a94602090829060049082906001600160a01b03165afa92831561054d5760049360809260009161424a575b508352604051632c18d6af60e21b815293849182906001600160a01b03165afa91821561054d57602092600091600091614217575b508060408401528160608401528251906000821360001461420c5750610a7e6141e992611d22565b9182915b0152803a118015614204575b6142005750565b9150565b503a156141f9565b9150509182916141ed565b905061423b915060803d608011614243575b61423381836101bd565b81019061411e565b5050386141c1565b503d614229565b614263915060203d602011610c0557610bf781836101bd565b3861418c565b60031115611c1857565b604051632c18d6af60e21b81529091608090829060049082906001600160a01b03165afa801561054d5760009160009161436c575b506142b281614269565b6001811461430e57806142c6600292614269565b146142d2575050600090565b60405163f1c7a58b60e01b81526004810192909252602082602481600f602160991b015afa801561054d5761027192600091610bdd5750614392565b505060405163f5d6ded760e01b815290602082600481606c5afa801561054d57614347610b8c916102719460009161434d575b50611f69565b91611d3e565b614366915060203d602011610c0557610bf781836101bd565b38614341565b9050614387915060803d6080116142435761423381836101bd565b9250905090386142a8565b60009180159182156143ef575b5050156143de576706f05b59d3b20000810190818111611d015781106143cd57670de0b6b3a7640000900490565b630a77254f60e01b60005260046000fd5b631550e8b760e01b60005260046000fd5b915091506144076144008383611f7f565b9283611c33565b14388061439f565b908082101561441c575090565b905090565b1561442857565b60405163044aa57560e41b8152600490fd5b1561444157565b6040516320d4705560e01b8152600490fd5b1561445a57565b6040516305a8e09560e31b8152600490fd5b1561447357565b6040516336c2f55f60e21b8152600490fd5b90600091670de0b6b3a7640000810292818404670de0b6b3a76400001482151715611d015750670de0b6b3a76400008304036143de578060011c820191828111611d015782106143cd5761027191611c33565b6001600160a01b03167399ec76235f8a5a52611b0da5f0c6b09e1dcd2c9e81146145435761034881146145395760206004916040519283809263313ce56760e01b82525afa90811561054d576102719161099f91600091610c86575061246a565b506402540be40090565b50600190565b908082111561441c57509056fea2646970667358221220a693a28e0d1b8f0f00d2ca8bc22978583dddc199a2a024e4433fe4bfb4584a3164736f6c634300081a0033",
  "libraries": {
    "TokenTransfersLibrary": "0x06722b0998Fa48c2Ad5e7cFeCFACDa54E148d37d"
  },
  "devdoc": {
    "kind": "dev",
    "methods": {
      "calculateFeeInPaymentAsset(PrimexPricingLibrary.CalculateFeeInPaymentAssetParams)": {
        "returns": {
          "_0": "The amount of the protocol fee in '_feeToken' which needs to be paid according to the specified deposit parameters."
        }
      },
      "calculateFeeInPaymentAssetBatchClose(PrimexPricingLibrary.CalculateFeeInPaymentAssetBatchCloseParams,bytes,address[])": {
        "returns": {
          "_0": "The amount of the protocol fee in '_feeToken' which needs to be paid according to the specified deposit parameters."
        }
      },
      "decodePath(bytes,address,address)": {
        "params": {
          "dexAdapter": "The address of the DEX adapter.",
          "dexRouter": "The address of the DEX router.",
          "encodedPath": "The encoded path to be decoded."
        },
        "returns": {
          "path": "An array of addresses representing the decoded path."
        }
      },
      "encodePath(address[],address,bytes32,address,bool)": {
        "params": {
          "ancillaryData": "Additional data required for certain DEX types.",
          "dexAdapter": "The address of the DEX adapter.",
          "dexRouter": "The address of the DEX router.",
          "isAmountToBuy": "A flag indicating whether it is the path for the swap with fixed amountIn or amountOut. Swap with fixed amountIn, if true.",
          "path": "The token path for the swap."
        },
        "returns": {
          "_0": "The encoded bytes array."
        }
      },
      "getBatchOracleAmountsOut(address,address,uint256[],address,bytes)": {
        "params": {
          "_amountsAssetA": "An array of amounts of tokenA to sell",
          "_priceOracle": "PriceOracle contract address",
          "_tokenA": "asset for sell",
          "_tokenB": "asset to buy"
        },
        "returns": {
          "_0": "returns an array of amounts of `tokenB` by the `amountsAssetA` by the price of the oracle"
        }
      },
      "getDepositAmountInBorrowed(IDexAdapter.AmountParams,bool,address,address,bytes)": {
        "params": {
          "_isThirdAsset": "A flag indicating if deposit is in a third asset.",
          "_params": "The parameters for the calculation.",
          "_priceOracle": "The address of the price oracle."
        },
        "returns": {
          "_0": "The amount of deposit assets is measured in borrowed assets."
        }
      },
      "getLiquidationPrice(address,address,uint256,uint256,address)": {
        "details": "liquidationPrice = (feeBuffer * debt) / ((1 - securityBuffer) * (1 - oracleTolerableLimit) * (1 - priceDrop) * positionAmount))",
        "params": {
          "_bucket": "The address of the related bucket.",
          "_positionAmount": "The size of the opened position.",
          "_positionAsset": "The address of the position asset.",
          "_positionDebt": "The debt amount in debtTokens associated with the position."
        },
        "returns": {
          "_0": "The calculated liquidation price in borrowed asset."
        }
      },
      "isGreaterThanMinPositionSize(address,uint256,address,IKeeperRewardDistributorV3,IPrimexDNSV3,IPrimexDNSStorageV3.TradingOrderType,bytes)": {
        "params": {
          "_amount": "The amount of _asset being checked.",
          "_asset": "The address of the asset being checked.",
          "_priceOracle": "The address of the price oracle contract."
        },
        "returns": {
          "_0": "A boolean value indicating whether the amount corresponds to or exceeds the minimum position size."
        }
      },
      "megaSwap(PrimexPricingLibrary.MegaSwapParams,uint256,address,address,bool,bytes)": {
        "details": "This function executes a series of token swaps on different DEXs based on the provided routes.",
        "params": {
          "_dexAdapter": "The address of the Dex adapter contract.",
          "_maximumOracleTolerableLimit": "The maximum tolerable limit in WAD format (1 WAD = 100%) for the price difference between DEX and the oracle.",
          "_needOracleTolerableLimitCheck": "Flag indicating whether to perform an oracle tolerable limit check.",
          "_params": "The struct containing all the necessary parameters for the multi-hop swap.",
          "_priceOracle": "The address of the price oracle contract."
        },
        "returns": {
          "_0": "The final balance of the _params.tokenB in the receiver's address after the multi-hop swap."
        }
      },
      "payProtocolFee(PrimexPricingLibrary.ProtocolFeeParams)": {
        "details": "This function transfers the protocol fee from the trader to the protocol treasury.",
        "params": {
          "params": "The parameters for paying the protocol fee."
        },
        "returns": {
          "feeInPaymentAsset": "The amount of the protocol fee in a payment asset (position asset for the limit order execution, sold asset when the position is closed.)",
          "feeInPmx": "The amount of the protocol fee in pmx asset paid."
        }
      },
      "validateMinPositionSize(uint256,address,address,IKeeperRewardDistributorV3,IPrimexDNSV3,IPrimexDNSStorageV3.TradingOrderType,bytes)": {
        "params": {
          "_amount": "The amount of the asset in the position.",
          "_asset": "The asset associated with the position.",
          "_nativeAssetOracleData": "NativeCurrency => Asset",
          "_priceOracle": "The address of the price oracle contract."
        }
      }
    },
    "version": 1
  },
  "userdoc": {
    "kind": "user",
    "methods": {
      "calculateFeeInPaymentAsset(PrimexPricingLibrary.CalculateFeeInPaymentAssetParams)": {
        "notice": "Calculate and return protocol fee"
      },
      "calculateFeeInPaymentAssetBatchClose(PrimexPricingLibrary.CalculateFeeInPaymentAssetBatchCloseParams,bytes,address[])": {
        "notice": "Calculate and return protocol fee"
      },
      "decodePath(bytes,address,address)": {
        "notice": "Decodes an encoded path and returns an array of addresses."
      },
      "encodePath(address[],address,bytes32,address,bool)": {
        "notice": "Encodes the given parameters into a bytes array based on the specified DEX type."
      },
      "getDepositAmountInBorrowed(IDexAdapter.AmountParams,bool,address,address,bytes)": {
        "notice": "Calculates the amount of deposit assets in borrowed assets."
      },
      "getLiquidationPrice(address,address,uint256,uint256,address)": {
        "notice": "Calculates the liquidation price for a position."
      },
      "isGreaterThanMinPositionSize(address,uint256,address,IKeeperRewardDistributorV3,IPrimexDNSV3,IPrimexDNSStorageV3.TradingOrderType,bytes)": {
        "notice": "Checks if the given amount of _asset corresponds to the minimum position size _minPositionSize, based on the _minPositionAsset and the provided _priceOracle. Returns true if the amount corresponds to or exceeds the minimum position size, otherwise returns false."
      },
      "megaSwap(PrimexPricingLibrary.MegaSwapParams,uint256,address,address,bool,bytes)": {
        "notice": "Performs a multi-hop swap transaction using the specified parameters."
      },
      "minPositionSize(address,IKeeperRewardDistributorV3,IPrimexDNSV3,IPrimexDNSStorageV3.TradingOrderType)": {
        "notice": "Calculate minPositionSize based on the gas price"
      },
      "minProtocolFee(PrimexPricingLibrary.MinProtocolFeeParams)": {
        "notice": "Calculate minProtocolFee based on the gas price"
      },
      "minProtocolFeeCloseBatch(address,address,IKeeperRewardDistributorV3,uint256,uint256,IPrimexDNSV3,bytes)": {
        "notice": "Calculate minProtocolFee based on the gas price in closeBatchPositions"
      },
      "payProtocolFee(PrimexPricingLibrary.ProtocolFeeParams)": {
        "notice": "Pays the protocol fee."
      },
      "validateMinPositionSize(uint256,address,address,IKeeperRewardDistributorV3,IPrimexDNSV3,IPrimexDNSStorageV3.TradingOrderType,bytes)": {
        "notice": "Validates if a position meets the minimum size requirement."
      }
    },
    "version": 1
  },
  "storageLayout": {
    "storage": [],
    "types": null
  }
}