{
  "address": "0xf83224252A34a8F5d9B9C84d843e57cb2862245f",
  "abi": [
    {
      "inputs": [],
      "stateMutability": "nonpayable",
      "type": "constructor"
    },
    {
      "inputs": [],
      "name": "DS_MATH_ADD_OVERFLOW",
      "type": "error"
    },
    {
      "inputs": [],
      "name": "DS_MATH_MUL_OVERFLOW",
      "type": "error"
    },
    {
      "anonymous": false,
      "inputs": [
        {
          "indexed": true,
          "internalType": "address",
          "name": "owner",
          "type": "address"
        },
        {
          "indexed": true,
          "internalType": "address",
          "name": "spender",
          "type": "address"
        },
        {
          "indexed": false,
          "internalType": "uint256",
          "name": "value",
          "type": "uint256"
        }
      ],
      "name": "Approval",
      "type": "event"
    },
    {
      "anonymous": false,
      "inputs": [
        {
          "indexed": true,
          "internalType": "address",
          "name": "from",
          "type": "address"
        },
        {
          "indexed": true,
          "internalType": "address",
          "name": "to",
          "type": "address"
        },
        {
          "indexed": false,
          "internalType": "uint256",
          "name": "amount",
          "type": "uint256"
        },
        {
          "indexed": false,
          "internalType": "uint256",
          "name": "index",
          "type": "uint256"
        }
      ],
      "name": "BalanceTransfer",
      "type": "event"
    },
    {
      "anonymous": false,
      "inputs": [
        {
          "indexed": true,
          "internalType": "address",
          "name": "from",
          "type": "address"
        },
        {
          "indexed": false,
          "internalType": "uint256",
          "name": "value",
          "type": "uint256"
        }
      ],
      "name": "Burn",
      "type": "event"
    },
    {
      "anonymous": false,
      "inputs": [
        {
          "indexed": false,
          "internalType": "uint8",
          "name": "version",
          "type": "uint8"
        }
      ],
      "name": "Initialized",
      "type": "event"
    },
    {
      "anonymous": false,
      "inputs": [
        {
          "indexed": true,
          "internalType": "address",
          "name": "user",
          "type": "address"
        },
        {
          "indexed": true,
          "internalType": "uint256",
          "name": "id",
          "type": "uint256"
        },
        {
          "indexed": false,
          "internalType": "uint256",
          "name": "deadline",
          "type": "uint256"
        },
        {
          "indexed": false,
          "internalType": "uint256",
          "name": "amount",
          "type": "uint256"
        }
      ],
      "name": "LockDeposit",
      "type": "event"
    },
    {
      "anonymous": false,
      "inputs": [
        {
          "indexed": false,
          "internalType": "bytes4",
          "name": "error",
          "type": "bytes4"
        }
      ],
      "name": "Log",
      "type": "event"
    },
    {
      "anonymous": false,
      "inputs": [
        {
          "indexed": true,
          "internalType": "address",
          "name": "from",
          "type": "address"
        },
        {
          "indexed": false,
          "internalType": "uint256",
          "name": "value",
          "type": "uint256"
        }
      ],
      "name": "Mint",
      "type": "event"
    },
    {
      "anonymous": false,
      "inputs": [
        {
          "indexed": true,
          "internalType": "address",
          "name": "from",
          "type": "address"
        },
        {
          "indexed": true,
          "internalType": "address",
          "name": "to",
          "type": "address"
        },
        {
          "indexed": false,
          "internalType": "uint256",
          "name": "value",
          "type": "uint256"
        }
      ],
      "name": "Transfer",
      "type": "event"
    },
    {
      "anonymous": false,
      "inputs": [
        {
          "indexed": true,
          "internalType": "address",
          "name": "user",
          "type": "address"
        },
        {
          "indexed": true,
          "internalType": "uint256",
          "name": "id",
          "type": "uint256"
        }
      ],
      "name": "UnlockDeposit",
      "type": "event"
    },
    {
      "inputs": [
        {
          "internalType": "address",
          "name": "owner",
          "type": "address"
        },
        {
          "internalType": "address",
          "name": "spender",
          "type": "address"
        }
      ],
      "name": "allowance",
      "outputs": [
        {
          "internalType": "uint256",
          "name": "",
          "type": "uint256"
        }
      ],
      "stateMutability": "view",
      "type": "function"
    },
    {
      "inputs": [
        {
          "internalType": "address",
          "name": "spender",
          "type": "address"
        },
        {
          "internalType": "uint256",
          "name": "amount",
          "type": "uint256"
        }
      ],
      "name": "approve",
      "outputs": [
        {
          "internalType": "bool",
          "name": "",
          "type": "bool"
        }
      ],
      "stateMutability": "nonpayable",
      "type": "function"
    },
    {
      "inputs": [
        {
          "internalType": "address",
          "name": "_user",
          "type": "address"
        }
      ],
      "name": "availableBalanceOf",
      "outputs": [
        {
          "internalType": "uint256",
          "name": "result",
          "type": "uint256"
        }
      ],
      "stateMutability": "view",
      "type": "function"
    },
    {
      "inputs": [
        {
          "internalType": "address",
          "name": "_user",
          "type": "address"
        }
      ],
      "name": "balanceOf",
      "outputs": [
        {
          "internalType": "uint256",
          "name": "",
          "type": "uint256"
        }
      ],
      "stateMutability": "view",
      "type": "function"
    },
    {
      "inputs": [],
      "name": "bucket",
      "outputs": [
        {
          "internalType": "contract IBucketV3",
          "name": "",
          "type": "address"
        }
      ],
      "stateMutability": "view",
      "type": "function"
    },
    {
      "inputs": [
        {
          "internalType": "address",
          "name": "_user",
          "type": "address"
        },
        {
          "internalType": "uint256",
          "name": "_amount",
          "type": "uint256"
        },
        {
          "internalType": "uint256",
          "name": "_index",
          "type": "uint256"
        }
      ],
      "name": "burn",
      "outputs": [
        {
          "internalType": "uint256",
          "name": "",
          "type": "uint256"
        }
      ],
      "stateMutability": "nonpayable",
      "type": "function"
    },
    {
      "inputs": [],
      "name": "decimals",
      "outputs": [
        {
          "internalType": "uint8",
          "name": "",
          "type": "uint8"
        }
      ],
      "stateMutability": "view",
      "type": "function"
    },
    {
      "inputs": [
        {
          "internalType": "address",
          "name": "spender",
          "type": "address"
        },
        {
          "internalType": "uint256",
          "name": "subtractedValue",
          "type": "uint256"
        }
      ],
      "name": "decreaseAllowance",
      "outputs": [
        {
          "internalType": "bool",
          "name": "",
          "type": "bool"
        }
      ],
      "stateMutability": "nonpayable",
      "type": "function"
    },
    {
      "inputs": [
        {
          "internalType": "uint256",
          "name": "id",
          "type": "uint256"
        }
      ],
      "name": "getDepositIndexById",
      "outputs": [
        {
          "internalType": "uint256",
          "name": "index",
          "type": "uint256"
        }
      ],
      "stateMutability": "view",
      "type": "function"
    },
    {
      "inputs": [
        {
          "internalType": "address",
          "name": "_user",
          "type": "address"
        }
      ],
      "name": "getUserLockedBalance",
      "outputs": [
        {
          "components": [
            {
              "internalType": "uint256",
              "name": "totalLockedBalance",
              "type": "uint256"
            },
            {
              "components": [
                {
                  "internalType": "uint256",
                  "name": "lockedBalance",
                  "type": "uint256"
                },
                {
                  "internalType": "uint256",
                  "name": "deadline",
                  "type": "uint256"
                },
                {
                  "internalType": "uint256",
                  "name": "id",
                  "type": "uint256"
                }
              ],
              "internalType": "struct IPTokenStorage.Deposit[]",
              "name": "deposits",
              "type": "tuple[]"
            }
          ],
          "internalType": "struct IPTokenStorage.LockedBalance",
          "name": "",
          "type": "tuple"
        }
      ],
      "stateMutability": "view",
      "type": "function"
    },
    {
      "inputs": [
        {
          "internalType": "address",
          "name": "spender",
          "type": "address"
        },
        {
          "internalType": "uint256",
          "name": "addedValue",
          "type": "uint256"
        }
      ],
      "name": "increaseAllowance",
      "outputs": [
        {
          "internalType": "bool",
          "name": "",
          "type": "bool"
        }
      ],
      "stateMutability": "nonpayable",
      "type": "function"
    },
    {
      "inputs": [
        {
          "internalType": "string",
          "name": "_name",
          "type": "string"
        },
        {
          "internalType": "string",
          "name": "_symbol",
          "type": "string"
        },
        {
          "internalType": "uint8",
          "name": "_decimals",
          "type": "uint8"
        },
        {
          "internalType": "address",
          "name": "_bucketsFactory",
          "type": "address"
        }
      ],
      "name": "initialize",
      "outputs": [],
      "stateMutability": "nonpayable",
      "type": "function"
    },
    {
      "inputs": [],
      "name": "interestIncreaser",
      "outputs": [
        {
          "internalType": "contract IFeeExecutor",
          "name": "",
          "type": "address"
        }
      ],
      "stateMutability": "view",
      "type": "function"
    },
    {
      "inputs": [],
      "name": "lenderRewardDistributor",
      "outputs": [
        {
          "internalType": "contract IActivityRewardDistributor",
          "name": "",
          "type": "address"
        }
      ],
      "stateMutability": "view",
      "type": "function"
    },
    {
      "inputs": [
        {
          "internalType": "address",
          "name": "_user",
          "type": "address"
        },
        {
          "internalType": "uint256",
          "name": "_amount",
          "type": "uint256"
        },
        {
          "internalType": "uint256",
          "name": "_duration",
          "type": "uint256"
        }
      ],
      "name": "lockDeposit",
      "outputs": [],
      "stateMutability": "nonpayable",
      "type": "function"
    },
    {
      "inputs": [
        {
          "internalType": "address",
          "name": "_user",
          "type": "address"
        },
        {
          "internalType": "uint256",
          "name": "_amount",
          "type": "uint256"
        },
        {
          "internalType": "uint256",
          "name": "_index",
          "type": "uint256"
        }
      ],
      "name": "mint",
      "outputs": [
        {
          "internalType": "uint256",
          "name": "",
          "type": "uint256"
        }
      ],
      "stateMutability": "nonpayable",
      "type": "function"
    },
    {
      "inputs": [
        {
          "internalType": "address",
          "name": "_reserve",
          "type": "address"
        },
        {
          "internalType": "uint256",
          "name": "_amount",
          "type": "uint256"
        },
        {
          "internalType": "uint256",
          "name": "_index",
          "type": "uint256"
        }
      ],
      "name": "mintToReserve",
      "outputs": [],
      "stateMutability": "nonpayable",
      "type": "function"
    },
    {
      "inputs": [],
      "name": "name",
      "outputs": [
        {
          "internalType": "string",
          "name": "",
          "type": "string"
        }
      ],
      "stateMutability": "view",
      "type": "function"
    },
    {
      "inputs": [
        {
          "internalType": "address",
          "name": "_user",
          "type": "address"
        }
      ],
      "name": "scaledBalanceOf",
      "outputs": [
        {
          "internalType": "uint256",
          "name": "",
          "type": "uint256"
        }
      ],
      "stateMutability": "view",
      "type": "function"
    },
    {
      "inputs": [],
      "name": "scaledTotalSupply",
      "outputs": [
        {
          "internalType": "uint256",
          "name": "",
          "type": "uint256"
        }
      ],
      "stateMutability": "view",
      "type": "function"
    },
    {
      "inputs": [
        {
          "internalType": "contract IBucket",
          "name": "_bucket",
          "type": "address"
        }
      ],
      "name": "setBucket",
      "outputs": [],
      "stateMutability": "nonpayable",
      "type": "function"
    },
    {
      "inputs": [
        {
          "internalType": "contract IFeeExecutor",
          "name": "_interestIncreaser",
          "type": "address"
        }
      ],
      "name": "setInterestIncreaser",
      "outputs": [],
      "stateMutability": "nonpayable",
      "type": "function"
    },
    {
      "inputs": [
        {
          "internalType": "contract IActivityRewardDistributor",
          "name": "_lenderRewardDistributor",
          "type": "address"
        }
      ],
      "name": "setLenderRewardDistributor",
      "outputs": [],
      "stateMutability": "nonpayable",
      "type": "function"
    },
    {
      "inputs": [
        {
          "internalType": "bytes4",
          "name": "_interfaceId",
          "type": "bytes4"
        }
      ],
      "name": "supportsInterface",
      "outputs": [
        {
          "internalType": "bool",
          "name": "",
          "type": "bool"
        }
      ],
      "stateMutability": "view",
      "type": "function"
    },
    {
      "inputs": [],
      "name": "symbol",
      "outputs": [
        {
          "internalType": "string",
          "name": "",
          "type": "string"
        }
      ],
      "stateMutability": "view",
      "type": "function"
    },
    {
      "inputs": [],
      "name": "totalSupply",
      "outputs": [
        {
          "internalType": "uint256",
          "name": "",
          "type": "uint256"
        }
      ],
      "stateMutability": "view",
      "type": "function"
    },
    {
      "inputs": [
        {
          "internalType": "address",
          "name": "_recipient",
          "type": "address"
        },
        {
          "internalType": "uint256",
          "name": "_amount",
          "type": "uint256"
        }
      ],
      "name": "transfer",
      "outputs": [
        {
          "internalType": "bool",
          "name": "",
          "type": "bool"
        }
      ],
      "stateMutability": "nonpayable",
      "type": "function"
    },
    {
      "inputs": [
        {
          "internalType": "address",
          "name": "_sender",
          "type": "address"
        },
        {
          "internalType": "address",
          "name": "_recipient",
          "type": "address"
        },
        {
          "internalType": "uint256",
          "name": "_amount",
          "type": "uint256"
        }
      ],
      "name": "transferFrom",
      "outputs": [
        {
          "internalType": "bool",
          "name": "",
          "type": "bool"
        }
      ],
      "stateMutability": "nonpayable",
      "type": "function"
    },
    {
      "inputs": [
        {
          "internalType": "uint256",
          "name": "_depositId",
          "type": "uint256"
        }
      ],
      "name": "unlockDeposit",
      "outputs": [],
      "stateMutability": "nonpayable",
      "type": "function"
    }
  ],
  "transactionHash": "0xd976fed87554efeb7756bb9a2fa98421c285cbc581e8a6f1ff9cf38ee9fe02d1",
  "args": [],
  "numDeployments": 3,
  "solcInputHash": "89aabf2fa537de3869c847bae20cae69",
  "bytecode": "0x6080806040523460bd576000549060ff8260081c16606b575060ff808216036031575b6040516131f790816100c38239f35b60ff90811916176000557f7f26b83ff96e1f2b6a682f133852f6798a09c465da95921460cefb3847402498602060405160ff8152a1386022565b62461bcd60e51b815260206004820152602760248201527f496e697469616c697a61626c653a20636f6e747261637420697320696e697469604482015266616c697a696e6760c81b6064820152608490fd5b600080fdfe608080604052600436101561001357600080fd5b600090813560e01c908162050bc1146120ef5750806301ffc9a71461209857806306fdde0314612003578063095ea7b314611fdc578063156e29f614611d6a57806318160ddd14611d4f5780631da24f3e14611d1557806323b872dd14611af157806325d998bb14611907578063313ce567146118e65780633950935114611894578063663866ec1461184957806370a082311461181d57806371617534146117f457806377b9de8e146114d557806386b8357b1461134857806395d89b41146112735780639e20f98414611243578063a457c2d714611193578063a9059cbb14610fb7578063b1bf962d14610f99578063b708e68e14610f70578063bf0e92c414610be2578063c029e86814610bb9578063d2e8b48214610a11578063dd62ed3e146109bc578063de7ea79d14610530578063e4a24bc0146104315763f5298aca1461015f57600080fd5b3461042e5761016d366122bf565b9160018060a01b0360c954169133830361041c576001600160a01b03821692831561040a5761019e85879385612a35565b60ca5491969093916001600160a01b03169081610361575b5050508386525060336020526040852054818110610311577fddf252ad1be2c89b69c2b068fc378daa952ba7f163c4a11628f55a4df523b3ef60208388948794858752603384520360408620558060355403603555604051908152a360cb546001600160a01b0316908161025a575b602084847fcc16f5dbb4873280815c1ee09dbd06736cffcc184412cf7a71a0fdb75d397ca583604051848152a2604051908152f35b60c954838652603360205260408620546001600160a01b03909116928692813b1561030d5760405163266aa8a560e01b81526001600160a01b039586166004820152941660248501526044840191909152600060648401528290608490829084905af190816102f8575b50602093506102f3576000805160206131a28339815191528360405163115a489160e01b8152a15b3880610225565b6102ec565b610303858092612337565b61030d57836102c4565b8380fd5b60405162461bcd60e51b815260206004820152602260248201527f45524332303a206275726e20616d6f756e7420657863656564732062616c616e604482015261636560f01b6064820152608490fd5b8683526033602052604083205491803b1561030d5760405163627749b360e11b81526001600160a01b0388811660048301526024820194909452949092166044850152606484015281908390608490829084905af191826103f1575b50506103ec576000805160206131a28339815191526020604051636c029f4b60e11b8152a15b388581806101b6565b6103e3565b816103fb91612337565b6104065785386103bd565b8580fd5b60405163044aa57560e41b8152600490fd5b60405163d291739b60e01b8152600490fd5b80fd5b503461042e57602036600319011261042e576004356001600160a01b0381169081900361052c5760cf546001600160a01b0316330361051a5760c9546001600160a01b038116610508576040516301ffc9a760e01b8152633aa17d5560e11b6004820152602081602481865afa9081156104fd5784916104c3575b501561040a576001600160a01b0319161760c95580f35b90506020813d6020116104f5575b816104de60209383612337565b8101031261030d576104ef906124a9565b386104ac565b3d91506104d1565b6040513d86823e3d90fd5b6040516307d64eb160e21b8152600490fd5b60405163036be76f60e61b8152600490fd5b5080fd5b503461042e57608036600319011261042e5760043567ffffffffffffffff811161052c57610562903690600401612375565b60243567ffffffffffffffff81116109b857610582903690600401612375565b906044359160ff831680930361030d576064356001600160a01b03811691908290036109b45784549260ff8460081c1615938480956109a7575b8015610990575b156109345760ff198116600117875584610923575b506105f260ff875460081c166105ed81613101565b613101565b80519067ffffffffffffffff821161090f5781906106116036546123bc565b601f811161089a575b50602090601f831160011461082957889261081e575b50508160011b916000199060031b1c1916176036555b80519067ffffffffffffffff821161080a5781906106656037546123bc565b601f8111610795575b50602090601f8311600114610724578792610719575b50508160011b916000199060031b1c1916176037555b8354926106b960ff8560081c166106b081613101565b6105ed81613101565b600160975560ff1960cd54161760cd556001600160601b0360a01b60cf54161760cf556106e4575080f35b61ff00191681557f7f26b83ff96e1f2b6a682f133852f6798a09c465da95921460cefb3847402498602060405160018152a180f35b015190503880610684565b603788526000805160206131828339815191529250601f198416885b81811061077d5750908460019594939210610764575b505050811b0160375561069a565b015160001960f88460031b161c19169055388080610756565b92936020600181928786015181550195019301610740565b90915060378752601f830160051c6000805160206131828339815191520190602084106107f4575b90601f8493920160051c60008051602061318283398151915201905b8181106107e6575061066e565b8881558493506001016107d9565b60008051602061318283398151915291506107bd565b634e487b7160e01b86526041600452602486fd5b015190503880610630565b603689526000805160206131628339815191529250601f198416895b8181106108825750908460019594939210610869575b505050811b01603655610646565b015160001960f88460031b161c1916905538808061085b565b92936020600181928786015181550195019301610845565b90915060368852601f830160051c6000805160206131628339815191520190602084106108f9575b90601f8493920160051c60008051602061316283398151915201905b8181106108eb575061061a565b8981558493506001016108de565b60008051602061316283398151915291506108c2565b634e487b7160e01b87526041600452602487fd5b61ffff1916610101178655386105d8565b60405162461bcd60e51b815260206004820152602e60248201527f496e697469616c697a61626c653a20636f6e747261637420697320616c72656160448201526d191e481a5b9a5d1a585b1a5e995960921b6064820152608490fd5b50303b1580156105c35750600160ff8216146105c3565b50600160ff8216106105bc565b8480fd5b8280fd5b503461042e57604036600319011261042e5760406109d861224b565b916109e1612261565b9260018060a01b031681526034602052209060018060a01b03166000526020526020604060002054604051908152f35b503461042e57602036600319011261042e576004356001600160a01b0381169081900361052c5760c954604051637b10399960e01b815290602090829060049082906001600160a01b03165afa908115610b47576044916020918591610b8c575b50604051632474521560e21b81526004810186905233602482015292839182906001600160a01b03165afa908115610b47578391610b52575b501561051a5780158015610ad5575b1561040a576001600160601b0360a01b60cb54161760cb5580f35b506040516301ffc9a760e01b815263187d5ef960e11b6004820152602081602481855afa908115610b47578391610b0d575b50610aba565b90506020813d602011610b3f575b81610b2860209383612337565b810103126109b857610b39906124a9565b38610b07565b3d9150610b1b565b6040513d85823e3d90fd5b90506020813d602011610b84575b81610b6d60209383612337565b810103126109b857610b7e906124a9565b38610aab565b3d9150610b60565b610bac9150823d8411610bb2575b610ba48183612337565b81019061248a565b38610a72565b503d610b9a565b503461042e578060031936011261042e5760c9546040516001600160a01b039091168152602090f35b503461042e57610bf1366122bf565b90610bfa6129df565b60c95460405163ef379d1760e01b81526001600160a01b039091169190602081600481865afa908115610eea576024916020918891610f53575b50604051630723eb0360e51b815233600482015292839182906001600160a01b03165afa908115610eea578691610f19575b50610f075733820361041c578215610ef5576040516308bcf8b560e21b8152602081600481865afa908115610eea578691610eb0575b5015610e9e5760206004926040519384809263220f1ac960e21b82525afa908115610e93578591610e58575b610cd3925084612a35565b509160018060a01b03169081845260ce60205260408420610cf5848254612613565b905581845260ce602052600160408520015460cc54600160401b81101561080a57610d4d9291610d2e826001610d47940160cc55612620565b90919082549060031b91821b91600019901b1916179055565b42612613565b81845260ce6020526001604085200160cc546000198101908111610e445760405191610d788361231b565b858352602083019084825260408401928352805490600160401b821015610e305790610da9916001820181556126a1565b939093610e1c575183555160018301555160029091015560cc54600019810193908411610e08577f9e5b9f0bb6ee6fb341a47d742f013538f79f386f5da5ecf744fc8e492da28d2f9160409182519182526020820152a3600160975580f35b634e487b7160e01b85526011600452602485fd5b634e487b7160e01b88526004889052602488fd5b634e487b7160e01b89526041600452602489fd5b634e487b7160e01b86526011600452602486fd5b90506020823d602011610e8b575b81610e7360209383612337565b81010312610e8657610cd3915190610cc8565b600080fd5b3d9150610e66565b6040513d87823e3d90fd5b60405163d42bba7f60e01b8152600490fd5b90506020813d602011610ee2575b81610ecb60209383612337565b8101031261040657610edc906124a9565b38610c9c565b3d9150610ebe565b6040513d88823e3d90fd5b604051633974fc9760e11b8152600490fd5b6040516333df015b60e01b8152600490fd5b90506020813d602011610f4b575b81610f3460209383612337565b8101031261040657610f45906124a9565b38610c66565b3d9150610f27565b610f6a9150823d8411610bb257610ba48183612337565b38610c34565b503461042e578060031936011261042e5760cb546040516001600160a01b039091168152602090f35b503461042e578060031936011261042e576020603554604051908152f35b503461042e57604036600319011261042e57610fd161224b565b610fd96129df565b60c95460405163ef379d1760e01b815292906001600160a01b0316602084600481845afa938415611188578294611167575b50604051630723eb0360e51b81526001600160a01b03848116600483018190529560209183916024918391165afa908115610b4757839161112d575b5061111b57831561040a5760206004916040519283809263220f1ac960e21b82525afa91821561110f57916110dd575b5061109c6110888260243533612a35565b909361109682858333612cea565b33612f82565b60405191825260208201527f4beccb90f994c31aced7a23b5611020728a23d8ec5cddd1a3e9d97b96fda866660403392a36001609755602060405160018152f35b90506020813d602011611107575b816110f860209383612337565b81010312610e86575138611077565b3d91506110eb565b604051903d90823e3d90fd5b60405163e453974560e01b8152600490fd5b90506020813d60201161115f575b8161114860209383612337565b810103126109b857611159906124a9565b38611047565b3d915061113b565b61118191945060203d602011610bb257610ba48183612337565b923861100b565b6040513d84823e3d90fd5b503461042e57604036600319011261042e576111ad61224b565b60406024359233815260346020522060018060a01b038216600052602052604060002054918083106111f0576111e592039033612715565b602060405160018152f35b60405162461bcd60e51b815260206004820152602560248201527f45524332303a2064656372656173656420616c6c6f77616e63652062656c6f77604482015264207a65726f60d81b6064820152608490fd5b503461042e57611252366122bf565b60c9549091906001600160a01b0316330361041c57611270926126bd565b80f35b503461042e578060031936011261042e57604051908060375490611296826123bc565b808552916001811690811561132157506001146112d6575b6112d2846112be81860382612337565b60405191829160208352602083019061229a565b0390f35b60378152600080516020613182833981519152939250905b808210611307575090915081016020016112be826112ae565b9192600181602092548385880101520191019092916112ee565b60ff191660208087019190915292151560051b850190920192506112be91508390506112ae565b503461042e57602036600319011261042e576004356001600160a01b0381169081900361052c5760c954604051637b10399960e01b815290602090829060049082906001600160a01b03165afa908115610b475760449160209185916114b8575b50604051632474521560e21b81526004810186905233602482015292839182906001600160a01b03165afa908115610b4757839161147e575b501561051a578015801561140c575b1561040a576001600160601b0360a01b60ca54161760ca5580f35b506040516301ffc9a760e01b8152636c91bd0560e11b6004820152602081602481855afa908115610b47578391611444575b506113f1565b90506020813d602011611476575b8161145f60209383612337565b810103126109b857611470906124a9565b3861143e565b3d9150611452565b90506020813d6020116114b0575b8161149960209383612337565b810103126109b8576114aa906124a9565b386113e2565b3d915061148c565b6114cf9150823d8411610bb257610ba48183612337565b386113a9565b503461042e57602036600319011261042e576004356114f26129df565b60c95460405163ef379d1760e01b81526001600160a01b0390911690602081600481855afa9081156104fd5760249160209186916117d7575b50604051630723eb0360e51b815233600482015292839182906001600160a01b03165afa9081156104fd57849161179d575b50610f075733835260ce602052600160408420019081541561178b5761158283612620565b90549060031b1c9083600261159784866126a1565b5001540361177957602060049160405192838092634ad09aa560e01b82525afa908115610e9357859161173f575b5015611718575b6115d681836126a1565b505433855260ce6020526115ef604086209182546124b6565b905581546000198101908111610e085761160990836126a1565b5061161482846126a1565b919091611704578082036116e6575b505081546000198101908111610e085790610d2e600261164661164e94866126a1565b500154612620565b805480156116d257600019019061166582826126a1565b6116be576002818680935582600182015501555561168281612620565b8154906000199060031b1b19169055337f0900a4d6663fcbd5127fbbf9b38da11d0e98b2c17e263b127d4398df9cb0112b8380a3600160975580f35b634e487b7160e01b85526004859052602485fd5b634e487b7160e01b84526031600452602484fd5b60028181925484556001810154600185015501549101553880611623565b634e487b7160e01b86526004869052602486fd5b600161172482846126a1565b50015442116115cc576040516301d29b5b60e01b8152600490fd5b90506020813d602011611771575b8161175a60209383612337565b810103126109b45761176b906124a9565b386115c5565b3d915061174d565b604051633e6c339760e01b8152600490fd5b604051636e5e2b1f60e01b8152600490fd5b90506020813d6020116117cf575b816117b860209383612337565b8101031261030d576117c9906124a9565b3861155d565b3d91506117ab565b6117ee9150823d8411610bb257610ba48183612337565b3861152b565b503461042e578060031936011261042e5760ca546040516001600160a01b039091168152602090f35b503461042e57602036600319011261042e57602061184161183c61224b565b612651565b604051908152f35b503461042e57602036600319011261042e5760043560cc5481101561188257611873602091612620565b90549060031b1c604051908152f35b604051635364b43760e01b8152600490fd5b503461042e57604036600319011261042e576111e59060406118b461224b565b9133815260346020522060018060a01b0382166000526020526118df60406000206024359054612613565b9033612715565b503461042e578060031936011261042e57602060ff60cd5416604051908152f35b503461042e57602036600319011261042e5761192161224b565b9061194a61192e83612651565b6001600160a01b038416835260ce6020526040832054906124b6565b9160018060a01b0360c95416604051632e51d3ed60e01b8152602081600481855afa9081156104fd578491611ab7575b501561198c575b602084604051908152f35b604051634c66358f60e11b815261012081600481855afa9081156104fd5760049185918291611a88575b50516040516306fdde0360e01b81526001600160a01b03909116939092839182905afa9081156104fd5791611a0d93916020938691611a66575b5060405180958194829363be5daee560e01b8452600484016125eb565b03915afa91821561110f5791611a33575b50611a2b906020926124b6565b903880611981565b90506020813d602011611a5e575b81611a4e60209383612337565b81010312610e8657516020611a1e565b3d9150611a41565b611a8291503d8088833e611a7a8183612337565b81019061258c565b386119f0565b611aaa91506101203d8111611ab0575b611aa28183612337565b8101906124d9565b386119b6565b503d611a98565b90506020813d602011611ae9575b81611ad260209383612337565b8101031261030d57611ae3906124a9565b3861197a565b3d9150611ac5565b503461042e57606036600319011261042e57611b0b61224b565b90611b14612261565b611b1c6129df565b60c95460405163ef379d1760e01b815293906001600160a01b0316602085600481845afa9485156104fd578495611cf4575b50604051630723eb0360e51b81526001600160a01b03848116600483018190529660209183916024918391165afa908115610e93578591611cba575b5061111b5784151580611ca8575b1561040a5760206004916040519283809263220f1ac960e21b82525afa9081156104fd578491611c76575b50611bd18160443584612a35565b6001600160a01b038416808752603460209081526040978890203360009081529152969096205491929190838210611c64577f4beccb90f994c31aced7a23b5611020728a23d8ec5cddd1a3e9d97b96fda866695604095611c3886611c4995033383612715565b611c4483868484612cea565b612f82565b82519182526020820152a36001609755602060405160018152f35b604051631d2c488b60e31b8152600490fd5b90506020813d602011611ca0575b81611c9160209383612337565b81010312610e86575138611bc3565b3d9150611c84565b506001600160a01b0382161515611b98565b90506020813d602011611cec575b81611cd560209383612337565b810103126109b457611ce6906124a9565b38611b8a565b3d9150611cc8565b611d0e91955060203d602011610bb257610ba48183612337565b9338611b4e565b503461042e57602036600319011261042e576020611841611d3461224b565b6001600160a01b031660009081526033602052604090205490565b503461042e578060031936011261042e5760206118416123f6565b503461042e57611d79366122bf565b92919060018060a01b0360c954169233840361041c576001600160a01b03831692831561040a578215611fca57611db0868461283d565b948515611fb85760ca546001600160a01b03169081611f0b575b5050611dd685826128d2565b60cb546001600160a01b031680611e1f575b60206118418888887f0f6798a560793a54c3bcfe86a93cde1e73087d944c0ea20544137d4121396885858a604051908152a2612976565b60c9546001600160a01b03838116600090815260336020526040902054939116823b156109b45760405163266aa8a560e01b81526001600160a01b0391821660048201529116602482015260448101929092526000606483015290919081908390608490829084905af19182611ef6575b5050917f0f6798a560793a54c3bcfe86a93cde1e73087d944c0ea20544137d41213968856020611841959381979515600014611ef1576000805160206131a28339815191528260405163115a489160e01b8152a15b93955082949650611de8565b611ee5565b611f01828092612337565b61042e5780611e90565b6001600160a01b038316600090815260336020526040902054823b156109b45760405163627749b360e11b81526001600160a01b038581166004830152602482019290925291166044820152606481018890529083908290608490829084905af19081611fa4575b50611f9f576000805160206131a28339815191526020604051636c029f4b60e11b8152a15b3880611dca565b611f98565b83611fb191949294612337565b9138611f73565b60405163abd351b160e01b8152600490fd5b604051633abe877f60e11b8152600490fd5b503461042e57604036600319011261042e576111e5611ff961224b565b6024359033612715565b503461042e578060031936011261042e57604051908060365490612026826123bc565b8085529160018116908115611321575060011461204d576112d2846112be81860382612337565b60368152600080516020613162833981519152939250905b80821061207e575090915081016020016112be826112ae565b919260018160209254838588010152019101909291612065565b503461042e57602036600319011261042e5760043563ffffffff60e01b811680910361052c576020906337a557d360e01b81149081156120de575b506040519015158152f35b6301ffc9a760e01b149050826120d3565b90503461052c57602036600319011261052c576060602061210e61224b565b92612118816122e9565b84815201526001600160a01b0316815260ce602052604080822090519190600190612142846122e9565b805484520191825467ffffffffffffffff811161223757604051929361216f600583901b60200185612337565b81845284526020808520859185015b8383106121fa575050505060208101918252604051928392602084526060840192516020850152519160408085015282518091526020608085019301915b8181106121ca575050500390f35b919350916020606060019260408751805183528481015185840152015160408201520194019101918493926121bc565b600360206001926040999899516122108161231b565b8554815284860154838201526002860154604082015281520192019201919095949561217e565b634e487b7160e01b83526041600452602483fd5b600435906001600160a01b0382168203610e8657565b602435906001600160a01b0382168203610e8657565b60005b83811061228a5750506000910152565b818101518382015260200161227a565b906020916122b381518092818552858086019101612277565b601f01601f1916010190565b6060906003190112610e86576004356001600160a01b0381168103610e8657906024359060443590565b6040810190811067ffffffffffffffff82111761230557604052565b634e487b7160e01b600052604160045260246000fd5b6060810190811067ffffffffffffffff82111761230557604052565b90601f8019910116810190811067ffffffffffffffff82111761230557604052565b67ffffffffffffffff811161230557601f01601f191660200190565b81601f82011215610e865780359061238c82612359565b9261239a6040519485612337565b82845260208383010111610e8657816000926020809301838601378301015290565b90600182811c921680156123ec575b60208310146123d657565b634e487b7160e01b600052602260045260246000fd5b91607f16916123cb565b60355480156124845760c95460405163220f1ac960e21b81529190602090839060049082906001600160a01b03165afa90811561247857600091612442575b61243f9250612976565b90565b90506020823d602011612470575b8161245d60209383612337565b81010312610e865761243f915190612435565b3d9150612450565b6040513d6000823e3d90fd5b50600090565b90816020910312610e8657516001600160a01b0381168103610e865790565b51908115158203610e8657565b919082039182116124c357565b634e487b7160e01b600052601160045260246000fd5b9081610120910312610e8657604051906000610120830167ffffffffffffffff811184821017612578576040528151906001600160a01b038216820361042e575082526101009061252c602082016124a9565b602084015260408101516040840152606081015160608401526080810151608084015260a081015160a084015260c081015160c084015260e081015160e0840152015161010082015290565b634e487b7160e01b82526041600452602482fd5b602081830312610e865780519067ffffffffffffffff8211610e86570181601f82011215610e865780516125bf81612359565b926125cd6040519485612337565b81845260208284010111610e865761243f9160208085019101612277565b9061260360209194939460408452604084019061229a565b6001600160a01b03909416910152565b919082018092116124c357565b60cc5481101561263b5760cc60005260206000200190600090565b634e487b7160e01b600052603260045260246000fd5b60018060a01b031660005260336020526004604060002054602060018060a01b0360c954166040519384809263220f1ac960e21b82525afa908115612478576000916124425761243f9250612976565b805482101561263b576000526003602060002091020190600090565b90916126c9908361283d565b801561271057816126fd6020927f0f6798a560793a54c3bcfe86a93cde1e73087d944c0ea20544137d4121396885946128d2565b6040519384526001600160a01b031692a2565b505050565b6001600160a01b03169081156127cc576001600160a01b031691821561277c5760207f8c5be1e5ebec7d5bd14f71427d1e84f3dd0314c0f7b2291e5b200ac8c7c3b925918360005260348252604060002085600052825280604060002055604051908152a3565b60405162461bcd60e51b815260206004820152602260248201527f45524332303a20617070726f766520746f20746865207a65726f206164647265604482015261737360f01b6064820152608490fd5b60405162461bcd60e51b8152602060048201526024808201527f45524332303a20617070726f76652066726f6d20746865207a65726f206164646044820152637265737360e01b6064820152608490fd5b8115612827570490565b634e487b7160e01b600052601260045260246000fd5b906000916b033b2e3c9fd0803ce80000008102928184046b033b2e3c9fd0803ce800000014821517156128be57506b033b2e3c9fd0803ce80000008304036128ad5761288c8160011c83612613565b91821061289c5761243f9161281d565b630a77254f60e01b60005260046000fd5b631550e8b760e01b60005260046000fd5b634e487b7160e01b81526011600452602490fd5b6001600160a01b0316908115612931577fddf252ad1be2c89b69c2b068fc378daa952ba7f163c4a11628f55a4df523b3ef602082612914600094603554612613565b6035558484526033825260408420818154019055604051908152a3565b60405162461bcd60e51b815260206004820152601f60248201527f45524332303a206d696e7420746f20746865207a65726f2061646472657373006044820152606490fd5b60009180159182156129b9575b5050156128ad576b019d971e4fe8401e740000008101908181116124c357811061289c576b033b2e3c9fd0803ce8000000900490565b808202935091508115828404821417156124c3576129d7908361281d565b143880612983565b6002609754146129f0576002609755565b60405162461bcd60e51b815260206004820152601f60248201527f5265656e7472616e637947756172643a207265656e7472616e742063616c6c006044820152606490fd5b90929192612a7260018060a01b038316806000526033602052612a5d86604060002054612976565b9060005260ce602052604060002054906124b6565b60c954604051632e51d3ed60e01b815291936001600160a01b0390911691602081600481865afa90811561247857600091612c22575b5015612b07575b50506000198103612ae45750612ac790925b8361283d565b918215612ad2579190565b60405163fae8279160e01b8152600490fd5b80939110612af557612ac790612ac1565b604051631206cae160e11b8152600490fd5b604051634c66358f60e11b8152929391929061012082600481875afa918215612478576004926000918291612c03575b50516040516306fdde0360e01b81526001600160a01b03909116959093849182905afa93841561247857612b8d94602093600091612be8575b5060405180968194829363be5daee560e01b8452600484016125eb565b03915afa90811561247857600091612bb2575b612baa92506124b6565b903880612aaf565b90506020823d602011612be0575b81612bcd60209383612337565b81010312610e8657612baa915190612ba0565b3d9150612bc0565b612bfd91503d806000833e611a7a8183612337565b38612b70565b612c1c91506101203d8111611ab057611aa28183612337565b38612b37565b90506020813d602011612c54575b81612c3d60209383612337565b81010312610e8657612c4e906124a9565b38612aa8565b3d9150612c30565b80511561263b5760200190565b80516001101561263b5760400190565b906020808351928381520192019060005b818110612c975750505090565b82516001600160a01b0316845260209384019390920191600101612c8a565b906020808351928381520192019060005b818110612cd45750505090565b8251845260209384019390920191600101612cc7565b60ca5460cb54919460009490926001600160a01b039081161592169081158080612f7b575b612f715760405195612d22606088612337565b60028752604098893660208a013760405199612d3f60608c612337565b60028b523660208c0137612d5288612c5c565b6001600160a01b0390911690819052612d6a88612c69565b6001600160a01b0390921691829052885260336020526040882054612d8e8a612c5c565b52875260336020526040872054612da489612c69565b5215612ebb575b505015612db9575b50505050565b80612dd0612de992612dca87612c5c565b516124b6565b612dd986612c5c565b52612de385612c69565b51612613565b612df284612c69565b5260cb5460c95482516001600160a01b03928316939290911690833b156109b4579184809492612e4994612e5b604051998a978896879563c88157e360e01b8752600487015260a0602487015260a4860190612c79565b84810360031901604486015290612cb6565b90606483015282608483015203925af19182612ea6575b5050612ea1576000805160206131a2833981519152602060405163115a489160e01b8152a15b38808080612db3565b612e98565b612eb1828092612337565b61042e5780612e72565b60c9546001600160a01b031690823b15612f6d576040516305c6a25960e21b815260806004820152928792849283918591839190612f128e612f00608486018f612c79565b85810360031901602487015290612cb6565b916044840152606483015203925af19081612f59575b50612f54576000805160206131a28339815191526020604051636c029f4b60e11b8152a15b3880612dab565b612f4d565b85612f6691969296612337565b9338612f28565b8680fd5b5050505050505050565b5083612d0f565b6001600160a01b03169081156130ae576001600160a01b031691821561305d5781600052603360205260406000205481811061300957817fddf252ad1be2c89b69c2b068fc378daa952ba7f163c4a11628f55a4df523b3ef9260209285600052603384520360406000205584600052603382526040600020818154019055604051908152a3565b60405162461bcd60e51b815260206004820152602660248201527f45524332303a207472616e7366657220616d6f756e7420657863656564732062604482015265616c616e636560d01b6064820152608490fd5b60405162461bcd60e51b815260206004820152602360248201527f45524332303a207472616e7366657220746f20746865207a65726f206164647260448201526265737360e81b6064820152608490fd5b60405162461bcd60e51b815260206004820152602560248201527f45524332303a207472616e736665722066726f6d20746865207a65726f206164604482015264647265737360d81b6064820152608490fd5b1561310857565b60405162461bcd60e51b815260206004820152602b60248201527f496e697469616c697a61626c653a20636f6e7472616374206973206e6f74206960448201526a6e697469616c697a696e6760a81b6064820152608490fdfe4a11f94e20a93c79f6ec743a1954ec4fc2c08429ae2122118bf234b2185c81b842a7b7dd785cd69714a189dffb3fd7d7174edc9ece837694ce50f7078f7c31ae97e3d6f5d9606f45b75b508f1245f23d4d4e5470e8adae85f3156477ffdcdff0a2646970667358221220f154649b75efde8984eff14d6fe55e9a3c377fce4a99499f9fba8123e8d5c96964736f6c634300081a0033",
  "libraries": {},
  "devdoc": {
    "events": {
      "Approval(address,address,uint256)": {
        "details": "Emitted when the allowance of a `spender` for an `owner` is set by a call to {approve}. `value` is the new allowance."
      },
      "BalanceTransfer(address,address,uint256,uint256)": {
        "details": "Emitted during the transfer action",
        "params": {
          "amount": "The amount being transferred",
          "from": "The user whose tokens are being transferred",
          "index": "The new liquidity index of the reserve",
          "to": "The recipient"
        }
      },
      "Burn(address,uint256)": {
        "details": "Emitted after pTokens are burned",
        "params": {
          "from": "The owner of the aTokens, getting them burned",
          "value": "The amount being burned"
        }
      },
      "Initialized(uint8)": {
        "details": "Triggered when the contract has been initialized or reinitialized."
      },
      "Mint(address,uint256)": {
        "details": "Emitted after the mint action",
        "params": {
          "from": "The address performing the mint",
          "value": "The amount being"
        }
      },
      "Transfer(address,address,uint256)": {
        "details": "Emitted when `value` tokens are moved from one account (`from`) to another (`to`). Note that `value` may be zero."
      }
    },
    "kind": "dev",
    "methods": {
      "allowance(address,address)": {
        "details": "See {IERC20-allowance}."
      },
      "approve(address,uint256)": {
        "details": "See {IERC20-approve}. NOTE: If `amount` is the maximum `uint256`, the allowance is not updated on `transferFrom`. This is semantically equivalent to an infinite approval. Requirements: - `spender` cannot be the zero address."
      },
      "availableBalanceOf(address)": {
        "details": "Returns available balance of the user.",
        "params": {
          "_user": "The owner of pToken"
        },
        "returns": {
          "result": "The available balance of the user"
        }
      },
      "balanceOf(address)": {
        "details": "Caalculates actual 'user' balance on current block. Calculates as 'principal' + 'interest'.",
        "params": {
          "_user": "The owner of pTokens"
        },
        "returns": {
          "_0": "The balance of the 'user'"
        }
      },
      "burn(address,uint256,uint256)": {
        "details": "Burns pTokens from `user` and sends the equivalent amount of underlying to `receiverOfUnderlying`",
        "params": {
          "_amount": "The amount of underlying token being returned to receiver",
          "_index": "The current liquidityIndex",
          "_user": "The owner of the pTokens, getting them burned"
        },
        "returns": {
          "_0": "Burned amount of PTokens"
        }
      },
      "decimals()": {
        "details": "Returns the number of decimal places used for token values.",
        "returns": {
          "_0": "The number of decimal places as a uint8."
        }
      },
      "decreaseAllowance(address,uint256)": {
        "details": "Atomically decreases the allowance granted to `spender` by the caller. This is an alternative to {approve} that can be used as a mitigation for problems described in {IERC20-approve}. Emits an {Approval} event indicating the updated allowance. Requirements: - `spender` cannot be the zero address. - `spender` must have allowance for the caller of at least `subtractedValue`."
      },
      "getDepositIndexById(uint256)": {
        "details": "Function to get a deposit index in user's deposit array.",
        "params": {
          "id": "Deposit id."
        },
        "returns": {
          "index": "Deposit index in user's 'deposit' array."
        }
      },
      "getUserLockedBalance(address)": {
        "details": "Returns locked deposits and balance of user",
        "params": {
          "_user": "The owner of locked deposits"
        },
        "returns": {
          "_0": "Structure with deposits and total locked balance of user"
        }
      },
      "increaseAllowance(address,uint256)": {
        "details": "Atomically increases the allowance granted to `spender` by the caller. This is an alternative to {approve} that can be used as a mitigation for problems described in {IERC20-approve}. Emits an {Approval} event indicating the updated allowance. Requirements: - `spender` cannot be the zero address."
      },
      "initialize(string,string,uint8,address)": {
        "details": "contract initializer",
        "params": {
          "_bucketsFactory": "Address of the buckets factory that will call the setBucket fucntion",
          "_decimals": "The number of decimals for the ERC20 token.",
          "_name": "The name of the ERC20 token.",
          "_symbol": "The symbol of the ERC20 token."
        }
      },
      "lockDeposit(address,uint256,uint256)": {
        "details": "This function can only be called externally and overrides the corresponding function in the parent contract.The user must not be blacklisted.",
        "params": {
          "_amount": "The amount to be locked as a deposit.",
          "_duration": "The duration for which the deposit will be locked.",
          "_user": "The address of the user for whom the deposit is being locked."
        }
      },
      "mint(address,uint256,uint256)": {
        "details": "Mints `amount` pTokens to `user`",
        "params": {
          "_amount": "The amount of tokens getting minted",
          "_index": "The current liquidityIndex",
          "_user": "The address receiving the minted tokens"
        },
        "returns": {
          "_0": "Minted amount of PTokens"
        }
      },
      "mintToReserve(address,uint256,uint256)": {
        "details": "Mints pTokens to the reserve address Compared to the normal mint, we don't revert when the amountScaled is equal to the zero. Additional checks were also removed Only callable by the Bucket",
        "params": {
          "_amount": "The amount of tokens getting minted",
          "_index": "The current liquidityIndex",
          "_reserve": "The address of the reserve"
        }
      },
      "name()": {
        "details": "Returns the name of the token."
      },
      "scaledBalanceOf(address)": {
        "details": "Returns the scaled balance of the user.",
        "params": {
          "_user": "The owner of pToken"
        },
        "returns": {
          "_0": "The scaled balances of the user"
        }
      },
      "scaledTotalSupply()": {
        "details": "Returns the scaled total supply of pToken.",
        "returns": {
          "_0": "The scaled total supply of the pToken."
        }
      },
      "setBucket(address)": {
        "details": "Sets the bucket for the contract.",
        "params": {
          "_bucket": "The address of the bucket to set."
        }
      },
      "setInterestIncreaser(address)": {
        "details": "Sets the InterestIncreaser for current PToken.",
        "params": {
          "_interestIncreaser": "The interest increaser address."
        }
      },
      "setLenderRewardDistributor(address)": {
        "details": "Sets the lender reward distributor contract address.",
        "params": {
          "_lenderRewardDistributor": "The address of the lender reward distributor contract."
        }
      },
      "symbol()": {
        "details": "Returns the symbol of the token, usually a shorter version of the name."
      },
      "totalSupply()": {
        "details": "Calculates the total supply of the pToken. It increments over blocks mining.",
        "returns": {
          "_0": "The current total supply of the pToken."
        }
      },
      "transfer(address,uint256)": {
        "details": "Transfers the pTokens from 'msg.sender' to recipient.",
        "params": {
          "_amount": "The amount of pTokens to be transferred. If scpecified amount = type(uint256).max the all tokens of 'msg.sender' will be transferred.",
          "_recipient": "The recipient address"
        }
      },
      "transferFrom(address,address,uint256)": {
        "details": "Transfers the pTokens between 'sender' and 'recipient' using allowance mechanism.",
        "params": {
          "_amount": "The amount of pTokens to be transferred. If scpecified amount = type(uint256).max the all tokens of 'msg.sender' will be transferred.",
          "_recipient": "The recipient address",
          "_sender": "The source address"
        }
      },
      "unlockDeposit(uint256)": {
        "details": "Unlocks a specific deposit.",
        "params": {
          "_depositId": "The ID of the deposit to be unlocked."
        }
      }
    },
    "version": 1
  },
  "userdoc": {
    "kind": "user",
    "methods": {
      "lockDeposit(address,uint256,uint256)": {
        "notice": "Locks a deposit for a specified user."
      },
      "supportsInterface(bytes4)": {
        "notice": "Interface checker"
      }
    },
    "version": 1
  },
  "storageLayout": {
    "storage": [
      {
        "astId": 2890,
        "contract": "contracts/PToken/PToken.sol:PToken",
        "label": "_initialized",
        "offset": 0,
        "slot": "0",
        "type": "t_uint8"
      },
      {
        "astId": 2893,
        "contract": "contracts/PToken/PToken.sol:PToken",
        "label": "_initializing",
        "offset": 1,
        "slot": "0",
        "type": "t_bool"
      },
      {
        "astId": 5867,
        "contract": "contracts/PToken/PToken.sol:PToken",
        "label": "__gap",
        "offset": 0,
        "slot": "1",
        "type": "t_array(t_uint256)50_storage"
      },
      {
        "astId": 3282,
        "contract": "contracts/PToken/PToken.sol:PToken",
        "label": "_balances",
        "offset": 0,
        "slot": "51",
        "type": "t_mapping(t_address,t_uint256)"
      },
      {
        "astId": 3288,
        "contract": "contracts/PToken/PToken.sol:PToken",
        "label": "_allowances",
        "offset": 0,
        "slot": "52",
        "type": "t_mapping(t_address,t_mapping(t_address,t_uint256))"
      },
      {
        "astId": 3290,
        "contract": "contracts/PToken/PToken.sol:PToken",
        "label": "_totalSupply",
        "offset": 0,
        "slot": "53",
        "type": "t_uint256"
      },
      {
        "astId": 3292,
        "contract": "contracts/PToken/PToken.sol:PToken",
        "label": "_name",
        "offset": 0,
        "slot": "54",
        "type": "t_string_storage"
      },
      {
        "astId": 3294,
        "contract": "contracts/PToken/PToken.sol:PToken",
        "label": "_symbol",
        "offset": 0,
        "slot": "55",
        "type": "t_string_storage"
      },
      {
        "astId": 3874,
        "contract": "contracts/PToken/PToken.sol:PToken",
        "label": "__gap",
        "offset": 0,
        "slot": "56",
        "type": "t_array(t_uint256)45_storage"
      },
      {
        "astId": 6506,
        "contract": "contracts/PToken/PToken.sol:PToken",
        "label": "__gap",
        "offset": 0,
        "slot": "101",
        "type": "t_array(t_uint256)50_storage"
      },
      {
        "astId": 3193,
        "contract": "contracts/PToken/PToken.sol:PToken",
        "label": "_status",
        "offset": 0,
        "slot": "151",
        "type": "t_uint256"
      },
      {
        "astId": 3262,
        "contract": "contracts/PToken/PToken.sol:PToken",
        "label": "__gap",
        "offset": 0,
        "slot": "152",
        "type": "t_array(t_uint256)49_storage"
      },
      {
        "astId": 48368,
        "contract": "contracts/PToken/PToken.sol:PToken",
        "label": "bucket",
        "offset": 0,
        "slot": "201",
        "type": "t_contract(IBucketV3)30576"
      },
      {
        "astId": 48372,
        "contract": "contracts/PToken/PToken.sol:PToken",
        "label": "interestIncreaser",
        "offset": 0,
        "slot": "202",
        "type": "t_contract(IFeeExecutor)25444"
      },
      {
        "astId": 48376,
        "contract": "contracts/PToken/PToken.sol:PToken",
        "label": "lenderRewardDistributor",
        "offset": 0,
        "slot": "203",
        "type": "t_contract(IActivityRewardDistributor)21302"
      },
      {
        "astId": 48379,
        "contract": "contracts/PToken/PToken.sol:PToken",
        "label": "lockedDepositsIndexes",
        "offset": 0,
        "slot": "204",
        "type": "t_array(t_uint256)dyn_storage"
      },
      {
        "astId": 48381,
        "contract": "contracts/PToken/PToken.sol:PToken",
        "label": "tokenDecimals",
        "offset": 0,
        "slot": "205",
        "type": "t_uint8"
      },
      {
        "astId": 48386,
        "contract": "contracts/PToken/PToken.sol:PToken",
        "label": "lockedBalances",
        "offset": 0,
        "slot": "206",
        "type": "t_mapping(t_address,t_struct(LockedBalance)46823_storage)"
      },
      {
        "astId": 48388,
        "contract": "contracts/PToken/PToken.sol:PToken",
        "label": "bucketsFactory",
        "offset": 0,
        "slot": "207",
        "type": "t_address"
      }
    ],
    "types": {
      "t_address": {
        "encoding": "inplace",
        "label": "address",
        "numberOfBytes": "20"
      },
      "t_array(t_struct(Deposit)46816_storage)dyn_storage": {
        "base": "t_struct(Deposit)46816_storage",
        "encoding": "dynamic_array",
        "label": "struct IPTokenStorage.Deposit[]",
        "numberOfBytes": "32"
      },
      "t_array(t_uint256)45_storage": {
        "base": "t_uint256",
        "encoding": "inplace",
        "label": "uint256[45]",
        "numberOfBytes": "1440"
      },
      "t_array(t_uint256)49_storage": {
        "base": "t_uint256",
        "encoding": "inplace",
        "label": "uint256[49]",
        "numberOfBytes": "1568"
      },
      "t_array(t_uint256)50_storage": {
        "base": "t_uint256",
        "encoding": "inplace",
        "label": "uint256[50]",
        "numberOfBytes": "1600"
      },
      "t_array(t_uint256)dyn_storage": {
        "base": "t_uint256",
        "encoding": "dynamic_array",
        "label": "uint256[]",
        "numberOfBytes": "32"
      },
      "t_bool": {
        "encoding": "inplace",
        "label": "bool",
        "numberOfBytes": "1"
      },
      "t_contract(IActivityRewardDistributor)21302": {
        "encoding": "inplace",
        "label": "contract IActivityRewardDistributor",
        "numberOfBytes": "20"
      },
      "t_contract(IBucketV3)30576": {
        "encoding": "inplace",
        "label": "contract IBucketV3",
        "numberOfBytes": "20"
      },
      "t_contract(IFeeExecutor)25444": {
        "encoding": "inplace",
        "label": "contract IFeeExecutor",
        "numberOfBytes": "20"
      },
      "t_mapping(t_address,t_mapping(t_address,t_uint256))": {
        "encoding": "mapping",
        "key": "t_address",
        "label": "mapping(address => mapping(address => uint256))",
        "numberOfBytes": "32",
        "value": "t_mapping(t_address,t_uint256)"
      },
      "t_mapping(t_address,t_struct(LockedBalance)46823_storage)": {
        "encoding": "mapping",
        "key": "t_address",
        "label": "mapping(address => struct IPTokenStorage.LockedBalance)",
        "numberOfBytes": "32",
        "value": "t_struct(LockedBalance)46823_storage"
      },
      "t_mapping(t_address,t_uint256)": {
        "encoding": "mapping",
        "key": "t_address",
        "label": "mapping(address => uint256)",
        "numberOfBytes": "32",
        "value": "t_uint256"
      },
      "t_string_storage": {
        "encoding": "bytes",
        "label": "string",
        "numberOfBytes": "32"
      },
      "t_struct(Deposit)46816_storage": {
        "encoding": "inplace",
        "label": "struct IPTokenStorage.Deposit",
        "members": [
          {
            "astId": 46811,
            "contract": "contracts/PToken/PToken.sol:PToken",
            "label": "lockedBalance",
            "offset": 0,
            "slot": "0",
            "type": "t_uint256"
          },
          {
            "astId": 46813,
            "contract": "contracts/PToken/PToken.sol:PToken",
            "label": "deadline",
            "offset": 0,
            "slot": "1",
            "type": "t_uint256"
          },
          {
            "astId": 46815,
            "contract": "contracts/PToken/PToken.sol:PToken",
            "label": "id",
            "offset": 0,
            "slot": "2",
            "type": "t_uint256"
          }
        ],
        "numberOfBytes": "96"
      },
      "t_struct(LockedBalance)46823_storage": {
        "encoding": "inplace",
        "label": "struct IPTokenStorage.LockedBalance",
        "members": [
          {
            "astId": 46818,
            "contract": "contracts/PToken/PToken.sol:PToken",
            "label": "totalLockedBalance",
            "offset": 0,
            "slot": "0",
            "type": "t_uint256"
          },
          {
            "astId": 46822,
            "contract": "contracts/PToken/PToken.sol:PToken",
            "label": "deposits",
            "offset": 0,
            "slot": "1",
            "type": "t_array(t_struct(Deposit)46816_storage)dyn_storage"
          }
        ],
        "numberOfBytes": "64"
      },
      "t_uint256": {
        "encoding": "inplace",
        "label": "uint256",
        "numberOfBytes": "32"
      },
      "t_uint8": {
        "encoding": "inplace",
        "label": "uint8",
        "numberOfBytes": "1"
      }
    }
  }
}