{
  "address": "0xd0cd5f82EB8E667aE6FC72eA85db6e50aFE21344",
  "abi": [
    {
      "inputs": [],
      "stateMutability": "nonpayable",
      "type": "constructor"
    },
    {
      "anonymous": false,
      "inputs": [
        {
          "indexed": false,
          "internalType": "uint8",
          "name": "version",
          "type": "uint8"
        }
      ],
      "name": "Initialized",
      "type": "event"
    },
    {
      "anonymous": false,
      "inputs": [
        {
          "indexed": true,
          "internalType": "address",
          "name": "user",
          "type": "address"
        },
        {
          "indexed": true,
          "internalType": "address",
          "name": "parent",
          "type": "address"
        }
      ],
      "name": "RegisteredUser",
      "type": "event"
    },
    {
      "anonymous": false,
      "inputs": [
        {
          "indexed": true,
          "internalType": "address",
          "name": "referrer",
          "type": "address"
        },
        {
          "indexed": true,
          "internalType": "address",
          "name": "referral",
          "type": "address"
        }
      ],
      "name": "SetReferralByAdmin",
      "type": "event"
    },
    {
      "anonymous": false,
      "inputs": [
        {
          "indexed": true,
          "internalType": "address",
          "name": "referrer",
          "type": "address"
        }
      ],
      "name": "SetReferrerByAdmin",
      "type": "event"
    },
    {
      "inputs": [],
      "name": "MAGIC_MESSAGE",
      "outputs": [
        {
          "internalType": "bytes",
          "name": "",
          "type": "bytes"
        }
      ],
      "stateMutability": "view",
      "type": "function"
    },
    {
      "inputs": [
        {
          "internalType": "address",
          "name": "_referrer",
          "type": "address"
        }
      ],
      "name": "getReferralsOf",
      "outputs": [
        {
          "internalType": "address[]",
          "name": "",
          "type": "address[]"
        }
      ],
      "stateMutability": "view",
      "type": "function"
    },
    {
      "inputs": [
        {
          "internalType": "address",
          "name": "_referrer",
          "type": "address"
        }
      ],
      "name": "getReferralsOfLength",
      "outputs": [
        {
          "internalType": "uint256",
          "name": "",
          "type": "uint256"
        }
      ],
      "stateMutability": "view",
      "type": "function"
    },
    {
      "inputs": [],
      "name": "getReferrers",
      "outputs": [
        {
          "internalType": "address[]",
          "name": "",
          "type": "address[]"
        }
      ],
      "stateMutability": "view",
      "type": "function"
    },
    {
      "inputs": [
        {
          "internalType": "address",
          "name": "_registry",
          "type": "address"
        }
      ],
      "name": "initialize",
      "outputs": [],
      "stateMutability": "nonpayable",
      "type": "function"
    },
    {
      "inputs": [
        {
          "internalType": "address",
          "name": "",
          "type": "address"
        },
        {
          "internalType": "uint256",
          "name": "",
          "type": "uint256"
        }
      ],
      "name": "referralsOf",
      "outputs": [
        {
          "internalType": "address",
          "name": "",
          "type": "address"
        }
      ],
      "stateMutability": "view",
      "type": "function"
    },
    {
      "inputs": [
        {
          "internalType": "address",
          "name": "",
          "type": "address"
        }
      ],
      "name": "referrerOf",
      "outputs": [
        {
          "internalType": "address",
          "name": "",
          "type": "address"
        }
      ],
      "stateMutability": "view",
      "type": "function"
    },
    {
      "inputs": [
        {
          "internalType": "uint256",
          "name": "",
          "type": "uint256"
        }
      ],
      "name": "referrers",
      "outputs": [
        {
          "internalType": "address",
          "name": "",
          "type": "address"
        }
      ],
      "stateMutability": "view",
      "type": "function"
    },
    {
      "inputs": [
        {
          "internalType": "bytes",
          "name": "_sig",
          "type": "bytes"
        }
      ],
      "name": "register",
      "outputs": [],
      "stateMutability": "nonpayable",
      "type": "function"
    },
    {
      "inputs": [],
      "name": "registry",
      "outputs": [
        {
          "internalType": "address",
          "name": "",
          "type": "address"
        }
      ],
      "stateMutability": "view",
      "type": "function"
    },
    {
      "inputs": [
        {
          "components": [
            {
              "internalType": "address",
              "name": "referrer",
              "type": "address"
            },
            {
              "internalType": "address[]",
              "name": "referrals",
              "type": "address[]"
            }
          ],
          "internalType": "struct IReferralProgramStorage.ReferralProgramUnit[]",
          "name": "referralProgramUnits",
          "type": "tuple[]"
        }
      ],
      "name": "setReferrals",
      "outputs": [],
      "stateMutability": "nonpayable",
      "type": "function"
    },
    {
      "inputs": [
        {
          "internalType": "bytes4",
          "name": "_interfaceId",
          "type": "bytes4"
        }
      ],
      "name": "supportsInterface",
      "outputs": [
        {
          "internalType": "bool",
          "name": "",
          "type": "bool"
        }
      ],
      "stateMutability": "view",
      "type": "function"
    }
  ],
  "transactionHash": "0xb74c304d18710f297a2f35fe8c6b92c645956d14c1d52c30c06f5d2f0a7995c0",
  "args": [],
  "numDeployments": 1,
  "solcInputHash": "ac08d1652288d4d03be56436412dd0c4",
  "bytecode": "0x608080604052346100c1576000549060ff8260081c1661006f575060ff80821603610034575b60405161111d90816100c78239f35b60ff90811916176000557f7f26b83ff96e1f2b6a682f133852f6798a09c465da95921460cefb3847402498602060405160ff8152a138610025565b62461bcd60e51b815260206004820152602760248201527f496e697469616c697a61626c653a20636f6e747261637420697320696e697469604482015266616c697a696e6760c81b6064820152608490fd5b600080fdfe608060408181526004918236101561001657600080fd5b600092833560e01c91826301c7224f14610c185750816301ffc9a714610bc25781632f0ae3be14610b8a5781634b02c01714610823578163552f7925146107d85781635fb4f8b41461077f5781637b1039991461075657816382fbdc9c146104185781638f6a98e514610392578163c4d66de81461017057508063d21cacdf146101365763f743d89c146100a957600080fd5b34610132576020908160031936011261012e576001600160a01b0392836100ce610c9e565b16815260358352818120938251908194808754938481520196845280842093915b838310610115576101118787610107828c0383610cb9565b5191829182610d6a565b0390f35b84548116885296810196600194850194909201916100ef565b8280fd5b5080fd5b5034610132576020366003190112610132576020916001600160a01b039082908261015f610c9e565b168152603485522054169051908152f35b9190503461012e576020908160031936011261038e5761018e610c9e565b84549060ff8260081c161591828093610381575b801561036a575b156103105760ff1981166001178755826102ff575b5082516301ffc9a760e01b8152637965db0b60e01b868201526001600160a01b0391909116908481602481855afa9081156102f55787916102c8575b50156102b8576001600160601b0360a01b603354161760335584549360ff8560081c1615610261575061022b578380f35b7f7f26b83ff96e1f2b6a682f133852f6798a09c465da95921460cefb38474024989261ff00191684555160018152a13880808380f35b825162461bcd60e51b8152908101849052602b60248201527f496e697469616c697a61626c653a20636f6e7472616374206973206e6f74206960448201526a6e697469616c697a696e6760a81b6064820152608490fd5b825163044aa57560e41b81528590fd5b6102e89150853d87116102ee575b6102e08183610cb9565b810190610dae565b386101fa565b503d6102d6565b84513d89823e3d90fd5b61ffff1916610101178655386101be565b835162461bcd60e51b8152808701869052602e60248201527f496e697469616c697a61626c653a20636f6e747261637420697320616c72656160448201526d191e481a5b9a5d1a585b1a5e995960921b6064820152608490fd5b50303b1580156101a95750600160ff8216146101a9565b50600160ff8216106101a2565b8380fd5b8284346104155780600319360112610415578151918291603654808552602080950194603683527f4a11f94e20a93c79f6ec743a1954ec4fc2c08429ae2122118bf234b2185c81b892905b8282106103f5576101118686610107828b0383610cb9565b83546001600160a01b0316875295860195600193840193909101906103dd565b80fd5b9190503461012e5760208060031936011261038e57823567ffffffffffffffff808211610752573660238301121561075257818501359081116107525736602482840101116107525733865260348352838620546001600160a01b039081161580610740575b15610730578461048c610d0d565b9388868651958697837a184f03e93ff9f4daa797ed6e38ed64bf6a1f010000000000000000808a1015610723575b506d04ee2d6d415b85acef8100000000808b1015610717575b50662386f26fc10000808b101561070a575b506305f5e100808b10156106fd575b508c612710808c10156106f1575b505060648a10156106e3575b600a809a10156106db575b6001998a8201998b61052a8c610cf1565b9b8a519c610538908e610cb9565b808d5261054490610cf1565b8c88019490601f19013686378c01602101905b6106ac575b5050509160246106059982936105d3603a8b9a9998976105fd9c519384916105b08b8401977f19457468657265756d205369676e6564204d6573736167653a0a000000000000895251809286860190610d47565b82016105c4825180938d8785019101610d47565b0103601a810184520182610cb9565b519020956105ec6105e384610cf1565b98519889610cb9565b828852018387013784010152610f7f565b929092610e65565b81169485331461069e57509160359161065d94938688526037835284882080549260ff841615610685575b5050505033865260348152828620856001600160601b0360a01b8254161790558486525233908420610e2a565b337fefca3fdd715e739f1e080ddc77892fc7ccce29dc771f8b664f46554d69efda4c8380a380f35b6106959360ff1916179055610dc6565b38808080610630565b845163636e39bb60e01b8152fd5b600019019082906f181899199a1a9b1b9c1cb0b131b232b360811b8282061a835304908c82610557575061055c565b600101610519565b98606460029104990161050e565b909a0499018c38610502565b6008919a049901386104f4565b6010919a049901386104e5565b84919a049901386104d3565b89049950869050386104ba565b84516357799e4160e11b81528690fd5b506037845260ff85882054161561047e565b8580fd5b50503461013257816003193601126101325760335490516001600160a01b039091168152602090f35b505034610132578060031936011261013257610799610c9e565b6001600160a01b03908116835260356020528183208054602435949085101561041557506020936107c991610c70565b92905490519260031b1c168152f35b828434610415578060031936011261041557506107f3610d0d565b9080518092602082526108158151809281602086015260208686019101610d47565b601f01601f19168101030190f35b9190503461012e576020908160031936011261038e5767ffffffffffffffff92803584811161075257366023820112156107525780820135948511610752576024810190602436918760051b010111610752576033548351632474521560e21b81527fc0fc8e4dc5cff6febdf550b80d566f654e2baf1a02ea1060208c2f8ab2dd1b63818501523360248201526001600160a01b03939186908290604490829088165afa908115610b80578891610b63575b5015610b555750855b8581106108e9578680f35b6109006108f782888561106b565b8681019061108d565b90506109d9575b808361091f61091a610940948a8761106b565b6110d3565b168852603780875260ff868a20541615806109b7575b610945575b50611046565b6108de565b8461095461091a848b8861106b565b1689528652848820805460ff1916600117905561097d61097861091a838a8761106b565b610dc6565b8361098c61091a838a8761106b565b167fbfb9522d943541239ac4c4e0128e95a98f1fd3682b2a597ee1da3a62f0ea94d38980a23861093a565b50846109c761091a848b8861106b565b16895260358752858920541515610935565b94959283949291945b6109f96109f0888a8961106b565b8581019061108d565b9050811015610b48578083610a2b61091a610a5694610a25610a1c8d8f8e61106b565b8a81019061108d565b906110c3565b16865286848a8a8885888c60349485855287838320541615610a5b575b505050505050505050611046565b6109e2565b8689898585610b139a8a84610ade819f8d61091a9f6108f7610a259f610b0a9f948f9161091a8f8381610ad3610a2599610acd8f8d61091a9f610ad89a610a259161091a948f9b61091a8d8d610ab09361106b565b168152603587522094610ac48a8a8a61106b565b9081019061108d565b90610e2a565b61106b565b9d61106b565b168352522091166001600160601b0360a01b825416179055610b0461091a83838d61106b565b9961106b565b8c81019061108d565b1691167f9b2b789e1f5ce0bc7ab2b2d2d787af0f1638d8bd218759d6abdb1f5ef10f932d8880a386848a388885888c8f610a48565b5092959491939091610907565b835163036be76f60e61b8152fd5b610b7a9150863d88116102ee576102e08183610cb9565b386108d5565b85513d8a823e3d90fd5b5050346101325760203660031901126101325760209181906001600160a01b03610bb2610c9e565b1681526035845220549051908152f35b90503461012e57602036600319011261012e57359063ffffffff60e01b821680920361012e57602092506301ffc9a760e01b8214918215610c07575b50519015158152f35b63168334a960e21b14915038610bfe565b84913461012e57602036600319011261012e573560365481101561012e5760369092527f4a11f94e20a93c79f6ec743a1954ec4fc2c08429ae2122118bf234b2185c81b8909101546001600160a01b03168152602090f35b8054821015610c885760005260206000200190600090565b634e487b7160e01b600052603260045260246000fd5b600435906001600160a01b0382168203610cb457565b600080fd5b90601f8019910116810190811067ffffffffffffffff821117610cdb57604052565b634e487b7160e01b600052604160045260246000fd5b67ffffffffffffffff8111610cdb57601f01601f191660200190565b604051906040820182811067ffffffffffffffff821117610cdb57604052600d82526c526566657272616c206c696e6b60981b6020830152565b60005b838110610d5a5750506000910152565b8181015183820152602001610d4a565b6020908160408183019282815285518094520193019160005b828110610d91575050505090565b83516001600160a01b031685529381019392810192600101610d83565b90816020910312610cb457518015158103610cb45790565b603654600160401b811015610cdb576001810180603655811015610c885760366000527f4a11f94e20a93c79f6ec743a1954ec4fc2c08429ae2122118bf234b2185c81b80180546001600160a01b0319166001600160a01b03909216919091179055565b8054600160401b811015610cdb57610e4791600182018155610c70565b819291549060031b9160018060a01b03809116831b921b1916179055565b6005811015610f695780610e765750565b60018103610ec35760405162461bcd60e51b815260206004820152601860248201527f45434453413a20696e76616c6964207369676e617475726500000000000000006044820152606490fd5b60028103610f105760405162461bcd60e51b815260206004820152601f60248201527f45434453413a20696e76616c6964207369676e6174757265206c656e677468006044820152606490fd5b600314610f1957565b60405162461bcd60e51b815260206004820152602260248201527f45434453413a20696e76616c6964207369676e6174757265202773272076616c604482015261756560f01b6064820152608490fd5b634e487b7160e01b600052602160045260246000fd5b906041815114600014610fad57610fa9916020820151906060604084015193015160001a90610fb7565b9091565b5050600090600290565b9291907f7fffffffffffffffffffffffffffffff5d576e7357a4501ddfe92f46681b20a0831161103a5791608094939160ff602094604051948552168484015260408301526060820152600093849182805260015afa1561102d5781516001600160a01b03811615611027579190565b50600190565b50604051903d90823e3d90fd5b50505050600090600390565b60001981146110555760010190565b634e487b7160e01b600052601160045260246000fd5b9190811015610c885760051b81013590603e1981360301821215610cb4570190565b903590601e1981360301821215610cb4570180359067ffffffffffffffff8211610cb457602001918160051b36038313610cb457565b9190811015610c885760051b0190565b356001600160a01b0381168103610cb4579056fea26469706673582212209c79db6f7684ab0f7f2df08c062f8a5f0246788c7102fc855ffca8702f004cb564736f6c63430008120033",
  "libraries": {
    "Errors": "0xB959663e3FAb840C9bfebC6d2d32822D25317292"
  },
  "devdoc": {
    "events": {
      "Initialized(uint8)": {
        "details": "Triggered when the contract has been initialized or reinitialized."
      },
      "RegisteredUser(address,address)": {
        "details": "event of register success",
        "params": {
          "parent": "referrerOf of user",
          "user": "address"
        }
      },
      "SetReferralByAdmin(address,address)": {
        "details": "The event for set referral by admin. The referral is set in accordance with her referrer.",
        "params": {
          "referral": "The address of a referrer's referral.",
          "referrer": "The address of a referrer."
        }
      },
      "SetReferrerByAdmin(address)": {
        "details": "The event for set referrer by Admin.",
        "params": {
          "referrer": "Address of a referrer added by Admin."
        }
      }
    },
    "kind": "dev",
    "methods": {
      "getReferralsOf(address)": {
        "details": "Gets referrals array of particular referrer",
        "params": {
          "_referrer": "The address of a referrer"
        }
      },
      "getReferralsOfLength(address)": {
        "details": "The amount of referrals for a particular referrer",
        "params": {
          "_referrer": "The address of a referrer"
        }
      },
      "getReferrers()": {
        "details": "get list of referrers"
      },
      "initialize(address)": {
        "details": "contract initializer",
        "params": {
          "_registry": "The Registry contract address"
        }
      },
      "register(bytes)": {
        "details": "Function to add new referral. Adds address that signed a hashed message as referrer",
        "params": {
          "_referrerSignature": "Hash of MAGIC_MESSAGE signed by referrer"
        }
      },
      "setReferrals((address,address[])[])": {
        "params": {
          "referralProgramUnits": "Array of referrers with their referrals"
        }
      },
      "supportsInterface(bytes4)": {
        "params": {
          "_interfaceId": "The interface id to check"
        }
      }
    },
    "version": 1
  },
  "userdoc": {
    "kind": "user",
    "methods": {
      "supportsInterface(bytes4)": {
        "notice": "Interface checker"
      }
    },
    "version": 1
  },
  "storageLayout": {
    "storage": [
      {
        "astId": 2890,
        "contract": "contracts/ReferralProgram/ReferralProgram.sol:ReferralProgram",
        "label": "_initialized",
        "offset": 0,
        "slot": "0",
        "type": "t_uint8"
      },
      {
        "astId": 2893,
        "contract": "contracts/ReferralProgram/ReferralProgram.sol:ReferralProgram",
        "label": "_initializing",
        "offset": 1,
        "slot": "0",
        "type": "t_bool"
      },
      {
        "astId": 6506,
        "contract": "contracts/ReferralProgram/ReferralProgram.sol:ReferralProgram",
        "label": "__gap",
        "offset": 0,
        "slot": "1",
        "type": "t_array(t_uint256)50_storage"
      },
      {
        "astId": 47429,
        "contract": "contracts/ReferralProgram/ReferralProgram.sol:ReferralProgram",
        "label": "registry",
        "offset": 0,
        "slot": "51",
        "type": "t_address"
      },
      {
        "astId": 47433,
        "contract": "contracts/ReferralProgram/ReferralProgram.sol:ReferralProgram",
        "label": "referrerOf",
        "offset": 0,
        "slot": "52",
        "type": "t_mapping(t_address,t_address)"
      },
      {
        "astId": 47438,
        "contract": "contracts/ReferralProgram/ReferralProgram.sol:ReferralProgram",
        "label": "referralsOf",
        "offset": 0,
        "slot": "53",
        "type": "t_mapping(t_address,t_array(t_address)dyn_storage)"
      },
      {
        "astId": 47441,
        "contract": "contracts/ReferralProgram/ReferralProgram.sol:ReferralProgram",
        "label": "referrers",
        "offset": 0,
        "slot": "54",
        "type": "t_array(t_address)dyn_storage"
      },
      {
        "astId": 47445,
        "contract": "contracts/ReferralProgram/ReferralProgram.sol:ReferralProgram",
        "label": "alreadyReferrer",
        "offset": 0,
        "slot": "55",
        "type": "t_mapping(t_address,t_bool)"
      }
    ],
    "types": {
      "t_address": {
        "encoding": "inplace",
        "label": "address",
        "numberOfBytes": "20"
      },
      "t_array(t_address)dyn_storage": {
        "base": "t_address",
        "encoding": "dynamic_array",
        "label": "address[]",
        "numberOfBytes": "32"
      },
      "t_array(t_uint256)50_storage": {
        "base": "t_uint256",
        "encoding": "inplace",
        "label": "uint256[50]",
        "numberOfBytes": "1600"
      },
      "t_bool": {
        "encoding": "inplace",
        "label": "bool",
        "numberOfBytes": "1"
      },
      "t_mapping(t_address,t_address)": {
        "encoding": "mapping",
        "key": "t_address",
        "label": "mapping(address => address)",
        "numberOfBytes": "32",
        "value": "t_address"
      },
      "t_mapping(t_address,t_array(t_address)dyn_storage)": {
        "encoding": "mapping",
        "key": "t_address",
        "label": "mapping(address => address[])",
        "numberOfBytes": "32",
        "value": "t_array(t_address)dyn_storage"
      },
      "t_mapping(t_address,t_bool)": {
        "encoding": "mapping",
        "key": "t_address",
        "label": "mapping(address => bool)",
        "numberOfBytes": "32",
        "value": "t_bool"
      },
      "t_uint256": {
        "encoding": "inplace",
        "label": "uint256",
        "numberOfBytes": "32"
      },
      "t_uint8": {
        "encoding": "inplace",
        "label": "uint8",
        "numberOfBytes": "1"
      }
    }
  }
}