{
  "address": "0xdD1000357E9A9d985854e63867dbA9b4c00A3909",
  "abi": [
    {
      "inputs": [],
      "stateMutability": "nonpayable",
      "type": "constructor"
    },
    {
      "inputs": [],
      "name": "DS_MATH_ADD_OVERFLOW",
      "type": "error"
    },
    {
      "inputs": [],
      "name": "DS_MATH_MUL_OVERFLOW",
      "type": "error"
    },
    {
      "anonymous": false,
      "inputs": [
        {
          "indexed": true,
          "internalType": "address",
          "name": "receiver",
          "type": "address"
        },
        {
          "indexed": true,
          "internalType": "address",
          "name": "bucket",
          "type": "address"
        },
        {
          "indexed": false,
          "internalType": "uint256",
          "name": "amount",
          "type": "uint256"
        }
      ],
      "name": "ClaimedReward",
      "type": "event"
    },
    {
      "anonymous": false,
      "inputs": [
        {
          "indexed": false,
          "internalType": "uint8",
          "name": "version",
          "type": "uint8"
        }
      ],
      "name": "Initialized",
      "type": "event"
    },
    {
      "anonymous": false,
      "inputs": [
        {
          "indexed": false,
          "internalType": "address",
          "name": "account",
          "type": "address"
        }
      ],
      "name": "Paused",
      "type": "event"
    },
    {
      "anonymous": false,
      "inputs": [
        {
          "indexed": false,
          "internalType": "address",
          "name": "account",
          "type": "address"
        }
      ],
      "name": "Unpaused",
      "type": "event"
    },
    {
      "anonymous": false,
      "inputs": [
        {
          "indexed": true,
          "internalType": "uint256",
          "name": "amount",
          "type": "uint256"
        }
      ],
      "name": "WithdrawPmxByAdmin",
      "type": "event"
    },
    {
      "inputs": [
        {
          "internalType": "string",
          "name": "_bucketName",
          "type": "string"
        },
        {
          "internalType": "address",
          "name": "_user",
          "type": "address"
        },
        {
          "internalType": "uint256",
          "name": "_miningAmount",
          "type": "uint256"
        },
        {
          "internalType": "uint256",
          "name": "_maxStabilizationPeriodEnd",
          "type": "uint256"
        },
        {
          "internalType": "uint256",
          "name": "_maxPeriodTime",
          "type": "uint256"
        },
        {
          "internalType": "uint256",
          "name": "_currentTimestamp",
          "type": "uint256"
        }
      ],
      "name": "addPoints",
      "outputs": [],
      "stateMutability": "nonpayable",
      "type": "function"
    },
    {
      "inputs": [
        {
          "internalType": "string",
          "name": "_bucketName",
          "type": "string"
        }
      ],
      "name": "claimReward",
      "outputs": [],
      "stateMutability": "nonpayable",
      "type": "function"
    },
    {
      "inputs": [
        {
          "internalType": "address",
          "name": "",
          "type": "address"
        },
        {
          "internalType": "string",
          "name": "",
          "type": "string"
        }
      ],
      "name": "extraRewards",
      "outputs": [
        {
          "internalType": "uint256",
          "name": "",
          "type": "uint256"
        }
      ],
      "stateMutability": "view",
      "type": "function"
    },
    {
      "inputs": [
        {
          "internalType": "string",
          "name": "_bucketName",
          "type": "string"
        }
      ],
      "name": "getBucketInfo",
      "outputs": [
        {
          "internalType": "uint256",
          "name": "totalPmxReward",
          "type": "uint256"
        },
        {
          "internalType": "uint256",
          "name": "withdrawnRewards",
          "type": "uint256"
        },
        {
          "internalType": "uint256",
          "name": "totalPoints",
          "type": "uint256"
        }
      ],
      "stateMutability": "view",
      "type": "function"
    },
    {
      "inputs": [
        {
          "internalType": "string",
          "name": "_bucketName",
          "type": "string"
        },
        {
          "internalType": "address",
          "name": "_lender",
          "type": "address"
        }
      ],
      "name": "getLenderAmountInMining",
      "outputs": [
        {
          "internalType": "uint256",
          "name": "",
          "type": "uint256"
        }
      ],
      "stateMutability": "view",
      "type": "function"
    },
    {
      "inputs": [
        {
          "internalType": "string",
          "name": "_bucketName",
          "type": "string"
        },
        {
          "internalType": "address",
          "name": "_lender",
          "type": "address"
        },
        {
          "internalType": "uint256",
          "name": "_timestamp",
          "type": "uint256"
        }
      ],
      "name": "getLenderInfo",
      "outputs": [
        {
          "internalType": "uint256",
          "name": "amountInMining",
          "type": "uint256"
        },
        {
          "internalType": "uint256",
          "name": "currentPercent",
          "type": "uint256"
        },
        {
          "components": [
            {
              "internalType": "uint256",
              "name": "minReward",
              "type": "uint256"
            },
            {
              "internalType": "uint256",
              "name": "maxReward",
              "type": "uint256"
            },
            {
              "internalType": "uint256",
              "name": "extraReward",
              "type": "uint256"
            }
          ],
          "internalType": "struct ILiquidityMiningRewardDistributor.RewardsInPMX",
          "name": "rewardsInPMX",
          "type": "tuple"
        }
      ],
      "stateMutability": "view",
      "type": "function"
    },
    {
      "inputs": [
        {
          "internalType": "contract IPrimexDNS",
          "name": "_primexDNS",
          "type": "address"
        },
        {
          "internalType": "contract IERC20",
          "name": "_pmx",
          "type": "address"
        },
        {
          "internalType": "contract ITraderBalanceVault",
          "name": "_traderBalanceVault",
          "type": "address"
        },
        {
          "internalType": "address",
          "name": "_registry",
          "type": "address"
        },
        {
          "internalType": "address",
          "name": "_treasury",
          "type": "address"
        },
        {
          "internalType": "uint256",
          "name": "_reinvestmentRate",
          "type": "uint256"
        },
        {
          "internalType": "uint256",
          "name": "_reinvestmentDuration",
          "type": "uint256"
        },
        {
          "internalType": "contract IWhiteBlackList",
          "name": "_whiteBlackList",
          "type": "address"
        }
      ],
      "name": "initialize",
      "outputs": [],
      "stateMutability": "nonpayable",
      "type": "function"
    },
    {
      "inputs": [],
      "name": "pause",
      "outputs": [],
      "stateMutability": "nonpayable",
      "type": "function"
    },
    {
      "inputs": [],
      "name": "paused",
      "outputs": [
        {
          "internalType": "bool",
          "name": "",
          "type": "bool"
        }
      ],
      "stateMutability": "view",
      "type": "function"
    },
    {
      "inputs": [],
      "name": "pmx",
      "outputs": [
        {
          "internalType": "contract IERC20",
          "name": "",
          "type": "address"
        }
      ],
      "stateMutability": "view",
      "type": "function"
    },
    {
      "inputs": [],
      "name": "primexDNS",
      "outputs": [
        {
          "internalType": "contract IPrimexDNS",
          "name": "",
          "type": "address"
        }
      ],
      "stateMutability": "view",
      "type": "function"
    },
    {
      "inputs": [],
      "name": "registry",
      "outputs": [
        {
          "internalType": "address",
          "name": "",
          "type": "address"
        }
      ],
      "stateMutability": "view",
      "type": "function"
    },
    {
      "inputs": [
        {
          "internalType": "string",
          "name": "_bucketFrom",
          "type": "string"
        },
        {
          "internalType": "string",
          "name": "_bucketTo",
          "type": "string"
        },
        {
          "internalType": "address",
          "name": "_user",
          "type": "address"
        },
        {
          "internalType": "bool",
          "name": "_isBucketToLaunched",
          "type": "bool"
        },
        {
          "internalType": "uint256",
          "name": "_bucketFromLiquidityMiningDeadline",
          "type": "uint256"
        }
      ],
      "name": "reinvest",
      "outputs": [],
      "stateMutability": "nonpayable",
      "type": "function"
    },
    {
      "inputs": [],
      "name": "reinvestmentDuration",
      "outputs": [
        {
          "internalType": "uint256",
          "name": "",
          "type": "uint256"
        }
      ],
      "stateMutability": "view",
      "type": "function"
    },
    {
      "inputs": [],
      "name": "reinvestmentRate",
      "outputs": [
        {
          "internalType": "uint256",
          "name": "",
          "type": "uint256"
        }
      ],
      "stateMutability": "view",
      "type": "function"
    },
    {
      "inputs": [
        {
          "internalType": "string",
          "name": "_bucketName",
          "type": "string"
        },
        {
          "internalType": "address",
          "name": "_user",
          "type": "address"
        },
        {
          "internalType": "uint256",
          "name": "_amount",
          "type": "uint256"
        }
      ],
      "name": "removePoints",
      "outputs": [],
      "stateMutability": "nonpayable",
      "type": "function"
    },
    {
      "inputs": [
        {
          "internalType": "bytes4",
          "name": "_interfaceId",
          "type": "bytes4"
        }
      ],
      "name": "supportsInterface",
      "outputs": [
        {
          "internalType": "bool",
          "name": "",
          "type": "bool"
        }
      ],
      "stateMutability": "view",
      "type": "function"
    },
    {
      "inputs": [],
      "name": "traderBalanceVault",
      "outputs": [
        {
          "internalType": "contract ITraderBalanceVault",
          "name": "",
          "type": "address"
        }
      ],
      "stateMutability": "view",
      "type": "function"
    },
    {
      "inputs": [],
      "name": "treasury",
      "outputs": [
        {
          "internalType": "address",
          "name": "",
          "type": "address"
        }
      ],
      "stateMutability": "view",
      "type": "function"
    },
    {
      "inputs": [],
      "name": "unpause",
      "outputs": [],
      "stateMutability": "nonpayable",
      "type": "function"
    },
    {
      "inputs": [
        {
          "internalType": "string",
          "name": "_bucketName",
          "type": "string"
        },
        {
          "internalType": "uint256",
          "name": "_pmxRewardAmount",
          "type": "uint256"
        }
      ],
      "name": "updateBucketReward",
      "outputs": [],
      "stateMutability": "nonpayable",
      "type": "function"
    },
    {
      "inputs": [
        {
          "internalType": "string",
          "name": "_bucketFrom",
          "type": "string"
        }
      ],
      "name": "withdrawPmxByAdmin",
      "outputs": [],
      "stateMutability": "nonpayable",
      "type": "function"
    }
  ],
  "transactionHash": "0x639cc430f75ef457b971112c4ceeebe9c6c1d8421ee9c235b8c54520bad3a040",
  "args": [],
  "numDeployments": 1,
  "solcInputHash": "ac08d1652288d4d03be56436412dd0c4",
  "bytecode": "0x608080604052346100c1576000549060ff8260081c1661006f575060ff80821603610034575b6040516124f190816100c78239f35b60ff90811916176000557f7f26b83ff96e1f2b6a682f133852f6798a09c465da95921460cefb3847402498602060405160ff8152a138610025565b62461bcd60e51b815260206004820152602760248201527f496e697469616c697a61626c653a20636f6e747261637420697320696e697469604482015266616c697a696e6760c81b6064820152608490fd5b600080fdfe608060408181526004908136101561001657600080fd5b600092833560e01c90816301ffc9a7146119b257508063027a810a146119415780630460f0f31461191857806311ddedf1146118a957806311eaff8e146118625780633f4a2d27146118395780633f4ba83a146116fa5780635c975abb146116d657806361d027b3146116ad5780637b103999146116845780638456cb59146115785780638c3e9254146114ed5780638f8ebe151461113d57806394a3e69e1461111e5780639968861e146110f5578063acfee9cb146110d6578063bb8c979714610c5d578063be5daee514610be8578063c15a633714610b81578063c16dabaf1461067b578063c1dc738b146102c45763e976e18b1461011657600080fd5b346102c05760c03660031901126102c05781356001600160401b0381116102bc576101449036908401611a50565b9161014d611ad3565b60c954835163af9a2aa760e01b81526044359592936020936001600160a01b0393909290859082908616818061018588828901611bb3565b03915afa9081156102b2578991610279575b50833391160361026b575091600361024a826001969461026698966101d56084356101d08d6101ca60a435606435611c34565b90611f77565b612478565b8851928251938581818601966101ec81838a611ae9565b810160d2815203019020610201838254611bdf565b9055868a518681865161021581838b611ae9565b810160d28152030190200198169788600052845261023889600020918254611bdf565b90558751938492839251928391611ae9565b810160d281520301902001916000525260002001918254611bdf565b905580f35b855163036be76f60e61b8152fd5b90508481813d83116102ab575b6102908183611a2f565b810103126102a7576102a190611b9f565b38610197565b8880fd5b503d610286565b87513d8b823e3d90fd5b8380fd5b8280fd5b50829034610677576020806003193601126102c05783356001600160401b0381116102bc576102f69036908601611aa6565b60cc548451632474521560e21b81527fc0fc8e4dc5cff6febdf550b80d566f654e2baf1a02ea1060208c2f8ab2dd1b63888201523360248201529194926001600160a01b0392909185908290604490829087165afa90811561062457879161063e575b501561062e576103866080868460c95416848b88519586948593849363481d98fb60e11b85528401611eb7565b03915afa9081156106245790839188916105f3575b5016835190634c66358f60e11b82526101209182818b81855afa9283156105e9579187918b94938b946105ba575b50508651634db1160160e11b815293849182905afa9182156105b0578892610575575b508115610544575b5015610534576104316001845187848237868189810160d28152030190200154600285518885823787818a810160d2815203019020015490611c34565b94851561052457918596976104ad969260028795866001895183868237828185810160d2815203019020015493828a519384928337810160d28152030190200155888260ca54169260cd54169186519889958694859363a9059cbb60e01b8552840160209093929193604081019460018060a01b031681520152565b03925af190811561051b57506104e7575b50507f7cea1f9ae2299e434981a505b9efcce1b1e9e4e416d3b952271721fbb310bb578280a280f35b81813d8311610514575b6104fb8183611a2f565b810103126102c05761050c90611b32565b5082806104be565b503d6104f1565b513d86823e3d90fd5b8351630f6fa54560e41b81528890fd5b82516303ac45d760e01b81528790fd5b905084610558606083015160cf5490611bdf565b42119182610569575b5050886103f4565b01511590508489610561565b9091508581813d83116105a9575b61058d8183611a2f565b810103126105a55761059e90611b32565b90896103ec565b8780fd5b503d610583565b85513d8a823e3d90fd5b6105da929450803d106105e2575b6105d28183611a2f565b810190611edf565b918b806103c9565b503d6105c8565b86513d8b823e3d90fd5b610614915060803d811161061d575b61060c8183611a2f565b810190611c02565b5050508961039b565b503d610602565b84513d89823e3d90fd5b825163036be76f60e61b81528790fd5b90508481813d8311610670575b6106558183611a2f565b8101031261066c5761066690611b32565b88610359565b8680fd5b503d61064b565b5080fd5b5082903461067757610100366003190112610677576001600160a01b039280358481169291908390036102bc57602492833595808716809703610b7d5760443581811680910361066c57606435828116809103610b785760843591838316809303610b785760a4359460e435948516809503610b745789549a60ff8c60081c161597888d819a610b66575b508015610b47575b15610aee5760ff19808e166001178d559b9c89610add575b5089516301ffc9a760e01b8082526336372b0760e01b8383015260209c8f918e848381895afa93841561096057908f918495610aa5575b5084610a3c575b846109d3575b8461096a575b846108f7575b84610881575b505050501561087357670de0b6b3a7640000881161086557506bffffffffffffffffffffffff60a01b948560cd54161760cd558460ca54161760ca558360c954161760c9558260cb54161760cb558160cc54161760cc5560d154161760d15560ce5560c43560cf5561082285549460ff8660081c16906107fb82611b3f565b61080482611b3f565b6033541660335561081481611b3f565b61081d81611b3f565b611b3f565b600160975561082f578380f35b7f7f26b83ff96e1f2b6a682f133852f6798a09c465da95921460cefb38474024989261ff00191684555160018152a18180808380f35b895163948b756d60e01b8152fd5b895163044aa57560e41b8152fd5b8e51908152633df6cef760e01b86820152929350908290818c5afa9182156108ec57916108b3575b508d8f8d8161077c565b90508b81813d83116108e5575b6108ca8183611a2f565b810103126108e1576108db90611b32565b8e6108a9565b8d80fd5b503d6108c0565b8c51903d90823e3d90fd5b8e518181526312b3ed2b60e01b87820152909450908183818b5afa90811561096057908f91849161092a575b5093610776565b82819392503d8311610959575b6109418183611a2f565b810103126102c0576109538f91611b32565b38610923565b503d610937565b8e513d85823e3d90fd5b8e5181815263fa6ab0ef60e01b87820152909450908183818a5afa90811561096057908f91849161099d575b5093610770565b82819392503d83116109cc575b6109b48183611a2f565b810103126102c0576109c68f91611b32565b38610996565b503d6109aa565b8e518181526329abf30760e11b87820152909450908183818d5afa90811561096057908f918491610a06575b509361076a565b82819392503d8311610a35575b610a1d8183611a2f565b810103126102c057610a2f8f91611b32565b386109ff565b503d610a13565b8e51818152637965db0b60e01b87820152909450908183818c5afa90811561096057908f918491610a6f575b5093610764565b82819392503d8311610a9e575b610a868183611a2f565b810103126102c057610a988f91611b32565b38610a68565b503d610a7c565b8281939296503d8311610ad6575b610abd8183611a2f565b810103126102c057610acf8f91611b32565b933861075d565b503d610ab3565b61ffff1916610101178d558d610726565b608490602e8c60208d519362461bcd60e51b85528401528201527f496e697469616c697a61626c653a20636f6e747261637420697320616c72656160448201526d191e481a5b9a5d1a585b1a5e995960921b6064820152fd5b50303b158d81610b58575b5061070e565b6001915060ff16148d610b52565b6001915060ff16108d610706565b8980fd5b600080fd5b8580fd5b5090346102c057816003193601126102c05780356001600160a01b0381169190829003610b78576024356001600160401b038111610be457602094610bce610bdc94938693369101611a50565b92815260d086522090611b0c565b549051908152f35b8480fd5b508234610c5a5781600319360112610c5a578235906001600160401b038211610c5a5750610c1d602093600392369101611aa6565b84610c29939293611ad3565b938286519384928337810160d2815203019020019060018060a01b0316600052825260018160002001549051908152f35b80fd5b50346102c057602090816003193601126102bc5782356001600160401b038111610be457610c8e9036908501611a50565b9160026097541461109457600260975560d1548251630723eb0360e51b815233868201526001600160a01b039183908290602490829086165afa90811561062457879161105f575b5061104f578060c9541660808451809263481d98fb60e11b82528180610cfe8a8c8301611bb3565b03915afa90811561062457908291889161102e575b5016948351632e51d3ed60e01b8152838183818a5afa9081156105b0578891610ff9575b5015610feb57835160038651918581818a0194610d55818388611ae9565b810160d281520301902001336000528452610db8610d9686600020546001885188818c51610d8481838b611ae9565b810160d2815203019020015490611f77565b865186818a51610da7818389611ae9565b810160d28152030190205490611f8a565b670de0b6b3a76400009081810290808204831481151715610fc65782820403610fdb576706f05b59d3b20000810190818111610fc6578110610fb657610e7c886002610e4a898e999897600060018e6003839b610e8d9b0498868351809251610e2281838b611ae9565b810160d2815203019020013384528552822082815501558d8d51938492839251928391611ae9565b810160d281520301902001610e60828254611bdf565b905533845260d08852610e758985208b611b0c565b5490611bdf565b9733835260d0875287832090611b0c565b55610e96611e73565b60ca5460cb54865163a9059cbb60e01b81529084166001600160a01b03168382019081526020810189905290918691839186169082908890829060400103925af18015610fac57610f78575b508160cb54169160ca5416823b156102bc5760648492838851958694859363220eb46560e11b8552339085015260248401528a60448401525af18015610f6e57610f5a575b50507faee3654837b73cc93e61b5d33f82d45b1df4dbe682913819f5ce40de23518e7291519283523392a3600160975580f35b610f6390611a06565b610be4578438610f27565b84513d84823e3d90fd5b8481813d8311610fa5575b610f8d8183611a2f565b810103126102bc57610f9e90611b32565b5038610ee2565b503d610f83565b86513d86823e3d90fd5b8651630a77254f60e01b81528490fd5b601185634e487b7160e01b6000525260246000fd5b8651631550e8b760e01b81528490fd5b83516354c36d8f60e11b8152fd5b90508381813d8311611027575b6110108183611a2f565b810103126105a55761102190611b32565b38610d37565b503d611006565b611046915060803d811161061d5761060c8183611a2f565b50505038610d13565b82516333df015b60e01b81528590fd5b90508281813d831161108d575b6110768183611a2f565b8101031261066c5761108790611b32565b38610cd6565b503d61106c565b8390606492519162461bcd60e51b8352820152601f60248201527f5265656e7472616e637947756172643a207265656e7472616e742063616c6c006044820152fd5b83823461067757816003193601126106775760209060ce549051908152f35b83823461067757816003193601126106775760cb5490516001600160a01b039091168152602090f35b83823461067757816003193601126106775760209060cf549051908152f35b50346102c05760a03660031901126102c0576001600160401b038235818111610be45761116d9036908501611a50565b90602435908111610be4576111859036908501611a50565b906044359260018060a01b0380851680950361066c576064359586151587036105a55760c954835163af9a2aa760e01b81526020969187908290861681806111cf8b898301611bb3565b03915afa9081156114e3579084918b916114ab575b50169733890361149b576111fc60cf54608435611bdf565b421161148b57908992918360ce548751908951918b81818d0194611221818388611ae9565b810160d28152030190206003018c84528b528883205489518c818d51611248818389611ae9565b810160d28152030190206001015461125f91611f77565b89518c818d51611270818389611ae9565b810160d28152030190205461128491611f8a565b9061128e916123f9565b9088518b818c516112a0818387611ae9565b810160d28152030190206003018c84528b5282898120818155600101558a89518080938d5180926112d092611ae9565b810160d2815203019020600201818154906112ea91611bdf565b90558a825260d08a52878220611300908a611b0c565b5461130a91611bdf565b978a825260d08a5287822061131e91611b0c565b5515611468575061132d611e73565b60ca5460cb54855163a9059cbb60e01b81529085166001600160a01b03168382019081526020810188905290918891839187169082908790829060400103925af1801561145e5761142a575b5060cb5460ca5484169316803b156102c0578791836064928751968795869463220eb46560e11b865285015260248401528860448401525af18015611420576113e9575b50519081527faee3654837b73cc93e61b5d33f82d45b1df4dbe682913819f5ce40de23518e729190a380f35b956114177faee3654837b73cc93e61b5d33f82d45b1df4dbe682913819f5ce40de23518e7294939297611a06565b959091926113bd565b82513d89823e3d90fd5b8681813d8311611457575b61143f8183611a2f565b810103126102c05761145090611b32565b5038611379565b503d611435565b85513d85823e3d90fd5b9497505060d091509361026695611483955252852090611b0c565b918254611bdf565b8451639a9a6f1760e01b81528390fd5b845163036be76f60e61b81528390fd5b809250888092503d83116114dc575b6114c48183611a2f565b81010312610b74576114d68491611b9f565b386111e4565b503d6114ba565b85513d8c823e3d90fd5b508234610c5a576020366003190112610c5a578235906001600160401b038211610c5a575060609261152191369101611aa6565b91600181518484823760208186810160d281520301902001549260206002835183868237828185810160d28152030190200154938284519384928337810160d2815203019020549181519384526020840152820152f35b5090346102c057826003193601126102c05760cc548251632474521560e21b81527f5c91514091af31f62f596a314af7d5be40146b2f2355969392f055e12e0982fb8382015233602482015290602090829060449082906001600160a01b03165afa90811561167757849161163e575b5015611630575060207f62e78cea01bee320cd4e420270b5ea74000d11b0c9f74754ebdbfc544b05a2589161161b611e73565b600160ff19603354161760335551338152a180f35b905163036be76f60e61b8152fd5b90506020813d821161166f575b8161165860209383611a2f565b810103126102bc5761166990611b32565b386115e8565b3d915061164b565b50505051903d90823e3d90fd5b83823461067757816003193601126106775760cc5490516001600160a01b039091168152602090f35b83823461067757816003193601126106775760cd5490516001600160a01b039091168152602090f35b83823461067757816003193601126106775760209060ff6033541690519015158152f35b5082903461067757816003193601126106775760cc548151632474521560e21b81527f5a7d4408f4759dddd7fdfd0d21abd99341dc2f52cda14804988a9b2df20766d885820152336024820152602092918390829060449082906001600160a01b03165afa90811561182f5784916117fa575b50156117eb576033549360ff8516156117b357507f5db9ee0a495bf2e6ff9c91a7834c1ba4fdd244a5e8aa4e537bd38aeae4b073aa929360ff191660335551338152a180f35b82606492519162461bcd60e51b8352820152601460248201527314185d5cd8589b194e881b9bdd081c185d5cd95960621b6044820152fd5b5163036be76f60e61b81528390fd5b90508281813d8311611828575b6118118183611a2f565b810103126102bc5761182290611b32565b8561176d565b503d611807565b82513d86823e3d90fd5b83823461067757816003193601126106775760c95490516001600160a01b039091168152602090f35b5050346106775760603660031901126106775780356001600160401b0381116102c0576118a69161189591369101611a50565b61189d611ad3565b60443591611c41565b80f35b508234610c5a576060366003190112610c5a578235906001600160401b038211610c5a57506118e060a0936118f292369101611aa6565b6118e8611ad3565b9060443592611faa565b908392935193845260208401528051828401526020810151606084015201516080820152f35b83823461067757816003193601126106775760ca5490516001600160a01b039091168152602090f35b50346102c057806003193601126102c05781356001600160401b0381116102bc5761196f9036908401611a50565b60c9549092906001600160a01b031633036116305750602061199b600192519384815193849201611ae9565b82019160d283526020816024359403019020015580f35b849084346102c05760203660031901126102c0573563ffffffff60e01b81168091036102c0576020925063edebbfe960e01b81149081156119f5575b5015158152f35b6301ffc9a760e01b149050836119ee565b6001600160401b038111611a1957604052565b634e487b7160e01b600052604160045260246000fd5b90601f801991011681019081106001600160401b03821117611a1957604052565b81601f82011215610b78578035906001600160401b038211611a195760405192611a84601f8401601f191660200185611a2f565b82845260208383010111610b7857816000926020809301838601378301015290565b9181601f84011215610b78578235916001600160401b038311610b785760208381860195010111610b7857565b602435906001600160a01b0382168203610b7857565b60005b838110611afc5750506000910152565b8181015183820152602001611aec565b602090611b26928260405194838680955193849201611ae9565b82019081520301902090565b51908115158203610b7857565b15611b4657565b60405162461bcd60e51b815260206004820152602b60248201527f496e697469616c697a61626c653a20636f6e7472616374206973206e6f74206960448201526a6e697469616c697a696e6760a81b6064820152608490fd5b51906001600160a01b0382168203610b7857565b60409160208252611bd38151809281602086015260208686019101611ae9565b601f01601f1916010190565b91908201809211611bec57565b634e487b7160e01b600052601160045260246000fd5b9190826080910312610b7857611c1782611b9f565b9160208101516003811015610b7857916060604083015192015190565b91908203918211611bec57565b60c9546040805163481d98fb60e11b815293946001600160a01b0394909392608090829087168180611c768860048301611bb3565b03915afa908115611e6857600091611e47575b508433911603611e37578051928251946003602095868181880199611caf81838d611ae9565b810160d28152030190200196169586600052845281600020906001820191818354148015611e2c575b611db557825482811115611da45790611d2e611cf88493611d3795612478565b98611d1989611d088c86546123f9565b928951809381928d51928391611ae9565b810160d2815203019020611d2e828254611c34565b90558254611c34565b90558460005260d08352611d4e8160002083611b0c565b54611d5b575b5050505050565b60d0611d9093611d82611d989688600052838352611d7c8560002087611b0c565b546123f9565b966000525260002090611b0c565b918254611c34565b90553880808080611d54565b84516357edfc4160e11b8152600490fd5b8592506000979150611e0560d0949596611e299860039354611df3895184818d51611de1818389611ae9565b810160d2815203019020918254611c34565b90558751809381928b51928391611ae9565b810160d2815203019020019087528152856001848220828155015552832090611b0c565b55565b506000198214611cd8565b5163036be76f60e61b8152600490fd5b611e5f915060803d811161061d5761060c8183611a2f565b50505038611c89565b82513d6000823e3d90fd5b60ff60335416611e7f57565b60405162461bcd60e51b815260206004820152601060248201526f14185d5cd8589b194e881c185d5cd95960821b6044820152606490fd5b90918060409360208452816020850152848401376000828201840152601f01601f1916010190565b80916101209283910312610b78576040519182018281106001600160401b03821117611a195760405280516001600160a01b0381168103610b78578252611f2860208201611b32565b602083015260408101516040830152606081015160608301526080810151608083015260a081015160a083015260c081015160c083015260e081015160e0830152610100809101519082015290565b81810292918115918404141715611bec57565b8115611f94570490565b634e487b7160e01b600052601260045260246000fd5b9391604090815192606084018481106001600160401b03821117611a19578352600096878552602093888587015288818701968188528099835196868689376003878901988a8160d29b8c8152030190200160018060a01b03809216855289528484209060018201549a60d08b528686208b885180928c8c8337818d019081520301902054905260c954865163481d98fb60e11b8152906080908290841681806120588e8e60048401611eb7565b03915afa9081156123ef5786916123ce575b5016928551634c66358f60e11b81526101208082600481895afa9687156123c357966123a4575b50508551888882378a818a81018c8152030190205415612394575090889154936120cd86518989823784818b81018d8152030190205486612478565b9d670de0b6b3a7640000946060830151841180612389575b1561216a575050505061215a91509261215561214e61215596946001896121619b988651828a823781818481018d815203019020549887518382823782818d86820190815203019020549a60ce549d8e995b519485938437820190815203019020015490611f77565b9384611f8a565b6123f9565b8952611f8a565b90840152929190565b84839a97989995969a015115801590612306575b156121cd575050505061215561214e869560016121619a9661215a968b966121559b518382823782818581018d8152030190205499838c5181848237848183810185815203019020549c612137565b909192969395999460049089850151928a5192838092637437535960e01b82525afa9283156122fb57928a95928d9a9998979592858e96936122b4575b50509061221691611c34565b968851848882378a8186810188815203019020546101008301519160e084019283519161224291611c34565b61224c908b611f77565b9061225691612478565b61225f91611bdf565b978951858982378b818781018981520301902054926080015191519161228491611f77565b9061228e91612478565b61229791611bdf565b966121619a6121559961215a976121559661214e96600195612137565b939698999a9b9250939650935082813d83116122f4575b6122d58183611a2f565b81010312610c5a5750928a97969594926122168b938b9651913861220a565b503d6122cb565b8951903d90823e3d90fd5b5090919293945087830151885190637437535960e01b82528c82600481865afa91821561237f5790849392918e9897969592612345575b50111561217e565b80925088919394959697983d8311612378575b6123628183611a2f565b810103126102bc57518c9695949392913861233d565b503d612358565b8a513d86823e3d90fd5b5084830151156120e5565b9b50505050505050505050929190565b6123bb929650803d106105e2576105d28183611a2f565b933880612091565b8851903d90823e3d90fd5b6123e6915060803d811161061d5761060c8183611a2f565b5050503861206a565b87513d88823e3d90fd5b6000918015918215612458575b505015612446576706f05b59d3b20000810190818111611bec57811061243457670de0b6b3a7640000900490565b604051630a77254f60e01b8152600490fd5b604051631550e8b760e01b8152600490fd5b915091506124706124698383611f77565b9283611f8a565b143880612406565b90670de0b6b3a76400009182810292818404811482151715611bec57830403612446576124a88160011c83611bdf565b918210612434576124b891611f8a565b9056fea2646970667358221220c28965190e57f1dc7acc7727d06e839164a1e31e44933a9932debf81c62728d864736f6c63430008120033",
  "libraries": {
    "Errors": "0x2dB9cEB28103A186ad78A10d25c874Bd77F3fC5C"
  },
  "devdoc": {
    "events": {
      "ClaimedReward(address,address,uint256)": {
        "params": {
          "amount": "The amount of the claimed reward.",
          "bucket": "The address of the bucket from which the reward is claimed.",
          "receiver": "The address of the receiver."
        }
      },
      "Initialized(uint8)": {
        "details": "Triggered when the contract has been initialized or reinitialized."
      },
      "Paused(address)": {
        "details": "Emitted when the pause is triggered by `account`."
      },
      "Unpaused(address)": {
        "details": "Emitted when the pause is lifted by `account`."
      },
      "WithdrawPmxByAdmin(uint256)": {
        "params": {
          "amount": "The amount of PMX tokens withdrawn."
        }
      }
    },
    "kind": "dev",
    "methods": {
      "addPoints(string,address,uint256,uint256,uint256,uint256)": {
        "details": "Only callable by the Bucket contract.",
        "params": {
          "_bucketName": "The name of the bucket.",
          "_currentTimestamp": "The current timestamp.",
          "_maxPeriodTime": "The maximum period time.",
          "_maxStabilizationPeriodEnd": "The maximum end timestamp of the stabilization period.",
          "_miningAmount": "The amount of mining points to be added.",
          "_user": "The address of the user."
        }
      },
      "claimReward(string)": {
        "params": {
          "_bucketName": "The name of the bucket."
        }
      },
      "getBucketInfo(string)": {
        "params": {
          "_bucketName": "The name of the bucket."
        },
        "returns": {
          "totalPmxReward": "The total amount of PMX reward in the bucket.",
          "totalPoints": "The total number of mining points in the bucket.",
          "withdrawnRewards": "The total amount of withdrawn rewards from the bucket."
        }
      },
      "getLenderAmountInMining(string,address)": {
        "params": {
          "_bucket": "The name of the bucket.",
          "_lender": "The address of the lender."
        },
        "returns": {
          "_0": "The amount of tokens the lender has in mining for the given bucket."
        }
      },
      "getLenderInfo(string,address,uint256)": {
        "params": {
          "_bucketName": "The name of the bucket.",
          "_lender": "The address of the lender.",
          "_timestamp": "The timestamp for which the information is queried."
        },
        "returns": {
          "amountInMining": "The amount of tokens the lender has in mining for the given bucket.",
          "currentPercent": "The current percentage of rewards the lender is eligible to receive for the given bucket. Measured in WAD (1 WAD = 100%).",
          "rewardsInPMX": "An object containing information about the lender's rewards in PMX for the given bucket."
        }
      },
      "initialize(address,address,address,address,address,uint256,uint256,address)": {
        "params": {
          "_pmx": "The address of the PMX token contract.",
          "_primexDNS": "The address of the IPrimexDNS contract.",
          "_registry": "The address of the registry contract.",
          "_reinvestmentDuration": "The duration for which rewards are reinvested.",
          "_reinvestmentRate": "The rate at which rewards are reinvested.",
          "_traderBalanceVault": "The address of the TraderBalanceVault contract.",
          "_treasury": "The address of the treasury contract.",
          "_whiteBlackList": "The address of the WhiteBlackList contract."
        }
      },
      "pause()": {
        "details": "Triggers stopped state. This function can only be called by an address with the EMERGENCY_ADMIN role. Requirements: - The contract must not be paused."
      },
      "paused()": {
        "details": "Returns true if the contract is paused, and false otherwise."
      },
      "reinvest(string,string,address,bool,uint256)": {
        "details": "Only callable by the Bucket contract.",
        "params": {
          "_bucketFrom": "The name of the source bucket.",
          "_bucketTo": "The name of the destination bucket.",
          "_isBucketLaunched": "A flag indicating if the destination bucket is launched.",
          "_liquidityMiningDeadline": "The deadline for liquidity mining",
          "_user": "The address of the user."
        }
      },
      "removePoints(string,address,uint256)": {
        "details": "Only callable by the Bucket contract.",
        "params": {
          "_amount": "The amount of mining points to be removed.",
          "_name": "The name of the bucket.",
          "_user": "The address of the user."
        }
      },
      "supportsInterface(bytes4)": {
        "params": {
          "_interfaceId": "The interface id to check"
        }
      },
      "unpause()": {
        "details": "Returns to normal state. This function can only be called by an address with the SMALL_TIMELOCK_ADMIN or MEDIUM_TIMELOCK_ADMIN role depending on the contract. Requirements: - The contract must be paused."
      },
      "updateBucketReward(string,uint256)": {
        "details": "Only callable by the PrimexDNS contract.",
        "params": {
          "_bucketName": "The name of the bucket.",
          "_pmxRewardsAmount": "The amount of PMX rewards to be allocated to the bucket."
        }
      },
      "withdrawPmxByAdmin(string)": {
        "details": "The function to withdraw PMX from a delisted bucket or a bucket where liquidity mining failed (after reinvesting period). Emits WithdrawPmxByAdmin event.",
        "params": {
          "_bucketFrom": "Name of the bucket with failed liquidity mining event."
        }
      }
    },
    "version": 1
  },
  "userdoc": {
    "events": {
      "ClaimedReward(address,address,uint256)": {
        "notice": "Emitted when a reward is claimed by a receiver from a specific bucket."
      },
      "WithdrawPmxByAdmin(uint256)": {
        "notice": "Emitted when PMX tokens are withdrawn by an admin."
      }
    },
    "kind": "user",
    "methods": {
      "addPoints(string,address,uint256,uint256,uint256,uint256)": {
        "notice": "Adds points for a user for future reward distribution."
      },
      "claimReward(string)": {
        "notice": "Claims the accumulated rewards for a specific bucket."
      },
      "getBucketInfo(string)": {
        "notice": "Retrieves rewards information about a specific bucket."
      },
      "getLenderAmountInMining(string,address)": {
        "notice": "Retrieves the amount of tokens a lender has in mining for a specific bucket."
      },
      "getLenderInfo(string,address,uint256)": {
        "notice": "Retrieves information about a lender in a specific bucket."
      },
      "initialize(address,address,address,address,address,uint256,uint256,address)": {
        "notice": "Initializes the contract with the specified parameters."
      },
      "reinvest(string,string,address,bool,uint256)": {
        "notice": "Moves rewards from one bucket to another."
      },
      "removePoints(string,address,uint256)": {
        "notice": "Removes points for a user."
      },
      "supportsInterface(bytes4)": {
        "notice": "Interface checker"
      },
      "updateBucketReward(string,uint256)": {
        "notice": "Updates the reward amount for a specific bucket."
      }
    },
    "version": 1
  },
  "storageLayout": {
    "storage": [
      {
        "astId": 2890,
        "contract": "contracts/LiquidityMiningRewardDistributor/LiquidityMiningRewardDistributor.sol:LiquidityMiningRewardDistributor",
        "label": "_initialized",
        "offset": 0,
        "slot": "0",
        "type": "t_uint8"
      },
      {
        "astId": 2893,
        "contract": "contracts/LiquidityMiningRewardDistributor/LiquidityMiningRewardDistributor.sol:LiquidityMiningRewardDistributor",
        "label": "_initializing",
        "offset": 1,
        "slot": "0",
        "type": "t_bool"
      },
      {
        "astId": 5867,
        "contract": "contracts/LiquidityMiningRewardDistributor/LiquidityMiningRewardDistributor.sol:LiquidityMiningRewardDistributor",
        "label": "__gap",
        "offset": 0,
        "slot": "1",
        "type": "t_array(t_uint256)50_storage"
      },
      {
        "astId": 3073,
        "contract": "contracts/LiquidityMiningRewardDistributor/LiquidityMiningRewardDistributor.sol:LiquidityMiningRewardDistributor",
        "label": "_paused",
        "offset": 0,
        "slot": "51",
        "type": "t_bool"
      },
      {
        "astId": 3178,
        "contract": "contracts/LiquidityMiningRewardDistributor/LiquidityMiningRewardDistributor.sol:LiquidityMiningRewardDistributor",
        "label": "__gap",
        "offset": 0,
        "slot": "52",
        "type": "t_array(t_uint256)49_storage"
      },
      {
        "astId": 6506,
        "contract": "contracts/LiquidityMiningRewardDistributor/LiquidityMiningRewardDistributor.sol:LiquidityMiningRewardDistributor",
        "label": "__gap",
        "offset": 0,
        "slot": "101",
        "type": "t_array(t_uint256)50_storage"
      },
      {
        "astId": 3193,
        "contract": "contracts/LiquidityMiningRewardDistributor/LiquidityMiningRewardDistributor.sol:LiquidityMiningRewardDistributor",
        "label": "_status",
        "offset": 0,
        "slot": "151",
        "type": "t_uint256"
      },
      {
        "astId": 3262,
        "contract": "contracts/LiquidityMiningRewardDistributor/LiquidityMiningRewardDistributor.sol:LiquidityMiningRewardDistributor",
        "label": "__gap",
        "offset": 0,
        "slot": "152",
        "type": "t_array(t_uint256)49_storage"
      },
      {
        "astId": 36360,
        "contract": "contracts/LiquidityMiningRewardDistributor/LiquidityMiningRewardDistributor.sol:LiquidityMiningRewardDistributor",
        "label": "primexDNS",
        "offset": 0,
        "slot": "201",
        "type": "t_contract(IPrimexDNS)43597"
      },
      {
        "astId": 36364,
        "contract": "contracts/LiquidityMiningRewardDistributor/LiquidityMiningRewardDistributor.sol:LiquidityMiningRewardDistributor",
        "label": "pmx",
        "offset": 0,
        "slot": "202",
        "type": "t_contract(IERC20)10851"
      },
      {
        "astId": 36368,
        "contract": "contracts/LiquidityMiningRewardDistributor/LiquidityMiningRewardDistributor.sol:LiquidityMiningRewardDistributor",
        "label": "traderBalanceVault",
        "offset": 0,
        "slot": "203",
        "type": "t_contract(ITraderBalanceVault)52564"
      },
      {
        "astId": 36371,
        "contract": "contracts/LiquidityMiningRewardDistributor/LiquidityMiningRewardDistributor.sol:LiquidityMiningRewardDistributor",
        "label": "registry",
        "offset": 0,
        "slot": "204",
        "type": "t_address"
      },
      {
        "astId": 36373,
        "contract": "contracts/LiquidityMiningRewardDistributor/LiquidityMiningRewardDistributor.sol:LiquidityMiningRewardDistributor",
        "label": "treasury",
        "offset": 0,
        "slot": "205",
        "type": "t_address"
      },
      {
        "astId": 36376,
        "contract": "contracts/LiquidityMiningRewardDistributor/LiquidityMiningRewardDistributor.sol:LiquidityMiningRewardDistributor",
        "label": "reinvestmentRate",
        "offset": 0,
        "slot": "206",
        "type": "t_uint256"
      },
      {
        "astId": 36379,
        "contract": "contracts/LiquidityMiningRewardDistributor/LiquidityMiningRewardDistributor.sol:LiquidityMiningRewardDistributor",
        "label": "reinvestmentDuration",
        "offset": 0,
        "slot": "207",
        "type": "t_uint256"
      },
      {
        "astId": 36386,
        "contract": "contracts/LiquidityMiningRewardDistributor/LiquidityMiningRewardDistributor.sol:LiquidityMiningRewardDistributor",
        "label": "extraRewards",
        "offset": 0,
        "slot": "208",
        "type": "t_mapping(t_address,t_mapping(t_string_memory_ptr,t_uint256))"
      },
      {
        "astId": 36389,
        "contract": "contracts/LiquidityMiningRewardDistributor/LiquidityMiningRewardDistributor.sol:LiquidityMiningRewardDistributor",
        "label": "whiteBlackList",
        "offset": 0,
        "slot": "209",
        "type": "t_contract(IWhiteBlackList)54241"
      },
      {
        "astId": 36394,
        "contract": "contracts/LiquidityMiningRewardDistributor/LiquidityMiningRewardDistributor.sol:LiquidityMiningRewardDistributor",
        "label": "buckets",
        "offset": 0,
        "slot": "210",
        "type": "t_mapping(t_string_memory_ptr,t_struct(BucketInfo)35129_storage)"
      }
    ],
    "types": {
      "t_address": {
        "encoding": "inplace",
        "label": "address",
        "numberOfBytes": "20"
      },
      "t_array(t_uint256)49_storage": {
        "base": "t_uint256",
        "encoding": "inplace",
        "label": "uint256[49]",
        "numberOfBytes": "1568"
      },
      "t_array(t_uint256)50_storage": {
        "base": "t_uint256",
        "encoding": "inplace",
        "label": "uint256[50]",
        "numberOfBytes": "1600"
      },
      "t_bool": {
        "encoding": "inplace",
        "label": "bool",
        "numberOfBytes": "1"
      },
      "t_contract(IERC20)10851": {
        "encoding": "inplace",
        "label": "contract IERC20",
        "numberOfBytes": "20"
      },
      "t_contract(IPrimexDNS)43597": {
        "encoding": "inplace",
        "label": "contract IPrimexDNS",
        "numberOfBytes": "20"
      },
      "t_contract(ITraderBalanceVault)52564": {
        "encoding": "inplace",
        "label": "contract ITraderBalanceVault",
        "numberOfBytes": "20"
      },
      "t_contract(IWhiteBlackList)54241": {
        "encoding": "inplace",
        "label": "contract IWhiteBlackList",
        "numberOfBytes": "20"
      },
      "t_mapping(t_address,t_mapping(t_string_memory_ptr,t_uint256))": {
        "encoding": "mapping",
        "key": "t_address",
        "label": "mapping(address => mapping(string => uint256))",
        "numberOfBytes": "32",
        "value": "t_mapping(t_string_memory_ptr,t_uint256)"
      },
      "t_mapping(t_address,t_struct(LenderInfo)35117_storage)": {
        "encoding": "mapping",
        "key": "t_address",
        "label": "mapping(address => struct ILiquidityMiningRewardDistributorStorage.LenderInfo)",
        "numberOfBytes": "32",
        "value": "t_struct(LenderInfo)35117_storage"
      },
      "t_mapping(t_string_memory_ptr,t_struct(BucketInfo)35129_storage)": {
        "encoding": "mapping",
        "key": "t_string_memory_ptr",
        "label": "mapping(string => struct ILiquidityMiningRewardDistributorStorage.BucketInfo)",
        "numberOfBytes": "32",
        "value": "t_struct(BucketInfo)35129_storage"
      },
      "t_mapping(t_string_memory_ptr,t_uint256)": {
        "encoding": "mapping",
        "key": "t_string_memory_ptr",
        "label": "mapping(string => uint256)",
        "numberOfBytes": "32",
        "value": "t_uint256"
      },
      "t_string_memory_ptr": {
        "encoding": "bytes",
        "label": "string",
        "numberOfBytes": "32"
      },
      "t_struct(BucketInfo)35129_storage": {
        "encoding": "inplace",
        "label": "struct ILiquidityMiningRewardDistributorStorage.BucketInfo",
        "members": [
          {
            "astId": 35119,
            "contract": "contracts/LiquidityMiningRewardDistributor/LiquidityMiningRewardDistributor.sol:LiquidityMiningRewardDistributor",
            "label": "totalPoints",
            "offset": 0,
            "slot": "0",
            "type": "t_uint256"
          },
          {
            "astId": 35121,
            "contract": "contracts/LiquidityMiningRewardDistributor/LiquidityMiningRewardDistributor.sol:LiquidityMiningRewardDistributor",
            "label": "totalPmxReward",
            "offset": 0,
            "slot": "1",
            "type": "t_uint256"
          },
          {
            "astId": 35123,
            "contract": "contracts/LiquidityMiningRewardDistributor/LiquidityMiningRewardDistributor.sol:LiquidityMiningRewardDistributor",
            "label": "withdrawnRewards",
            "offset": 0,
            "slot": "2",
            "type": "t_uint256"
          },
          {
            "astId": 35128,
            "contract": "contracts/LiquidityMiningRewardDistributor/LiquidityMiningRewardDistributor.sol:LiquidityMiningRewardDistributor",
            "label": "lendersInfo",
            "offset": 0,
            "slot": "3",
            "type": "t_mapping(t_address,t_struct(LenderInfo)35117_storage)"
          }
        ],
        "numberOfBytes": "128"
      },
      "t_struct(LenderInfo)35117_storage": {
        "encoding": "inplace",
        "label": "struct ILiquidityMiningRewardDistributorStorage.LenderInfo",
        "members": [
          {
            "astId": 35114,
            "contract": "contracts/LiquidityMiningRewardDistributor/LiquidityMiningRewardDistributor.sol:LiquidityMiningRewardDistributor",
            "label": "points",
            "offset": 0,
            "slot": "0",
            "type": "t_uint256"
          },
          {
            "astId": 35116,
            "contract": "contracts/LiquidityMiningRewardDistributor/LiquidityMiningRewardDistributor.sol:LiquidityMiningRewardDistributor",
            "label": "depositedAmount",
            "offset": 0,
            "slot": "1",
            "type": "t_uint256"
          }
        ],
        "numberOfBytes": "64"
      },
      "t_uint256": {
        "encoding": "inplace",
        "label": "uint256",
        "numberOfBytes": "32"
      },
      "t_uint8": {
        "encoding": "inplace",
        "label": "uint8",
        "numberOfBytes": "1"
      }
    }
  }
}