{
  "address": "0x1Dd2Bf6cC55E817bCbB06636DA1816b3a159c6D3",
  "abi": [
    {
      "inputs": [],
      "stateMutability": "nonpayable",
      "type": "constructor"
    },
    {
      "inputs": [],
      "name": "DS_MATH_ADD_OVERFLOW",
      "type": "error"
    },
    {
      "inputs": [],
      "name": "DS_MATH_MUL_OVERFLOW",
      "type": "error"
    },
    {
      "anonymous": false,
      "inputs": [
        {
          "indexed": false,
          "internalType": "address",
          "name": "priceFeed",
          "type": "address"
        }
      ],
      "name": "GasPriceFeedChanged",
      "type": "event"
    },
    {
      "anonymous": false,
      "inputs": [
        {
          "indexed": false,
          "internalType": "uint8",
          "name": "version",
          "type": "uint8"
        }
      ],
      "name": "Initialized",
      "type": "event"
    },
    {
      "anonymous": false,
      "inputs": [
        {
          "indexed": true,
          "internalType": "address",
          "name": "assetA",
          "type": "address"
        },
        {
          "indexed": true,
          "internalType": "address",
          "name": "assetB",
          "type": "address"
        },
        {
          "indexed": false,
          "internalType": "uint256",
          "name": "pairPriceDrop",
          "type": "uint256"
        }
      ],
      "name": "PairPriceDropChanged",
      "type": "event"
    },
    {
      "anonymous": false,
      "inputs": [
        {
          "indexed": true,
          "internalType": "address",
          "name": "assetA",
          "type": "address"
        },
        {
          "indexed": true,
          "internalType": "address",
          "name": "assetB",
          "type": "address"
        },
        {
          "indexed": true,
          "internalType": "address",
          "name": "priceDropFeed",
          "type": "address"
        }
      ],
      "name": "PriceDropFeedUpdated",
      "type": "event"
    },
    {
      "anonymous": false,
      "inputs": [
        {
          "indexed": true,
          "internalType": "address",
          "name": "assetA",
          "type": "address"
        },
        {
          "indexed": true,
          "internalType": "address",
          "name": "assetB",
          "type": "address"
        },
        {
          "indexed": true,
          "internalType": "address",
          "name": "priceFeed",
          "type": "address"
        }
      ],
      "name": "PriceFeedUpdated",
      "type": "event"
    },
    {
      "inputs": [],
      "name": "eth",
      "outputs": [
        {
          "internalType": "address",
          "name": "",
          "type": "address"
        }
      ],
      "stateMutability": "view",
      "type": "function"
    },
    {
      "inputs": [],
      "name": "gasPriceFeed",
      "outputs": [
        {
          "internalType": "address",
          "name": "",
          "type": "address"
        }
      ],
      "stateMutability": "view",
      "type": "function"
    },
    {
      "inputs": [
        {
          "internalType": "address",
          "name": "assetA",
          "type": "address"
        },
        {
          "internalType": "address",
          "name": "assetB",
          "type": "address"
        }
      ],
      "name": "getDirectPriceFeed",
      "outputs": [
        {
          "internalType": "address",
          "name": "",
          "type": "address"
        }
      ],
      "stateMutability": "view",
      "type": "function"
    },
    {
      "inputs": [
        {
          "internalType": "address",
          "name": "assetA",
          "type": "address"
        },
        {
          "internalType": "address",
          "name": "assetB",
          "type": "address"
        }
      ],
      "name": "getExchangeRate",
      "outputs": [
        {
          "internalType": "uint256",
          "name": "",
          "type": "uint256"
        },
        {
          "internalType": "bool",
          "name": "",
          "type": "bool"
        }
      ],
      "stateMutability": "view",
      "type": "function"
    },
    {
      "inputs": [],
      "name": "getGasPrice",
      "outputs": [
        {
          "internalType": "int256",
          "name": "price",
          "type": "int256"
        }
      ],
      "stateMutability": "view",
      "type": "function"
    },
    {
      "inputs": [
        {
          "internalType": "address",
          "name": "assetA",
          "type": "address"
        },
        {
          "internalType": "address",
          "name": "assetB",
          "type": "address"
        }
      ],
      "name": "getOraclePriceDrop",
      "outputs": [
        {
          "internalType": "uint256",
          "name": "",
          "type": "uint256"
        }
      ],
      "stateMutability": "view",
      "type": "function"
    },
    {
      "inputs": [
        {
          "internalType": "address",
          "name": "assetA",
          "type": "address"
        },
        {
          "internalType": "address",
          "name": "assetB",
          "type": "address"
        }
      ],
      "name": "getOraclePriceDropFeed",
      "outputs": [
        {
          "internalType": "address",
          "name": "",
          "type": "address"
        }
      ],
      "stateMutability": "view",
      "type": "function"
    },
    {
      "inputs": [
        {
          "internalType": "address",
          "name": "_assetA",
          "type": "address"
        },
        {
          "internalType": "address",
          "name": "_assetB",
          "type": "address"
        }
      ],
      "name": "getPairPriceDrop",
      "outputs": [
        {
          "internalType": "uint256",
          "name": "priceDrop",
          "type": "uint256"
        }
      ],
      "stateMutability": "view",
      "type": "function"
    },
    {
      "inputs": [
        {
          "internalType": "address",
          "name": "baseAsset",
          "type": "address"
        },
        {
          "internalType": "address",
          "name": "quoteAsset",
          "type": "address"
        }
      ],
      "name": "getPriceFeedsPair",
      "outputs": [
        {
          "internalType": "address",
          "name": "basePriceFeed",
          "type": "address"
        },
        {
          "internalType": "address",
          "name": "quotePriceFeed",
          "type": "address"
        }
      ],
      "stateMutability": "view",
      "type": "function"
    },
    {
      "inputs": [
        {
          "internalType": "address",
          "name": "_assetA",
          "type": "address"
        },
        {
          "internalType": "address",
          "name": "_assetB",
          "type": "address"
        },
        {
          "internalType": "uint256",
          "name": "_pairPriceDrop",
          "type": "uint256"
        }
      ],
      "name": "increasePairPriceDrop",
      "outputs": [],
      "stateMutability": "nonpayable",
      "type": "function"
    },
    {
      "inputs": [
        {
          "internalType": "address",
          "name": "_registry",
          "type": "address"
        },
        {
          "internalType": "address",
          "name": "_eth",
          "type": "address"
        }
      ],
      "name": "initialize",
      "outputs": [],
      "stateMutability": "nonpayable",
      "type": "function"
    },
    {
      "inputs": [
        {
          "internalType": "address",
          "name": "",
          "type": "address"
        },
        {
          "internalType": "address",
          "name": "",
          "type": "address"
        }
      ],
      "name": "pairPriceDrops",
      "outputs": [
        {
          "internalType": "uint256",
          "name": "",
          "type": "uint256"
        }
      ],
      "stateMutability": "view",
      "type": "function"
    },
    {
      "inputs": [],
      "name": "registry",
      "outputs": [
        {
          "internalType": "address",
          "name": "",
          "type": "address"
        }
      ],
      "stateMutability": "view",
      "type": "function"
    },
    {
      "inputs": [
        {
          "internalType": "address",
          "name": "priceFeed",
          "type": "address"
        }
      ],
      "name": "setGasPriceFeed",
      "outputs": [],
      "stateMutability": "nonpayable",
      "type": "function"
    },
    {
      "inputs": [
        {
          "internalType": "address",
          "name": "_assetA",
          "type": "address"
        },
        {
          "internalType": "address",
          "name": "_assetB",
          "type": "address"
        },
        {
          "internalType": "uint256",
          "name": "_pairPriceDrop",
          "type": "uint256"
        }
      ],
      "name": "setPairPriceDrop",
      "outputs": [],
      "stateMutability": "nonpayable",
      "type": "function"
    },
    {
      "inputs": [
        {
          "internalType": "bytes4",
          "name": "_interfaceId",
          "type": "bytes4"
        }
      ],
      "name": "supportsInterface",
      "outputs": [
        {
          "internalType": "bool",
          "name": "",
          "type": "bool"
        }
      ],
      "stateMutability": "view",
      "type": "function"
    },
    {
      "inputs": [
        {
          "internalType": "address",
          "name": "assetA",
          "type": "address"
        },
        {
          "internalType": "address",
          "name": "assetB",
          "type": "address"
        },
        {
          "internalType": "address",
          "name": "priceDropFeed",
          "type": "address"
        }
      ],
      "name": "updatePriceDropFeed",
      "outputs": [],
      "stateMutability": "nonpayable",
      "type": "function"
    },
    {
      "inputs": [
        {
          "internalType": "address",
          "name": "assetA",
          "type": "address"
        },
        {
          "internalType": "address",
          "name": "assetB",
          "type": "address"
        },
        {
          "internalType": "address",
          "name": "priceFeed",
          "type": "address"
        }
      ],
      "name": "updatePriceFeed",
      "outputs": [],
      "stateMutability": "nonpayable",
      "type": "function"
    }
  ],
  "transactionHash": "0x7e7a905ba4130e737b0100e57aebbb63960b980e56add2d5668efb7b594d0686",
  "args": [],
  "numDeployments": 1,
  "solcInputHash": "ac08d1652288d4d03be56436412dd0c4",
  "bytecode": "0x608080604052346100c1576000549060ff8260081c1661006f575060ff80821603610034575b6040516112fc90816100c78239f35b60ff90811916176000557f7f26b83ff96e1f2b6a682f133852f6798a09c465da95921460cefb3847402498602060405160ff8152a138610025565b62461bcd60e51b815260206004820152602760248201527f496e697469616c697a61626c653a20636f6e747261637420697320696e697469604482015266616c697a696e6760c81b6064820152608490fd5b600080fdfe6080604081815260048036101561001557600080fd5b600092833560e01c90816301ffc9a714610b4d575080631e6a948f14610b24578063455259cb14610a835780634858138f14610a3a578063485cc9551461081957806354344429146107ad57806376b926e41461077f5780637b103999146107565780638c7c9e0c1461072d57806398bbc8dd146106f8578063a5bbe8b5146105ef578063ac8c5db914610573578063af4c567c1461052f578063b45994f814610434578063baaa61be146103f7578063be49304e14610300578063cbaf3d091461020d5763e890f915146100e957600080fd5b3461020957606036600319011261020957610102610ba1565b9061010b610bbc565b610113610bd2565b9360018060a01b0391604460208460335416845192838092632474521560e21b82528c8a8301523360248301525afa9081156101ff5788916101d1575b50156101c1578216938216928385146101b3575082865260386020528086208487526020528520931692836001600160601b0360a01b8254161790557f749f8bd52d751fb993fa16283117f0242f19e5471f5cb26f1185d1028cd803e58480a480f35b905163b213646160e01b8152fd5b815163036be76f60e61b81528490fd5b6101f2915060203d81116101f8575b6101ea8183610c1d565b810190610c55565b38610150565b503d6101e0565b83513d8a823e3d90fd5b8280fd5b509190346102fc5761021e36610be8565b6033548451632474521560e21b81527f5a7d4408f4759dddd7fdfd0d21abd99341dc2f52cda14804988a9b2df20766d88882015233602482015291949293929190602090829060449082906001600160a01b03165afa9081156102f25786916102d4575b50156102c557831515806102b4575b156102a557506102a293945061122d565b80f35b51633c15d6ff60e21b81528590fd5b50670de0b6b3a76400008410610291565b5163036be76f60e61b81528590fd5b6102ec915060203d81116101f8576101ea8183610c1d565b38610282565b82513d88823e3d90fd5b5080fd5b509190346102fc5761031136610be8565b6033548451632474521560e21b81527f5c91514091af31f62f596a314af7d5be40146b2f2355969392f055e12e0982fb888201523360248201529194929392916001600160a01b03916020908290604490829086165afa9081156103ed5787916103cf575b50156103bf57808316865260366020528186209084168652602052808520548411806103ad57156102a557506102a293945061122d565b506706f05b59d3b20000841115610291565b815163036be76f60e61b81528790fd5b6103e7915060203d81116101f8576101ea8183610c1d565b38610376565b83513d89823e3d90fd5b82843461043157816003193601126104315750610423610415610ba1565b61041d610bbc565b90610d09565b825191825215156020820152f35b80fd5b50346102095760203660031901126102095761044e610ba1565b6033548351632474521560e21b81527fc0fc8e4dc5cff6febdf550b80d566f654e2baf1a02ea1060208c2f8ab2dd1b63818501523360248201526001600160a01b0393916020908290604490829088165afa908115610525578691610507575b50156104f95750916020917f5689afd64620ca3aba1015be2907df3b5ae25149d96691ba3de19f92e96ec14d931690816001600160601b0360a01b603554161760355551908152a180f35b835163036be76f60e61b8152fd5b61051f915060203d81116101f8576101ea8183610c1d565b386104ae565b85513d88823e3d90fd5b8284346104315781600319360112610431575061055b61054d610ba1565b610555610bbc565b90611147565b82516001600160a01b03928316815291166020820152f35b5091346104315781600319360112610431578161058e610ba1565b6001600160a01b03929083806105a2610bbc565b1691168181146105df57825260376020528282209082526020522054169081156105d0576020925051908152f35b51636ae912f160e11b81529050fd5b835163b213646160e01b81528790fd5b503461020957606036600319011261020957610609610ba1565b90610612610bbc565b61061a610bd2565b9360018060a01b0391604460208460335416845192838092632474521560e21b82527fc0fc8e4dc5cff6febdf550b80d566f654e2baf1a02ea1060208c2f8ab2dd1b638a8301523360248301525afa9081156101ff5788916106da575b50156101c1578216938216928385146101b3575082865260376020528086208487526020528520931692836001600160601b0360a01b8254161790557f410d79a2eddf639a562ae356290f947311e7c951e05ee1e957f18898bd664bb38480a480f35b6106f2915060203d81116101f8576101ea8183610c1d565b38610677565b5050346102fc57806003193601126102fc57602090610726610718610ba1565b610720610bbc565b90611057565b9051908152f35b5050346102fc57816003193601126102fc5760345490516001600160a01b039091168152602090f35b5050346102fc57816003193601126102fc5760335490516001600160a01b039091168152602090f35b5050346102fc57806003193601126102fc5760209061072661079f610ba1565b6107a7610bbc565b90610ff9565b509134610431578160031936011261043157816107c8610ba1565b6001600160a01b03929083806107dc610bbc565b1691168181146105df578252603860205282822090825260205220541690811561080a576020925051908152f35b516345f68a8f60e11b81529050fd5b5034610209578160031936011261020957610832610ba1565b61083a610bbc565b84549160ff8360081c161592838094610a2d575b8015610a16575b156109bc5760ff1981166001178755836109ab575b5084516301ffc9a760e01b8152637965db0b60e01b858201526001600160a01b039182169290602081602481875afa9081156109a1578891610983575b5015610973576001600160601b0360a01b928360335416176033551690603454161760345583549160ff8360081c161561091c57506108e4578280f35b61ff001916825551600181527f7f26b83ff96e1f2b6a682f133852f6798a09c465da95921460cefb384740249890602090a138808280f35b608490602085519162461bcd60e51b8352820152602b60248201527f496e697469616c697a61626c653a20636f6e7472616374206973206e6f74206960448201526a6e697469616c697a696e6760a81b6064820152fd5b855163044aa57560e41b81528590fd5b61099b915060203d81116101f8576101ea8183610c1d565b386108a7565b87513d8a823e3d90fd5b61ffff19166101011786553861086a565b855162461bcd60e51b8152602081870152602e60248201527f496e697469616c697a61626c653a20636f6e747261637420697320616c72656160448201526d191e481a5b9a5d1a585b1a5e995960921b6064820152608490fd5b50303b1580156108555750600160ff821614610855565b50600160ff82161061084e565b5050346102fc57806003193601126102fc5780602092610a58610ba1565b610a60610bbc565b6001600160a01b0391821683526036865283832091168252845220549051908152f35b5090346102095782600319360112610209576035548392906001600160a01b031680610ab4575b6020848451908152f35b8251633fabe5a360e21b815292935060a091839182905afa908115610b185760209391610ae5575b50903880610aaa565b610b06915060a03d8111610b11575b610afe8183610c1d565b810190610c84565b505050905038610adc565b503d610af4565b505051903d90823e3d90fd5b5050346102fc57816003193601126102fc5760355490516001600160a01b039091168152602090f35b92505034610209576020366003190112610209573563ffffffff60e01b811680910361020957602092506341636c7560e11b8114908115610b90575b5015158152f35b6301ffc9a760e01b14905038610b89565b600435906001600160a01b0382168203610bb757565b600080fd5b602435906001600160a01b0382168203610bb757565b604435906001600160a01b0382168203610bb757565b6060906003190112610bb7576001600160a01b03906004358281168103610bb757916024359081168103610bb7579060443590565b90601f8019910116810190811067ffffffffffffffff821117610c3f57604052565b634e487b7160e01b600052604160045260246000fd5b90816020910312610bb757518015158103610bb75790565b519069ffffffffffffffffffff82168203610bb757565b908160a0910312610bb757610c9881610c6d565b91602082015191604081015191610cb6608060608401519301610c6d565b90565b90816020910312610bb7575160ff81168103610bb75790565b604d8111610ce057600a0a90565b634e487b7160e01b600052601160045260246000fd5b81810292918115918404141715610ce057565b919060018060a01b03808416936000918583526020936038855260409283852083831686528652828486205416916001988315610e52575b5050501692815193633fabe5a360e21b855260a085600481845afa948515610e45578495610e20575b5083851315610e0f57908060049284519384809263313ce56760e01b82525afa928315610e0657509060ff92918492610dd9575b5050166012039060128211610dc5575090610dbb610dc192610cd2565b90610cf6565b9190565b634e487b7160e01b81526011600452602490fd5b610df89250803d10610dff575b610df08183610c1d565b810190610cb9565b3880610d9e565b503d610de6565b513d85823e3d90fd5b82516302eb41cf60e51b8152600490fd5b610e3991955060a03d8111610b1157610afe8183610c1d565b50505090509338610d6a565b50505051903d90823e3d90fd5b603888528587209087528752848620548416989250908815610e7b575050508295388080610d41565b90919750610e8d929550939293611147565b939092818151958695633fabe5a360e21b9081885260a0988991816004988992165afa968715610fef57908892918798610fc9575b508590855194859384928352165afa958615610fbf578496610f9b575b505082841380610f92575b15610f8557670de0b6b3a76400009384810294818604811482151715610f7257850403610f655784871c840193848111610f52578410610f4557508315610f32575050049190565b634e487b7160e01b825260129052602490fd5b51630a77254f60e01b8152fd5b634e487b7160e01b845260118352602484fd5b51631550e8b760e01b8152fd5b634e487b7160e01b855260118452602485fd5b516302eb41cf60e51b8152fd5b50828513610eea565b610fb2929650803d10610b1157610afe8183610c1d565b5050509050933880610edf565b82513d86823e3d90fd5b86919850610fe390843d8611610b1157610afe8183610c1d565b50505090509790610ec2565b84513d88823e3d90fd5b906110048183611057565b9160018060a01b038091166000526036602052604060002091166000526020526040600020549080821160001461105057505b670de0b6b3a764000080821161104b575090565b905090565b9050611037565b60018060a01b0380600092168252603760205260409281848420911683526020528282205416918215611141578051633fabe5a360e21b81529260a084600481845afa938415610b18578394611116575b50602060049183519283809263313ce56760e01b82525afa91821561110d57509060ff9183916110ef575b50166012039060128211610dc5575090610dbb610cb692610cd2565b611107915060203d8111610dff57610df08183610c1d565b386110d3565b513d84823e3d90fd5b600491945061113460209160a03d8111610b1157610afe8183610c1d565b50505090509491506110a8565b50905090565b6001600160a01b039290831691831682811461121b5760008381526020946038865260409182812096610348978883528152828483205416978583526038825284832090835281528284832054169688158015611213575b6111ac575b505050505050565b9091809395985084975052603881528282209084603454169182845281528484842054169783526038815283832091835252205416918315158061120a575b156111fa5780808080806111a4565b516345f68a8f60e11b8152600490fd5b508215156111eb565b50871561119f565b60405163b213646160e01b8152600490fd5b6001600160a01b0390811691821515806112bb575b156112a95716918282146112975760207ffc6e73fcfea315539ce6038e373ebf76c8fd5169e820723ef2d2f4485528ced8918360005260368252604060002085600052825280604060002055604051908152a3565b604051631d8fdb5560e11b8152600490fd5b604051630803ae7360e11b8152600490fd5b50818116151561124256fea264697066735822122010627acbe4ef675c102c6318485dddc91520eef7781542fa1b715af456ffa3c964736f6c63430008120033",
  "libraries": {
    "Errors": "0x2dB9cEB28103A186ad78A10d25c874Bd77F3fC5C"
  },
  "devdoc": {
    "events": {
      "Initialized(uint8)": {
        "details": "Triggered when the contract has been initialized or reinitialized."
      }
    },
    "kind": "dev",
    "methods": {
      "getDirectPriceFeed(address,address)": {
        "params": {
          "assetA": "The address of the first asset.",
          "assetB": "The address of the second asset."
        },
        "returns": {
          "_0": "priceFeed The address of the direct price feed."
        }
      },
      "getExchangeRate(address,address)": {
        "details": "If no price feed for the pair found, USD and ETH are used as intermediate tokens. A price for assetA/assetB can be derived if two data feeds exist: assetA/ETH and assetB/ETH (or assetA/USD and assetB/USD). If there is no price feed found, the code will return a message that no price feed found.",
        "params": {
          "assetA": "The first currency within the currency pair quotation (the base currency).",
          "assetB": "The second currency within the currency pair quotation (the quote currency)."
        },
        "returns": {
          "_0": "exchangeRate for assetA/assetB in 10**18 decimality which will be recalucaled in PrimexPricingLibrary.",
          "_1": "direction of a pair as it stored in chainLinkPriceFeeds (i.e. returns 'true' for assetA/assetB, and 'false' for assetB/assetA). Throws if priceFeed wasn't found or priceFeed hasn't answer is 0."
        }
      },
      "getGasPrice()": {
        "returns": {
          "price": "The current gas price."
        }
      },
      "getOraclePriceDrop(address,address)": {
        "params": {
          "assetA": "The address of the first asset.",
          "assetB": "The address of the second asset."
        },
        "returns": {
          "_0": "The priceDrop rate as a uint256 value."
        }
      },
      "getOraclePriceDropFeed(address,address)": {
        "params": {
          "assetA": "The address of the first asset in the pair.",
          "assetB": "The address of the second asset in the pair."
        },
        "returns": {
          "_0": "priceDropFeed The address of the priceDrop feed associated with the asset pair."
        }
      },
      "getPairPriceDrop(address,address)": {
        "params": {
          "_assetA": "The address of asset A.",
          "_assetB": "The address of asset B."
        },
        "returns": {
          "priceDrop": "The priceDrop rate."
        }
      },
      "getPriceFeedsPair(address,address)": {
        "details": "If there is no price feed found, the code will return a message that no price feed found.",
        "params": {
          "baseAsset": "The first currency within the currency pair quotation (the base currency).",
          "quoteAsset": "The second currency within the currency pair quotation (the quote currency)."
        },
        "returns": {
          "basePriceFeed": "A tuple of basePriceFeed and quotePriceFeed. The addresses of the price feed for the base asset and quote asset respectively."
        }
      },
      "increasePairPriceDrop(address,address,uint256)": {
        "details": "Only callable by the EMERGENCY_ADMIN role. The _pairPriceDrop value must be greater than the current priceDrop value for the pair and less than the maximum allowed priceDrop (WadRayMath.WAD / 2).",
        "params": {
          "_assetA": "The address of position asset",
          "_assetB": "The address of borrowed asset",
          "_pairPriceDrop": "The new priceDrop value for the pair (in wad)"
        }
      },
      "initialize(address,address)": {
        "params": {
          "_eth": "Weth address if eth isn't native token of network. Otherwise set to zero address.",
          "_registry": "The address of PrimexRegistry contract"
        }
      },
      "setGasPriceFeed(address)": {
        "details": "Only callable by the MEDIUM_TIMELOCK_ADMIN role.",
        "params": {
          "priceFeed": "The address of the gas price feed contract."
        }
      },
      "setPairPriceDrop(address,address,uint256)": {
        "details": "Only callable by the SMALL_TIMELOCK_ADMIN.",
        "params": {
          "_assetA": "The address of position asset",
          "_assetB": "The address of borrowed asset",
          "_pairPriceDrop": "The pair priceDrop (in wad)"
        }
      },
      "supportsInterface(bytes4)": {
        "params": {
          "_interfaceId": "The interface id to check"
        }
      },
      "updatePriceDropFeed(address,address,address)": {
        "details": "Add or update priceDrop feed for assets pair. Only callable by the MEDIUM_TIMELOCK_ADMIN role.",
        "params": {
          "assetA": "The address of the first asset in the pair.",
          "assetB": "The address of the second asset in the pair.",
          "priceDropFeed": "The chain link priceDrop feed address for the pair assetA/assetB"
        }
      },
      "updatePriceFeed(address,address,address)": {
        "params": {
          "assetA": "The first currency within the currency pair quotation (the base currency).",
          "assetB": "The second currency within the currency pair quotation (the quote currency).",
          "priceFeed": "The chain link price feed address for the pair assetA/assetB"
        }
      }
    },
    "version": 1
  },
  "userdoc": {
    "kind": "user",
    "methods": {
      "getDirectPriceFeed(address,address)": {
        "notice": "Retrieves the direct price feed for the given asset pair."
      },
      "getExchangeRate(address,address)": {
        "notice": "Requests priceFeed for the actual exchange rate for an assetA/assetB pair."
      },
      "getGasPrice()": {
        "notice": "Retrieves the current gas price from the specified gas price feed."
      },
      "getOraclePriceDrop(address,address)": {
        "notice": "Retrieves the priceDrop rate between two assets based on the oracle pair priceDrop."
      },
      "getOraclePriceDropFeed(address,address)": {
        "notice": "Retreives a priceDrop feed address from the oraclePriceDropFeeds mapping"
      },
      "getPairPriceDrop(address,address)": {
        "notice": "For a given asset pair retrieves the priceDrop rate which is the higher of the oracle pair priceDrop and the historical pair priceDrop."
      },
      "getPriceFeedsPair(address,address)": {
        "notice": "Requests two priceFeeds - assetA/ETH and assetB/ETH (or assetA/USD and assetB/USD)."
      },
      "increasePairPriceDrop(address,address,uint256)": {
        "notice": "Increases the priceDrop of a pair of assets in the system."
      },
      "setGasPriceFeed(address)": {
        "notice": "Sets the gas price feed contract address."
      },
      "setPairPriceDrop(address,address,uint256)": {
        "notice": "Function to set (change) the pair priceDrop of the trading assets"
      },
      "supportsInterface(bytes4)": {
        "notice": "Interface checker"
      },
      "updatePriceDropFeed(address,address,address)": {
        "notice": "Updates the priceDrop feed for a specific pair of assets."
      },
      "updatePriceFeed(address,address,address)": {
        "notice": "Add or update price feed for assets pair. For only the admin role."
      }
    },
    "version": 1
  },
  "storageLayout": {
    "storage": [
      {
        "astId": 2890,
        "contract": "contracts/PriceOracle/PriceOracle.sol:PriceOracle",
        "label": "_initialized",
        "offset": 0,
        "slot": "0",
        "type": "t_uint8"
      },
      {
        "astId": 2893,
        "contract": "contracts/PriceOracle/PriceOracle.sol:PriceOracle",
        "label": "_initializing",
        "offset": 1,
        "slot": "0",
        "type": "t_bool"
      },
      {
        "astId": 6506,
        "contract": "contracts/PriceOracle/PriceOracle.sol:PriceOracle",
        "label": "__gap",
        "offset": 0,
        "slot": "1",
        "type": "t_array(t_uint256)50_storage"
      },
      {
        "astId": 43374,
        "contract": "contracts/PriceOracle/PriceOracle.sol:PriceOracle",
        "label": "registry",
        "offset": 0,
        "slot": "51",
        "type": "t_address"
      },
      {
        "astId": 43377,
        "contract": "contracts/PriceOracle/PriceOracle.sol:PriceOracle",
        "label": "eth",
        "offset": 0,
        "slot": "52",
        "type": "t_address"
      },
      {
        "astId": 43380,
        "contract": "contracts/PriceOracle/PriceOracle.sol:PriceOracle",
        "label": "gasPriceFeed",
        "offset": 0,
        "slot": "53",
        "type": "t_address"
      },
      {
        "astId": 43387,
        "contract": "contracts/PriceOracle/PriceOracle.sol:PriceOracle",
        "label": "pairPriceDrops",
        "offset": 0,
        "slot": "54",
        "type": "t_mapping(t_address,t_mapping(t_address,t_uint256))"
      },
      {
        "astId": 43394,
        "contract": "contracts/PriceOracle/PriceOracle.sol:PriceOracle",
        "label": "oraclePriceDropFeeds",
        "offset": 0,
        "slot": "55",
        "type": "t_mapping(t_address,t_mapping(t_address,t_address))"
      },
      {
        "astId": 43401,
        "contract": "contracts/PriceOracle/PriceOracle.sol:PriceOracle",
        "label": "chainLinkPriceFeeds",
        "offset": 0,
        "slot": "56",
        "type": "t_mapping(t_address,t_mapping(t_address,t_address))"
      }
    ],
    "types": {
      "t_address": {
        "encoding": "inplace",
        "label": "address",
        "numberOfBytes": "20"
      },
      "t_array(t_uint256)50_storage": {
        "base": "t_uint256",
        "encoding": "inplace",
        "label": "uint256[50]",
        "numberOfBytes": "1600"
      },
      "t_bool": {
        "encoding": "inplace",
        "label": "bool",
        "numberOfBytes": "1"
      },
      "t_mapping(t_address,t_address)": {
        "encoding": "mapping",
        "key": "t_address",
        "label": "mapping(address => address)",
        "numberOfBytes": "32",
        "value": "t_address"
      },
      "t_mapping(t_address,t_mapping(t_address,t_address))": {
        "encoding": "mapping",
        "key": "t_address",
        "label": "mapping(address => mapping(address => address))",
        "numberOfBytes": "32",
        "value": "t_mapping(t_address,t_address)"
      },
      "t_mapping(t_address,t_mapping(t_address,t_uint256))": {
        "encoding": "mapping",
        "key": "t_address",
        "label": "mapping(address => mapping(address => uint256))",
        "numberOfBytes": "32",
        "value": "t_mapping(t_address,t_uint256)"
      },
      "t_mapping(t_address,t_uint256)": {
        "encoding": "mapping",
        "key": "t_address",
        "label": "mapping(address => uint256)",
        "numberOfBytes": "32",
        "value": "t_uint256"
      },
      "t_uint256": {
        "encoding": "inplace",
        "label": "uint256",
        "numberOfBytes": "32"
      },
      "t_uint8": {
        "encoding": "inplace",
        "label": "uint8",
        "numberOfBytes": "1"
      }
    }
  }
}