{
  "address": "0xd12557d79263f1E2Cd0D4023Fd77292C0E26afD5",
  "abi": [
    {
      "inputs": [],
      "stateMutability": "nonpayable",
      "type": "constructor"
    },
    {
      "inputs": [],
      "name": "DS_MATH_ADD_OVERFLOW",
      "type": "error"
    },
    {
      "inputs": [],
      "name": "DS_MATH_MUL_OVERFLOW",
      "type": "error"
    },
    {
      "anonymous": false,
      "inputs": [
        {
          "indexed": false,
          "internalType": "address",
          "name": "addedAsset",
          "type": "address"
        }
      ],
      "name": "AddAsset",
      "type": "event"
    },
    {
      "anonymous": false,
      "inputs": [
        {
          "indexed": false,
          "internalType": "bytes",
          "name": "params",
          "type": "bytes"
        }
      ],
      "name": "BarCalculationParamsChanged",
      "type": "event"
    },
    {
      "anonymous": false,
      "inputs": [],
      "name": "BucketLaunched",
      "type": "event"
    },
    {
      "anonymous": false,
      "inputs": [
        {
          "indexed": true,
          "internalType": "address",
          "name": "depositer",
          "type": "address"
        },
        {
          "indexed": true,
          "internalType": "address",
          "name": "pTokenReceiver",
          "type": "address"
        },
        {
          "indexed": false,
          "internalType": "uint256",
          "name": "amount",
          "type": "uint256"
        }
      ],
      "name": "Deposit",
      "type": "event"
    },
    {
      "anonymous": false,
      "inputs": [
        {
          "indexed": true,
          "internalType": "address",
          "name": "pool",
          "type": "address"
        },
        {
          "indexed": false,
          "internalType": "uint256",
          "name": "amount",
          "type": "uint256"
        }
      ],
      "name": "DepositToAave",
      "type": "event"
    },
    {
      "anonymous": false,
      "inputs": [
        {
          "indexed": false,
          "internalType": "uint256",
          "name": "feeBuffer",
          "type": "uint256"
        }
      ],
      "name": "FeeBufferChanged",
      "type": "event"
    },
    {
      "anonymous": false,
      "inputs": [
        {
          "indexed": false,
          "internalType": "uint8",
          "name": "version",
          "type": "uint8"
        }
      ],
      "name": "Initialized",
      "type": "event"
    },
    {
      "anonymous": false,
      "inputs": [
        {
          "indexed": false,
          "internalType": "address",
          "name": "interestRateStrategy",
          "type": "address"
        }
      ],
      "name": "InterestRateStrategyChanged",
      "type": "event"
    },
    {
      "anonymous": false,
      "inputs": [
        {
          "indexed": false,
          "internalType": "uint256",
          "name": "maxTotalDeposit",
          "type": "uint256"
        }
      ],
      "name": "MaxTotalDepositChanged",
      "type": "event"
    },
    {
      "anonymous": false,
      "inputs": [
        {
          "indexed": false,
          "internalType": "uint128",
          "name": "bar",
          "type": "uint128"
        },
        {
          "indexed": false,
          "internalType": "uint128",
          "name": "lar",
          "type": "uint128"
        },
        {
          "indexed": false,
          "internalType": "uint128",
          "name": "variableBorrowIndex",
          "type": "uint128"
        },
        {
          "indexed": false,
          "internalType": "uint128",
          "name": "liquidityIndex",
          "type": "uint128"
        },
        {
          "indexed": false,
          "internalType": "uint256",
          "name": "timestamp",
          "type": "uint256"
        }
      ],
      "name": "RatesIndexesUpdated",
      "type": "event"
    },
    {
      "anonymous": false,
      "inputs": [
        {
          "indexed": false,
          "internalType": "address",
          "name": "deletedAsset",
          "type": "address"
        }
      ],
      "name": "RemoveAsset",
      "type": "event"
    },
    {
      "anonymous": false,
      "inputs": [
        {
          "indexed": false,
          "internalType": "uint256",
          "name": "reserveRate",
          "type": "uint256"
        }
      ],
      "name": "ReserveRateChanged",
      "type": "event"
    },
    {
      "anonymous": false,
      "inputs": [
        {
          "indexed": true,
          "internalType": "address",
          "name": "sender",
          "type": "address"
        },
        {
          "indexed": false,
          "internalType": "uint256",
          "name": "amount",
          "type": "uint256"
        }
      ],
      "name": "TopUpTreasury",
      "type": "event"
    },
    {
      "anonymous": false,
      "inputs": [
        {
          "indexed": true,
          "internalType": "address",
          "name": "withdrawer",
          "type": "address"
        },
        {
          "indexed": true,
          "internalType": "address",
          "name": "borrowAssetReceiver",
          "type": "address"
        },
        {
          "indexed": false,
          "internalType": "uint256",
          "name": "amount",
          "type": "uint256"
        }
      ],
      "name": "Withdraw",
      "type": "event"
    },
    {
      "anonymous": false,
      "inputs": [
        {
          "indexed": true,
          "internalType": "address",
          "name": "pool",
          "type": "address"
        },
        {
          "indexed": false,
          "internalType": "uint256",
          "name": "amount",
          "type": "uint256"
        }
      ],
      "name": "WithdrawFromAave",
      "type": "event"
    },
    {
      "anonymous": false,
      "inputs": [
        {
          "indexed": false,
          "internalType": "uint256",
          "name": "withdrawalFeeRate",
          "type": "uint256"
        }
      ],
      "name": "WithdrawalFeeChanged",
      "type": "event"
    },
    {
      "inputs": [],
      "name": "aaveDeposit",
      "outputs": [
        {
          "internalType": "uint256",
          "name": "",
          "type": "uint256"
        }
      ],
      "stateMutability": "view",
      "type": "function"
    },
    {
      "inputs": [
        {
          "internalType": "address",
          "name": "_newAsset",
          "type": "address"
        }
      ],
      "name": "addAsset",
      "outputs": [],
      "stateMutability": "nonpayable",
      "type": "function"
    },
    {
      "inputs": [
        {
          "internalType": "address",
          "name": "",
          "type": "address"
        }
      ],
      "name": "allowedAssets",
      "outputs": [
        {
          "internalType": "uint256",
          "name": "index",
          "type": "uint256"
        },
        {
          "internalType": "bool",
          "name": "isSupported",
          "type": "bool"
        }
      ],
      "stateMutability": "view",
      "type": "function"
    },
    {
      "inputs": [],
      "name": "availableLiquidity",
      "outputs": [
        {
          "internalType": "uint256",
          "name": "",
          "type": "uint256"
        }
      ],
      "stateMutability": "view",
      "type": "function"
    },
    {
      "inputs": [],
      "name": "bar",
      "outputs": [
        {
          "internalType": "uint128",
          "name": "",
          "type": "uint128"
        }
      ],
      "stateMutability": "view",
      "type": "function"
    },
    {
      "inputs": [
        {
          "internalType": "address[]",
          "name": "_traders",
          "type": "address[]"
        },
        {
          "internalType": "uint256[]",
          "name": "_debtsToBurn",
          "type": "uint256[]"
        },
        {
          "internalType": "address",
          "name": "_receiverOfAmountToReturn",
          "type": "address"
        },
        {
          "internalType": "uint256",
          "name": "_amountToReturn",
          "type": "uint256"
        },
        {
          "internalType": "uint256",
          "name": "_permanentLossAmount",
          "type": "uint256"
        },
        {
          "internalType": "uint256",
          "name": "_length",
          "type": "uint256"
        }
      ],
      "name": "batchDecreaseTradersDebt",
      "outputs": [],
      "stateMutability": "nonpayable",
      "type": "function"
    },
    {
      "inputs": [],
      "name": "borrowedAsset",
      "outputs": [
        {
          "internalType": "contract IERC20Metadata",
          "name": "",
          "type": "address"
        }
      ],
      "stateMutability": "view",
      "type": "function"
    },
    {
      "inputs": [],
      "name": "debtToken",
      "outputs": [
        {
          "internalType": "contract IDebtToken",
          "name": "",
          "type": "address"
        }
      ],
      "stateMutability": "view",
      "type": "function"
    },
    {
      "inputs": [
        {
          "internalType": "address",
          "name": "_trader",
          "type": "address"
        },
        {
          "internalType": "uint256",
          "name": "_debtToBurn",
          "type": "uint256"
        },
        {
          "internalType": "address",
          "name": "_receiverOfAmountToReturn",
          "type": "address"
        },
        {
          "internalType": "uint256",
          "name": "_amountToReturn",
          "type": "uint256"
        },
        {
          "internalType": "uint256",
          "name": "_permanentLossAmount",
          "type": "uint256"
        }
      ],
      "name": "decreaseTraderDebt",
      "outputs": [],
      "stateMutability": "nonpayable",
      "type": "function"
    },
    {
      "inputs": [
        {
          "internalType": "address",
          "name": "_pTokenReceiver",
          "type": "address"
        },
        {
          "internalType": "uint256",
          "name": "_amount",
          "type": "uint256"
        },
        {
          "internalType": "bool",
          "name": "_takeDepositFromWallet",
          "type": "bool"
        }
      ],
      "name": "deposit",
      "outputs": [],
      "stateMutability": "nonpayable",
      "type": "function"
    },
    {
      "inputs": [
        {
          "internalType": "address",
          "name": "_pTokenReceiver",
          "type": "address"
        },
        {
          "internalType": "uint256",
          "name": "_amount",
          "type": "uint256"
        }
      ],
      "name": "deposit",
      "outputs": [],
      "stateMutability": "nonpayable",
      "type": "function"
    },
    {
      "inputs": [
        {
          "internalType": "string",
          "name": "_bucketTo",
          "type": "string"
        },
        {
          "internalType": "contract ISwapManager",
          "name": "_swapManager",
          "type": "address"
        },
        {
          "components": [
            {
              "internalType": "uint256",
              "name": "shares",
              "type": "uint256"
            },
            {
              "components": [
                {
                  "internalType": "string",
                  "name": "dexName",
                  "type": "string"
                },
                {
                  "internalType": "bytes",
                  "name": "encodedPath",
                  "type": "bytes"
                }
              ],
              "internalType": "struct PrimexPricingLibrary.SwapPath[]",
              "name": "paths",
              "type": "tuple[]"
            }
          ],
          "internalType": "struct PrimexPricingLibrary.Route[]",
          "name": "routes",
          "type": "tuple[]"
        },
        {
          "internalType": "uint256",
          "name": "_amountOutMin",
          "type": "uint256"
        }
      ],
      "name": "depositFromBucket",
      "outputs": [],
      "stateMutability": "nonpayable",
      "type": "function"
    },
    {
      "inputs": [],
      "name": "estimatedBar",
      "outputs": [
        {
          "internalType": "uint128",
          "name": "",
          "type": "uint128"
        }
      ],
      "stateMutability": "view",
      "type": "function"
    },
    {
      "inputs": [],
      "name": "estimatedLar",
      "outputs": [
        {
          "internalType": "uint128",
          "name": "",
          "type": "uint128"
        }
      ],
      "stateMutability": "view",
      "type": "function"
    },
    {
      "inputs": [],
      "name": "feeBuffer",
      "outputs": [
        {
          "internalType": "uint256",
          "name": "",
          "type": "uint256"
        }
      ],
      "stateMutability": "view",
      "type": "function"
    },
    {
      "inputs": [],
      "name": "getAllowedAssets",
      "outputs": [
        {
          "internalType": "address[]",
          "name": "",
          "type": "address[]"
        }
      ],
      "stateMutability": "view",
      "type": "function"
    },
    {
      "inputs": [],
      "name": "getLiquidityMiningParams",
      "outputs": [
        {
          "components": [
            {
              "internalType": "contract ILiquidityMiningRewardDistributor",
              "name": "liquidityMiningRewardDistributor",
              "type": "address"
            },
            {
              "internalType": "bool",
              "name": "isBucketLaunched",
              "type": "bool"
            },
            {
              "internalType": "uint256",
              "name": "accumulatingAmount",
              "type": "uint256"
            },
            {
              "internalType": "uint256",
              "name": "deadlineTimestamp",
              "type": "uint256"
            },
            {
              "internalType": "uint256",
              "name": "stabilizationDuration",
              "type": "uint256"
            },
            {
              "internalType": "uint256",
              "name": "stabilizationEndTimestamp",
              "type": "uint256"
            },
            {
              "internalType": "uint256",
              "name": "maxAmountPerUser",
              "type": "uint256"
            },
            {
              "internalType": "uint256",
              "name": "maxDuration",
              "type": "uint256"
            },
            {
              "internalType": "uint256",
              "name": "maxStabilizationEndTimestamp",
              "type": "uint256"
            }
          ],
          "internalType": "struct IBucketStorage.LiquidityMiningParams",
          "name": "",
          "type": "tuple"
        }
      ],
      "stateMutability": "view",
      "type": "function"
    },
    {
      "inputs": [],
      "name": "getNormalizedIncome",
      "outputs": [
        {
          "internalType": "uint256",
          "name": "",
          "type": "uint256"
        }
      ],
      "stateMutability": "view",
      "type": "function"
    },
    {
      "inputs": [],
      "name": "getNormalizedVariableDebt",
      "outputs": [
        {
          "internalType": "uint256",
          "name": "",
          "type": "uint256"
        }
      ],
      "stateMutability": "view",
      "type": "function"
    },
    {
      "inputs": [
        {
          "internalType": "address",
          "name": "_trader",
          "type": "address"
        },
        {
          "internalType": "uint256",
          "name": "_amount",
          "type": "uint256"
        },
        {
          "internalType": "address",
          "name": "_to",
          "type": "address"
        }
      ],
      "name": "increaseDebt",
      "outputs": [],
      "stateMutability": "nonpayable",
      "type": "function"
    },
    {
      "inputs": [
        {
          "components": [
            {
              "internalType": "string",
              "name": "name",
              "type": "string"
            },
            {
              "internalType": "contract IPToken",
              "name": "pToken",
              "type": "address"
            },
            {
              "internalType": "contract IDebtToken",
              "name": "debtToken",
              "type": "address"
            },
            {
              "internalType": "contract IPositionManager",
              "name": "positionManager",
              "type": "address"
            },
            {
              "internalType": "contract IPriceOracle",
              "name": "priceOracle",
              "type": "address"
            },
            {
              "internalType": "contract IPrimexDNS",
              "name": "dns",
              "type": "address"
            },
            {
              "internalType": "contract IReserve",
              "name": "reserve",
              "type": "address"
            },
            {
              "internalType": "contract IWhiteBlackList",
              "name": "whiteBlackList",
              "type": "address"
            },
            {
              "internalType": "address[]",
              "name": "assets",
              "type": "address[]"
            },
            {
              "internalType": "contract IERC20Metadata",
              "name": "borrowedAsset",
              "type": "address"
            },
            {
              "internalType": "uint256",
              "name": "feeBuffer",
              "type": "uint256"
            },
            {
              "internalType": "uint256",
              "name": "withdrawalFeeRate",
              "type": "uint256"
            },
            {
              "internalType": "uint256",
              "name": "reserveRate",
              "type": "uint256"
            },
            {
              "internalType": "contract ILiquidityMiningRewardDistributor",
              "name": "liquidityMiningRewardDistributor",
              "type": "address"
            },
            {
              "internalType": "uint256",
              "name": "liquidityMiningAmount",
              "type": "uint256"
            },
            {
              "internalType": "uint256",
              "name": "liquidityMiningDeadline",
              "type": "uint256"
            },
            {
              "internalType": "uint256",
              "name": "stabilizationDuration",
              "type": "uint256"
            },
            {
              "internalType": "contract IInterestRateStrategy",
              "name": "interestRateStrategy",
              "type": "address"
            },
            {
              "internalType": "uint128",
              "name": "estimatedBar",
              "type": "uint128"
            },
            {
              "internalType": "uint128",
              "name": "estimatedLar",
              "type": "uint128"
            },
            {
              "internalType": "uint256",
              "name": "maxAmountPerUser",
              "type": "uint256"
            },
            {
              "internalType": "bool",
              "name": "isReinvestToAaveEnabled",
              "type": "bool"
            },
            {
              "internalType": "bytes",
              "name": "barCalcParams",
              "type": "bytes"
            },
            {
              "internalType": "uint256",
              "name": "maxTotalDeposit",
              "type": "uint256"
            }
          ],
          "internalType": "struct IBucket.ConstructorParams",
          "name": "_params",
          "type": "tuple"
        },
        {
          "internalType": "address",
          "name": "_registry",
          "type": "address"
        }
      ],
      "name": "initialize",
      "outputs": [],
      "stateMutability": "nonpayable",
      "type": "function"
    },
    {
      "inputs": [],
      "name": "interestRateStrategy",
      "outputs": [
        {
          "internalType": "contract IInterestRateStrategy",
          "name": "",
          "type": "address"
        }
      ],
      "stateMutability": "view",
      "type": "function"
    },
    {
      "inputs": [],
      "name": "isActive",
      "outputs": [
        {
          "internalType": "bool",
          "name": "",
          "type": "bool"
        }
      ],
      "stateMutability": "view",
      "type": "function"
    },
    {
      "inputs": [],
      "name": "isBucketStable",
      "outputs": [
        {
          "internalType": "bool",
          "name": "",
          "type": "bool"
        }
      ],
      "stateMutability": "view",
      "type": "function"
    },
    {
      "inputs": [],
      "name": "isDelisted",
      "outputs": [
        {
          "internalType": "bool",
          "name": "",
          "type": "bool"
        }
      ],
      "stateMutability": "view",
      "type": "function"
    },
    {
      "inputs": [],
      "name": "isDeprecated",
      "outputs": [
        {
          "internalType": "bool",
          "name": "",
          "type": "bool"
        }
      ],
      "stateMutability": "view",
      "type": "function"
    },
    {
      "inputs": [],
      "name": "isReinvestToAaveEnabled",
      "outputs": [
        {
          "internalType": "bool",
          "name": "",
          "type": "bool"
        }
      ],
      "stateMutability": "view",
      "type": "function"
    },
    {
      "inputs": [],
      "name": "isWithdrawAfterDelistingAvailable",
      "outputs": [
        {
          "internalType": "bool",
          "name": "",
          "type": "bool"
        }
      ],
      "stateMutability": "view",
      "type": "function"
    },
    {
      "inputs": [],
      "name": "lar",
      "outputs": [
        {
          "internalType": "uint128",
          "name": "",
          "type": "uint128"
        }
      ],
      "stateMutability": "view",
      "type": "function"
    },
    {
      "inputs": [],
      "name": "lastUpdatedBlockTimestamp",
      "outputs": [
        {
          "internalType": "uint256",
          "name": "",
          "type": "uint256"
        }
      ],
      "stateMutability": "view",
      "type": "function"
    },
    {
      "inputs": [],
      "name": "liquidityIndex",
      "outputs": [
        {
          "internalType": "uint128",
          "name": "",
          "type": "uint128"
        }
      ],
      "stateMutability": "view",
      "type": "function"
    },
    {
      "inputs": [
        {
          "internalType": "address",
          "name": "_asset",
          "type": "address"
        }
      ],
      "name": "maxAssetLeverage",
      "outputs": [
        {
          "internalType": "uint256",
          "name": "",
          "type": "uint256"
        }
      ],
      "stateMutability": "view",
      "type": "function"
    },
    {
      "inputs": [],
      "name": "maxTotalDeposit",
      "outputs": [
        {
          "internalType": "uint256",
          "name": "",
          "type": "uint256"
        }
      ],
      "stateMutability": "view",
      "type": "function"
    },
    {
      "inputs": [],
      "name": "name",
      "outputs": [
        {
          "internalType": "string",
          "name": "",
          "type": "string"
        }
      ],
      "stateMutability": "view",
      "type": "function"
    },
    {
      "inputs": [],
      "name": "pToken",
      "outputs": [
        {
          "internalType": "contract IPToken",
          "name": "",
          "type": "address"
        }
      ],
      "stateMutability": "view",
      "type": "function"
    },
    {
      "inputs": [
        {
          "internalType": "uint256",
          "name": "amount",
          "type": "uint256"
        }
      ],
      "name": "paybackPermanentLoss",
      "outputs": [],
      "stateMutability": "nonpayable",
      "type": "function"
    },
    {
      "inputs": [],
      "name": "permanentLoss",
      "outputs": [
        {
          "internalType": "uint256",
          "name": "",
          "type": "uint256"
        }
      ],
      "stateMutability": "view",
      "type": "function"
    },
    {
      "inputs": [],
      "name": "permanentLossScaled",
      "outputs": [
        {
          "internalType": "uint256",
          "name": "",
          "type": "uint256"
        }
      ],
      "stateMutability": "view",
      "type": "function"
    },
    {
      "inputs": [],
      "name": "positionManager",
      "outputs": [
        {
          "internalType": "contract IPositionManager",
          "name": "",
          "type": "address"
        }
      ],
      "stateMutability": "view",
      "type": "function"
    },
    {
      "inputs": [
        {
          "internalType": "address",
          "name": "_pTokenReceiver",
          "type": "address"
        },
        {
          "internalType": "uint256",
          "name": "_amount",
          "type": "uint256"
        },
        {
          "internalType": "uint256",
          "name": "_duration",
          "type": "uint256"
        },
        {
          "internalType": "string",
          "name": "_bucketFrom",
          "type": "string"
        }
      ],
      "name": "receiveDeposit",
      "outputs": [],
      "stateMutability": "nonpayable",
      "type": "function"
    },
    {
      "inputs": [],
      "name": "registry",
      "outputs": [
        {
          "internalType": "address",
          "name": "",
          "type": "address"
        }
      ],
      "stateMutability": "view",
      "type": "function"
    },
    {
      "inputs": [
        {
          "internalType": "address",
          "name": "_assetToDelete",
          "type": "address"
        }
      ],
      "name": "removeAsset",
      "outputs": [],
      "stateMutability": "nonpayable",
      "type": "function"
    },
    {
      "inputs": [],
      "name": "reserve",
      "outputs": [
        {
          "internalType": "contract IReserve",
          "name": "",
          "type": "address"
        }
      ],
      "stateMutability": "view",
      "type": "function"
    },
    {
      "inputs": [],
      "name": "reserveRate",
      "outputs": [
        {
          "internalType": "uint256",
          "name": "",
          "type": "uint256"
        }
      ],
      "stateMutability": "view",
      "type": "function"
    },
    {
      "inputs": [],
      "name": "returnLiquidityFromAaveToBucket",
      "outputs": [],
      "stateMutability": "nonpayable",
      "type": "function"
    },
    {
      "inputs": [
        {
          "internalType": "bytes",
          "name": "_params",
          "type": "bytes"
        }
      ],
      "name": "setBarCalculationParams",
      "outputs": [],
      "stateMutability": "nonpayable",
      "type": "function"
    },
    {
      "inputs": [
        {
          "internalType": "uint256",
          "name": "_feeBuffer",
          "type": "uint256"
        }
      ],
      "name": "setFeeBuffer",
      "outputs": [],
      "stateMutability": "nonpayable",
      "type": "function"
    },
    {
      "inputs": [
        {
          "internalType": "address",
          "name": "_interestRateStrategy",
          "type": "address"
        }
      ],
      "name": "setInterestRateStrategy",
      "outputs": [],
      "stateMutability": "nonpayable",
      "type": "function"
    },
    {
      "inputs": [
        {
          "internalType": "uint256",
          "name": "_maxTotalDeposit",
          "type": "uint256"
        }
      ],
      "name": "setMaxTotalDeposit",
      "outputs": [],
      "stateMutability": "nonpayable",
      "type": "function"
    },
    {
      "inputs": [
        {
          "internalType": "uint256",
          "name": "_reserveRate",
          "type": "uint256"
        }
      ],
      "name": "setReserveRate",
      "outputs": [],
      "stateMutability": "nonpayable",
      "type": "function"
    },
    {
      "inputs": [
        {
          "internalType": "uint256",
          "name": "_withdrawalFeeRate",
          "type": "uint256"
        }
      ],
      "name": "setWithdrawalFee",
      "outputs": [],
      "stateMutability": "nonpayable",
      "type": "function"
    },
    {
      "inputs": [
        {
          "internalType": "bytes4",
          "name": "_interfaceId",
          "type": "bytes4"
        }
      ],
      "name": "supportsInterface",
      "outputs": [
        {
          "internalType": "bool",
          "name": "",
          "type": "bool"
        }
      ],
      "stateMutability": "view",
      "type": "function"
    },
    {
      "inputs": [],
      "name": "variableBorrowIndex",
      "outputs": [
        {
          "internalType": "uint128",
          "name": "",
          "type": "uint128"
        }
      ],
      "stateMutability": "view",
      "type": "function"
    },
    {
      "inputs": [],
      "name": "whiteBlackList",
      "outputs": [
        {
          "internalType": "contract IWhiteBlackList",
          "name": "",
          "type": "address"
        }
      ],
      "stateMutability": "view",
      "type": "function"
    },
    {
      "inputs": [
        {
          "internalType": "address",
          "name": "_borrowAssetReceiver",
          "type": "address"
        },
        {
          "internalType": "uint256",
          "name": "_amount",
          "type": "uint256"
        }
      ],
      "name": "withdraw",
      "outputs": [],
      "stateMutability": "nonpayable",
      "type": "function"
    },
    {
      "inputs": [
        {
          "internalType": "uint256",
          "name": "_amount",
          "type": "uint256"
        }
      ],
      "name": "withdrawAfterDelisting",
      "outputs": [],
      "stateMutability": "nonpayable",
      "type": "function"
    },
    {
      "inputs": [],
      "name": "withdrawalFeeRate",
      "outputs": [
        {
          "internalType": "uint256",
          "name": "",
          "type": "uint256"
        }
      ],
      "stateMutability": "view",
      "type": "function"
    }
  ],
  "transactionHash": "0xe5a7687bc280309fcb784ed2c76bf96f90ec157de44e8b2b48a4671994e23254",
  "args": [],
  "numDeployments": 3,
  "solcInputHash": "ac08d1652288d4d03be56436412dd0c4",
  "bytecode": "0x60808060405234620000c6576000549060ff8260081c1662000074575060ff8082160362000038575b604051615cd99081620000cc8239f35b60ff90811916176000557f7f26b83ff96e1f2b6a682f133852f6798a09c465da95921460cefb3847402498602060405160ff8152a13862000028565b62461bcd60e51b815260206004820152602760248201527f496e697469616c697a61626c653a20636f6e747261637420697320696e697469604482015266616c697a696e6760c81b6064820152608490fd5b600080fdfe608080604052600436101561001357600080fd5b600090813560e01c90816301ffc9a714614063575080630224f16a1461400e57806306fdde0314613f375780631003d99d14613d1b57806313a1fcb914613cfa578063165e780514613cd957806318f88b6d14613bb257806322f3e2d414613b1e578063235f17f5146137ab57806327c37b251461378a578063298410e5146137605780632a5ad159146136865780632acabb11146135ab5780632e51d3ed14613573578063304fe59814612ab057806330db585614612a8d5780633e07460814612a645780633edd112814612874578063478827851461285657806347e7ef24146126a15780634872d3271461266b5780634a5e42b1146125235780634ad09aa5146124695780634f43f2391461235157806358a06f071461232857806358d7bf801461230a57806368d0612f146122b357806371a6cab714612295578063743753591461227a578063791b98bc146122515780637b10399914612228578063883c6b24146122055780638eed7780146121dc578063905e3837146121bb57806398cc6b1e146120b85780639b622c0214612093578063a00622dc14612075578063a223f82114612057578063a4c1cccb1461200f578063ac1e502514611fb1578063b28f7a1d14611f93578063bbf44f3314611f6c578063bd449dde14611f45578063bda896c414611191578063c07dc61414611109578063c717823014611044578063cd3293de1461101b578063d0b6543d14610ef4578063e526e4ab14610e83578063eae12b7f14610bbf578063ef379d1714610b96578063f066eea014610ad0578063f3fef3a31461046b578063f5bfeb441461044d578063f8190a46146102e6578063f8d89898146102bd5763febb0f7e1461029457600080fd5b346102ba57806003193601126102ba5760206001600160801b03606d5416604051908152f35b80fd5b50346102ba57806003193601126102ba57606a546040516001600160a01b039091168152602090f35b50346102ba5760603660031901126102ba576103006141b5565b60243561030b6141cb565b91610314615a9d565b60ff607b5460a01c161561043b57606b5484936001600160a01b0391734FFa6c545a6249baF2D66ce21CeF3D2C2cCa69D091908316823b1561043757604051636336129b60e11b81526001600160a01b0391821660048201529116602482015260448101859052908590829060649082905af490811561042c578591610413575b505061039f614c64565b606a5416606f5460801c90803b1561040f576103d59385809460405196879586948593630ab714fb60e11b8552600485016144f7565b03925af18015610404576103f0575b506103ed615378565b80f35b6103f99061410a565b6102ba5780386103e4565b6040513d84823e3d90fd5b8480fd5b61041c9061410a565b610427578338610395565b505050fd5b6040513d87823e3d90fd5b8680fd5b6040516379bb149f60e11b8152600490fd5b50346102ba57806003193601126102ba576020607754604051908152f35b50346102ba5760403660031901126102ba576104856141b5565b60248035916104926143fb565b61049a615b05565b83607b5460ff8160a01c161560001461099f576001600160a01b0316803b1561099b578160405180926308f57fc760e11b8252606060048301528183816104e360648201614465565b338b8301528b604483015203925af1801561040457610983575b50505b60ff607b5460a01c16610976575b60018060a01b038060695416926001600160801b03606f5416946040518095637a94c56560e11b825281898161054c60209b8c9733600485016144f7565b03925af193841561075f578694610947575b50607354670de0b6b3a7640000908103818111610934576105828661058792615bf5565b615b92565b0461059281866142a5565b60ff607b5460a01c161580610928575b8061091d575b6107f2575b83606b5416928760405180926370a0823160e01b825230600483015281875afa9081156107e75789916107b5575b5086116107a3578792734FFa6c545a6249baF2D66ce21CeF3D2C2cCa69D0916004898760835416604051928380926361d027b360e01b82525afa90811561075f57869161076e575b50833b1561076a57604051636336129b60e11b8082526001600160a01b03948516600483015291909316602484015260448301829052918581606481875af490811561075f57869161074b575b50506040519081527f590e5a1563e349794fdcc066c4d5047f5e478f9e41707fc1bbad830146b7a177893392a284606b541691803b1561040f576040519182526001600160a01b039283166004830152918616602482015260448101929092528290829060649082905af4801561040457610737575b50507f9b1bfa7fa9ee420a16e124f794c35ac9f90472acc99140eb2f6447c714cad8eb9160ff607b5460a01c1661072a575b60405193845216923392a36001805580f35b610732615378565b610718565b6107409061410a565b61040f5784386106e6565b6107549061410a565b61040f578438610670565b6040513d88823e3d90fd5b8580fd5b90508981813d831161079c575b6107858183614154565b8101031261076a5761079690614451565b38610623565b503d61077b565b604051630d5f777560e21b8152600490fd5b90508781813d83116107e0575b6107cc8183614154565b810103126107db5751386105db565b600080fd5b503d6107c2565b6040513d8b823e3d90fd5b607d5442111561080957610804614eba565b6105ad565b60048785608354166040519283809263a03e4bc360e01b82525afa80156107e75785918a916108e1575b501684606b541660405190631a4ca37b60e21b82526004820152878582015230604482015288816064818d865af19081156108d65789916108ad575b507f6407790cdabc5d219eaf901091d6beccc475533065c2fbd374c8a32b1c66795890604051898152a26108a5866077546142a5565b6077556105ad565b813d83116108cf575b6108c08183614154565b810103126107db57873861086f565b503d6108b6565b6040513d8c823e3d90fd5b809250898092503d8311610916575b6108fa8183614154565b810103126109125761090c8591614451565b38610833565b8880fd5b503d6108f0565b5060775415156105a8565b5060ff607854166105a2565b634e487b7160e01b885260116004528288fd5b9093508481813d831161096f575b61095f8183614154565b810103126107db5751923861055e565b503d610955565b61097e614c64565b61050e565b61098c9061410a565b6109975783386104fd565b8380fd5b5080fd5b9050607f5442106109b1575b50610500565b6069546040516370a0823160e01b81523360048201526020916001600160a01b039190839082908890829086165afa918215610ac55783918993610a94575b506040519485809263be5daee560e01b82526040600483015281610a1660448201614465565b338c8301520392165afa918215610a89578792610a57575b50610a3992506142a5565b8311610a4557386109ab565b6040516342b0cbe760e11b8152600490fd5b90915082813d8311610a82575b610a6e8183614154565b810103126107db57610a3991519038610a2e565b503d610a64565b6040513d89823e3d90fd5b8281939294503d8311610abe575b610aac8183614154565b810103126107db5782905191386109f0565b503d610aa2565b6040513d8a823e3d90fd5b50346102ba57806003193601126102ba576040518091607a549081835260208093018092607a83527ff0440771a29e57e18c66727944770b82cc77924aef333c927ce6bdd2cdb3ae0390835b818110610b795750505084610b32910385614154565b60405193838594850191818652518092526040850193925b828110610b5957505050500390f35b83516001600160a01b031685528695509381019392810192600101610b4a565b82546001600160a01b031684529286019260019283019201610b1c565b50346102ba57806003193601126102ba576074546040516001600160a01b039091168152602090f35b50346102ba576003199060c0368301126102ba576001600160401b03600435818111610e7f57610bf390369060040161420e565b9160243590811161099757610c0c90369060040161420e565b90610c156141cb565b606654604051632474521560e21b81527f28eb28c26cbbd48a6bfad016505ccf4a189452995f59d16217af8920961ed25c6004820152336024820152608435966001600160a01b039660209490939192606435928690829060449082908d165afa908115610e7357600091610e3e575b5015610e2c5781610dad575b5050610c9b614c64565b85606a541692606f5491843b15610da95760405163eb1738e560e01b815260806004820152608481018290529760a489019491908b905b828210610d85575050505086830390990160248701528482529697959688966001600160fb1b038611610d815786809581948a9894899560051b80938684013760801c604484015260a4356064840152010301925af1801561040457610d6d575b5050610d3d615378565b80610d46575080f35b610d5f610d67916001600160801b03606f541690615c2c565b607154614298565b60715580f35b610d769061410a565b61099b578138610d33565b8780fd5b909192958635908282168092036107db579081528401958401929160010190610cd2565b8980fd5b734FFa6c545a6249baF2D66ce21CeF3D2C2cCa69D09088606b5416823b15610e2857604051636336129b60e11b81526001600160a01b0391821660048201529116602482015260448101929092528990829060649082905af480156107e75790899115610c9157610e1d9061410a565b610d81578738610c91565b8b80fd5b60405163036be76f60e61b8152600490fd5b908682813d8311610e6c575b610e548183614154565b810103126102ba5750610e669061423e565b38610c85565b503d610e4a565b6040513d6000823e3d90fd5b8280fd5b50346102ba5760203660031901126102ba57600435610ea0615a54565b670de0b6b3a7640000811015610ee2576020817fb2429786195476a340c6c3ff6be51a0d28d9ea08dea6c91a0720b1e200400e8c92607255604051908152a180f35b604051631757762160e01b8152600490fd5b50346102ba5760a03660031901126102ba57610f0e6141b5565b81610f176141cb565b6084359290606435610f27615a9d565b80610f8f575b5050610f37614c64565b60018060a01b03606a541690606f5460801c823b1561099757610f7792849283604051809681958294637a94c56560e11b845260243590600485016144f7565b03925af1801561040457610d6d575050610d3d615378565b606b546001600160a01b031690734FFa6c545a6249baF2D66ce21CeF3D2C2cCa69D0803b1561076a57604051636336129b60e11b81526001600160a01b03938416600482015293909216602484015260448301528390829060649082905af490811561101057839115610f2d576110059061410a565b61099b578138610f2d565b6040513d85823e3d90fd5b50346102ba57806003193601126102ba576068546040516001600160a01b039091168152602090f35b50346102ba57806003193601126102ba5760835460405163481d98fb60e11b815260206004820152919060809083906001600160a01b0316818061108a60248201614465565b03915afa9182156110fc5781926110c8575b5060038210156110b457602082600260405191148152f35b634e487b7160e01b81526021600452602490fd5b6110ea91925060803d81116110f5575b6110e28183614154565b81019061457f565b50509050903861109c565b503d6110d8565b50604051903d90823e3d90fd5b50346102ba5760203660031901126102ba5760043561112661594a565b670de0b6b3a7640000811180611180575b1561116e576020817f6db5a699a2b18e7a2568814d453dff8a78eb41c9daf9d45bdeab3824f49c941592606c55604051908152a180f35b60405163c42aecdf60e01b8152600490fd5b50670e043da6172500008110611137565b50346102ba5760031960403682011261099b576001600160401b036004351161099b5761030090600435360301126102ba57602435906001600160a01b03821682036107db5780549160ff8360081c161592838094611f38575b8015611f21575b15611ec55760ff198116600117835583611eb4575b506040516301ffc9a760e01b8152637965db0b60e01b60048201526020816024816001600160a01b0386165afa908115611010578391611e7a575b5080611dee575b80611d61575b80611cd4575b80611c47575b80611bba575b80611b2d575b80611a9f575b80611a12575b15611a0057600460206001600160a01b0361129283356101240161424b565b166040519283809263313ce56760e01b82525afa9081156110105760129160ff9185916119d1575b5016116119bf5767016345785d8a00006101646004350135116119ad57670de0b6b3a76400008061014460043501351180611995575b1561116e5761018460043501351015610ee2576102e4600435013515611983576004356101c401356117cd57607b805460ff60a01b1916600160a01b1790557f5023432d2ef8583c6eb5ee4501bf4740bf68b6fe4823da8f19ddedd1135f2a648280a15b6004356102e48101356079556001600160a01b0390611376906102240161424b565b1661138c6102c4600435016004356004016142c6565b8291923b1561040f579184916113c19383604051809681958294632acabb1160e01b84526020600485015260248401916142f8565b03925af18015611010579083916117b9575b506113e490506004803501806142c6565b906001600160401b0382116117a55781906114006065546140d0565b601f8111611733575b508490601f83116001146116bf5785926116b4575b50508160011b916000199060031b1c191617606555915b6001600160a01b0361144b60043560240161424b565b16906bffffffffffffffffffffffff60a01b9182606954161760695560018060a01b0361147c60a46004350161424b565b1682608354161760835560018060a01b0361149b60646004350161424b565b1682606754161760675560018060a01b036114ba60846004350161424b565b1682608454161760845560018060a01b036114d960446004350161424b565b1682606a541617606a5560018060a01b036114f860c46004350161424b565b1682606854161760685560018060a01b0361151760e46004350161424b565b1682607454161760745560018060a01b036115376101246004350161424b565b1682606b541617606b556101446004350135606c5561016460043501356073556101846004350135607255829161010460043501925b61157c84600435600401614319565b90508110156115f45761159484600435600401614319565b8210156115e057600582901b01356001600160a01b038116810361076a576115bb90615576565b60001981146115cc5760010161156d565b634e487b7160e01b85526011600452602485fd5b634e487b7160e01b86526032600452602486fd5b8483838860018060a01b031681606654161760665560018060a01b0361161f6102246004350161424b565b169060765416176076557b033b2e3c9fd0803ce800000000000000033b2e3c9fd0803ce800000082606f541617606f5581549061167760ff8360081c166116658161434e565b61166e8161434e565b6001805561434e565b61167f575080f35b61ff00191681557f7f26b83ff96e1f2b6a682f133852f6798a09c465da95921460cefb3847402498602060405160018152a180f35b01359050388061141e565b60658652859350600080516020615c64833981519152915b601f198416851061171b576001945083601f19811610611701575b505050811b0160655591611435565b0135600019600384901b60f8161c191690553880806116f2565b818101358355602094850194600190930192016116d7565b90915060658552601f830160051c600080516020615c648339815191520160208410611790575b908392915b601f820160051c600080516020615c648339815191520181106117825750611409565b86815584935060010161175f565b50600080516020615c6483398151915261175a565b634e487b7160e01b84526041600452602484fd5b6117c29061410a565b61099b5781386113d3565b426101e4600435013511806118f5575b806118e5575b156118d457610204600435013561180f611804826101e46004350135614298565b8060825542906142a5565b6081556001600160a01b036118296004356101a40161424b565b166bffffffffffffffffffffffff60a01b607b541617607b556101c46004350135607c556101e46004350135607d55607e5561028460043501356080556001600160801b0361187d610244600435016142b2565b606e549116836fffffffffffffffffffffffffffffffff196118a4600435610264016142b2565b60801b1692161717606e556102a46004350135801515809103610e7f5760ff801960785416911617607855611354565b604051627706c160e81b8152600490fd5b50610284600435013515156117e3565b50602460206001600160a01b036119116004356101a40161424b565b6040516301ffc9a760e01b815263edebbfe960e01b600482015293849290918391165afa908115611010578391611949575b506117dd565b90506020813d60201161197b575b8161196460209383614154565b81010312610e7f576119759061423e565b38611943565b3d9150611957565b604051637ed7b9ab60e11b8152600490fd5b50670e043da6172500006101446004350135106112f0565b60405163766a53cb60e01b8152600490fd5b60405163b7c73c5d60e01b8152600490fd5b6119f3915060203d6020116119f9575b6119eb8183614154565b81019061425f565b386112ba565b503d6119e1565b60405163044aa57560e41b8152600490fd5b50602460206001600160a01b03611a2d60043560e40161424b565b6040516301ffc9a760e01b8152633df6cef760e01b600482015293849290918391165afa908115611010578391611a65575b50611273565b90506020813d602011611a97575b81611a8060209383614154565b81010312610e7f57611a919061423e565b38611a5f565b3d9150611a73565b50602460206001600160a01b03611abb6004356102240161424b565b6040516301ffc9a760e01b8152633983653f60e21b600482015293849290918391165afa908115611010578391611af3575b5061126d565b90506020813d602011611b25575b81611b0e60209383614154565b81010312610e7f57611b1f9061423e565b38611aed565b3d9150611b01565b50602460206001600160a01b03611b4860043560c40161424b565b6040516301ffc9a760e01b815263d4cb1bcb60e01b600482015293849290918391165afa908115611010578391611b80575b50611267565b90506020813d602011611bb2575b81611b9b60209383614154565b81010312610e7f57611bac9061423e565b38611b7a565b3d9150611b8e565b50602460206001600160a01b03611bd560043560840161424b565b6040516301ffc9a760e01b81526341636c7560e11b600482015293849290918391165afa908115611010578391611c0d575b50611261565b90506020813d602011611c3f575b81611c2860209383614154565b81010312610e7f57611c399061423e565b38611c07565b3d9150611c1b565b50602460206001600160a01b03611c6260043560640161424b565b6040516301ffc9a760e01b81526306cc15a560e11b600482015293849290918391165afa908115611010578391611c9a575b5061125b565b90506020813d602011611ccc575b81611cb560209383614154565b81010312610e7f57611cc69061423e565b38611c94565b3d9150611ca8565b50602460206001600160a01b03611cef60043560440161424b565b6040516301ffc9a760e01b8152633d5b079f60e11b600482015293849290918391165afa908115611010578391611d27575b50611255565b90506020813d602011611d59575b81611d4260209383614154565b81010312610e7f57611d539061423e565b38611d21565b3d9150611d35565b50602460206001600160a01b03611d7c60043560a40161424b565b6040516301ffc9a760e01b815263fa6ab0ef60e01b600482015293849290918391165afa908115611010578391611db4575b5061124f565b90506020813d602011611de6575b81611dcf60209383614154565b81010312610e7f57611de09061423e565b38611dae565b3d9150611dc2565b50602460206001600160a01b03611e08600435840161424b565b6040516301ffc9a760e01b81526337a557d360e01b600482015293849290918391165afa908115611010578391611e40575b50611249565b90506020813d602011611e72575b81611e5b60209383614154565b81010312610e7f57611e6c9061423e565b38611e3a565b3d9150611e4e565b90506020813d602011611eac575b81611e9560209383614154565b81010312610e7f57611ea69061423e565b38611242565b3d9150611e88565b61ffff191661010117825538611207565b60405162461bcd60e51b815260206004820152602e60248201527f496e697469616c697a61626c653a20636f6e747261637420697320616c72656160448201526d191e481a5b9a5d1a585b1a5e995960921b6064820152608490fd5b50303b1580156111f25750600160ff8216146111f2565b50600160ff8216106111eb565b50346102ba57806003193601126102ba5760206001600160801b03606e5416604051908152f35b50346102ba57806003193601126102ba5760206001600160801b03606f5416604051908152f35b50346102ba57806003193601126102ba576020607154604051908152f35b50346102ba5760203660031901126102ba57600435611fce615a54565b67016345785d8a000081116119ad576020817ffc1353e6b18ce07b5a979c8edf77a87455939a17a9eebbb084dcde5bfb3b19ac92607355604051908152a180f35b50346102ba5760203660031901126102ba5760409081906001600160a01b036120366141b5565b16815260756020522060ff6001825492015416825191825215156020820152f35b50346102ba57806003193601126102ba576020607354604051908152f35b50346102ba57806003193601126102ba576020606c54604051908152f35b50346102ba57806003193601126102ba5760206120ae6145b1565b6040519015158152f35b50346102ba57806003193601126102ba57604051610120916120d98261411d565b8082528060208301528060408301528060608301528060808301528060a08301528060c08301528060e0830152610100809201526040519061211a8261411d565b607b549160018060a01b0383169283825260ff602083019160a01c1615158152607c5460408301908152607d5460608401908152607e5460808501908152607f549160a086019283526080549360c087019485526081549560e08801968752886082549801978852604051998a5251151560208a01525160408901525160608801525160808701525160a08601525160c08501525160e08401525190820152f35b50346102ba57806003193601126102ba576020606d5460801c604051908152f35b50346102ba57806003193601126102ba57606b546040516001600160a01b039091168152602090f35b50346102ba57806003193601126102ba576020612220614651565b604051908152f35b50346102ba57806003193601126102ba576066546040516001600160a01b039091168152602090f35b50346102ba57806003193601126102ba576067546040516001600160a01b039091168152602090f35b50346102ba57806003193601126102ba57602061222061468b565b50346102ba57806003193601126102ba576020607954604051908152f35b50346102ba57806003193601126102ba576020676765c793fa10079d601b1b6123016122fc6122f06001600160801b03606d541660705490615853565b606f5460801c90615bf5565b615bc0565b04604051908152f35b50346102ba57806003193601126102ba576020607254604051908152f35b50346102ba57806003193601126102ba576069546040516001600160a01b039091168152602090f35b50346102ba5760203660031901126102ba5760043561236e6143fb565b6123888161237a615b05565b612382614651565b90615c2c565b8015612457576123ea9160209160715480821161242c575b036071556069546001600160a01b03166123b8614651565b604051637a94c56560e11b81523360048201526024810193909352604483015290928391908290869082906064820190565b03925af1801561040457612401575b506001805580f35b602090813d8111612425575b6124178183614154565b810103126107db57386123f9565b503d61240d565b91505080676765c793fa10079d601b1b6124506122fc61244a614651565b85615bf5565b04916123a0565b604051637c123f8b60e01b8152600490fd5b50346102ba57806003193601126102ba5760835460405163481d98fb60e11b815260206004820152919060809083906001600160a01b031681806124af60248201614465565b03915afa90811561251757809281926124f0575b5060038310156110b4575060026020921490816124e6575b506040519015158152f35b90504211386124db565b90925061250b915060803d81116110f5576110e28183614154565b509291509190386124c3565b604051903d90823e3d90fd5b50346102ba5760203660031901126102ba5761253d6141b5565b6125456159ec565b6001600160a01b03908116808352607560205260408320600181015491929160ff161561265957607a5460001992908381019081116126455761258882916143ae565b90549060031b1c16926125be8461259f85546143ae565b90919082549060031b9160018060a01b03809116831b921b1916179055565b607a54801561263157917fa48303bd6cd678b9b13454996417095d2d282db59c4db9ba88df8c82d04869789593916020959301906125fb826143ae565b909182549160031b1b19169055607a5554908552607583526040852055808452836001604082208281550155604051908152a180f35b634e487b7160e01b87526031600452602487fd5b634e487b7160e01b86526011600452602486fd5b60405163b7addff360e01b8152600490fd5b50346102ba57806003193601126102ba576020676765c793fa10079d601b1b6123016122fc60715461269b614651565b90615bf5565b50346102ba5760403660031901126102ba576126bb6141b5565b6024356126c66143fb565b6126ce615b05565b6069546040516318160ddd60e01b8152602093916001600160a01b03919085908290600490829086165afa801561075f5784908790612825575b6127129250614298565b607954111561281357606b5460405163c37f7f7f60e01b81529082166001600160a01b0316600482015233602482015260448101849052848180606481015b0381734FFa6c545a6249baF2D66ce21CeF3D2C2cCa69D05af490811561075f5785916127ea575b5050607b5460a01c60ff16156127b557816127a284600080516020615c8483398151915294614709565b5060405193845216923392a36001805580f35b33818316036127d8578161073284600080516020615c8483398151915294614833565b60405163217fe6c760e11b8152600490fd5b813d831161280c575b6127fd8183614154565b810103126107db578338612778565b503d6127f3565b604051630a5a765f60e31b8152600490fd5b50508481813d831161284f575b61283c8183614154565b810103126107db57836127129151612708565b503d612832565b50346102ba57806003193601126102ba576020607054604051908152f35b50346102ba5760603660031901126102ba5761288e6141b5565b602435604435918215158303610997576128a66143fb565b6128ae615b05565b6069546040516318160ddd60e01b81526020946001600160a01b039290919086908290600490829087165afa8015610a895785908890612a33575b6128f39250614298565b6079541115612813571561296357606b5460405163c37f7f7f60e01b81529082166001600160a01b031660048201523360248201526044810184905284818060648101612751565b607b5460a01c60ff16156127b557816127a284600080516020615c8483398151915294614709565b84600485836067541660405192838092634cb4430f60e11b82525afa801561040457839183916129f9575b501682606b5416813b15610e7f57829160a48392604051948593849263c268dd3160e01b845233600485015230602485015260448401528a60648401528160848401525af18015610404576129e5575b505061293b565b6129ee9061410a565b61040f5784386129de565b809250878092503d8311612a2c575b612a128183614154565b8101031261099b5751828116810361099b5782903861298e565b503d612a08565b50508581813d8311612a5d575b612a4a8183614154565b810103126107db57846128f391516128e9565b503d612a40565b50346102ba57806003193601126102ba576076546040516001600160a01b039091168152602090f35b50346102ba57806003193601126102ba57602060ff607854166040519015158152f35b50346102ba5760803660031901126102ba576004356001600160401b03811161099b57612ae19036906004016141e1565b6024356001600160a01b0381168103610997576044356001600160401b03811161040f57612b1390369060040161420e565b612b1b6143fb565b612b23615b05565b60ff607b5460a01c161580613568575b1561355657859460ff607854168061354b575b61353e575b60835460405163af9a2aa760e01b815260206004820181905290969187906001600160a01b03168180612b826024820187896142f8565b03915afa958615610a89578796613502575b50607b54604051634c66358f60e11b81526001600160a01b03918216929161012090829060049082908c165afa80156107e7578990613452575b602091500151151591607d5493813b15610da95789612c2293819560405197889687958694638f8ebe1560e01b865260a06004870152612c1060a48701614465565b868103600319016024880152916142f8565b913360448501526064840152608483015203925af190811561075f57869161343e575b5050606954606f54604051637a94c56560e11b815233600482015260001960248201526001600160801b0390911660448201529660209188916064918391906001600160a01b03165af195861561042c57859661340a575b5060405186815286906001600160a01b0386169033907f9b1bfa7fa9ee420a16e124f794c35ac9f90472acc99140eb2f6447c714cad8eb90602090a360405163011ddaef60e71b8152966020886004816001600160a01b038a165afa978815610a895787986133c6575b50606b546001600160a01b039081169089168114613331575050606654604051632474521560e21b81527fe965846df3dd5b1dfa65f58e31477079e90140e0908b6dd31b5aead5a57cf36560048201526001600160a01b038681166024830152909160209183916044918391165afa908115610a895787916132f7575b5015610e2c57606b5460405163095ea7b360e01b81526001600160a01b038681166004830152602482018490529091602091839160449183918c91165af18015610a89576132be575b50606b5460405197906001600160a01b03166001600160401b036101608a01908111908a11176132a8576101608901604052885260018060a01b0316602088015260408701526064356060870152612e2481614522565b91612e326040519384614154565b8183526020830190368360051b8201116104375780915b8360051b820183106130f45750505050608085019081526001600160a01b0383811660a08701524260c0870152600160e0870181905261010087015261012086018590526101408601859052604080516373cb40a560e11b81526060600482018190528851841660648301526020808a015190941660848301529188015160a48201529087015160c4820152915161016060e484015280516101c484018190529293926101e4600582901b86018101939290920191879086015b82821061304957505050506020918386818094610140839b60018060a01b0360a08201511661010485015260c081015161012485015260e0810151151561014485015261010081015115156101648501526101208101511515610184850152015115156101a4830152826024830152826044830152039260018060a01b03165af1908115611010578391613014575b50905b607e54916001600160a01b0382163b15610427578391604051938492631003d99d60e01b84523360048501526024840152604483015260806064830152818381612fe160848201614465565b03926001600160a01b03165af180156104045761300057506001805580f35b6130099061410a565b6102ba5780386123f9565b9250506020823d602011613041575b8161303060209383614154565b810103126107db5782915138612f92565b3d9150613023565b909192936101e31987820301825284519060206040820192805183520151916040602083015282518091526060820190602060608260051b8501019401928c5b8281106130a9575050505050602080600192960192019201909291612f03565b90919293946020806130e7600193605f19878203018952895190836130d78351604084526040840190614175565b9201519084818403910152614175565b9701950193929101613089565b6001600160401b03833511610d8157604083358301360312610d815760405161311c81614139565b8335830180358252602001356001600160401b038111610da95736601f828735870101011215610da9578085358501013561315681614522565b916131646040519384614154565b81835260208301903660208460051b838b358b01010101116132a457602081893589010101915b60208460051b838b358b0101010183106131b8575050505091816020938480940152815201920191612e49565b6001600160401b038335116132a05760408935890183018435013603601f1901126132a0576040516131e981614139565b60208435848c358c01010101356001600160401b03811161329c57368b358b0185018635018201603f01121561329c576132379036908c358c01860187350101602081013590604001614539565b815260408435848c358c01010101356001600160401b03811161329c57368b358b0185018635018201603f01121561329c576020928392909161328d9036908e358e018801893501018086013590604001614539565b8382015281520192019161318b565b8f80fd5b8d80fd5b8c80fd5b634e487b7160e01b600052604160045260246000fd5b6020813d6020116132ef575b816132d760209383614154565b81010312610437576132e89061423e565b5038612dcd565b3d91506132ca565b90506020813d602011613329575b8161331260209383614154565b81010312610437576133239061423e565b38612d84565b3d9150613305565b92509493509150849550734FFa6c545a6249baF2D66ce21CeF3D2C2cCa69D091823b1561076a57604051636336129b60e11b81526001600160a01b03928316600482015291841660248301526044820152908490829060649082905af49081156133bb5784916133a3575b5050612f95565b6133ac9061410a565b6133b757823861339c565b5050fd5b6040513d86823e3d90fd5b9097506020813d602011613402575b816133e260209383614154565b8101031261043757516001600160a01b0381168103610437579638612d07565b3d91506133d5565b9095506020813d602011613436575b8161342660209383614154565b810103126107db57519438612c9d565b3d9150613419565b6134479061410a565b61040f578438612c45565b50610120813d610120116134fa575b8161346f6101209383614154565b81010312610912576040516134838161411d565b8151916001600160a01b03831683036134f65760209282526134a683820161423e565b8383015260408101516040830152606081015160608301526080810151608083015260a081015160a083015260c081015160c083015260e081015160e08301526101008091015190820152612bce565b8a80fd5b3d9150613461565b9095506020813d602011613536575b8161351e60209383614154565b810103126104375761352f90614451565b9438612b94565b3d9150613511565b613546614eba565b612b4b565b506077541515612b46565b604051634288230360e01b8152600490fd5b50607d544211612b33565b50346102ba57806003193601126102ba5760ff607b5460a01c16806135a0575b6020906040519015158152f35b50607f544211613593565b50346102ba5760203660031901126102ba576004356001600160401b03811161099b576135dc9036906004016141e1565b906135e5615a54565b60765483906001600160a01b0316803b1561099b57816040518092632acabb1160e01b825260206004830152818381613622602482018b8b6142f8565b03925af1801561040457613672575b50507f1ec1ec5da499bc02a52ae44524fff931d2e18c66681bc49118287b566c20174c9161366c6040519283926020845260208401916142f8565b0390a180f35b61367b9061410a565b610e7f578238613631565b50346102ba5760208060031936011261099b576136a16141b5565b6136a9615a54565b6040516301ffc9a760e01b8152633983653f60e21b60048201526001600160a01b039190911691908181602481865afa9081156133bb57849161372b575b5015611a0057607680546001600160a01b031916831790556040519182527f34f2d9c40aeb8886df9cdf9e12d06e2eba1c570a1b296552fe70f037e72bf12c91a180f35b90508181813d8311613759575b6137428183614154565b81010312610997576137539061423e565b386136e7565b503d613738565b50346102ba5760203660031901126102ba576103ed61377d6141b5565b61378561594a565b615576565b50346102ba57806003193601126102ba576020606e5460801c604051908152f35b50346102ba57602090816003193601126102ba576137c76141b5565b6001600160a01b0380821683526075845260408320600101549192909160ff1615612659578160675416906040519363084b557b60e21b85528585600481865afa948515610404578295613aef575b50670de0b6b3a764000094850193848611613adb578561384a610582606c5483613843610582838c615bf5565b0498615bf5565b04936040516301ddf49360e61b81528881600481855afa90811561042c578591613aae575b5087038781116115cc57608454606b54604051631dae49b960e21b81526001600160a01b0387811660048301529186169182166024820152909490918b9183916044918391165afa90811561075f578691613a81575b508803908882116126455761058289926138de92615bf5565b60405163a8905dab60e01b8082526001600160a01b038681166004840152871660248301529592909104908a81604481875afa908115610a89578791613a54575b50890390898211613a4057918961393f6105828d96946139719896615bf5565b6040519788526001600160a01b0392831660048901529390911660248701529091049392839190829081906044820190565b03915afa908115611010578391613a13575b508503918583116139ff57506139a16105826139a894938793615bf5565b04906142a5565b90828102928184048114821517156139e9578304036139d7576139d2612220928260011c90615be0565b614278565b604051631550e8b760e01b8152600490fd5b634e487b7160e01b600052601160045260246000fd5b634e487b7160e01b81526011600452602490fd5b90508681813d8311613a39575b613a2a8183614154565b810103126107db575138613983565b503d613a20565b634e487b7160e01b87526011600452602487fd5b90508a81813d8311613a7a575b613a6b8183614154565b810103126107db57513861391f565b503d613a61565b90508981813d8311613aa7575b613a988183614154565b810103126107db5751386138c5565b503d613a8e565b90508881813d8311613ad4575b613ac58183614154565b810103126107db57513861386f565b503d613abb565b634e487b7160e01b83526011600452602483fd5b9094508581813d8311613b17575b613b078183614154565b810103126107db57519338613816565b503d613afd565b50346102ba57806003193601126102ba5760835460405163481d98fb60e11b815260206004820152919060809083906001600160a01b03168180613b6460248201614465565b03915afa9182156110fc578192613b8e575b5060038210156110b457602082600160405191148152f35b613ba791925060803d81116110f5576110e28183614154565b505090509038613b76565b50346102ba5760203660031901126102ba57613bcc615a54565b613bd46145b1565b15613cc857606b546083546040516361d027b360e01b81528392734FFa6c545a6249baF2D66ce21CeF3D2C2cCa69D0926001600160a01b039182169160209184916004918391165afa9182156133bb578492613c8d575b50823b1561042757604051636336129b60e11b81526001600160a01b0391821660048083019190915292909116602482015290356044820152908290829060649082905af4801561040457613c7d5750f35b613c869061410a565b6102ba5780f35b9091506020813d8211613cc0575b81613ca860209383614154565b8101031261042757613cb990614451565b9038613c2b565b3d9150613c9b565b60405162a5e71360e71b8152600490fd5b50346102ba57806003193601126102ba576020606f5460801c604051908152f35b50346102ba57806003193601126102ba57613d136159ec565b6103ed614eba565b50346102ba5760803660031901126102ba57613d356141b5565b6024356044356064356001600160401b03811161040f57613d5a9036906004016141e1565b939091613d656143fb565b6069546040516318160ddd60e01b81526020966001600160a01b0395929091908890829060049082908a165afa80156107e75787908a90613f06575b613dab9250614298565b607954111561281357613de391879186608354169060405180958194829363af9a2aa760e01b845287600485015260248401916142f8565b03915afa908115610a89578791613ed1575b508333911603610e2c57607b5460a01c60ff1615613eb55780613e37575b5090600080516020615c848339815191529160405193845216923392a36001805580f35b85836069541691613e488685614709565b92803b15610e7f57604051632fc3a4b160e21b81526001600160a01b0386166004820152602481019490945260448401919091528290606490829084905af1801561075f5715613e135794613ead600080516020615c8483398151915293929661410a565b949091613e13565b50908161073284600080516020615c8483398151915294614833565b90508581813d8311613eff575b613ee88183614154565b8101031261043757613ef990614451565b38613df5565b503d613ede565b50508781813d8311613f30575b613f1d8183614154565b810103126109125786613dab9151613da1565b503d613f13565b50346102ba57806003193601126102ba576040519080606554613f59816140d0565b80855291600191808316908115613fe45750600114613f9b575b613f9785613f8381870382614154565b604051918291602083526020830190614175565b0390f35b925060658352600080516020615c648339815191525b828410613fcc575050508101602001613f8382613f97613f73565b80546020858701810191909152909301928101613fb1565b869550613f9796935060209250613f8394915060ff191682840152151560051b8201019293613f73565b50346102ba5760203660031901126102ba5760043561402b61594a565b8015611983576020817fd2c55fe32fb2122608950e8daf3216fe57018c4ae02a3b66132249300e8702ed92607955604051908152a180f35b90503461099b57602036600319011261099b5760043563ffffffff60e01b8116809103610e7f57602092506307dba22560e31b81149081156140bf575b81156140ae575b5015158152f35b6301ffc9a760e01b149050386140a7565b63cad9e0d360e01b811491506140a0565b90600182811c92168015614100575b60208310146140ea57565b634e487b7160e01b600052602260045260246000fd5b91607f16916140df565b6001600160401b0381116132a857604052565b61012081019081106001600160401b038211176132a857604052565b604081019081106001600160401b038211176132a857604052565b90601f801991011681019081106001600160401b038211176132a857604052565b919082519283825260005b8481106141a1575050826000602080949584010152601f8019910116010190565b602081830181015184830182015201614180565b600435906001600160a01b03821682036107db57565b604435906001600160a01b03821682036107db57565b9181601f840112156107db578235916001600160401b0383116107db57602083818601950101116107db57565b9181601f840112156107db578235916001600160401b0383116107db576020808501948460051b0101116107db57565b519081151582036107db57565b356001600160a01b03811681036107db5790565b908160209103126107db575160ff811681036107db5790565b8115614282570490565b634e487b7160e01b600052601260045260246000fd5b919082018092116139e957565b919082039182116139e957565b356001600160801b03811681036107db5790565b903590601e19813603018212156107db57018035906001600160401b0382116107db576020019181360383136107db57565b908060209392818452848401376000828201840152601f01601f1916010190565b903590601e19813603018212156107db57018035906001600160401b0382116107db57602001918160051b360383136107db57565b1561435557565b60405162461bcd60e51b815260206004820152602b60248201527f496e697469616c697a61626c653a20636f6e7472616374206973206e6f74206960448201526a6e697469616c697a696e6760a81b6064820152608490fd5b607a548110156143e557607a6000527ff0440771a29e57e18c66727944770b82cc77924aef333c927ce6bdd2cdb3ae030190600090565b634e487b7160e01b600052603260045260246000fd5b60026001541461440c576002600155565b60405162461bcd60e51b815260206004820152601f60248201527f5265656e7472616e637947756172643a207265656e7472616e742063616c6c006044820152606490fd5b51906001600160a01b03821682036107db57565b60655460009291614475826140d0565b808252916001908181169081156144da575060011461449357505050565b919293506065600052600080516020615c64833981519152916000925b8484106144c257505060209250010190565b805460208585018101919091529093019281016144b0565b915050602093945060ff929192191683830152151560051b010190565b6001600160a01b03909116815260208101919091526001600160801b03909116604082015260600190565b6001600160401b0381116132a85760051b60200190565b9291926001600160401b0382116132a85760405191614562601f8201601f191660200184614154565b8294818452818301116107db578281602093846000960137010152565b91908260809103126107db5761459482614451565b91602081015160038110156107db57916060604083015192015190565b60835460405163481d98fb60e11b8152602060048201529060809082906001600160a01b031681806145e560248201614465565b03915afa908115610e7357600090819261462e575b506003811015614618576002149081614611575090565b9050421190565b634e487b7160e01b600052602160045260246000fd5b9050614648915060803d81116110f5576110e28183614154565b925050386145fa565b676765c793fa10079d601b1b6146876122fc614675606d5460801c60705490615821565b6001600160801b03606f541690615bf5565b0490565b606b546040516370a0823160e01b815230600482015290602090829060249082906001600160a01b03165afa8015610e73576000906146d6575b6146d3915060775490614298565b90565b6020823d8211614701575b816146ee60209383614154565b810103126102ba57506146d390516146c5565b3d91506146e1565b60835460405163af9a2aa760e01b8152602060048201819052926001600160a01b0392909190849082908516818061474360248201614465565b03915afa908115610e73576000916147fe575b5082309116036147ec5761479f93839261476e614c64565b606954169060006001600160801b03606f54169360405197889586948593630ab714fb60e11b8552600485016144f7565b03925af1908115610e73576000916147c0575b509050906147be615378565b565b82813d83116147e5575b6147d48183614154565b810103126102ba57505180386147b2565b503d6147ca565b604051636f2f995760e01b8152600490fd5b908482813d831161482c575b6148148183614154565b810103126102ba575061482690614451565b38614756565b503d61480a565b607d54916000924211614c52576148518161484c61468b565b6142a5565b906148968360018060a01b03928360695416946001600160801b03606f54169560409687518092630ab714fb60e11b8252818c8160209a8b968a60049c8d85016144f7565b03925af18015614bff57908591614c29575b5050607c54811015614c19576148c090607c546142a5565b81811115614c0957509260ff607854166149fb575b80607b54169280865180809463be5daee560e01b825289878301526148fc60448301614465565b9a16998a60248301520381875afa9081156149f15790859189916149be575b506149269250614298565b608054106149b05760825494608154833b15610d81578794939260c09286928851998a978896879563e976e18b60e01b875286015261496760c48601614465565b9360248601526044850152606484015260848301524260a483015203925af19081156149a75750614996575050565b6149a0829161410a565b6102ba5750565b513d84823e3d90fd5b835163c7e138ed60e01b8152fd5b8092508391503d83116149ea575b6149d68183614154565b810103126107db578361492691513861491b565b503d6149cc565b86513d8a823e3d90fd5b606b5485516370a0823160e01b815230848201529082168482602481845afa918215614bff579084918a93614bcc575b50614a3883607754614298565b60775585846083541689519384809263a03e4bc360e01b82525afa918215614b52578a92614b95575b50875163095ea7b360e01b81526001600160a01b038316868201908152602081018590529091879183919082908e90829060400103925af18015614b525790849291614b5c575b50169082606b5416823b15610da95787519063617ba03760e01b825285820152816024820152306044820152896064820152898160848183875af18015614b5257614b1d575b50847f3b1270fa6f77c9af94834571cf5274944e8712de6cebea9ec3d8b3452c053308918851908152a26148d5565b7f3b1270fa6f77c9af94834571cf5274944e8712de6cebea9ec3d8b3452c0533089199614b4a879261410a565b999150614aee565b88513d8c823e3d90fd5b9091508581813d8311614b8e575b614b748183614154565b81010312610da95790614b87849261423e565b5038614aa8565b503d614b6a565b9091508581813d8311614bc5575b614bad8183614154565b81010312610da957614bbe90614451565b9038614a61565b503d614ba3565b86809294508193503d8311614bf8575b614be68183614154565b81010312610912578390519138614a2b565b503d614bdc565b87513d8b823e3d90fd5b905092614c14614e44565b6148d5565b50505050505050506147be614e44565b813d8311614c4b575b614c3c8183614154565b81010312610d815783386148a8565b503d614c32565b604051639a9a6f1760e01b8152600490fd5b606d5490607054614c78818460801c615821565b92606f54676765c793fa10079d601b1b9283614ca26122fc6001600160801b039889861690615bf5565b0490868211614d77578680614cb993169416615853565b92614cd86122fc846001600160801b03198095161760801c8096615bf5565b04948511614d655760049460801b16179081606f5542607055602060018060a01b03606a54166040519586809263b1bf962d60e01b82525afa918215610e7357600092614d2f575b6147be93945060801c91614d89565b91936020813d8211614d5d575b81614d4960209383614154565b8101031261040f5751929350839291614d20565b3d9150614d3c565b60405163306e92a960e11b8152600490fd5b604051632db5409f60e21b8152600490fd5b9190916072548015614e3e57610582614de991614de4670de0b6b3a7640000946122fc6139a16122fc60018060a01b039a8b606954169b606854169a614ddd676765c793fa10079d601b1b95869288615bf5565b0494615bf5565b615bf5565b04916001600160801b03606f541690803b156107db57614e249360008094604051968795869485936327883e6160e21b8552600485016144f7565b03925af18015610e7357614e355750565b6147be9061410a565b50505050565b607b805460ff60a01b1916600160a01b179055607e54614e649042614298565b607f5560ff60785416614e99575b7f5023432d2ef8583c6eb5ee4501bf4740bf68b6fe4823da8f19ddedd1135f2a64600080a1565b614ea1614eba565b614e72565b51906001600160801b03821682036107db57565b6083546040805163a03e4bc360e01b815290916000916004916020916001600160a01b0391839082908690829086165afa9081156150f4579082918691615340575b50169281606b54168651906335ea6a7560e01b825280838301526101e080836024818a5afa92831561513557869186918a956151ab575b50506101006024940151168951938480926370a0823160e01b825230888301525afa91821561516857879261517c575b5060ff19607854166078558115615172578751631a4ca37b60e21b815283810191909152600019602482015230604482015284816064818a8a5af180156151685790859161513f575b507f6407790cdabc5d219eaf901091d6beccc475533065c2fbd374c8a32b1c66795886918951848152a260775490818111614fef575b5050505050509050607755565b90614ff9916142a5565b91734FFa6c545a6249baF2D66ce21CeF3D2C2cCa69D090828582606b541692608354168a51958680926361d027b360e01b82525afa9384156151355788946150fe575b50823b15610d81578851636336129b60e11b81526001600160a01b0392831691810191825293909116602082015260408101849052869183918290819060600103915af480156150f4576150c1575b507f590e5a1563e349794fdcc066c4d5047f5e478f9e41707fc1bbad830146b7a17792939451908152a280388080808080614fe2565b936150ed7f590e5a1563e349794fdcc066c4d5047f5e478f9e41707fc1bbad830146b7a177949561410a565b939261508b565b86513d87823e3d90fd5b9093508581813d831161512e575b6151168183614154565b81010312610d815761512790614451565b923861503c565b503d61510c565b89513d8a823e3d90fd5b813d8311615161575b6151528183614154565b8101031261076a578338614fac565b503d615148565b88513d89823e3d90fd5b5050505050505050565b9091508481813d83116151a4575b6151948183614154565b8101031261043757519038614f63565b503d61518a565b9250809394508291503d8411615339575b6151c68183614154565b810103828112610912578951928301906001600160401b039084831082841117615326578813610da957610200840190811182821017615313578a52815181528252615213868201614ea6565b86830152615222898201614ea6565b8983015261523260608201614ea6565b606083015261524360808201614ea6565b608083015261525460a08201614ea6565b60a083015260c081015164ffffffffff811681036109125760c083015260e081015161ffff8116810361091257610100838893889360e06024989701528261529d818301614451565b908301526101206152af818301614451565b908301526101406152c1818301614451565b908301526101606152d3818301614451565b908301526101806152e5818301614ea6565b908301526101a06152f7818301614ea6565b908301526153096101c0809201614ea6565b9082015294614f33565b634e487b7160e01b8a526041865260248afd5b634e487b7160e01b8b526041875260248bfd5b503d6151bc565b809250848092503d8311615371575b6153598183614154565b8101031261040f5761536b8291614451565b38614efc565b503d61534f565b606a54604080516318160ddd60e01b81526020926001600160a01b039084908390600490829085165afa91821561556b5760009261553c575b506153c3826153be61468b565b614298565b908161542e575050507f9cf6ed4d2e86c73a9ce91a9baa90bb3a472323bb366819d0934e0d95d3e7500e9160a0916000606d555b606d5490606f54908051936001600160801b0393848116865260801c908501528160801c90840152166060820152426080820152a1565b839161543e916076541693615c2c565b604460725491600084519586948593630884b37d60e11b8552600485015260248401525af19081156155315760009081926154bd575b50917f9cf6ed4d2e86c73a9ce91a9baa90bb3a472323bb366819d0934e0d95d3e7500e93916001600160801b0360a09416906001600160801b03199060801b1617606d556153f7565b91508282813d831161552a575b6154d48183614154565b810103126102ba57509160a091836001600160801b0361551f846155187f9cf6ed4d2e86c73a9ce91a9baa90bb3a472323bb366819d0934e0d95d3e7500e98614ea6565b9301614ea6565b939550509092615474565b503d6154ca565b82513d6000823e3d90fd5b90918482813d8311615564575b6155538183614154565b810103126102ba57505190386153b1565b503d615549565b83513d6000823e3d90fd5b6001600160a01b03919082811680156157fc576000918183526020926075845260409160ff60018484200154166157eb57825163313ce56760e01b81526004979086818a81895afa9081156157e15760129160ff9186916157c4575b5016116157b457608454606b548551634858138f60e01b81526001600160a01b038581168c830190815292851690811660208401529390921691908890829081906040010381855afa9081156150f4578591615787575b5015615777578451632bd3159f60e21b81526001600160a01b03808516828c019081529316602084015291859183918290819060400103915afa801561576d5761572d575b50607a546801000000000000000081101561571a579061259f8260016156979401607a556143ae565b607a546000198101908111615707577fb38e19e04618f9502008311560587c597fe11e8867226353a0c01aab7e4df2939596506001908351906156d982614139565b81528386820193838552868152607588522090518155019051151560ff8019835416911617905551908152a1565b634e487b7160e01b825260118752602482fd5b634e487b7160e01b835260418852602483fd5b8381813d8311615766575b6157428183614154565b81010312610e7f57858161575861575f93614451565b5001614451565b503861566e565b503d615738565b84513d85823e3d90fd5b8451633c15d6ff60e21b81528990fd5b90508781813d83116157ad575b61579e8183614154565b8101031261040f575138615629565b503d615794565b835163b7c73c5d60e01b81528890fd5b6157db9150893d8b116119f9576119eb8183614154565b386155d2565b85513d86823e3d90fd5b8251632d6c6ae560e01b8152600490fd5b6040516346ec28e560e11b8152600490fd5b818102929181159184041417156139e957565b61583a906158346301e1338093426142a5565b9061580e565b04676765c793fa10079d601b1b81018091116139e95790565b9061585e90426142a5565b908115615939576000198201918083116139e9576000600282111561592a575060011981018181116139e9576159136301e1338091925b600661590c876158fd676765c793fa10079d601b1b976158fd6159028b6158fd6906a4334962924ee000008d6158f46122fc66038882915c4000836158dd6122fc8980615bf5565b040495836158ee6122fc8380615bf5565b04615bf5565b0404968a61580e565b61580e565b60011c9b8761580e565b049461580e565b0481018091116139e9576146d3926153be91614298565b6159136301e133809192615895565b5050676765c793fa10079d601b1b90565b606654604051632474521560e21b81527fc0fc8e4dc5cff6febdf550b80d566f654e2baf1a02ea1060208c2f8ab2dd1b63600482015233602482015290602090829060449082906001600160a01b03165afa908115610e73576000916159b3575b5015610e2c57565b906020823d82116159e4575b816159cc60209383614154565b810103126102ba57506159de9061423e565b386159ab565b3d91506159bf565b606654604051632474521560e21b81527f5a7d4408f4759dddd7fdfd0d21abd99341dc2f52cda14804988a9b2df20766d8600482015233602482015290602090829060449082906001600160a01b03165afa908115610e73576000916159b3575015610e2c57565b606654604051632474521560e21b81526000600482015233602482015290602090829060449082906001600160a01b03165afa908115610e73576000916159b3575015610e2c57565b606654604051632474521560e21b81527f5580ea9b7f9becaa48a78f506a2019ea24794b7a717ee6a4b9f62e36b94c25a6600482015233602482015290602090829060449082906001600160a01b03165afa908115610e73576000916159b3575015610e2c57565b607454604051630723eb0360e51b815233600482015290602090829060249082906001600160a01b03165afa908115610e7357600091615b59575b50615b4757565b6040516333df015b60e01b8152600490fd5b906020823d8211615b8a575b81615b7260209383614154565b810103126102ba5750615b849061423e565b38615b40565b3d9150615b65565b906706f05b59d3b200008201918281116139e9578210615bae57565b604051630a77254f60e01b8152600490fd5b906b019d971e4fe8401e740000008201918281116139e9578210615bae57565b9190615bec9083614298565b918210615bae57565b600092918015918215615c0c575b5050156139d757565b91509250615c24615c1d848361580e565b9384614278565b143880615c03565b90676765c793fa10079d601b1b91828102928184048114821517156139e9578304036139d7576139d26146d3928260011c90615be056fe8ff97419363ffd7000167f130ef7168fbea05faf9251824ca5043f113cc6a7c75548c837ab068cf56a2c2479df0882a4922fd203edb7517321831d95078c5f62a26469706673582212205938e49a0e919051e6fc2b2cbc83cbd0b27d8576a8efa50530ccb5622f17433164736f6c63430008120033",
  "deployedBytecode": "0x608080604052600436101561001357600080fd5b600090813560e01c90816301ffc9a714614063575080630224f16a1461400e57806306fdde0314613f375780631003d99d14613d1b57806313a1fcb914613cfa578063165e780514613cd957806318f88b6d14613bb257806322f3e2d414613b1e578063235f17f5146137ab57806327c37b251461378a578063298410e5146137605780632a5ad159146136865780632acabb11146135ab5780632e51d3ed14613573578063304fe59814612ab057806330db585614612a8d5780633e07460814612a645780633edd112814612874578063478827851461285657806347e7ef24146126a15780634872d3271461266b5780634a5e42b1146125235780634ad09aa5146124695780634f43f2391461235157806358a06f071461232857806358d7bf801461230a57806368d0612f146122b357806371a6cab714612295578063743753591461227a578063791b98bc146122515780637b10399914612228578063883c6b24146122055780638eed7780146121dc578063905e3837146121bb57806398cc6b1e146120b85780639b622c0214612093578063a00622dc14612075578063a223f82114612057578063a4c1cccb1461200f578063ac1e502514611fb1578063b28f7a1d14611f93578063bbf44f3314611f6c578063bd449dde14611f45578063bda896c414611191578063c07dc61414611109578063c717823014611044578063cd3293de1461101b578063d0b6543d14610ef4578063e526e4ab14610e83578063eae12b7f14610bbf578063ef379d1714610b96578063f066eea014610ad0578063f3fef3a31461046b578063f5bfeb441461044d578063f8190a46146102e6578063f8d89898146102bd5763febb0f7e1461029457600080fd5b346102ba57806003193601126102ba5760206001600160801b03606d5416604051908152f35b80fd5b50346102ba57806003193601126102ba57606a546040516001600160a01b039091168152602090f35b50346102ba5760603660031901126102ba576103006141b5565b60243561030b6141cb565b91610314615a9d565b60ff607b5460a01c161561043b57606b5484936001600160a01b039173__$183737d697d7aa9b5df9988cbe11bc4947$__91908316823b1561043757604051636336129b60e11b81526001600160a01b0391821660048201529116602482015260448101859052908590829060649082905af490811561042c578591610413575b505061039f614c64565b606a5416606f5460801c90803b1561040f576103d59385809460405196879586948593630ab714fb60e11b8552600485016144f7565b03925af18015610404576103f0575b506103ed615378565b80f35b6103f99061410a565b6102ba5780386103e4565b6040513d84823e3d90fd5b8480fd5b61041c9061410a565b610427578338610395565b505050fd5b6040513d87823e3d90fd5b8680fd5b6040516379bb149f60e11b8152600490fd5b50346102ba57806003193601126102ba576020607754604051908152f35b50346102ba5760403660031901126102ba576104856141b5565b60248035916104926143fb565b61049a615b05565b83607b5460ff8160a01c161560001461099f576001600160a01b0316803b1561099b578160405180926308f57fc760e11b8252606060048301528183816104e360648201614465565b338b8301528b604483015203925af1801561040457610983575b50505b60ff607b5460a01c16610976575b60018060a01b038060695416926001600160801b03606f5416946040518095637a94c56560e11b825281898161054c60209b8c9733600485016144f7565b03925af193841561075f578694610947575b50607354670de0b6b3a7640000908103818111610934576105828661058792615bf5565b615b92565b0461059281866142a5565b60ff607b5460a01c161580610928575b8061091d575b6107f2575b83606b5416928760405180926370a0823160e01b825230600483015281875afa9081156107e75789916107b5575b5086116107a357879273__$183737d697d7aa9b5df9988cbe11bc4947$__916004898760835416604051928380926361d027b360e01b82525afa90811561075f57869161076e575b50833b1561076a57604051636336129b60e11b8082526001600160a01b03948516600483015291909316602484015260448301829052918581606481875af490811561075f57869161074b575b50506040519081527f590e5a1563e349794fdcc066c4d5047f5e478f9e41707fc1bbad830146b7a177893392a284606b541691803b1561040f576040519182526001600160a01b039283166004830152918616602482015260448101929092528290829060649082905af4801561040457610737575b50507f9b1bfa7fa9ee420a16e124f794c35ac9f90472acc99140eb2f6447c714cad8eb9160ff607b5460a01c1661072a575b60405193845216923392a36001805580f35b610732615378565b610718565b6107409061410a565b61040f5784386106e6565b6107549061410a565b61040f578438610670565b6040513d88823e3d90fd5b8580fd5b90508981813d831161079c575b6107858183614154565b8101031261076a5761079690614451565b38610623565b503d61077b565b604051630d5f777560e21b8152600490fd5b90508781813d83116107e0575b6107cc8183614154565b810103126107db5751386105db565b600080fd5b503d6107c2565b6040513d8b823e3d90fd5b607d5442111561080957610804614eba565b6105ad565b60048785608354166040519283809263a03e4bc360e01b82525afa80156107e75785918a916108e1575b501684606b541660405190631a4ca37b60e21b82526004820152878582015230604482015288816064818d865af19081156108d65789916108ad575b507f6407790cdabc5d219eaf901091d6beccc475533065c2fbd374c8a32b1c66795890604051898152a26108a5866077546142a5565b6077556105ad565b813d83116108cf575b6108c08183614154565b810103126107db57873861086f565b503d6108b6565b6040513d8c823e3d90fd5b809250898092503d8311610916575b6108fa8183614154565b810103126109125761090c8591614451565b38610833565b8880fd5b503d6108f0565b5060775415156105a8565b5060ff607854166105a2565b634e487b7160e01b885260116004528288fd5b9093508481813d831161096f575b61095f8183614154565b810103126107db5751923861055e565b503d610955565b61097e614c64565b61050e565b61098c9061410a565b6109975783386104fd565b8380fd5b5080fd5b9050607f5442106109b1575b50610500565b6069546040516370a0823160e01b81523360048201526020916001600160a01b039190839082908890829086165afa918215610ac55783918993610a94575b506040519485809263be5daee560e01b82526040600483015281610a1660448201614465565b338c8301520392165afa918215610a89578792610a57575b50610a3992506142a5565b8311610a4557386109ab565b6040516342b0cbe760e11b8152600490fd5b90915082813d8311610a82575b610a6e8183614154565b810103126107db57610a3991519038610a2e565b503d610a64565b6040513d89823e3d90fd5b8281939294503d8311610abe575b610aac8183614154565b810103126107db5782905191386109f0565b503d610aa2565b6040513d8a823e3d90fd5b50346102ba57806003193601126102ba576040518091607a549081835260208093018092607a83527ff0440771a29e57e18c66727944770b82cc77924aef333c927ce6bdd2cdb3ae0390835b818110610b795750505084610b32910385614154565b60405193838594850191818652518092526040850193925b828110610b5957505050500390f35b83516001600160a01b031685528695509381019392810192600101610b4a565b82546001600160a01b031684529286019260019283019201610b1c565b50346102ba57806003193601126102ba576074546040516001600160a01b039091168152602090f35b50346102ba576003199060c0368301126102ba576001600160401b03600435818111610e7f57610bf390369060040161420e565b9160243590811161099757610c0c90369060040161420e565b90610c156141cb565b606654604051632474521560e21b81527f28eb28c26cbbd48a6bfad016505ccf4a189452995f59d16217af8920961ed25c6004820152336024820152608435966001600160a01b039660209490939192606435928690829060449082908d165afa908115610e7357600091610e3e575b5015610e2c5781610dad575b5050610c9b614c64565b85606a541692606f5491843b15610da95760405163eb1738e560e01b815260806004820152608481018290529760a489019491908b905b828210610d85575050505086830390990160248701528482529697959688966001600160fb1b038611610d815786809581948a9894899560051b80938684013760801c604484015260a4356064840152010301925af1801561040457610d6d575b5050610d3d615378565b80610d46575080f35b610d5f610d67916001600160801b03606f541690615c2c565b607154614298565b60715580f35b610d769061410a565b61099b578138610d33565b8780fd5b909192958635908282168092036107db579081528401958401929160010190610cd2565b8980fd5b73__$183737d697d7aa9b5df9988cbe11bc4947$__9088606b5416823b15610e2857604051636336129b60e11b81526001600160a01b0391821660048201529116602482015260448101929092528990829060649082905af480156107e75790899115610c9157610e1d9061410a565b610d81578738610c91565b8b80fd5b60405163036be76f60e61b8152600490fd5b908682813d8311610e6c575b610e548183614154565b810103126102ba5750610e669061423e565b38610c85565b503d610e4a565b6040513d6000823e3d90fd5b8280fd5b50346102ba5760203660031901126102ba57600435610ea0615a54565b670de0b6b3a7640000811015610ee2576020817fb2429786195476a340c6c3ff6be51a0d28d9ea08dea6c91a0720b1e200400e8c92607255604051908152a180f35b604051631757762160e01b8152600490fd5b50346102ba5760a03660031901126102ba57610f0e6141b5565b81610f176141cb565b6084359290606435610f27615a9d565b80610f8f575b5050610f37614c64565b60018060a01b03606a541690606f5460801c823b1561099757610f7792849283604051809681958294637a94c56560e11b845260243590600485016144f7565b03925af1801561040457610d6d575050610d3d615378565b606b546001600160a01b03169073__$183737d697d7aa9b5df9988cbe11bc4947$__803b1561076a57604051636336129b60e11b81526001600160a01b03938416600482015293909216602484015260448301528390829060649082905af490811561101057839115610f2d576110059061410a565b61099b578138610f2d565b6040513d85823e3d90fd5b50346102ba57806003193601126102ba576068546040516001600160a01b039091168152602090f35b50346102ba57806003193601126102ba5760835460405163481d98fb60e11b815260206004820152919060809083906001600160a01b0316818061108a60248201614465565b03915afa9182156110fc5781926110c8575b5060038210156110b457602082600260405191148152f35b634e487b7160e01b81526021600452602490fd5b6110ea91925060803d81116110f5575b6110e28183614154565b81019061457f565b50509050903861109c565b503d6110d8565b50604051903d90823e3d90fd5b50346102ba5760203660031901126102ba5760043561112661594a565b670de0b6b3a7640000811180611180575b1561116e576020817f6db5a699a2b18e7a2568814d453dff8a78eb41c9daf9d45bdeab3824f49c941592606c55604051908152a180f35b60405163c42aecdf60e01b8152600490fd5b50670e043da6172500008110611137565b50346102ba5760031960403682011261099b576001600160401b036004351161099b5761030090600435360301126102ba57602435906001600160a01b03821682036107db5780549160ff8360081c161592838094611f38575b8015611f21575b15611ec55760ff198116600117835583611eb4575b506040516301ffc9a760e01b8152637965db0b60e01b60048201526020816024816001600160a01b0386165afa908115611010578391611e7a575b5080611dee575b80611d61575b80611cd4575b80611c47575b80611bba575b80611b2d575b80611a9f575b80611a12575b15611a0057600460206001600160a01b0361129283356101240161424b565b166040519283809263313ce56760e01b82525afa9081156110105760129160ff9185916119d1575b5016116119bf5767016345785d8a00006101646004350135116119ad57670de0b6b3a76400008061014460043501351180611995575b1561116e5761018460043501351015610ee2576102e4600435013515611983576004356101c401356117cd57607b805460ff60a01b1916600160a01b1790557f5023432d2ef8583c6eb5ee4501bf4740bf68b6fe4823da8f19ddedd1135f2a648280a15b6004356102e48101356079556001600160a01b0390611376906102240161424b565b1661138c6102c4600435016004356004016142c6565b8291923b1561040f579184916113c19383604051809681958294632acabb1160e01b84526020600485015260248401916142f8565b03925af18015611010579083916117b9575b506113e490506004803501806142c6565b906001600160401b0382116117a55781906114006065546140d0565b601f8111611733575b508490601f83116001146116bf5785926116b4575b50508160011b916000199060031b1c191617606555915b6001600160a01b0361144b60043560240161424b565b16906bffffffffffffffffffffffff60a01b9182606954161760695560018060a01b0361147c60a46004350161424b565b1682608354161760835560018060a01b0361149b60646004350161424b565b1682606754161760675560018060a01b036114ba60846004350161424b565b1682608454161760845560018060a01b036114d960446004350161424b565b1682606a541617606a5560018060a01b036114f860c46004350161424b565b1682606854161760685560018060a01b0361151760e46004350161424b565b1682607454161760745560018060a01b036115376101246004350161424b565b1682606b541617606b556101446004350135606c5561016460043501356073556101846004350135607255829161010460043501925b61157c84600435600401614319565b90508110156115f45761159484600435600401614319565b8210156115e057600582901b01356001600160a01b038116810361076a576115bb90615576565b60001981146115cc5760010161156d565b634e487b7160e01b85526011600452602485fd5b634e487b7160e01b86526032600452602486fd5b8483838860018060a01b031681606654161760665560018060a01b0361161f6102246004350161424b565b169060765416176076557b033b2e3c9fd0803ce800000000000000033b2e3c9fd0803ce800000082606f541617606f5581549061167760ff8360081c166116658161434e565b61166e8161434e565b6001805561434e565b61167f575080f35b61ff00191681557f7f26b83ff96e1f2b6a682f133852f6798a09c465da95921460cefb3847402498602060405160018152a180f35b01359050388061141e565b60658652859350600080516020615c64833981519152915b601f198416851061171b576001945083601f19811610611701575b505050811b0160655591611435565b0135600019600384901b60f8161c191690553880806116f2565b818101358355602094850194600190930192016116d7565b90915060658552601f830160051c600080516020615c648339815191520160208410611790575b908392915b601f820160051c600080516020615c648339815191520181106117825750611409565b86815584935060010161175f565b50600080516020615c6483398151915261175a565b634e487b7160e01b84526041600452602484fd5b6117c29061410a565b61099b5781386113d3565b426101e4600435013511806118f5575b806118e5575b156118d457610204600435013561180f611804826101e46004350135614298565b8060825542906142a5565b6081556001600160a01b036118296004356101a40161424b565b166bffffffffffffffffffffffff60a01b607b541617607b556101c46004350135607c556101e46004350135607d55607e5561028460043501356080556001600160801b0361187d610244600435016142b2565b606e549116836fffffffffffffffffffffffffffffffff196118a4600435610264016142b2565b60801b1692161717606e556102a46004350135801515809103610e7f5760ff801960785416911617607855611354565b604051627706c160e81b8152600490fd5b50610284600435013515156117e3565b50602460206001600160a01b036119116004356101a40161424b565b6040516301ffc9a760e01b815263edebbfe960e01b600482015293849290918391165afa908115611010578391611949575b506117dd565b90506020813d60201161197b575b8161196460209383614154565b81010312610e7f576119759061423e565b38611943565b3d9150611957565b604051637ed7b9ab60e11b8152600490fd5b50670e043da6172500006101446004350135106112f0565b60405163766a53cb60e01b8152600490fd5b60405163b7c73c5d60e01b8152600490fd5b6119f3915060203d6020116119f9575b6119eb8183614154565b81019061425f565b386112ba565b503d6119e1565b60405163044aa57560e41b8152600490fd5b50602460206001600160a01b03611a2d60043560e40161424b565b6040516301ffc9a760e01b8152633df6cef760e01b600482015293849290918391165afa908115611010578391611a65575b50611273565b90506020813d602011611a97575b81611a8060209383614154565b81010312610e7f57611a919061423e565b38611a5f565b3d9150611a73565b50602460206001600160a01b03611abb6004356102240161424b565b6040516301ffc9a760e01b8152633983653f60e21b600482015293849290918391165afa908115611010578391611af3575b5061126d565b90506020813d602011611b25575b81611b0e60209383614154565b81010312610e7f57611b1f9061423e565b38611aed565b3d9150611b01565b50602460206001600160a01b03611b4860043560c40161424b565b6040516301ffc9a760e01b815263d4cb1bcb60e01b600482015293849290918391165afa908115611010578391611b80575b50611267565b90506020813d602011611bb2575b81611b9b60209383614154565b81010312610e7f57611bac9061423e565b38611b7a565b3d9150611b8e565b50602460206001600160a01b03611bd560043560840161424b565b6040516301ffc9a760e01b81526341636c7560e11b600482015293849290918391165afa908115611010578391611c0d575b50611261565b90506020813d602011611c3f575b81611c2860209383614154565b81010312610e7f57611c399061423e565b38611c07565b3d9150611c1b565b50602460206001600160a01b03611c6260043560640161424b565b6040516301ffc9a760e01b81526306cc15a560e11b600482015293849290918391165afa908115611010578391611c9a575b5061125b565b90506020813d602011611ccc575b81611cb560209383614154565b81010312610e7f57611cc69061423e565b38611c94565b3d9150611ca8565b50602460206001600160a01b03611cef60043560440161424b565b6040516301ffc9a760e01b8152633d5b079f60e11b600482015293849290918391165afa908115611010578391611d27575b50611255565b90506020813d602011611d59575b81611d4260209383614154565b81010312610e7f57611d539061423e565b38611d21565b3d9150611d35565b50602460206001600160a01b03611d7c60043560a40161424b565b6040516301ffc9a760e01b815263fa6ab0ef60e01b600482015293849290918391165afa908115611010578391611db4575b5061124f565b90506020813d602011611de6575b81611dcf60209383614154565b81010312610e7f57611de09061423e565b38611dae565b3d9150611dc2565b50602460206001600160a01b03611e08600435840161424b565b6040516301ffc9a760e01b81526337a557d360e01b600482015293849290918391165afa908115611010578391611e40575b50611249565b90506020813d602011611e72575b81611e5b60209383614154565b81010312610e7f57611e6c9061423e565b38611e3a565b3d9150611e4e565b90506020813d602011611eac575b81611e9560209383614154565b81010312610e7f57611ea69061423e565b38611242565b3d9150611e88565b61ffff191661010117825538611207565b60405162461bcd60e51b815260206004820152602e60248201527f496e697469616c697a61626c653a20636f6e747261637420697320616c72656160448201526d191e481a5b9a5d1a585b1a5e995960921b6064820152608490fd5b50303b1580156111f25750600160ff8216146111f2565b50600160ff8216106111eb565b50346102ba57806003193601126102ba5760206001600160801b03606e5416604051908152f35b50346102ba57806003193601126102ba5760206001600160801b03606f5416604051908152f35b50346102ba57806003193601126102ba576020607154604051908152f35b50346102ba5760203660031901126102ba57600435611fce615a54565b67016345785d8a000081116119ad576020817ffc1353e6b18ce07b5a979c8edf77a87455939a17a9eebbb084dcde5bfb3b19ac92607355604051908152a180f35b50346102ba5760203660031901126102ba5760409081906001600160a01b036120366141b5565b16815260756020522060ff6001825492015416825191825215156020820152f35b50346102ba57806003193601126102ba576020607354604051908152f35b50346102ba57806003193601126102ba576020606c54604051908152f35b50346102ba57806003193601126102ba5760206120ae6145b1565b6040519015158152f35b50346102ba57806003193601126102ba57604051610120916120d98261411d565b8082528060208301528060408301528060608301528060808301528060a08301528060c08301528060e0830152610100809201526040519061211a8261411d565b607b549160018060a01b0383169283825260ff602083019160a01c1615158152607c5460408301908152607d5460608401908152607e5460808501908152607f549160a086019283526080549360c087019485526081549560e08801968752886082549801978852604051998a5251151560208a01525160408901525160608801525160808701525160a08601525160c08501525160e08401525190820152f35b50346102ba57806003193601126102ba576020606d5460801c604051908152f35b50346102ba57806003193601126102ba57606b546040516001600160a01b039091168152602090f35b50346102ba57806003193601126102ba576020612220614651565b604051908152f35b50346102ba57806003193601126102ba576066546040516001600160a01b039091168152602090f35b50346102ba57806003193601126102ba576067546040516001600160a01b039091168152602090f35b50346102ba57806003193601126102ba57602061222061468b565b50346102ba57806003193601126102ba576020607954604051908152f35b50346102ba57806003193601126102ba576020676765c793fa10079d601b1b6123016122fc6122f06001600160801b03606d541660705490615853565b606f5460801c90615bf5565b615bc0565b04604051908152f35b50346102ba57806003193601126102ba576020607254604051908152f35b50346102ba57806003193601126102ba576069546040516001600160a01b039091168152602090f35b50346102ba5760203660031901126102ba5760043561236e6143fb565b6123888161237a615b05565b612382614651565b90615c2c565b8015612457576123ea9160209160715480821161242c575b036071556069546001600160a01b03166123b8614651565b604051637a94c56560e11b81523360048201526024810193909352604483015290928391908290869082906064820190565b03925af1801561040457612401575b506001805580f35b602090813d8111612425575b6124178183614154565b810103126107db57386123f9565b503d61240d565b91505080676765c793fa10079d601b1b6124506122fc61244a614651565b85615bf5565b04916123a0565b604051637c123f8b60e01b8152600490fd5b50346102ba57806003193601126102ba5760835460405163481d98fb60e11b815260206004820152919060809083906001600160a01b031681806124af60248201614465565b03915afa90811561251757809281926124f0575b5060038310156110b4575060026020921490816124e6575b506040519015158152f35b90504211386124db565b90925061250b915060803d81116110f5576110e28183614154565b509291509190386124c3565b604051903d90823e3d90fd5b50346102ba5760203660031901126102ba5761253d6141b5565b6125456159ec565b6001600160a01b03908116808352607560205260408320600181015491929160ff161561265957607a5460001992908381019081116126455761258882916143ae565b90549060031b1c16926125be8461259f85546143ae565b90919082549060031b9160018060a01b03809116831b921b1916179055565b607a54801561263157917fa48303bd6cd678b9b13454996417095d2d282db59c4db9ba88df8c82d04869789593916020959301906125fb826143ae565b909182549160031b1b19169055607a5554908552607583526040852055808452836001604082208281550155604051908152a180f35b634e487b7160e01b87526031600452602487fd5b634e487b7160e01b86526011600452602486fd5b60405163b7addff360e01b8152600490fd5b50346102ba57806003193601126102ba576020676765c793fa10079d601b1b6123016122fc60715461269b614651565b90615bf5565b50346102ba5760403660031901126102ba576126bb6141b5565b6024356126c66143fb565b6126ce615b05565b6069546040516318160ddd60e01b8152602093916001600160a01b03919085908290600490829086165afa801561075f5784908790612825575b6127129250614298565b607954111561281357606b5460405163c37f7f7f60e01b81529082166001600160a01b0316600482015233602482015260448101849052848180606481015b038173__$183737d697d7aa9b5df9988cbe11bc4947$__5af490811561075f5785916127ea575b5050607b5460a01c60ff16156127b557816127a284600080516020615c8483398151915294614709565b5060405193845216923392a36001805580f35b33818316036127d8578161073284600080516020615c8483398151915294614833565b60405163217fe6c760e11b8152600490fd5b813d831161280c575b6127fd8183614154565b810103126107db578338612778565b503d6127f3565b604051630a5a765f60e31b8152600490fd5b50508481813d831161284f575b61283c8183614154565b810103126107db57836127129151612708565b503d612832565b50346102ba57806003193601126102ba576020607054604051908152f35b50346102ba5760603660031901126102ba5761288e6141b5565b602435604435918215158303610997576128a66143fb565b6128ae615b05565b6069546040516318160ddd60e01b81526020946001600160a01b039290919086908290600490829087165afa8015610a895785908890612a33575b6128f39250614298565b6079541115612813571561296357606b5460405163c37f7f7f60e01b81529082166001600160a01b031660048201523360248201526044810184905284818060648101612751565b607b5460a01c60ff16156127b557816127a284600080516020615c8483398151915294614709565b84600485836067541660405192838092634cb4430f60e11b82525afa801561040457839183916129f9575b501682606b5416813b15610e7f57829160a48392604051948593849263c268dd3160e01b845233600485015230602485015260448401528a60648401528160848401525af18015610404576129e5575b505061293b565b6129ee9061410a565b61040f5784386129de565b809250878092503d8311612a2c575b612a128183614154565b8101031261099b5751828116810361099b5782903861298e565b503d612a08565b50508581813d8311612a5d575b612a4a8183614154565b810103126107db57846128f391516128e9565b503d612a40565b50346102ba57806003193601126102ba576076546040516001600160a01b039091168152602090f35b50346102ba57806003193601126102ba57602060ff607854166040519015158152f35b50346102ba5760803660031901126102ba576004356001600160401b03811161099b57612ae19036906004016141e1565b6024356001600160a01b0381168103610997576044356001600160401b03811161040f57612b1390369060040161420e565b612b1b6143fb565b612b23615b05565b60ff607b5460a01c161580613568575b1561355657859460ff607854168061354b575b61353e575b60835460405163af9a2aa760e01b815260206004820181905290969187906001600160a01b03168180612b826024820187896142f8565b03915afa958615610a89578796613502575b50607b54604051634c66358f60e11b81526001600160a01b03918216929161012090829060049082908c165afa80156107e7578990613452575b602091500151151591607d5493813b15610da95789612c2293819560405197889687958694638f8ebe1560e01b865260a06004870152612c1060a48701614465565b868103600319016024880152916142f8565b913360448501526064840152608483015203925af190811561075f57869161343e575b5050606954606f54604051637a94c56560e11b815233600482015260001960248201526001600160801b0390911660448201529660209188916064918391906001600160a01b03165af195861561042c57859661340a575b5060405186815286906001600160a01b0386169033907f9b1bfa7fa9ee420a16e124f794c35ac9f90472acc99140eb2f6447c714cad8eb90602090a360405163011ddaef60e71b8152966020886004816001600160a01b038a165afa978815610a895787986133c6575b50606b546001600160a01b039081169089168114613331575050606654604051632474521560e21b81527fe965846df3dd5b1dfa65f58e31477079e90140e0908b6dd31b5aead5a57cf36560048201526001600160a01b038681166024830152909160209183916044918391165afa908115610a895787916132f7575b5015610e2c57606b5460405163095ea7b360e01b81526001600160a01b038681166004830152602482018490529091602091839160449183918c91165af18015610a89576132be575b50606b5460405197906001600160a01b03166001600160401b036101608a01908111908a11176132a8576101608901604052885260018060a01b0316602088015260408701526064356060870152612e2481614522565b91612e326040519384614154565b8183526020830190368360051b8201116104375780915b8360051b820183106130f45750505050608085019081526001600160a01b0383811660a08701524260c0870152600160e0870181905261010087015261012086018590526101408601859052604080516373cb40a560e11b81526060600482018190528851841660648301526020808a015190941660848301529188015160a48201529087015160c4820152915161016060e484015280516101c484018190529293926101e4600582901b86018101939290920191879086015b82821061304957505050506020918386818094610140839b60018060a01b0360a08201511661010485015260c081015161012485015260e0810151151561014485015261010081015115156101648501526101208101511515610184850152015115156101a4830152826024830152826044830152039260018060a01b03165af1908115611010578391613014575b50905b607e54916001600160a01b0382163b15610427578391604051938492631003d99d60e01b84523360048501526024840152604483015260806064830152818381612fe160848201614465565b03926001600160a01b03165af180156104045761300057506001805580f35b6130099061410a565b6102ba5780386123f9565b9250506020823d602011613041575b8161303060209383614154565b810103126107db5782915138612f92565b3d9150613023565b909192936101e31987820301825284519060206040820192805183520151916040602083015282518091526060820190602060608260051b8501019401928c5b8281106130a9575050505050602080600192960192019201909291612f03565b90919293946020806130e7600193605f19878203018952895190836130d78351604084526040840190614175565b9201519084818403910152614175565b9701950193929101613089565b6001600160401b03833511610d8157604083358301360312610d815760405161311c81614139565b8335830180358252602001356001600160401b038111610da95736601f828735870101011215610da9578085358501013561315681614522565b916131646040519384614154565b81835260208301903660208460051b838b358b01010101116132a457602081893589010101915b60208460051b838b358b0101010183106131b8575050505091816020938480940152815201920191612e49565b6001600160401b038335116132a05760408935890183018435013603601f1901126132a0576040516131e981614139565b60208435848c358c01010101356001600160401b03811161329c57368b358b0185018635018201603f01121561329c576132379036908c358c01860187350101602081013590604001614539565b815260408435848c358c01010101356001600160401b03811161329c57368b358b0185018635018201603f01121561329c576020928392909161328d9036908e358e018801893501018086013590604001614539565b8382015281520192019161318b565b8f80fd5b8d80fd5b8c80fd5b634e487b7160e01b600052604160045260246000fd5b6020813d6020116132ef575b816132d760209383614154565b81010312610437576132e89061423e565b5038612dcd565b3d91506132ca565b90506020813d602011613329575b8161331260209383614154565b81010312610437576133239061423e565b38612d84565b3d9150613305565b9250949350915084955073__$183737d697d7aa9b5df9988cbe11bc4947$__91823b1561076a57604051636336129b60e11b81526001600160a01b03928316600482015291841660248301526044820152908490829060649082905af49081156133bb5784916133a3575b5050612f95565b6133ac9061410a565b6133b757823861339c565b5050fd5b6040513d86823e3d90fd5b9097506020813d602011613402575b816133e260209383614154565b8101031261043757516001600160a01b0381168103610437579638612d07565b3d91506133d5565b9095506020813d602011613436575b8161342660209383614154565b810103126107db57519438612c9d565b3d9150613419565b6134479061410a565b61040f578438612c45565b50610120813d610120116134fa575b8161346f6101209383614154565b81010312610912576040516134838161411d565b8151916001600160a01b03831683036134f65760209282526134a683820161423e565b8383015260408101516040830152606081015160608301526080810151608083015260a081015160a083015260c081015160c083015260e081015160e08301526101008091015190820152612bce565b8a80fd5b3d9150613461565b9095506020813d602011613536575b8161351e60209383614154565b810103126104375761352f90614451565b9438612b94565b3d9150613511565b613546614eba565b612b4b565b506077541515612b46565b604051634288230360e01b8152600490fd5b50607d544211612b33565b50346102ba57806003193601126102ba5760ff607b5460a01c16806135a0575b6020906040519015158152f35b50607f544211613593565b50346102ba5760203660031901126102ba576004356001600160401b03811161099b576135dc9036906004016141e1565b906135e5615a54565b60765483906001600160a01b0316803b1561099b57816040518092632acabb1160e01b825260206004830152818381613622602482018b8b6142f8565b03925af1801561040457613672575b50507f1ec1ec5da499bc02a52ae44524fff931d2e18c66681bc49118287b566c20174c9161366c6040519283926020845260208401916142f8565b0390a180f35b61367b9061410a565b610e7f578238613631565b50346102ba5760208060031936011261099b576136a16141b5565b6136a9615a54565b6040516301ffc9a760e01b8152633983653f60e21b60048201526001600160a01b039190911691908181602481865afa9081156133bb57849161372b575b5015611a0057607680546001600160a01b031916831790556040519182527f34f2d9c40aeb8886df9cdf9e12d06e2eba1c570a1b296552fe70f037e72bf12c91a180f35b90508181813d8311613759575b6137428183614154565b81010312610997576137539061423e565b386136e7565b503d613738565b50346102ba5760203660031901126102ba576103ed61377d6141b5565b61378561594a565b615576565b50346102ba57806003193601126102ba576020606e5460801c604051908152f35b50346102ba57602090816003193601126102ba576137c76141b5565b6001600160a01b0380821683526075845260408320600101549192909160ff1615612659578160675416906040519363084b557b60e21b85528585600481865afa948515610404578295613aef575b50670de0b6b3a764000094850193848611613adb578561384a610582606c5483613843610582838c615bf5565b0498615bf5565b04936040516301ddf49360e61b81528881600481855afa90811561042c578591613aae575b5087038781116115cc57608454606b54604051631dae49b960e21b81526001600160a01b0387811660048301529186169182166024820152909490918b9183916044918391165afa90811561075f578691613a81575b508803908882116126455761058289926138de92615bf5565b60405163a8905dab60e01b8082526001600160a01b038681166004840152871660248301529592909104908a81604481875afa908115610a89578791613a54575b50890390898211613a4057918961393f6105828d96946139719896615bf5565b6040519788526001600160a01b0392831660048901529390911660248701529091049392839190829081906044820190565b03915afa908115611010578391613a13575b508503918583116139ff57506139a16105826139a894938793615bf5565b04906142a5565b90828102928184048114821517156139e9578304036139d7576139d2612220928260011c90615be0565b614278565b604051631550e8b760e01b8152600490fd5b634e487b7160e01b600052601160045260246000fd5b634e487b7160e01b81526011600452602490fd5b90508681813d8311613a39575b613a2a8183614154565b810103126107db575138613983565b503d613a20565b634e487b7160e01b87526011600452602487fd5b90508a81813d8311613a7a575b613a6b8183614154565b810103126107db57513861391f565b503d613a61565b90508981813d8311613aa7575b613a988183614154565b810103126107db5751386138c5565b503d613a8e565b90508881813d8311613ad4575b613ac58183614154565b810103126107db57513861386f565b503d613abb565b634e487b7160e01b83526011600452602483fd5b9094508581813d8311613b17575b613b078183614154565b810103126107db57519338613816565b503d613afd565b50346102ba57806003193601126102ba5760835460405163481d98fb60e11b815260206004820152919060809083906001600160a01b03168180613b6460248201614465565b03915afa9182156110fc578192613b8e575b5060038210156110b457602082600160405191148152f35b613ba791925060803d81116110f5576110e28183614154565b505090509038613b76565b50346102ba5760203660031901126102ba57613bcc615a54565b613bd46145b1565b15613cc857606b546083546040516361d027b360e01b8152839273__$183737d697d7aa9b5df9988cbe11bc4947$__926001600160a01b039182169160209184916004918391165afa9182156133bb578492613c8d575b50823b1561042757604051636336129b60e11b81526001600160a01b0391821660048083019190915292909116602482015290356044820152908290829060649082905af4801561040457613c7d5750f35b613c869061410a565b6102ba5780f35b9091506020813d8211613cc0575b81613ca860209383614154565b8101031261042757613cb990614451565b9038613c2b565b3d9150613c9b565b60405162a5e71360e71b8152600490fd5b50346102ba57806003193601126102ba576020606f5460801c604051908152f35b50346102ba57806003193601126102ba57613d136159ec565b6103ed614eba565b50346102ba5760803660031901126102ba57613d356141b5565b6024356044356064356001600160401b03811161040f57613d5a9036906004016141e1565b939091613d656143fb565b6069546040516318160ddd60e01b81526020966001600160a01b0395929091908890829060049082908a165afa80156107e75787908a90613f06575b613dab9250614298565b607954111561281357613de391879186608354169060405180958194829363af9a2aa760e01b845287600485015260248401916142f8565b03915afa908115610a89578791613ed1575b508333911603610e2c57607b5460a01c60ff1615613eb55780613e37575b5090600080516020615c848339815191529160405193845216923392a36001805580f35b85836069541691613e488685614709565b92803b15610e7f57604051632fc3a4b160e21b81526001600160a01b0386166004820152602481019490945260448401919091528290606490829084905af1801561075f5715613e135794613ead600080516020615c8483398151915293929661410a565b949091613e13565b50908161073284600080516020615c8483398151915294614833565b90508581813d8311613eff575b613ee88183614154565b8101031261043757613ef990614451565b38613df5565b503d613ede565b50508781813d8311613f30575b613f1d8183614154565b810103126109125786613dab9151613da1565b503d613f13565b50346102ba57806003193601126102ba576040519080606554613f59816140d0565b80855291600191808316908115613fe45750600114613f9b575b613f9785613f8381870382614154565b604051918291602083526020830190614175565b0390f35b925060658352600080516020615c648339815191525b828410613fcc575050508101602001613f8382613f97613f73565b80546020858701810191909152909301928101613fb1565b869550613f9796935060209250613f8394915060ff191682840152151560051b8201019293613f73565b50346102ba5760203660031901126102ba5760043561402b61594a565b8015611983576020817fd2c55fe32fb2122608950e8daf3216fe57018c4ae02a3b66132249300e8702ed92607955604051908152a180f35b90503461099b57602036600319011261099b5760043563ffffffff60e01b8116809103610e7f57602092506307dba22560e31b81149081156140bf575b81156140ae575b5015158152f35b6301ffc9a760e01b149050386140a7565b63cad9e0d360e01b811491506140a0565b90600182811c92168015614100575b60208310146140ea57565b634e487b7160e01b600052602260045260246000fd5b91607f16916140df565b6001600160401b0381116132a857604052565b61012081019081106001600160401b038211176132a857604052565b604081019081106001600160401b038211176132a857604052565b90601f801991011681019081106001600160401b038211176132a857604052565b919082519283825260005b8481106141a1575050826000602080949584010152601f8019910116010190565b602081830181015184830182015201614180565b600435906001600160a01b03821682036107db57565b604435906001600160a01b03821682036107db57565b9181601f840112156107db578235916001600160401b0383116107db57602083818601950101116107db57565b9181601f840112156107db578235916001600160401b0383116107db576020808501948460051b0101116107db57565b519081151582036107db57565b356001600160a01b03811681036107db5790565b908160209103126107db575160ff811681036107db5790565b8115614282570490565b634e487b7160e01b600052601260045260246000fd5b919082018092116139e957565b919082039182116139e957565b356001600160801b03811681036107db5790565b903590601e19813603018212156107db57018035906001600160401b0382116107db576020019181360383136107db57565b908060209392818452848401376000828201840152601f01601f1916010190565b903590601e19813603018212156107db57018035906001600160401b0382116107db57602001918160051b360383136107db57565b1561435557565b60405162461bcd60e51b815260206004820152602b60248201527f496e697469616c697a61626c653a20636f6e7472616374206973206e6f74206960448201526a6e697469616c697a696e6760a81b6064820152608490fd5b607a548110156143e557607a6000527ff0440771a29e57e18c66727944770b82cc77924aef333c927ce6bdd2cdb3ae030190600090565b634e487b7160e01b600052603260045260246000fd5b60026001541461440c576002600155565b60405162461bcd60e51b815260206004820152601f60248201527f5265656e7472616e637947756172643a207265656e7472616e742063616c6c006044820152606490fd5b51906001600160a01b03821682036107db57565b60655460009291614475826140d0565b808252916001908181169081156144da575060011461449357505050565b919293506065600052600080516020615c64833981519152916000925b8484106144c257505060209250010190565b805460208585018101919091529093019281016144b0565b915050602093945060ff929192191683830152151560051b010190565b6001600160a01b03909116815260208101919091526001600160801b03909116604082015260600190565b6001600160401b0381116132a85760051b60200190565b9291926001600160401b0382116132a85760405191614562601f8201601f191660200184614154565b8294818452818301116107db578281602093846000960137010152565b91908260809103126107db5761459482614451565b91602081015160038110156107db57916060604083015192015190565b60835460405163481d98fb60e11b8152602060048201529060809082906001600160a01b031681806145e560248201614465565b03915afa908115610e7357600090819261462e575b506003811015614618576002149081614611575090565b9050421190565b634e487b7160e01b600052602160045260246000fd5b9050614648915060803d81116110f5576110e28183614154565b925050386145fa565b676765c793fa10079d601b1b6146876122fc614675606d5460801c60705490615821565b6001600160801b03606f541690615bf5565b0490565b606b546040516370a0823160e01b815230600482015290602090829060249082906001600160a01b03165afa8015610e73576000906146d6575b6146d3915060775490614298565b90565b6020823d8211614701575b816146ee60209383614154565b810103126102ba57506146d390516146c5565b3d91506146e1565b60835460405163af9a2aa760e01b8152602060048201819052926001600160a01b0392909190849082908516818061474360248201614465565b03915afa908115610e73576000916147fe575b5082309116036147ec5761479f93839261476e614c64565b606954169060006001600160801b03606f54169360405197889586948593630ab714fb60e11b8552600485016144f7565b03925af1908115610e73576000916147c0575b509050906147be615378565b565b82813d83116147e5575b6147d48183614154565b810103126102ba57505180386147b2565b503d6147ca565b604051636f2f995760e01b8152600490fd5b908482813d831161482c575b6148148183614154565b810103126102ba575061482690614451565b38614756565b503d61480a565b607d54916000924211614c52576148518161484c61468b565b6142a5565b906148968360018060a01b03928360695416946001600160801b03606f54169560409687518092630ab714fb60e11b8252818c8160209a8b968a60049c8d85016144f7565b03925af18015614bff57908591614c29575b5050607c54811015614c19576148c090607c546142a5565b81811115614c0957509260ff607854166149fb575b80607b54169280865180809463be5daee560e01b825289878301526148fc60448301614465565b9a16998a60248301520381875afa9081156149f15790859189916149be575b506149269250614298565b608054106149b05760825494608154833b15610d81578794939260c09286928851998a978896879563e976e18b60e01b875286015261496760c48601614465565b9360248601526044850152606484015260848301524260a483015203925af19081156149a75750614996575050565b6149a0829161410a565b6102ba5750565b513d84823e3d90fd5b835163c7e138ed60e01b8152fd5b8092508391503d83116149ea575b6149d68183614154565b810103126107db578361492691513861491b565b503d6149cc565b86513d8a823e3d90fd5b606b5485516370a0823160e01b815230848201529082168482602481845afa918215614bff579084918a93614bcc575b50614a3883607754614298565b60775585846083541689519384809263a03e4bc360e01b82525afa918215614b52578a92614b95575b50875163095ea7b360e01b81526001600160a01b038316868201908152602081018590529091879183919082908e90829060400103925af18015614b525790849291614b5c575b50169082606b5416823b15610da95787519063617ba03760e01b825285820152816024820152306044820152896064820152898160848183875af18015614b5257614b1d575b50847f3b1270fa6f77c9af94834571cf5274944e8712de6cebea9ec3d8b3452c053308918851908152a26148d5565b7f3b1270fa6f77c9af94834571cf5274944e8712de6cebea9ec3d8b3452c0533089199614b4a879261410a565b999150614aee565b88513d8c823e3d90fd5b9091508581813d8311614b8e575b614b748183614154565b81010312610da95790614b87849261423e565b5038614aa8565b503d614b6a565b9091508581813d8311614bc5575b614bad8183614154565b81010312610da957614bbe90614451565b9038614a61565b503d614ba3565b86809294508193503d8311614bf8575b614be68183614154565b81010312610912578390519138614a2b565b503d614bdc565b87513d8b823e3d90fd5b905092614c14614e44565b6148d5565b50505050505050506147be614e44565b813d8311614c4b575b614c3c8183614154565b81010312610d815783386148a8565b503d614c32565b604051639a9a6f1760e01b8152600490fd5b606d5490607054614c78818460801c615821565b92606f54676765c793fa10079d601b1b9283614ca26122fc6001600160801b039889861690615bf5565b0490868211614d77578680614cb993169416615853565b92614cd86122fc846001600160801b03198095161760801c8096615bf5565b04948511614d655760049460801b16179081606f5542607055602060018060a01b03606a54166040519586809263b1bf962d60e01b82525afa918215610e7357600092614d2f575b6147be93945060801c91614d89565b91936020813d8211614d5d575b81614d4960209383614154565b8101031261040f5751929350839291614d20565b3d9150614d3c565b60405163306e92a960e11b8152600490fd5b604051632db5409f60e21b8152600490fd5b9190916072548015614e3e57610582614de991614de4670de0b6b3a7640000946122fc6139a16122fc60018060a01b039a8b606954169b606854169a614ddd676765c793fa10079d601b1b95869288615bf5565b0494615bf5565b615bf5565b04916001600160801b03606f541690803b156107db57614e249360008094604051968795869485936327883e6160e21b8552600485016144f7565b03925af18015610e7357614e355750565b6147be9061410a565b50505050565b607b805460ff60a01b1916600160a01b179055607e54614e649042614298565b607f5560ff60785416614e99575b7f5023432d2ef8583c6eb5ee4501bf4740bf68b6fe4823da8f19ddedd1135f2a64600080a1565b614ea1614eba565b614e72565b51906001600160801b03821682036107db57565b6083546040805163a03e4bc360e01b815290916000916004916020916001600160a01b0391839082908690829086165afa9081156150f4579082918691615340575b50169281606b54168651906335ea6a7560e01b825280838301526101e080836024818a5afa92831561513557869186918a956151ab575b50506101006024940151168951938480926370a0823160e01b825230888301525afa91821561516857879261517c575b5060ff19607854166078558115615172578751631a4ca37b60e21b815283810191909152600019602482015230604482015284816064818a8a5af180156151685790859161513f575b507f6407790cdabc5d219eaf901091d6beccc475533065c2fbd374c8a32b1c66795886918951848152a260775490818111614fef575b5050505050509050607755565b90614ff9916142a5565b9173__$183737d697d7aa9b5df9988cbe11bc4947$__90828582606b541692608354168a51958680926361d027b360e01b82525afa9384156151355788946150fe575b50823b15610d81578851636336129b60e11b81526001600160a01b0392831691810191825293909116602082015260408101849052869183918290819060600103915af480156150f4576150c1575b507f590e5a1563e349794fdcc066c4d5047f5e478f9e41707fc1bbad830146b7a17792939451908152a280388080808080614fe2565b936150ed7f590e5a1563e349794fdcc066c4d5047f5e478f9e41707fc1bbad830146b7a177949561410a565b939261508b565b86513d87823e3d90fd5b9093508581813d831161512e575b6151168183614154565b81010312610d815761512790614451565b923861503c565b503d61510c565b89513d8a823e3d90fd5b813d8311615161575b6151528183614154565b8101031261076a578338614fac565b503d615148565b88513d89823e3d90fd5b5050505050505050565b9091508481813d83116151a4575b6151948183614154565b8101031261043757519038614f63565b503d61518a565b9250809394508291503d8411615339575b6151c68183614154565b810103828112610912578951928301906001600160401b039084831082841117615326578813610da957610200840190811182821017615313578a52815181528252615213868201614ea6565b86830152615222898201614ea6565b8983015261523260608201614ea6565b606083015261524360808201614ea6565b608083015261525460a08201614ea6565b60a083015260c081015164ffffffffff811681036109125760c083015260e081015161ffff8116810361091257610100838893889360e06024989701528261529d818301614451565b908301526101206152af818301614451565b908301526101406152c1818301614451565b908301526101606152d3818301614451565b908301526101806152e5818301614ea6565b908301526101a06152f7818301614ea6565b908301526153096101c0809201614ea6565b9082015294614f33565b634e487b7160e01b8a526041865260248afd5b634e487b7160e01b8b526041875260248bfd5b503d6151bc565b809250848092503d8311615371575b6153598183614154565b8101031261040f5761536b8291614451565b38614efc565b503d61534f565b606a54604080516318160ddd60e01b81526020926001600160a01b039084908390600490829085165afa91821561556b5760009261553c575b506153c3826153be61468b565b614298565b908161542e575050507f9cf6ed4d2e86c73a9ce91a9baa90bb3a472323bb366819d0934e0d95d3e7500e9160a0916000606d555b606d5490606f54908051936001600160801b0393848116865260801c908501528160801c90840152166060820152426080820152a1565b839161543e916076541693615c2c565b604460725491600084519586948593630884b37d60e11b8552600485015260248401525af19081156155315760009081926154bd575b50917f9cf6ed4d2e86c73a9ce91a9baa90bb3a472323bb366819d0934e0d95d3e7500e93916001600160801b0360a09416906001600160801b03199060801b1617606d556153f7565b91508282813d831161552a575b6154d48183614154565b810103126102ba57509160a091836001600160801b0361551f846155187f9cf6ed4d2e86c73a9ce91a9baa90bb3a472323bb366819d0934e0d95d3e7500e98614ea6565b9301614ea6565b939550509092615474565b503d6154ca565b82513d6000823e3d90fd5b90918482813d8311615564575b6155538183614154565b810103126102ba57505190386153b1565b503d615549565b83513d6000823e3d90fd5b6001600160a01b03919082811680156157fc576000918183526020926075845260409160ff60018484200154166157eb57825163313ce56760e01b81526004979086818a81895afa9081156157e15760129160ff9186916157c4575b5016116157b457608454606b548551634858138f60e01b81526001600160a01b038581168c830190815292851690811660208401529390921691908890829081906040010381855afa9081156150f4578591615787575b5015615777578451632bd3159f60e21b81526001600160a01b03808516828c019081529316602084015291859183918290819060400103915afa801561576d5761572d575b50607a546801000000000000000081101561571a579061259f8260016156979401607a556143ae565b607a546000198101908111615707577fb38e19e04618f9502008311560587c597fe11e8867226353a0c01aab7e4df2939596506001908351906156d982614139565b81528386820193838552868152607588522090518155019051151560ff8019835416911617905551908152a1565b634e487b7160e01b825260118752602482fd5b634e487b7160e01b835260418852602483fd5b8381813d8311615766575b6157428183614154565b81010312610e7f57858161575861575f93614451565b5001614451565b503861566e565b503d615738565b84513d85823e3d90fd5b8451633c15d6ff60e21b81528990fd5b90508781813d83116157ad575b61579e8183614154565b8101031261040f575138615629565b503d615794565b835163b7c73c5d60e01b81528890fd5b6157db9150893d8b116119f9576119eb8183614154565b386155d2565b85513d86823e3d90fd5b8251632d6c6ae560e01b8152600490fd5b6040516346ec28e560e11b8152600490fd5b818102929181159184041417156139e957565b61583a906158346301e1338093426142a5565b9061580e565b04676765c793fa10079d601b1b81018091116139e95790565b9061585e90426142a5565b908115615939576000198201918083116139e9576000600282111561592a575060011981018181116139e9576159136301e1338091925b600661590c876158fd676765c793fa10079d601b1b976158fd6159028b6158fd6906a4334962924ee000008d6158f46122fc66038882915c4000836158dd6122fc8980615bf5565b040495836158ee6122fc8380615bf5565b04615bf5565b0404968a61580e565b61580e565b60011c9b8761580e565b049461580e565b0481018091116139e9576146d3926153be91614298565b6159136301e133809192615895565b5050676765c793fa10079d601b1b90565b606654604051632474521560e21b81527fc0fc8e4dc5cff6febdf550b80d566f654e2baf1a02ea1060208c2f8ab2dd1b63600482015233602482015290602090829060449082906001600160a01b03165afa908115610e73576000916159b3575b5015610e2c57565b906020823d82116159e4575b816159cc60209383614154565b810103126102ba57506159de9061423e565b386159ab565b3d91506159bf565b606654604051632474521560e21b81527f5a7d4408f4759dddd7fdfd0d21abd99341dc2f52cda14804988a9b2df20766d8600482015233602482015290602090829060449082906001600160a01b03165afa908115610e73576000916159b3575015610e2c57565b606654604051632474521560e21b81526000600482015233602482015290602090829060449082906001600160a01b03165afa908115610e73576000916159b3575015610e2c57565b606654604051632474521560e21b81527f5580ea9b7f9becaa48a78f506a2019ea24794b7a717ee6a4b9f62e36b94c25a6600482015233602482015290602090829060449082906001600160a01b03165afa908115610e73576000916159b3575015610e2c57565b607454604051630723eb0360e51b815233600482015290602090829060249082906001600160a01b03165afa908115610e7357600091615b59575b50615b4757565b6040516333df015b60e01b8152600490fd5b906020823d8211615b8a575b81615b7260209383614154565b810103126102ba5750615b849061423e565b38615b40565b3d9150615b65565b906706f05b59d3b200008201918281116139e9578210615bae57565b604051630a77254f60e01b8152600490fd5b906b019d971e4fe8401e740000008201918281116139e9578210615bae57565b9190615bec9083614298565b918210615bae57565b600092918015918215615c0c575b5050156139d757565b91509250615c24615c1d848361580e565b9384614278565b143880615c03565b90676765c793fa10079d601b1b91828102928184048114821517156139e9578304036139d7576139d26146d3928260011c90615be056fe8ff97419363ffd7000167f130ef7168fbea05faf9251824ca5043f113cc6a7c75548c837ab068cf56a2c2479df0882a4922fd203edb7517321831d95078c5f62a26469706673582212205938e49a0e919051e6fc2b2cbc83cbd0b27d8576a8efa50530ccb5622f17433164736f6c63430008120033",
  "libraries": {
    "TokenTransfersLibrary": "0x4FFa6c545a6249baF2D66ce21CeF3D2C2cCa69D0"
  },
  "devdoc": {
    "events": {
      "Initialized(uint8)": {
        "details": "Triggered when the contract has been initialized or reinitialized."
      }
    },
    "kind": "dev",
    "methods": {
      "addAsset(address)": {
        "details": "Function to add new trading asset for this bucketOnly callable by the MEDIUM_TIMELOCK_ADMIN role.",
        "params": {
          "_newAsset": "The address of trading asset"
        }
      },
      "availableLiquidity()": {
        "details": "Returns current avalable liquidity of borrowedAsset for trading.",
        "returns": {
          "_0": "The amount of available borrowedAsset"
        }
      },
      "batchDecreaseTradersDebt(address[],uint256[],address,uint256,uint256,uint256)": {
        "details": "This function can only be called by the BATCH_MANAGER_ROLE.",
        "params": {
          "_amountToReturn": "The amount to be returned.",
          "_debtsToBurn": "An array of uint256 values representing the debts to burn for each trader.",
          "_length": "The length of the traders array.",
          "_permanentLossAmount": "The amount of permanent loss.",
          "_receiverOfAmountToReturn": "The address that will receive the amount to be returned.",
          "_traders": "An array of addresses representing the traders."
        }
      },
      "decreaseTraderDebt(address,uint256,address,uint256,uint256)": {
        "details": "Function to update rates and indexes. Burns debt tokens of trader. Called only by positionManager contract.",
        "params": {
          "_amountToReturn": "Amount to transfer from bucket",
          "_debtToBurn": "The 'amount' of trader's debtTokens will be burned by the trader.",
          "_permanentLossAmount": "The amount of the protocol's debt to creditors accrued for this position",
          "_receiverOfAmountToReturn": "Treasury in case of liquidation. TraderBalanceVault in other cases",
          "_trader": "The address of the trader, who opened position."
        }
      },
      "deposit(address,uint256)": {
        "details": "Deposits the 'amount' of underlying asset into the bucket. The 'PTokenReceiver' receives overlying pTokens.",
        "params": {
          "_amount": "The amount of underlying tokens to be deposited",
          "_pTokenReceiver": "The address to receive the deposited pTokens."
        }
      },
      "deposit(address,uint256,bool)": {
        "details": "Deposits the 'amount' of underlying asset into the bucket. The 'PTokenReceiver' receives overlying pTokens.",
        "params": {
          "_amount": "The amount of underlying tokens to be deposited",
          "_pTokenReceiver": "The address to receive the deposited pTokens.",
          "_takeDepositFromWallet": "A flag indicating whether to make the deposit from user wallet"
        }
      },
      "depositFromBucket(string,address,(uint256,(string,bytes)[])[],uint256)": {
        "params": {
          "_amountOutMin": "The minimum amount of tokens to receive from the swap.",
          "_bucketTo": "The name of the destination bucket.",
          "_swapManager": "The address of the swap manager.",
          "routes": "The array of routes for swapping tokens."
        }
      },
      "getAllowedAssets()": {
        "details": "Returns allowed trading assets for current bucket",
        "returns": {
          "_0": "List of addresses of allowed assets"
        }
      },
      "getLiquidityMiningParams()": {
        "details": "Returns the parameters for liquidity mining.",
        "returns": {
          "_0": "LMparams The liquidity mining parameters."
        }
      },
      "getNormalizedIncome()": {
        "details": "Returns the normalized income per unit of underlying asset, expressed in ray",
        "returns": {
          "_0": "The normalized income per unit of underlying asset, expressed in ray"
        }
      },
      "getNormalizedVariableDebt()": {
        "details": "Returns the normalized variable debt per unit of underlying asset, expressed in ray"
      },
      "increaseDebt(address,uint256,address)": {
        "details": "Function to update rates and indexes when a trader opens a trading position. Mints debt tokens to trader. Calls only by positionManager contract.",
        "params": {
          "_amount": "The 'amount' for which the deal is open, and 'amount' of debtTokens will be minted to the trader.",
          "_to": "The address to transfer the borrowed asset to.",
          "_trader": "The address of the trader, who opens position."
        }
      },
      "initialize((string,address,address,address,address,address,address,address,address[],address,uint256,uint256,uint256,address,uint256,uint256,uint256,address,uint128,uint128,uint256,bool,bytes,uint256),address)": {
        "details": "Initializes the contract with the given parameters.",
        "params": {
          "_params": "The ConstructorParams struct containing initialization parameters.",
          "_registry": "The address of the registry contract."
        }
      },
      "isActive()": {
        "details": "Checks if this bucket is active in the protocol.",
        "returns": {
          "_0": "bool True if the bucket is active, false otherwise."
        }
      },
      "isBucketStable()": {
        "details": "Returns a boolean value indicating whether the bucket is stable in the liquidity mining event.",
        "returns": {
          "_0": "A boolean value representing the stability of the bucket."
        }
      },
      "isDelisted()": {
        "details": "Returns a boolean value indicating whether the bucket is delisted.",
        "returns": {
          "_0": "True if the bucket is delisted, otherwise false."
        }
      },
      "isDeprecated()": {
        "details": "Checks if the bucket is deprecated in the protocol.",
        "returns": {
          "_0": "Whether the bucket is deprecated or not."
        }
      },
      "isWithdrawAfterDelistingAvailable()": {
        "details": "Checks if an admin can withdraw from the bucket after delisting.",
        "returns": {
          "_0": "A boolean indicating whether withdrawal is available."
        }
      },
      "maxAssetLeverage(address)": {
        "details": "Calculates the max leverage according to the following formula: ((1 + maintenanceBuffer) * feeBuffer) / ((1 + maintenanceBuffer) * feeBuffer - (1 - securityBuffer) * (1 - pairPriceDropBA) * (1 - oracleTolerableLimitAB) * (1 - oracleTolerableLimitBA))",
        "params": {
          "_asset": "The address of trading asset"
        },
        "returns": {
          "_0": "The maximum leverage as a uint256 value."
        }
      },
      "paybackPermanentLoss(uint256)": {
        "params": {
          "amount": "The amount of pTokens to be burned to pay back the permanent loss."
        }
      },
      "permanentLoss()": {
        "details": "Calculates the permanent loss based on the scaled permanent loss and the normalized income.",
        "returns": {
          "_0": "The amount of permanent loss."
        }
      },
      "receiveDeposit(address,uint256,uint256,string)": {
        "details": "Receives a deposit and distributes it to the specified pToken receiver.Can be called only by another bucket.",
        "params": {
          "_amount": "The amount of tokens being deposited.",
          "_bucketFrom": "The name of the bucket from which the deposit is being made.",
          "_duration": "The blocking time for a fixed-term deposit (if it's 0, then it will be a usual deposit)",
          "_pTokenReceiver": "The address of the recipient of the pToken."
        }
      },
      "removeAsset(address)": {
        "details": "Only callable by the SMALL_TIMELOCK_ADMIN role.",
        "params": {
          "_assetToDelete": "The address of the asset to be removed."
        }
      },
      "returnLiquidityFromAaveToBucket()": {
        "details": "Allows the SMALL_TIMELOCK_ADMIN to withdraw all liquidity from Aave to Bucket."
      },
      "setFeeBuffer(uint256)": {
        "details": "Sets the new fee buffer.Only callable by the MEDIUM_TIMELOCK_ADMIN role.",
        "params": {
          "_feeBuffer": "The new fee buffer value."
        }
      },
      "setInterestRateStrategy(address)": {
        "details": "Sets the interest rate strategy contract address.Only callable by the BIG_TIMELOCK_ADMIN role.",
        "params": {
          "_interestRateStrategy": "The address of the interest rate strategy contract."
        }
      },
      "setMaxTotalDeposit(uint256)": {
        "params": {
          "_maxTotalDeposit": "The amount of max total deposit for the bucket"
        }
      },
      "setReserveRate(uint256)": {
        "details": "Sets the reserve rate.Only callable by the BIG_TIMELOCK_ADMIN role.",
        "params": {
          "_reserveRate": "The new reserve rate value."
        }
      },
      "setWithdrawalFee(uint256)": {
        "details": "Sets the withdrawal fee.Only callable by the BIG_TIMELOCK_ADMIN role.",
        "params": {
          "_withdrawalFee": "The new withdrawal fee value."
        }
      },
      "withdraw(address,uint256)": {
        "details": "Withdraws the 'amount' of underlying asset from the bucket. The 'amount' of overlying pTokens will be burned.",
        "params": {
          "_borrowAssetReceiver": "The address of receiver of the borrowed asset.",
          "amount": "The amount of underlying tokens to be withdrawn."
        }
      },
      "withdrawAfterDelisting(uint256)": {
        "params": {
          "_amount": "The amount of tokens to withdraw."
        }
      }
    },
    "version": 1
  },
  "userdoc": {
    "kind": "user",
    "methods": {
      "bar()": {
        "notice": "bar = borrowing annual rate (originally APR)"
      },
      "batchDecreaseTradersDebt(address[],uint256[],address,uint256,uint256,uint256)": {
        "notice": "Batch decreases the debt of multiple traders."
      },
      "depositFromBucket(string,address,(uint256,(string,bytes)[])[],uint256)": {
        "notice": "Deposits (reinvests) funds from a bucket to another bucket. Used only in the case of failed liquidity mining in the bucket from where the transfer happens."
      },
      "lar()": {
        "notice": "lar = lending annual rate (originally APY)"
      },
      "paybackPermanentLoss(uint256)": {
        "notice": "This function allows a user to pay back a permanent loss by burning his pTokens."
      },
      "removeAsset(address)": {
        "notice": "Removes a trading asset from this bucket."
      },
      "setMaxTotalDeposit(uint256)": {
        "notice": "The function sets the max total deposit for the particular bucket"
      },
      "supportsInterface(bytes4)": {
        "notice": "Interface checker"
      },
      "withdrawAfterDelisting(uint256)": {
        "notice": "Allows the BIG_TIMELOCK_ADMIN role to withdraw a specified amount of tokens after delisting."
      }
    },
    "version": 1
  },
  "storageLayout": {
    "storage": [
      {
        "astId": 2890,
        "contract": "contracts/Bucket/Bucket.sol:Bucket",
        "label": "_initialized",
        "offset": 0,
        "slot": "0",
        "type": "t_uint8"
      },
      {
        "astId": 2893,
        "contract": "contracts/Bucket/Bucket.sol:Bucket",
        "label": "_initializing",
        "offset": 1,
        "slot": "0",
        "type": "t_bool"
      },
      {
        "astId": 3193,
        "contract": "contracts/Bucket/Bucket.sol:Bucket",
        "label": "_status",
        "offset": 0,
        "slot": "1",
        "type": "t_uint256"
      },
      {
        "astId": 3262,
        "contract": "contracts/Bucket/Bucket.sol:Bucket",
        "label": "__gap",
        "offset": 0,
        "slot": "2",
        "type": "t_array(t_uint256)49_storage"
      },
      {
        "astId": 6506,
        "contract": "contracts/Bucket/Bucket.sol:Bucket",
        "label": "__gap",
        "offset": 0,
        "slot": "51",
        "type": "t_array(t_uint256)50_storage"
      },
      {
        "astId": 25110,
        "contract": "contracts/Bucket/Bucket.sol:Bucket",
        "label": "name",
        "offset": 0,
        "slot": "101",
        "type": "t_string_storage"
      },
      {
        "astId": 25113,
        "contract": "contracts/Bucket/Bucket.sol:Bucket",
        "label": "registry",
        "offset": 0,
        "slot": "102",
        "type": "t_address"
      },
      {
        "astId": 25117,
        "contract": "contracts/Bucket/Bucket.sol:Bucket",
        "label": "positionManager",
        "offset": 0,
        "slot": "103",
        "type": "t_contract(IPositionManager)39871"
      },
      {
        "astId": 25121,
        "contract": "contracts/Bucket/Bucket.sol:Bucket",
        "label": "reserve",
        "offset": 0,
        "slot": "104",
        "type": "t_contract(IReserve)47515"
      },
      {
        "astId": 25125,
        "contract": "contracts/Bucket/Bucket.sol:Bucket",
        "label": "pToken",
        "offset": 0,
        "slot": "105",
        "type": "t_contract(IPToken)37558"
      },
      {
        "astId": 25129,
        "contract": "contracts/Bucket/Bucket.sol:Bucket",
        "label": "debtToken",
        "offset": 0,
        "slot": "106",
        "type": "t_contract(IDebtToken)27792"
      },
      {
        "astId": 25133,
        "contract": "contracts/Bucket/Bucket.sol:Bucket",
        "label": "borrowedAsset",
        "offset": 0,
        "slot": "107",
        "type": "t_contract(IERC20Metadata)10876"
      },
      {
        "astId": 25136,
        "contract": "contracts/Bucket/Bucket.sol:Bucket",
        "label": "feeBuffer",
        "offset": 0,
        "slot": "108",
        "type": "t_uint256"
      },
      {
        "astId": 25139,
        "contract": "contracts/Bucket/Bucket.sol:Bucket",
        "label": "bar",
        "offset": 0,
        "slot": "109",
        "type": "t_uint128"
      },
      {
        "astId": 25142,
        "contract": "contracts/Bucket/Bucket.sol:Bucket",
        "label": "lar",
        "offset": 16,
        "slot": "109",
        "type": "t_uint128"
      },
      {
        "astId": 25145,
        "contract": "contracts/Bucket/Bucket.sol:Bucket",
        "label": "estimatedBar",
        "offset": 0,
        "slot": "110",
        "type": "t_uint128"
      },
      {
        "astId": 25148,
        "contract": "contracts/Bucket/Bucket.sol:Bucket",
        "label": "estimatedLar",
        "offset": 16,
        "slot": "110",
        "type": "t_uint128"
      },
      {
        "astId": 25151,
        "contract": "contracts/Bucket/Bucket.sol:Bucket",
        "label": "liquidityIndex",
        "offset": 0,
        "slot": "111",
        "type": "t_uint128"
      },
      {
        "astId": 25154,
        "contract": "contracts/Bucket/Bucket.sol:Bucket",
        "label": "variableBorrowIndex",
        "offset": 16,
        "slot": "111",
        "type": "t_uint128"
      },
      {
        "astId": 25156,
        "contract": "contracts/Bucket/Bucket.sol:Bucket",
        "label": "lastUpdatedBlockTimestamp",
        "offset": 0,
        "slot": "112",
        "type": "t_uint256"
      },
      {
        "astId": 25159,
        "contract": "contracts/Bucket/Bucket.sol:Bucket",
        "label": "permanentLossScaled",
        "offset": 0,
        "slot": "113",
        "type": "t_uint256"
      },
      {
        "astId": 25161,
        "contract": "contracts/Bucket/Bucket.sol:Bucket",
        "label": "reserveRate",
        "offset": 0,
        "slot": "114",
        "type": "t_uint256"
      },
      {
        "astId": 25164,
        "contract": "contracts/Bucket/Bucket.sol:Bucket",
        "label": "withdrawalFeeRate",
        "offset": 0,
        "slot": "115",
        "type": "t_uint256"
      },
      {
        "astId": 25168,
        "contract": "contracts/Bucket/Bucket.sol:Bucket",
        "label": "whiteBlackList",
        "offset": 0,
        "slot": "116",
        "type": "t_contract(IWhiteBlackList)54241"
      },
      {
        "astId": 25174,
        "contract": "contracts/Bucket/Bucket.sol:Bucket",
        "label": "allowedAssets",
        "offset": 0,
        "slot": "117",
        "type": "t_mapping(t_address,t_struct(Asset)26162_storage)"
      },
      {
        "astId": 25177,
        "contract": "contracts/Bucket/Bucket.sol:Bucket",
        "label": "interestRateStrategy",
        "offset": 0,
        "slot": "118",
        "type": "t_contract(IInterestRateStrategy)57222"
      },
      {
        "astId": 25179,
        "contract": "contracts/Bucket/Bucket.sol:Bucket",
        "label": "aaveDeposit",
        "offset": 0,
        "slot": "119",
        "type": "t_uint256"
      },
      {
        "astId": 25181,
        "contract": "contracts/Bucket/Bucket.sol:Bucket",
        "label": "isReinvestToAaveEnabled",
        "offset": 0,
        "slot": "120",
        "type": "t_bool"
      },
      {
        "astId": 25184,
        "contract": "contracts/Bucket/Bucket.sol:Bucket",
        "label": "maxTotalDeposit",
        "offset": 0,
        "slot": "121",
        "type": "t_uint256"
      },
      {
        "astId": 25187,
        "contract": "contracts/Bucket/Bucket.sol:Bucket",
        "label": "assets",
        "offset": 0,
        "slot": "122",
        "type": "t_array(t_address)dyn_storage"
      },
      {
        "astId": 25190,
        "contract": "contracts/Bucket/Bucket.sol:Bucket",
        "label": "LMparams",
        "offset": 0,
        "slot": "123",
        "type": "t_struct(LiquidityMiningParams)26157_storage"
      },
      {
        "astId": 25193,
        "contract": "contracts/Bucket/Bucket.sol:Bucket",
        "label": "dns",
        "offset": 0,
        "slot": "131",
        "type": "t_contract(IPrimexDNS)43597"
      },
      {
        "astId": 25196,
        "contract": "contracts/Bucket/Bucket.sol:Bucket",
        "label": "priceOracle",
        "offset": 0,
        "slot": "132",
        "type": "t_contract(IPriceOracle)42543"
      }
    ],
    "types": {
      "t_address": {
        "encoding": "inplace",
        "label": "address",
        "numberOfBytes": "20"
      },
      "t_array(t_address)dyn_storage": {
        "base": "t_address",
        "encoding": "dynamic_array",
        "label": "address[]",
        "numberOfBytes": "32"
      },
      "t_array(t_uint256)49_storage": {
        "base": "t_uint256",
        "encoding": "inplace",
        "label": "uint256[49]",
        "numberOfBytes": "1568"
      },
      "t_array(t_uint256)50_storage": {
        "base": "t_uint256",
        "encoding": "inplace",
        "label": "uint256[50]",
        "numberOfBytes": "1600"
      },
      "t_bool": {
        "encoding": "inplace",
        "label": "bool",
        "numberOfBytes": "1"
      },
      "t_contract(IDebtToken)27792": {
        "encoding": "inplace",
        "label": "contract IDebtToken",
        "numberOfBytes": "20"
      },
      "t_contract(IERC20Metadata)10876": {
        "encoding": "inplace",
        "label": "contract IERC20Metadata",
        "numberOfBytes": "20"
      },
      "t_contract(IInterestRateStrategy)57222": {
        "encoding": "inplace",
        "label": "contract IInterestRateStrategy",
        "numberOfBytes": "20"
      },
      "t_contract(ILiquidityMiningRewardDistributor)35104": {
        "encoding": "inplace",
        "label": "contract ILiquidityMiningRewardDistributor",
        "numberOfBytes": "20"
      },
      "t_contract(IPToken)37558": {
        "encoding": "inplace",
        "label": "contract IPToken",
        "numberOfBytes": "20"
      },
      "t_contract(IPositionManager)39871": {
        "encoding": "inplace",
        "label": "contract IPositionManager",
        "numberOfBytes": "20"
      },
      "t_contract(IPriceOracle)42543": {
        "encoding": "inplace",
        "label": "contract IPriceOracle",
        "numberOfBytes": "20"
      },
      "t_contract(IPrimexDNS)43597": {
        "encoding": "inplace",
        "label": "contract IPrimexDNS",
        "numberOfBytes": "20"
      },
      "t_contract(IReserve)47515": {
        "encoding": "inplace",
        "label": "contract IReserve",
        "numberOfBytes": "20"
      },
      "t_contract(IWhiteBlackList)54241": {
        "encoding": "inplace",
        "label": "contract IWhiteBlackList",
        "numberOfBytes": "20"
      },
      "t_mapping(t_address,t_struct(Asset)26162_storage)": {
        "encoding": "mapping",
        "key": "t_address",
        "label": "mapping(address => struct IBucketStorage.Asset)",
        "numberOfBytes": "32",
        "value": "t_struct(Asset)26162_storage"
      },
      "t_string_storage": {
        "encoding": "bytes",
        "label": "string",
        "numberOfBytes": "32"
      },
      "t_struct(Asset)26162_storage": {
        "encoding": "inplace",
        "label": "struct IBucketStorage.Asset",
        "members": [
          {
            "astId": 26159,
            "contract": "contracts/Bucket/Bucket.sol:Bucket",
            "label": "index",
            "offset": 0,
            "slot": "0",
            "type": "t_uint256"
          },
          {
            "astId": 26161,
            "contract": "contracts/Bucket/Bucket.sol:Bucket",
            "label": "isSupported",
            "offset": 0,
            "slot": "1",
            "type": "t_bool"
          }
        ],
        "numberOfBytes": "64"
      },
      "t_struct(LiquidityMiningParams)26157_storage": {
        "encoding": "inplace",
        "label": "struct IBucketStorage.LiquidityMiningParams",
        "members": [
          {
            "astId": 26140,
            "contract": "contracts/Bucket/Bucket.sol:Bucket",
            "label": "liquidityMiningRewardDistributor",
            "offset": 0,
            "slot": "0",
            "type": "t_contract(ILiquidityMiningRewardDistributor)35104"
          },
          {
            "astId": 26142,
            "contract": "contracts/Bucket/Bucket.sol:Bucket",
            "label": "isBucketLaunched",
            "offset": 20,
            "slot": "0",
            "type": "t_bool"
          },
          {
            "astId": 26144,
            "contract": "contracts/Bucket/Bucket.sol:Bucket",
            "label": "accumulatingAmount",
            "offset": 0,
            "slot": "1",
            "type": "t_uint256"
          },
          {
            "astId": 26146,
            "contract": "contracts/Bucket/Bucket.sol:Bucket",
            "label": "deadlineTimestamp",
            "offset": 0,
            "slot": "2",
            "type": "t_uint256"
          },
          {
            "astId": 26148,
            "contract": "contracts/Bucket/Bucket.sol:Bucket",
            "label": "stabilizationDuration",
            "offset": 0,
            "slot": "3",
            "type": "t_uint256"
          },
          {
            "astId": 26150,
            "contract": "contracts/Bucket/Bucket.sol:Bucket",
            "label": "stabilizationEndTimestamp",
            "offset": 0,
            "slot": "4",
            "type": "t_uint256"
          },
          {
            "astId": 26152,
            "contract": "contracts/Bucket/Bucket.sol:Bucket",
            "label": "maxAmountPerUser",
            "offset": 0,
            "slot": "5",
            "type": "t_uint256"
          },
          {
            "astId": 26154,
            "contract": "contracts/Bucket/Bucket.sol:Bucket",
            "label": "maxDuration",
            "offset": 0,
            "slot": "6",
            "type": "t_uint256"
          },
          {
            "astId": 26156,
            "contract": "contracts/Bucket/Bucket.sol:Bucket",
            "label": "maxStabilizationEndTimestamp",
            "offset": 0,
            "slot": "7",
            "type": "t_uint256"
          }
        ],
        "numberOfBytes": "256"
      },
      "t_uint128": {
        "encoding": "inplace",
        "label": "uint128",
        "numberOfBytes": "16"
      },
      "t_uint256": {
        "encoding": "inplace",
        "label": "uint256",
        "numberOfBytes": "32"
      },
      "t_uint8": {
        "encoding": "inplace",
        "label": "uint8",
        "numberOfBytes": "1"
      }
    }
  }
}