{
  "address": "0x402D189D8Bb77EF7f5F7E4664efB2CeE767a2481",
  "abi": [
    {
      "inputs": [],
      "stateMutability": "nonpayable",
      "type": "constructor"
    },
    {
      "inputs": [],
      "name": "DS_MATH_ADD_OVERFLOW",
      "type": "error"
    },
    {
      "inputs": [],
      "name": "DS_MATH_MUL_OVERFLOW",
      "type": "error"
    },
    {
      "anonymous": false,
      "inputs": [
        {
          "indexed": false,
          "internalType": "address",
          "name": "addedAsset",
          "type": "address"
        }
      ],
      "name": "AddAsset",
      "type": "event"
    },
    {
      "anonymous": false,
      "inputs": [
        {
          "indexed": false,
          "internalType": "bytes",
          "name": "params",
          "type": "bytes"
        }
      ],
      "name": "BarCalculationParamsChanged",
      "type": "event"
    },
    {
      "anonymous": false,
      "inputs": [],
      "name": "BucketLaunched",
      "type": "event"
    },
    {
      "anonymous": false,
      "inputs": [
        {
          "indexed": false,
          "internalType": "address",
          "name": "newBucketExtension",
          "type": "address"
        }
      ],
      "name": "ChangedBucketExtension",
      "type": "event"
    },
    {
      "anonymous": false,
      "inputs": [
        {
          "indexed": true,
          "internalType": "address",
          "name": "depositer",
          "type": "address"
        },
        {
          "indexed": true,
          "internalType": "address",
          "name": "pTokenReceiver",
          "type": "address"
        },
        {
          "indexed": false,
          "internalType": "uint256",
          "name": "amount",
          "type": "uint256"
        }
      ],
      "name": "Deposit",
      "type": "event"
    },
    {
      "anonymous": false,
      "inputs": [
        {
          "indexed": true,
          "internalType": "address",
          "name": "pool",
          "type": "address"
        },
        {
          "indexed": false,
          "internalType": "uint256",
          "name": "amount",
          "type": "uint256"
        }
      ],
      "name": "DepositToAave",
      "type": "event"
    },
    {
      "anonymous": false,
      "inputs": [
        {
          "indexed": false,
          "internalType": "uint256",
          "name": "feeBuffer",
          "type": "uint256"
        }
      ],
      "name": "FeeBufferChanged",
      "type": "event"
    },
    {
      "anonymous": false,
      "inputs": [
        {
          "indexed": false,
          "internalType": "uint8",
          "name": "version",
          "type": "uint8"
        }
      ],
      "name": "Initialized",
      "type": "event"
    },
    {
      "anonymous": false,
      "inputs": [
        {
          "indexed": false,
          "internalType": "address",
          "name": "interestRateStrategy",
          "type": "address"
        }
      ],
      "name": "InterestRateStrategyChanged",
      "type": "event"
    },
    {
      "anonymous": false,
      "inputs": [
        {
          "indexed": false,
          "internalType": "uint256",
          "name": "maxTotalDeposit",
          "type": "uint256"
        }
      ],
      "name": "MaxTotalDepositChanged",
      "type": "event"
    },
    {
      "anonymous": false,
      "inputs": [
        {
          "indexed": false,
          "internalType": "uint128",
          "name": "bar",
          "type": "uint128"
        },
        {
          "indexed": false,
          "internalType": "uint128",
          "name": "lar",
          "type": "uint128"
        },
        {
          "indexed": false,
          "internalType": "uint128",
          "name": "variableBorrowIndex",
          "type": "uint128"
        },
        {
          "indexed": false,
          "internalType": "uint128",
          "name": "liquidityIndex",
          "type": "uint128"
        },
        {
          "indexed": false,
          "internalType": "uint256",
          "name": "timestamp",
          "type": "uint256"
        }
      ],
      "name": "RatesIndexesUpdated",
      "type": "event"
    },
    {
      "anonymous": false,
      "inputs": [
        {
          "indexed": false,
          "internalType": "address",
          "name": "deletedAsset",
          "type": "address"
        }
      ],
      "name": "RemoveAsset",
      "type": "event"
    },
    {
      "anonymous": false,
      "inputs": [
        {
          "indexed": false,
          "internalType": "uint256",
          "name": "reserveRate",
          "type": "uint256"
        }
      ],
      "name": "ReserveRateChanged",
      "type": "event"
    },
    {
      "anonymous": false,
      "inputs": [
        {
          "indexed": true,
          "internalType": "address",
          "name": "sender",
          "type": "address"
        },
        {
          "indexed": false,
          "internalType": "uint256",
          "name": "amount",
          "type": "uint256"
        }
      ],
      "name": "TopUpTreasury",
      "type": "event"
    },
    {
      "anonymous": false,
      "inputs": [
        {
          "indexed": true,
          "internalType": "address",
          "name": "withdrawer",
          "type": "address"
        },
        {
          "indexed": true,
          "internalType": "address",
          "name": "borrowAssetReceiver",
          "type": "address"
        },
        {
          "indexed": false,
          "internalType": "uint256",
          "name": "amount",
          "type": "uint256"
        }
      ],
      "name": "Withdraw",
      "type": "event"
    },
    {
      "anonymous": false,
      "inputs": [
        {
          "indexed": true,
          "internalType": "address",
          "name": "pool",
          "type": "address"
        },
        {
          "indexed": false,
          "internalType": "uint256",
          "name": "amount",
          "type": "uint256"
        }
      ],
      "name": "WithdrawFromAave",
      "type": "event"
    },
    {
      "anonymous": false,
      "inputs": [
        {
          "indexed": false,
          "internalType": "uint256",
          "name": "withdrawalFeeRate",
          "type": "uint256"
        }
      ],
      "name": "WithdrawalFeeChanged",
      "type": "event"
    },
    {
      "inputs": [],
      "name": "aaveDeposit",
      "outputs": [
        {
          "internalType": "uint256",
          "name": "",
          "type": "uint256"
        }
      ],
      "stateMutability": "view",
      "type": "function"
    },
    {
      "inputs": [
        {
          "internalType": "address",
          "name": "_newAsset",
          "type": "address"
        }
      ],
      "name": "addAsset",
      "outputs": [],
      "stateMutability": "nonpayable",
      "type": "function"
    },
    {
      "inputs": [
        {
          "internalType": "address",
          "name": "",
          "type": "address"
        }
      ],
      "name": "allowedAssets",
      "outputs": [
        {
          "internalType": "uint256",
          "name": "index",
          "type": "uint256"
        },
        {
          "internalType": "bool",
          "name": "isSupported",
          "type": "bool"
        }
      ],
      "stateMutability": "view",
      "type": "function"
    },
    {
      "inputs": [],
      "name": "availableLiquidity",
      "outputs": [
        {
          "internalType": "uint256",
          "name": "",
          "type": "uint256"
        }
      ],
      "stateMutability": "view",
      "type": "function"
    },
    {
      "inputs": [],
      "name": "bar",
      "outputs": [
        {
          "internalType": "uint128",
          "name": "",
          "type": "uint128"
        }
      ],
      "stateMutability": "view",
      "type": "function"
    },
    {
      "inputs": [
        {
          "internalType": "address[]",
          "name": "_traders",
          "type": "address[]"
        },
        {
          "internalType": "uint256[]",
          "name": "_debtsToBurn",
          "type": "uint256[]"
        },
        {
          "internalType": "address",
          "name": "_receiverOfAmountToReturn",
          "type": "address"
        },
        {
          "internalType": "uint256",
          "name": "_amountToReturn",
          "type": "uint256"
        },
        {
          "internalType": "uint256",
          "name": "_permanentLossAmount",
          "type": "uint256"
        },
        {
          "internalType": "uint256",
          "name": "_length",
          "type": "uint256"
        }
      ],
      "name": "batchDecreaseTradersDebt",
      "outputs": [],
      "stateMutability": "nonpayable",
      "type": "function"
    },
    {
      "inputs": [],
      "name": "borrowedAsset",
      "outputs": [
        {
          "internalType": "contract IERC20Metadata",
          "name": "",
          "type": "address"
        }
      ],
      "stateMutability": "view",
      "type": "function"
    },
    {
      "inputs": [],
      "name": "bucketExtension",
      "outputs": [
        {
          "internalType": "address",
          "name": "",
          "type": "address"
        }
      ],
      "stateMutability": "view",
      "type": "function"
    },
    {
      "inputs": [
        {
          "internalType": "uint256",
          "name": "_amount",
          "type": "uint256"
        },
        {
          "internalType": "uint256",
          "name": "_availableLiquidity",
          "type": "uint256"
        }
      ],
      "name": "cumulateToLiquidityIndex",
      "outputs": [],
      "stateMutability": "nonpayable",
      "type": "function"
    },
    {
      "inputs": [],
      "name": "debtToken",
      "outputs": [
        {
          "internalType": "contract IDebtToken",
          "name": "",
          "type": "address"
        }
      ],
      "stateMutability": "view",
      "type": "function"
    },
    {
      "inputs": [
        {
          "internalType": "address",
          "name": "_trader",
          "type": "address"
        },
        {
          "internalType": "uint256",
          "name": "_debtToBurn",
          "type": "uint256"
        },
        {
          "internalType": "address",
          "name": "_receiverOfAmountToReturn",
          "type": "address"
        },
        {
          "internalType": "uint256",
          "name": "_amountToReturn",
          "type": "uint256"
        },
        {
          "internalType": "uint256",
          "name": "_permanentLossAmount",
          "type": "uint256"
        }
      ],
      "name": "decreaseTraderDebt",
      "outputs": [],
      "stateMutability": "nonpayable",
      "type": "function"
    },
    {
      "inputs": [
        {
          "internalType": "address",
          "name": "_pTokenReceiver",
          "type": "address"
        },
        {
          "internalType": "uint256",
          "name": "_amount",
          "type": "uint256"
        },
        {
          "internalType": "bool",
          "name": "_takeDepositFromWallet",
          "type": "bool"
        }
      ],
      "name": "deposit",
      "outputs": [],
      "stateMutability": "nonpayable",
      "type": "function"
    },
    {
      "inputs": [
        {
          "internalType": "address",
          "name": "_pTokenReceiver",
          "type": "address"
        },
        {
          "internalType": "uint256",
          "name": "_amount",
          "type": "uint256"
        }
      ],
      "name": "deposit",
      "outputs": [],
      "stateMutability": "nonpayable",
      "type": "function"
    },
    {
      "inputs": [
        {
          "internalType": "string",
          "name": "_bucketTo",
          "type": "string"
        },
        {
          "internalType": "contract ISwapManager",
          "name": "_swapManager",
          "type": "address"
        },
        {
          "components": [
            {
              "internalType": "uint256",
              "name": "shares",
              "type": "uint256"
            },
            {
              "components": [
                {
                  "internalType": "address",
                  "name": "to",
                  "type": "address"
                },
                {
                  "components": [
                    {
                      "internalType": "string",
                      "name": "dexName",
                      "type": "string"
                    },
                    {
                      "internalType": "uint256",
                      "name": "shares",
                      "type": "uint256"
                    },
                    {
                      "internalType": "bytes",
                      "name": "payload",
                      "type": "bytes"
                    }
                  ],
                  "internalType": "struct PrimexPricingLibrary.Path[]",
                  "name": "paths",
                  "type": "tuple[]"
                }
              ],
              "internalType": "struct PrimexPricingLibrary.Route[]",
              "name": "routes",
              "type": "tuple[]"
            }
          ],
          "internalType": "struct PrimexPricingLibrary.MegaRoute[]",
          "name": "_megaRoutes",
          "type": "tuple[]"
        },
        {
          "internalType": "uint256",
          "name": "_amountOutMin",
          "type": "uint256"
        }
      ],
      "name": "depositFromBucket",
      "outputs": [],
      "stateMutability": "nonpayable",
      "type": "function"
    },
    {
      "inputs": [],
      "name": "estimatedBar",
      "outputs": [
        {
          "internalType": "uint128",
          "name": "",
          "type": "uint128"
        }
      ],
      "stateMutability": "view",
      "type": "function"
    },
    {
      "inputs": [],
      "name": "estimatedLar",
      "outputs": [
        {
          "internalType": "uint128",
          "name": "",
          "type": "uint128"
        }
      ],
      "stateMutability": "view",
      "type": "function"
    },
    {
      "inputs": [],
      "name": "feeBuffer",
      "outputs": [
        {
          "internalType": "uint256",
          "name": "",
          "type": "uint256"
        }
      ],
      "stateMutability": "view",
      "type": "function"
    },
    {
      "inputs": [],
      "name": "getAllowedAssets",
      "outputs": [
        {
          "internalType": "address[]",
          "name": "",
          "type": "address[]"
        }
      ],
      "stateMutability": "view",
      "type": "function"
    },
    {
      "inputs": [],
      "name": "getLiquidityMiningParams",
      "outputs": [
        {
          "components": [
            {
              "internalType": "contract ILiquidityMiningRewardDistributor",
              "name": "liquidityMiningRewardDistributor",
              "type": "address"
            },
            {
              "internalType": "bool",
              "name": "isBucketLaunched",
              "type": "bool"
            },
            {
              "internalType": "uint256",
              "name": "accumulatingAmount",
              "type": "uint256"
            },
            {
              "internalType": "uint256",
              "name": "deadlineTimestamp",
              "type": "uint256"
            },
            {
              "internalType": "uint256",
              "name": "stabilizationDuration",
              "type": "uint256"
            },
            {
              "internalType": "uint256",
              "name": "stabilizationEndTimestamp",
              "type": "uint256"
            },
            {
              "internalType": "uint256",
              "name": "maxAmountPerUser",
              "type": "uint256"
            },
            {
              "internalType": "uint256",
              "name": "maxDuration",
              "type": "uint256"
            },
            {
              "internalType": "uint256",
              "name": "maxStabilizationEndTimestamp",
              "type": "uint256"
            }
          ],
          "internalType": "struct IBucketStorage.LiquidityMiningParams",
          "name": "",
          "type": "tuple"
        }
      ],
      "stateMutability": "view",
      "type": "function"
    },
    {
      "inputs": [],
      "name": "getNormalizedIncome",
      "outputs": [
        {
          "internalType": "uint256",
          "name": "",
          "type": "uint256"
        }
      ],
      "stateMutability": "view",
      "type": "function"
    },
    {
      "inputs": [],
      "name": "getNormalizedVariableDebt",
      "outputs": [
        {
          "internalType": "uint256",
          "name": "",
          "type": "uint256"
        }
      ],
      "stateMutability": "view",
      "type": "function"
    },
    {
      "inputs": [
        {
          "internalType": "address",
          "name": "_trader",
          "type": "address"
        },
        {
          "internalType": "uint256",
          "name": "_amount",
          "type": "uint256"
        },
        {
          "internalType": "address",
          "name": "_to",
          "type": "address"
        }
      ],
      "name": "increaseDebt",
      "outputs": [],
      "stateMutability": "nonpayable",
      "type": "function"
    },
    {
      "inputs": [
        {
          "components": [
            {
              "internalType": "string",
              "name": "name",
              "type": "string"
            },
            {
              "internalType": "contract IPToken",
              "name": "pToken",
              "type": "address"
            },
            {
              "internalType": "contract IDebtToken",
              "name": "debtToken",
              "type": "address"
            },
            {
              "internalType": "contract IPositionManager",
              "name": "positionManager",
              "type": "address"
            },
            {
              "internalType": "contract IPriceOracle",
              "name": "priceOracle",
              "type": "address"
            },
            {
              "internalType": "contract IPrimexDNS",
              "name": "dns",
              "type": "address"
            },
            {
              "internalType": "contract IReserve",
              "name": "reserve",
              "type": "address"
            },
            {
              "internalType": "contract IWhiteBlackList",
              "name": "whiteBlackList",
              "type": "address"
            },
            {
              "internalType": "address[]",
              "name": "assets",
              "type": "address[]"
            },
            {
              "internalType": "contract IERC20Metadata",
              "name": "borrowedAsset",
              "type": "address"
            },
            {
              "internalType": "uint256",
              "name": "feeBuffer",
              "type": "uint256"
            },
            {
              "internalType": "uint256",
              "name": "withdrawalFeeRate",
              "type": "uint256"
            },
            {
              "internalType": "uint256",
              "name": "reserveRate",
              "type": "uint256"
            },
            {
              "internalType": "contract ILiquidityMiningRewardDistributor",
              "name": "liquidityMiningRewardDistributor",
              "type": "address"
            },
            {
              "internalType": "uint256",
              "name": "liquidityMiningAmount",
              "type": "uint256"
            },
            {
              "internalType": "uint256",
              "name": "liquidityMiningDeadline",
              "type": "uint256"
            },
            {
              "internalType": "uint256",
              "name": "stabilizationDuration",
              "type": "uint256"
            },
            {
              "internalType": "contract IInterestRateStrategy",
              "name": "interestRateStrategy",
              "type": "address"
            },
            {
              "internalType": "uint128",
              "name": "estimatedBar",
              "type": "uint128"
            },
            {
              "internalType": "uint128",
              "name": "estimatedLar",
              "type": "uint128"
            },
            {
              "internalType": "uint256",
              "name": "maxAmountPerUser",
              "type": "uint256"
            },
            {
              "internalType": "bool",
              "name": "isReinvestToAaveEnabled",
              "type": "bool"
            },
            {
              "internalType": "bytes",
              "name": "barCalcParams",
              "type": "bytes"
            },
            {
              "internalType": "uint256",
              "name": "maxTotalDeposit",
              "type": "uint256"
            }
          ],
          "internalType": "struct IBucket.ConstructorParams",
          "name": "_params",
          "type": "tuple"
        },
        {
          "internalType": "address",
          "name": "_registry",
          "type": "address"
        }
      ],
      "name": "initialize",
      "outputs": [],
      "stateMutability": "nonpayable",
      "type": "function"
    },
    {
      "inputs": [],
      "name": "interestRateStrategy",
      "outputs": [
        {
          "internalType": "contract IInterestRateStrategy",
          "name": "",
          "type": "address"
        }
      ],
      "stateMutability": "view",
      "type": "function"
    },
    {
      "inputs": [],
      "name": "isActive",
      "outputs": [
        {
          "internalType": "bool",
          "name": "",
          "type": "bool"
        }
      ],
      "stateMutability": "view",
      "type": "function"
    },
    {
      "inputs": [],
      "name": "isBucketStable",
      "outputs": [
        {
          "internalType": "bool",
          "name": "",
          "type": "bool"
        }
      ],
      "stateMutability": "view",
      "type": "function"
    },
    {
      "inputs": [],
      "name": "isDelisted",
      "outputs": [
        {
          "internalType": "bool",
          "name": "",
          "type": "bool"
        }
      ],
      "stateMutability": "view",
      "type": "function"
    },
    {
      "inputs": [],
      "name": "isDeprecated",
      "outputs": [
        {
          "internalType": "bool",
          "name": "",
          "type": "bool"
        }
      ],
      "stateMutability": "view",
      "type": "function"
    },
    {
      "inputs": [],
      "name": "isReinvestToAaveEnabled",
      "outputs": [
        {
          "internalType": "bool",
          "name": "",
          "type": "bool"
        }
      ],
      "stateMutability": "view",
      "type": "function"
    },
    {
      "inputs": [],
      "name": "isWithdrawAfterDelistingAvailable",
      "outputs": [
        {
          "internalType": "bool",
          "name": "",
          "type": "bool"
        }
      ],
      "stateMutability": "view",
      "type": "function"
    },
    {
      "inputs": [],
      "name": "lar",
      "outputs": [
        {
          "internalType": "uint128",
          "name": "",
          "type": "uint128"
        }
      ],
      "stateMutability": "view",
      "type": "function"
    },
    {
      "inputs": [],
      "name": "lastUpdatedBlockTimestamp",
      "outputs": [
        {
          "internalType": "uint256",
          "name": "",
          "type": "uint256"
        }
      ],
      "stateMutability": "view",
      "type": "function"
    },
    {
      "inputs": [],
      "name": "liquidityIndex",
      "outputs": [
        {
          "internalType": "uint128",
          "name": "",
          "type": "uint128"
        }
      ],
      "stateMutability": "view",
      "type": "function"
    },
    {
      "inputs": [
        {
          "internalType": "address",
          "name": "_asset",
          "type": "address"
        }
      ],
      "name": "maxAssetLeverage",
      "outputs": [
        {
          "internalType": "uint256",
          "name": "",
          "type": "uint256"
        }
      ],
      "stateMutability": "view",
      "type": "function"
    },
    {
      "inputs": [
        {
          "internalType": "address",
          "name": "_asset",
          "type": "address"
        },
        {
          "internalType": "uint256",
          "name": "_feeRate",
          "type": "uint256"
        }
      ],
      "name": "maxAssetLeverage",
      "outputs": [
        {
          "internalType": "uint256",
          "name": "",
          "type": "uint256"
        }
      ],
      "stateMutability": "view",
      "type": "function"
    },
    {
      "inputs": [],
      "name": "maxTotalDeposit",
      "outputs": [
        {
          "internalType": "uint256",
          "name": "",
          "type": "uint256"
        }
      ],
      "stateMutability": "view",
      "type": "function"
    },
    {
      "inputs": [],
      "name": "name",
      "outputs": [
        {
          "internalType": "string",
          "name": "",
          "type": "string"
        }
      ],
      "stateMutability": "view",
      "type": "function"
    },
    {
      "inputs": [],
      "name": "pToken",
      "outputs": [
        {
          "internalType": "contract IPToken",
          "name": "",
          "type": "address"
        }
      ],
      "stateMutability": "view",
      "type": "function"
    },
    {
      "inputs": [
        {
          "internalType": "uint256",
          "name": "amount",
          "type": "uint256"
        }
      ],
      "name": "paybackPermanentLoss",
      "outputs": [],
      "stateMutability": "nonpayable",
      "type": "function"
    },
    {
      "inputs": [
        {
          "internalType": "address",
          "name": "_to",
          "type": "address"
        },
        {
          "internalType": "uint256",
          "name": "_amount",
          "type": "uint256"
        }
      ],
      "name": "performFlashLoanTransfer",
      "outputs": [],
      "stateMutability": "nonpayable",
      "type": "function"
    },
    {
      "inputs": [],
      "name": "permanentLoss",
      "outputs": [
        {
          "internalType": "uint256",
          "name": "",
          "type": "uint256"
        }
      ],
      "stateMutability": "view",
      "type": "function"
    },
    {
      "inputs": [],
      "name": "permanentLossScaled",
      "outputs": [
        {
          "internalType": "uint256",
          "name": "",
          "type": "uint256"
        }
      ],
      "stateMutability": "view",
      "type": "function"
    },
    {
      "inputs": [],
      "name": "positionManager",
      "outputs": [
        {
          "internalType": "contract IPositionManagerV2",
          "name": "",
          "type": "address"
        }
      ],
      "stateMutability": "view",
      "type": "function"
    },
    {
      "inputs": [
        {
          "internalType": "address",
          "name": "_pTokenReceiver",
          "type": "address"
        },
        {
          "internalType": "uint256",
          "name": "_amount",
          "type": "uint256"
        },
        {
          "internalType": "uint256",
          "name": "_duration",
          "type": "uint256"
        },
        {
          "internalType": "string",
          "name": "_bucketFrom",
          "type": "string"
        }
      ],
      "name": "receiveDeposit",
      "outputs": [],
      "stateMutability": "nonpayable",
      "type": "function"
    },
    {
      "inputs": [],
      "name": "registry",
      "outputs": [
        {
          "internalType": "address",
          "name": "",
          "type": "address"
        }
      ],
      "stateMutability": "view",
      "type": "function"
    },
    {
      "inputs": [
        {
          "internalType": "address",
          "name": "_assetToDelete",
          "type": "address"
        }
      ],
      "name": "removeAsset",
      "outputs": [],
      "stateMutability": "nonpayable",
      "type": "function"
    },
    {
      "inputs": [],
      "name": "reserve",
      "outputs": [
        {
          "internalType": "contract IReserve",
          "name": "",
          "type": "address"
        }
      ],
      "stateMutability": "view",
      "type": "function"
    },
    {
      "inputs": [],
      "name": "reserveRate",
      "outputs": [
        {
          "internalType": "uint256",
          "name": "",
          "type": "uint256"
        }
      ],
      "stateMutability": "view",
      "type": "function"
    },
    {
      "inputs": [],
      "name": "returnLiquidityFromAaveToBucket",
      "outputs": [],
      "stateMutability": "nonpayable",
      "type": "function"
    },
    {
      "inputs": [
        {
          "internalType": "bytes",
          "name": "_params",
          "type": "bytes"
        }
      ],
      "name": "setBarCalculationParams",
      "outputs": [],
      "stateMutability": "nonpayable",
      "type": "function"
    },
    {
      "inputs": [
        {
          "internalType": "address",
          "name": "_newBucketExtension",
          "type": "address"
        }
      ],
      "name": "setBucketExtension",
      "outputs": [],
      "stateMutability": "nonpayable",
      "type": "function"
    },
    {
      "inputs": [
        {
          "internalType": "uint256",
          "name": "_feeBuffer",
          "type": "uint256"
        }
      ],
      "name": "setFeeBuffer",
      "outputs": [],
      "stateMutability": "nonpayable",
      "type": "function"
    },
    {
      "inputs": [
        {
          "internalType": "address",
          "name": "_interestRateStrategy",
          "type": "address"
        }
      ],
      "name": "setInterestRateStrategy",
      "outputs": [],
      "stateMutability": "nonpayable",
      "type": "function"
    },
    {
      "inputs": [
        {
          "internalType": "uint256",
          "name": "_maxTotalDeposit",
          "type": "uint256"
        }
      ],
      "name": "setMaxTotalDeposit",
      "outputs": [],
      "stateMutability": "nonpayable",
      "type": "function"
    },
    {
      "inputs": [
        {
          "internalType": "uint256",
          "name": "_reserveRate",
          "type": "uint256"
        }
      ],
      "name": "setReserveRate",
      "outputs": [],
      "stateMutability": "nonpayable",
      "type": "function"
    },
    {
      "inputs": [
        {
          "internalType": "uint256",
          "name": "_withdrawalFeeRate",
          "type": "uint256"
        }
      ],
      "name": "setWithdrawalFee",
      "outputs": [],
      "stateMutability": "nonpayable",
      "type": "function"
    },
    {
      "inputs": [
        {
          "internalType": "bytes4",
          "name": "_interfaceId",
          "type": "bytes4"
        }
      ],
      "name": "supportsInterface",
      "outputs": [
        {
          "internalType": "bool",
          "name": "",
          "type": "bool"
        }
      ],
      "stateMutability": "view",
      "type": "function"
    },
    {
      "inputs": [],
      "name": "updateRates",
      "outputs": [],
      "stateMutability": "nonpayable",
      "type": "function"
    },
    {
      "inputs": [],
      "name": "variableBorrowIndex",
      "outputs": [
        {
          "internalType": "uint128",
          "name": "",
          "type": "uint128"
        }
      ],
      "stateMutability": "view",
      "type": "function"
    },
    {
      "inputs": [],
      "name": "whiteBlackList",
      "outputs": [
        {
          "internalType": "contract IWhiteBlackList",
          "name": "",
          "type": "address"
        }
      ],
      "stateMutability": "view",
      "type": "function"
    },
    {
      "inputs": [
        {
          "internalType": "address",
          "name": "_borrowAssetReceiver",
          "type": "address"
        },
        {
          "internalType": "uint256",
          "name": "_amount",
          "type": "uint256"
        }
      ],
      "name": "withdraw",
      "outputs": [],
      "stateMutability": "nonpayable",
      "type": "function"
    },
    {
      "inputs": [
        {
          "internalType": "uint256",
          "name": "_amount",
          "type": "uint256"
        }
      ],
      "name": "withdrawAfterDelisting",
      "outputs": [],
      "stateMutability": "nonpayable",
      "type": "function"
    },
    {
      "inputs": [],
      "name": "withdrawalFeeRate",
      "outputs": [
        {
          "internalType": "uint256",
          "name": "",
          "type": "uint256"
        }
      ],
      "stateMutability": "view",
      "type": "function"
    }
  ],
  "transactionHash": "0x52d65e1a8b627a1417e5279900461efeb3ba053d808fb61dce108a24299bb465",
  "args": [],
  "numDeployments": 5,
  "solcInputHash": "89aabf2fa537de3869c847bae20cae69",
  "bytecode": "0x6080806040523460bd576000549060ff8260081c16606b575060ff808216036031575b60405161558090816100c38239f35b60ff90811916176000557f7f26b83ff96e1f2b6a682f133852f6798a09c465da95921460cefb3847402498602060405160ff8152a1386022565b62461bcd60e51b815260206004820152602760248201527f496e697469616c697a61626c653a20636f6e747261637420697320696e697469604482015266616c697a696e6760c81b6064820152608490fd5b600080fdfe608080604052600436101561001357600080fd5b600090813560e01c90816301ffc9a714613c5d575080630224f16a14613c0857806306fdde0314613b3b5780631003d99d1461390757806313a1fcb9146138cb578063165e7805146138aa57806318f88b6d1461379457806322f3e2d4146136ff578063235f17f5146133a157806327c37b2514613380578063298410e5146133565780632a5ad1591461328f5780632acabb11146131b35780632e51d3ed1461317b57806330db5856146131585780633623869b14612dc85780633c3821f414612daf5780633e07460814612d865780633edd112814612b9257806343617c3114612acb5780634788278514612aad57806347e7ef24146128ef5780634872d327146128c85780634a5e42b1146127875780634ad09aa5146126d85780634b29b4c4146125785780634f43f2391461246c57806358a06f071461244357806358d7bf801461242557806368d0612f146123eb57806371a6cab7146123cd57806374375359146123b2578063791b98bc146123895780637a7ddbca146123605780637b10399914612337578063883c6b24146123145780638eed7780146122eb578063905e3837146122ca57806398cc6b1e146121c75780639b622c02146121a25780639e9786d014611f31578063a00622dc14611f13578063a223f82114611ef5578063a4c1cccb14611ead578063ac1e502514611e4f578063b28f7a1d14611e31578063bbf44f3314611e0a578063bd449dde14611de3578063bda896c4146112d6578063bf629cb51461121a578063c07dc61414611192578063c7178230146110cc578063cd3293de146110a3578063d0b6543d14610f95578063e526e4ab14610f24578063eae12b7f14610c6a578063ef379d1714610c41578063f066eea014610b79578063f3fef3a3146104a5578063f5bfeb4414610487578063f8190a4614610328578063f8d89898146102ff5763febb0f7e146102d657600080fd5b346102fc57806003193601126102fc5760206001600160801b03606d5416604051908152f35b80fd5b50346102fc57806003193601126102fc57606a546040516001600160a01b039091168152602090f35b50346102fc5760603660031901126102fc57610342613de8565b60243561034d613dfe565b91610356614486565b60ff607b5460a01c161561047557606b548493739216e34b2458B492b25abDE8546e56CA8A1acCD5916001600160a01b0316823b1561047157604051636336129b60e11b81529286928492839182916103b4918a9160048501613eec565b03915af490811561046657849161044d575b50506103d0614fec565b606a54606f5460801c906001600160a01b0316803b156104495761040e9385809460405196879586948593630ab714fb60e11b8552600485016142ba565b03925af1801561043e57610429575b50610426614da4565b80f35b8161043391613d7e565b6102fc57803861041d565b6040513d84823e3d90fd5b8480fd5b8161045791613d7e565b6104625782386103c6565b5050fd5b6040513d86823e3d90fd5b8580fd5b6040516379bb149f60e11b8152600490fd5b50346102fc57806003193601126102fc576020607754604051908152f35b50346102fc5760403660031901126102fc576104bf613de8565b602435906104cb6144ee565b6104d3614f41565b82607b5460ff8160a01c1615600014610a4f576001600160a01b0316803b15610a4b578160405180926308f57fc760e11b82526060600483015281838161051c60648201613f40565b3360248301528a604483015203925af1801561043e57610a36575b50506020610584925b60ff607b5460a01c16610a29575b60018060a01b03606954166001600160801b03606f54169186604051809781958294637a94c56560e11b845233600485016142ba565b03925af1918215610a1e5783926109ea575b50607354670de0b6b3a764000003670de0b6b3a764000081116109d657826105bd91614d4e565b6105c78184613fe7565b9060ff607b5460a01c1615806109ca575b806109bf575b610859575b606b546040516370a0823160e01b81523060048201526001600160a01b039091169190602081602481865afa90811561084e578791610817575b508511610805576083546040516361d027b360e01b81528794739216e34b2458B492b25abDE8546e56CA8A1acCD5949092602090839060049082906001600160a01b03165afa9182156107fa5786926107be575b50843b1561047157604051636336129b60e11b81529186918391829161069c91879160048501613eec565b0381875af49081156107b357859161079e575b50506040519081527f590e5a1563e349794fdcc066c4d5047f5e478f9e41707fc1bbad830146b7a17760203392a2606b546001600160a01b031690823b1561079a57604051636336129b60e11b8152928492849283918291610716918a9060048501613eec565b03915af4801561043e57610781575b505060ff607b5460a01c16610774575b6040519182526001600160a01b03169033907f9b1bfa7fa9ee420a16e124f794c35ac9f90472acc99140eb2f6447c714cad8eb90602090a36001805580f35b61077c614da4565b610735565b8161078b91613d7e565b610796578238610725565b8280fd5b8380fd5b816107a891613d7e565b61079a5783386106af565b6040513d87823e3d90fd5b9091506020813d6020116107f2575b816107da60209383613d7e565b81010312610471576107eb90613eb7565b9038610671565b3d91506107cd565b6040513d88823e3d90fd5b604051630d5f777560e21b8152600490fd5b90506020813d602011610846575b8161083260209383613d7e565b8101031261084157513861061d565b600080fd5b3d9150610825565b6040513d89823e3d90fd5b607d5442111561089d576040516391a9027b60e01b60208201526004815261089790610886602482613d7e565b6085546001600160a01b0316614ac7565b506105e3565b60835460405163a03e4bc360e01b815290602090829060049082906001600160a01b03165afa9081156107fa578691610985575b50606b54604051631a4ca37b60e21b81526001600160a01b039182166004820152602481018790523060448201529116906020816064818a865af1801561084e57610956575b507f6407790cdabc5d219eaf901091d6beccc475533065c2fbd374c8a32b1c6679586020604051878152a261094e84607754613fe7565b6077556105e3565b6020813d60201161097d575b8161096f60209383613d7e565b810103126108415751610917565b3d9150610962565b90506020813d6020116109b7575b816109a060209383613d7e565b81010312610471576109b190613eb7565b386108d1565b3d9150610993565b5060775415156105de565b5060ff607854166105d8565b634e487b7160e01b84526011600452602484fd5b9091506020813d602011610a16575b81610a0660209383613d7e565b8101031261084157519038610596565b3d91506109f9565b6040513d85823e3d90fd5b610a31614fec565b61054e565b81610a4091613d7e565b610796578238610537565b5080fd5b9050607f544210610a67575b50602061058492610540565b6069546040516370a0823160e01b815233600482015290602090829060249082906001600160a01b03165afa9081156107b3578591610b47575b506020604051809363be5daee560e01b8252604060048301528180610ac860448201613f40565b33602483015203916001600160a01b03165afa9081156107b3578591610b11575b610af39250613fe7565b8211610aff5738610a5b565b6040516342b0cbe760e11b8152600490fd5b90506020823d602011610b3f575b81610b2c60209383613d7e565b8101031261084157610af3915190610ae9565b3d9150610b1f565b90506020813d602011610b71575b81610b6260209383613d7e565b81010312610841575138610aa1565b3d9150610b55565b50346102fc57806003193601126102fc57604051806020607a5491828152018091607a85527ff0440771a29e57e18c66727944770b82cc77924aef333c927ce6bdd2cdb3ae0390855b818110610c225750505082610bd8910383613d7e565b604051928392602084019060208552518091526040840192915b818110610c00575050500390f35b82516001600160a01b0316845285945060209384019390920191600101610bf2565b82546001600160a01b0316845260209093019260019283019201610bc2565b50346102fc57806003193601126102fc576074546040516001600160a01b039091168152602090f35b50346102fc5760c03660031901126102fc576004356001600160401b038111610a4b57610c9b903690600401613e55565b6024929192356001600160401b03811161079657610cbd903690600401613e55565b9190610cc7613dfe565b92606435608435946044602060018060a01b036066541660405192838092632474521560e21b82527f28eb28c26cbbd48a6bfad016505ccf4a189452995f59d16217af8920961ed25c60048301523360248301525afa908115610f19578891610eea575b5015610ed85781610e5e575b5050610d41614fec565b60018060a01b03606a5416606f5460801c92813b15610e2e5760405163eb1738e560e01b815260806004820152608481018690529460a4860190885b818110610e3257505085810360031901602487015283815296975094958795906001600160fb1b038411610e2e576020868095938997938894839660051b809386840137604484015260a4356064840152010301925af1801561043e57610e19575b5050610de9614da4565b80610df2575080f35b610e0b610e13916001600160801b03606f541690615118565b607154613e94565b60715580f35b81610e2391613d7e565b610a4b578138610ddf565b8680fd5b909160019060209081906001600160a01b03610e4d8f613e14565b168152019b01910199919099610d7d565b606b54739216e34b2458B492b25abDE8546e56CA8A1acCD591906001600160a01b0316823b15610ed457604051636336129b60e11b81529389938593909284928392610ead9260048501613eec565b03915af480156107fa5790869115610d375781610ec991613d7e565b610449578438610d37565b8880fd5b60405163036be76f60e61b8152600490fd5b610f0c915060203d602011610f12575b610f048183613d7e565b810190613fcf565b38610d2b565b503d610efa565b6040513d8a823e3d90fd5b50346102fc5760203660031901126102fc57600435610f416143d5565b670de0b6b3a7640000811015610f83576020817fb2429786195476a340c6c3ff6be51a0d28d9ea08dea6c91a0720b1e200400e8c92607255604051908152a180f35b604051631757762160e01b8152600490fd5b50346102fc5760a03660031901126102fc57610faf613de8565b81610fb8613dfe565b6084359290606435610fc8614486565b80611030575b5050610fd8614fec565b60018060a01b03606a541690606f5460801c823b1561079a5761101892849283604051809681958294637a94c56560e11b845260243590600485016142ba565b03925af1801561043e57610e19575050610de9614da4565b606b546001600160a01b031690739216e34b2458B492b25abDE8546e56CA8A1acCD5803b156104715761107c93869360405195869485938493636336129b60e11b855260048501613eec565b03915af4908115610a1e57839115610fce578161109891613d7e565b610a4b578138610fce565b50346102fc57806003193601126102fc576068546040516001600160a01b039091168152602090f35b50346102fc57806003193601126102fc5760835460405163481d98fb60e11b815260206004820152919060809083906001600160a01b0316818061111260248201613f40565b03915afa918215611185578192611150575b50600382101561113c57602082600260405191148152f35b634e487b7160e01b81526021600452602490fd5b61117391925060803d60801161117e575b61116b8183613d7e565b810190613f0e565b505090509038611124565b503d611161565b50604051903d90823e3d90fd5b50346102fc5760203660031901126102fc576004356111af6142e5565b670de0b6b3a7640000811180611209575b156111f7576020817f6db5a699a2b18e7a2568814d453dff8a78eb41c9daf9d45bdeab3824f49c941592606c55604051908152a180f35b60405163c42aecdf60e01b8152600490fd5b50670e043da61725000081106111c0565b50346102fc5760403660031901126102fc57611234613de8565b61123c61441e565b60ff607b5460a01c161561047557606b548291739216e34b2458B492b25abDE8546e56CA8A1acCD5916001600160a01b0316823b156112d157604051636336129b60e11b815292849284928391829161129c916024359160048501613eec565b03915af4801561043e576112bc575b506112b4614fec565b610426614da4565b816112c691613d7e565b6102fc5780386112ab565b505050fd5b50346102fc5760403660031901126102fc576004356001600160401b038111610a4b5780600401906103006003198236030112610796576024356001600160a01b0381169081900361079a5783549260ff8460081c161593848095611dd6575b8015611dbf575b15611d635760ff198116600117865584611d52575b5060a48301602460206001600160a01b0361136c84614212565b6040516301ffc9a760e01b815263081e57a760e31b600482015293849290918391165afa90811561084e578791611d33575b5080611cc3575b80611c53575b80611be3575b80611b72575b80611b02575b15611af0576101248401600460206001600160a01b036113dc84614212565b166040519283809263313ce56760e01b82525afa908115610f195760129160ff918a91611ac1575b501611611aaf5761016485013567016345785d8a00008111611a9d57610144860135670de0b6b3a7640000811180611a8c575b156111f75761018487013592670de0b6b3a7640000841015610f83576102e48801358015611a7a576101c4890135806119075750607b805460ff60a01b1916600160a01b1790557f5023432d2ef8583c6eb5ee4501bf4740bf68b6fe4823da8f19ddedd1135f2a648b80a15b6079556102248801948a6001600160a01b036114be88614212565b166114cd6102c48c018a614253565b90823b1561079a5761150092849283604051809681958294632acabb1160e01b8452602060048501526024840191613ecb565b03925af1801561043e576118f2575b505061151b8780614253565b906001600160401b0382116118de578c8291611538606554613d12565b601f8111611866575b5081601f84116001146117f357926117e8575b50508160011b916000199060031b1c1916176065555b60248901356001600160a01b038116908190036117e457606980546001600160a01b0319169190911790556001600160a01b03906115a790614212565b166001600160601b0360a01b608354161760835560018060a01b036115ce60648a01614212565b166001600160601b0360a01b606754161760675560018060a01b036115f560848a01614212565b166001600160601b0360a01b6084541617608455604488013560018060a01b0381168091036117e057606a80546001600160a01b0319169190911790559596956001600160a01b0361164960c48901614212565b166001600160601b0360a01b606854161760685560018060a01b0361167060e48901614212565b166001600160601b0360a01b607454161760745561169460018060a01b0391614212565b166001600160601b0360a01b606b541617606b55606c55607355607255610104869301925b6116c38484614285565b905081101561171e576116d68484614285565b82101561170a57600582901b0135906001600160a01b038216820361170657611700600192614b6c565b016116b9565b8780fd5b634e487b7160e01b88526032600452602488fd5b50606680546001600160a01b031916909417909355506001600160a01b03916117479150614212565b166001600160601b0360a01b60765416176076557b033b2e3c9fd0803ce800000000000000033b2e3c9fd0803ce8000000606f558154906117a360ff8360081c166117918161529c565b61179a8161529c565b6001805561529c565b6117ab575080f35b61ff00191681557f7f26b83ff96e1f2b6a682f133852f6798a09c465da95921460cefb3847402498602060405160018152a180f35b8a80fd5b8b80fd5b013590503880611554565b925090601f1984166065845260008051602061552b833981519152935b81811061184e5750908460019594939210611834575b505050811b0160655561156a565b0135600019600384901b60f8161c19169055388080611826565b91936020600181928787013581550195019201611810565b91606591935052601f830160051c60008051602061552b8339815191520190602084106118c8575b918e91601f85940160051c60008051602061552b83398151915201905b8181106118b85750611541565b9283558493508f926001016118ab565b60008051602061552b833981519152915061188e565b634e487b7160e01b8d52604160045260248dfd5b816118fc91613d7e565b6117e0578a3861150f565b6101e48a0135428111806119fd575b806119ef575b156119de576102048b0135916119406119358484613e94565b806082554290613fe7565b6081556001600160a01b036119586101a48e01614212565b166001600160601b0360a01b607b541617607b55607c55607d55607e556102848901356080556001600160801b036119936102448b0161423f565b166fffffffffffffffffffffffffffffffff196119b36102648c0161423f565b60801b1617606e556102a48901358015158091036117e45760ff8019607854169116176078556114a3565b604051627706c160e81b8152600490fd5b506102848b0135151561191c565b508c602460208d611a186101a460018060a01b039201614212565b6040516301ffc9a760e01b815263edebbfe960e01b600482015293849290918391165afa918215611a6e5791611a4f575b50611916565b611a68915060203d602011610f1257610f048183613d7e565b38611a49565b604051903d90823e3d90fd5b604051637ed7b9ab60e11b8152600490fd5b50670e043da6172500008110611437565b60405163766a53cb60e01b8152600490fd5b60405163b7c73c5d60e01b8152600490fd5b611ae3915060203d602011611ae9575b611adb8183613d7e565b810190614226565b38611404565b503d611ad1565b60405163044aa57560e41b8152600490fd5b50602460206001600160a01b03611b1b60e48801614212565b6040516301ffc9a760e01b8152633df6cef760e01b600482015293849290918391165afa90811561084e578791611b53575b506113bd565b611b6c915060203d602011610f1257610f048183613d7e565b38611b4d565b50602460206001600160a01b03611b8c6102248801614212565b6040516301ffc9a760e01b8152633983653f60e21b600482015293849290918391165afa90811561084e578791611bc4575b506113b7565b611bdd915060203d602011610f1257610f048183613d7e565b38611bbe565b50602460206001600160a01b03611bfc60c48801614212565b6040516301ffc9a760e01b815263d4cb1bcb60e01b600482015293849290918391165afa90811561084e578791611c34575b506113b1565b611c4d915060203d602011610f1257610f048183613d7e565b38611c2e565b50602460206001600160a01b03611c6c60848801614212565b6040516301ffc9a760e01b81526333ca6d2360e21b600482015293849290918391165afa90811561084e578791611ca4575b506113ab565b611cbd915060203d602011610f1257610f048183613d7e565b38611c9e565b50602460206001600160a01b03611cdc60648801614212565b6040516301ffc9a760e01b8152633d79d7fb60e11b600482015293849290918391165afa90811561084e578791611d14575b506113a5565b611d2d915060203d602011610f1257610f048183613d7e565b38611d0e565b611d4c915060203d602011610f1257610f048183613d7e565b3861139e565b61ffff191661010117855538611352565b60405162461bcd60e51b815260206004820152602e60248201527f496e697469616c697a61626c653a20636f6e747261637420697320616c72656160448201526d191e481a5b9a5d1a585b1a5e995960921b6064820152608490fd5b50303b15801561133d5750600160ff82161461133d565b50600160ff821610611336565b50346102fc57806003193601126102fc5760206001600160801b03606e5416604051908152f35b50346102fc57806003193601126102fc5760206001600160801b03606f5416604051908152f35b50346102fc57806003193601126102fc576020607154604051908152f35b50346102fc5760203660031901126102fc57600435611e6c6143d5565b67016345785d8a00008111611a9d576020817ffc1353e6b18ce07b5a979c8edf77a87455939a17a9eebbb084dcde5bfb3b19ac92607355604051908152a180f35b50346102fc5760203660031901126102fc5760409081906001600160a01b03611ed4613de8565b16815260756020522060ff6001825492015416825191825215156020820152f35b50346102fc57806003193601126102fc576020607354604051908152f35b50346102fc57806003193601126102fc576020606c54604051908152f35b50346102fc5760803660031901126102fc576004356001600160401b038111610a4b57611f62903690600401613e28565b6024356001600160a01b038116939290849003610796576044356001600160401b03811161079a5790611f9d611fc295923690600401613e55565b959091604051946309e9786d60e41b60208701526080602487015260a4860191613ecb565b916044840152602319838303016064840152848252602082019060208660051b84010195819286925b828410612016578761201288610886818d606435608483015203601f198101835282613d7e565b5080f35b909192939497601f1989820301835261202f86836141de565b6120456040830191803584526020810190614179565b839192604060208396015252606081019060608460051b82010193838c905b8282106120885750949c99602090810199600101989701959450611feb9350505050565b909192939495605f9e9d9c9b9a99989e198582030186528c6120aa88846141de565b60408301906120d1906001600160a01b036120c482613e14565b1685526020810190614179565b849192604060208397015252606081019160608560051b83010194819492605e1983360301925b828510612124575050505050505060209d9e98999a9b9c9d806001929801960192019093929193612064565b90919293949596605f1983820301875287358581121561219957602061218a600193858394019061217c61216961215b84806141ad565b606085526060850191613ecb565b92858101358684015260408101906141ad565b916040818503910152613ecb565b990197019501939291906120f8565b50505050508f80fd5b50346102fc57806003193601126102fc5760206121bd6140d7565b6040519015158152f35b50346102fc57806003193601126102fc576101006040516121e781613d4c565b8281528260208201528260408201528260608201528260808201528260a08201528260c08201528260e0820152015261012060405161222581613d4c565b607b549060018060a01b0382169182825260ff602083019160a01c1615158152607c5460408301908152607d5460608401908152607e5460808501908152607f549160a086019283526080549360c087019485526081549560e08801968752610100608254980197885260405198895251151560208901525160408801525160608701525160808601525160a08501525160c08401525160e083015251610100820152f35b50346102fc57806003193601126102fc576020606d5460801c604051908152f35b50346102fc57806003193601126102fc57606b546040516001600160a01b039091168152602090f35b50346102fc57806003193601126102fc57602061232f6140b0565b604051908152f35b50346102fc57806003193601126102fc576066546040516001600160a01b039091168152602090f35b50346102fc57806003193601126102fc576085546040516001600160a01b039091168152602090f35b50346102fc57806003193601126102fc576067546040516001600160a01b039091168152602090f35b50346102fc57806003193601126102fc57602061232f614025565b50346102fc57806003193601126102fc576020607954604051908152f35b50346102fc57806003193601126102fc57602061232f6124196001600160801b03606d541660705490615176565b606f5460801c90614fb4565b50346102fc57806003193601126102fc576020607254604051908152f35b50346102fc57806003193601126102fc576069546040516001600160a01b039091168152602090f35b50346102fc5760203660031901126102fc576004356124896144ee565b6124a381612495614f41565b61249d6140b0565b90615118565b8015612566576125059160209160715480821161254b575b036071556069546001600160a01b03166124d36140b0565b604051637a94c56560e11b81523360048201526024810193909352604483015290928391908290869082906064820190565b03925af1801561043e5761251c575b506001805580f35b61253d9060203d602011612544575b6125358183613d7e565b810190613e85565b5038612514565b503d61252b565b9150508061256061255a6140b0565b83614fb4565b916124bb565b604051637c123f8b60e01b8152600490fd5b50346102fc5760403660031901126102fc5761259261441e565b61259a614fec565b606a546040516318160ddd60e01b815290602090829060049082906001600160a01b03165afa90811561043e5782916126a4575b506125de6125e691602435613e94565b600435615118565b676765c793fa10079d601b1b810180911161269057612612606f54916001600160801b03831690614fb4565b6001600160801b03811161263b576001600160801b0316906001600160801b03191617606f5580f35b60405162461bcd60e51b815260206004820152602760248201527f53616665436173743a2076616c756520646f65736e27742066697420696e20316044820152663238206269747360c81b6064820152608490fd5b634e487b7160e01b82526011600452602482fd5b90506020813d6020116126d0575b816126bf60209383613d7e565b8101031261084157516125de6125ce565b3d91506126b2565b50346102fc57806003193601126102fc5760835460405163481d98fb60e11b815260206004820152919060809083906001600160a01b0316818061271e60248201613f40565b03915afa908115611a6e578092819261275f575b50600383101561113c57506002602092149081612755575b506040519015158152f35b905042113861274a565b90925061277b915060803d60801161117e5761116b8183613d7e565b50929150919038612732565b50346102fc5760203660031901126102fc576127a1613de8565b6127a961436d565b6001600160a01b0316808252607560205260408220600181015460ff16156128b657607a5460001981019081116109d6576127e390613ff4565b60018060a01b0391549060031b1c1690612825826128018354613ff4565b81546001600160a01b0393841660039290921b91821b9390911b1916919091179055565b607a5480156128a257917fa48303bd6cd678b9b13454996417095d2d282db59c4db9ba88df8c82d048697893916020936000190161286281613ff4565b81549060018060a01b039060031b1b19169055607a555490855260758352604085205580845260758252836001604082208281550155604051908152a180f35b634e487b7160e01b85526031600452602485fd5b60405163b7addff360e01b8152600490fd5b50346102fc57806003193601126102fc57602061232f6071546128e96140b0565b90614fb4565b50346102fc5760403660031901126102fc57612909613de8565b602435906129156144ee565b61291d614f41565b6069546040516318160ddd60e01b815290602090829060049082906001600160a01b03165afa80156104665783908590612a77575b61295c9250613e94565b6079541115612a6557606b5460405163c37f7f7f60e01b8152906020908290819061299790879033906001600160a01b031660048501613eec565b0381739216e34b2458B492b25abDE8546e56CA8A1acCD55af4801561046657612a46575b50607b5460a01c60ff1615612a15576129d48282614989565b505b6040519182526001600160a01b03169033907f5548c837ab068cf56a2c2479df0882a4922fd203edb7517321831d95078c5f6290602090a36001805580f35b336001600160a01b03821603612a3457612a2f8282614544565b6129d6565b60405163217fe6c760e11b8152600490fd5b612a5e9060203d602011612544576125358183613d7e565b50386129bb565b604051630a5a765f60e31b8152600490fd5b50506020813d602011612aa5575b81612a9260209383613d7e565b81010312610841578261295c9151612952565b3d9150612a85565b50346102fc57806003193601126102fc576020607054604051908152f35b50346102fc5760203660031901126102fc57612ae5613de8565b612aed6143d5565b6040516301ffc9a760e01b8152630f3e84ab60e01b60048201526001600160a01b039190911690602081602481855afa908115610a1e578391612b73575b5015611af0576020817ff52905810dc4b9fa0c6e3dadb886cc902bc6a2d4acdf3c04e4c80be50d0804fa926001600160601b0360a01b6085541617608555604051908152a180f35b612b8c915060203d602011610f1257610f048183613d7e565b38612b2b565b50346102fc5760603660031901126102fc57612bac613de8565b60243590604435801515810361079a57612bc46144ee565b612bcc614f41565b6069546040516318160ddd60e01b815290602090829060049082906001600160a01b03165afa80156107b35784908690612d50575b612c0b9250613e94565b6079541115612a655715612c6357606b5460405163c37f7f7f60e01b8152906020908290819061299790879033906001600160a01b031660048501613eec565b607b5460a01c60ff1615612a15576129d48282614989565b606754604051634cb4430f60e11b81528491602090829060049082906001600160a01b03165afa90811561043e578291612d0e575b50606b546001600160a01b039182169116813b1561079657829160a48392604051948593849263c268dd3160e01b845233600485015230602485015260448401528960648401528160848401525af1801561043e57612cf9575b5050612c4b565b81612d0391613d7e565b610796578238612cf2565b90506020813d602011612d48575b81612d2960209383613d7e565b81010312610a4b57516001600160a01b0381168103610a4b5738612c98565b3d9150612d1c565b50506020813d602011612d7e575b81612d6b60209383613d7e565b810103126108415783612c0b9151612c01565b3d9150612d5e565b50346102fc57806003193601126102fc576076546040516001600160a01b039091168152602090f35b50346102fc57806003193601126102fc576112b461441e565b50346102fc5760403660031901126102fc57612de2613de8565b6001600160a01b03811682526075602052604082206001015460ff16156128b65760675460405163084b557b60e21b81526001600160a01b0390911690602081600481855afa908115610466578491613126575b50670de0b6b3a7640000019283670de0b6b3a76400001161302257612e67606c54612e618187614d4e565b95614d4e565b916040516301ddf49360e61b8152602081600481855afa908115610a1e5783916130f4575b50670de0b6b3a76400000390670de0b6b3a764000082116130e057608454606b54604051631dae49b960e21b81526001600160a01b038881166004830152918216602482018190529492909160209183916044918391165afa9081156107b35785916130ae575b50670de0b6b3a76400000390670de0b6b3a764000082116130685790612f1891614d4e565b60405163a8905dab60e01b81526001600160a01b03848116600483015287166024820152602081604481865afa9081156107b357859161307c575b50670de0b6b3a76400000390670de0b6b3a764000082116130685791612f7f612fb59492602094614d4e565b60405163a8905dab60e01b81526001600160a01b0398891660048201529290971660248301529092839190829081906044820190565b03915afa90811561043e578291613036575b50670de0b6b3a76400000390670de0b6b3a7640000821161302257602061232f8661301d61301361300d6024356130088a6130028b8e614d4e565b90613fe7565b613e94565b9261537a565b8260011c906153d9565b6141f2565b634e487b7160e01b81526011600452602490fd5b90506020813d602011613060575b8161305160209383613d7e565b81010312610841575138612fc7565b3d9150613044565b634e487b7160e01b85526011600452602485fd5b90506020813d6020116130a6575b8161309760209383613d7e565b81010312610841575138612f53565b3d915061308a565b90506020813d6020116130d8575b816130c960209383613d7e565b81010312610841575138612ef3565b3d91506130bc565b634e487b7160e01b83526011600452602483fd5b90506020813d60201161311e575b8161310f60209383613d7e565b81010312610841575138612e8c565b3d9150613102565b90506020813d602011613150575b8161314160209383613d7e565b81010312610841575138612e36565b3d9150613134565b50346102fc57806003193601126102fc57602060ff607854166040519015158152f35b50346102fc57806003193601126102fc5760ff607b5460a01c16806131a8575b6020906040519015158152f35b50607f54421161319b565b50346102fc5760203660031901126102fc576004356001600160401b038111610a4b576131e4903690600401613e28565b906131ed6142e5565b60765483906001600160a01b0316803b15610a4b57816040518092632acabb1160e01b82526020600483015281838161322a602482018b8b613ecb565b03925af1801561043e5761327a575b50507f1ec1ec5da499bc02a52ae44524fff931d2e18c66681bc49118287b566c20174c91613274604051928392602084526020840191613ecb565b0390a180f35b8161328491613d7e565b610796578238613239565b50346102fc5760203660031901126102fc576132a9613de8565b6132b16142e5565b6040516301ffc9a760e01b8152633983653f60e21b60048201526001600160a01b039190911690602081602481855afa908115610a1e578391613337575b5015611af0576020817f34f2d9c40aeb8886df9cdf9e12d06e2eba1c570a1b296552fe70f037e72bf12c926001600160601b0360a01b6076541617607655604051908152a180f35b613350915060203d602011610f1257610f048183613d7e565b386132ef565b50346102fc5760203660031901126102fc57610426613373613de8565b61337b61436d565b614b6c565b50346102fc57806003193601126102fc576020606e5460801c604051908152f35b50346102fc5760203660031901126102fc576133bb613de8565b6001600160a01b03811682526075602052604082206001015460ff16156128b65760675460405163084b557b60e21b81526001600160a01b0390911690602081600481855afa9081156104665784916136cd575b50670de0b6b3a7640000019182670de0b6b3a7640000116109d657613440606c5461343a8186614d4e565b94614d4e565b916040516301ddf49360e61b8152602081600481855afa9081156107fa57869161369b575b50670de0b6b3a76400000390670de0b6b3a7640000821161368757608454606b54604051631dae49b960e21b81526001600160a01b038681166004830152918216602482018190529492909160209183916044918391165afa908115610f19578891613655575b50670de0b6b3a76400000390670de0b6b3a7640000821161360f57906134f191614d4e565b60405163a8905dab60e01b81526001600160a01b03848116600483015285166024820152602081604481865afa908115610f19578891613623575b50670de0b6b3a76400000390670de0b6b3a7640000821161360f579161355861358e9492602094614d4e565b60405163a8905dab60e01b81526001600160a01b0396871660048201529290951660248301529092839190829081906044820190565b03915afa9081156107b35785916135dd575b50670de0b6b3a76400000390670de0b6b3a764000082116130685761232f936135d66020969461300261301d9561301395614d4e565b935061537a565b90506020813d602011613607575b816135f860209383613d7e565b810103126108415751386135a0565b3d91506135eb565b634e487b7160e01b88526011600452602488fd5b90506020813d60201161364d575b8161363e60209383613d7e565b8101031261084157513861352c565b3d9150613631565b90506020813d60201161367f575b8161367060209383613d7e565b810103126108415751386134cc565b3d9150613663565b634e487b7160e01b86526011600452602486fd5b90506020813d6020116136c5575b816136b660209383613d7e565b81010312610841575138613465565b3d91506136a9565b90506020813d6020116136f7575b816136e860209383613d7e565b8101031261084157513861340f565b3d91506136db565b50346102fc57806003193601126102fc5760835460405163481d98fb60e11b815260206004820152919060809083906001600160a01b0316818061374560248201613f40565b03915afa91821561118557819261376f575b50600382101561113c57602082600160405191148152f35b61378991925060803d60801161117e5761116b8183613d7e565b505090509038613757565b50346102fc5760203660031901126102fc576137ae6143d5565b6137b66140d7565b1561389957606b546083546040516361d027b360e01b81528392739216e34b2458B492b25abDE8546e56CA8A1acCD5926001600160a01b039182169160209184916004918391165afa91821561046657849261385d575b50823b156112d15761383b928492604051809581948293636336129b60e11b84526004359160048501613eec565b03915af4801561043e5761384c5750f35b8161385691613d7e565b6102fc5780f35b9091506020813d602011613891575b8161387960209383613d7e565b810103126112d15761388a90613eb7565b903861380d565b3d915061386c565b60405162a5e71360e71b8152600490fd5b50346102fc57806003193601126102fc576020606f5460801c604051908152f35b50346102fc57806003193601126102fc576138e461436d565b6040516391a9027b60e01b60208201526004815261201290610886602482613d7e565b50346102fc5760803660031901126102fc57613921613de8565b602435906044356064356001600160401b03811161044957613947903690600401613e28565b61394f6144ee565b6069546040516318160ddd60e01b815290602090829060049082906001600160a01b03165afa801561084e5786908890613b05575b61398e9250613e94565b6079541115612a655760835460405163af9a2aa760e01b81526020600482018190529093909284926001600160a01b031691839182916139d2916024840191613ecb565b03915afa9081156107b3578591613acb575b50336001600160a01b0390911603610ed857607b5460a01c60ff1615613ac05780613a4957506040519182526001600160a01b03169033907f5548c837ab068cf56a2c2479df0882a4922fd203edb7517321831d95078c5f6290602090a36001805580f35b6069546001600160a01b0316908490613a628585614989565b92803b1561079657604051632fc3a4b160e21b81526001600160a01b0386166004820152602481019490945260448401919091528290606490829084905af1801561046657156129d45783613ab991949294613d7e565b91386129d4565b50612a2f8282614544565b90506020813d602011613afd575b81613ae660209383613d7e565b8101031261044957613af790613eb7565b386139e4565b3d9150613ad9565b50506020813d602011613b33575b81613b2060209383613d7e565b81010312610e2e578561398e9151613984565b3d9150613b13565b50346102fc57806003193601126102fc57604051908060655490613b5e82613d12565b8085529160018116908115613be15750600114613b96575b613b9284613b8681860382613d7e565b60405191829182613d9f565b0390f35b6065815260008051602061552b833981519152939250905b808210613bc757509091508101602001613b8682613b76565b919260018160209254838588010152019101909291613bae565b60ff191660208087019190915292151560051b85019092019250613b869150839050613b76565b50346102fc5760203660031901126102fc57600435613c256142e5565b8015611a7a576020817fd2c55fe32fb2122608950e8daf3216fe57018c4ae02a3b66132249300e8702ed92607955604051908152a180f35b905034610a4b576020366003190112610a4b5760043563ffffffff60e01b8116809103610796576020925063c873098560e01b8114908115613d01575b8115613cf0575b8115613cdf575b8115613cce575b8115613cbd575b5015158152f35b6301ffc9a760e01b14905038613cb6565b63cad9e0d360e01b81149150613caf565b636401839b60e01b81149150613ca8565b6307dba22560e31b81149150613ca1565b633aa17d5560e11b81149150613c9a565b90600182811c92168015613d42575b6020831014613d2c57565b634e487b7160e01b600052602260045260246000fd5b91607f1691613d21565b61012081019081106001600160401b03821117613d6857604052565b634e487b7160e01b600052604160045260246000fd5b90601f801991011681019081106001600160401b03821117613d6857604052565b91909160208152825180602083015260005b818110613dd2575060409293506000838284010152601f8019910116010190565b8060208092870101516040828601015201613db1565b600435906001600160a01b038216820361084157565b604435906001600160a01b038216820361084157565b35906001600160a01b038216820361084157565b9181601f84011215610841578235916001600160401b038311610841576020838186019501011161084157565b9181601f84011215610841578235916001600160401b038311610841576020808501948460051b01011161084157565b90816020910312610841575190565b91908201809211613ea157565b634e487b7160e01b600052601160045260246000fd5b51906001600160a01b038216820361084157565b908060209392818452848401376000828201840152601f01601f1916010190565b6001600160a01b03918216815291166020820152604081019190915260600190565b919082608091031261084157613f2382613eb7565b916020810151600381101561084157916060604083015192015190565b60655460009291613f5082613d12565b8082529160018116908115613fb35750600114613f6b575050565b6065600090815292935090919060008051602061552b8339815191525b838310613f99575060209250010190565b600181602092949394548385870101520191019190613f88565b9050602093945060ff929192191683830152151560051b010190565b90816020910312610841575180151581036108415790565b91908203918211613ea157565b607a5481101561400f57607a60005260206000200190600090565b634e487b7160e01b600052603260045260246000fd5b606b546040516370a0823160e01b815230600482015290602090829060249082906001600160a01b03165afa80156140a457600090614070575b61406d915060775490613e94565b90565b506020813d60201161409c575b8161408a60209383613d7e565b810103126108415761406d905161405f565b3d915061407d565b6040513d6000823e3d90fd5b61406d6140c5606d5460801c6070549061526a565b6001600160801b03606f541690614fb4565b60835460405163481d98fb60e11b8152602060048201529060809082906001600160a01b0316818061410b60248201613f40565b03915afa9081156140a457600090600092614155575b50600381101561413f576002149081614138575090565b9050421190565b634e487b7160e01b600052602160045260246000fd5b9050614170915060803d60801161117e5761116b8183613d7e565b92505038614121565b9035601e19823603018112156108415701602081359101916001600160401b038211610841578160051b3603831361084157565b9035601e19823603018112156108415701602081359101916001600160401b03821161084157813603831361084157565b9035603e1982360301811215610841570190565b81156141fc570490565b634e487b7160e01b600052601260045260246000fd5b356001600160a01b03811681036108415790565b90816020910312610841575160ff811681036108415790565b356001600160801b03811681036108415790565b903590601e198136030182121561084157018035906001600160401b0382116108415760200191813603831361084157565b903590601e198136030182121561084157018035906001600160401b03821161084157602001918160051b3603831361084157565b6001600160a01b03909116815260208101919091526001600160801b03909116604082015260600190565b606654604051632474521560e21b81527fc0fc8e4dc5cff6febdf550b80d566f654e2baf1a02ea1060208c2f8ab2dd1b63600482015233602482015290602090829060449082906001600160a01b03165afa9081156140a45760009161434e575b5015610ed857565b614367915060203d602011610f1257610f048183613d7e565b38614346565b606654604051632474521560e21b81527f5a7d4408f4759dddd7fdfd0d21abd99341dc2f52cda14804988a9b2df20766d8600482015233602482015290602090829060449082906001600160a01b03165afa9081156140a45760009161434e575015610ed857565b606654604051632474521560e21b81526000600482015233602482015290602090829060449082906001600160a01b03165afa9081156140a45760009161434e575015610ed857565b606654604051632474521560e21b81527f4c5be4f3fb700e9d10e27553bbef3e4a6f7d97252fbb61c7cdfc73a1de4a3bbd600482015233602482015290602090829060449082906001600160a01b03165afa9081156140a45760009161434e575015610ed857565b606654604051632474521560e21b81527f5580ea9b7f9becaa48a78f506a2019ea24794b7a717ee6a4b9f62e36b94c25a6600482015233602482015290602090829060449082906001600160a01b03165afa9081156140a45760009161434e575015610ed857565b6002600154146144ff576002600155565b60405162461bcd60e51b815260206004820152601f60248201527f5265656e7472616e637947756172643a207265656e7472616e742063616c6c006044820152606490fd5b607d54916000924211614977576145628161455d614025565b613fe7565b606954606f54604051630ab714fb60e11b81529160209183916001600160a01b0316908290899082906145a3906001600160801b03168a8c600485016142ba565b03925af180156107b357614948575b50607c5481101561493a576145c990607c54613fe7565b8181111561492b575060ff60785416614707575b60018060a01b03607b541660405163be5daee560e01b8152604060048201526020818061460c60448201613f40565b6001600160a01b0390971660248201819052960381855afa80156107b357839086906146d1575b61463d9250613e94565b608054106146bf5760825460815492823b15610471579085809493926040519687958694859363e976e18b60e01b855260c0600486015261468060c48601613f40565b9360248601526044850152606484015260848301524260a483015203925af1801561043e576146ad575050565b6146b8828092613d7e565b6102fc5750565b60405163c7e138ed60e01b8152600490fd5b50506020813d6020116146ff575b816146ec60209383613d7e565b81010312610841578261463d9151614633565b3d91506146df565b606b546040516370a0823160e01b8152306004820152906001600160a01b0316602082602481845afa9182156107b35785926148f6575b5060049061474e83607754613e94565b60775560835460405163a03e4bc360e01b81529260209184919082906001600160a01b03165afa9182156107fa5790839187936148b6575b50826020916147a96040519485938493636fe2528b60e11b855260048501613eec565b038173d63A1F3b359449812C0FD732895dcc18d6e551955af480156107fa57614887575b50606b546001600160a01b03918216929116823b15610471576040519063617ba03760e01b82526004820152816024820152306044820152856064820152858160848183875af180156107fa57614850575b5060207f3b1270fa6f77c9af94834571cf5274944e8712de6cebea9ec3d8b3452c05330891604051908152a26145dd565b8561487f7f3b1270fa6f77c9af94834571cf5274944e8712de6cebea9ec3d8b3452c0533089397602093613d7e565b95915061481f565b6020813d6020116148ae575b816148a060209383613d7e565b8101031261047157516147cd565b3d9150614893565b915091506020813d6020116148ee575b816148d360209383613d7e565b810103126104715760206148e78492613eb7565b9290614786565b3d91506148c6565b9091506020813d602011614923575b8161491260209383613d7e565b81010312610449575190600461473e565b3d9150614905565b90506149356152fc565b6145dd565b505050506149466152fc565b565b6020813d60201161496f575b8161496160209383613d7e565b8101031261044957516145b2565b3d9150614954565b604051639a9a6f1760e01b8152600490fd5b60835460405163af9a2aa760e01b8152602060048201819052929392909182906001600160a01b031681806149c060248201613f40565b03915afa9081156140a457600091614a8d575b50306001600160a01b0390911603614a7b57614a2c916020916149f4614fec565b60018060a01b03606954169060006001600160801b03606f54169360405196879586948593630ab714fb60e11b8552600485016142ba565b03925af19081156140a457600091614a49575b5090614946614da4565b90506020813d602011614a73575b81614a6460209383613d7e565b81010312610841575138614a3f565b3d9150614a57565b604051636f2f995760e01b8152600490fd5b90506020813d602011614abf575b81614aa860209383613d7e565b8101031261084157614ab990613eb7565b386149d3565b3d9150614a9b565b9060008060405192614ada606085613d7e565b602784527f416464726573733a206c6f772d6c6576656c2064656c65676174652063616c6c6020850152660819985a5b195960ca1b6040850152602081519101855af43d15614b5f573d906001600160401b038211613d685760405161406d949092614b50601f8201601f191660200185613d7e565b83523d6000602085013e615495565b9161406d92606091615495565b6001600160a01b038116908115614d3c5781600052607560205260ff60016040600020015416614d2a5760405163313ce56760e01b8152602081600481865afa9081156140a45760129160ff91600091614d0b575b501611611aaf57608454606b54604051634858138f60e01b81526001600160a01b03848116600483015291821660248201529160209183916044918391165afa9081156140a457600091614cd9575b5015614cc757607a549068010000000000000000821015613d6857612801826001614c3e9401607a55613ff4565b607a54600019810191908211613ea1576040519060408201918083106001600160401b03841117613d68577fb38e19e04618f9502008311560587c597fe11e8867226353a0c01aab7e4df2939360209360405281526001838201918183528360005260758552604060002090518155019051151560ff80198354169116179055604051908152a1565b604051633c15d6ff60e21b8152600490fd5b90506020813d602011614d03575b81614cf460209383613d7e565b81010312610841575138614c10565b3d9150614ce7565b614d24915060203d602011611ae957611adb8183613d7e565b38614bc1565b604051632d6c6ae560e01b8152600490fd5b6040516346ec28e560e11b8152600490fd5b90614d58916153a2565b6706f05b59d3b20000810190818111613ea1578110614d7f57670de0b6b3a7640000900490565b630a77254f60e01b60005260046000fd5b51906001600160801b038216820361084157565b606a546040516318160ddd60e01b815290602090829060049082906001600160a01b03165afa9081156140a457600091614f0f575b50614de681613008614025565b80614e4d5750506000606d555b7f9cf6ed4d2e86c73a9ce91a9baa90bb3a472323bb366819d0934e0d95d3e7500e60a0606d546001600160801b03606f5460405192828116845260801c60208401528060801c6040840152166060820152426080820152a1565b6076546001600160a01b031691604091614e6691615118565b604460725491600084519586948593630884b37d60e11b8552600485015260248401525af19081156140a457600090600092614ebf575b506001600160801b0316906001600160801b03199060801b1617606d55614df3565b9150506040813d604011614f07575b81614edb60409383613d7e565b81010312610841576001600160801b03614f006020614ef984614d90565b9301614d90565b9190614e9d565b3d9150614ece565b906020823d602011614f39575b81614f2960209383613d7e565b810103126102fc57505138614dd9565b3d9150614f1c565b607454604051630723eb0360e51b815233600482015290602090829060249082906001600160a01b03165afa9081156140a457600091614f95575b50614f8357565b6040516333df015b60e01b8152600490fd5b614fae915060203d602011610f1257610f048183613d7e565b38614f7c565b90614fbe916153a2565b6b019d971e4fe8401e74000000810190818111613ea1578110614d7f57676765c793fa10079d601b1b900490565b606d54607054614fff818360801c61526a565b90615017606f54926001600160801b03841690614fb4565b926001600160801b03841161510657615041615057926001600160801b0380961695869316615176565b926001600160801b0319161760801c8092614fb4565b916001600160801b0383116150f4576004926001600160801b03199060801b16179081606f5542607055602060018060a01b03606a54166040519485809263b1bf962d60e01b82525afa9182156140a4576000926150be575b614946935060801c916153ee565b91506020833d6020116150ec575b816150d960209383613d7e565b81010312610841576149469251916150b0565b3d91506150cc565b60405163306e92a960e11b8152600490fd5b604051632db5409f60e21b8152600490fd5b90600091676765c793fa10079d601b1b8082029382850482148315171561302257508304036151525761301d61406d928260011c906153d9565b631550e8b760e01b60005260046000fd5b81810292918115918404141715613ea157565b906151819042613fe7565b90811561525957600019820191808311613ea1576002811115615244576001198101818111613ea1576301e13380916006615210615217935b61520166038882915c40006151cf8980614fb4565b04916152016152066906a4334962924ee000006151f58c6151f08180614fb4565b614fb4565b04946152018d8a615163565b615163565b60011c9a87615163565b0493615163565b04676765c793fa10079d601b1b0180676765c793fa10079d601b1b11613ea15761406d9261300891613e94565b6152176301e1338091600661521060006151ba565b5050676765c793fa10079d601b1b90565b6152839061527d6301e133809342613fe7565b90615163565b04676765c793fa10079d601b1b8101809111613ea15790565b156152a357565b60405162461bcd60e51b815260206004820152602b60248201527f496e697469616c697a61626c653a20636f6e7472616374206973206e6f74206960448201526a6e697469616c697a696e6760a81b6064820152608490fd5b607b805460ff60a01b1916600160a01b179055607e5461531c9042613e94565b607f5560ff60785416615351575b7f5023432d2ef8583c6eb5ee4501bf4740bf68b6fe4823da8f19ddedd1135f2a64600080a1565b6040516391a9027b60e01b60208201526004815261537490610886602482613d7e565b5061532a565b90600091670de0b6b3a764000080820282810482148315171561306857809450040361515257565b6000929180159182156153b9575b50501561515257565b915092506153d16153ca8483615163565b93846141f2565b1438806153b0565b91906153e59083613e94565b918210614d7f57565b919060725492600093801561548e576069546068546001600160a01b0390811695911693615435936154309290916130029161542a9084614fb4565b92614fb4565b614d4e565b6001600160801b03606f541692823b15610449579161546f9391858094604051968795869485936327883e6160e21b8552600485016142ba565b03925af1801561043e57615481575050565b8161548b91613d7e565b50565b5050505050565b919290156154f757508151156154a9575090565b3b156154b25790565b60405162461bcd60e51b815260206004820152601d60248201527f416464726573733a2063616c6c20746f206e6f6e2d636f6e74726163740000006044820152606490fd5b82519091501561550a5750805190602001fd5b60405162461bcd60e51b81529081906155269060048301613d9f565b0390fdfe8ff97419363ffd7000167f130ef7168fbea05faf9251824ca5043f113cc6a7c7a2646970667358221220c20464f379d52848ec0e07dff7918854aab060a2b88bf902dd0187dd48e5646564736f6c634300081a0033",
  "deployedBytecode": "0x608080604052600436101561001357600080fd5b600090813560e01c90816301ffc9a714613c5d575080630224f16a14613c0857806306fdde0314613b3b5780631003d99d1461390757806313a1fcb9146138cb578063165e7805146138aa57806318f88b6d1461379457806322f3e2d4146136ff578063235f17f5146133a157806327c37b2514613380578063298410e5146133565780632a5ad1591461328f5780632acabb11146131b35780632e51d3ed1461317b57806330db5856146131585780633623869b14612dc85780633c3821f414612daf5780633e07460814612d865780633edd112814612b9257806343617c3114612acb5780634788278514612aad57806347e7ef24146128ef5780634872d327146128c85780634a5e42b1146127875780634ad09aa5146126d85780634b29b4c4146125785780634f43f2391461246c57806358a06f071461244357806358d7bf801461242557806368d0612f146123eb57806371a6cab7146123cd57806374375359146123b2578063791b98bc146123895780637a7ddbca146123605780637b10399914612337578063883c6b24146123145780638eed7780146122eb578063905e3837146122ca57806398cc6b1e146121c75780639b622c02146121a25780639e9786d014611f31578063a00622dc14611f13578063a223f82114611ef5578063a4c1cccb14611ead578063ac1e502514611e4f578063b28f7a1d14611e31578063bbf44f3314611e0a578063bd449dde14611de3578063bda896c4146112d6578063bf629cb51461121a578063c07dc61414611192578063c7178230146110cc578063cd3293de146110a3578063d0b6543d14610f95578063e526e4ab14610f24578063eae12b7f14610c6a578063ef379d1714610c41578063f066eea014610b79578063f3fef3a3146104a5578063f5bfeb4414610487578063f8190a4614610328578063f8d89898146102ff5763febb0f7e146102d657600080fd5b346102fc57806003193601126102fc5760206001600160801b03606d5416604051908152f35b80fd5b50346102fc57806003193601126102fc57606a546040516001600160a01b039091168152602090f35b50346102fc5760603660031901126102fc57610342613de8565b60243561034d613dfe565b91610356614486565b60ff607b5460a01c161561047557606b54849373__$183737d697d7aa9b5df9988cbe11bc4947$__916001600160a01b0316823b1561047157604051636336129b60e11b81529286928492839182916103b4918a9160048501613eec565b03915af490811561046657849161044d575b50506103d0614fec565b606a54606f5460801c906001600160a01b0316803b156104495761040e9385809460405196879586948593630ab714fb60e11b8552600485016142ba565b03925af1801561043e57610429575b50610426614da4565b80f35b8161043391613d7e565b6102fc57803861041d565b6040513d84823e3d90fd5b8480fd5b8161045791613d7e565b6104625782386103c6565b5050fd5b6040513d86823e3d90fd5b8580fd5b6040516379bb149f60e11b8152600490fd5b50346102fc57806003193601126102fc576020607754604051908152f35b50346102fc5760403660031901126102fc576104bf613de8565b602435906104cb6144ee565b6104d3614f41565b82607b5460ff8160a01c1615600014610a4f576001600160a01b0316803b15610a4b578160405180926308f57fc760e11b82526060600483015281838161051c60648201613f40565b3360248301528a604483015203925af1801561043e57610a36575b50506020610584925b60ff607b5460a01c16610a29575b60018060a01b03606954166001600160801b03606f54169186604051809781958294637a94c56560e11b845233600485016142ba565b03925af1918215610a1e5783926109ea575b50607354670de0b6b3a764000003670de0b6b3a764000081116109d657826105bd91614d4e565b6105c78184613fe7565b9060ff607b5460a01c1615806109ca575b806109bf575b610859575b606b546040516370a0823160e01b81523060048201526001600160a01b039091169190602081602481865afa90811561084e578791610817575b508511610805576083546040516361d027b360e01b8152879473__$183737d697d7aa9b5df9988cbe11bc4947$__949092602090839060049082906001600160a01b03165afa9182156107fa5786926107be575b50843b1561047157604051636336129b60e11b81529186918391829161069c91879160048501613eec565b0381875af49081156107b357859161079e575b50506040519081527f590e5a1563e349794fdcc066c4d5047f5e478f9e41707fc1bbad830146b7a17760203392a2606b546001600160a01b031690823b1561079a57604051636336129b60e11b8152928492849283918291610716918a9060048501613eec565b03915af4801561043e57610781575b505060ff607b5460a01c16610774575b6040519182526001600160a01b03169033907f9b1bfa7fa9ee420a16e124f794c35ac9f90472acc99140eb2f6447c714cad8eb90602090a36001805580f35b61077c614da4565b610735565b8161078b91613d7e565b610796578238610725565b8280fd5b8380fd5b816107a891613d7e565b61079a5783386106af565b6040513d87823e3d90fd5b9091506020813d6020116107f2575b816107da60209383613d7e565b81010312610471576107eb90613eb7565b9038610671565b3d91506107cd565b6040513d88823e3d90fd5b604051630d5f777560e21b8152600490fd5b90506020813d602011610846575b8161083260209383613d7e565b8101031261084157513861061d565b600080fd5b3d9150610825565b6040513d89823e3d90fd5b607d5442111561089d576040516391a9027b60e01b60208201526004815261089790610886602482613d7e565b6085546001600160a01b0316614ac7565b506105e3565b60835460405163a03e4bc360e01b815290602090829060049082906001600160a01b03165afa9081156107fa578691610985575b50606b54604051631a4ca37b60e21b81526001600160a01b039182166004820152602481018790523060448201529116906020816064818a865af1801561084e57610956575b507f6407790cdabc5d219eaf901091d6beccc475533065c2fbd374c8a32b1c6679586020604051878152a261094e84607754613fe7565b6077556105e3565b6020813d60201161097d575b8161096f60209383613d7e565b810103126108415751610917565b3d9150610962565b90506020813d6020116109b7575b816109a060209383613d7e565b81010312610471576109b190613eb7565b386108d1565b3d9150610993565b5060775415156105de565b5060ff607854166105d8565b634e487b7160e01b84526011600452602484fd5b9091506020813d602011610a16575b81610a0660209383613d7e565b8101031261084157519038610596565b3d91506109f9565b6040513d85823e3d90fd5b610a31614fec565b61054e565b81610a4091613d7e565b610796578238610537565b5080fd5b9050607f544210610a67575b50602061058492610540565b6069546040516370a0823160e01b815233600482015290602090829060249082906001600160a01b03165afa9081156107b3578591610b47575b506020604051809363be5daee560e01b8252604060048301528180610ac860448201613f40565b33602483015203916001600160a01b03165afa9081156107b3578591610b11575b610af39250613fe7565b8211610aff5738610a5b565b6040516342b0cbe760e11b8152600490fd5b90506020823d602011610b3f575b81610b2c60209383613d7e565b8101031261084157610af3915190610ae9565b3d9150610b1f565b90506020813d602011610b71575b81610b6260209383613d7e565b81010312610841575138610aa1565b3d9150610b55565b50346102fc57806003193601126102fc57604051806020607a5491828152018091607a85527ff0440771a29e57e18c66727944770b82cc77924aef333c927ce6bdd2cdb3ae0390855b818110610c225750505082610bd8910383613d7e565b604051928392602084019060208552518091526040840192915b818110610c00575050500390f35b82516001600160a01b0316845285945060209384019390920191600101610bf2565b82546001600160a01b0316845260209093019260019283019201610bc2565b50346102fc57806003193601126102fc576074546040516001600160a01b039091168152602090f35b50346102fc5760c03660031901126102fc576004356001600160401b038111610a4b57610c9b903690600401613e55565b6024929192356001600160401b03811161079657610cbd903690600401613e55565b9190610cc7613dfe565b92606435608435946044602060018060a01b036066541660405192838092632474521560e21b82527f28eb28c26cbbd48a6bfad016505ccf4a189452995f59d16217af8920961ed25c60048301523360248301525afa908115610f19578891610eea575b5015610ed85781610e5e575b5050610d41614fec565b60018060a01b03606a5416606f5460801c92813b15610e2e5760405163eb1738e560e01b815260806004820152608481018690529460a4860190885b818110610e3257505085810360031901602487015283815296975094958795906001600160fb1b038411610e2e576020868095938997938894839660051b809386840137604484015260a4356064840152010301925af1801561043e57610e19575b5050610de9614da4565b80610df2575080f35b610e0b610e13916001600160801b03606f541690615118565b607154613e94565b60715580f35b81610e2391613d7e565b610a4b578138610ddf565b8680fd5b909160019060209081906001600160a01b03610e4d8f613e14565b168152019b01910199919099610d7d565b606b5473__$183737d697d7aa9b5df9988cbe11bc4947$__91906001600160a01b0316823b15610ed457604051636336129b60e11b81529389938593909284928392610ead9260048501613eec565b03915af480156107fa5790869115610d375781610ec991613d7e565b610449578438610d37565b8880fd5b60405163036be76f60e61b8152600490fd5b610f0c915060203d602011610f12575b610f048183613d7e565b810190613fcf565b38610d2b565b503d610efa565b6040513d8a823e3d90fd5b50346102fc5760203660031901126102fc57600435610f416143d5565b670de0b6b3a7640000811015610f83576020817fb2429786195476a340c6c3ff6be51a0d28d9ea08dea6c91a0720b1e200400e8c92607255604051908152a180f35b604051631757762160e01b8152600490fd5b50346102fc5760a03660031901126102fc57610faf613de8565b81610fb8613dfe565b6084359290606435610fc8614486565b80611030575b5050610fd8614fec565b60018060a01b03606a541690606f5460801c823b1561079a5761101892849283604051809681958294637a94c56560e11b845260243590600485016142ba565b03925af1801561043e57610e19575050610de9614da4565b606b546001600160a01b03169073__$183737d697d7aa9b5df9988cbe11bc4947$__803b156104715761107c93869360405195869485938493636336129b60e11b855260048501613eec565b03915af4908115610a1e57839115610fce578161109891613d7e565b610a4b578138610fce565b50346102fc57806003193601126102fc576068546040516001600160a01b039091168152602090f35b50346102fc57806003193601126102fc5760835460405163481d98fb60e11b815260206004820152919060809083906001600160a01b0316818061111260248201613f40565b03915afa918215611185578192611150575b50600382101561113c57602082600260405191148152f35b634e487b7160e01b81526021600452602490fd5b61117391925060803d60801161117e575b61116b8183613d7e565b810190613f0e565b505090509038611124565b503d611161565b50604051903d90823e3d90fd5b50346102fc5760203660031901126102fc576004356111af6142e5565b670de0b6b3a7640000811180611209575b156111f7576020817f6db5a699a2b18e7a2568814d453dff8a78eb41c9daf9d45bdeab3824f49c941592606c55604051908152a180f35b60405163c42aecdf60e01b8152600490fd5b50670e043da61725000081106111c0565b50346102fc5760403660031901126102fc57611234613de8565b61123c61441e565b60ff607b5460a01c161561047557606b54829173__$183737d697d7aa9b5df9988cbe11bc4947$__916001600160a01b0316823b156112d157604051636336129b60e11b815292849284928391829161129c916024359160048501613eec565b03915af4801561043e576112bc575b506112b4614fec565b610426614da4565b816112c691613d7e565b6102fc5780386112ab565b505050fd5b50346102fc5760403660031901126102fc576004356001600160401b038111610a4b5780600401906103006003198236030112610796576024356001600160a01b0381169081900361079a5783549260ff8460081c161593848095611dd6575b8015611dbf575b15611d635760ff198116600117865584611d52575b5060a48301602460206001600160a01b0361136c84614212565b6040516301ffc9a760e01b815263081e57a760e31b600482015293849290918391165afa90811561084e578791611d33575b5080611cc3575b80611c53575b80611be3575b80611b72575b80611b02575b15611af0576101248401600460206001600160a01b036113dc84614212565b166040519283809263313ce56760e01b82525afa908115610f195760129160ff918a91611ac1575b501611611aaf5761016485013567016345785d8a00008111611a9d57610144860135670de0b6b3a7640000811180611a8c575b156111f75761018487013592670de0b6b3a7640000841015610f83576102e48801358015611a7a576101c4890135806119075750607b805460ff60a01b1916600160a01b1790557f5023432d2ef8583c6eb5ee4501bf4740bf68b6fe4823da8f19ddedd1135f2a648b80a15b6079556102248801948a6001600160a01b036114be88614212565b166114cd6102c48c018a614253565b90823b1561079a5761150092849283604051809681958294632acabb1160e01b8452602060048501526024840191613ecb565b03925af1801561043e576118f2575b505061151b8780614253565b906001600160401b0382116118de578c8291611538606554613d12565b601f8111611866575b5081601f84116001146117f357926117e8575b50508160011b916000199060031b1c1916176065555b60248901356001600160a01b038116908190036117e457606980546001600160a01b0319169190911790556001600160a01b03906115a790614212565b166001600160601b0360a01b608354161760835560018060a01b036115ce60648a01614212565b166001600160601b0360a01b606754161760675560018060a01b036115f560848a01614212565b166001600160601b0360a01b6084541617608455604488013560018060a01b0381168091036117e057606a80546001600160a01b0319169190911790559596956001600160a01b0361164960c48901614212565b166001600160601b0360a01b606854161760685560018060a01b0361167060e48901614212565b166001600160601b0360a01b607454161760745561169460018060a01b0391614212565b166001600160601b0360a01b606b541617606b55606c55607355607255610104869301925b6116c38484614285565b905081101561171e576116d68484614285565b82101561170a57600582901b0135906001600160a01b038216820361170657611700600192614b6c565b016116b9565b8780fd5b634e487b7160e01b88526032600452602488fd5b50606680546001600160a01b031916909417909355506001600160a01b03916117479150614212565b166001600160601b0360a01b60765416176076557b033b2e3c9fd0803ce800000000000000033b2e3c9fd0803ce8000000606f558154906117a360ff8360081c166117918161529c565b61179a8161529c565b6001805561529c565b6117ab575080f35b61ff00191681557f7f26b83ff96e1f2b6a682f133852f6798a09c465da95921460cefb3847402498602060405160018152a180f35b8a80fd5b8b80fd5b013590503880611554565b925090601f1984166065845260008051602061552b833981519152935b81811061184e5750908460019594939210611834575b505050811b0160655561156a565b0135600019600384901b60f8161c19169055388080611826565b91936020600181928787013581550195019201611810565b91606591935052601f830160051c60008051602061552b8339815191520190602084106118c8575b918e91601f85940160051c60008051602061552b83398151915201905b8181106118b85750611541565b9283558493508f926001016118ab565b60008051602061552b833981519152915061188e565b634e487b7160e01b8d52604160045260248dfd5b816118fc91613d7e565b6117e0578a3861150f565b6101e48a0135428111806119fd575b806119ef575b156119de576102048b0135916119406119358484613e94565b806082554290613fe7565b6081556001600160a01b036119586101a48e01614212565b166001600160601b0360a01b607b541617607b55607c55607d55607e556102848901356080556001600160801b036119936102448b0161423f565b166fffffffffffffffffffffffffffffffff196119b36102648c0161423f565b60801b1617606e556102a48901358015158091036117e45760ff8019607854169116176078556114a3565b604051627706c160e81b8152600490fd5b506102848b0135151561191c565b508c602460208d611a186101a460018060a01b039201614212565b6040516301ffc9a760e01b815263edebbfe960e01b600482015293849290918391165afa918215611a6e5791611a4f575b50611916565b611a68915060203d602011610f1257610f048183613d7e565b38611a49565b604051903d90823e3d90fd5b604051637ed7b9ab60e11b8152600490fd5b50670e043da6172500008110611437565b60405163766a53cb60e01b8152600490fd5b60405163b7c73c5d60e01b8152600490fd5b611ae3915060203d602011611ae9575b611adb8183613d7e565b810190614226565b38611404565b503d611ad1565b60405163044aa57560e41b8152600490fd5b50602460206001600160a01b03611b1b60e48801614212565b6040516301ffc9a760e01b8152633df6cef760e01b600482015293849290918391165afa90811561084e578791611b53575b506113bd565b611b6c915060203d602011610f1257610f048183613d7e565b38611b4d565b50602460206001600160a01b03611b8c6102248801614212565b6040516301ffc9a760e01b8152633983653f60e21b600482015293849290918391165afa90811561084e578791611bc4575b506113b7565b611bdd915060203d602011610f1257610f048183613d7e565b38611bbe565b50602460206001600160a01b03611bfc60c48801614212565b6040516301ffc9a760e01b815263d4cb1bcb60e01b600482015293849290918391165afa90811561084e578791611c34575b506113b1565b611c4d915060203d602011610f1257610f048183613d7e565b38611c2e565b50602460206001600160a01b03611c6c60848801614212565b6040516301ffc9a760e01b81526333ca6d2360e21b600482015293849290918391165afa90811561084e578791611ca4575b506113ab565b611cbd915060203d602011610f1257610f048183613d7e565b38611c9e565b50602460206001600160a01b03611cdc60648801614212565b6040516301ffc9a760e01b8152633d79d7fb60e11b600482015293849290918391165afa90811561084e578791611d14575b506113a5565b611d2d915060203d602011610f1257610f048183613d7e565b38611d0e565b611d4c915060203d602011610f1257610f048183613d7e565b3861139e565b61ffff191661010117855538611352565b60405162461bcd60e51b815260206004820152602e60248201527f496e697469616c697a61626c653a20636f6e747261637420697320616c72656160448201526d191e481a5b9a5d1a585b1a5e995960921b6064820152608490fd5b50303b15801561133d5750600160ff82161461133d565b50600160ff821610611336565b50346102fc57806003193601126102fc5760206001600160801b03606e5416604051908152f35b50346102fc57806003193601126102fc5760206001600160801b03606f5416604051908152f35b50346102fc57806003193601126102fc576020607154604051908152f35b50346102fc5760203660031901126102fc57600435611e6c6143d5565b67016345785d8a00008111611a9d576020817ffc1353e6b18ce07b5a979c8edf77a87455939a17a9eebbb084dcde5bfb3b19ac92607355604051908152a180f35b50346102fc5760203660031901126102fc5760409081906001600160a01b03611ed4613de8565b16815260756020522060ff6001825492015416825191825215156020820152f35b50346102fc57806003193601126102fc576020607354604051908152f35b50346102fc57806003193601126102fc576020606c54604051908152f35b50346102fc5760803660031901126102fc576004356001600160401b038111610a4b57611f62903690600401613e28565b6024356001600160a01b038116939290849003610796576044356001600160401b03811161079a5790611f9d611fc295923690600401613e55565b959091604051946309e9786d60e41b60208701526080602487015260a4860191613ecb565b916044840152602319838303016064840152848252602082019060208660051b84010195819286925b828410612016578761201288610886818d606435608483015203601f198101835282613d7e565b5080f35b909192939497601f1989820301835261202f86836141de565b6120456040830191803584526020810190614179565b839192604060208396015252606081019060608460051b82010193838c905b8282106120885750949c99602090810199600101989701959450611feb9350505050565b909192939495605f9e9d9c9b9a99989e198582030186528c6120aa88846141de565b60408301906120d1906001600160a01b036120c482613e14565b1685526020810190614179565b849192604060208397015252606081019160608560051b83010194819492605e1983360301925b828510612124575050505050505060209d9e98999a9b9c9d806001929801960192019093929193612064565b90919293949596605f1983820301875287358581121561219957602061218a600193858394019061217c61216961215b84806141ad565b606085526060850191613ecb565b92858101358684015260408101906141ad565b916040818503910152613ecb565b990197019501939291906120f8565b50505050508f80fd5b50346102fc57806003193601126102fc5760206121bd6140d7565b6040519015158152f35b50346102fc57806003193601126102fc576101006040516121e781613d4c565b8281528260208201528260408201528260608201528260808201528260a08201528260c08201528260e0820152015261012060405161222581613d4c565b607b549060018060a01b0382169182825260ff602083019160a01c1615158152607c5460408301908152607d5460608401908152607e5460808501908152607f549160a086019283526080549360c087019485526081549560e08801968752610100608254980197885260405198895251151560208901525160408801525160608701525160808601525160a08501525160c08401525160e083015251610100820152f35b50346102fc57806003193601126102fc576020606d5460801c604051908152f35b50346102fc57806003193601126102fc57606b546040516001600160a01b039091168152602090f35b50346102fc57806003193601126102fc57602061232f6140b0565b604051908152f35b50346102fc57806003193601126102fc576066546040516001600160a01b039091168152602090f35b50346102fc57806003193601126102fc576085546040516001600160a01b039091168152602090f35b50346102fc57806003193601126102fc576067546040516001600160a01b039091168152602090f35b50346102fc57806003193601126102fc57602061232f614025565b50346102fc57806003193601126102fc576020607954604051908152f35b50346102fc57806003193601126102fc57602061232f6124196001600160801b03606d541660705490615176565b606f5460801c90614fb4565b50346102fc57806003193601126102fc576020607254604051908152f35b50346102fc57806003193601126102fc576069546040516001600160a01b039091168152602090f35b50346102fc5760203660031901126102fc576004356124896144ee565b6124a381612495614f41565b61249d6140b0565b90615118565b8015612566576125059160209160715480821161254b575b036071556069546001600160a01b03166124d36140b0565b604051637a94c56560e11b81523360048201526024810193909352604483015290928391908290869082906064820190565b03925af1801561043e5761251c575b506001805580f35b61253d9060203d602011612544575b6125358183613d7e565b810190613e85565b5038612514565b503d61252b565b9150508061256061255a6140b0565b83614fb4565b916124bb565b604051637c123f8b60e01b8152600490fd5b50346102fc5760403660031901126102fc5761259261441e565b61259a614fec565b606a546040516318160ddd60e01b815290602090829060049082906001600160a01b03165afa90811561043e5782916126a4575b506125de6125e691602435613e94565b600435615118565b676765c793fa10079d601b1b810180911161269057612612606f54916001600160801b03831690614fb4565b6001600160801b03811161263b576001600160801b0316906001600160801b03191617606f5580f35b60405162461bcd60e51b815260206004820152602760248201527f53616665436173743a2076616c756520646f65736e27742066697420696e20316044820152663238206269747360c81b6064820152608490fd5b634e487b7160e01b82526011600452602482fd5b90506020813d6020116126d0575b816126bf60209383613d7e565b8101031261084157516125de6125ce565b3d91506126b2565b50346102fc57806003193601126102fc5760835460405163481d98fb60e11b815260206004820152919060809083906001600160a01b0316818061271e60248201613f40565b03915afa908115611a6e578092819261275f575b50600383101561113c57506002602092149081612755575b506040519015158152f35b905042113861274a565b90925061277b915060803d60801161117e5761116b8183613d7e565b50929150919038612732565b50346102fc5760203660031901126102fc576127a1613de8565b6127a961436d565b6001600160a01b0316808252607560205260408220600181015460ff16156128b657607a5460001981019081116109d6576127e390613ff4565b60018060a01b0391549060031b1c1690612825826128018354613ff4565b81546001600160a01b0393841660039290921b91821b9390911b1916919091179055565b607a5480156128a257917fa48303bd6cd678b9b13454996417095d2d282db59c4db9ba88df8c82d048697893916020936000190161286281613ff4565b81549060018060a01b039060031b1b19169055607a555490855260758352604085205580845260758252836001604082208281550155604051908152a180f35b634e487b7160e01b85526031600452602485fd5b60405163b7addff360e01b8152600490fd5b50346102fc57806003193601126102fc57602061232f6071546128e96140b0565b90614fb4565b50346102fc5760403660031901126102fc57612909613de8565b602435906129156144ee565b61291d614f41565b6069546040516318160ddd60e01b815290602090829060049082906001600160a01b03165afa80156104665783908590612a77575b61295c9250613e94565b6079541115612a6557606b5460405163c37f7f7f60e01b8152906020908290819061299790879033906001600160a01b031660048501613eec565b038173__$183737d697d7aa9b5df9988cbe11bc4947$__5af4801561046657612a46575b50607b5460a01c60ff1615612a15576129d48282614989565b505b6040519182526001600160a01b03169033907f5548c837ab068cf56a2c2479df0882a4922fd203edb7517321831d95078c5f6290602090a36001805580f35b336001600160a01b03821603612a3457612a2f8282614544565b6129d6565b60405163217fe6c760e11b8152600490fd5b612a5e9060203d602011612544576125358183613d7e565b50386129bb565b604051630a5a765f60e31b8152600490fd5b50506020813d602011612aa5575b81612a9260209383613d7e565b81010312610841578261295c9151612952565b3d9150612a85565b50346102fc57806003193601126102fc576020607054604051908152f35b50346102fc5760203660031901126102fc57612ae5613de8565b612aed6143d5565b6040516301ffc9a760e01b8152630f3e84ab60e01b60048201526001600160a01b039190911690602081602481855afa908115610a1e578391612b73575b5015611af0576020817ff52905810dc4b9fa0c6e3dadb886cc902bc6a2d4acdf3c04e4c80be50d0804fa926001600160601b0360a01b6085541617608555604051908152a180f35b612b8c915060203d602011610f1257610f048183613d7e565b38612b2b565b50346102fc5760603660031901126102fc57612bac613de8565b60243590604435801515810361079a57612bc46144ee565b612bcc614f41565b6069546040516318160ddd60e01b815290602090829060049082906001600160a01b03165afa80156107b35784908690612d50575b612c0b9250613e94565b6079541115612a655715612c6357606b5460405163c37f7f7f60e01b8152906020908290819061299790879033906001600160a01b031660048501613eec565b607b5460a01c60ff1615612a15576129d48282614989565b606754604051634cb4430f60e11b81528491602090829060049082906001600160a01b03165afa90811561043e578291612d0e575b50606b546001600160a01b039182169116813b1561079657829160a48392604051948593849263c268dd3160e01b845233600485015230602485015260448401528960648401528160848401525af1801561043e57612cf9575b5050612c4b565b81612d0391613d7e565b610796578238612cf2565b90506020813d602011612d48575b81612d2960209383613d7e565b81010312610a4b57516001600160a01b0381168103610a4b5738612c98565b3d9150612d1c565b50506020813d602011612d7e575b81612d6b60209383613d7e565b810103126108415783612c0b9151612c01565b3d9150612d5e565b50346102fc57806003193601126102fc576076546040516001600160a01b039091168152602090f35b50346102fc57806003193601126102fc576112b461441e565b50346102fc5760403660031901126102fc57612de2613de8565b6001600160a01b03811682526075602052604082206001015460ff16156128b65760675460405163084b557b60e21b81526001600160a01b0390911690602081600481855afa908115610466578491613126575b50670de0b6b3a7640000019283670de0b6b3a76400001161302257612e67606c54612e618187614d4e565b95614d4e565b916040516301ddf49360e61b8152602081600481855afa908115610a1e5783916130f4575b50670de0b6b3a76400000390670de0b6b3a764000082116130e057608454606b54604051631dae49b960e21b81526001600160a01b038881166004830152918216602482018190529492909160209183916044918391165afa9081156107b35785916130ae575b50670de0b6b3a76400000390670de0b6b3a764000082116130685790612f1891614d4e565b60405163a8905dab60e01b81526001600160a01b03848116600483015287166024820152602081604481865afa9081156107b357859161307c575b50670de0b6b3a76400000390670de0b6b3a764000082116130685791612f7f612fb59492602094614d4e565b60405163a8905dab60e01b81526001600160a01b0398891660048201529290971660248301529092839190829081906044820190565b03915afa90811561043e578291613036575b50670de0b6b3a76400000390670de0b6b3a7640000821161302257602061232f8661301d61301361300d6024356130088a6130028b8e614d4e565b90613fe7565b613e94565b9261537a565b8260011c906153d9565b6141f2565b634e487b7160e01b81526011600452602490fd5b90506020813d602011613060575b8161305160209383613d7e565b81010312610841575138612fc7565b3d9150613044565b634e487b7160e01b85526011600452602485fd5b90506020813d6020116130a6575b8161309760209383613d7e565b81010312610841575138612f53565b3d915061308a565b90506020813d6020116130d8575b816130c960209383613d7e565b81010312610841575138612ef3565b3d91506130bc565b634e487b7160e01b83526011600452602483fd5b90506020813d60201161311e575b8161310f60209383613d7e565b81010312610841575138612e8c565b3d9150613102565b90506020813d602011613150575b8161314160209383613d7e565b81010312610841575138612e36565b3d9150613134565b50346102fc57806003193601126102fc57602060ff607854166040519015158152f35b50346102fc57806003193601126102fc5760ff607b5460a01c16806131a8575b6020906040519015158152f35b50607f54421161319b565b50346102fc5760203660031901126102fc576004356001600160401b038111610a4b576131e4903690600401613e28565b906131ed6142e5565b60765483906001600160a01b0316803b15610a4b57816040518092632acabb1160e01b82526020600483015281838161322a602482018b8b613ecb565b03925af1801561043e5761327a575b50507f1ec1ec5da499bc02a52ae44524fff931d2e18c66681bc49118287b566c20174c91613274604051928392602084526020840191613ecb565b0390a180f35b8161328491613d7e565b610796578238613239565b50346102fc5760203660031901126102fc576132a9613de8565b6132b16142e5565b6040516301ffc9a760e01b8152633983653f60e21b60048201526001600160a01b039190911690602081602481855afa908115610a1e578391613337575b5015611af0576020817f34f2d9c40aeb8886df9cdf9e12d06e2eba1c570a1b296552fe70f037e72bf12c926001600160601b0360a01b6076541617607655604051908152a180f35b613350915060203d602011610f1257610f048183613d7e565b386132ef565b50346102fc5760203660031901126102fc57610426613373613de8565b61337b61436d565b614b6c565b50346102fc57806003193601126102fc576020606e5460801c604051908152f35b50346102fc5760203660031901126102fc576133bb613de8565b6001600160a01b03811682526075602052604082206001015460ff16156128b65760675460405163084b557b60e21b81526001600160a01b0390911690602081600481855afa9081156104665784916136cd575b50670de0b6b3a7640000019182670de0b6b3a7640000116109d657613440606c5461343a8186614d4e565b94614d4e565b916040516301ddf49360e61b8152602081600481855afa9081156107fa57869161369b575b50670de0b6b3a76400000390670de0b6b3a7640000821161368757608454606b54604051631dae49b960e21b81526001600160a01b038681166004830152918216602482018190529492909160209183916044918391165afa908115610f19578891613655575b50670de0b6b3a76400000390670de0b6b3a7640000821161360f57906134f191614d4e565b60405163a8905dab60e01b81526001600160a01b03848116600483015285166024820152602081604481865afa908115610f19578891613623575b50670de0b6b3a76400000390670de0b6b3a7640000821161360f579161355861358e9492602094614d4e565b60405163a8905dab60e01b81526001600160a01b0396871660048201529290951660248301529092839190829081906044820190565b03915afa9081156107b35785916135dd575b50670de0b6b3a76400000390670de0b6b3a764000082116130685761232f936135d66020969461300261301d9561301395614d4e565b935061537a565b90506020813d602011613607575b816135f860209383613d7e565b810103126108415751386135a0565b3d91506135eb565b634e487b7160e01b88526011600452602488fd5b90506020813d60201161364d575b8161363e60209383613d7e565b8101031261084157513861352c565b3d9150613631565b90506020813d60201161367f575b8161367060209383613d7e565b810103126108415751386134cc565b3d9150613663565b634e487b7160e01b86526011600452602486fd5b90506020813d6020116136c5575b816136b660209383613d7e565b81010312610841575138613465565b3d91506136a9565b90506020813d6020116136f7575b816136e860209383613d7e565b8101031261084157513861340f565b3d91506136db565b50346102fc57806003193601126102fc5760835460405163481d98fb60e11b815260206004820152919060809083906001600160a01b0316818061374560248201613f40565b03915afa91821561118557819261376f575b50600382101561113c57602082600160405191148152f35b61378991925060803d60801161117e5761116b8183613d7e565b505090509038613757565b50346102fc5760203660031901126102fc576137ae6143d5565b6137b66140d7565b1561389957606b546083546040516361d027b360e01b8152839273__$183737d697d7aa9b5df9988cbe11bc4947$__926001600160a01b039182169160209184916004918391165afa91821561046657849261385d575b50823b156112d15761383b928492604051809581948293636336129b60e11b84526004359160048501613eec565b03915af4801561043e5761384c5750f35b8161385691613d7e565b6102fc5780f35b9091506020813d602011613891575b8161387960209383613d7e565b810103126112d15761388a90613eb7565b903861380d565b3d915061386c565b60405162a5e71360e71b8152600490fd5b50346102fc57806003193601126102fc576020606f5460801c604051908152f35b50346102fc57806003193601126102fc576138e461436d565b6040516391a9027b60e01b60208201526004815261201290610886602482613d7e565b50346102fc5760803660031901126102fc57613921613de8565b602435906044356064356001600160401b03811161044957613947903690600401613e28565b61394f6144ee565b6069546040516318160ddd60e01b815290602090829060049082906001600160a01b03165afa801561084e5786908890613b05575b61398e9250613e94565b6079541115612a655760835460405163af9a2aa760e01b81526020600482018190529093909284926001600160a01b031691839182916139d2916024840191613ecb565b03915afa9081156107b3578591613acb575b50336001600160a01b0390911603610ed857607b5460a01c60ff1615613ac05780613a4957506040519182526001600160a01b03169033907f5548c837ab068cf56a2c2479df0882a4922fd203edb7517321831d95078c5f6290602090a36001805580f35b6069546001600160a01b0316908490613a628585614989565b92803b1561079657604051632fc3a4b160e21b81526001600160a01b0386166004820152602481019490945260448401919091528290606490829084905af1801561046657156129d45783613ab991949294613d7e565b91386129d4565b50612a2f8282614544565b90506020813d602011613afd575b81613ae660209383613d7e565b8101031261044957613af790613eb7565b386139e4565b3d9150613ad9565b50506020813d602011613b33575b81613b2060209383613d7e565b81010312610e2e578561398e9151613984565b3d9150613b13565b50346102fc57806003193601126102fc57604051908060655490613b5e82613d12565b8085529160018116908115613be15750600114613b96575b613b9284613b8681860382613d7e565b60405191829182613d9f565b0390f35b6065815260008051602061552b833981519152939250905b808210613bc757509091508101602001613b8682613b76565b919260018160209254838588010152019101909291613bae565b60ff191660208087019190915292151560051b85019092019250613b869150839050613b76565b50346102fc5760203660031901126102fc57600435613c256142e5565b8015611a7a576020817fd2c55fe32fb2122608950e8daf3216fe57018c4ae02a3b66132249300e8702ed92607955604051908152a180f35b905034610a4b576020366003190112610a4b5760043563ffffffff60e01b8116809103610796576020925063c873098560e01b8114908115613d01575b8115613cf0575b8115613cdf575b8115613cce575b8115613cbd575b5015158152f35b6301ffc9a760e01b14905038613cb6565b63cad9e0d360e01b81149150613caf565b636401839b60e01b81149150613ca8565b6307dba22560e31b81149150613ca1565b633aa17d5560e11b81149150613c9a565b90600182811c92168015613d42575b6020831014613d2c57565b634e487b7160e01b600052602260045260246000fd5b91607f1691613d21565b61012081019081106001600160401b03821117613d6857604052565b634e487b7160e01b600052604160045260246000fd5b90601f801991011681019081106001600160401b03821117613d6857604052565b91909160208152825180602083015260005b818110613dd2575060409293506000838284010152601f8019910116010190565b8060208092870101516040828601015201613db1565b600435906001600160a01b038216820361084157565b604435906001600160a01b038216820361084157565b35906001600160a01b038216820361084157565b9181601f84011215610841578235916001600160401b038311610841576020838186019501011161084157565b9181601f84011215610841578235916001600160401b038311610841576020808501948460051b01011161084157565b90816020910312610841575190565b91908201809211613ea157565b634e487b7160e01b600052601160045260246000fd5b51906001600160a01b038216820361084157565b908060209392818452848401376000828201840152601f01601f1916010190565b6001600160a01b03918216815291166020820152604081019190915260600190565b919082608091031261084157613f2382613eb7565b916020810151600381101561084157916060604083015192015190565b60655460009291613f5082613d12565b8082529160018116908115613fb35750600114613f6b575050565b6065600090815292935090919060008051602061552b8339815191525b838310613f99575060209250010190565b600181602092949394548385870101520191019190613f88565b9050602093945060ff929192191683830152151560051b010190565b90816020910312610841575180151581036108415790565b91908203918211613ea157565b607a5481101561400f57607a60005260206000200190600090565b634e487b7160e01b600052603260045260246000fd5b606b546040516370a0823160e01b815230600482015290602090829060249082906001600160a01b03165afa80156140a457600090614070575b61406d915060775490613e94565b90565b506020813d60201161409c575b8161408a60209383613d7e565b810103126108415761406d905161405f565b3d915061407d565b6040513d6000823e3d90fd5b61406d6140c5606d5460801c6070549061526a565b6001600160801b03606f541690614fb4565b60835460405163481d98fb60e11b8152602060048201529060809082906001600160a01b0316818061410b60248201613f40565b03915afa9081156140a457600090600092614155575b50600381101561413f576002149081614138575090565b9050421190565b634e487b7160e01b600052602160045260246000fd5b9050614170915060803d60801161117e5761116b8183613d7e565b92505038614121565b9035601e19823603018112156108415701602081359101916001600160401b038211610841578160051b3603831361084157565b9035601e19823603018112156108415701602081359101916001600160401b03821161084157813603831361084157565b9035603e1982360301811215610841570190565b81156141fc570490565b634e487b7160e01b600052601260045260246000fd5b356001600160a01b03811681036108415790565b90816020910312610841575160ff811681036108415790565b356001600160801b03811681036108415790565b903590601e198136030182121561084157018035906001600160401b0382116108415760200191813603831361084157565b903590601e198136030182121561084157018035906001600160401b03821161084157602001918160051b3603831361084157565b6001600160a01b03909116815260208101919091526001600160801b03909116604082015260600190565b606654604051632474521560e21b81527fc0fc8e4dc5cff6febdf550b80d566f654e2baf1a02ea1060208c2f8ab2dd1b63600482015233602482015290602090829060449082906001600160a01b03165afa9081156140a45760009161434e575b5015610ed857565b614367915060203d602011610f1257610f048183613d7e565b38614346565b606654604051632474521560e21b81527f5a7d4408f4759dddd7fdfd0d21abd99341dc2f52cda14804988a9b2df20766d8600482015233602482015290602090829060449082906001600160a01b03165afa9081156140a45760009161434e575015610ed857565b606654604051632474521560e21b81526000600482015233602482015290602090829060449082906001600160a01b03165afa9081156140a45760009161434e575015610ed857565b606654604051632474521560e21b81527f4c5be4f3fb700e9d10e27553bbef3e4a6f7d97252fbb61c7cdfc73a1de4a3bbd600482015233602482015290602090829060449082906001600160a01b03165afa9081156140a45760009161434e575015610ed857565b606654604051632474521560e21b81527f5580ea9b7f9becaa48a78f506a2019ea24794b7a717ee6a4b9f62e36b94c25a6600482015233602482015290602090829060449082906001600160a01b03165afa9081156140a45760009161434e575015610ed857565b6002600154146144ff576002600155565b60405162461bcd60e51b815260206004820152601f60248201527f5265656e7472616e637947756172643a207265656e7472616e742063616c6c006044820152606490fd5b607d54916000924211614977576145628161455d614025565b613fe7565b606954606f54604051630ab714fb60e11b81529160209183916001600160a01b0316908290899082906145a3906001600160801b03168a8c600485016142ba565b03925af180156107b357614948575b50607c5481101561493a576145c990607c54613fe7565b8181111561492b575060ff60785416614707575b60018060a01b03607b541660405163be5daee560e01b8152604060048201526020818061460c60448201613f40565b6001600160a01b0390971660248201819052960381855afa80156107b357839086906146d1575b61463d9250613e94565b608054106146bf5760825460815492823b15610471579085809493926040519687958694859363e976e18b60e01b855260c0600486015261468060c48601613f40565b9360248601526044850152606484015260848301524260a483015203925af1801561043e576146ad575050565b6146b8828092613d7e565b6102fc5750565b60405163c7e138ed60e01b8152600490fd5b50506020813d6020116146ff575b816146ec60209383613d7e565b81010312610841578261463d9151614633565b3d91506146df565b606b546040516370a0823160e01b8152306004820152906001600160a01b0316602082602481845afa9182156107b35785926148f6575b5060049061474e83607754613e94565b60775560835460405163a03e4bc360e01b81529260209184919082906001600160a01b03165afa9182156107fa5790839187936148b6575b50826020916147a96040519485938493636fe2528b60e11b855260048501613eec565b038173__$d13cb5064fc43aa5afb84d8e93c86c1222$__5af480156107fa57614887575b50606b546001600160a01b03918216929116823b15610471576040519063617ba03760e01b82526004820152816024820152306044820152856064820152858160848183875af180156107fa57614850575b5060207f3b1270fa6f77c9af94834571cf5274944e8712de6cebea9ec3d8b3452c05330891604051908152a26145dd565b8561487f7f3b1270fa6f77c9af94834571cf5274944e8712de6cebea9ec3d8b3452c0533089397602093613d7e565b95915061481f565b6020813d6020116148ae575b816148a060209383613d7e565b8101031261047157516147cd565b3d9150614893565b915091506020813d6020116148ee575b816148d360209383613d7e565b810103126104715760206148e78492613eb7565b9290614786565b3d91506148c6565b9091506020813d602011614923575b8161491260209383613d7e565b81010312610449575190600461473e565b3d9150614905565b90506149356152fc565b6145dd565b505050506149466152fc565b565b6020813d60201161496f575b8161496160209383613d7e565b8101031261044957516145b2565b3d9150614954565b604051639a9a6f1760e01b8152600490fd5b60835460405163af9a2aa760e01b8152602060048201819052929392909182906001600160a01b031681806149c060248201613f40565b03915afa9081156140a457600091614a8d575b50306001600160a01b0390911603614a7b57614a2c916020916149f4614fec565b60018060a01b03606954169060006001600160801b03606f54169360405196879586948593630ab714fb60e11b8552600485016142ba565b03925af19081156140a457600091614a49575b5090614946614da4565b90506020813d602011614a73575b81614a6460209383613d7e565b81010312610841575138614a3f565b3d9150614a57565b604051636f2f995760e01b8152600490fd5b90506020813d602011614abf575b81614aa860209383613d7e565b8101031261084157614ab990613eb7565b386149d3565b3d9150614a9b565b9060008060405192614ada606085613d7e565b602784527f416464726573733a206c6f772d6c6576656c2064656c65676174652063616c6c6020850152660819985a5b195960ca1b6040850152602081519101855af43d15614b5f573d906001600160401b038211613d685760405161406d949092614b50601f8201601f191660200185613d7e565b83523d6000602085013e615495565b9161406d92606091615495565b6001600160a01b038116908115614d3c5781600052607560205260ff60016040600020015416614d2a5760405163313ce56760e01b8152602081600481865afa9081156140a45760129160ff91600091614d0b575b501611611aaf57608454606b54604051634858138f60e01b81526001600160a01b03848116600483015291821660248201529160209183916044918391165afa9081156140a457600091614cd9575b5015614cc757607a549068010000000000000000821015613d6857612801826001614c3e9401607a55613ff4565b607a54600019810191908211613ea1576040519060408201918083106001600160401b03841117613d68577fb38e19e04618f9502008311560587c597fe11e8867226353a0c01aab7e4df2939360209360405281526001838201918183528360005260758552604060002090518155019051151560ff80198354169116179055604051908152a1565b604051633c15d6ff60e21b8152600490fd5b90506020813d602011614d03575b81614cf460209383613d7e565b81010312610841575138614c10565b3d9150614ce7565b614d24915060203d602011611ae957611adb8183613d7e565b38614bc1565b604051632d6c6ae560e01b8152600490fd5b6040516346ec28e560e11b8152600490fd5b90614d58916153a2565b6706f05b59d3b20000810190818111613ea1578110614d7f57670de0b6b3a7640000900490565b630a77254f60e01b60005260046000fd5b51906001600160801b038216820361084157565b606a546040516318160ddd60e01b815290602090829060049082906001600160a01b03165afa9081156140a457600091614f0f575b50614de681613008614025565b80614e4d5750506000606d555b7f9cf6ed4d2e86c73a9ce91a9baa90bb3a472323bb366819d0934e0d95d3e7500e60a0606d546001600160801b03606f5460405192828116845260801c60208401528060801c6040840152166060820152426080820152a1565b6076546001600160a01b031691604091614e6691615118565b604460725491600084519586948593630884b37d60e11b8552600485015260248401525af19081156140a457600090600092614ebf575b506001600160801b0316906001600160801b03199060801b1617606d55614df3565b9150506040813d604011614f07575b81614edb60409383613d7e565b81010312610841576001600160801b03614f006020614ef984614d90565b9301614d90565b9190614e9d565b3d9150614ece565b906020823d602011614f39575b81614f2960209383613d7e565b810103126102fc57505138614dd9565b3d9150614f1c565b607454604051630723eb0360e51b815233600482015290602090829060249082906001600160a01b03165afa9081156140a457600091614f95575b50614f8357565b6040516333df015b60e01b8152600490fd5b614fae915060203d602011610f1257610f048183613d7e565b38614f7c565b90614fbe916153a2565b6b019d971e4fe8401e74000000810190818111613ea1578110614d7f57676765c793fa10079d601b1b900490565b606d54607054614fff818360801c61526a565b90615017606f54926001600160801b03841690614fb4565b926001600160801b03841161510657615041615057926001600160801b0380961695869316615176565b926001600160801b0319161760801c8092614fb4565b916001600160801b0383116150f4576004926001600160801b03199060801b16179081606f5542607055602060018060a01b03606a54166040519485809263b1bf962d60e01b82525afa9182156140a4576000926150be575b614946935060801c916153ee565b91506020833d6020116150ec575b816150d960209383613d7e565b81010312610841576149469251916150b0565b3d91506150cc565b60405163306e92a960e11b8152600490fd5b604051632db5409f60e21b8152600490fd5b90600091676765c793fa10079d601b1b8082029382850482148315171561302257508304036151525761301d61406d928260011c906153d9565b631550e8b760e01b60005260046000fd5b81810292918115918404141715613ea157565b906151819042613fe7565b90811561525957600019820191808311613ea1576002811115615244576001198101818111613ea1576301e13380916006615210615217935b61520166038882915c40006151cf8980614fb4565b04916152016152066906a4334962924ee000006151f58c6151f08180614fb4565b614fb4565b04946152018d8a615163565b615163565b60011c9a87615163565b0493615163565b04676765c793fa10079d601b1b0180676765c793fa10079d601b1b11613ea15761406d9261300891613e94565b6152176301e1338091600661521060006151ba565b5050676765c793fa10079d601b1b90565b6152839061527d6301e133809342613fe7565b90615163565b04676765c793fa10079d601b1b8101809111613ea15790565b156152a357565b60405162461bcd60e51b815260206004820152602b60248201527f496e697469616c697a61626c653a20636f6e7472616374206973206e6f74206960448201526a6e697469616c697a696e6760a81b6064820152608490fd5b607b805460ff60a01b1916600160a01b179055607e5461531c9042613e94565b607f5560ff60785416615351575b7f5023432d2ef8583c6eb5ee4501bf4740bf68b6fe4823da8f19ddedd1135f2a64600080a1565b6040516391a9027b60e01b60208201526004815261537490610886602482613d7e565b5061532a565b90600091670de0b6b3a764000080820282810482148315171561306857809450040361515257565b6000929180159182156153b9575b50501561515257565b915092506153d16153ca8483615163565b93846141f2565b1438806153b0565b91906153e59083613e94565b918210614d7f57565b919060725492600093801561548e576069546068546001600160a01b0390811695911693615435936154309290916130029161542a9084614fb4565b92614fb4565b614d4e565b6001600160801b03606f541692823b15610449579161546f9391858094604051968795869485936327883e6160e21b8552600485016142ba565b03925af1801561043e57615481575050565b8161548b91613d7e565b50565b5050505050565b919290156154f757508151156154a9575090565b3b156154b25790565b60405162461bcd60e51b815260206004820152601d60248201527f416464726573733a2063616c6c20746f206e6f6e2d636f6e74726163740000006044820152606490fd5b82519091501561550a5750805190602001fd5b60405162461bcd60e51b81529081906155269060048301613d9f565b0390fdfe8ff97419363ffd7000167f130ef7168fbea05faf9251824ca5043f113cc6a7c7a2646970667358221220c20464f379d52848ec0e07dff7918854aab060a2b88bf902dd0187dd48e5646564736f6c634300081a0033",
  "libraries": {
    "TokenTransfersLibrary": "0x9216e34b2458B492b25abDE8546e56CA8A1acCD5",
    "TokenApproveLibrary": "0xd63A1F3b359449812C0FD732895dcc18d6e55195"
  },
  "devdoc": {
    "events": {
      "Initialized(uint8)": {
        "details": "Triggered when the contract has been initialized or reinitialized."
      }
    },
    "kind": "dev",
    "methods": {
      "addAsset(address)": {
        "details": "Function to add new trading asset for this bucketOnly callable by the SMALL_TIMELOCK_ADMIN role.",
        "params": {
          "_newAsset": "The address of trading asset"
        }
      },
      "availableLiquidity()": {
        "details": "Returns current avalable liquidity of borrowedAsset for trading.",
        "returns": {
          "_0": "The amount of available borrowedAsset"
        }
      },
      "batchDecreaseTradersDebt(address[],uint256[],address,uint256,uint256,uint256)": {
        "details": "This function can only be called by the BATCH_MANAGER_ROLE.",
        "params": {
          "_amountToReturn": "The amount to be returned.",
          "_debtsToBurn": "An array of uint256 values representing the debts to burn for each trader.",
          "_length": "The length of the traders array.",
          "_permanentLossAmount": "The amount of permanent loss.",
          "_receiverOfAmountToReturn": "The address that will receive the amount to be returned.",
          "_traders": "An array of addresses representing the traders."
        }
      },
      "cumulateToLiquidityIndex(uint256,uint256)": {
        "details": "Only callable by the FLASH_LOAN_MANAGER_ROLE role.",
        "params": {
          "amount": "The amount to accumulate",
          "availableLiquidity": "The availableLiquidity before flashLoan"
        }
      },
      "decreaseTraderDebt(address,uint256,address,uint256,uint256)": {
        "details": "Function to update rates and indexes. Burns debt tokens of trader. Called only by positionManager contract.",
        "params": {
          "_amountToReturn": "Amount to transfer from bucket",
          "_debtToBurn": "The 'amount' of trader's debtTokens will be burned by the trader.",
          "_permanentLossAmount": "The amount of the protocol's debt to creditors accrued for this position",
          "_receiverOfAmountToReturn": "Treasury in case of liquidation. TraderBalanceVault in other cases",
          "_trader": "The address of the trader, who opened position."
        }
      },
      "deposit(address,uint256)": {
        "details": "Deposits the 'amount' of underlying asset into the bucket. The 'PTokenReceiver' receives overlying pTokens.",
        "params": {
          "_amount": "The amount of underlying tokens to be deposited",
          "_pTokenReceiver": "The address to receive the deposited pTokens."
        }
      },
      "deposit(address,uint256,bool)": {
        "details": "Deposits the 'amount' of underlying asset into the bucket. The 'PTokenReceiver' receives overlying pTokens.",
        "params": {
          "_amount": "The amount of underlying tokens to be deposited",
          "_pTokenReceiver": "The address to receive the deposited pTokens.",
          "_takeDepositFromWallet": "A flag indicating whether to make the deposit from user wallet"
        }
      },
      "depositFromBucket(string,address,(uint256,(address,(string,uint256,bytes)[])[])[],uint256)": {
        "params": {
          "_amountOutMin": "The minimum amount of tokens to receive from the swap.",
          "_bucketTo": "The name of the destination bucket.",
          "_megaRoutes": "The array of routes for swapping tokens.",
          "_swapManager": "The address of the swap manager."
        }
      },
      "getAllowedAssets()": {
        "details": "Returns allowed trading assets for current bucket",
        "returns": {
          "_0": "List of addresses of allowed assets"
        }
      },
      "getLiquidityMiningParams()": {
        "details": "Returns the parameters for liquidity mining.",
        "returns": {
          "_0": "LMparams The liquidity mining parameters."
        }
      },
      "getNormalizedIncome()": {
        "details": "Returns the normalized income per unit of underlying asset, expressed in ray",
        "returns": {
          "_0": "The normalized income per unit of underlying asset, expressed in ray"
        }
      },
      "getNormalizedVariableDebt()": {
        "details": "Returns the normalized variable debt per unit of underlying asset, expressed in ray"
      },
      "increaseDebt(address,uint256,address)": {
        "details": "Function to update rates and indexes when a trader opens a trading position. Mints debt tokens to trader. Calls only by positionManager contract.",
        "params": {
          "_amount": "The 'amount' for which the deal is open, and 'amount' of debtTokens will be minted to the trader.",
          "_to": "The address to transfer the borrowed asset to.",
          "_trader": "The address of the trader, who opens position."
        }
      },
      "initialize((string,address,address,address,address,address,address,address,address[],address,uint256,uint256,uint256,address,uint256,uint256,uint256,address,uint128,uint128,uint256,bool,bytes,uint256),address)": {
        "details": "Initializes the contract with the given parameters.",
        "params": {
          "_params": "The ConstructorParams struct containing initialization parameters.",
          "_registry": "The address of the registry contract."
        }
      },
      "isActive()": {
        "details": "Checks if this bucket is active in the protocol.",
        "returns": {
          "_0": "bool True if the bucket is active, false otherwise."
        }
      },
      "isBucketStable()": {
        "details": "Returns a boolean value indicating whether the bucket is stable in the liquidity mining event.",
        "returns": {
          "_0": "A boolean value representing the stability of the bucket."
        }
      },
      "isDelisted()": {
        "details": "Returns a boolean value indicating whether the bucket is delisted.",
        "returns": {
          "_0": "True if the bucket is delisted, otherwise false."
        }
      },
      "isDeprecated()": {
        "details": "Checks if the bucket is deprecated in the protocol.",
        "returns": {
          "_0": "Whether the bucket is deprecated or not."
        }
      },
      "isWithdrawAfterDelistingAvailable()": {
        "details": "Checks if an admin can withdraw from the bucket after delisting.",
        "returns": {
          "_0": "A boolean indicating whether withdrawal is available."
        }
      },
      "maxAssetLeverage(address)": {
        "details": "Calculates the max leverage according to the following formula: ((1 + maintenanceBuffer) * feeBuffer) / ((1 + maintenanceBuffer) * feeBuffer - (1 - securityBuffer) * (1 - pairPriceDropBA) * (1 - oracleTolerableLimitAB) * (1 - oracleTolerableLimitBA))",
        "params": {
          "_asset": "The address of trading asset"
        },
        "returns": {
          "_0": "The maximum leverage as a uint256 value."
        }
      },
      "maxAssetLeverage(address,uint256)": {
        "details": "Calculates the max leverage according to the following formula: ((1 + maintenanceBuffer) * feeBuffer) / ((1 + maintenanceBuffer) * feeBuffer - (1 - securityBuffer) * (1 - pairPriceDropBA) * (1 - oracleTolerableLimitAB) * (1 - oracleTolerableLimitBA) + protocolFeeInPositiontAsset / positionSize)",
        "params": {
          "_asset": "The address of trading asset",
          "_feeRate": "The ratio of protocolFeeInPositionAsset to positionSize"
        },
        "returns": {
          "_0": "The maximum leverage as a uint256 value."
        }
      },
      "paybackPermanentLoss(uint256)": {
        "params": {
          "amount": "The amount of pTokens to be burned to pay back the permanent loss."
        }
      },
      "performFlashLoanTransfer(address,uint256)": {
        "details": "Only callable by the FLASH_LOAN_MANAGER_ROLE role.",
        "params": {
          "_amount": "The amount of tokens to transfer in the flash loan.",
          "_to": "The address to which the flash loan amount will be transferred."
        }
      },
      "permanentLoss()": {
        "details": "Calculates the permanent loss based on the scaled permanent loss and the normalized income.",
        "returns": {
          "_0": "The amount of permanent loss."
        }
      },
      "receiveDeposit(address,uint256,uint256,string)": {
        "details": "Receives a deposit and distributes it to the specified pToken receiver.Can be called only by another bucket.",
        "params": {
          "_amount": "The amount of tokens being deposited.",
          "_bucketFrom": "The name of the bucket from which the deposit is being made.",
          "_duration": "The blocking time for a fixed-term deposit (if it's 0, then it will be a usual deposit)",
          "_pTokenReceiver": "The address of the recipient of the pToken."
        }
      },
      "removeAsset(address)": {
        "details": "Only callable by the SMALL_TIMELOCK_ADMIN role.",
        "params": {
          "_assetToDelete": "The address of the asset to be removed."
        }
      },
      "returnLiquidityFromAaveToBucket()": {
        "details": "Allows the SMALL_TIMELOCK_ADMIN to withdraw all liquidity from Aave to Bucket."
      },
      "setBarCalculationParams(bytes)": {
        "details": "Sets barCalculationParams (urOptimal, k0, k1, b0, b1)Only callable by the MEDIUM_TIMELOCK_ADMIN role."
      },
      "setBucketExtension(address)": {
        "details": "Only callable by the BIG_TIMELOCK_ADMIN role.",
        "params": {
          "_newBucketExtension": "The address of BucketExtension contract."
        }
      },
      "setFeeBuffer(uint256)": {
        "details": "Sets the new fee buffer.Only callable by the MEDIUM_TIMELOCK_ADMIN role.",
        "params": {
          "_feeBuffer": "The new fee buffer value."
        }
      },
      "setInterestRateStrategy(address)": {
        "details": "Sets the interest rate strategy contract address.Only callable by the MEDIUM_TIMELOCK_ADMIN role.",
        "params": {
          "_interestRateStrategy": "The address of the interest rate strategy contract."
        }
      },
      "setMaxTotalDeposit(uint256)": {
        "details": "Only callable by the MEDIUM_TIMELOCK_ADMIN role.",
        "params": {
          "_maxTotalDeposit": "The amount of max total deposit for the bucket"
        }
      },
      "setReserveRate(uint256)": {
        "details": "Sets the reserve rate.Only callable by the BIG_TIMELOCK_ADMIN role.",
        "params": {
          "_reserveRate": "The new reserve rate value."
        }
      },
      "setWithdrawalFee(uint256)": {
        "details": "Sets the withdrawal fee.Only callable by the BIG_TIMELOCK_ADMIN role.",
        "params": {
          "_withdrawalFee": "The new withdrawal fee value."
        }
      },
      "updateRates()": {
        "details": "Only callable by the FLASH_LOAN_MANAGER_ROLE role."
      },
      "withdraw(address,uint256)": {
        "details": "Withdraws the 'amount' of underlying asset from the bucket. The 'amount' of overlying pTokens will be burned.",
        "params": {
          "_borrowAssetReceiver": "The address of receiver of the borrowed asset.",
          "amount": "The amount of underlying tokens to be withdrawn."
        }
      },
      "withdrawAfterDelisting(uint256)": {
        "params": {
          "_amount": "The amount of tokens to withdraw."
        }
      }
    },
    "version": 1
  },
  "userdoc": {
    "kind": "user",
    "methods": {
      "bar()": {
        "notice": "bar = borrowing annual rate (originally APR)"
      },
      "batchDecreaseTradersDebt(address[],uint256[],address,uint256,uint256,uint256)": {
        "notice": "Batch decreases the debt of multiple traders."
      },
      "cumulateToLiquidityIndex(uint256,uint256)": {
        "notice": "Accumulates a predefined amount of asset to the bucket as a fixed, instantaneous income. Used to accumulate the flashloan fee to the bucket, and spread it between all the suppliers."
      },
      "depositFromBucket(string,address,(uint256,(address,(string,uint256,bytes)[])[])[],uint256)": {
        "notice": "Deposits (reinvests) funds from a bucket to another bucket. Used only in the case of failed liquidity mining in the bucket from where the transfer happens."
      },
      "lar()": {
        "notice": "lar = lending annual rate (originally APY)"
      },
      "paybackPermanentLoss(uint256)": {
        "notice": "This function allows a user to pay back a permanent loss by burning his pTokens."
      },
      "performFlashLoanTransfer(address,uint256)": {
        "notice": "Performs a flash loan transfer of a specified amount to a receiver address."
      },
      "removeAsset(address)": {
        "notice": "Removes a trading asset from this bucket."
      },
      "setBucketExtension(address)": {
        "notice": "Sets the bucketExtension."
      },
      "setMaxTotalDeposit(uint256)": {
        "notice": "The function sets the max total deposit for the particular bucket"
      },
      "supportsInterface(bytes4)": {
        "notice": "Interface checker"
      },
      "updateRates()": {
        "notice": "Updates bucket's BAR and LAR."
      },
      "withdrawAfterDelisting(uint256)": {
        "notice": "Allows the BIG_TIMELOCK_ADMIN role to withdraw a specified amount of tokens after delisting."
      }
    },
    "version": 1
  },
  "storageLayout": {
    "storage": [
      {
        "astId": 2890,
        "contract": "contracts/Bucket/Bucket.sol:Bucket",
        "label": "_initialized",
        "offset": 0,
        "slot": "0",
        "type": "t_uint8"
      },
      {
        "astId": 2893,
        "contract": "contracts/Bucket/Bucket.sol:Bucket",
        "label": "_initializing",
        "offset": 1,
        "slot": "0",
        "type": "t_bool"
      },
      {
        "astId": 3193,
        "contract": "contracts/Bucket/Bucket.sol:Bucket",
        "label": "_status",
        "offset": 0,
        "slot": "1",
        "type": "t_uint256"
      },
      {
        "astId": 3262,
        "contract": "contracts/Bucket/Bucket.sol:Bucket",
        "label": "__gap",
        "offset": 0,
        "slot": "2",
        "type": "t_array(t_uint256)49_storage"
      },
      {
        "astId": 6506,
        "contract": "contracts/Bucket/Bucket.sol:Bucket",
        "label": "__gap",
        "offset": 0,
        "slot": "51",
        "type": "t_array(t_uint256)50_storage"
      },
      {
        "astId": 29069,
        "contract": "contracts/Bucket/Bucket.sol:Bucket",
        "label": "name",
        "offset": 0,
        "slot": "101",
        "type": "t_string_storage"
      },
      {
        "astId": 29072,
        "contract": "contracts/Bucket/Bucket.sol:Bucket",
        "label": "registry",
        "offset": 0,
        "slot": "102",
        "type": "t_address"
      },
      {
        "astId": 29076,
        "contract": "contracts/Bucket/Bucket.sol:Bucket",
        "label": "positionManager",
        "offset": 0,
        "slot": "103",
        "type": "t_contract(IPositionManagerV2)48999"
      },
      {
        "astId": 29080,
        "contract": "contracts/Bucket/Bucket.sol:Bucket",
        "label": "reserve",
        "offset": 0,
        "slot": "104",
        "type": "t_contract(IReserve)59721"
      },
      {
        "astId": 29084,
        "contract": "contracts/Bucket/Bucket.sol:Bucket",
        "label": "pToken",
        "offset": 0,
        "slot": "105",
        "type": "t_contract(IPToken)46796"
      },
      {
        "astId": 29088,
        "contract": "contracts/Bucket/Bucket.sol:Bucket",
        "label": "debtToken",
        "offset": 0,
        "slot": "106",
        "type": "t_contract(IDebtToken)32381"
      },
      {
        "astId": 29092,
        "contract": "contracts/Bucket/Bucket.sol:Bucket",
        "label": "borrowedAsset",
        "offset": 0,
        "slot": "107",
        "type": "t_contract(IERC20Metadata)11045"
      },
      {
        "astId": 29095,
        "contract": "contracts/Bucket/Bucket.sol:Bucket",
        "label": "feeBuffer",
        "offset": 0,
        "slot": "108",
        "type": "t_uint256"
      },
      {
        "astId": 29098,
        "contract": "contracts/Bucket/Bucket.sol:Bucket",
        "label": "bar",
        "offset": 0,
        "slot": "109",
        "type": "t_uint128"
      },
      {
        "astId": 29101,
        "contract": "contracts/Bucket/Bucket.sol:Bucket",
        "label": "lar",
        "offset": 16,
        "slot": "109",
        "type": "t_uint128"
      },
      {
        "astId": 29104,
        "contract": "contracts/Bucket/Bucket.sol:Bucket",
        "label": "estimatedBar",
        "offset": 0,
        "slot": "110",
        "type": "t_uint128"
      },
      {
        "astId": 29107,
        "contract": "contracts/Bucket/Bucket.sol:Bucket",
        "label": "estimatedLar",
        "offset": 16,
        "slot": "110",
        "type": "t_uint128"
      },
      {
        "astId": 29110,
        "contract": "contracts/Bucket/Bucket.sol:Bucket",
        "label": "liquidityIndex",
        "offset": 0,
        "slot": "111",
        "type": "t_uint128"
      },
      {
        "astId": 29113,
        "contract": "contracts/Bucket/Bucket.sol:Bucket",
        "label": "variableBorrowIndex",
        "offset": 16,
        "slot": "111",
        "type": "t_uint128"
      },
      {
        "astId": 29115,
        "contract": "contracts/Bucket/Bucket.sol:Bucket",
        "label": "lastUpdatedBlockTimestamp",
        "offset": 0,
        "slot": "112",
        "type": "t_uint256"
      },
      {
        "astId": 29118,
        "contract": "contracts/Bucket/Bucket.sol:Bucket",
        "label": "permanentLossScaled",
        "offset": 0,
        "slot": "113",
        "type": "t_uint256"
      },
      {
        "astId": 29120,
        "contract": "contracts/Bucket/Bucket.sol:Bucket",
        "label": "reserveRate",
        "offset": 0,
        "slot": "114",
        "type": "t_uint256"
      },
      {
        "astId": 29123,
        "contract": "contracts/Bucket/Bucket.sol:Bucket",
        "label": "withdrawalFeeRate",
        "offset": 0,
        "slot": "115",
        "type": "t_uint256"
      },
      {
        "astId": 29127,
        "contract": "contracts/Bucket/Bucket.sol:Bucket",
        "label": "whiteBlackList",
        "offset": 0,
        "slot": "116",
        "type": "t_contract(IWhiteBlackList)68256"
      },
      {
        "astId": 29133,
        "contract": "contracts/Bucket/Bucket.sol:Bucket",
        "label": "allowedAssets",
        "offset": 0,
        "slot": "117",
        "type": "t_mapping(t_address,t_struct(Asset)30704_storage)"
      },
      {
        "astId": 29136,
        "contract": "contracts/Bucket/Bucket.sol:Bucket",
        "label": "interestRateStrategy",
        "offset": 0,
        "slot": "118",
        "type": "t_contract(IInterestRateStrategy)70503"
      },
      {
        "astId": 29138,
        "contract": "contracts/Bucket/Bucket.sol:Bucket",
        "label": "aaveDeposit",
        "offset": 0,
        "slot": "119",
        "type": "t_uint256"
      },
      {
        "astId": 29140,
        "contract": "contracts/Bucket/Bucket.sol:Bucket",
        "label": "isReinvestToAaveEnabled",
        "offset": 0,
        "slot": "120",
        "type": "t_bool"
      },
      {
        "astId": 29143,
        "contract": "contracts/Bucket/Bucket.sol:Bucket",
        "label": "maxTotalDeposit",
        "offset": 0,
        "slot": "121",
        "type": "t_uint256"
      },
      {
        "astId": 29146,
        "contract": "contracts/Bucket/Bucket.sol:Bucket",
        "label": "assets",
        "offset": 0,
        "slot": "122",
        "type": "t_array(t_address)dyn_storage"
      },
      {
        "astId": 29149,
        "contract": "contracts/Bucket/Bucket.sol:Bucket",
        "label": "LMparams",
        "offset": 0,
        "slot": "123",
        "type": "t_struct(LiquidityMiningParams)30699_storage"
      },
      {
        "astId": 29152,
        "contract": "contracts/Bucket/Bucket.sol:Bucket",
        "label": "dns",
        "offset": 0,
        "slot": "131",
        "type": "t_contract(IPrimexDNSV3)55803"
      },
      {
        "astId": 29155,
        "contract": "contracts/Bucket/Bucket.sol:Bucket",
        "label": "priceOracle",
        "offset": 0,
        "slot": "132",
        "type": "t_contract(IPriceOracleV2)53221"
      },
      {
        "astId": 29163,
        "contract": "contracts/Bucket/Bucket.sol:Bucket",
        "label": "bucketExtension",
        "offset": 0,
        "slot": "133",
        "type": "t_address"
      }
    ],
    "types": {
      "t_address": {
        "encoding": "inplace",
        "label": "address",
        "numberOfBytes": "20"
      },
      "t_array(t_address)dyn_storage": {
        "base": "t_address",
        "encoding": "dynamic_array",
        "label": "address[]",
        "numberOfBytes": "32"
      },
      "t_array(t_uint256)49_storage": {
        "base": "t_uint256",
        "encoding": "inplace",
        "label": "uint256[49]",
        "numberOfBytes": "1568"
      },
      "t_array(t_uint256)50_storage": {
        "base": "t_uint256",
        "encoding": "inplace",
        "label": "uint256[50]",
        "numberOfBytes": "1600"
      },
      "t_bool": {
        "encoding": "inplace",
        "label": "bool",
        "numberOfBytes": "1"
      },
      "t_contract(IDebtToken)32381": {
        "encoding": "inplace",
        "label": "contract IDebtToken",
        "numberOfBytes": "20"
      },
      "t_contract(IERC20Metadata)11045": {
        "encoding": "inplace",
        "label": "contract IERC20Metadata",
        "numberOfBytes": "20"
      },
      "t_contract(IInterestRateStrategy)70503": {
        "encoding": "inplace",
        "label": "contract IInterestRateStrategy",
        "numberOfBytes": "20"
      },
      "t_contract(ILiquidityMiningRewardDistributor)44347": {
        "encoding": "inplace",
        "label": "contract ILiquidityMiningRewardDistributor",
        "numberOfBytes": "20"
      },
      "t_contract(IPToken)46796": {
        "encoding": "inplace",
        "label": "contract IPToken",
        "numberOfBytes": "20"
      },
      "t_contract(IPositionManagerV2)48999": {
        "encoding": "inplace",
        "label": "contract IPositionManagerV2",
        "numberOfBytes": "20"
      },
      "t_contract(IPriceOracleV2)53221": {
        "encoding": "inplace",
        "label": "contract IPriceOracleV2",
        "numberOfBytes": "20"
      },
      "t_contract(IPrimexDNSV3)55803": {
        "encoding": "inplace",
        "label": "contract IPrimexDNSV3",
        "numberOfBytes": "20"
      },
      "t_contract(IReserve)59721": {
        "encoding": "inplace",
        "label": "contract IReserve",
        "numberOfBytes": "20"
      },
      "t_contract(IWhiteBlackList)68256": {
        "encoding": "inplace",
        "label": "contract IWhiteBlackList",
        "numberOfBytes": "20"
      },
      "t_mapping(t_address,t_struct(Asset)30704_storage)": {
        "encoding": "mapping",
        "key": "t_address",
        "label": "mapping(address => struct IBucketStorage.Asset)",
        "numberOfBytes": "32",
        "value": "t_struct(Asset)30704_storage"
      },
      "t_string_storage": {
        "encoding": "bytes",
        "label": "string",
        "numberOfBytes": "32"
      },
      "t_struct(Asset)30704_storage": {
        "encoding": "inplace",
        "label": "struct IBucketStorage.Asset",
        "members": [
          {
            "astId": 30701,
            "contract": "contracts/Bucket/Bucket.sol:Bucket",
            "label": "index",
            "offset": 0,
            "slot": "0",
            "type": "t_uint256"
          },
          {
            "astId": 30703,
            "contract": "contracts/Bucket/Bucket.sol:Bucket",
            "label": "isSupported",
            "offset": 0,
            "slot": "1",
            "type": "t_bool"
          }
        ],
        "numberOfBytes": "64"
      },
      "t_struct(LiquidityMiningParams)30699_storage": {
        "encoding": "inplace",
        "label": "struct IBucketStorage.LiquidityMiningParams",
        "members": [
          {
            "astId": 30682,
            "contract": "contracts/Bucket/Bucket.sol:Bucket",
            "label": "liquidityMiningRewardDistributor",
            "offset": 0,
            "slot": "0",
            "type": "t_contract(ILiquidityMiningRewardDistributor)44347"
          },
          {
            "astId": 30684,
            "contract": "contracts/Bucket/Bucket.sol:Bucket",
            "label": "isBucketLaunched",
            "offset": 20,
            "slot": "0",
            "type": "t_bool"
          },
          {
            "astId": 30686,
            "contract": "contracts/Bucket/Bucket.sol:Bucket",
            "label": "accumulatingAmount",
            "offset": 0,
            "slot": "1",
            "type": "t_uint256"
          },
          {
            "astId": 30688,
            "contract": "contracts/Bucket/Bucket.sol:Bucket",
            "label": "deadlineTimestamp",
            "offset": 0,
            "slot": "2",
            "type": "t_uint256"
          },
          {
            "astId": 30690,
            "contract": "contracts/Bucket/Bucket.sol:Bucket",
            "label": "stabilizationDuration",
            "offset": 0,
            "slot": "3",
            "type": "t_uint256"
          },
          {
            "astId": 30692,
            "contract": "contracts/Bucket/Bucket.sol:Bucket",
            "label": "stabilizationEndTimestamp",
            "offset": 0,
            "slot": "4",
            "type": "t_uint256"
          },
          {
            "astId": 30694,
            "contract": "contracts/Bucket/Bucket.sol:Bucket",
            "label": "maxAmountPerUser",
            "offset": 0,
            "slot": "5",
            "type": "t_uint256"
          },
          {
            "astId": 30696,
            "contract": "contracts/Bucket/Bucket.sol:Bucket",
            "label": "maxDuration",
            "offset": 0,
            "slot": "6",
            "type": "t_uint256"
          },
          {
            "astId": 30698,
            "contract": "contracts/Bucket/Bucket.sol:Bucket",
            "label": "maxStabilizationEndTimestamp",
            "offset": 0,
            "slot": "7",
            "type": "t_uint256"
          }
        ],
        "numberOfBytes": "256"
      },
      "t_uint128": {
        "encoding": "inplace",
        "label": "uint128",
        "numberOfBytes": "16"
      },
      "t_uint256": {
        "encoding": "inplace",
        "label": "uint256",
        "numberOfBytes": "32"
      },
      "t_uint8": {
        "encoding": "inplace",
        "label": "uint8",
        "numberOfBytes": "1"
      }
    }
  }
}