{
  "address": "0x103A9FF33c709405DF58f8f209C53f6B5c5eA2BE",
  "abi": [
    {
      "inputs": [
        {
          "internalType": "address",
          "name": "_registry",
          "type": "address"
        }
      ],
      "stateMutability": "nonpayable",
      "type": "constructor"
    },
    {
      "anonymous": false,
      "inputs": [
        {
          "indexed": true,
          "internalType": "int256",
          "name": "current",
          "type": "int256"
        },
        {
          "indexed": true,
          "internalType": "uint256",
          "name": "roundId",
          "type": "uint256"
        },
        {
          "indexed": false,
          "internalType": "uint256",
          "name": "updatedAt",
          "type": "uint256"
        }
      ],
      "name": "AnswerUpdated",
      "type": "event"
    },
    {
      "anonymous": false,
      "inputs": [
        {
          "indexed": true,
          "internalType": "uint256",
          "name": "roundId",
          "type": "uint256"
        },
        {
          "indexed": true,
          "internalType": "address",
          "name": "startedBy",
          "type": "address"
        },
        {
          "indexed": false,
          "internalType": "uint256",
          "name": "startedAt",
          "type": "uint256"
        }
      ],
      "name": "NewRound",
      "type": "event"
    },
    {
      "inputs": [],
      "name": "decimals",
      "outputs": [
        {
          "internalType": "uint8",
          "name": "",
          "type": "uint8"
        }
      ],
      "stateMutability": "view",
      "type": "function"
    },
    {
      "inputs": [],
      "name": "description",
      "outputs": [
        {
          "internalType": "string",
          "name": "",
          "type": "string"
        }
      ],
      "stateMutability": "pure",
      "type": "function"
    },
    {
      "inputs": [
        {
          "internalType": "uint256",
          "name": "roundId",
          "type": "uint256"
        }
      ],
      "name": "getAnswer",
      "outputs": [
        {
          "internalType": "int256",
          "name": "",
          "type": "int256"
        }
      ],
      "stateMutability": "view",
      "type": "function"
    },
    {
      "inputs": [
        {
          "internalType": "uint80",
          "name": "_roundId",
          "type": "uint80"
        }
      ],
      "name": "getRoundData",
      "outputs": [
        {
          "internalType": "uint80",
          "name": "",
          "type": "uint80"
        },
        {
          "internalType": "int256",
          "name": "",
          "type": "int256"
        },
        {
          "internalType": "uint256",
          "name": "",
          "type": "uint256"
        },
        {
          "internalType": "uint256",
          "name": "",
          "type": "uint256"
        },
        {
          "internalType": "uint80",
          "name": "",
          "type": "uint80"
        }
      ],
      "stateMutability": "view",
      "type": "function"
    },
    {
      "inputs": [
        {
          "internalType": "uint256",
          "name": "roundId",
          "type": "uint256"
        }
      ],
      "name": "getTimestamp",
      "outputs": [
        {
          "internalType": "uint256",
          "name": "",
          "type": "uint256"
        }
      ],
      "stateMutability": "view",
      "type": "function"
    },
    {
      "inputs": [],
      "name": "latestAnswer",
      "outputs": [
        {
          "internalType": "int256",
          "name": "",
          "type": "int256"
        }
      ],
      "stateMutability": "view",
      "type": "function"
    },
    {
      "inputs": [],
      "name": "latestRound",
      "outputs": [
        {
          "internalType": "uint256",
          "name": "",
          "type": "uint256"
        }
      ],
      "stateMutability": "view",
      "type": "function"
    },
    {
      "inputs": [],
      "name": "latestRoundData",
      "outputs": [
        {
          "internalType": "uint80",
          "name": "",
          "type": "uint80"
        },
        {
          "internalType": "int256",
          "name": "",
          "type": "int256"
        },
        {
          "internalType": "uint256",
          "name": "",
          "type": "uint256"
        },
        {
          "internalType": "uint256",
          "name": "",
          "type": "uint256"
        },
        {
          "internalType": "uint80",
          "name": "",
          "type": "uint80"
        }
      ],
      "stateMutability": "view",
      "type": "function"
    },
    {
      "inputs": [],
      "name": "latestTimestamp",
      "outputs": [
        {
          "internalType": "uint256",
          "name": "",
          "type": "uint256"
        }
      ],
      "stateMutability": "view",
      "type": "function"
    },
    {
      "inputs": [],
      "name": "registry",
      "outputs": [
        {
          "internalType": "address",
          "name": "",
          "type": "address"
        }
      ],
      "stateMutability": "view",
      "type": "function"
    },
    {
      "inputs": [
        {
          "internalType": "int256",
          "name": "answer",
          "type": "int256"
        }
      ],
      "name": "setAnswer",
      "outputs": [],
      "stateMutability": "nonpayable",
      "type": "function"
    },
    {
      "inputs": [],
      "name": "version",
      "outputs": [
        {
          "internalType": "uint256",
          "name": "",
          "type": "uint256"
        }
      ],
      "stateMutability": "pure",
      "type": "function"
    }
  ],
  "transactionHash": "0x4b45a1ba9a44cc2704ab7910ccb3f82468a0224e56f4b641c11c83d4ae48b58d",
  "args": [
    "0xD1869a3C77C17D185c9a5e8904e0e4867e5EB1D9"
  ],
  "numDeployments": 1,
  "solcInputHash": "77b92b6c993777e32b56dbda936965f9",
  "bytecode": "0x60a0806040523461010a57602081610767803803809161001f828561010f565b83398101031261010a57516001600160a01b03811680820361010a576000805460ff191660081781556040516301ffc9a760e01b8152637965db0b60e01b600482015291602090839060249082905afa9182156100fd5781926100b8575b5050156100a65760805260405161061e9081610149823960805181818161025a01526104480152f35b60405163044aa57560e41b8152600490fd5b9091506020813d82116100f5575b816100d36020938361010f565b810103126100f157519081151582036100ee5750388061007d565b80fd5b5080fd5b3d91506100c6565b50604051903d90823e3d90fd5b600080fd5b601f909101601f19168101906001600160401b0382119082101761013257604052565b634e487b7160e01b600052604160045260246000fdfe608060408181526004918236101561001657600080fd5b600090813560e01c908163313ce5671461057a5750806350d25bcd1461055b57806354fd4d5014610540578063668a0f02146105185780637284e416146104775780637b103999146104335780638205bf6a1461041557806399213cd8146102235780639a6fc8f514610145578063b5ab58dc14610126578063b633620c146101005763feaf968c146100a857600080fd5b346100fd57806003193601126100fd5750600154600254600354935460055493516001600160501b03938416815260208101929092526040820194909452606081019390935216608082015260a090f35b0390f35b80fd5b50346100fd5760203660031901126100fd575061011f602092356105c3565b9051908152f35b50346100fd5760203660031901126100fd575061011f60209235610597565b50903461021f57602036600319011261021f578235926001600160501b039384811680910361021b57835260066020528183209180519360a085019085821067ffffffffffffffff831117610208575091816080936100f9959352868354169586815260018401549788602083015260028501549384848401526003860154958660608501520154169485910152519586958693608093969591929660a08601976001600160501b03809516875260208701526040860152606085015216910152565b634e487b7160e01b815260418452602490fd5b8380fd5b5080fd5b50903461021f57602080600319360112610411578151632474521560e21b81528085018490523360248201528435919081816044817f00000000000000000000000000000000000000000000000000000000000000006001600160a01b03165afa9081156104075785916103a3575b501561039357816002556001600160501b0380855460081c166001600160501b03198760019280838554161784554260035542825580836005541617600555808952600686528789209084820361035f575b505050508554828160081c1683811461034c57906affffffffffffffffffff00837f0559884fd3a460db3073b7fc896cc77986f16e378210ded43186175bf646fc5f969594930160081b16906affffffffffffffffffff00191617875554169351428152a380f35b634e487b7160e01b885260118952602488fd5b83825416178155600254848201556003546002820155815460038201550190836005541690825416179055388781806102e4565b825163036be76f60e61b81528590fd5b9050813d8311610400575b601f8101601f1916820167ffffffffffffffff8111838210176103ed57839183918752810103126103e9575180151581036103e95738610292565b8480fd5b634e487b7160e01b875260418852602487fd5b503d6103ae565b84513d87823e3d90fd5b8280fd5b50913461041157826003193601126104115760209250549051908152f35b50903461021f578160031936011261021f57517f00000000000000000000000000000000000000000000000000000000000000006001600160a01b03168152602090f35b5091346104115782600319360112610411578151908282019082821067ffffffffffffffff83111761050557508252600a81526020906911541356080bc81554d160b21b8282015282519382859384528251928382860152825b8481106104ef57505050828201840152601f01601f19168101030190f35b81810183015188820188015287955082016104d1565b634e487b7160e01b855260419052602484fd5b50903461021f578160031936011261021f576020906001600160501b03600154169051908152f35b50903461021f578160031936011261021f5751908152602090f35b50903461021f578160031936011261021f576020906002549051908152f35b90503461021f578160031936011261021f5760ff60209254168152f35b6001600160501b03908181116105bc5716600052600660205260016040600020015490565b5050600090565b6001600160501b03908181116105bc571660005260066020526003604060002001549056fea264697066735822122036fef0684495516436073629dd640b039c5b9f970f9ba578d0ab1e64b3c9dd2b64736f6c63430008120033",
  "libraries": {
    "Errors": "0x988288925196F0725268378d0C7c8aA0E50EB423"
  },
  "devdoc": {
    "kind": "dev",
    "methods": {
      "description()": {
        "returns": {
          "_0": "The description string \"EPMX / USD\"."
        }
      },
      "getAnswer(uint256)": {
        "params": {
          "roundId": "The round ID for which to get the answer."
        },
        "returns": {
          "_0": "The answer previously set with setAnswer()."
        }
      },
      "getRoundData(uint80)": {
        "params": {
          "_roundId": "The ID of the round to retrieve data for."
        },
        "returns": {
          "_0": "roundId The ID of the round.",
          "_1": "answer The answer for the round.",
          "_2": "startedAt The timestamp when the round started.",
          "_3": "updatedAt The timestamp when the round was last updated.",
          "_4": "answeredInRound The ID of the round in which the answer was computed."
        }
      },
      "getTimestamp(uint256)": {
        "params": {
          "roundId": "The round ID for which to retrieve the timestamp."
        },
        "returns": {
          "_0": "The timestamp when the round was last updated."
        }
      },
      "latestAnswer()": {
        "returns": {
          "_0": "The latest answer, with a precision of 8 decimal (USD decimals)."
        }
      },
      "latestRound()": {
        "returns": {
          "_0": "The latest round ID."
        }
      },
      "latestRoundData()": {
        "returns": {
          "_0": "roundId The ID of the latest round.",
          "_1": "answer The answer provided in the latest round.",
          "_2": "startedAt The timestamp when the latest round started.",
          "_3": "updatedAt The timestamp when the latest round was updated.",
          "_4": "answeredInRound The round in which the latest answer was provided."
        }
      },
      "latestTimestamp()": {
        "returns": {
          "_0": "The latest timestamp of when the round was updated, in seconds (UTC)."
        }
      },
      "setAnswer(int256)": {
        "details": "Only callable by the BIG_TIMELOCK_ADMIN role.",
        "params": {
          "answer": "The answer to be set with a precision of 8 decimal (USD decimals)."
        }
      }
    },
    "version": 1
  },
  "userdoc": {
    "kind": "user",
    "methods": {
      "description()": {
        "notice": "Returns the description of the contract."
      },
      "getAnswer(uint256)": {
        "notice": "Retrieves the answer for a given round ID."
      },
      "getRoundData(uint80)": {
        "notice": "Retrieves the data for a specific round."
      },
      "getTimestamp(uint256)": {
        "notice": "Retrieves the timestamp of a given round ID."
      },
      "latestAnswer()": {
        "notice": "Retrieves the latest answer from the oracle."
      },
      "latestRound()": {
        "notice": "Retrieves the latest round ID."
      },
      "latestRoundData()": {
        "notice": "Returns the latest round data."
      },
      "latestTimestamp()": {
        "notice": "Retrieves the latest timestamp of the round data."
      },
      "setAnswer(int256)": {
        "notice": "Sets the answer for the current round."
      },
      "version()": {
        "notice": "This function provides the version number of the contract."
      }
    },
    "version": 1
  },
  "storageLayout": {
    "storage": [
      {
        "astId": 30008,
        "contract": "contracts/EPMXPriceFeed.sol:EPMXPriceFeed",
        "label": "decimals",
        "offset": 0,
        "slot": "0",
        "type": "t_uint8"
      },
      {
        "astId": 30010,
        "contract": "contracts/EPMXPriceFeed.sol:EPMXPriceFeed",
        "label": "_currentRound",
        "offset": 1,
        "slot": "0",
        "type": "t_uint80"
      },
      {
        "astId": 30013,
        "contract": "contracts/EPMXPriceFeed.sol:EPMXPriceFeed",
        "label": "_latestRoundData",
        "offset": 0,
        "slot": "1",
        "type": "t_struct(RoundData)30002_storage"
      },
      {
        "astId": 30018,
        "contract": "contracts/EPMXPriceFeed.sol:EPMXPriceFeed",
        "label": "_answers",
        "offset": 0,
        "slot": "6",
        "type": "t_mapping(t_uint80,t_struct(RoundData)30002_storage)"
      }
    ],
    "types": {
      "t_int256": {
        "encoding": "inplace",
        "label": "int256",
        "numberOfBytes": "32"
      },
      "t_mapping(t_uint80,t_struct(RoundData)30002_storage)": {
        "encoding": "mapping",
        "key": "t_uint80",
        "label": "mapping(uint80 => struct EPMXPriceFeed.RoundData)",
        "numberOfBytes": "32",
        "value": "t_struct(RoundData)30002_storage"
      },
      "t_struct(RoundData)30002_storage": {
        "encoding": "inplace",
        "label": "struct EPMXPriceFeed.RoundData",
        "members": [
          {
            "astId": 29993,
            "contract": "contracts/EPMXPriceFeed.sol:EPMXPriceFeed",
            "label": "roundId",
            "offset": 0,
            "slot": "0",
            "type": "t_uint80"
          },
          {
            "astId": 29995,
            "contract": "contracts/EPMXPriceFeed.sol:EPMXPriceFeed",
            "label": "answer",
            "offset": 0,
            "slot": "1",
            "type": "t_int256"
          },
          {
            "astId": 29997,
            "contract": "contracts/EPMXPriceFeed.sol:EPMXPriceFeed",
            "label": "startedAt",
            "offset": 0,
            "slot": "2",
            "type": "t_uint256"
          },
          {
            "astId": 29999,
            "contract": "contracts/EPMXPriceFeed.sol:EPMXPriceFeed",
            "label": "updatedAt",
            "offset": 0,
            "slot": "3",
            "type": "t_uint256"
          },
          {
            "astId": 30001,
            "contract": "contracts/EPMXPriceFeed.sol:EPMXPriceFeed",
            "label": "answeredInRound",
            "offset": 0,
            "slot": "4",
            "type": "t_uint80"
          }
        ],
        "numberOfBytes": "160"
      },
      "t_uint256": {
        "encoding": "inplace",
        "label": "uint256",
        "numberOfBytes": "32"
      },
      "t_uint8": {
        "encoding": "inplace",
        "label": "uint8",
        "numberOfBytes": "1"
      },
      "t_uint80": {
        "encoding": "inplace",
        "label": "uint80",
        "numberOfBytes": "10"
      }
    }
  }
}