{
  "address": "0xbe2ada55Db65EeAf23dC1E5116F9FaB66A162666",
  "abi": [
    {
      "inputs": [],
      "stateMutability": "nonpayable",
      "type": "constructor"
    },
    {
      "inputs": [],
      "name": "DS_MATH_ADD_OVERFLOW",
      "type": "error"
    },
    {
      "inputs": [],
      "name": "DS_MATH_MUL_OVERFLOW",
      "type": "error"
    },
    {
      "anonymous": false,
      "inputs": [
        {
          "indexed": true,
          "internalType": "uint256",
          "name": "additionalGas",
          "type": "uint256"
        }
      ],
      "name": "AdditionalGasChanged",
      "type": "event"
    },
    {
      "anonymous": false,
      "inputs": [
        {
          "indexed": true,
          "internalType": "address",
          "name": "keeper",
          "type": "address"
        },
        {
          "indexed": true,
          "internalType": "address",
          "name": "asset",
          "type": "address"
        },
        {
          "indexed": false,
          "internalType": "uint256",
          "name": "amount",
          "type": "uint256"
        }
      ],
      "name": "ClaimFees",
      "type": "event"
    },
    {
      "anonymous": false,
      "inputs": [
        {
          "indexed": false,
          "internalType": "enum IKeeperRewardDistributorStorage.KeeperCallingMethod",
          "name": "callingMethod",
          "type": "uint8"
        },
        {
          "indexed": false,
          "internalType": "uint256",
          "name": "maxRoutesLength",
          "type": "uint256"
        },
        {
          "indexed": false,
          "internalType": "uint256",
          "name": "baseLength",
          "type": "uint256"
        }
      ],
      "name": "DataLengthRestrictionsChanged",
      "type": "event"
    },
    {
      "anonymous": false,
      "inputs": [
        {
          "indexed": true,
          "internalType": "enum IKeeperRewardDistributorStorage.DecreasingReason",
          "name": "reason",
          "type": "uint8"
        },
        {
          "indexed": false,
          "internalType": "uint256",
          "name": "amount",
          "type": "uint256"
        }
      ],
      "name": "DecreasingGasByReasonChanged",
      "type": "event"
    },
    {
      "anonymous": false,
      "inputs": [
        {
          "indexed": true,
          "internalType": "uint256",
          "name": "defaultMaxGasPrice",
          "type": "uint256"
        }
      ],
      "name": "DefaultMaxGasPriceChanged",
      "type": "event"
    },
    {
      "anonymous": false,
      "inputs": [
        {
          "indexed": false,
          "internalType": "uint8",
          "name": "version",
          "type": "uint8"
        }
      ],
      "name": "Initialized",
      "type": "event"
    },
    {
      "anonymous": false,
      "inputs": [
        {
          "indexed": true,
          "internalType": "address",
          "name": "keeper",
          "type": "address"
        },
        {
          "indexed": false,
          "internalType": "uint256",
          "name": "rewardInPmx",
          "type": "uint256"
        },
        {
          "indexed": false,
          "internalType": "uint256",
          "name": "rewardInNativeCurrency",
          "type": "uint256"
        }
      ],
      "name": "KeeperRewardUpdated",
      "type": "event"
    },
    {
      "anonymous": false,
      "inputs": [
        {
          "indexed": true,
          "internalType": "enum IKeeperRewardDistributorStorage.KeeperActionType",
          "name": "actionType",
          "type": "uint8"
        },
        {
          "components": [
            {
              "internalType": "uint256",
              "name": "baseMaxGas1",
              "type": "uint256"
            },
            {
              "internalType": "uint256",
              "name": "baseMaxGas2",
              "type": "uint256"
            },
            {
              "internalType": "uint256",
              "name": "multiplier1",
              "type": "uint256"
            },
            {
              "internalType": "uint256",
              "name": "multiplier2",
              "type": "uint256"
            },
            {
              "internalType": "uint256",
              "name": "inflectionPoint",
              "type": "uint256"
            }
          ],
          "indexed": false,
          "internalType": "struct IKeeperRewardDistributorStorage.KeeperActionRewardConfig",
          "name": "config",
          "type": "tuple"
        }
      ],
      "name": "MaxGasPerPositionChanged",
      "type": "event"
    },
    {
      "anonymous": false,
      "inputs": [
        {
          "indexed": false,
          "internalType": "uint256",
          "name": "newMinPositionSizeAddend",
          "type": "uint256"
        }
      ],
      "name": "MinPositionSizeAddendChanged",
      "type": "event"
    },
    {
      "anonymous": false,
      "inputs": [
        {
          "indexed": true,
          "internalType": "uint256",
          "name": "nativePartInReward",
          "type": "uint256"
        }
      ],
      "name": "NativePartInRewardChanged",
      "type": "event"
    },
    {
      "anonymous": false,
      "inputs": [
        {
          "indexed": false,
          "internalType": "uint256",
          "name": "newOptimismGasCoefficient",
          "type": "uint256"
        }
      ],
      "name": "OptimisticGasCoefficientChanged",
      "type": "event"
    },
    {
      "anonymous": false,
      "inputs": [
        {
          "indexed": true,
          "internalType": "uint256",
          "name": "oracleGasPriceTolerance",
          "type": "uint256"
        }
      ],
      "name": "OracleGasPriceToleranceChanged",
      "type": "event"
    },
    {
      "anonymous": false,
      "inputs": [
        {
          "indexed": false,
          "internalType": "address",
          "name": "account",
          "type": "address"
        }
      ],
      "name": "Paused",
      "type": "event"
    },
    {
      "anonymous": false,
      "inputs": [
        {
          "indexed": true,
          "internalType": "uint256",
          "name": "pmxPartInReward",
          "type": "uint256"
        }
      ],
      "name": "PmxPartInRewardChanged",
      "type": "event"
    },
    {
      "anonymous": false,
      "inputs": [
        {
          "indexed": true,
          "internalType": "uint256",
          "name": "positionSizeCoefficient",
          "type": "uint256"
        }
      ],
      "name": "PositionSizeCoefficientChanged",
      "type": "event"
    },
    {
      "anonymous": false,
      "inputs": [
        {
          "indexed": false,
          "internalType": "address",
          "name": "account",
          "type": "address"
        }
      ],
      "name": "Unpaused",
      "type": "event"
    },
    {
      "inputs": [],
      "name": "additionalGas",
      "outputs": [
        {
          "internalType": "uint256",
          "name": "",
          "type": "uint256"
        }
      ],
      "stateMutability": "view",
      "type": "function"
    },
    {
      "inputs": [
        {
          "internalType": "uint256",
          "name": "_pmxAmount",
          "type": "uint256"
        },
        {
          "internalType": "uint256",
          "name": "_nativeAmount",
          "type": "uint256"
        }
      ],
      "name": "claim",
      "outputs": [],
      "stateMutability": "nonpayable",
      "type": "function"
    },
    {
      "inputs": [
        {
          "internalType": "enum IKeeperRewardDistributorStorage.KeeperCallingMethod",
          "name": "",
          "type": "uint8"
        }
      ],
      "name": "dataLengthRestrictions",
      "outputs": [
        {
          "internalType": "uint256",
          "name": "maxRoutesLength",
          "type": "uint256"
        },
        {
          "internalType": "uint256",
          "name": "baseLength",
          "type": "uint256"
        }
      ],
      "stateMutability": "view",
      "type": "function"
    },
    {
      "inputs": [
        {
          "internalType": "enum IKeeperRewardDistributorStorage.DecreasingReason",
          "name": "",
          "type": "uint8"
        }
      ],
      "name": "decreasingGasByReason",
      "outputs": [
        {
          "internalType": "uint256",
          "name": "",
          "type": "uint256"
        }
      ],
      "stateMutability": "view",
      "type": "function"
    },
    {
      "inputs": [],
      "name": "defaultMaxGasPrice",
      "outputs": [
        {
          "internalType": "uint256",
          "name": "",
          "type": "uint256"
        }
      ],
      "stateMutability": "view",
      "type": "function"
    },
    {
      "inputs": [],
      "name": "getGasCalculationParams",
      "outputs": [
        {
          "internalType": "uint256",
          "name": "",
          "type": "uint256"
        },
        {
          "internalType": "uint256",
          "name": "",
          "type": "uint256"
        },
        {
          "internalType": "uint256",
          "name": "",
          "type": "uint256"
        },
        {
          "internalType": "enum IKeeperRewardDistributorStorage.PaymentModel",
          "name": "",
          "type": "uint8"
        }
      ],
      "stateMutability": "view",
      "type": "function"
    },
    {
      "inputs": [
        {
          "components": [
            {
              "internalType": "address",
              "name": "priceOracle",
              "type": "address"
            },
            {
              "internalType": "address",
              "name": "registry",
              "type": "address"
            },
            {
              "internalType": "address",
              "name": "pmx",
              "type": "address"
            },
            {
              "internalType": "address",
              "name": "treasury",
              "type": "address"
            },
            {
              "internalType": "address",
              "name": "whiteBlackList",
              "type": "address"
            },
            {
              "internalType": "uint256",
              "name": "pmxPartInReward",
              "type": "uint256"
            },
            {
              "internalType": "uint256",
              "name": "nativePartInReward",
              "type": "uint256"
            },
            {
              "internalType": "uint256",
              "name": "positionSizeCoefficient",
              "type": "uint256"
            },
            {
              "internalType": "uint256",
              "name": "additionalGas",
              "type": "uint256"
            },
            {
              "internalType": "uint256",
              "name": "defaultMaxGasPrice",
              "type": "uint256"
            },
            {
              "internalType": "uint256",
              "name": "oracleGasPriceTolerance",
              "type": "uint256"
            },
            {
              "internalType": "enum IKeeperRewardDistributorStorage.PaymentModel",
              "name": "paymentModel",
              "type": "uint8"
            },
            {
              "components": [
                {
                  "internalType": "enum IKeeperRewardDistributorStorage.KeeperActionType",
                  "name": "actionType",
                  "type": "uint8"
                },
                {
                  "components": [
                    {
                      "internalType": "uint256",
                      "name": "baseMaxGas1",
                      "type": "uint256"
                    },
                    {
                      "internalType": "uint256",
                      "name": "baseMaxGas2",
                      "type": "uint256"
                    },
                    {
                      "internalType": "uint256",
                      "name": "multiplier1",
                      "type": "uint256"
                    },
                    {
                      "internalType": "uint256",
                      "name": "multiplier2",
                      "type": "uint256"
                    },
                    {
                      "internalType": "uint256",
                      "name": "inflectionPoint",
                      "type": "uint256"
                    }
                  ],
                  "internalType": "struct IKeeperRewardDistributorStorage.KeeperActionRewardConfig",
                  "name": "config",
                  "type": "tuple"
                }
              ],
              "internalType": "struct IKeeperRewardDistributorV3.MaxGasPerPositionParams[]",
              "name": "maxGasPerPositionParams",
              "type": "tuple[]"
            },
            {
              "components": [
                {
                  "internalType": "enum IKeeperRewardDistributorStorage.DecreasingReason",
                  "name": "reason",
                  "type": "uint8"
                },
                {
                  "internalType": "uint256",
                  "name": "amount",
                  "type": "uint256"
                }
              ],
              "internalType": "struct IKeeperRewardDistributorV3.DecreasingGasByReasonParams[]",
              "name": "decreasingGasByReasonParams",
              "type": "tuple[]"
            }
          ],
          "internalType": "struct IKeeperRewardDistributorV3.InitParams",
          "name": "_params",
          "type": "tuple"
        }
      ],
      "name": "initialize",
      "outputs": [],
      "stateMutability": "nonpayable",
      "type": "function"
    },
    {
      "inputs": [
        {
          "internalType": "address",
          "name": "",
          "type": "address"
        }
      ],
      "name": "keeperBalance",
      "outputs": [
        {
          "internalType": "uint256",
          "name": "pmxBalance",
          "type": "uint256"
        },
        {
          "internalType": "uint256",
          "name": "nativeBalance",
          "type": "uint256"
        }
      ],
      "stateMutability": "view",
      "type": "function"
    },
    {
      "inputs": [
        {
          "internalType": "enum IKeeperRewardDistributorStorage.KeeperActionType",
          "name": "",
          "type": "uint8"
        }
      ],
      "name": "maxGasPerPosition",
      "outputs": [
        {
          "internalType": "uint256",
          "name": "baseMaxGas1",
          "type": "uint256"
        },
        {
          "internalType": "uint256",
          "name": "baseMaxGas2",
          "type": "uint256"
        },
        {
          "internalType": "uint256",
          "name": "multiplier1",
          "type": "uint256"
        },
        {
          "internalType": "uint256",
          "name": "multiplier2",
          "type": "uint256"
        },
        {
          "internalType": "uint256",
          "name": "inflectionPoint",
          "type": "uint256"
        }
      ],
      "stateMutability": "view",
      "type": "function"
    },
    {
      "inputs": [],
      "name": "minPositionSizeAddend",
      "outputs": [
        {
          "internalType": "uint256",
          "name": "",
          "type": "uint256"
        }
      ],
      "stateMutability": "view",
      "type": "function"
    },
    {
      "inputs": [],
      "name": "nativePartInReward",
      "outputs": [
        {
          "internalType": "uint256",
          "name": "",
          "type": "uint256"
        }
      ],
      "stateMutability": "view",
      "type": "function"
    },
    {
      "inputs": [],
      "name": "optimisticGasCoefficient",
      "outputs": [
        {
          "internalType": "uint256",
          "name": "",
          "type": "uint256"
        }
      ],
      "stateMutability": "view",
      "type": "function"
    },
    {
      "inputs": [],
      "name": "oracleGasPriceTolerance",
      "outputs": [
        {
          "internalType": "uint256",
          "name": "",
          "type": "uint256"
        }
      ],
      "stateMutability": "view",
      "type": "function"
    },
    {
      "inputs": [],
      "name": "pause",
      "outputs": [],
      "stateMutability": "nonpayable",
      "type": "function"
    },
    {
      "inputs": [],
      "name": "paused",
      "outputs": [
        {
          "internalType": "bool",
          "name": "",
          "type": "bool"
        }
      ],
      "stateMutability": "view",
      "type": "function"
    },
    {
      "inputs": [],
      "name": "paymentModel",
      "outputs": [
        {
          "internalType": "enum IKeeperRewardDistributorStorage.PaymentModel",
          "name": "",
          "type": "uint8"
        }
      ],
      "stateMutability": "view",
      "type": "function"
    },
    {
      "inputs": [],
      "name": "pmx",
      "outputs": [
        {
          "internalType": "address",
          "name": "",
          "type": "address"
        }
      ],
      "stateMutability": "view",
      "type": "function"
    },
    {
      "inputs": [],
      "name": "pmxPartInReward",
      "outputs": [
        {
          "internalType": "uint256",
          "name": "",
          "type": "uint256"
        }
      ],
      "stateMutability": "view",
      "type": "function"
    },
    {
      "inputs": [],
      "name": "positionSizeCoefficient",
      "outputs": [
        {
          "internalType": "uint256",
          "name": "",
          "type": "uint256"
        }
      ],
      "stateMutability": "view",
      "type": "function"
    },
    {
      "inputs": [],
      "name": "positionSizeCoefficientB",
      "outputs": [
        {
          "internalType": "int256",
          "name": "",
          "type": "int256"
        }
      ],
      "stateMutability": "view",
      "type": "function"
    },
    {
      "inputs": [],
      "name": "priceOracle",
      "outputs": [
        {
          "internalType": "address",
          "name": "",
          "type": "address"
        }
      ],
      "stateMutability": "view",
      "type": "function"
    },
    {
      "inputs": [],
      "name": "registry",
      "outputs": [
        {
          "internalType": "address",
          "name": "",
          "type": "address"
        }
      ],
      "stateMutability": "view",
      "type": "function"
    },
    {
      "inputs": [
        {
          "internalType": "uint256",
          "name": "_additionalGas",
          "type": "uint256"
        }
      ],
      "name": "setAdditionalGas",
      "outputs": [],
      "stateMutability": "nonpayable",
      "type": "function"
    },
    {
      "inputs": [
        {
          "internalType": "enum IKeeperRewardDistributorStorage.KeeperCallingMethod",
          "name": "_callingMethod",
          "type": "uint8"
        },
        {
          "internalType": "uint256",
          "name": "_maxRoutesLength",
          "type": "uint256"
        },
        {
          "internalType": "uint256",
          "name": "_baseLength",
          "type": "uint256"
        }
      ],
      "name": "setDataLengthRestrictions",
      "outputs": [],
      "stateMutability": "nonpayable",
      "type": "function"
    },
    {
      "inputs": [
        {
          "internalType": "enum IKeeperRewardDistributorStorage.DecreasingReason",
          "name": "_reason",
          "type": "uint8"
        },
        {
          "internalType": "uint256",
          "name": "_amount",
          "type": "uint256"
        }
      ],
      "name": "setDecreasingGasByReason",
      "outputs": [],
      "stateMutability": "nonpayable",
      "type": "function"
    },
    {
      "inputs": [
        {
          "internalType": "uint256",
          "name": "_defaultMaxGasPrice",
          "type": "uint256"
        }
      ],
      "name": "setDefaultMaxGasPrice",
      "outputs": [],
      "stateMutability": "nonpayable",
      "type": "function"
    },
    {
      "inputs": [
        {
          "internalType": "enum IKeeperRewardDistributorStorage.KeeperActionType",
          "name": "_actionType",
          "type": "uint8"
        },
        {
          "components": [
            {
              "internalType": "uint256",
              "name": "baseMaxGas1",
              "type": "uint256"
            },
            {
              "internalType": "uint256",
              "name": "baseMaxGas2",
              "type": "uint256"
            },
            {
              "internalType": "uint256",
              "name": "multiplier1",
              "type": "uint256"
            },
            {
              "internalType": "uint256",
              "name": "multiplier2",
              "type": "uint256"
            },
            {
              "internalType": "uint256",
              "name": "inflectionPoint",
              "type": "uint256"
            }
          ],
          "internalType": "struct IKeeperRewardDistributorStorage.KeeperActionRewardConfig",
          "name": "_config",
          "type": "tuple"
        }
      ],
      "name": "setMaxGasPerPosition",
      "outputs": [],
      "stateMutability": "nonpayable",
      "type": "function"
    },
    {
      "inputs": [
        {
          "internalType": "uint256",
          "name": "_minPositionSizeAddend",
          "type": "uint256"
        }
      ],
      "name": "setMinPositionSizeAddend",
      "outputs": [],
      "stateMutability": "nonpayable",
      "type": "function"
    },
    {
      "inputs": [
        {
          "internalType": "uint256",
          "name": "_nativePartInReward",
          "type": "uint256"
        }
      ],
      "name": "setNativePartInReward",
      "outputs": [],
      "stateMutability": "nonpayable",
      "type": "function"
    },
    {
      "inputs": [
        {
          "internalType": "uint256",
          "name": "_newOptimisticGasCoefficient",
          "type": "uint256"
        }
      ],
      "name": "setOptimisticGasCoefficient",
      "outputs": [],
      "stateMutability": "nonpayable",
      "type": "function"
    },
    {
      "inputs": [
        {
          "internalType": "uint256",
          "name": "_oracleGasPriceTolerance",
          "type": "uint256"
        }
      ],
      "name": "setOracleGasPriceTolerance",
      "outputs": [],
      "stateMutability": "nonpayable",
      "type": "function"
    },
    {
      "inputs": [
        {
          "internalType": "uint256",
          "name": "_pmxPartInReward",
          "type": "uint256"
        }
      ],
      "name": "setPmxPartInReward",
      "outputs": [],
      "stateMutability": "nonpayable",
      "type": "function"
    },
    {
      "inputs": [
        {
          "internalType": "uint256",
          "name": "_positionSizeCoefficient",
          "type": "uint256"
        }
      ],
      "name": "setPositionSizeCoefficient",
      "outputs": [],
      "stateMutability": "nonpayable",
      "type": "function"
    },
    {
      "inputs": [
        {
          "internalType": "bytes4",
          "name": "_interfaceId",
          "type": "bytes4"
        }
      ],
      "name": "supportsInterface",
      "outputs": [
        {
          "internalType": "bool",
          "name": "",
          "type": "bool"
        }
      ],
      "stateMutability": "view",
      "type": "function"
    },
    {
      "inputs": [],
      "name": "totalBalance",
      "outputs": [
        {
          "internalType": "uint256",
          "name": "pmxBalance",
          "type": "uint256"
        },
        {
          "internalType": "uint256",
          "name": "nativeBalance",
          "type": "uint256"
        }
      ],
      "stateMutability": "view",
      "type": "function"
    },
    {
      "inputs": [],
      "name": "treasury",
      "outputs": [
        {
          "internalType": "address payable",
          "name": "",
          "type": "address"
        }
      ],
      "stateMutability": "view",
      "type": "function"
    },
    {
      "inputs": [],
      "name": "unpause",
      "outputs": [],
      "stateMutability": "nonpayable",
      "type": "function"
    },
    {
      "inputs": [
        {
          "components": [
            {
              "internalType": "address",
              "name": "keeper",
              "type": "address"
            },
            {
              "internalType": "address",
              "name": "positionAsset",
              "type": "address"
            },
            {
              "internalType": "uint256",
              "name": "positionSize",
              "type": "uint256"
            },
            {
              "internalType": "enum IKeeperRewardDistributorStorage.KeeperActionType",
              "name": "action",
              "type": "uint8"
            },
            {
              "internalType": "uint256",
              "name": "numberOfActions",
              "type": "uint256"
            },
            {
              "internalType": "uint256",
              "name": "gasSpent",
              "type": "uint256"
            },
            {
              "internalType": "uint256[]",
              "name": "decreasingCounter",
              "type": "uint256[]"
            },
            {
              "internalType": "uint256",
              "name": "routesLength",
              "type": "uint256"
            },
            {
              "internalType": "bytes",
              "name": "nativePmxOracleData",
              "type": "bytes"
            },
            {
              "internalType": "bytes",
              "name": "positionNativeAssetOracleData",
              "type": "bytes"
            }
          ],
          "internalType": "struct IKeeperRewardDistributorV3.UpdateRewardParams",
          "name": "_params",
          "type": "tuple"
        }
      ],
      "name": "updateReward",
      "outputs": [],
      "stateMutability": "nonpayable",
      "type": "function"
    }
  ],
  "transactionHash": "0x742c6b218eb26fde2f298abe974fafc36aa89eab372fe18beb1196c01fbb8c7c",
  "args": [],
  "numDeployments": 6,
  "solcInputHash": "b9821e6aa5ae8bcd6a583375e546781d",
  "bytecode": "0x6080806040523460bd576000549060ff8260081c16606b575060ff808216036031575b6040516126ee90816100c38239f35b60ff90811916176000557f7f26b83ff96e1f2b6a682f133852f6798a09c465da95921460cefb3847402498602060405160ff8152a1386022565b62461bcd60e51b815260206004820152602760248201527f496e697469616c697a61626c653a20636f6e747261637420697320696e697469604482015266616c697a696e6760c81b6064820152608490fd5b600080fdfe608080604052600436101561001357600080fd5b600090813560e01c90816301ffc9a7146121b7575080630460f0f31461218e578063129d82fb1461217057806322c09375146121525780632630c12f146121295780632c4c4bc71461207a5780632f5730421461205c5780633963cecd1461203e5780633f4ba83a14611f2c578063466c552e14611f0e5780634a8a4f0114611e505780634b56025a14611da157806351ed1b2014611d00578063522b4a7114611c3057806359605ef114611c1257806359fd074b14611ba85780635c49990714611ada5780635c975abb14611ab757806361d027b314611a8e57806365bf568a146119df5780637483973014611930578063796c8e27146112f75780637b103999146112ce5780638456cb59146111f6578063951e9f78146111405780639ba6049f146110f9578063a3c37fc7146110db578063ad7a672f146110b6578063b0635abc14611073578063bb9d3dbb14611049578063c01031cd1461102b578063c28ee5941461100d578063c349026314610d0e578063e36d6ebf14610bd9578063e6e1333814610b9c578063ee4bc79914610330578063ef1f3c33146102105763fcd3f03e146101c357600080fd5b3461020d57602036600319011261020d576004356001600160a01b03811690819003610209576040828192815260d5602052206001815491015482519182526020820152f35b5080fd5b80fd5b503461020d57606036600319011261020d57600435600381101561020957602435604435916044602060018060a01b0360ca541660405192838092632474521560e21b825260008051602061269983398151915260048301523360248301525afa9081156103255785916102f6575b50156102e4577f914216b6e367e07ec47e2356460e0e9ec4997e7919489ed5e8da444b2128a8fa926060926102b38361222c565b82865260d9602052816001604088208381550155604051926102d48161222c565b835260208301526040820152a180f35b60405163036be76f60e61b8152600490fd5b610318915060203d60201161031e575b6103108183612236565b81019061226e565b3861027f565b503d610306565b6040513d87823e3d90fd5b503461020d57602036600319011261020d5760043567ffffffffffffffff81116102095780600401813603610140600319820112610b985760ca54604051632474521560e21b81527f5580ea9b7f9becaa48a78f506a2019ea24794b7a717ee6a4b9f62e36b94c25a66004820152336024820152906001600160a01b0316602082604481845afa918215610a78578692610b77575b508115610afe575b8115610a83575b50156102e457737A0FFAaEFbed420d00c5E60c1668693a8a26B88C8360206103fe60248301612286565b60c95460c09089906004906001600160a01b031661042061012488018b61238e565b9190829160446040519a8b998a9863735aad2560e01b8a525060018060a01b0316878901527399ec76235f8a5a52611b0da5f0c6b09e1dcd2c9e602489015201356044870152606486015260a060848601528160a486015260c4850137828101820184018c9052601f01601f1916820101030181855af48015610a78578690610a44575b6104b2915060cf54906124d4565b9160dc54808410610a3c575b5060d1549060c48601359060221901811215610a345785019060048201359167ffffffffffffffff8311610a38576024018260051b36038113610a38576105139261050d9160a4890135612575565b906123c1565b906064850135926005841015610a3457608486013592610533848661260b565b808211610a2c575b5060c95460405163455259cb60e01b81526001600160a01b03909116953a92916020816004818b5afa908115610a21578b916109eb575b508a8113156109e25760d354670de0b6b3a7640000019081670de0b6b3a76400001161096457906105a2916124d4565b803a116109da575b50899560ff60d45416916105bd8361222c565b826107ad575b5050506020946105da6105df94936105da936123ce565b6123c1565b906105ec60ce54836124d4565b9560c088600461060b61010460018060a01b0360cb541695018a61238e565b80916040519a8b998a98899763735aad2560e01b8952507399ec76235f8a5a52611b0da5f0c6b09e1dcd2c9e8789015260248801526044870152606486015260a060848601528160a486015260c4850137828101820184018c9052601f01601f19168201010301915af49081156107a257849161074b575b507fb5b60f38246a38a2fd794a7da06cc6a0c32cf4d0b94c9683fde017ee3ea5dbf6916106b560409260cd54906124d4565b906001600160a01b036106c782612286565b16865260d56020528286206106dd8382546123c1565b90556001600160a01b036106f082612286565b16865260d56020526001838720016107098682546123c1565b90556107178260d6546123c1565b60d6556107268560d7546123c1565b60d7556001600160a01b039061073b90612286565b169382519182526020820152a280f35b90506020813d60201161079a575b8161076660209383612236565b8101031261079557517fb5b60f38246a38a2fd794a7da06cc6a0c32cf4d0b94c9683fde017ee3ea5dbf6610683565b600080fd5b3d9150610759565b6040513d86823e3d90fd5b8b9060018311156109bd5750506002908060061b908082046040149015171561096457905b6107db8161222c565b8b5260d960205261080b6107f160408d2061233c565b805190929060e48d013590808210156109b55750906123c1565b916108158161222c565b600181146108e6575b60029061082a8161222c565b14610836575b806105c3565b61084692965060200151906123c1565b60405163f1c7a58b60e01b81526004810191909152602081602481600f602160991b015afa9081156108db5789916108a2575b506020946105da6105df94936108956105da9460dd54906124d4565b9750939450819250610830565b929190506020833d6020116108d3575b816108bf60209383612236565b810103126107955791519091906020610879565b3d91506108b2565b6040513d8b823e3d90fd5b60405163f5d6ded760e01b8152909750602081600481606c5afa9081156109aa578c91610978575b508060041b9080820460101490151715610964576109306020830151846123c1565b90608c820180921161095057600291610948916123ce565b97905061081e565b634e487b7160e01b8d52601160045260248dfd5b634e487b7160e01b8c52601160045260248cfd5b90506020813d6020116109a2575b8161099360209383612236565b8101031261079557513861090e565b3d9150610986565b6040513d8e823e3d90fd5b9050906123c1565b9091506109c98161220c565b6109d45760016107d2565b8a6107d2565b9250386105aa565b5060d2546105a2565b90506020813d602011610a19575b81610a0660209383612236565b81010312610a15575138610572565b8a80fd5b3d91506109f9565b6040513d8d823e3d90fd5b90503861053b565b8680fd5b8780fd5b9250386104be565b506020813d602011610a70575b81610a5e60209383612236565b81010312610795576104b290516104a4565b3d9150610a51565b6040513d88823e3d90fd5b604051632474521560e21b81527f28eb28c26cbbd48a6bfad016505ccf4a189452995f59d16217af8920961ed25c60048201523360248201529150602090829060449082905afa908115610325578591610adf575b50386103d4565b610af8915060203d60201161031e576103108183612236565b38610ad8565b604051632474521560e21b81527f8f8b3dc194d940c9ce77bea0cf23855523a0d7b641973e714d9dc5f3528a573a6004820152336024820152909150602081604481855afa908115610a78578691610b58575b50906103cd565b610b71915060203d60201161031e576103108183612236565b38610b51565b610b9191925060203d60201161031e576103108183612236565b90386103c5565b8380fd5b503461020d57602036600319011261020d5760043560058110156102095760209181610bc960409361220c565b815260da83522054604051908152f35b503461020d5760c036600319011261020d5760043560058110156102095760a03660231901126102095760ca54604051632474521560e21b8152600080516020612699833981519152600482015233602482015290602090829060449082906001600160a01b03165afa908115610d03578391610ce4575b50156102e457610c608161220c565b80825260d86020527fbfc6fa01f8337395cfd01c20354d665a007fc28c8cd1ee7d33ef9924dc9cc42460a060408420600460243591828155604435806001830155606435908160028401556084359283600382015560a4359485910155610cc68861220c565b6040519485526020850152604084015260608301526080820152a280f35b610cfd915060203d60201161031e576103108183612236565b38610c51565b6040513d85823e3d90fd5b503461020d57604036600319011261020d5760043560243590600260015414610fc8576002600155610d3e612490565b60db54604051630723eb0360e51b815233600482015290602090829060249082906001600160a01b03165afa9081156107a2578491610fa9575b50610f9757818133855260d5602052610d936040862061233c565b908151809111610f8e575b5060200151809111610f86575b5080610eb4575b5080610dc1575b506001805580f35b33825260d560205260016040832001610ddb82825461236b565b9055610de98160d75461236b565b60d75560cc5482906001600160a01b0316803b15610209578180916064604051809481936334ec91f960e21b83528860048401527399ec76235f8a5a52611b0da5f0c6b09e1dcd2c9e60248401523360448401525af18015610ea957610e94575b50507399ec76235f8a5a52611b0da5f0c6b09e1dcd2c9e906040519081527f3a7691a2eabd7b5e0660276ff6ab206719a7f37c923c70c4fd59567243e2cffd60203392a338610db9565b81610e9e91612236565b610209578138610e4a565b6040513d84823e3d90fd5b33835260d560205260408320610ecb82825461236b565b9055610ed98160d65461236b565b60d65560cc5460cb5484916001600160a01b039182169116803b15610f82576064839260405194859384926334ec91f960e21b845288600485015260248401523360448401525af180156107a257610f6e575b5060cb546040519182526001600160a01b03169033907f3a7691a2eabd7b5e0660276ff6ab206719a7f37c923c70c4fd59567243e2cffd90602090a338610db2565b83610f7b91949294612236565b9138610f2c565b8280fd5b915038610dab565b92506020610d9e565b6040516333df015b60e01b8152600490fd5b610fc2915060203d60201161031e576103108183612236565b38610d78565b60405162461bcd60e51b815260206004820152601f60248201527f5265656e7472616e637947756172643a207265656e7472616e742063616c6c006044820152606490fd5b503461020d578060031936011261020d57602060d254604051908152f35b503461020d578060031936011261020d57602060d354604051908152f35b503461020d578060031936011261020d57602060ff60d454166040519061106f8161222c565b8152f35b503461020d578060031936011261020d57608060d35460d25460dd5460ff60d4541691604051938452602084015260408301526110af8161222c565b6060820152f35b503461020d578060031936011261020d57604060d65460d75482519182526020820152f35b503461020d578060031936011261020d57602060ce54604051908152f35b503461020d57602036600319011261020d5760043560038110156102095760409181611125849361222c565b815260d9602052206001815491015482519182526020820152f35b503461020d57602036600319011261020d576004356044602060018060a01b0360ca541660405192838092632474521560e21b825260008051602061269983398151915260048301523360248301525afa908115610d035783916111d7575b50156102e4576020817f9ae30ef5195f7e017a12b1db62f44c1e005e141a81e0296eeacc649f5c67e5f39260dc55604051908152a180f35b6111f0915060203d60201161031e576103108183612236565b3861119f565b503461020d578060031936011261020d5760ca54604051632474521560e21b81527f5c91514091af31f62f596a314af7d5be40146b2f2355969392f055e12e0982fb600482015233602482015290602090829060449082906001600160a01b03165afa908115610ea95782916112af575b50156102e457611275612490565b600160ff1960655416176065557f62e78cea01bee320cd4e420270b5ea74000d11b0c9f74754ebdbfc544b05a2586020604051338152a180f35b6112c8915060203d60201161031e576103108183612236565b38611267565b503461020d578060031936011261020d5760ca546040516001600160a01b039091168152602090f35b503461020d57602036600319011261020d5760043567ffffffffffffffff811161020957806004016101c06003198336030112610f8257825460ff8160081c161590818092611923575b801561190c575b156118b05760ff19811660011785558161189f575b5060248381019060206001600160a01b0361137784612286565b6040516301ffc9a760e01b8152637965db0b60e01b600482015293849290918391165afa908115610a78578691611880575b5080611813575b806117a3575b80611733575b806116c3575b156116b1576001600160a01b036113db60448601612286565b166001600160601b0360a01b60cb54161760cb5560018060a01b036113ff84612286565b166001600160601b0360a01b60c954161760c95561142360018060a01b0391612286565b166001600160601b0360a01b60ca54161760ca5560018060a01b0361144a60648501612286565b166001600160601b0360a01b60cc54161760cc5560018060a01b0361147160848501612286565b166001600160601b0360a01b60db54161760db5560a483013560cd5560c483013560ce5560e483013560cf5561010483013560d15561012483013560d25561014483013560d35561016483013560038110156116ad576114d38194929461222c565b60ff801960d4541691161760d45583906101848101915b6114f4838561229a565b90508110156115c5576115118161150b858761229a565b906122d0565b35906005821015610a34576001917fbfc6fa01f8337395cfd01c20354d665a007fc28c8cd1ee7d33ef9924dc9cc42460a06115508461150b898b61229a565b6115598461220c565b838b5260d8602052600460408c20916020810135928381556040820135808a83015560608301359182600282015586608085013594856003840155013594859101556115a48861220c565b6040519485526020850152604084015260608301526080820152a2016114ea565b85856101a4840186835b6115d983836122f6565b9050811015611629576115f6816115f085856122f6565b9061232c565b359060058210156116255761161f6001926020611617846115f089896122f6565b0135906123e1565b016115cf565b8580fd5b50505081549061167060ff8360081c1661164281612430565b61164b81612430565b6001805561165881612430565b61166181612430565b60ff1960655416606555612430565b611678575080f35b61ff00191681557f7f26b83ff96e1f2b6a682f133852f6798a09c465da95921460cefb3847402498602060405160018152a180f35b8480fd5b60405163044aa57560e41b8152600490fd5b50602460206001600160a01b036116dc60848801612286565b6040516301ffc9a760e01b8152633df6cef760e01b600482015293849290918391165afa908115610a78578691611714575b506113c2565b61172d915060203d60201161031e576103108183612236565b3861170e565b50602460206001600160a01b0361174c60448801612286565b6040516301ffc9a760e01b81526336372b0760e01b600482015293849290918391165afa908115610a78578691611784575b506113bc565b61179d915060203d60201161031e576103108183612236565b3861177e565b50602460206001600160a01b036117bc60648801612286565b6040516301ffc9a760e01b81526329abf30760e11b600482015293849290918391165afa908115610a785786916117f4575b506113b6565b61180d915060203d60201161031e576103108183612236565b386117ee565b50602460206001600160a01b0361182986612286565b6040516301ffc9a760e01b81526333ca6d2360e21b600482015293849290918391165afa908115610a78578691611861575b506113b0565b61187a915060203d60201161031e576103108183612236565b3861185b565b611899915060203d60201161031e576103108183612236565b386113a9565b61ffff19166101011784553861135d565b60405162461bcd60e51b815260206004820152602e60248201527f496e697469616c697a61626c653a20636f6e747261637420697320616c72656160448201526d191e481a5b9a5d1a585b1a5e995960921b6064820152608490fd5b50303b1580156113485750600160ff821614611348565b50600160ff821610611341565b503461020d57602036600319011261020d576004356044602060018060a01b0360ca541660405192838092632474521560e21b825260008051602061269983398151915260048301523360248301525afa908115610d035783916119c0575b50156102e4578060d1557fac3e0e532f107b556a4483ee89fa8a6d20788e9ec96a2b0131246a2e790f0f098280a280f35b6119d9915060203d60201161031e576103108183612236565b3861198f565b503461020d57602036600319011261020d576004356044602060018060a01b0360ca541660405192838092632474521560e21b825260008051602061269983398151915260048301523360248301525afa908115610d03578391611a6f575b50156102e4578060d3557fc9b6fec85cf82ed032526c3a1bbc72a81c4cef31fa9ab33b10794ba8403513f48280a280f35b611a88915060203d60201161031e576103108183612236565b38611a3e565b503461020d578060031936011261020d5760cc546040516001600160a01b039091168152602090f35b503461020d578060031936011261020d57602060ff606554166040519015158152f35b503461020d57602036600319011261020d576004356044602060018060a01b0360ca541660405192838092632474521560e21b825260008051602061269983398151915260048301523360248301525afa908115610d03578391611b89575b50156102e4578015611b77576020817f43397fb689faf436b158e643e98a9909edecbea1ec54a407ced631e673ae4af29260dd55604051908152a180f35b6040516310de450560e01b8152600490fd5b611ba2915060203d60201161031e576103108183612236565b38611b39565b503461020d57602036600319011261020d5760043560058110156102095760a09181611bd560409361220c565b815260d860205220805490600181015490600281015460046003830154920154926040519485526020850152604084015260608301526080820152f35b503461020d578060031936011261020d57602060dc54604051908152f35b503461020d57602036600319011261020d576004356044602060018060a01b0360ca541660405192838092632474521560e21b825260008051602061269983398151915260048301523360248301525afa908115610d03578391611ce1575b50156102e457678ac7230489e800008111611ccf578060cd557f0866f0eddab536ffa2ae6d0c094f37e4876779d4079734c513b8ab63520f40468280a280f35b604051632e72686160e21b8152600490fd5b611cfa915060203d60201161031e576103108183612236565b38611c8f565b503461020d57604036600319011261020d5760043560058110156102095760ca54604051632474521560e21b8152600080516020612699833981519152600482015233602482015290602090829060449082906001600160a01b03165afa908115610d03578391611d82575b50156102e457611d7f90602435906123e1565b80f35b611d9b915060203d60201161031e576103108183612236565b38611d6c565b503461020d57602036600319011261020d576004356044602060018060a01b0360ca541660405192838092632474521560e21b825260008051602061269983398151915260048301523360248301525afa908115610d03578391611e31575b50156102e4578060cf557f2d86c79f06cd103c161a5fb257b3593ddb97db373e7dccc49bc702822bed92508280a280f35b611e4a915060203d60201161031e576103108183612236565b38611e00565b503461020d57602036600319011261020d576004356044602060018060a01b0360ca541660405192838092632474521560e21b825260008051602061269983398151915260048301523360248301525afa908115610d03578391611eef575b50156102e457678ac7230489e800008111611ccf578060ce557fac4e2f47a168b9426760c27ccec778fd54ea706bd269dd48617d7cf68a014a998280a280f35b611f08915060203d60201161031e576103108183612236565b38611eaf565b503461020d578060031936011261020d57602060cd54604051908152f35b503461020d578060031936011261020d5760ca54604051632474521560e21b81527f5a7d4408f4759dddd7fdfd0d21abd99341dc2f52cda14804988a9b2df20766d8600482015233602482015290602090829060449082906001600160a01b03165afa908115610ea957829161201f575b50156102e45760655460ff811615611fe35760ff19166065557f5db9ee0a495bf2e6ff9c91a7834c1ba4fdd244a5e8aa4e537bd38aeae4b073aa6020604051338152a180f35b60405162461bcd60e51b815260206004820152601460248201527314185d5cd8589b194e881b9bdd081c185d5cd95960621b6044820152606490fd5b612038915060203d60201161031e576103108183612236565b38611f9d565b503461020d578060031936011261020d57602060d054604051908152f35b503461020d578060031936011261020d57602060cf54604051908152f35b503461020d57602036600319011261020d576004356044602060018060a01b0360ca541660405192838092632474521560e21b825260008051602061269983398151915260048301523360248301525afa908115610d0357839161210a575b50156102e4578060d2557f123d6dec98f165501c5a4efa12a37cee89b488c3dbaad98fb2c365bdedf1a8a98280a280f35b612123915060203d60201161031e576103108183612236565b386120d9565b503461020d578060031936011261020d5760c9546040516001600160a01b039091168152602090f35b503461020d578060031936011261020d57602060dd54604051908152f35b503461020d578060031936011261020d57602060d154604051908152f35b503461020d578060031936011261020d5760cb546040516001600160a01b039091168152602090f35b9050346102095760203660031901126102095760043563ffffffff60e01b8116809103610f825760209250631e42d3e560e01b81149081156121fb575b5015158152f35b6301ffc9a760e01b149050386121f4565b6005111561221657565b634e487b7160e01b600052602160045260246000fd5b6003111561221657565b90601f8019910116810190811067ffffffffffffffff82111761225857604052565b634e487b7160e01b600052604160045260246000fd5b90816020910312610795575180151581036107955790565b356001600160a01b03811681036107955790565b903590601e1981360301821215610795570180359067ffffffffffffffff8211610795576020019160c082023603831361079557565b91908110156122e05760c0020190565b634e487b7160e01b600052603260045260246000fd5b903590601e1981360301821215610795570180359067ffffffffffffffff821161079557602001918160061b3603831361079557565b91908110156122e05760061b0190565b906040516040810181811067ffffffffffffffff82111761225857604052602060018294805484520154910152565b9190820391821161237857565b634e487b7160e01b600052601160045260246000fd5b903590601e1981360301821215610795570180359067ffffffffffffffff82116107955760200191813603831361079557565b9190820180921161237857565b8181029291811591840414171561237857565b9060207f58ab8557e0e847f289f2134b72a469c160191d9b98144339d9bf394987082bb09161240f8461220c565b8360005260da8252806040600020556124278461220c565b604051908152a2565b1561243757565b60405162461bcd60e51b815260206004820152602b60248201527f496e697469616c697a61626c653a20636f6e7472616374206973206e6f74206960448201526a6e697469616c697a696e6760a81b6064820152608490fd5b60ff6065541661249c57565b60405162461bcd60e51b815260206004820152601060248201526f14185d5cd8589b194e881c185d5cd95960821b6044820152606490fd5b906000918115918215612532575b505015612521576706f05b59d3b2000081019081811161237857811061251057670de0b6b3a7640000900490565b630a77254f60e01b60005260046000fd5b631550e8b760e01b60005260046000fd5b9091925061254081836123ce565b9261254f5782041438806124e2565b634e487b7160e01b600052601260045260246000fd5b91908110156122e05760051b0190565b919081156126065760009160005b8181106125a857505050808211156125a15761259e9161236b565b90565b5050600090565b6125b3818385612565565b356125c1575b600101612583565b926125fe60019161050d6125d6878688612565565b356125e08861220c565b6125e98861220c565b8760005260da602052604060002054906123ce565b9390506125b9565b505090565b6126148161220c565b8015612679576126238161220c565b60005260d86020526040600020600481015482811591821561266f575b505061265c5761050d61259e92600360018401549301546123ce565b61050d61259e92600283549301546123ce565b1190508238612640565b90506126848161220c565b60005260d86020526002604060002001549056fec0fc8e4dc5cff6febdf550b80d566f654e2baf1a02ea1060208c2f8ab2dd1b63a2646970667358221220a9d2b97bbe42ac6b32cb73c5b8bec89e3ed872bef793a9bb714e2f44055f3e6064736f6c634300081a0033",
  "deployedBytecode": "0x608080604052600436101561001357600080fd5b600090813560e01c90816301ffc9a7146121b7575080630460f0f31461218e578063129d82fb1461217057806322c09375146121525780632630c12f146121295780632c4c4bc71461207a5780632f5730421461205c5780633963cecd1461203e5780633f4ba83a14611f2c578063466c552e14611f0e5780634a8a4f0114611e505780634b56025a14611da157806351ed1b2014611d00578063522b4a7114611c3057806359605ef114611c1257806359fd074b14611ba85780635c49990714611ada5780635c975abb14611ab757806361d027b314611a8e57806365bf568a146119df5780637483973014611930578063796c8e27146112f75780637b103999146112ce5780638456cb59146111f6578063951e9f78146111405780639ba6049f146110f9578063a3c37fc7146110db578063ad7a672f146110b6578063b0635abc14611073578063bb9d3dbb14611049578063c01031cd1461102b578063c28ee5941461100d578063c349026314610d0e578063e36d6ebf14610bd9578063e6e1333814610b9c578063ee4bc79914610330578063ef1f3c33146102105763fcd3f03e146101c357600080fd5b3461020d57602036600319011261020d576004356001600160a01b03811690819003610209576040828192815260d5602052206001815491015482519182526020820152f35b5080fd5b80fd5b503461020d57606036600319011261020d57600435600381101561020957602435604435916044602060018060a01b0360ca541660405192838092632474521560e21b825260008051602061269983398151915260048301523360248301525afa9081156103255785916102f6575b50156102e4577f914216b6e367e07ec47e2356460e0e9ec4997e7919489ed5e8da444b2128a8fa926060926102b38361222c565b82865260d9602052816001604088208381550155604051926102d48161222c565b835260208301526040820152a180f35b60405163036be76f60e61b8152600490fd5b610318915060203d60201161031e575b6103108183612236565b81019061226e565b3861027f565b503d610306565b6040513d87823e3d90fd5b503461020d57602036600319011261020d5760043567ffffffffffffffff81116102095780600401813603610140600319820112610b985760ca54604051632474521560e21b81527f5580ea9b7f9becaa48a78f506a2019ea24794b7a717ee6a4b9f62e36b94c25a66004820152336024820152906001600160a01b0316602082604481845afa918215610a78578692610b77575b508115610afe575b8115610a83575b50156102e45773__$75df3f6366b0557754cd3ba14359105414$__8360206103fe60248301612286565b60c95460c09089906004906001600160a01b031661042061012488018b61238e565b9190829160446040519a8b998a9863735aad2560e01b8a525060018060a01b0316878901527399ec76235f8a5a52611b0da5f0c6b09e1dcd2c9e602489015201356044870152606486015260a060848601528160a486015260c4850137828101820184018c9052601f01601f1916820101030181855af48015610a78578690610a44575b6104b2915060cf54906124d4565b9160dc54808410610a3c575b5060d1549060c48601359060221901811215610a345785019060048201359167ffffffffffffffff8311610a38576024018260051b36038113610a38576105139261050d9160a4890135612575565b906123c1565b906064850135926005841015610a3457608486013592610533848661260b565b808211610a2c575b5060c95460405163455259cb60e01b81526001600160a01b03909116953a92916020816004818b5afa908115610a21578b916109eb575b508a8113156109e25760d354670de0b6b3a7640000019081670de0b6b3a76400001161096457906105a2916124d4565b803a116109da575b50899560ff60d45416916105bd8361222c565b826107ad575b5050506020946105da6105df94936105da936123ce565b6123c1565b906105ec60ce54836124d4565b9560c088600461060b61010460018060a01b0360cb541695018a61238e565b80916040519a8b998a98899763735aad2560e01b8952507399ec76235f8a5a52611b0da5f0c6b09e1dcd2c9e8789015260248801526044870152606486015260a060848601528160a486015260c4850137828101820184018c9052601f01601f19168201010301915af49081156107a257849161074b575b507fb5b60f38246a38a2fd794a7da06cc6a0c32cf4d0b94c9683fde017ee3ea5dbf6916106b560409260cd54906124d4565b906001600160a01b036106c782612286565b16865260d56020528286206106dd8382546123c1565b90556001600160a01b036106f082612286565b16865260d56020526001838720016107098682546123c1565b90556107178260d6546123c1565b60d6556107268560d7546123c1565b60d7556001600160a01b039061073b90612286565b169382519182526020820152a280f35b90506020813d60201161079a575b8161076660209383612236565b8101031261079557517fb5b60f38246a38a2fd794a7da06cc6a0c32cf4d0b94c9683fde017ee3ea5dbf6610683565b600080fd5b3d9150610759565b6040513d86823e3d90fd5b8b9060018311156109bd5750506002908060061b908082046040149015171561096457905b6107db8161222c565b8b5260d960205261080b6107f160408d2061233c565b805190929060e48d013590808210156109b55750906123c1565b916108158161222c565b600181146108e6575b60029061082a8161222c565b14610836575b806105c3565b61084692965060200151906123c1565b60405163f1c7a58b60e01b81526004810191909152602081602481600f602160991b015afa9081156108db5789916108a2575b506020946105da6105df94936108956105da9460dd54906124d4565b9750939450819250610830565b929190506020833d6020116108d3575b816108bf60209383612236565b810103126107955791519091906020610879565b3d91506108b2565b6040513d8b823e3d90fd5b60405163f5d6ded760e01b8152909750602081600481606c5afa9081156109aa578c91610978575b508060041b9080820460101490151715610964576109306020830151846123c1565b90608c820180921161095057600291610948916123ce565b97905061081e565b634e487b7160e01b8d52601160045260248dfd5b634e487b7160e01b8c52601160045260248cfd5b90506020813d6020116109a2575b8161099360209383612236565b8101031261079557513861090e565b3d9150610986565b6040513d8e823e3d90fd5b9050906123c1565b9091506109c98161220c565b6109d45760016107d2565b8a6107d2565b9250386105aa565b5060d2546105a2565b90506020813d602011610a19575b81610a0660209383612236565b81010312610a15575138610572565b8a80fd5b3d91506109f9565b6040513d8d823e3d90fd5b90503861053b565b8680fd5b8780fd5b9250386104be565b506020813d602011610a70575b81610a5e60209383612236565b81010312610795576104b290516104a4565b3d9150610a51565b6040513d88823e3d90fd5b604051632474521560e21b81527f28eb28c26cbbd48a6bfad016505ccf4a189452995f59d16217af8920961ed25c60048201523360248201529150602090829060449082905afa908115610325578591610adf575b50386103d4565b610af8915060203d60201161031e576103108183612236565b38610ad8565b604051632474521560e21b81527f8f8b3dc194d940c9ce77bea0cf23855523a0d7b641973e714d9dc5f3528a573a6004820152336024820152909150602081604481855afa908115610a78578691610b58575b50906103cd565b610b71915060203d60201161031e576103108183612236565b38610b51565b610b9191925060203d60201161031e576103108183612236565b90386103c5565b8380fd5b503461020d57602036600319011261020d5760043560058110156102095760209181610bc960409361220c565b815260da83522054604051908152f35b503461020d5760c036600319011261020d5760043560058110156102095760a03660231901126102095760ca54604051632474521560e21b8152600080516020612699833981519152600482015233602482015290602090829060449082906001600160a01b03165afa908115610d03578391610ce4575b50156102e457610c608161220c565b80825260d86020527fbfc6fa01f8337395cfd01c20354d665a007fc28c8cd1ee7d33ef9924dc9cc42460a060408420600460243591828155604435806001830155606435908160028401556084359283600382015560a4359485910155610cc68861220c565b6040519485526020850152604084015260608301526080820152a280f35b610cfd915060203d60201161031e576103108183612236565b38610c51565b6040513d85823e3d90fd5b503461020d57604036600319011261020d5760043560243590600260015414610fc8576002600155610d3e612490565b60db54604051630723eb0360e51b815233600482015290602090829060249082906001600160a01b03165afa9081156107a2578491610fa9575b50610f9757818133855260d5602052610d936040862061233c565b908151809111610f8e575b5060200151809111610f86575b5080610eb4575b5080610dc1575b506001805580f35b33825260d560205260016040832001610ddb82825461236b565b9055610de98160d75461236b565b60d75560cc5482906001600160a01b0316803b15610209578180916064604051809481936334ec91f960e21b83528860048401527399ec76235f8a5a52611b0da5f0c6b09e1dcd2c9e60248401523360448401525af18015610ea957610e94575b50507399ec76235f8a5a52611b0da5f0c6b09e1dcd2c9e906040519081527f3a7691a2eabd7b5e0660276ff6ab206719a7f37c923c70c4fd59567243e2cffd60203392a338610db9565b81610e9e91612236565b610209578138610e4a565b6040513d84823e3d90fd5b33835260d560205260408320610ecb82825461236b565b9055610ed98160d65461236b565b60d65560cc5460cb5484916001600160a01b039182169116803b15610f82576064839260405194859384926334ec91f960e21b845288600485015260248401523360448401525af180156107a257610f6e575b5060cb546040519182526001600160a01b03169033907f3a7691a2eabd7b5e0660276ff6ab206719a7f37c923c70c4fd59567243e2cffd90602090a338610db2565b83610f7b91949294612236565b9138610f2c565b8280fd5b915038610dab565b92506020610d9e565b6040516333df015b60e01b8152600490fd5b610fc2915060203d60201161031e576103108183612236565b38610d78565b60405162461bcd60e51b815260206004820152601f60248201527f5265656e7472616e637947756172643a207265656e7472616e742063616c6c006044820152606490fd5b503461020d578060031936011261020d57602060d254604051908152f35b503461020d578060031936011261020d57602060d354604051908152f35b503461020d578060031936011261020d57602060ff60d454166040519061106f8161222c565b8152f35b503461020d578060031936011261020d57608060d35460d25460dd5460ff60d4541691604051938452602084015260408301526110af8161222c565b6060820152f35b503461020d578060031936011261020d57604060d65460d75482519182526020820152f35b503461020d578060031936011261020d57602060ce54604051908152f35b503461020d57602036600319011261020d5760043560038110156102095760409181611125849361222c565b815260d9602052206001815491015482519182526020820152f35b503461020d57602036600319011261020d576004356044602060018060a01b0360ca541660405192838092632474521560e21b825260008051602061269983398151915260048301523360248301525afa908115610d035783916111d7575b50156102e4576020817f9ae30ef5195f7e017a12b1db62f44c1e005e141a81e0296eeacc649f5c67e5f39260dc55604051908152a180f35b6111f0915060203d60201161031e576103108183612236565b3861119f565b503461020d578060031936011261020d5760ca54604051632474521560e21b81527f5c91514091af31f62f596a314af7d5be40146b2f2355969392f055e12e0982fb600482015233602482015290602090829060449082906001600160a01b03165afa908115610ea95782916112af575b50156102e457611275612490565b600160ff1960655416176065557f62e78cea01bee320cd4e420270b5ea74000d11b0c9f74754ebdbfc544b05a2586020604051338152a180f35b6112c8915060203d60201161031e576103108183612236565b38611267565b503461020d578060031936011261020d5760ca546040516001600160a01b039091168152602090f35b503461020d57602036600319011261020d5760043567ffffffffffffffff811161020957806004016101c06003198336030112610f8257825460ff8160081c161590818092611923575b801561190c575b156118b05760ff19811660011785558161189f575b5060248381019060206001600160a01b0361137784612286565b6040516301ffc9a760e01b8152637965db0b60e01b600482015293849290918391165afa908115610a78578691611880575b5080611813575b806117a3575b80611733575b806116c3575b156116b1576001600160a01b036113db60448601612286565b166001600160601b0360a01b60cb54161760cb5560018060a01b036113ff84612286565b166001600160601b0360a01b60c954161760c95561142360018060a01b0391612286565b166001600160601b0360a01b60ca54161760ca5560018060a01b0361144a60648501612286565b166001600160601b0360a01b60cc54161760cc5560018060a01b0361147160848501612286565b166001600160601b0360a01b60db54161760db5560a483013560cd5560c483013560ce5560e483013560cf5561010483013560d15561012483013560d25561014483013560d35561016483013560038110156116ad576114d38194929461222c565b60ff801960d4541691161760d45583906101848101915b6114f4838561229a565b90508110156115c5576115118161150b858761229a565b906122d0565b35906005821015610a34576001917fbfc6fa01f8337395cfd01c20354d665a007fc28c8cd1ee7d33ef9924dc9cc42460a06115508461150b898b61229a565b6115598461220c565b838b5260d8602052600460408c20916020810135928381556040820135808a83015560608301359182600282015586608085013594856003840155013594859101556115a48861220c565b6040519485526020850152604084015260608301526080820152a2016114ea565b85856101a4840186835b6115d983836122f6565b9050811015611629576115f6816115f085856122f6565b9061232c565b359060058210156116255761161f6001926020611617846115f089896122f6565b0135906123e1565b016115cf565b8580fd5b50505081549061167060ff8360081c1661164281612430565b61164b81612430565b6001805561165881612430565b61166181612430565b60ff1960655416606555612430565b611678575080f35b61ff00191681557f7f26b83ff96e1f2b6a682f133852f6798a09c465da95921460cefb3847402498602060405160018152a180f35b8480fd5b60405163044aa57560e41b8152600490fd5b50602460206001600160a01b036116dc60848801612286565b6040516301ffc9a760e01b8152633df6cef760e01b600482015293849290918391165afa908115610a78578691611714575b506113c2565b61172d915060203d60201161031e576103108183612236565b3861170e565b50602460206001600160a01b0361174c60448801612286565b6040516301ffc9a760e01b81526336372b0760e01b600482015293849290918391165afa908115610a78578691611784575b506113bc565b61179d915060203d60201161031e576103108183612236565b3861177e565b50602460206001600160a01b036117bc60648801612286565b6040516301ffc9a760e01b81526329abf30760e11b600482015293849290918391165afa908115610a785786916117f4575b506113b6565b61180d915060203d60201161031e576103108183612236565b386117ee565b50602460206001600160a01b0361182986612286565b6040516301ffc9a760e01b81526333ca6d2360e21b600482015293849290918391165afa908115610a78578691611861575b506113b0565b61187a915060203d60201161031e576103108183612236565b3861185b565b611899915060203d60201161031e576103108183612236565b386113a9565b61ffff19166101011784553861135d565b60405162461bcd60e51b815260206004820152602e60248201527f496e697469616c697a61626c653a20636f6e747261637420697320616c72656160448201526d191e481a5b9a5d1a585b1a5e995960921b6064820152608490fd5b50303b1580156113485750600160ff821614611348565b50600160ff821610611341565b503461020d57602036600319011261020d576004356044602060018060a01b0360ca541660405192838092632474521560e21b825260008051602061269983398151915260048301523360248301525afa908115610d035783916119c0575b50156102e4578060d1557fac3e0e532f107b556a4483ee89fa8a6d20788e9ec96a2b0131246a2e790f0f098280a280f35b6119d9915060203d60201161031e576103108183612236565b3861198f565b503461020d57602036600319011261020d576004356044602060018060a01b0360ca541660405192838092632474521560e21b825260008051602061269983398151915260048301523360248301525afa908115610d03578391611a6f575b50156102e4578060d3557fc9b6fec85cf82ed032526c3a1bbc72a81c4cef31fa9ab33b10794ba8403513f48280a280f35b611a88915060203d60201161031e576103108183612236565b38611a3e565b503461020d578060031936011261020d5760cc546040516001600160a01b039091168152602090f35b503461020d578060031936011261020d57602060ff606554166040519015158152f35b503461020d57602036600319011261020d576004356044602060018060a01b0360ca541660405192838092632474521560e21b825260008051602061269983398151915260048301523360248301525afa908115610d03578391611b89575b50156102e4578015611b77576020817f43397fb689faf436b158e643e98a9909edecbea1ec54a407ced631e673ae4af29260dd55604051908152a180f35b6040516310de450560e01b8152600490fd5b611ba2915060203d60201161031e576103108183612236565b38611b39565b503461020d57602036600319011261020d5760043560058110156102095760a09181611bd560409361220c565b815260d860205220805490600181015490600281015460046003830154920154926040519485526020850152604084015260608301526080820152f35b503461020d578060031936011261020d57602060dc54604051908152f35b503461020d57602036600319011261020d576004356044602060018060a01b0360ca541660405192838092632474521560e21b825260008051602061269983398151915260048301523360248301525afa908115610d03578391611ce1575b50156102e457678ac7230489e800008111611ccf578060cd557f0866f0eddab536ffa2ae6d0c094f37e4876779d4079734c513b8ab63520f40468280a280f35b604051632e72686160e21b8152600490fd5b611cfa915060203d60201161031e576103108183612236565b38611c8f565b503461020d57604036600319011261020d5760043560058110156102095760ca54604051632474521560e21b8152600080516020612699833981519152600482015233602482015290602090829060449082906001600160a01b03165afa908115610d03578391611d82575b50156102e457611d7f90602435906123e1565b80f35b611d9b915060203d60201161031e576103108183612236565b38611d6c565b503461020d57602036600319011261020d576004356044602060018060a01b0360ca541660405192838092632474521560e21b825260008051602061269983398151915260048301523360248301525afa908115610d03578391611e31575b50156102e4578060cf557f2d86c79f06cd103c161a5fb257b3593ddb97db373e7dccc49bc702822bed92508280a280f35b611e4a915060203d60201161031e576103108183612236565b38611e00565b503461020d57602036600319011261020d576004356044602060018060a01b0360ca541660405192838092632474521560e21b825260008051602061269983398151915260048301523360248301525afa908115610d03578391611eef575b50156102e457678ac7230489e800008111611ccf578060ce557fac4e2f47a168b9426760c27ccec778fd54ea706bd269dd48617d7cf68a014a998280a280f35b611f08915060203d60201161031e576103108183612236565b38611eaf565b503461020d578060031936011261020d57602060cd54604051908152f35b503461020d578060031936011261020d5760ca54604051632474521560e21b81527f5a7d4408f4759dddd7fdfd0d21abd99341dc2f52cda14804988a9b2df20766d8600482015233602482015290602090829060449082906001600160a01b03165afa908115610ea957829161201f575b50156102e45760655460ff811615611fe35760ff19166065557f5db9ee0a495bf2e6ff9c91a7834c1ba4fdd244a5e8aa4e537bd38aeae4b073aa6020604051338152a180f35b60405162461bcd60e51b815260206004820152601460248201527314185d5cd8589b194e881b9bdd081c185d5cd95960621b6044820152606490fd5b612038915060203d60201161031e576103108183612236565b38611f9d565b503461020d578060031936011261020d57602060d054604051908152f35b503461020d578060031936011261020d57602060cf54604051908152f35b503461020d57602036600319011261020d576004356044602060018060a01b0360ca541660405192838092632474521560e21b825260008051602061269983398151915260048301523360248301525afa908115610d0357839161210a575b50156102e4578060d2557f123d6dec98f165501c5a4efa12a37cee89b488c3dbaad98fb2c365bdedf1a8a98280a280f35b612123915060203d60201161031e576103108183612236565b386120d9565b503461020d578060031936011261020d5760c9546040516001600160a01b039091168152602090f35b503461020d578060031936011261020d57602060dd54604051908152f35b503461020d578060031936011261020d57602060d154604051908152f35b503461020d578060031936011261020d5760cb546040516001600160a01b039091168152602090f35b9050346102095760203660031901126102095760043563ffffffff60e01b8116809103610f825760209250631e42d3e560e01b81149081156121fb575b5015158152f35b6301ffc9a760e01b149050386121f4565b6005111561221657565b634e487b7160e01b600052602160045260246000fd5b6003111561221657565b90601f8019910116810190811067ffffffffffffffff82111761225857604052565b634e487b7160e01b600052604160045260246000fd5b90816020910312610795575180151581036107955790565b356001600160a01b03811681036107955790565b903590601e1981360301821215610795570180359067ffffffffffffffff8211610795576020019160c082023603831361079557565b91908110156122e05760c0020190565b634e487b7160e01b600052603260045260246000fd5b903590601e1981360301821215610795570180359067ffffffffffffffff821161079557602001918160061b3603831361079557565b91908110156122e05760061b0190565b906040516040810181811067ffffffffffffffff82111761225857604052602060018294805484520154910152565b9190820391821161237857565b634e487b7160e01b600052601160045260246000fd5b903590601e1981360301821215610795570180359067ffffffffffffffff82116107955760200191813603831361079557565b9190820180921161237857565b8181029291811591840414171561237857565b9060207f58ab8557e0e847f289f2134b72a469c160191d9b98144339d9bf394987082bb09161240f8461220c565b8360005260da8252806040600020556124278461220c565b604051908152a2565b1561243757565b60405162461bcd60e51b815260206004820152602b60248201527f496e697469616c697a61626c653a20636f6e7472616374206973206e6f74206960448201526a6e697469616c697a696e6760a81b6064820152608490fd5b60ff6065541661249c57565b60405162461bcd60e51b815260206004820152601060248201526f14185d5cd8589b194e881c185d5cd95960821b6044820152606490fd5b906000918115918215612532575b505015612521576706f05b59d3b2000081019081811161237857811061251057670de0b6b3a7640000900490565b630a77254f60e01b60005260046000fd5b631550e8b760e01b60005260046000fd5b9091925061254081836123ce565b9261254f5782041438806124e2565b634e487b7160e01b600052601260045260246000fd5b91908110156122e05760051b0190565b919081156126065760009160005b8181106125a857505050808211156125a15761259e9161236b565b90565b5050600090565b6125b3818385612565565b356125c1575b600101612583565b926125fe60019161050d6125d6878688612565565b356125e08861220c565b6125e98861220c565b8760005260da602052604060002054906123ce565b9390506125b9565b505090565b6126148161220c565b8015612679576126238161220c565b60005260d86020526040600020600481015482811591821561266f575b505061265c5761050d61259e92600360018401549301546123ce565b61050d61259e92600283549301546123ce565b1190508238612640565b90506126848161220c565b60005260d86020526002604060002001549056fec0fc8e4dc5cff6febdf550b80d566f654e2baf1a02ea1060208c2f8ab2dd1b63a2646970667358221220a9d2b97bbe42ac6b32cb73c5b8bec89e3ed872bef793a9bb714e2f44055f3e6064736f6c634300081a0033",
  "libraries": {
    "PrimexPricingLibrary": "0x7A0FFAaEFbed420d00c5E60c1668693a8a26B88C"
  },
  "devdoc": {
    "events": {
      "Initialized(uint8)": {
        "details": "Triggered when the contract has been initialized or reinitialized."
      },
      "Paused(address)": {
        "details": "Emitted when the pause is triggered by `account`."
      },
      "Unpaused(address)": {
        "details": "Emitted when the pause is lifted by `account`."
      }
    },
    "kind": "dev",
    "methods": {
      "claim(uint256,uint256)": {
        "params": {
          "_nativeAmount": "Amount of native token to claim",
          "_pmxAmount": "Amount of PMX token to claim"
        }
      },
      "getGasCalculationParams()": {
        "returns": {
          "_0": "oracleGasPriceTolerance The tolerance for gas price fluctuations based on the oracle.",
          "_1": "defaultMaxGasPrice The default maximum gas price allowed."
        }
      },
      "initialize((address,address,address,address,address,uint256,uint256,uint256,uint256,uint256,uint256,uint8,(uint8,(uint256,uint256,uint256,uint256,uint256))[],(uint8,uint256)[]))": {
        "params": {
          "_params": "Parameters for initialization"
        }
      },
      "pause()": {
        "details": "Triggers stopped state. This function can only be called by an address with the EMERGENCY_ADMIN role. Requirements: - The contract must not be paused."
      },
      "paused()": {
        "details": "Returns true if the contract is paused, and false otherwise."
      },
      "setAdditionalGas(uint256)": {
        "details": "Only callable by the MEDIUM_TIMELOCK_ADMIN role.",
        "params": {
          "_additionalGas": "The new additionalGas value."
        }
      },
      "setDataLengthRestrictions(uint8,uint256,uint256)": {
        "details": "Only callable by the MEDIUM_TIMELOCK_ADMIN role.",
        "params": {
          "_baseLength": "The length of the data entering the protocol function including method signature and excluding dynamic types(e.g, routesLength), in bytes",
          "_callingMethod": "The calling method for which dataLengthRestrictions is set",
          "_maxRoutesLength": "The maximum routes length for which an additional fee will be paid in the ARBITRUM payment model, in bytes"
        }
      },
      "setDecreasingGasByReason(uint8,uint256)": {
        "details": "Only callable by the MEDIUM_TIMELOCK_ADMIN role.",
        "params": {
          "_amount": "Gas amount.",
          "_reason": "The reason for which an amount is set"
        }
      },
      "setDefaultMaxGasPrice(uint256)": {
        "details": "Only callable by the MEDIUM_TIMELOCK_ADMIN role.",
        "params": {
          "_defaultMaxGasPrice": "The new default maximum gas price value."
        }
      },
      "setMaxGasPerPosition(uint8,(uint256,uint256,uint256,uint256,uint256))": {
        "details": "Only callable by the MEDIUM_TIMELOCK_ADMIN role.",
        "params": {
          "_actionType": "The action type for which the config is set",
          "_config": "The KeeperActionRewardConfig struct"
        }
      },
      "setMinPositionSizeAddend(uint256)": {
        "details": "Only callable by the MEDIUM_TIMELOCK_ADMIN role.",
        "params": {
          "_minPositionSizeAddend": "The new minPositionSizeAddend value (in WAD)."
        }
      },
      "setNativePartInReward(uint256)": {
        "details": "Only callable by the MEDIUM_TIMELOCK_ADMIN role.",
        "params": {
          "_nativePartInReward": "The new native token's portion in the reward calculation (percent expressed as WAD)."
        }
      },
      "setOptimisticGasCoefficient(uint256)": {
        "details": "Only callable by the MEDIUM_TIMELOCK_ADMIN role.",
        "params": {
          "_newOptimisticGasCoefficient": "The new optimisticGasCoefficient value (in WAD)."
        }
      },
      "setOracleGasPriceTolerance(uint256)": {
        "details": "Only callable by the MEDIUM_TIMELOCK_ADMIN role.",
        "params": {
          "_oracleGasPriceTolerance": "The new oracle gas price tolerance value (percent expressed as WAD)."
        }
      },
      "setPmxPartInReward(uint256)": {
        "details": "Only callable by the MEDIUM_TIMELOCK_ADMIN role.",
        "params": {
          "_pmxPartInReward": "The new PMX token's portion in the reward calculation (percent expressed as WAD)."
        }
      },
      "setPositionSizeCoefficient(uint256)": {
        "details": "Only callable by the MEDIUM_TIMELOCK_ADMIN role.",
        "params": {
          "_positionSizeCoefficient": "The new positionSizeCoefficient value (in WAD)."
        }
      },
      "supportsInterface(bytes4)": {
        "params": {
          "_interfaceId": "The interface id to check"
        }
      },
      "unpause()": {
        "details": "Returns to normal state. This function can only be called by an address with the SMALL_TIMELOCK_ADMIN or MEDIUM_TIMELOCK_ADMIN role depending on the contract. Requirements: - The contract must be paused."
      },
      "updateReward((address,address,uint256,uint8,uint256,uint256,uint256[],uint256,bytes,bytes))": {
        "details": "Only callable by the PM_ROLE, LOM_ROLE, BATCH_MANAGER_ROLE roles.",
        "params": {
          "_params": "The UpdateRewardParams params"
        }
      }
    },
    "version": 1
  },
  "userdoc": {
    "kind": "user",
    "methods": {
      "claim(uint256,uint256)": {
        "notice": "Claims earned reward of the keeper"
      },
      "getGasCalculationParams()": {
        "notice": "Retrieves gas calculation params."
      },
      "initialize((address,address,address,address,address,uint256,uint256,uint256,uint256,uint256,uint256,uint8,(uint8,(uint256,uint256,uint256,uint256,uint256))[],(uint8,uint256)[]))": {
        "notice": "Initializes the KeeperRewardDistributor contract."
      },
      "setAdditionalGas(uint256)": {
        "notice": "Sets the additional gas value for reward calculations."
      },
      "setDataLengthRestrictions(uint8,uint256,uint256)": {
        "notice": "Sets the dataLengthRestrictions for the specified KeeperCallingMethod."
      },
      "setDecreasingGasByReason(uint8,uint256)": {
        "notice": "Sets the amount of gas to be removed for the specified reason"
      },
      "setDefaultMaxGasPrice(uint256)": {
        "notice": "Sets the default maximum gas price allowed."
      },
      "setMaxGasPerPosition(uint8,(uint256,uint256,uint256,uint256,uint256))": {
        "notice": "Sets the KeeperActionRewardConfig for the specified action type"
      },
      "setMinPositionSizeAddend(uint256)": {
        "notice": "Sets the minPositionSizeAddend for reward calculations."
      },
      "setNativePartInReward(uint256)": {
        "notice": "Sets the native token's portion in the reward calculation."
      },
      "setOptimisticGasCoefficient(uint256)": {
        "notice": "Sets the optimisticGasCoefficient for optimism paymentModel."
      },
      "setOracleGasPriceTolerance(uint256)": {
        "notice": "Sets the tolerance for gas price fluctuations from the oracle price."
      },
      "setPmxPartInReward(uint256)": {
        "notice": "Sets the PMX token's portion in the reward calculation."
      },
      "setPositionSizeCoefficient(uint256)": {
        "notice": "Sets the position size coefficients for reward calculations."
      },
      "supportsInterface(bytes4)": {
        "notice": "Interface checker"
      },
      "updateReward((address,address,uint256,uint8,uint256,uint256,uint256[],uint256,bytes,bytes))": {
        "notice": "Updates reward for keeper for closing position or executing order"
      }
    },
    "version": 1
  },
  "storageLayout": {
    "storage": [
      {
        "astId": 3021,
        "contract": "contracts/KeeperRewardDistributor/KeeperRewardDistributor.sol:KeeperRewardDistributor",
        "label": "_initialized",
        "offset": 0,
        "slot": "0",
        "type": "t_uint8"
      },
      {
        "astId": 3024,
        "contract": "contracts/KeeperRewardDistributor/KeeperRewardDistributor.sol:KeeperRewardDistributor",
        "label": "_initializing",
        "offset": 1,
        "slot": "0",
        "type": "t_bool"
      },
      {
        "astId": 3324,
        "contract": "contracts/KeeperRewardDistributor/KeeperRewardDistributor.sol:KeeperRewardDistributor",
        "label": "_status",
        "offset": 0,
        "slot": "1",
        "type": "t_uint256"
      },
      {
        "astId": 3393,
        "contract": "contracts/KeeperRewardDistributor/KeeperRewardDistributor.sol:KeeperRewardDistributor",
        "label": "__gap",
        "offset": 0,
        "slot": "2",
        "type": "t_array(t_uint256)49_storage"
      },
      {
        "astId": 5998,
        "contract": "contracts/KeeperRewardDistributor/KeeperRewardDistributor.sol:KeeperRewardDistributor",
        "label": "__gap",
        "offset": 0,
        "slot": "51",
        "type": "t_array(t_uint256)50_storage"
      },
      {
        "astId": 3204,
        "contract": "contracts/KeeperRewardDistributor/KeeperRewardDistributor.sol:KeeperRewardDistributor",
        "label": "_paused",
        "offset": 0,
        "slot": "101",
        "type": "t_bool"
      },
      {
        "astId": 3309,
        "contract": "contracts/KeeperRewardDistributor/KeeperRewardDistributor.sol:KeeperRewardDistributor",
        "label": "__gap",
        "offset": 0,
        "slot": "102",
        "type": "t_array(t_uint256)49_storage"
      },
      {
        "astId": 6637,
        "contract": "contracts/KeeperRewardDistributor/KeeperRewardDistributor.sol:KeeperRewardDistributor",
        "label": "__gap",
        "offset": 0,
        "slot": "151",
        "type": "t_array(t_uint256)50_storage"
      },
      {
        "astId": 44924,
        "contract": "contracts/KeeperRewardDistributor/KeeperRewardDistributor.sol:KeeperRewardDistributor",
        "label": "priceOracle",
        "offset": 0,
        "slot": "201",
        "type": "t_address"
      },
      {
        "astId": 44927,
        "contract": "contracts/KeeperRewardDistributor/KeeperRewardDistributor.sol:KeeperRewardDistributor",
        "label": "registry",
        "offset": 0,
        "slot": "202",
        "type": "t_address"
      },
      {
        "astId": 44930,
        "contract": "contracts/KeeperRewardDistributor/KeeperRewardDistributor.sol:KeeperRewardDistributor",
        "label": "pmx",
        "offset": 0,
        "slot": "203",
        "type": "t_address"
      },
      {
        "astId": 44933,
        "contract": "contracts/KeeperRewardDistributor/KeeperRewardDistributor.sol:KeeperRewardDistributor",
        "label": "treasury",
        "offset": 0,
        "slot": "204",
        "type": "t_address_payable"
      },
      {
        "astId": 44936,
        "contract": "contracts/KeeperRewardDistributor/KeeperRewardDistributor.sol:KeeperRewardDistributor",
        "label": "pmxPartInReward",
        "offset": 0,
        "slot": "205",
        "type": "t_uint256"
      },
      {
        "astId": 44939,
        "contract": "contracts/KeeperRewardDistributor/KeeperRewardDistributor.sol:KeeperRewardDistributor",
        "label": "nativePartInReward",
        "offset": 0,
        "slot": "206",
        "type": "t_uint256"
      },
      {
        "astId": 44943,
        "contract": "contracts/KeeperRewardDistributor/KeeperRewardDistributor.sol:KeeperRewardDistributor",
        "label": "positionSizeCoefficient",
        "offset": 0,
        "slot": "207",
        "type": "t_uint256"
      },
      {
        "astId": 44946,
        "contract": "contracts/KeeperRewardDistributor/KeeperRewardDistributor.sol:KeeperRewardDistributor",
        "label": "positionSizeCoefficientB",
        "offset": 0,
        "slot": "208",
        "type": "t_int256"
      },
      {
        "astId": 44949,
        "contract": "contracts/KeeperRewardDistributor/KeeperRewardDistributor.sol:KeeperRewardDistributor",
        "label": "additionalGas",
        "offset": 0,
        "slot": "209",
        "type": "t_uint256"
      },
      {
        "astId": 44952,
        "contract": "contracts/KeeperRewardDistributor/KeeperRewardDistributor.sol:KeeperRewardDistributor",
        "label": "defaultMaxGasPrice",
        "offset": 0,
        "slot": "210",
        "type": "t_uint256"
      },
      {
        "astId": 44955,
        "contract": "contracts/KeeperRewardDistributor/KeeperRewardDistributor.sol:KeeperRewardDistributor",
        "label": "oracleGasPriceTolerance",
        "offset": 0,
        "slot": "211",
        "type": "t_uint256"
      },
      {
        "astId": 44959,
        "contract": "contracts/KeeperRewardDistributor/KeeperRewardDistributor.sol:KeeperRewardDistributor",
        "label": "paymentModel",
        "offset": 0,
        "slot": "212",
        "type": "t_enum(PaymentModel)43570"
      },
      {
        "astId": 44965,
        "contract": "contracts/KeeperRewardDistributor/KeeperRewardDistributor.sol:KeeperRewardDistributor",
        "label": "keeperBalance",
        "offset": 0,
        "slot": "213",
        "type": "t_mapping(t_address,t_struct(KeeperBalance)43566_storage)"
      },
      {
        "astId": 44969,
        "contract": "contracts/KeeperRewardDistributor/KeeperRewardDistributor.sol:KeeperRewardDistributor",
        "label": "totalBalance",
        "offset": 0,
        "slot": "214",
        "type": "t_struct(KeeperBalance)43566_storage"
      },
      {
        "astId": 44976,
        "contract": "contracts/KeeperRewardDistributor/KeeperRewardDistributor.sol:KeeperRewardDistributor",
        "label": "maxGasPerPosition",
        "offset": 0,
        "slot": "216",
        "type": "t_mapping(t_enum(KeeperActionType)43539,t_struct(KeeperActionRewardConfig)43561_storage)"
      },
      {
        "astId": 44983,
        "contract": "contracts/KeeperRewardDistributor/KeeperRewardDistributor.sol:KeeperRewardDistributor",
        "label": "dataLengthRestrictions",
        "offset": 0,
        "slot": "217",
        "type": "t_mapping(t_enum(KeeperCallingMethod)43543,t_struct(DataLengthRestrictions)43549_storage)"
      },
      {
        "astId": 44989,
        "contract": "contracts/KeeperRewardDistributor/KeeperRewardDistributor.sol:KeeperRewardDistributor",
        "label": "decreasingGasByReason",
        "offset": 0,
        "slot": "218",
        "type": "t_mapping(t_enum(DecreasingReason)43533,t_uint256)"
      },
      {
        "astId": 44992,
        "contract": "contracts/KeeperRewardDistributor/KeeperRewardDistributor.sol:KeeperRewardDistributor",
        "label": "whiteBlackList",
        "offset": 0,
        "slot": "219",
        "type": "t_contract(IWhiteBlackList)75076"
      },
      {
        "astId": 45001,
        "contract": "contracts/KeeperRewardDistributor/KeeperRewardDistributor.sol:KeeperRewardDistributor",
        "label": "minPositionSizeAddend",
        "offset": 0,
        "slot": "220",
        "type": "t_uint256"
      },
      {
        "astId": 45004,
        "contract": "contracts/KeeperRewardDistributor/KeeperRewardDistributor.sol:KeeperRewardDistributor",
        "label": "optimisticGasCoefficient",
        "offset": 0,
        "slot": "221",
        "type": "t_uint256"
      }
    ],
    "types": {
      "t_address": {
        "encoding": "inplace",
        "label": "address",
        "numberOfBytes": "20"
      },
      "t_address_payable": {
        "encoding": "inplace",
        "label": "address payable",
        "numberOfBytes": "20"
      },
      "t_array(t_uint256)49_storage": {
        "base": "t_uint256",
        "encoding": "inplace",
        "label": "uint256[49]",
        "numberOfBytes": "1568"
      },
      "t_array(t_uint256)50_storage": {
        "base": "t_uint256",
        "encoding": "inplace",
        "label": "uint256[50]",
        "numberOfBytes": "1600"
      },
      "t_bool": {
        "encoding": "inplace",
        "label": "bool",
        "numberOfBytes": "1"
      },
      "t_contract(IWhiteBlackList)75076": {
        "encoding": "inplace",
        "label": "contract IWhiteBlackList",
        "numberOfBytes": "20"
      },
      "t_enum(DecreasingReason)43533": {
        "encoding": "inplace",
        "label": "enum IKeeperRewardDistributorStorage.DecreasingReason",
        "numberOfBytes": "1"
      },
      "t_enum(KeeperActionType)43539": {
        "encoding": "inplace",
        "label": "enum IKeeperRewardDistributorStorage.KeeperActionType",
        "numberOfBytes": "1"
      },
      "t_enum(KeeperCallingMethod)43543": {
        "encoding": "inplace",
        "label": "enum IKeeperRewardDistributorStorage.KeeperCallingMethod",
        "numberOfBytes": "1"
      },
      "t_enum(PaymentModel)43570": {
        "encoding": "inplace",
        "label": "enum IKeeperRewardDistributorStorage.PaymentModel",
        "numberOfBytes": "1"
      },
      "t_int256": {
        "encoding": "inplace",
        "label": "int256",
        "numberOfBytes": "32"
      },
      "t_mapping(t_address,t_struct(KeeperBalance)43566_storage)": {
        "encoding": "mapping",
        "key": "t_address",
        "label": "mapping(address => struct IKeeperRewardDistributorStorage.KeeperBalance)",
        "numberOfBytes": "32",
        "value": "t_struct(KeeperBalance)43566_storage"
      },
      "t_mapping(t_enum(DecreasingReason)43533,t_uint256)": {
        "encoding": "mapping",
        "key": "t_enum(DecreasingReason)43533",
        "label": "mapping(enum IKeeperRewardDistributorStorage.DecreasingReason => uint256)",
        "numberOfBytes": "32",
        "value": "t_uint256"
      },
      "t_mapping(t_enum(KeeperActionType)43539,t_struct(KeeperActionRewardConfig)43561_storage)": {
        "encoding": "mapping",
        "key": "t_enum(KeeperActionType)43539",
        "label": "mapping(enum IKeeperRewardDistributorStorage.KeeperActionType => struct IKeeperRewardDistributorStorage.KeeperActionRewardConfig)",
        "numberOfBytes": "32",
        "value": "t_struct(KeeperActionRewardConfig)43561_storage"
      },
      "t_mapping(t_enum(KeeperCallingMethod)43543,t_struct(DataLengthRestrictions)43549_storage)": {
        "encoding": "mapping",
        "key": "t_enum(KeeperCallingMethod)43543",
        "label": "mapping(enum IKeeperRewardDistributorStorage.KeeperCallingMethod => struct IKeeperRewardDistributorStorage.DataLengthRestrictions)",
        "numberOfBytes": "32",
        "value": "t_struct(DataLengthRestrictions)43549_storage"
      },
      "t_struct(DataLengthRestrictions)43549_storage": {
        "encoding": "inplace",
        "label": "struct IKeeperRewardDistributorStorage.DataLengthRestrictions",
        "members": [
          {
            "astId": 43546,
            "contract": "contracts/KeeperRewardDistributor/KeeperRewardDistributor.sol:KeeperRewardDistributor",
            "label": "maxRoutesLength",
            "offset": 0,
            "slot": "0",
            "type": "t_uint256"
          },
          {
            "astId": 43548,
            "contract": "contracts/KeeperRewardDistributor/KeeperRewardDistributor.sol:KeeperRewardDistributor",
            "label": "baseLength",
            "offset": 0,
            "slot": "1",
            "type": "t_uint256"
          }
        ],
        "numberOfBytes": "64"
      },
      "t_struct(KeeperActionRewardConfig)43561_storage": {
        "encoding": "inplace",
        "label": "struct IKeeperRewardDistributorStorage.KeeperActionRewardConfig",
        "members": [
          {
            "astId": 43552,
            "contract": "contracts/KeeperRewardDistributor/KeeperRewardDistributor.sol:KeeperRewardDistributor",
            "label": "baseMaxGas1",
            "offset": 0,
            "slot": "0",
            "type": "t_uint256"
          },
          {
            "astId": 43554,
            "contract": "contracts/KeeperRewardDistributor/KeeperRewardDistributor.sol:KeeperRewardDistributor",
            "label": "baseMaxGas2",
            "offset": 0,
            "slot": "1",
            "type": "t_uint256"
          },
          {
            "astId": 43556,
            "contract": "contracts/KeeperRewardDistributor/KeeperRewardDistributor.sol:KeeperRewardDistributor",
            "label": "multiplier1",
            "offset": 0,
            "slot": "2",
            "type": "t_uint256"
          },
          {
            "astId": 43558,
            "contract": "contracts/KeeperRewardDistributor/KeeperRewardDistributor.sol:KeeperRewardDistributor",
            "label": "multiplier2",
            "offset": 0,
            "slot": "3",
            "type": "t_uint256"
          },
          {
            "astId": 43560,
            "contract": "contracts/KeeperRewardDistributor/KeeperRewardDistributor.sol:KeeperRewardDistributor",
            "label": "inflectionPoint",
            "offset": 0,
            "slot": "4",
            "type": "t_uint256"
          }
        ],
        "numberOfBytes": "160"
      },
      "t_struct(KeeperBalance)43566_storage": {
        "encoding": "inplace",
        "label": "struct IKeeperRewardDistributorStorage.KeeperBalance",
        "members": [
          {
            "astId": 43563,
            "contract": "contracts/KeeperRewardDistributor/KeeperRewardDistributor.sol:KeeperRewardDistributor",
            "label": "pmxBalance",
            "offset": 0,
            "slot": "0",
            "type": "t_uint256"
          },
          {
            "astId": 43565,
            "contract": "contracts/KeeperRewardDistributor/KeeperRewardDistributor.sol:KeeperRewardDistributor",
            "label": "nativeBalance",
            "offset": 0,
            "slot": "1",
            "type": "t_uint256"
          }
        ],
        "numberOfBytes": "64"
      },
      "t_uint256": {
        "encoding": "inplace",
        "label": "uint256",
        "numberOfBytes": "32"
      },
      "t_uint8": {
        "encoding": "inplace",
        "label": "uint8",
        "numberOfBytes": "1"
      }
    }
  }
}