{
  "address": "0xdb72b9150F1785a9E362227B1fA86cEC11E8f1eB",
  "abi": [
    {
      "inputs": [],
      "stateMutability": "nonpayable",
      "type": "constructor"
    },
    {
      "inputs": [],
      "name": "DS_MATH_ADD_OVERFLOW",
      "type": "error"
    },
    {
      "inputs": [],
      "name": "DS_MATH_MUL_OVERFLOW",
      "type": "error"
    },
    {
      "anonymous": false,
      "inputs": [
        {
          "indexed": true,
          "internalType": "uint256",
          "name": "orderId",
          "type": "uint256"
        },
        {
          "indexed": true,
          "internalType": "address",
          "name": "trader",
          "type": "address"
        },
        {
          "indexed": true,
          "internalType": "address",
          "name": "closedBy",
          "type": "address"
        },
        {
          "indexed": false,
          "internalType": "enum LimitOrderLibrary.CloseReason",
          "name": "reason",
          "type": "uint8"
        },
        {
          "indexed": false,
          "internalType": "uint256",
          "name": "positionId",
          "type": "uint256"
        },
        {
          "indexed": false,
          "internalType": "string",
          "name": "bucket",
          "type": "string"
        },
        {
          "indexed": false,
          "internalType": "address",
          "name": "borrowedAsset",
          "type": "address"
        },
        {
          "indexed": false,
          "internalType": "address",
          "name": "positionAsset",
          "type": "address"
        },
        {
          "indexed": false,
          "internalType": "uint256",
          "name": "leverage",
          "type": "uint256"
        },
        {
          "indexed": false,
          "internalType": "address",
          "name": "depositAsset",
          "type": "address"
        },
        {
          "indexed": false,
          "internalType": "uint256",
          "name": "depositAmount",
          "type": "uint256"
        }
      ],
      "name": "CloseLimitOrder",
      "type": "event"
    },
    {
      "anonymous": false,
      "inputs": [
        {
          "indexed": true,
          "internalType": "uint256",
          "name": "orderId",
          "type": "uint256"
        },
        {
          "indexed": true,
          "internalType": "address",
          "name": "trader",
          "type": "address"
        },
        {
          "components": [
            {
              "internalType": "contract IBucket",
              "name": "bucket",
              "type": "address"
            },
            {
              "internalType": "address",
              "name": "positionAsset",
              "type": "address"
            },
            {
              "internalType": "address",
              "name": "depositAsset",
              "type": "address"
            },
            {
              "internalType": "uint256",
              "name": "depositAmount",
              "type": "uint256"
            },
            {
              "internalType": "address",
              "name": "feeToken",
              "type": "address"
            },
            {
              "internalType": "uint256",
              "name": "protocolFee",
              "type": "uint256"
            },
            {
              "internalType": "address",
              "name": "trader",
              "type": "address"
            },
            {
              "internalType": "uint256",
              "name": "deadline",
              "type": "uint256"
            },
            {
              "internalType": "uint256",
              "name": "id",
              "type": "uint256"
            },
            {
              "internalType": "uint256",
              "name": "leverage",
              "type": "uint256"
            },
            {
              "internalType": "bool",
              "name": "shouldOpenPosition",
              "type": "bool"
            },
            {
              "internalType": "uint256",
              "name": "createdAt",
              "type": "uint256"
            },
            {
              "internalType": "uint256",
              "name": "updatedConditionsAt",
              "type": "uint256"
            },
            {
              "internalType": "bytes",
              "name": "extraParams",
              "type": "bytes"
            }
          ],
          "indexed": false,
          "internalType": "struct LimitOrderLibrary.LimitOrder",
          "name": "order",
          "type": "tuple"
        },
        {
          "components": [
            {
              "internalType": "uint256",
              "name": "managerType",
              "type": "uint256"
            },
            {
              "internalType": "bytes",
              "name": "params",
              "type": "bytes"
            }
          ],
          "indexed": false,
          "internalType": "struct LimitOrderLibrary.Condition[]",
          "name": "openConditions",
          "type": "tuple[]"
        },
        {
          "components": [
            {
              "internalType": "uint256",
              "name": "managerType",
              "type": "uint256"
            },
            {
              "internalType": "bytes",
              "name": "params",
              "type": "bytes"
            }
          ],
          "indexed": false,
          "internalType": "struct LimitOrderLibrary.Condition[]",
          "name": "closeConditions",
          "type": "tuple[]"
        }
      ],
      "name": "CreateLimitOrder",
      "type": "event"
    },
    {
      "anonymous": false,
      "inputs": [
        {
          "indexed": false,
          "internalType": "uint8",
          "name": "version",
          "type": "uint8"
        }
      ],
      "name": "Initialized",
      "type": "event"
    },
    {
      "anonymous": false,
      "inputs": [
        {
          "indexed": false,
          "internalType": "address",
          "name": "account",
          "type": "address"
        }
      ],
      "name": "Paused",
      "type": "event"
    },
    {
      "anonymous": false,
      "inputs": [
        {
          "indexed": false,
          "internalType": "address",
          "name": "account",
          "type": "address"
        }
      ],
      "name": "Unpaused",
      "type": "event"
    },
    {
      "anonymous": false,
      "inputs": [
        {
          "indexed": true,
          "internalType": "uint256",
          "name": "orderId",
          "type": "uint256"
        },
        {
          "indexed": true,
          "internalType": "address",
          "name": "trader",
          "type": "address"
        },
        {
          "indexed": false,
          "internalType": "uint256",
          "name": "depositAmount",
          "type": "uint256"
        },
        {
          "indexed": false,
          "internalType": "uint256",
          "name": "leverage",
          "type": "uint256"
        },
        {
          "indexed": false,
          "internalType": "address",
          "name": "feeToken",
          "type": "address"
        },
        {
          "indexed": false,
          "internalType": "uint256",
          "name": "protocolFee",
          "type": "uint256"
        }
      ],
      "name": "UpdateOrder",
      "type": "event"
    },
    {
      "anonymous": false,
      "inputs": [
        {
          "indexed": true,
          "internalType": "uint256",
          "name": "orderId",
          "type": "uint256"
        },
        {
          "indexed": true,
          "internalType": "address",
          "name": "trader",
          "type": "address"
        },
        {
          "components": [
            {
              "internalType": "uint256",
              "name": "managerType",
              "type": "uint256"
            },
            {
              "internalType": "bytes",
              "name": "params",
              "type": "bytes"
            }
          ],
          "indexed": false,
          "internalType": "struct LimitOrderLibrary.Condition[]",
          "name": "openConditions",
          "type": "tuple[]"
        },
        {
          "components": [
            {
              "internalType": "uint256",
              "name": "managerType",
              "type": "uint256"
            },
            {
              "internalType": "bytes",
              "name": "params",
              "type": "bytes"
            }
          ],
          "indexed": false,
          "internalType": "struct LimitOrderLibrary.Condition[]",
          "name": "closeConditions",
          "type": "tuple[]"
        }
      ],
      "name": "UpdateOrderConditions",
      "type": "event"
    },
    {
      "inputs": [
        {
          "internalType": "address",
          "name": "",
          "type": "address"
        },
        {
          "internalType": "uint256",
          "name": "",
          "type": "uint256"
        }
      ],
      "name": "bucketOrderIds",
      "outputs": [
        {
          "internalType": "uint256",
          "name": "",
          "type": "uint256"
        }
      ],
      "stateMutability": "view",
      "type": "function"
    },
    {
      "inputs": [
        {
          "internalType": "uint256",
          "name": "",
          "type": "uint256"
        }
      ],
      "name": "bucketOrderIndexes",
      "outputs": [
        {
          "internalType": "uint256",
          "name": "",
          "type": "uint256"
        }
      ],
      "stateMutability": "view",
      "type": "function"
    },
    {
      "inputs": [
        {
          "internalType": "uint256",
          "name": "_orderId",
          "type": "uint256"
        },
        {
          "internalType": "uint256",
          "name": "_conditionIndex",
          "type": "uint256"
        },
        {
          "internalType": "bytes",
          "name": "_additionalParams",
          "type": "bytes"
        }
      ],
      "name": "canBeFilled",
      "outputs": [
        {
          "internalType": "bool",
          "name": "",
          "type": "bool"
        }
      ],
      "stateMutability": "nonpayable",
      "type": "function"
    },
    {
      "inputs": [
        {
          "internalType": "uint256[]",
          "name": "_orderIds",
          "type": "uint256[]"
        }
      ],
      "name": "cancelExpiredLimitOrders",
      "outputs": [],
      "stateMutability": "nonpayable",
      "type": "function"
    },
    {
      "inputs": [
        {
          "internalType": "uint256",
          "name": "_orderId",
          "type": "uint256"
        }
      ],
      "name": "cancelLimitOrder",
      "outputs": [],
      "stateMutability": "nonpayable",
      "type": "function"
    },
    {
      "inputs": [
        {
          "internalType": "uint256",
          "name": "",
          "type": "uint256"
        },
        {
          "internalType": "uint256",
          "name": "",
          "type": "uint256"
        }
      ],
      "name": "closeConditions",
      "outputs": [
        {
          "internalType": "uint256",
          "name": "managerType",
          "type": "uint256"
        },
        {
          "internalType": "bytes",
          "name": "params",
          "type": "bytes"
        }
      ],
      "stateMutability": "view",
      "type": "function"
    },
    {
      "inputs": [
        {
          "components": [
            {
              "internalType": "string",
              "name": "bucket",
              "type": "string"
            },
            {
              "internalType": "uint256",
              "name": "depositAmount",
              "type": "uint256"
            },
            {
              "internalType": "address",
              "name": "depositAsset",
              "type": "address"
            },
            {
              "internalType": "address",
              "name": "positionAsset",
              "type": "address"
            },
            {
              "internalType": "uint256",
              "name": "deadline",
              "type": "uint256"
            },
            {
              "internalType": "bool",
              "name": "takeDepositFromWallet",
              "type": "bool"
            },
            {
              "internalType": "bool",
              "name": "payFeeFromWallet",
              "type": "bool"
            },
            {
              "internalType": "uint256",
              "name": "leverage",
              "type": "uint256"
            },
            {
              "internalType": "bool",
              "name": "shouldOpenPosition",
              "type": "bool"
            },
            {
              "components": [
                {
                  "internalType": "uint256",
                  "name": "managerType",
                  "type": "uint256"
                },
                {
                  "internalType": "bytes",
                  "name": "params",
                  "type": "bytes"
                }
              ],
              "internalType": "struct LimitOrderLibrary.Condition[]",
              "name": "openConditions",
              "type": "tuple[]"
            },
            {
              "components": [
                {
                  "internalType": "uint256",
                  "name": "managerType",
                  "type": "uint256"
                },
                {
                  "internalType": "bytes",
                  "name": "params",
                  "type": "bytes"
                }
              ],
              "internalType": "struct LimitOrderLibrary.Condition[]",
              "name": "closeConditions",
              "type": "tuple[]"
            },
            {
              "internalType": "bool",
              "name": "isProtocolFeeInPmx",
              "type": "bool"
            }
          ],
          "internalType": "struct LimitOrderLibrary.CreateLimitOrderParams",
          "name": "_params",
          "type": "tuple"
        }
      ],
      "name": "createLimitOrder",
      "outputs": [],
      "stateMutability": "payable",
      "type": "function"
    },
    {
      "inputs": [
        {
          "internalType": "address",
          "name": "_bucket",
          "type": "address"
        }
      ],
      "name": "getBucketOrders",
      "outputs": [
        {
          "components": [
            {
              "internalType": "contract IBucket",
              "name": "bucket",
              "type": "address"
            },
            {
              "internalType": "address",
              "name": "positionAsset",
              "type": "address"
            },
            {
              "internalType": "address",
              "name": "depositAsset",
              "type": "address"
            },
            {
              "internalType": "uint256",
              "name": "depositAmount",
              "type": "uint256"
            },
            {
              "internalType": "address",
              "name": "feeToken",
              "type": "address"
            },
            {
              "internalType": "uint256",
              "name": "protocolFee",
              "type": "uint256"
            },
            {
              "internalType": "address",
              "name": "trader",
              "type": "address"
            },
            {
              "internalType": "uint256",
              "name": "deadline",
              "type": "uint256"
            },
            {
              "internalType": "uint256",
              "name": "id",
              "type": "uint256"
            },
            {
              "internalType": "uint256",
              "name": "leverage",
              "type": "uint256"
            },
            {
              "internalType": "bool",
              "name": "shouldOpenPosition",
              "type": "bool"
            },
            {
              "internalType": "uint256",
              "name": "createdAt",
              "type": "uint256"
            },
            {
              "internalType": "uint256",
              "name": "updatedConditionsAt",
              "type": "uint256"
            },
            {
              "internalType": "bytes",
              "name": "extraParams",
              "type": "bytes"
            }
          ],
          "internalType": "struct LimitOrderLibrary.LimitOrder[]",
          "name": "",
          "type": "tuple[]"
        }
      ],
      "stateMutability": "view",
      "type": "function"
    },
    {
      "inputs": [
        {
          "internalType": "address",
          "name": "_bucket",
          "type": "address"
        }
      ],
      "name": "getBucketOrdersLength",
      "outputs": [
        {
          "internalType": "uint256",
          "name": "",
          "type": "uint256"
        }
      ],
      "stateMutability": "view",
      "type": "function"
    },
    {
      "inputs": [
        {
          "internalType": "uint256",
          "name": "_orderId",
          "type": "uint256"
        }
      ],
      "name": "getCloseConditions",
      "outputs": [
        {
          "components": [
            {
              "internalType": "uint256",
              "name": "managerType",
              "type": "uint256"
            },
            {
              "internalType": "bytes",
              "name": "params",
              "type": "bytes"
            }
          ],
          "internalType": "struct LimitOrderLibrary.Condition[]",
          "name": "",
          "type": "tuple[]"
        }
      ],
      "stateMutability": "view",
      "type": "function"
    },
    {
      "inputs": [
        {
          "internalType": "uint256",
          "name": "_orderId",
          "type": "uint256"
        }
      ],
      "name": "getOpenConditions",
      "outputs": [
        {
          "components": [
            {
              "internalType": "uint256",
              "name": "managerType",
              "type": "uint256"
            },
            {
              "internalType": "bytes",
              "name": "params",
              "type": "bytes"
            }
          ],
          "internalType": "struct LimitOrderLibrary.Condition[]",
          "name": "",
          "type": "tuple[]"
        }
      ],
      "stateMutability": "view",
      "type": "function"
    },
    {
      "inputs": [
        {
          "internalType": "uint256",
          "name": "_id",
          "type": "uint256"
        }
      ],
      "name": "getOrder",
      "outputs": [
        {
          "components": [
            {
              "internalType": "contract IBucket",
              "name": "bucket",
              "type": "address"
            },
            {
              "internalType": "address",
              "name": "positionAsset",
              "type": "address"
            },
            {
              "internalType": "address",
              "name": "depositAsset",
              "type": "address"
            },
            {
              "internalType": "uint256",
              "name": "depositAmount",
              "type": "uint256"
            },
            {
              "internalType": "address",
              "name": "feeToken",
              "type": "address"
            },
            {
              "internalType": "uint256",
              "name": "protocolFee",
              "type": "uint256"
            },
            {
              "internalType": "address",
              "name": "trader",
              "type": "address"
            },
            {
              "internalType": "uint256",
              "name": "deadline",
              "type": "uint256"
            },
            {
              "internalType": "uint256",
              "name": "id",
              "type": "uint256"
            },
            {
              "internalType": "uint256",
              "name": "leverage",
              "type": "uint256"
            },
            {
              "internalType": "bool",
              "name": "shouldOpenPosition",
              "type": "bool"
            },
            {
              "internalType": "uint256",
              "name": "createdAt",
              "type": "uint256"
            },
            {
              "internalType": "uint256",
              "name": "updatedConditionsAt",
              "type": "uint256"
            },
            {
              "internalType": "bytes",
              "name": "extraParams",
              "type": "bytes"
            }
          ],
          "internalType": "struct LimitOrderLibrary.LimitOrder",
          "name": "",
          "type": "tuple"
        }
      ],
      "stateMutability": "view",
      "type": "function"
    },
    {
      "inputs": [
        {
          "internalType": "uint256",
          "name": "_index",
          "type": "uint256"
        }
      ],
      "name": "getOrderByIndex",
      "outputs": [
        {
          "components": [
            {
              "internalType": "contract IBucket",
              "name": "bucket",
              "type": "address"
            },
            {
              "internalType": "address",
              "name": "positionAsset",
              "type": "address"
            },
            {
              "internalType": "address",
              "name": "depositAsset",
              "type": "address"
            },
            {
              "internalType": "uint256",
              "name": "depositAmount",
              "type": "uint256"
            },
            {
              "internalType": "address",
              "name": "feeToken",
              "type": "address"
            },
            {
              "internalType": "uint256",
              "name": "protocolFee",
              "type": "uint256"
            },
            {
              "internalType": "address",
              "name": "trader",
              "type": "address"
            },
            {
              "internalType": "uint256",
              "name": "deadline",
              "type": "uint256"
            },
            {
              "internalType": "uint256",
              "name": "id",
              "type": "uint256"
            },
            {
              "internalType": "uint256",
              "name": "leverage",
              "type": "uint256"
            },
            {
              "internalType": "bool",
              "name": "shouldOpenPosition",
              "type": "bool"
            },
            {
              "internalType": "uint256",
              "name": "createdAt",
              "type": "uint256"
            },
            {
              "internalType": "uint256",
              "name": "updatedConditionsAt",
              "type": "uint256"
            },
            {
              "internalType": "bytes",
              "name": "extraParams",
              "type": "bytes"
            }
          ],
          "internalType": "struct LimitOrderLibrary.LimitOrder",
          "name": "",
          "type": "tuple"
        }
      ],
      "stateMutability": "view",
      "type": "function"
    },
    {
      "inputs": [],
      "name": "getOrdersLength",
      "outputs": [
        {
          "internalType": "uint256",
          "name": "",
          "type": "uint256"
        }
      ],
      "stateMutability": "view",
      "type": "function"
    },
    {
      "inputs": [
        {
          "internalType": "address",
          "name": "_trader",
          "type": "address"
        }
      ],
      "name": "getTraderOrders",
      "outputs": [
        {
          "components": [
            {
              "internalType": "contract IBucket",
              "name": "bucket",
              "type": "address"
            },
            {
              "internalType": "address",
              "name": "positionAsset",
              "type": "address"
            },
            {
              "internalType": "address",
              "name": "depositAsset",
              "type": "address"
            },
            {
              "internalType": "uint256",
              "name": "depositAmount",
              "type": "uint256"
            },
            {
              "internalType": "address",
              "name": "feeToken",
              "type": "address"
            },
            {
              "internalType": "uint256",
              "name": "protocolFee",
              "type": "uint256"
            },
            {
              "internalType": "address",
              "name": "trader",
              "type": "address"
            },
            {
              "internalType": "uint256",
              "name": "deadline",
              "type": "uint256"
            },
            {
              "internalType": "uint256",
              "name": "id",
              "type": "uint256"
            },
            {
              "internalType": "uint256",
              "name": "leverage",
              "type": "uint256"
            },
            {
              "internalType": "bool",
              "name": "shouldOpenPosition",
              "type": "bool"
            },
            {
              "internalType": "uint256",
              "name": "createdAt",
              "type": "uint256"
            },
            {
              "internalType": "uint256",
              "name": "updatedConditionsAt",
              "type": "uint256"
            },
            {
              "internalType": "bytes",
              "name": "extraParams",
              "type": "bytes"
            }
          ],
          "internalType": "struct LimitOrderLibrary.LimitOrder[]",
          "name": "",
          "type": "tuple[]"
        }
      ],
      "stateMutability": "view",
      "type": "function"
    },
    {
      "inputs": [
        {
          "internalType": "address",
          "name": "_trader",
          "type": "address"
        }
      ],
      "name": "getTraderOrdersLength",
      "outputs": [
        {
          "internalType": "uint256",
          "name": "",
          "type": "uint256"
        }
      ],
      "stateMutability": "view",
      "type": "function"
    },
    {
      "inputs": [
        {
          "internalType": "address",
          "name": "_registry",
          "type": "address"
        },
        {
          "internalType": "address",
          "name": "_primexDNS",
          "type": "address"
        },
        {
          "internalType": "address",
          "name": "_pm",
          "type": "address"
        },
        {
          "internalType": "address payable",
          "name": "_traderBalanceVault",
          "type": "address"
        },
        {
          "internalType": "address",
          "name": "_swapManager",
          "type": "address"
        },
        {
          "internalType": "address",
          "name": "_whiteBlackList",
          "type": "address"
        }
      ],
      "name": "initialize",
      "outputs": [],
      "stateMutability": "nonpayable",
      "type": "function"
    },
    {
      "inputs": [
        {
          "internalType": "uint256",
          "name": "",
          "type": "uint256"
        },
        {
          "internalType": "uint256",
          "name": "",
          "type": "uint256"
        }
      ],
      "name": "openConditions",
      "outputs": [
        {
          "internalType": "uint256",
          "name": "managerType",
          "type": "uint256"
        },
        {
          "internalType": "bytes",
          "name": "params",
          "type": "bytes"
        }
      ],
      "stateMutability": "view",
      "type": "function"
    },
    {
      "inputs": [
        {
          "components": [
            {
              "internalType": "uint256",
              "name": "orderId",
              "type": "uint256"
            },
            {
              "internalType": "uint256",
              "name": "conditionIndex",
              "type": "uint256"
            },
            {
              "internalType": "bytes",
              "name": "comAdditionalParams",
              "type": "bytes"
            },
            {
              "components": [
                {
                  "internalType": "uint256",
                  "name": "shares",
                  "type": "uint256"
                },
                {
                  "components": [
                    {
                      "internalType": "string",
                      "name": "dexName",
                      "type": "string"
                    },
                    {
                      "internalType": "bytes",
                      "name": "encodedPath",
                      "type": "bytes"
                    }
                  ],
                  "internalType": "struct PrimexPricingLibrary.SwapPath[]",
                  "name": "paths",
                  "type": "tuple[]"
                }
              ],
              "internalType": "struct PrimexPricingLibrary.Route[]",
              "name": "firstAssetRoutes",
              "type": "tuple[]"
            },
            {
              "components": [
                {
                  "internalType": "uint256",
                  "name": "shares",
                  "type": "uint256"
                },
                {
                  "components": [
                    {
                      "internalType": "string",
                      "name": "dexName",
                      "type": "string"
                    },
                    {
                      "internalType": "bytes",
                      "name": "encodedPath",
                      "type": "bytes"
                    }
                  ],
                  "internalType": "struct PrimexPricingLibrary.SwapPath[]",
                  "name": "paths",
                  "type": "tuple[]"
                }
              ],
              "internalType": "struct PrimexPricingLibrary.Route[]",
              "name": "depositInThirdAssetRoutes",
              "type": "tuple[]"
            },
            {
              "internalType": "address",
              "name": "keeper",
              "type": "address"
            }
          ],
          "internalType": "struct LimitOrderLibrary.OpenPositionParams",
          "name": "_params",
          "type": "tuple"
        }
      ],
      "name": "openPositionByOrder",
      "outputs": [],
      "stateMutability": "nonpayable",
      "type": "function"
    },
    {
      "inputs": [
        {
          "internalType": "uint256",
          "name": "",
          "type": "uint256"
        }
      ],
      "name": "orderIndexes",
      "outputs": [
        {
          "internalType": "uint256",
          "name": "",
          "type": "uint256"
        }
      ],
      "stateMutability": "view",
      "type": "function"
    },
    {
      "inputs": [],
      "name": "ordersId",
      "outputs": [
        {
          "internalType": "uint256",
          "name": "",
          "type": "uint256"
        }
      ],
      "stateMutability": "view",
      "type": "function"
    },
    {
      "inputs": [],
      "name": "pause",
      "outputs": [],
      "stateMutability": "nonpayable",
      "type": "function"
    },
    {
      "inputs": [],
      "name": "paused",
      "outputs": [
        {
          "internalType": "bool",
          "name": "",
          "type": "bool"
        }
      ],
      "stateMutability": "view",
      "type": "function"
    },
    {
      "inputs": [],
      "name": "pm",
      "outputs": [
        {
          "internalType": "contract IPositionManager",
          "name": "",
          "type": "address"
        }
      ],
      "stateMutability": "view",
      "type": "function"
    },
    {
      "inputs": [],
      "name": "primexDNS",
      "outputs": [
        {
          "internalType": "contract IPrimexDNS",
          "name": "",
          "type": "address"
        }
      ],
      "stateMutability": "view",
      "type": "function"
    },
    {
      "inputs": [],
      "name": "registry",
      "outputs": [
        {
          "internalType": "contract IAccessControl",
          "name": "",
          "type": "address"
        }
      ],
      "stateMutability": "view",
      "type": "function"
    },
    {
      "inputs": [
        {
          "internalType": "address",
          "name": "_swapManager",
          "type": "address"
        }
      ],
      "name": "setSwapManager",
      "outputs": [],
      "stateMutability": "nonpayable",
      "type": "function"
    },
    {
      "inputs": [
        {
          "internalType": "bytes4",
          "name": "_interfaceId",
          "type": "bytes4"
        }
      ],
      "name": "supportsInterface",
      "outputs": [
        {
          "internalType": "bool",
          "name": "",
          "type": "bool"
        }
      ],
      "stateMutability": "view",
      "type": "function"
    },
    {
      "inputs": [],
      "name": "swapManager",
      "outputs": [
        {
          "internalType": "contract ISwapManager",
          "name": "",
          "type": "address"
        }
      ],
      "stateMutability": "view",
      "type": "function"
    },
    {
      "inputs": [],
      "name": "traderBalanceVault",
      "outputs": [
        {
          "internalType": "contract ITraderBalanceVault",
          "name": "",
          "type": "address"
        }
      ],
      "stateMutability": "view",
      "type": "function"
    },
    {
      "inputs": [
        {
          "internalType": "address",
          "name": "",
          "type": "address"
        },
        {
          "internalType": "uint256",
          "name": "",
          "type": "uint256"
        }
      ],
      "name": "traderOrderIds",
      "outputs": [
        {
          "internalType": "uint256",
          "name": "",
          "type": "uint256"
        }
      ],
      "stateMutability": "view",
      "type": "function"
    },
    {
      "inputs": [
        {
          "internalType": "uint256",
          "name": "",
          "type": "uint256"
        }
      ],
      "name": "traderOrderIndexes",
      "outputs": [
        {
          "internalType": "uint256",
          "name": "",
          "type": "uint256"
        }
      ],
      "stateMutability": "view",
      "type": "function"
    },
    {
      "inputs": [],
      "name": "unpause",
      "outputs": [],
      "stateMutability": "nonpayable",
      "type": "function"
    },
    {
      "inputs": [
        {
          "components": [
            {
              "internalType": "uint256",
              "name": "orderId",
              "type": "uint256"
            },
            {
              "internalType": "uint256",
              "name": "depositAmount",
              "type": "uint256"
            },
            {
              "internalType": "uint256",
              "name": "leverage",
              "type": "uint256"
            },
            {
              "internalType": "bool",
              "name": "isProtocolFeeInPmx",
              "type": "bool"
            },
            {
              "internalType": "bool",
              "name": "takeDepositFromWallet",
              "type": "bool"
            },
            {
              "internalType": "bool",
              "name": "payFeeFromWallet",
              "type": "bool"
            }
          ],
          "internalType": "struct LimitOrderLibrary.UpdateLimitOrderParams",
          "name": "_params",
          "type": "tuple"
        }
      ],
      "name": "updateOrder",
      "outputs": [],
      "stateMutability": "payable",
      "type": "function"
    },
    {
      "inputs": [
        {
          "components": [
            {
              "internalType": "uint256",
              "name": "orderId",
              "type": "uint256"
            },
            {
              "components": [
                {
                  "internalType": "uint256",
                  "name": "managerType",
                  "type": "uint256"
                },
                {
                  "internalType": "bytes",
                  "name": "params",
                  "type": "bytes"
                }
              ],
              "internalType": "struct LimitOrderLibrary.Condition[]",
              "name": "openConditions",
              "type": "tuple[]"
            },
            {
              "components": [
                {
                  "internalType": "uint256",
                  "name": "managerType",
                  "type": "uint256"
                },
                {
                  "internalType": "bytes",
                  "name": "params",
                  "type": "bytes"
                }
              ],
              "internalType": "struct LimitOrderLibrary.Condition[]",
              "name": "closeConditions",
              "type": "tuple[]"
            }
          ],
          "internalType": "struct ILimitOrderManager.UpdateOrderConditionsParams",
          "name": "_params",
          "type": "tuple"
        }
      ],
      "name": "updateOrderConditions",
      "outputs": [],
      "stateMutability": "nonpayable",
      "type": "function"
    }
  ],
  "transactionHash": "0xa250528cd9145c91abd9d38e1c066b822d2d230a286c8b6afc42b402e15d71ff",
  "args": [],
  "numDeployments": 1,
  "solcInputHash": "77b92b6c993777e32b56dbda936965f9",
  "bytecode": "0x60808060405234620000c6576000549060ff8260081c1662000074575060ff8082160362000038575b604051614d309081620000cc8239f35b60ff90811916176000557f7f26b83ff96e1f2b6a682f133852f6798a09c465da95921460cefb3847402498602060405160ff8152a13862000028565b62461bcd60e51b815260206004820152602760248201527f496e697469616c697a61626c653a20636f6e747261637420697320696e697469604482015266616c697a696e6760c81b6064820152608490fd5b600080fdfe608080604052600436101561001357600080fd5b600090813560e01c90816301ffc9a7146135d75750806307c2e16c146135b95780631ba42ea71461357157806323b515c41461353f57806330284efc14613420578063305d98b4146134025780633f4a2d27146133d95780633f4ba83a146132b057806355815199146132865780635973af39146131e75780635c975abb146131c45780636e1c227514612c7e578063709d039d14612c5557806371e536c714612bee5780637948398d14612b985780637a2ef801146121de5780637b103999146121b5578063838bf2d5146121495780638456cb59146120455780638970cdff1461201c5780639968861e14611ff35780639dd984f214611fc9578063a5cdc8fc14611dad578063c1001337146112ca578063c5d4d450146112a0578063c712a93914611267578063cc2a9a5b14610dbb578063ce3ca00b14610d4a578063d09ef24114610cdf578063d81db0ff14610c36578063dabe8a7114610bf0578063e9b3cd5214610bb7578063ea0341a814610b0d578063efa160f41461085a5763f17194bb146101a257600080fd5b60c0366003190112610857576101b6613edb565b60d754604051630723eb0360e51b815233600482015290602090829060249082906001600160a01b03165afa9081156104ee578291610819575b506108075760043580825260cb60205261020d6040832054613cf4565b50805460068201546001600160a01b03918216911633036107f55780610777575b5060d554604051632630c12f60e01b81529290602090849060049082906001600160a01b03165afa92831561076c578493610728575b5060d35460d4546001600160a01b039081169491169073C015F00Cd03302A8Cc964BFCCF5F5663DCdD3Ea93b15610531576040519263f1bc5b8160e01b84528460048501526024840152602435604484015260443560648401526064358015158091036107235760848401526084359485151586036107235785151560a485015260a435928315158403610723578793151560c486015260e485015261010484015260018060a01b0316918261012482015281816101448173C015F00Cd03302A8Cc964BFCCF5F5663DCdD3Ea95af480156104ee5761070f575b506003830193845460243503610681575b50506009820190815460443503610604575b83548254869181159182156105b5575b5050156105a3576706f05b59d3b2000081019081811161058f57811061057d5760d554604051635dc189e160e11b815287939173eFCDBbd36a9D77264d56F22e0E94f8D5F425f9b4906001600160a01b0316602083600481845afa92831561053d578693610548575b50916020600493604051948580926305e1621360e21b82525afa92831561053d5786936104fd575b5060028801546001600160a01b031691803b156104f957869460a493670de0b6b3a7640000604051988997889663d3b9cb1560e01b8852600488015260018060a01b03166024870152046044850152606484015260848301525af480156104ee576104d6575b505060807f22e28f14941a8f9d89c3ee26b19498784e5ae277784b2f56a813ecdb41611c659160088401549360018060a01b036006820154169554915490600560018060a01b0360048301541691015491604051938452602084015260408301526060820152a36001805580f35b6104df906137a1565b6104ea578338610468565b8380fd5b6040513d84823e3d90fd5b8680fd5b9092506020813d602011610535575b8161051960209383613806565b810103126105315761052a90613b7b565b9138610402565b8580fd5b3d915061050c565b6040513d88823e3d90fd5b92506020833d602011610575575b8161056360209383613806565b810103126105315791519160206103da565b3d9150610556565b604051630a77254f60e01b8152600490fd5b634e487b7160e01b87526011600452602487fd5b604051631550e8b760e01b8152600490fd5b818192939450028281048214831517156105ee5780936105d85704143880610371565b634e487b7160e01b600052601260045260246000fd5b634e487b7160e01b600052601160045260246000fd5b73C015F00Cd03302A8Cc964BFCCF5F5663DCdD3Ea93b1561067d57846040516326d1999160e11b81528460048201526044356024820152818160448173C015F00Cd03302A8Cc964BFCCF5F5663DCdD3Ea95af480156104ee57610669575b5050610361565b610672906137a1565b61067d578438610662565b8480fd5b60d3546001600160a01b031673C015F00Cd03302A8Cc964BFCCF5F5663DCdD3Ea93b1561070b5760405191630658598b60e51b83528560048401526024356024840152151560448301526064820152818160848173C015F00Cd03302A8Cc964BFCCF5F5663DCdD3Ea95af480156104ee571561034f57610700906137a1565b6104ea57833861034f565b8280fd5b610718906137a1565b6104ea57833861033e565b600080fd5b9092506020813d602011610764575b8161074460209383613806565b810103126104ea57516001600160a01b03811681036104ea579138610264565b3d9150610737565b6040513d86823e3d90fd5b6020600491604051928380926308bcf8b560e21b82525afa90811561076c5784916107bb575b50156107a9573861022e565b60405163d42bba7f60e01b8152600490fd5b90506020813d6020116107ed575b816107d660209383613806565b810103126104ea576107e790613b0e565b3861079d565b3d91506107c9565b60405163014d683360e41b8152600490fd5b6040516333df015b60e01b8152600490fd5b90506020813d60201161084f575b8161083460209383613806565b8101031261084b5761084590613b0e565b386101f0565b5080fd5b3d9150610827565b80fd5b50346108575760208060031936011261084b576004356001600160401b038082116104ea57366023830112156104ea5781600401359081116104ea573660248260051b840101116104ea57835b8181106108b2578480f35b6108c08183602486016140a0565b35855260cb8452604085205460c95415610b08576108dd90613cf4565b509060018060a01b0380835416801591600885015490610901858860248b016140a0565b35821480610a83575b610922575b5050505061091d9150613ce5565b6108a7565b8989826006890154169486600014610a2957604051610940816137eb565b838152965b156109ac5750509261091d9692600080516020614cdb8339815191526109a3969361099e965b610996826001890154169260098901549060028a01541660038a015491604051958695339b87613f86565b0390a4613fd8565b614624565b3880808061090f565b906004959296939894916040519687809263011ddaef60e71b82525afa94851561053d578861091d9961099e97600080516020614cdb833981519152938f6109a39b926109fc575b50501661096b565b610a1b9250803d10610a22575b610a138183613806565b810190613f67565b388f6109f4565b503d610a09565b6040516306fdde0360e01b815291508282600481845afa8015610a78578c928491610a56575b5096610945565b610a7291503d8086833e610a6a8183613806565b810190613f31565b38610a4f565b6040513d85823e3d90fd5b5060078601544210158061090a57508315801561090a5750604051634db1160160e11b81528981600481875afa908115610afd578b91610ac4575b5061090a565b90508981813d8311610af6575b610adb8183613806565b81010312610af257610aec90613b0e565b38610abe565b8a80fd5b503d610ad1565b6040513d8d823e3d90fd5b508480f35b50346108575760208060031936011261084b57600435825260d1815260408220805490610b39826138dd565b93610b476040519586613806565b828552908152828120838086015b848410610b735760405182815280610b6f8185018a61386f565b0390f35b600191600291604051610b8581613786565b85548152604051610ba381610b9c81898b016136f0565b0382613806565b838201528152019201920191908490610b55565b5034610857576020366003190112610857576020906040906001600160a01b03610bdf61362c565b16815260cd83522054604051908152f35b503461085757602036600319011261085757610c0a6142a0565b50610b6f610c22610c1c600435613cf4565b50613fd8565b6040519182916020835260208301906139fa565b50346108575760208060031936011261084b576001600160a01b03610c5961362c565b169182815260cf91828152604082205492610c7384614307565b94835b858110610c8b5760405180610b6f8982613aac565b610cda90828652838552610ca28160408820613656565b90549060031b1c865260cb8552610cbf610c1c6040882054613cf4565b610cc9828a614357565b52610cd48189614357565b50613ce5565b610c76565b503461085757602036600319011261085757600435610cfc6142a0565b5080825260cb602052806008610d156040852054613cf4565b50015403610d3857610c1c604083610c2293610b6f955260cb6020522054613cf4565b60405163d5516fcd60e01b8152600490fd5b50346108575760208060031936011261084b576001600160a01b03610d6d61362c565b169182815260cd91828152604082205492610d8784614307565b94835b858110610d9f5760405180610b6f8982613aac565b610db690828652838552610ca28160408820613656565b610d8a565b50346108575760c036600319011261085757610dd561362c565b6001600160a01b03906024908135838116908190036107235760443590848216809203610723576064358581168091036104f957608435928684168094036107235760a435928784168094036107235788549760ff8960081c16159687809861125a575b8015611243575b156111e85760ff198a81166001178c5599886111d7575b5016936040516301ffc9a760e01b98898252637965db0b60e01b60048301528b60209a8b8484818c5afa9384156104ee578c929461119f575b5083611135575b836110cb575b83611061575b83610ff3575b83610f8b575b50505015610f79576001600160601b0360a01b948560d254161760d2558460d754161760d7558360d454161760d4558260d554161760d5558160d354161760d35560d654161760d655610f3a84549360ff8560081c1690610f0f82613b1b565b610f1882613b1b565b60655416606555610f2881613b1b565b610f3181613b1b565b60018055613b1b565b610f42578280f35b7f7f26b83ff96e1f2b6a682f133852f6798a09c465da95921460cefb38474024989161ff001916835560405160018152a138808280f35b60405163044aa57560e41b8152600490fd5b604051908152633df6cef760e01b6004820152925090829081855afa908115610afd578b91610fbe575b50388981610eaf565b90508881813d8311610fec575b610fd58183613806565b81010312610af257610fe690613b0e565b38610fb5565b503d610fcb565b9250508b604051838152631c94d2c560e01b60048201528b8184818d5afa9081156104ee578c9291611027575b5092610ea9565b82819392503d831161105a575b61103e8183613806565b81010312611056576110508b91613b0e565b38611020565b8c80fd5b503d611034565b9250508b6040518381526312b3ed2b60e01b60048201528b8184818b5afa9081156104ee578c9291611095575b5092610ea3565b82819392503d83116110c4575b6110ac8183613806565b81010312611056576110be8b91613b0e565b3861108e565b503d6110a2565b9250508b6040518381526306cc15a560e11b60048201528b8184818a5afa9081156104ee578c92916110ff575b5092610e9d565b82819392503d831161112e575b6111168183613806565b81010312611056576111288b91613b0e565b386110f8565b503d61110c565b9250508b60405183815263fa6ab0ef60e01b60048201528b818481895afa9081156104ee578c9291611169575b5092610e97565b82819392503d8311611198575b6111808183613806565b81010312611056576111928b91613b0e565b38611162565b503d611176565b8281939295503d83116111d0575b6111b78183613806565b81010312611056576111c98b91613b0e565b9238610e90565b503d6111ad565b61ffff1916610101178b5538610e57565b60405162461bcd60e51b815260206004820152602e818b01527f496e697469616c697a61626c653a20636f6e747261637420697320616c72656160448201526d191e481a5b9a5d1a585b1a5e995960921b6064820152608490fd5b50303b158015610e405750600160ff8b1614610e40565b50600160ff8b1610610e39565b5034610857576020366003190112610857576020906040906001600160a01b0361128f61362c565b16815260cf83522054604051908152f35b5034610857576020366003190112610857576040602091600435815260ce83522054604051908152f35b5034610857576020366003190112610857576001600160401b03600435116108575760c0600435360360031901126108575760043560040135815260cb602052604081205460c95415159081611d91575b5015610d3857611329613edb565b60d754604051630723eb0360e51b815233600482015290602090829060249082906001600160a01b03165afa9081156104ee578291611d57575b5061080757611370613e97565b5a9060043560040135815260d06020526040812054602460043501351015611d455760043560040135815260cb6020526113ad6040822054613cf4565b506007810154421015611d335780546001600160a01b031680611c4a575b506001600160a01b036113e260043560a4016140ca565b1615611c38576008810154825260d1602052604080832060d55460d35460d45460d654945163153e85cd60e01b8152600480820188905260e06024808401919091528135918201803560e4850152908201356101048401529197966001600160a01b039081169689969095948216948216939116916114d1916114aa91611483916114709160440190613bc6565b60c06101248b01526101a48a0191613bf7565b611497606460043501600435600401613c25565b89830360e319016101448b0152906140de565b6114be608460043501600435600401613c25565b88830360e319016101648a0152906140de565b6001600160a01b036114e760043560a401613642565b166101848701526003198682030160448701528454808252602082019160208260051b820101968c5260208c20928c915b838310611bf05750505050509160e095918594936064860152608485015260a484015260c4830152038173C015F00Cd03302A8Cc964BFCCF5F5663DCdD3Ea95af4918215610a78578392611b42575b5060043560040135835260d0602052611589602460043501356040852061369a565b5060018060a01b0360d45416602082546024604051809481936352ff146960e11b835260048301525afa908115611b37578591611af8575b50600160209160043560040135875260cb835261162c6115e46040892054613cf4565b506116516115fc604460043501600435600401613dfc565b919060c08b01519261163f6040519a8b998a9889986301f24f2560e11b8a52608060048b015260848a01906141ef565b8881036003190160248a015291016136f0565b85810360031901604487015291613bf7565b606483019190915203916001600160a01b03165afa90811561076c578491611abe575b5015611aac57805460068201546001600160a01b03918216911661169c60043560a4016140ca565b916080850151926004841015611a985760a086015182611a365790600080516020614cdb833981519152916040516116d3816137eb565b898152935b611a255788935b60018060a01b0360018901541660098901549061172760018060a01b0360028c0154169360038c0154956040519b8c5260208c015261010060408c01526101008b019061384a565b9660018060a01b031660608a0152608089015260a088015260c087015260e086015260018060a01b0316938060043560040135930390a461177761177242600c840154141592613fd8565b614971565b611784575b506001805580f35b60d554604051637496a94d60e11b81529190602090839060049082906001600160a01b03165afa918215610a785783926119e1575b506117c860a4600435016140ca565b93606060018060a01b03602084015116920151905a81039081116105ee57604051916117f3836137eb565b858352611858611864611810606460043501600435600401613dc7565b611827608460049593953501600435600401613dc7565b6118446040949294519687946040602087015260608601916140de565b90601f1994858584030160408601526140de565b03908101835282613806565b519360405197886101008101106001600160401b036101008b0111176119cb57610100890160405260018060a01b03168852602088015260408701528460608701526001608087015260a086015260c085015260e084015260018060a01b0381163b1561084b57604080516350b29c5560e11b815260206004820181905285516001600160a01b0390811660248401529086015116604482015290840151606482015260608401516101248201949192919060058110156119b7576084840152608081015160a484015260a081015160c484015260c081015161010060e4850152805195869052919461014484019260200190855b8181106119a1575050508394838581819560e082960151610104830152039260018060a01b03165af180156104ee571561177c57611996906137a1565b61085757803861177c565b8251855260209485019490920191600101611959565b634e487b7160e01b85526021600452602485fd5b634e487b7160e01b600052604160045260246000fd5b9091506020813d602011611a1d575b816119fd60209383613806565b8101031261070b57516001600160a01b038116810361070b5790386117b9565b3d91506119f0565b87516001600160a01b0316936116df565b6040516306fdde0360e01b81528881600481875afa908115611a8d5790600080516020614cdb8339815191529392918a91611a73575b50936116d8565b611a8791503d808c833e610a6a8183613806565b38611a6c565b6040513d8b823e3d90fd5b634e487b7160e01b87526021600452602487fd5b604051635745ee4960e01b8152600490fd5b90506020813d602011611af0575b81611ad960209383613806565b810103126104ea57611aea90613b0e565b38611674565b3d9150611acc565b90506020813d602011611b2f575b81611b1360209383613806565b8101031261067d576001611b28602092613b7b565b91506115c1565b3d9150611b06565b6040513d87823e3d90fd5b90915060e0813d60e011611be8575b81611b5e60e09383613806565b8101031261070b57604051908160e08101106001600160401b0360e0840111176119cb5760e08201604052611b9281613b7b565b8252611ba060208201613b7b565b602083015260408101516040830152606081015160608301526080810151600481101561067d579060c091608084015260a081015160a0840152015160c08201529038611567565b3d9150611b51565b9193999850919394959660206002611c228c600160408196601f19898203018a528354815281878201520191016136f0565b9b019301930190928b9899979695949293611518565b604051639783f5bd60e01b8152600490fd5b6040516308bcf8b560e21b8152602081600481855afa90811561076c578491611cf9575b50156107a957604060018060a01b03600184015416602482518094819363a4c1cccb60e01b835260048301525afa908115610a78578391611cc8575b5015611cb657386113cb565b60405163b7addff360e01b8152600490fd5b611cea915060403d604011611cf2575b611ce28183613806565b8101906140b0565b905038611caa565b503d611cd8565b90506020813d602011611d2b575b81611d1460209383613806565b810103126104ea57611d2590613b0e565b38611c6e565b3d9150611d07565b60405163065445df60e51b8152600490fd5b6040516316f5923f60e31b8152600490fd5b90506020813d602011611d89575b81611d7260209383613806565b8101031261084b57611d8390613b0e565b38611363565b3d9150611d65565b611d9b9150613cf4565b5060080154600480350135143861131b565b50346108575760208060031936011261084b576004359081835260cb815260408320548260c95415159182611fb0575b505015610d3857611dec613edb565b60d754604051630723eb0360e51b81523360048201526001600160a01b039183908290602490829086165afa908115611b37578591611f7b575b506108075782845260cb8252611e3f6040852054613cf4565b509281600685015416918233036107f55784548116801594908515611f3757604051611e6a816137eb565b888152955b15611ec35750509161099e9391600080516020614cdb833981519152611ebc969488610996826001890154169260098901549060028a01541660038a015491604051958695339b87613f86565b6001805580f35b81600491604098969497959398519283809263011ddaef60e71b82525afa958615611f2c578061099e97600080516020614cdb83398151915293611ebc9a8c92611f0f5750501661096b565b611f259250803d10610a2257610a138183613806565b38806109f4565b6040513d8a823e3d90fd5b6040516306fdde0360e01b81528881600481855afa908115611a8d578991611f61575b5095611e6f565b611f7591503d808b833e610a6a8183613806565b38611f5a565b90508281813d8311611fa9575b611f928183613806565b8101031261067d57611fa390613b0e565b38611e26565b503d611f88565b6008919250611fbe90613cf4565b500154148238611ddd565b5034610857576020366003190112610857576040602091600435815260cc83522054604051908152f35b503461085757806003193601126108575760d3546040516001600160a01b039091168152602090f35b503461085757806003193601126108575760d5546040516001600160a01b039091168152602090f35b503461085757806003193601126108575760d254604051632474521560e21b81527f5c91514091af31f62f596a314af7d5be40146b2f2355969392f055e12e0982fb600482015233602482015290602090829060449082906001600160a01b03165afa9081156104ee578291612110575b50156120fe576120c4613e97565b600160ff1960655416176065557f62e78cea01bee320cd4e420270b5ea74000d11b0c9f74754ebdbfc544b05a2586020604051338152a180f35b60405163036be76f60e61b8152600490fd5b90506020813d8211612141575b8161212a60209383613806565b8101031261084b5761213b90613b0e565b386120b6565b3d915061211d565b50346108575761215836613684565b9190815260d16020526040812090815483101561085757600161217b848461369a565b5061219981549161219260405180958193016136f0565b0383613806565b610b6f604051928392835260406020840152604083019061384a565b503461085757806003193601126108575760d2546040516001600160a01b039091168152602090f35b506020366003190112610857576004356001600160401b03811161084b57610180600319823603011261084b57612213613edb565b60d754604051630723eb0360e51b815233600482015290602090829060249082906001600160a01b03165afa908115610a78578391612b5e575b506108075761225a613e97565b60d55460d35460d454604051634f10664360e11b815260806004808301919091529094936001600160a01b03908116939281169287928792839216906122a290880180613bc6565b6084840161018090526102048401906122ba92613bf7565b602488013560a4840152946001600160a01b036122d960448a01613642565b1660c48401526001600160a01b036122f360648a01613642565b1660e48401526101049160848901358385015260a4890161231390613c18565b151597610124988986015260c48a0161232b90613c18565b15159761014498898701526101649460e48c0135868801528b0161234e90613c18565b15156101848701526123658b8b0160048d01613c25565b916083199283898303016101a48a015261237e92613c6d565b61238d8c8b0160048e01613c25565b9092888303016101c48901526123a292613c6d565b938a016123ae90613c18565b15156101e4860152602485015260448401526064830152038173C015F00Cd03302A8Cc964BFCCF5F5663DCdD3Ea95af4938415611b375785946129fc575b506123f860ca54613ce5565b8060ca5561010085015260c954600160401b8110156129e857806001612421920160c955613cf4565b6129d457845181546001600160a01b039182166001600160a01b03199182161783556020870151600184018054918416918316919091179055604087015160028401805491841691831691909117905560608701516003840155608087015160048401805491841691831691909117905560a0870151600584015560c087015160068401805491909316911617905560e0850151600782015561010085015160088201556101208501516009820155610140850151600a8201805460ff191691151560ff16919091179055610160850151600b820155610180850151600c8201556101a08501518051906001600160401b0382116129c0576125338261252a600d8601546136b6565b600d8601613d46565b602090601f831160011461295357600d9291899183612948575b50508160011b916000199060031b1c1916179101555b60c9548060001981011161293457610100850151865260cb60205260001901604086205560018060a01b0360c085015116855260cd6020526125ae6040862061010086015190613d8b565b60c08401516001600160a01b0316855260cd60205260408520546000198101811061293457610100850151865260cc60205260001901604086205560018060a01b03845116855260cf60205261260d6040862061010086015190613d8b565b83516001600160a01b0316855260cf602052604085205460001981018110612934579061265591610100860151875260ce602052600019016040872055830183600401613dc7565b60d4549091906001600160a01b031673C015F00Cd03302A8Cc964BFCCF5F5663DCdD3Ea93b156104f9579186926040519263226af0f360e01b8452608060048501526126a460848501896139fa565b9260d16024860152600319858503016044860152808452602084019360208260051b82010194836000925b8484106128f55750505050505082849281926064830152038173C015F00Cd03302A8Cc964BFCCF5F5663DCdD3Ea95af480156104ee576128e1575b505061271b90820182600401613dc7565b60d4549091906001600160a01b031673C015F00Cd03302A8Cc964BFCCF5F5663DCdD3Ea93b156105315791859260405192630f703ee360e31b84526080600485015261276a60848501886139fa565b9260d06024860152600319858503016044860152808452602084019360208260051b82010194836000925b8484106128865750505050505082849281926064830152038173C015F00Cd03302A8Cc964BFCCF5F5663DCdD3Ea95af480156104ee57612872575b506127e091600401905080613dfc565b50506101008101517f08718d7f9294b21cbcc13bfca0a165339c7bd7276c02aa2675c0795fbfd9452561284c60018060a01b0360c0850151169360ca54865260d06020526128686040872060d160205261285a60408920916040519586956060875260608701906139fa565b908582036020870152613e2e565b908382036040850152613e2e565b0390a36001805580f35b61287b906137a1565b61070b5782386127d0565b919395968598995060206128cd819260406128be6128b1600197999b601f198a8603018c528a613c59565b8035845285810190613bc6565b91909281868201520191613bf7565b990194019401918b98979695939491612795565b6128ea906137a1565b6104ea57833861270a565b91939596859899506020612920819260406128be6128b1600197999b601f198a8603018c528a613c59565b990194019401918c989796959394916126cf565b634e487b7160e01b86526011600452602486fd5b01519050388061254d565b90600d840189526020892091895b601f19851681106129a85750918391600193600d95601f1981161061298f575b505050811b01910155612563565b015160001960f88460031b161c19169055388080612981565b91926020600181928685015181550194019201612961565b634e487b7160e01b88526041600452602488fd5b634e487b7160e01b86526004869052602486fd5b634e487b7160e01b86526041600452602486fd5b9093503d8086833e612a0e8183613806565b60208282810103126105315781516001600160401b0381116104f9576101c081840183850103126104f95760405192612a46846137b4565b808201516001600160a01b0381168103612b5a578452612a6a602083830101613b7b565b6020850152612a7d604083830101613b7b565b6040850152606082820101516060850152612a9c608083830101613b7b565b608085015260a0828201015160a0850152612abb60c083830101613b7b565b60c085015280820160e081810151908601526101008082015190860152610120808201519086015261014090612af2908201613b0e565b90850152808201610160818101519086015261018080820151908601526101a00151926001600160401b038411612b5a57808201601f8585850101011215612b5a57612b4d9360209183019381818501015193010101613b8f565b6101a082015292386123ec565b8880fd5b90506020813d602011612b90575b81612b7960209383613806565b8101031261070b57612b8a90613b0e565b3861224d565b3d9150612b6c565b503461085757604036600319011261085757612bb261362c565b6001600160a01b0316815260cf6020526040812080546024359290831015610857576020612be08484613656565b90546040519160031b1c8152f35b5034610857576060366003190112610857576044356001600160401b03918282116108575736602383011215610857578160040135928311610857573660248484010111610857576020612c4b846024850160243560043561436b565b6040519015158152f35b503461085757806003193601126108575760d6546040516001600160a01b039091168152602090f35b5034610857576020366003190112610857576004356001600160401b0380821161070b576060600319833603011261070b576040519160608301838110838211176131b05760405280600401358352602481013582811161067d57612ce9906004369184010161390f565b602084015260448101359182116104ea576004612d09923692010161390f565b6040820152612d16613edb565b60d754604051630723eb0360e51b815233600482015290602090829060249082906001600160a01b03165afa908115610a78578391613176575b50610807578051825260cb602052612d6b6040832054613cf4565b506006810180549091906001600160a01b031633036107f55780546001600160a01b03168061310a575b506040830151604051612dc681612db8602082019460208652604083019061386f565b03601f198101835282613806565b51902060088201908154865260d160205260408620604051612df881612db86020820194602086526040830190613e2e565b51902003612fe6575b6020840151604051612e2381612db8602082019460208652604083019061386f565b5190209054855260d060205260408520604051612e5081612db86020820194602086526040830190613e2e565b51902003612ebb575b507fa8b27bffdacaa4db21058695f3dbf1a56df849ef23906c118644f2e46ba1cf1f612ead83519260018060a01b03905416936128686040602083015192015160405193849360408552604085019061386f565b90838203602085015261386f565b612ec481613fd8565b602084015160d4546001600160a01b031673C015F00Cd03302A8Cc964BFCCF5F5663DCdD3Ea93b156104f95790869291612f1660405193630f703ee360e31b85526080600486015260848501906139fa565b60d06024850152600319848203016044850152825180825260208201916020808360051b8301019501926000915b838310612fa057505050505082849281926064830152038173C015F00Cd03302A8Cc964BFCCF5F5663DCdD3Ea95af480156104ee57612f8c575b5050600c4291015538612e59565b612f95906137a1565b6104ea578338612f7e565b9193969750919394602080612fd2600193601f198682030187526040838c51805184520151918185820152019061384a565b98019301930190928b979695949293612f44565b612fef82613fd8565b604085015160d4546001600160a01b031673C015F00Cd03302A8Cc964BFCCF5F5663DCdD3Ea93b15613106579061304392889160405194859263226af0f360e01b84526080600485015260848401906139fa565b9360d16024840152600319838603016044840152815180865260208601956020808360051b83010194019686915b8383106130c25750505050829394506064830152038173C015F00Cd03302A8Cc964BFCCF5F5663DCdD3Ea95af4801561053d576130af575b50612e01565b6130bb909591956137a1565b93386130a9565b929550929550926020806130f3600193601f198682030187526040838c51805184520151918185820152019061384a565b9801930193018c95929693889592613071565b8780fd5b6020600491604051928380926308bcf8b560e21b82525afa908115611b3757859161313c575b50156107a95738612d95565b90506020813d60201161316e575b8161315760209383613806565b8101031261067d5761316890613b0e565b38613130565b3d915061314a565b90506020813d6020116131a8575b8161319160209383613806565b8101031261070b576131a290613b0e565b38612d50565b3d9150613184565b634e487b7160e01b85526041600452602485fd5b5034610857578060031936011261085757602060ff606554166040519015158152f35b50346108575760208060031936011261084b57600435825260d0815260408220805490613213826138dd565b936132216040519586613806565b828552908152828120838086015b8484106132495760405182815280610b6f8185018a61386f565b60019160029160405161325b81613786565b8554815260405161327281610b9c81898b016136f0565b83820152815201920192019190849061322f565b5034610857576020366003190112610857576040602091600435815260cb83522054604051908152f35b503461085757806003193601126108575760d254604051632474521560e21b81527f5a7d4408f4759dddd7fdfd0d21abd99341dc2f52cda14804988a9b2df20766d860048201523360248201526020918290829060449082906001600160a01b03165afa908115610a785783916133a4575b50156120fe5760655460ff8116156133685760ff19166065556040513381527f5db9ee0a495bf2e6ff9c91a7834c1ba4fdd244a5e8aa4e537bd38aeae4b073aa9190a180f35b60405162461bcd60e51b815260048101839052601460248201527314185d5cd8589b194e881b9bdd081c185d5cd95960621b6044820152606490fd5b90508181813d83116133d2575b6133bb8183613806565b8101031261070b576133cc90613b0e565b38613322565b503d6133b1565b503461085757806003193601126108575760d4546040516001600160a01b039091168152602090f35b5034610857578060031936011261085757602060ca54604051908152f35b50346108575760208060031936011261084b5761343b61362c565b60d254604051632474521560e21b8152600481018590523360248201526001600160a01b03929184908290604490829087165afa908115611b3757859161350a575b50156120fe576040516301ffc9a760e01b8152631c94d2c560e01b6004820152911691908181602481865afa91821561076c5784926134d4575b505015610f79576001600160601b0360a01b60d654161760d65580f35b90809250813d8311613503575b6134eb8183613806565b8101031261070b576134fc90613b0e565b38806134b7565b503d6134e1565b90508381813d8311613538575b6135218183613806565b8101031261067d5761353290613b0e565b3861347d565b503d613517565b50346108575761354e36613684565b9190815260d06020526040812090815483101561085757600161217b848461369a565b50346108575760403660031901126108575761358b61362c565b6001600160a01b0316815260cd6020526040812080546024359290831015610857576020612be08484613656565b5034610857578060031936011261085757602060c954604051908152f35b90503461084b57602036600319011261084b5760043563ffffffff60e01b811680910361070b57602092506332ed0a6160e11b811490811561361b575b5015158152f35b6301ffc9a760e01b14905038613614565b600435906001600160a01b038216820361072357565b35906001600160a01b038216820361072357565b805482101561366e5760005260206000200190600090565b634e487b7160e01b600052603260045260246000fd5b6040906003190112610723576004359060243590565b805482101561366e5760005260206000209060011b0190600090565b90600182811c921680156136e6575b60208310146136d057565b634e487b7160e01b600052602260045260246000fd5b91607f16916136c5565b9060009291805491613701836136b6565b9182825260019384811690816000146137635750600114613723575b50505050565b90919394506000526020928360002092846000945b83861061374f57505050500101903880808061371d565b805485870183015294019385908201613738565b9294505050602093945060ff191683830152151560051b0101903880808061371d565b604081019081106001600160401b038211176119cb57604052565b6001600160401b0381116119cb57604052565b6101c081019081106001600160401b038211176119cb57604052565b608081019081106001600160401b038211176119cb57604052565b602081019081106001600160401b038211176119cb57604052565b90601f801991011681019081106001600160401b038211176119cb57604052565b60005b83811061383a5750506000910152565b818101518382015260200161382a565b9060209161386381518092818552858086019101613827565b601f01601f1916010190565b908082519081815260208091019281808460051b8301019501936000915b84831061389d5750505050505090565b90919293949584806138cd600193601f19868203018752828b51805183520151906040908185820152019061384a565b980193019301919493929061388d565b6001600160401b0381116119cb5760051b60200190565b6001600160401b0381116119cb57601f01601f191660200190565b81601f8201121561072357803591613926836138dd565b9260409061393682519586613806565b808552602093848087019260051b8201019380851161072357858201925b858410613965575050505050505090565b6001600160401b039084358281116107235784019186601f1984860301126107235786519261399384613786565b8981013584528781013591821161072357019083603f830112156107235788820135926139bf846138f4565b6139cb89519182613806565b848152858986860101116107235760008b8681978c839801838601378301015283820152815201930192613954565b90613aa99160018060a01b038082511683528060208301511660208401528060408301511660408401526060820151606084015280608083015116608084015260a082015160a084015260c08201511660c083015260e081015160e08301526101008082015190830152610120808201519083015261014080820151151590830152610160808201519083015261018080820151908301526101a080910151916101c08092820152019061384a565b90565b602080820190808352835180925260408301928160408460051b8301019501936000915b848310613ae05750505050505090565b9091929394958480613afe600193603f198682030187528a516139fa565b9801930193019194939290613ad0565b5190811515820361072357565b15613b2257565b60405162461bcd60e51b815260206004820152602b60248201527f496e697469616c697a61626c653a20636f6e7472616374206973206e6f74206960448201526a6e697469616c697a696e6760a81b6064820152608490fd5b51906001600160a01b038216820361072357565b90929192613b9c816138f4565b91613baa6040519384613806565b829482845282820111610723576020613bc4930190613827565b565b9035601e19823603018112156107235701602081359101916001600160401b03821161072357813603831361072357565b908060209392818452848401376000828201840152601f01601f1916010190565b3590811515820361072357565b9035601e19823603018112156107235701602081359101916001600160401b038211610723578160051b3603831361072357565b9035603e1982360301811215610723570190565b90808352602080930192838260051b810194846000925b858410613c95575050505050505090565b909192939495968580613cd48385600195038852613cc3613cb68d89613c59565b8035835284810190613bc6565b909160409081868201520191613bf7565b990194019401929594939190613c84565b60001981146105ee5760010190565b60c95481101561366e57600e9060c9600052027f66be4f155c5ef2ebd3772b228f2f00681e4ed5826cdb3b1943cc11ad15ad1d280190600090565b818110613d3a575050565b60008155600101613d2f565b9190601f8111613d5557505050565b613bc4926000526020600020906020601f840160051c83019310613d81575b601f0160051c0190613d2f565b9091508190613d74565b90815491600160401b8310156119cb5782613dae916001613bc495018155613656565b90919082549060031b91821b91600019901b1916179055565b903590601e198136030182121561072357018035906001600160401b03821161072357602001918160051b3603831361072357565b903590601e198136030182121561072357018035906001600160401b0382116107235760200191813603831361072357565b908154808252602080920191828260051b81019460005281600020936000915b848310613e5e5750505050505090565b909192939495846002613e8783856001950387528a548152604090818582015201848b016136f0565b9801930193019194939290613e4e565b60ff60655416613ea357565b60405162461bcd60e51b815260206004820152601060248201526f14185d5cd8589b194e881c185d5cd95960821b6044820152606490fd5b600260015414613eec576002600155565b60405162461bcd60e51b815260206004820152601f60248201527f5265656e7472616e637947756172643a207265656e7472616e742063616c6c006044820152606490fd5b602081830312610723578051906001600160401b03821161072357019080601f83011215610723578151613aa992602001613b8f565b9081602091031261072357516001600160a01b03811681036107235790565b92919695949093613faf60e095600386526000602087015261010080604088015286019061384a565b6001600160a01b039889166060860152928816608085015260a084015290951660c08201520152565b90600d6101a0604051613fea816137b4565b61409c819560018060a01b0380825416845280600183015416602085015280600283015416604085015260038201546060850152806004830154166080850152600582015460a085015260068201541660c0840152600781015460e08401526008810154610100840152600981015461012084015260ff600a820154161515610140840152600b810154610160840152600c81015461018084015261409560405180968193016136f0565b0384613806565b0152565b919081101561366e5760051b0190565b919082604091031261072357613aa9602083519301613b0e565b356001600160a01b03811681036107235790565b9190818181526020809101926005938284861b83010195809560009182945b8786106141105750505050505050505090565b90919293949596979998601f1982820301865261412d8b84613c59565b9060409061414582820193803583528b810190613c25565b809194848d850152526060918281019282891b8201019480948a915b84831061418a575050505050505087806001929c9b9c9b019601960194979695939291906140fd565b909192939495968e806141e0600193605f19898203018b526141ac8c87613c59565b906141d36141c96141bd8480613bc6565b8b85528b850191613bf7565b9285810190613bc6565b9185818503910152613bf7565b99019701959493019190614161565b80546001600160a01b03908116835260018201548116602084015260028201548116604084015260038201546060840152600482015481166080840152600582015460a084015260068201541660c0830152600781015460e083015260088101546101008301526009810154610120830152600a81015460ff161515610140830152600b810154610160830152600c8101546101808301526101c06101a08301819052613aa9920190600d016136f0565b604051906142ad826137b4565b60606101a083600080825280602083015280604083015280848301528060808301528060a08301528060c08301528060e0830152806101008301528061012083015280610140830152806101608301526101808201520152565b90614311826138dd565b61431e6040519182613806565b828152809261432f601f19916138dd565b019060005b82811061434057505050565b60209061434b6142a0565b82828501015201614334565b805182101561366e5760209160051b010190565b909260009180835260209160d08352604095868520548110156146135761439b9083865260d0855287862061369a565b509082855260cb84526143b087862054613cf4565b50906007820154421161459e5781546001600160a01b039290831690839082614532575b50905060d454169285815460248b51809781936352ff146960e11b835260048301525afa938415614528579186949391889384956144d8575b509061447a84939261446b9798614455965260cb895261442f8d862054613cf4565b508d51633fa1ee4760e11b8152606060048201529c8d998a9889969360648801906141ef565b600160031995868984030160248a0152016136f0565b92858403016044860152613bf7565b0393165af19384156144cd57508193614494575b50505090565b9091809350813d83116144c6575b6144ac8183613806565b8101031261085757506144be90613b0e565b38808061448e565b503d6144a2565b51913d9150823e3d90fd5b9295919450925081813d8111614521575b6144f38183613806565b810103126104f95761446b9386959361447a614455946145138b95613b7b565b96989750919293945061440d565b503d6144e9565b89513d89823e3d90fd5b600101548a5163a4c1cccb60e01b8152911660048201528981602481855afa9081156145e757879089926145f1575b508a516308bcf8b560e21b81529192829060049082905afa9081156145e75788916145b2575b50159081156145a9575b5061459e573882816143d4565b505050505091505090565b90501538614591565b90508681813d83116145e0575b6145c98183613806565b81010312613106576145da90613b0e565b38614587565b503d6145bf565b8a513d8a823e3d90fd5b6004925061460b908c8d3d10611cf257611ce28183613806565b905091614561565b86516316f5923f60e31b8152600490fd5b60d35460009060018060a01b038091169060c0840181815116604093838588015116606088015190865193614658856137d0565b8085526020850152868401526060830152803b1561053157845163a0fd10ad60e01b80825283516001600160a01b039081166004840152602085015181166024840152604085015116604483015260609093015160648201529086908290608490829084905af1801561479657614783575b50828060d354169251169260808701511660a0870151908551946146ed866137d0565b8086526020860152858501526060840152813b1561067d57835190815282516001600160a01b0390811660048301526020840151811660248301526040840151166044820152606090920151606483015290919083908390608490829084905af190811561477a5750614766575b5050613bc490614971565b61477082916137a1565b610857578061475b565b513d84823e3d90fd5b61478f909591956137a1565b93386146ca565b85513d88823e3d90fd5b6147aa81546136b6565b90816147b4575050565b81601f600093116001146147c6575055565b9080839182526147e5601f60208420940160051c840160018501613d2f565b5555565b8054600091828155816147fb57505050565b6001600160ff1b038216820361483f5782526020822091600191821b8301925b8381106148285750505050565b8082600292556148398482016147a0565b0161481b565b634e487b7160e01b83526011600452602483fd5b805490811561487d576000199182019161486d8383613656565b909182549160031b1b1916905555565b634e487b7160e01b600052603160045260246000fd5b9080821461496d576148a581546136b6565b906001600160401b0382116119cb5781906148ca826148c486546136b6565b86613d46565b600090601f8311600114614901576000926148f6575b50508160011b916000199060031b1c1916179055565b0154905038806148e0565b81526020808220858352818320935090601f1985169083905b82821061495457505090846001959493921061493b575b505050811b019055565b015460001960f88460031b161c19169055388080614931565b849581929585015481556001809101960194019061491a565b5050565b610100810190815191600092835260209060d082526040926149948486206147e9565b8151855260d183526149a78486206147e9565b80516001600160a01b03908116865260cf8452848620825182168752858720546000199391848201918211614cc65760c092916149e391613656565b90549060031b1c83825116895260cf8752614a1081613dae8a8c2089518d5260ce8b528b8d205490613656565b8551895260ce8752878920549089528789205582815116885260cf8652614a38878920614853565b8451885260ce865287878120550181815116875260cd85528587208282511688528688205490848201918211614cc657839291614a7491613656565b90549060031b1c82825116895260cd8752614aa181613dae8a8c2089518d5260cc8b528b8d205490613656565b8551895260cc875287892054908952878920555116865260cd8452614ac7858720614853565b8251865260cc8452858581205560c95482810190811161058f57614aea90613cf4565b508351875260cb8552614aff86882054613cf4565b919091614cb257808203614bd5575b5050508151855260cb83528385205460c95482810190811161058f57614b35600891613cf4565b500154865260cb84528486205560c9548015614bc15701614b5581613cf4565b6129d45790614bb5600d838860cb9796955588600182015588600282015588600382015588600482015588600582015588600682015588600782015588600882015588600982015588600a82015588600b82015588600c820155016147a0565b60c95551845252812055565b634e487b7160e01b86526031600452602486fd5b600d8184614caa95839454166001600160601b0360a01b90818754161786556001860182600185015416828254161790556002860182600285015416828254161790556003830154600387015560048601826004850154168282541617905560058301546005870155600686019160068401541690825416179055600781015460078501556008810154600885015560098101546009850155614c8e60ff600a83015416600a86019060ff801983541691151516179055565b600b810154600b850155600c810154600c850155019101614893565b388080614b0e565b634e487b7160e01b88526004889052602488fd5b634e487b7160e01b89526011600452602489fdfe288073495da2273b7902460b23ea23540d925931880b7ecc8ed6c7c6a5477e50a2646970667358221220249fc6cea1669b95f711e978ad3a4bf840257d95a9aa4bfadaf8189c5e1e166b64736f6c63430008120033",
  "deployedBytecode": "0x608080604052600436101561001357600080fd5b600090813560e01c90816301ffc9a7146135d75750806307c2e16c146135b95780631ba42ea71461357157806323b515c41461353f57806330284efc14613420578063305d98b4146134025780633f4a2d27146133d95780633f4ba83a146132b057806355815199146132865780635973af39146131e75780635c975abb146131c45780636e1c227514612c7e578063709d039d14612c5557806371e536c714612bee5780637948398d14612b985780637a2ef801146121de5780637b103999146121b5578063838bf2d5146121495780638456cb59146120455780638970cdff1461201c5780639968861e14611ff35780639dd984f214611fc9578063a5cdc8fc14611dad578063c1001337146112ca578063c5d4d450146112a0578063c712a93914611267578063cc2a9a5b14610dbb578063ce3ca00b14610d4a578063d09ef24114610cdf578063d81db0ff14610c36578063dabe8a7114610bf0578063e9b3cd5214610bb7578063ea0341a814610b0d578063efa160f41461085a5763f17194bb146101a257600080fd5b60c0366003190112610857576101b6613edb565b60d754604051630723eb0360e51b815233600482015290602090829060249082906001600160a01b03165afa9081156104ee578291610819575b506108075760043580825260cb60205261020d6040832054613cf4565b50805460068201546001600160a01b03918216911633036107f55780610777575b5060d554604051632630c12f60e01b81529290602090849060049082906001600160a01b03165afa92831561076c578493610728575b5060d35460d4546001600160a01b039081169491169073__$52ea7cf0c9ae2adbe7796b4f32fb3f8ca1$__3b15610531576040519263f1bc5b8160e01b84528460048501526024840152602435604484015260443560648401526064358015158091036107235760848401526084359485151586036107235785151560a485015260a435928315158403610723578793151560c486015260e485015261010484015260018060a01b0316918261012482015281816101448173__$52ea7cf0c9ae2adbe7796b4f32fb3f8ca1$__5af480156104ee5761070f575b506003830193845460243503610681575b50506009820190815460443503610604575b83548254869181159182156105b5575b5050156105a3576706f05b59d3b2000081019081811161058f57811061057d5760d554604051635dc189e160e11b815287939173__$75df3f6366b0557754cd3ba14359105414$__906001600160a01b0316602083600481845afa92831561053d578693610548575b50916020600493604051948580926305e1621360e21b82525afa92831561053d5786936104fd575b5060028801546001600160a01b031691803b156104f957869460a493670de0b6b3a7640000604051988997889663d3b9cb1560e01b8852600488015260018060a01b03166024870152046044850152606484015260848301525af480156104ee576104d6575b505060807f22e28f14941a8f9d89c3ee26b19498784e5ae277784b2f56a813ecdb41611c659160088401549360018060a01b036006820154169554915490600560018060a01b0360048301541691015491604051938452602084015260408301526060820152a36001805580f35b6104df906137a1565b6104ea578338610468565b8380fd5b6040513d84823e3d90fd5b8680fd5b9092506020813d602011610535575b8161051960209383613806565b810103126105315761052a90613b7b565b9138610402565b8580fd5b3d915061050c565b6040513d88823e3d90fd5b92506020833d602011610575575b8161056360209383613806565b810103126105315791519160206103da565b3d9150610556565b604051630a77254f60e01b8152600490fd5b634e487b7160e01b87526011600452602487fd5b604051631550e8b760e01b8152600490fd5b818192939450028281048214831517156105ee5780936105d85704143880610371565b634e487b7160e01b600052601260045260246000fd5b634e487b7160e01b600052601160045260246000fd5b73__$52ea7cf0c9ae2adbe7796b4f32fb3f8ca1$__3b1561067d57846040516326d1999160e11b81528460048201526044356024820152818160448173__$52ea7cf0c9ae2adbe7796b4f32fb3f8ca1$__5af480156104ee57610669575b5050610361565b610672906137a1565b61067d578438610662565b8480fd5b60d3546001600160a01b031673__$52ea7cf0c9ae2adbe7796b4f32fb3f8ca1$__3b1561070b5760405191630658598b60e51b83528560048401526024356024840152151560448301526064820152818160848173__$52ea7cf0c9ae2adbe7796b4f32fb3f8ca1$__5af480156104ee571561034f57610700906137a1565b6104ea57833861034f565b8280fd5b610718906137a1565b6104ea57833861033e565b600080fd5b9092506020813d602011610764575b8161074460209383613806565b810103126104ea57516001600160a01b03811681036104ea579138610264565b3d9150610737565b6040513d86823e3d90fd5b6020600491604051928380926308bcf8b560e21b82525afa90811561076c5784916107bb575b50156107a9573861022e565b60405163d42bba7f60e01b8152600490fd5b90506020813d6020116107ed575b816107d660209383613806565b810103126104ea576107e790613b0e565b3861079d565b3d91506107c9565b60405163014d683360e41b8152600490fd5b6040516333df015b60e01b8152600490fd5b90506020813d60201161084f575b8161083460209383613806565b8101031261084b5761084590613b0e565b386101f0565b5080fd5b3d9150610827565b80fd5b50346108575760208060031936011261084b576004356001600160401b038082116104ea57366023830112156104ea5781600401359081116104ea573660248260051b840101116104ea57835b8181106108b2578480f35b6108c08183602486016140a0565b35855260cb8452604085205460c95415610b08576108dd90613cf4565b509060018060a01b0380835416801591600885015490610901858860248b016140a0565b35821480610a83575b610922575b5050505061091d9150613ce5565b6108a7565b8989826006890154169486600014610a2957604051610940816137eb565b838152965b156109ac5750509261091d9692600080516020614cdb8339815191526109a3969361099e965b610996826001890154169260098901549060028a01541660038a015491604051958695339b87613f86565b0390a4613fd8565b614624565b3880808061090f565b906004959296939894916040519687809263011ddaef60e71b82525afa94851561053d578861091d9961099e97600080516020614cdb833981519152938f6109a39b926109fc575b50501661096b565b610a1b9250803d10610a22575b610a138183613806565b810190613f67565b388f6109f4565b503d610a09565b6040516306fdde0360e01b815291508282600481845afa8015610a78578c928491610a56575b5096610945565b610a7291503d8086833e610a6a8183613806565b810190613f31565b38610a4f565b6040513d85823e3d90fd5b5060078601544210158061090a57508315801561090a5750604051634db1160160e11b81528981600481875afa908115610afd578b91610ac4575b5061090a565b90508981813d8311610af6575b610adb8183613806565b81010312610af257610aec90613b0e565b38610abe565b8a80fd5b503d610ad1565b6040513d8d823e3d90fd5b508480f35b50346108575760208060031936011261084b57600435825260d1815260408220805490610b39826138dd565b93610b476040519586613806565b828552908152828120838086015b848410610b735760405182815280610b6f8185018a61386f565b0390f35b600191600291604051610b8581613786565b85548152604051610ba381610b9c81898b016136f0565b0382613806565b838201528152019201920191908490610b55565b5034610857576020366003190112610857576020906040906001600160a01b03610bdf61362c565b16815260cd83522054604051908152f35b503461085757602036600319011261085757610c0a6142a0565b50610b6f610c22610c1c600435613cf4565b50613fd8565b6040519182916020835260208301906139fa565b50346108575760208060031936011261084b576001600160a01b03610c5961362c565b169182815260cf91828152604082205492610c7384614307565b94835b858110610c8b5760405180610b6f8982613aac565b610cda90828652838552610ca28160408820613656565b90549060031b1c865260cb8552610cbf610c1c6040882054613cf4565b610cc9828a614357565b52610cd48189614357565b50613ce5565b610c76565b503461085757602036600319011261085757600435610cfc6142a0565b5080825260cb602052806008610d156040852054613cf4565b50015403610d3857610c1c604083610c2293610b6f955260cb6020522054613cf4565b60405163d5516fcd60e01b8152600490fd5b50346108575760208060031936011261084b576001600160a01b03610d6d61362c565b169182815260cd91828152604082205492610d8784614307565b94835b858110610d9f5760405180610b6f8982613aac565b610db690828652838552610ca28160408820613656565b610d8a565b50346108575760c036600319011261085757610dd561362c565b6001600160a01b03906024908135838116908190036107235760443590848216809203610723576064358581168091036104f957608435928684168094036107235760a435928784168094036107235788549760ff8960081c16159687809861125a575b8015611243575b156111e85760ff198a81166001178c5599886111d7575b5016936040516301ffc9a760e01b98898252637965db0b60e01b60048301528b60209a8b8484818c5afa9384156104ee578c929461119f575b5083611135575b836110cb575b83611061575b83610ff3575b83610f8b575b50505015610f79576001600160601b0360a01b948560d254161760d2558460d754161760d7558360d454161760d4558260d554161760d5558160d354161760d35560d654161760d655610f3a84549360ff8560081c1690610f0f82613b1b565b610f1882613b1b565b60655416606555610f2881613b1b565b610f3181613b1b565b60018055613b1b565b610f42578280f35b7f7f26b83ff96e1f2b6a682f133852f6798a09c465da95921460cefb38474024989161ff001916835560405160018152a138808280f35b60405163044aa57560e41b8152600490fd5b604051908152633df6cef760e01b6004820152925090829081855afa908115610afd578b91610fbe575b50388981610eaf565b90508881813d8311610fec575b610fd58183613806565b81010312610af257610fe690613b0e565b38610fb5565b503d610fcb565b9250508b604051838152631c94d2c560e01b60048201528b8184818d5afa9081156104ee578c9291611027575b5092610ea9565b82819392503d831161105a575b61103e8183613806565b81010312611056576110508b91613b0e565b38611020565b8c80fd5b503d611034565b9250508b6040518381526312b3ed2b60e01b60048201528b8184818b5afa9081156104ee578c9291611095575b5092610ea3565b82819392503d83116110c4575b6110ac8183613806565b81010312611056576110be8b91613b0e565b3861108e565b503d6110a2565b9250508b6040518381526306cc15a560e11b60048201528b8184818a5afa9081156104ee578c92916110ff575b5092610e9d565b82819392503d831161112e575b6111168183613806565b81010312611056576111288b91613b0e565b386110f8565b503d61110c565b9250508b60405183815263fa6ab0ef60e01b60048201528b818481895afa9081156104ee578c9291611169575b5092610e97565b82819392503d8311611198575b6111808183613806565b81010312611056576111928b91613b0e565b38611162565b503d611176565b8281939295503d83116111d0575b6111b78183613806565b81010312611056576111c98b91613b0e565b9238610e90565b503d6111ad565b61ffff1916610101178b5538610e57565b60405162461bcd60e51b815260206004820152602e818b01527f496e697469616c697a61626c653a20636f6e747261637420697320616c72656160448201526d191e481a5b9a5d1a585b1a5e995960921b6064820152608490fd5b50303b158015610e405750600160ff8b1614610e40565b50600160ff8b1610610e39565b5034610857576020366003190112610857576020906040906001600160a01b0361128f61362c565b16815260cf83522054604051908152f35b5034610857576020366003190112610857576040602091600435815260ce83522054604051908152f35b5034610857576020366003190112610857576001600160401b03600435116108575760c0600435360360031901126108575760043560040135815260cb602052604081205460c95415159081611d91575b5015610d3857611329613edb565b60d754604051630723eb0360e51b815233600482015290602090829060249082906001600160a01b03165afa9081156104ee578291611d57575b5061080757611370613e97565b5a9060043560040135815260d06020526040812054602460043501351015611d455760043560040135815260cb6020526113ad6040822054613cf4565b506007810154421015611d335780546001600160a01b031680611c4a575b506001600160a01b036113e260043560a4016140ca565b1615611c38576008810154825260d1602052604080832060d55460d35460d45460d654945163153e85cd60e01b8152600480820188905260e06024808401919091528135918201803560e4850152908201356101048401529197966001600160a01b039081169689969095948216948216939116916114d1916114aa91611483916114709160440190613bc6565b60c06101248b01526101a48a0191613bf7565b611497606460043501600435600401613c25565b89830360e319016101448b0152906140de565b6114be608460043501600435600401613c25565b88830360e319016101648a0152906140de565b6001600160a01b036114e760043560a401613642565b166101848701526003198682030160448701528454808252602082019160208260051b820101968c5260208c20928c915b838310611bf05750505050509160e095918594936064860152608485015260a484015260c4830152038173__$52ea7cf0c9ae2adbe7796b4f32fb3f8ca1$__5af4918215610a78578392611b42575b5060043560040135835260d0602052611589602460043501356040852061369a565b5060018060a01b0360d45416602082546024604051809481936352ff146960e11b835260048301525afa908115611b37578591611af8575b50600160209160043560040135875260cb835261162c6115e46040892054613cf4565b506116516115fc604460043501600435600401613dfc565b919060c08b01519261163f6040519a8b998a9889986301f24f2560e11b8a52608060048b015260848a01906141ef565b8881036003190160248a015291016136f0565b85810360031901604487015291613bf7565b606483019190915203916001600160a01b03165afa90811561076c578491611abe575b5015611aac57805460068201546001600160a01b03918216911661169c60043560a4016140ca565b916080850151926004841015611a985760a086015182611a365790600080516020614cdb833981519152916040516116d3816137eb565b898152935b611a255788935b60018060a01b0360018901541660098901549061172760018060a01b0360028c0154169360038c0154956040519b8c5260208c015261010060408c01526101008b019061384a565b9660018060a01b031660608a0152608089015260a088015260c087015260e086015260018060a01b0316938060043560040135930390a461177761177242600c840154141592613fd8565b614971565b611784575b506001805580f35b60d554604051637496a94d60e11b81529190602090839060049082906001600160a01b03165afa918215610a785783926119e1575b506117c860a4600435016140ca565b93606060018060a01b03602084015116920151905a81039081116105ee57604051916117f3836137eb565b858352611858611864611810606460043501600435600401613dc7565b611827608460049593953501600435600401613dc7565b6118446040949294519687946040602087015260608601916140de565b90601f1994858584030160408601526140de565b03908101835282613806565b519360405197886101008101106001600160401b036101008b0111176119cb57610100890160405260018060a01b03168852602088015260408701528460608701526001608087015260a086015260c085015260e084015260018060a01b0381163b1561084b57604080516350b29c5560e11b815260206004820181905285516001600160a01b0390811660248401529086015116604482015290840151606482015260608401516101248201949192919060058110156119b7576084840152608081015160a484015260a081015160c484015260c081015161010060e4850152805195869052919461014484019260200190855b8181106119a1575050508394838581819560e082960151610104830152039260018060a01b03165af180156104ee571561177c57611996906137a1565b61085757803861177c565b8251855260209485019490920191600101611959565b634e487b7160e01b85526021600452602485fd5b634e487b7160e01b600052604160045260246000fd5b9091506020813d602011611a1d575b816119fd60209383613806565b8101031261070b57516001600160a01b038116810361070b5790386117b9565b3d91506119f0565b87516001600160a01b0316936116df565b6040516306fdde0360e01b81528881600481875afa908115611a8d5790600080516020614cdb8339815191529392918a91611a73575b50936116d8565b611a8791503d808c833e610a6a8183613806565b38611a6c565b6040513d8b823e3d90fd5b634e487b7160e01b87526021600452602487fd5b604051635745ee4960e01b8152600490fd5b90506020813d602011611af0575b81611ad960209383613806565b810103126104ea57611aea90613b0e565b38611674565b3d9150611acc565b90506020813d602011611b2f575b81611b1360209383613806565b8101031261067d576001611b28602092613b7b565b91506115c1565b3d9150611b06565b6040513d87823e3d90fd5b90915060e0813d60e011611be8575b81611b5e60e09383613806565b8101031261070b57604051908160e08101106001600160401b0360e0840111176119cb5760e08201604052611b9281613b7b565b8252611ba060208201613b7b565b602083015260408101516040830152606081015160608301526080810151600481101561067d579060c091608084015260a081015160a0840152015160c08201529038611567565b3d9150611b51565b9193999850919394959660206002611c228c600160408196601f19898203018a528354815281878201520191016136f0565b9b019301930190928b9899979695949293611518565b604051639783f5bd60e01b8152600490fd5b6040516308bcf8b560e21b8152602081600481855afa90811561076c578491611cf9575b50156107a957604060018060a01b03600184015416602482518094819363a4c1cccb60e01b835260048301525afa908115610a78578391611cc8575b5015611cb657386113cb565b60405163b7addff360e01b8152600490fd5b611cea915060403d604011611cf2575b611ce28183613806565b8101906140b0565b905038611caa565b503d611cd8565b90506020813d602011611d2b575b81611d1460209383613806565b810103126104ea57611d2590613b0e565b38611c6e565b3d9150611d07565b60405163065445df60e51b8152600490fd5b6040516316f5923f60e31b8152600490fd5b90506020813d602011611d89575b81611d7260209383613806565b8101031261084b57611d8390613b0e565b38611363565b3d9150611d65565b611d9b9150613cf4565b5060080154600480350135143861131b565b50346108575760208060031936011261084b576004359081835260cb815260408320548260c95415159182611fb0575b505015610d3857611dec613edb565b60d754604051630723eb0360e51b81523360048201526001600160a01b039183908290602490829086165afa908115611b37578591611f7b575b506108075782845260cb8252611e3f6040852054613cf4565b509281600685015416918233036107f55784548116801594908515611f3757604051611e6a816137eb565b888152955b15611ec35750509161099e9391600080516020614cdb833981519152611ebc969488610996826001890154169260098901549060028a01541660038a015491604051958695339b87613f86565b6001805580f35b81600491604098969497959398519283809263011ddaef60e71b82525afa958615611f2c578061099e97600080516020614cdb83398151915293611ebc9a8c92611f0f5750501661096b565b611f259250803d10610a2257610a138183613806565b38806109f4565b6040513d8a823e3d90fd5b6040516306fdde0360e01b81528881600481855afa908115611a8d578991611f61575b5095611e6f565b611f7591503d808b833e610a6a8183613806565b38611f5a565b90508281813d8311611fa9575b611f928183613806565b8101031261067d57611fa390613b0e565b38611e26565b503d611f88565b6008919250611fbe90613cf4565b500154148238611ddd565b5034610857576020366003190112610857576040602091600435815260cc83522054604051908152f35b503461085757806003193601126108575760d3546040516001600160a01b039091168152602090f35b503461085757806003193601126108575760d5546040516001600160a01b039091168152602090f35b503461085757806003193601126108575760d254604051632474521560e21b81527f5c91514091af31f62f596a314af7d5be40146b2f2355969392f055e12e0982fb600482015233602482015290602090829060449082906001600160a01b03165afa9081156104ee578291612110575b50156120fe576120c4613e97565b600160ff1960655416176065557f62e78cea01bee320cd4e420270b5ea74000d11b0c9f74754ebdbfc544b05a2586020604051338152a180f35b60405163036be76f60e61b8152600490fd5b90506020813d8211612141575b8161212a60209383613806565b8101031261084b5761213b90613b0e565b386120b6565b3d915061211d565b50346108575761215836613684565b9190815260d16020526040812090815483101561085757600161217b848461369a565b5061219981549161219260405180958193016136f0565b0383613806565b610b6f604051928392835260406020840152604083019061384a565b503461085757806003193601126108575760d2546040516001600160a01b039091168152602090f35b506020366003190112610857576004356001600160401b03811161084b57610180600319823603011261084b57612213613edb565b60d754604051630723eb0360e51b815233600482015290602090829060249082906001600160a01b03165afa908115610a78578391612b5e575b506108075761225a613e97565b60d55460d35460d454604051634f10664360e11b815260806004808301919091529094936001600160a01b03908116939281169287928792839216906122a290880180613bc6565b6084840161018090526102048401906122ba92613bf7565b602488013560a4840152946001600160a01b036122d960448a01613642565b1660c48401526001600160a01b036122f360648a01613642565b1660e48401526101049160848901358385015260a4890161231390613c18565b151597610124988986015260c48a0161232b90613c18565b15159761014498898701526101649460e48c0135868801528b0161234e90613c18565b15156101848701526123658b8b0160048d01613c25565b916083199283898303016101a48a015261237e92613c6d565b61238d8c8b0160048e01613c25565b9092888303016101c48901526123a292613c6d565b938a016123ae90613c18565b15156101e4860152602485015260448401526064830152038173__$52ea7cf0c9ae2adbe7796b4f32fb3f8ca1$__5af4938415611b375785946129fc575b506123f860ca54613ce5565b8060ca5561010085015260c954600160401b8110156129e857806001612421920160c955613cf4565b6129d457845181546001600160a01b039182166001600160a01b03199182161783556020870151600184018054918416918316919091179055604087015160028401805491841691831691909117905560608701516003840155608087015160048401805491841691831691909117905560a0870151600584015560c087015160068401805491909316911617905560e0850151600782015561010085015160088201556101208501516009820155610140850151600a8201805460ff191691151560ff16919091179055610160850151600b820155610180850151600c8201556101a08501518051906001600160401b0382116129c0576125338261252a600d8601546136b6565b600d8601613d46565b602090601f831160011461295357600d9291899183612948575b50508160011b916000199060031b1c1916179101555b60c9548060001981011161293457610100850151865260cb60205260001901604086205560018060a01b0360c085015116855260cd6020526125ae6040862061010086015190613d8b565b60c08401516001600160a01b0316855260cd60205260408520546000198101811061293457610100850151865260cc60205260001901604086205560018060a01b03845116855260cf60205261260d6040862061010086015190613d8b565b83516001600160a01b0316855260cf602052604085205460001981018110612934579061265591610100860151875260ce602052600019016040872055830183600401613dc7565b60d4549091906001600160a01b031673__$52ea7cf0c9ae2adbe7796b4f32fb3f8ca1$__3b156104f9579186926040519263226af0f360e01b8452608060048501526126a460848501896139fa565b9260d16024860152600319858503016044860152808452602084019360208260051b82010194836000925b8484106128f55750505050505082849281926064830152038173__$52ea7cf0c9ae2adbe7796b4f32fb3f8ca1$__5af480156104ee576128e1575b505061271b90820182600401613dc7565b60d4549091906001600160a01b031673__$52ea7cf0c9ae2adbe7796b4f32fb3f8ca1$__3b156105315791859260405192630f703ee360e31b84526080600485015261276a60848501886139fa565b9260d06024860152600319858503016044860152808452602084019360208260051b82010194836000925b8484106128865750505050505082849281926064830152038173__$52ea7cf0c9ae2adbe7796b4f32fb3f8ca1$__5af480156104ee57612872575b506127e091600401905080613dfc565b50506101008101517f08718d7f9294b21cbcc13bfca0a165339c7bd7276c02aa2675c0795fbfd9452561284c60018060a01b0360c0850151169360ca54865260d06020526128686040872060d160205261285a60408920916040519586956060875260608701906139fa565b908582036020870152613e2e565b908382036040850152613e2e565b0390a36001805580f35b61287b906137a1565b61070b5782386127d0565b919395968598995060206128cd819260406128be6128b1600197999b601f198a8603018c528a613c59565b8035845285810190613bc6565b91909281868201520191613bf7565b990194019401918b98979695939491612795565b6128ea906137a1565b6104ea57833861270a565b91939596859899506020612920819260406128be6128b1600197999b601f198a8603018c528a613c59565b990194019401918c989796959394916126cf565b634e487b7160e01b86526011600452602486fd5b01519050388061254d565b90600d840189526020892091895b601f19851681106129a85750918391600193600d95601f1981161061298f575b505050811b01910155612563565b015160001960f88460031b161c19169055388080612981565b91926020600181928685015181550194019201612961565b634e487b7160e01b88526041600452602488fd5b634e487b7160e01b86526004869052602486fd5b634e487b7160e01b86526041600452602486fd5b9093503d8086833e612a0e8183613806565b60208282810103126105315781516001600160401b0381116104f9576101c081840183850103126104f95760405192612a46846137b4565b808201516001600160a01b0381168103612b5a578452612a6a602083830101613b7b565b6020850152612a7d604083830101613b7b565b6040850152606082820101516060850152612a9c608083830101613b7b565b608085015260a0828201015160a0850152612abb60c083830101613b7b565b60c085015280820160e081810151908601526101008082015190860152610120808201519086015261014090612af2908201613b0e565b90850152808201610160818101519086015261018080820151908601526101a00151926001600160401b038411612b5a57808201601f8585850101011215612b5a57612b4d9360209183019381818501015193010101613b8f565b6101a082015292386123ec565b8880fd5b90506020813d602011612b90575b81612b7960209383613806565b8101031261070b57612b8a90613b0e565b3861224d565b3d9150612b6c565b503461085757604036600319011261085757612bb261362c565b6001600160a01b0316815260cf6020526040812080546024359290831015610857576020612be08484613656565b90546040519160031b1c8152f35b5034610857576060366003190112610857576044356001600160401b03918282116108575736602383011215610857578160040135928311610857573660248484010111610857576020612c4b846024850160243560043561436b565b6040519015158152f35b503461085757806003193601126108575760d6546040516001600160a01b039091168152602090f35b5034610857576020366003190112610857576004356001600160401b0380821161070b576060600319833603011261070b576040519160608301838110838211176131b05760405280600401358352602481013582811161067d57612ce9906004369184010161390f565b602084015260448101359182116104ea576004612d09923692010161390f565b6040820152612d16613edb565b60d754604051630723eb0360e51b815233600482015290602090829060249082906001600160a01b03165afa908115610a78578391613176575b50610807578051825260cb602052612d6b6040832054613cf4565b506006810180549091906001600160a01b031633036107f55780546001600160a01b03168061310a575b506040830151604051612dc681612db8602082019460208652604083019061386f565b03601f198101835282613806565b51902060088201908154865260d160205260408620604051612df881612db86020820194602086526040830190613e2e565b51902003612fe6575b6020840151604051612e2381612db8602082019460208652604083019061386f565b5190209054855260d060205260408520604051612e5081612db86020820194602086526040830190613e2e565b51902003612ebb575b507fa8b27bffdacaa4db21058695f3dbf1a56df849ef23906c118644f2e46ba1cf1f612ead83519260018060a01b03905416936128686040602083015192015160405193849360408552604085019061386f565b90838203602085015261386f565b612ec481613fd8565b602084015160d4546001600160a01b031673__$52ea7cf0c9ae2adbe7796b4f32fb3f8ca1$__3b156104f95790869291612f1660405193630f703ee360e31b85526080600486015260848501906139fa565b60d06024850152600319848203016044850152825180825260208201916020808360051b8301019501926000915b838310612fa057505050505082849281926064830152038173__$52ea7cf0c9ae2adbe7796b4f32fb3f8ca1$__5af480156104ee57612f8c575b5050600c4291015538612e59565b612f95906137a1565b6104ea578338612f7e565b9193969750919394602080612fd2600193601f198682030187526040838c51805184520151918185820152019061384a565b98019301930190928b979695949293612f44565b612fef82613fd8565b604085015160d4546001600160a01b031673__$52ea7cf0c9ae2adbe7796b4f32fb3f8ca1$__3b15613106579061304392889160405194859263226af0f360e01b84526080600485015260848401906139fa565b9360d16024840152600319838603016044840152815180865260208601956020808360051b83010194019686915b8383106130c25750505050829394506064830152038173__$52ea7cf0c9ae2adbe7796b4f32fb3f8ca1$__5af4801561053d576130af575b50612e01565b6130bb909591956137a1565b93386130a9565b929550929550926020806130f3600193601f198682030187526040838c51805184520151918185820152019061384a565b9801930193018c95929693889592613071565b8780fd5b6020600491604051928380926308bcf8b560e21b82525afa908115611b3757859161313c575b50156107a95738612d95565b90506020813d60201161316e575b8161315760209383613806565b8101031261067d5761316890613b0e565b38613130565b3d915061314a565b90506020813d6020116131a8575b8161319160209383613806565b8101031261070b576131a290613b0e565b38612d50565b3d9150613184565b634e487b7160e01b85526041600452602485fd5b5034610857578060031936011261085757602060ff606554166040519015158152f35b50346108575760208060031936011261084b57600435825260d0815260408220805490613213826138dd565b936132216040519586613806565b828552908152828120838086015b8484106132495760405182815280610b6f8185018a61386f565b60019160029160405161325b81613786565b8554815260405161327281610b9c81898b016136f0565b83820152815201920192019190849061322f565b5034610857576020366003190112610857576040602091600435815260cb83522054604051908152f35b503461085757806003193601126108575760d254604051632474521560e21b81527f5a7d4408f4759dddd7fdfd0d21abd99341dc2f52cda14804988a9b2df20766d860048201523360248201526020918290829060449082906001600160a01b03165afa908115610a785783916133a4575b50156120fe5760655460ff8116156133685760ff19166065556040513381527f5db9ee0a495bf2e6ff9c91a7834c1ba4fdd244a5e8aa4e537bd38aeae4b073aa9190a180f35b60405162461bcd60e51b815260048101839052601460248201527314185d5cd8589b194e881b9bdd081c185d5cd95960621b6044820152606490fd5b90508181813d83116133d2575b6133bb8183613806565b8101031261070b576133cc90613b0e565b38613322565b503d6133b1565b503461085757806003193601126108575760d4546040516001600160a01b039091168152602090f35b5034610857578060031936011261085757602060ca54604051908152f35b50346108575760208060031936011261084b5761343b61362c565b60d254604051632474521560e21b8152600481018590523360248201526001600160a01b03929184908290604490829087165afa908115611b3757859161350a575b50156120fe576040516301ffc9a760e01b8152631c94d2c560e01b6004820152911691908181602481865afa91821561076c5784926134d4575b505015610f79576001600160601b0360a01b60d654161760d65580f35b90809250813d8311613503575b6134eb8183613806565b8101031261070b576134fc90613b0e565b38806134b7565b503d6134e1565b90508381813d8311613538575b6135218183613806565b8101031261067d5761353290613b0e565b3861347d565b503d613517565b50346108575761354e36613684565b9190815260d06020526040812090815483101561085757600161217b848461369a565b50346108575760403660031901126108575761358b61362c565b6001600160a01b0316815260cd6020526040812080546024359290831015610857576020612be08484613656565b5034610857578060031936011261085757602060c954604051908152f35b90503461084b57602036600319011261084b5760043563ffffffff60e01b811680910361070b57602092506332ed0a6160e11b811490811561361b575b5015158152f35b6301ffc9a760e01b14905038613614565b600435906001600160a01b038216820361072357565b35906001600160a01b038216820361072357565b805482101561366e5760005260206000200190600090565b634e487b7160e01b600052603260045260246000fd5b6040906003190112610723576004359060243590565b805482101561366e5760005260206000209060011b0190600090565b90600182811c921680156136e6575b60208310146136d057565b634e487b7160e01b600052602260045260246000fd5b91607f16916136c5565b9060009291805491613701836136b6565b9182825260019384811690816000146137635750600114613723575b50505050565b90919394506000526020928360002092846000945b83861061374f57505050500101903880808061371d565b805485870183015294019385908201613738565b9294505050602093945060ff191683830152151560051b0101903880808061371d565b604081019081106001600160401b038211176119cb57604052565b6001600160401b0381116119cb57604052565b6101c081019081106001600160401b038211176119cb57604052565b608081019081106001600160401b038211176119cb57604052565b602081019081106001600160401b038211176119cb57604052565b90601f801991011681019081106001600160401b038211176119cb57604052565b60005b83811061383a5750506000910152565b818101518382015260200161382a565b9060209161386381518092818552858086019101613827565b601f01601f1916010190565b908082519081815260208091019281808460051b8301019501936000915b84831061389d5750505050505090565b90919293949584806138cd600193601f19868203018752828b51805183520151906040908185820152019061384a565b980193019301919493929061388d565b6001600160401b0381116119cb5760051b60200190565b6001600160401b0381116119cb57601f01601f191660200190565b81601f8201121561072357803591613926836138dd565b9260409061393682519586613806565b808552602093848087019260051b8201019380851161072357858201925b858410613965575050505050505090565b6001600160401b039084358281116107235784019186601f1984860301126107235786519261399384613786565b8981013584528781013591821161072357019083603f830112156107235788820135926139bf846138f4565b6139cb89519182613806565b848152858986860101116107235760008b8681978c839801838601378301015283820152815201930192613954565b90613aa99160018060a01b038082511683528060208301511660208401528060408301511660408401526060820151606084015280608083015116608084015260a082015160a084015260c08201511660c083015260e081015160e08301526101008082015190830152610120808201519083015261014080820151151590830152610160808201519083015261018080820151908301526101a080910151916101c08092820152019061384a565b90565b602080820190808352835180925260408301928160408460051b8301019501936000915b848310613ae05750505050505090565b9091929394958480613afe600193603f198682030187528a516139fa565b9801930193019194939290613ad0565b5190811515820361072357565b15613b2257565b60405162461bcd60e51b815260206004820152602b60248201527f496e697469616c697a61626c653a20636f6e7472616374206973206e6f74206960448201526a6e697469616c697a696e6760a81b6064820152608490fd5b51906001600160a01b038216820361072357565b90929192613b9c816138f4565b91613baa6040519384613806565b829482845282820111610723576020613bc4930190613827565b565b9035601e19823603018112156107235701602081359101916001600160401b03821161072357813603831361072357565b908060209392818452848401376000828201840152601f01601f1916010190565b3590811515820361072357565b9035601e19823603018112156107235701602081359101916001600160401b038211610723578160051b3603831361072357565b9035603e1982360301811215610723570190565b90808352602080930192838260051b810194846000925b858410613c95575050505050505090565b909192939495968580613cd48385600195038852613cc3613cb68d89613c59565b8035835284810190613bc6565b909160409081868201520191613bf7565b990194019401929594939190613c84565b60001981146105ee5760010190565b60c95481101561366e57600e9060c9600052027f66be4f155c5ef2ebd3772b228f2f00681e4ed5826cdb3b1943cc11ad15ad1d280190600090565b818110613d3a575050565b60008155600101613d2f565b9190601f8111613d5557505050565b613bc4926000526020600020906020601f840160051c83019310613d81575b601f0160051c0190613d2f565b9091508190613d74565b90815491600160401b8310156119cb5782613dae916001613bc495018155613656565b90919082549060031b91821b91600019901b1916179055565b903590601e198136030182121561072357018035906001600160401b03821161072357602001918160051b3603831361072357565b903590601e198136030182121561072357018035906001600160401b0382116107235760200191813603831361072357565b908154808252602080920191828260051b81019460005281600020936000915b848310613e5e5750505050505090565b909192939495846002613e8783856001950387528a548152604090818582015201848b016136f0565b9801930193019194939290613e4e565b60ff60655416613ea357565b60405162461bcd60e51b815260206004820152601060248201526f14185d5cd8589b194e881c185d5cd95960821b6044820152606490fd5b600260015414613eec576002600155565b60405162461bcd60e51b815260206004820152601f60248201527f5265656e7472616e637947756172643a207265656e7472616e742063616c6c006044820152606490fd5b602081830312610723578051906001600160401b03821161072357019080601f83011215610723578151613aa992602001613b8f565b9081602091031261072357516001600160a01b03811681036107235790565b92919695949093613faf60e095600386526000602087015261010080604088015286019061384a565b6001600160a01b039889166060860152928816608085015260a084015290951660c08201520152565b90600d6101a0604051613fea816137b4565b61409c819560018060a01b0380825416845280600183015416602085015280600283015416604085015260038201546060850152806004830154166080850152600582015460a085015260068201541660c0840152600781015460e08401526008810154610100840152600981015461012084015260ff600a820154161515610140840152600b810154610160840152600c81015461018084015261409560405180968193016136f0565b0384613806565b0152565b919081101561366e5760051b0190565b919082604091031261072357613aa9602083519301613b0e565b356001600160a01b03811681036107235790565b9190818181526020809101926005938284861b83010195809560009182945b8786106141105750505050505050505090565b90919293949596979998601f1982820301865261412d8b84613c59565b9060409061414582820193803583528b810190613c25565b809194848d850152526060918281019282891b8201019480948a915b84831061418a575050505050505087806001929c9b9c9b019601960194979695939291906140fd565b909192939495968e806141e0600193605f19898203018b526141ac8c87613c59565b906141d36141c96141bd8480613bc6565b8b85528b850191613bf7565b9285810190613bc6565b9185818503910152613bf7565b99019701959493019190614161565b80546001600160a01b03908116835260018201548116602084015260028201548116604084015260038201546060840152600482015481166080840152600582015460a084015260068201541660c0830152600781015460e083015260088101546101008301526009810154610120830152600a81015460ff161515610140830152600b810154610160830152600c8101546101808301526101c06101a08301819052613aa9920190600d016136f0565b604051906142ad826137b4565b60606101a083600080825280602083015280604083015280848301528060808301528060a08301528060c08301528060e0830152806101008301528061012083015280610140830152806101608301526101808201520152565b90614311826138dd565b61431e6040519182613806565b828152809261432f601f19916138dd565b019060005b82811061434057505050565b60209061434b6142a0565b82828501015201614334565b805182101561366e5760209160051b010190565b909260009180835260209160d08352604095868520548110156146135761439b9083865260d0855287862061369a565b509082855260cb84526143b087862054613cf4565b50906007820154421161459e5781546001600160a01b039290831690839082614532575b50905060d454169285815460248b51809781936352ff146960e11b835260048301525afa938415614528579186949391889384956144d8575b509061447a84939261446b9798614455965260cb895261442f8d862054613cf4565b508d51633fa1ee4760e11b8152606060048201529c8d998a9889969360648801906141ef565b600160031995868984030160248a0152016136f0565b92858403016044860152613bf7565b0393165af19384156144cd57508193614494575b50505090565b9091809350813d83116144c6575b6144ac8183613806565b8101031261085757506144be90613b0e565b38808061448e565b503d6144a2565b51913d9150823e3d90fd5b9295919450925081813d8111614521575b6144f38183613806565b810103126104f95761446b9386959361447a614455946145138b95613b7b565b96989750919293945061440d565b503d6144e9565b89513d89823e3d90fd5b600101548a5163a4c1cccb60e01b8152911660048201528981602481855afa9081156145e757879089926145f1575b508a516308bcf8b560e21b81529192829060049082905afa9081156145e75788916145b2575b50159081156145a9575b5061459e573882816143d4565b505050505091505090565b90501538614591565b90508681813d83116145e0575b6145c98183613806565b81010312613106576145da90613b0e565b38614587565b503d6145bf565b8a513d8a823e3d90fd5b6004925061460b908c8d3d10611cf257611ce28183613806565b905091614561565b86516316f5923f60e31b8152600490fd5b60d35460009060018060a01b038091169060c0840181815116604093838588015116606088015190865193614658856137d0565b8085526020850152868401526060830152803b1561053157845163a0fd10ad60e01b80825283516001600160a01b039081166004840152602085015181166024840152604085015116604483015260609093015160648201529086908290608490829084905af1801561479657614783575b50828060d354169251169260808701511660a0870151908551946146ed866137d0565b8086526020860152858501526060840152813b1561067d57835190815282516001600160a01b0390811660048301526020840151811660248301526040840151166044820152606090920151606483015290919083908390608490829084905af190811561477a5750614766575b5050613bc490614971565b61477082916137a1565b610857578061475b565b513d84823e3d90fd5b61478f909591956137a1565b93386146ca565b85513d88823e3d90fd5b6147aa81546136b6565b90816147b4575050565b81601f600093116001146147c6575055565b9080839182526147e5601f60208420940160051c840160018501613d2f565b5555565b8054600091828155816147fb57505050565b6001600160ff1b038216820361483f5782526020822091600191821b8301925b8381106148285750505050565b8082600292556148398482016147a0565b0161481b565b634e487b7160e01b83526011600452602483fd5b805490811561487d576000199182019161486d8383613656565b909182549160031b1b1916905555565b634e487b7160e01b600052603160045260246000fd5b9080821461496d576148a581546136b6565b906001600160401b0382116119cb5781906148ca826148c486546136b6565b86613d46565b600090601f8311600114614901576000926148f6575b50508160011b916000199060031b1c1916179055565b0154905038806148e0565b81526020808220858352818320935090601f1985169083905b82821061495457505090846001959493921061493b575b505050811b019055565b015460001960f88460031b161c19169055388080614931565b849581929585015481556001809101960194019061491a565b5050565b610100810190815191600092835260209060d082526040926149948486206147e9565b8151855260d183526149a78486206147e9565b80516001600160a01b03908116865260cf8452848620825182168752858720546000199391848201918211614cc65760c092916149e391613656565b90549060031b1c83825116895260cf8752614a1081613dae8a8c2089518d5260ce8b528b8d205490613656565b8551895260ce8752878920549089528789205582815116885260cf8652614a38878920614853565b8451885260ce865287878120550181815116875260cd85528587208282511688528688205490848201918211614cc657839291614a7491613656565b90549060031b1c82825116895260cd8752614aa181613dae8a8c2089518d5260cc8b528b8d205490613656565b8551895260cc875287892054908952878920555116865260cd8452614ac7858720614853565b8251865260cc8452858581205560c95482810190811161058f57614aea90613cf4565b508351875260cb8552614aff86882054613cf4565b919091614cb257808203614bd5575b5050508151855260cb83528385205460c95482810190811161058f57614b35600891613cf4565b500154865260cb84528486205560c9548015614bc15701614b5581613cf4565b6129d45790614bb5600d838860cb9796955588600182015588600282015588600382015588600482015588600582015588600682015588600782015588600882015588600982015588600a82015588600b82015588600c820155016147a0565b60c95551845252812055565b634e487b7160e01b86526031600452602486fd5b600d8184614caa95839454166001600160601b0360a01b90818754161786556001860182600185015416828254161790556002860182600285015416828254161790556003830154600387015560048601826004850154168282541617905560058301546005870155600686019160068401541690825416179055600781015460078501556008810154600885015560098101546009850155614c8e60ff600a83015416600a86019060ff801983541691151516179055565b600b810154600b850155600c810154600c850155019101614893565b388080614b0e565b634e487b7160e01b88526004889052602488fd5b634e487b7160e01b89526011600452602489fdfe288073495da2273b7902460b23ea23540d925931880b7ecc8ed6c7c6a5477e50a2646970667358221220249fc6cea1669b95f711e978ad3a4bf840257d95a9aa4bfadaf8189c5e1e166b64736f6c63430008120033",
  "libraries": {
    "PrimexPricingLibrary": "0xeFCDBbd36a9D77264d56F22e0E94f8D5F425f9b4",
    "TokenTransfersLibrary": "0x4FFa6c545a6249baF2D66ce21CeF3D2C2cCa69D0",
    "LimitOrderLibrary": "0xC015F00Cd03302A8Cc964BFCCF5F5663DCdD3Ea9",
    "Errors": "0x988288925196F0725268378d0C7c8aA0E50EB423"
  },
  "devdoc": {
    "events": {
      "Initialized(uint8)": {
        "details": "Triggered when the contract has been initialized or reinitialized."
      },
      "Paused(address)": {
        "details": "Emitted when the pause is triggered by `account`."
      },
      "Unpaused(address)": {
        "details": "Emitted when the pause is lifted by `account`."
      }
    },
    "kind": "dev",
    "methods": {
      "canBeFilled(uint256,uint256,bytes)": {
        "params": {
          "_additionalParams": "parameters needed for dex",
          "_conditionIndex": "index of condition in openConditions",
          "_orderId": "order id"
        }
      },
      "cancelExpiredLimitOrders(uint256[])": {
        "params": {
          "_orderIds": "The array of order IDs to remove."
        }
      },
      "cancelLimitOrder(uint256)": {
        "params": {
          "_orderId": "order id"
        }
      },
      "createLimitOrder((string,uint256,address,address,uint256,bool,bool,uint256,bool,(uint256,bytes)[],(uint256,bytes)[],bool))": {
        "details": "This function allows users to create a limit order and locks the deposit asset in the traderBalanceVault",
        "params": {
          "_params": "The parameters necessary to create limit order"
        }
      },
      "getBucketOrders(address)": {
        "params": {
          "_bucket": "The address of the bucket."
        },
        "returns": {
          "_0": "An array of LimitOrder structs representing the bucket's orders."
        }
      },
      "getBucketOrdersLength(address)": {
        "params": {
          "_bucket": "The address of the bucket."
        },
        "returns": {
          "_0": "The number of orders in the bucket."
        }
      },
      "getCloseConditions(uint256)": {
        "params": {
          "_orderId": "The ID of the order."
        },
        "returns": {
          "_0": "An array of Condition representing the close conditions."
        }
      },
      "getOpenConditions(uint256)": {
        "params": {
          "_orderId": "The ID of the order."
        },
        "returns": {
          "_0": "An array of Condition structs representing the open conditions."
        }
      },
      "getOrder(uint256)": {
        "params": {
          "_id": "The ID of the limit order to retrieve."
        },
        "returns": {
          "_0": "The LimitOrder struct representing the limit order."
        }
      },
      "getOrderByIndex(uint256)": {
        "params": {
          "_index": "The index of the limit order to retrieve."
        },
        "returns": {
          "_0": "The limit order at the specified index."
        }
      },
      "getTraderOrders(address)": {
        "params": {
          "_trader": "The address of the trader."
        },
        "returns": {
          "_0": "traderOrders An array of LimitOrder structures representing the orders placed by the trader."
        }
      },
      "getTraderOrdersLength(address)": {
        "params": {
          "_trader": "The address of the trader."
        },
        "returns": {
          "_0": "The length of the order array."
        }
      },
      "initialize(address,address,address,address,address,address)": {
        "params": {
          "_pm": "The address of the PositionManager contract.",
          "_primexDNS": "The address of the PrimexDNS contract.",
          "_registry": "The address of the Registry contract.",
          "_swapManager": "The address of the SwapManager contract.",
          "_traderBalanceVault": "The address of the TraderBalanceVault contract.",
          "_whiteBlackList": "The address of the WhiteBlacklist contract."
        }
      },
      "openPositionByOrder((uint256,uint256,bytes,(uint256,(string,bytes)[])[],(uint256,(string,bytes)[])[],address))": {
        "details": "This function is called to open a position based on the given order parameters.",
        "params": {
          "_params": "The OpenPositionParams struct containing the necessary parameters for opening the position."
        }
      },
      "pause()": {
        "details": "Triggers stopped state. This function can only be called by an address with the EMERGENCY_ADMIN role. Requirements: - The contract must not be paused."
      },
      "paused()": {
        "details": "Returns true if the contract is paused, and false otherwise."
      },
      "setSwapManager(address)": {
        "details": "Only callable by the BIG_TIMELOCK_ADMIN role.",
        "params": {
          "_swapManager": "Address of the new swapManager."
        }
      },
      "supportsInterface(bytes4)": {
        "params": {
          "_interfaceId": "The interface id to check"
        }
      },
      "unpause()": {
        "details": "Returns to normal state. This function can only be called by an address with the SMALL_TIMELOCK_ADMIN or MEDIUM_TIMELOCK_ADMIN role depending on the contract. Requirements: - The contract must be paused."
      },
      "updateOrder((uint256,uint256,uint256,bool,bool,bool))": {
        "details": "Edits prices on an existing order",
        "params": {
          "_params": "The parameters for updating the limit order."
        }
      },
      "updateOrderConditions((uint256,(uint256,bytes)[],(uint256,bytes)[]))": {
        "details": "Only the trader of the order can update the conditions.",
        "params": {
          "_params": "The parameters for updating the order conditions."
        }
      }
    },
    "version": 1
  },
  "userdoc": {
    "kind": "user",
    "methods": {
      "canBeFilled(uint256,uint256,bytes)": {
        "notice": "Returns true if current price >= limit price and block.timestamp <= deadline"
      },
      "cancelExpiredLimitOrders(uint256[])": {
        "notice": "Removes expired limit orders"
      },
      "cancelLimitOrder(uint256)": {
        "notice": "Cancels the order. Can only be called by the trader"
      },
      "createLimitOrder((string,uint256,address,address,uint256,bool,bool,uint256,bool,(uint256,bytes)[],(uint256,bytes)[],bool))": {
        "notice": "Creates a limit order."
      },
      "getBucketOrders(address)": {
        "notice": "Retrieves all limit orders associated with a given bucket."
      },
      "getBucketOrdersLength(address)": {
        "notice": "Returns the length of orders in a bucket."
      },
      "getCloseConditions(uint256)": {
        "notice": "Retrieves the close conditions associated with the given order ID."
      },
      "getOpenConditions(uint256)": {
        "notice": "Retrieves the open conditions associated with a given order ID."
      },
      "getOrder(uint256)": {
        "notice": "Retrieves the details of a limit order based on its ID."
      },
      "getOrderByIndex(uint256)": {
        "notice": "Retrieves the limit order at the specified index."
      },
      "getOrdersLength()": {
        "notice": "Returns orders array length."
      },
      "getTraderOrders(address)": {
        "notice": "Returns an array of LimitOrder structures representing the orders placed by a specific trader."
      },
      "getTraderOrdersLength(address)": {
        "notice": "Returns the length of the order array for a specific trader."
      },
      "initialize(address,address,address,address,address,address)": {
        "notice": "Initializes the LimitOrderManager contract."
      },
      "openPositionByOrder((uint256,uint256,bytes,(uint256,(string,bytes)[])[],(uint256,(string,bytes)[])[],address))": {
        "notice": "Opens a position by an existing order."
      },
      "setSwapManager(address)": {
        "notice": "Function to set new swapManager."
      },
      "supportsInterface(bytes4)": {
        "notice": "Interface checker"
      },
      "updateOrder((uint256,uint256,uint256,bool,bool,bool))": {
        "notice": "Updates an existing limit order."
      },
      "updateOrderConditions((uint256,(uint256,bytes)[],(uint256,bytes)[]))": {
        "notice": "Updates the open and close conditions of an order."
      }
    },
    "version": 1
  },
  "storageLayout": {
    "storage": [
      {
        "astId": 2890,
        "contract": "contracts/LimitOrderManager/LimitOrderManager.sol:LimitOrderManager",
        "label": "_initialized",
        "offset": 0,
        "slot": "0",
        "type": "t_uint8"
      },
      {
        "astId": 2893,
        "contract": "contracts/LimitOrderManager/LimitOrderManager.sol:LimitOrderManager",
        "label": "_initializing",
        "offset": 1,
        "slot": "0",
        "type": "t_bool"
      },
      {
        "astId": 3193,
        "contract": "contracts/LimitOrderManager/LimitOrderManager.sol:LimitOrderManager",
        "label": "_status",
        "offset": 0,
        "slot": "1",
        "type": "t_uint256"
      },
      {
        "astId": 3262,
        "contract": "contracts/LimitOrderManager/LimitOrderManager.sol:LimitOrderManager",
        "label": "__gap",
        "offset": 0,
        "slot": "2",
        "type": "t_array(t_uint256)49_storage"
      },
      {
        "astId": 5867,
        "contract": "contracts/LimitOrderManager/LimitOrderManager.sol:LimitOrderManager",
        "label": "__gap",
        "offset": 0,
        "slot": "51",
        "type": "t_array(t_uint256)50_storage"
      },
      {
        "astId": 3073,
        "contract": "contracts/LimitOrderManager/LimitOrderManager.sol:LimitOrderManager",
        "label": "_paused",
        "offset": 0,
        "slot": "101",
        "type": "t_bool"
      },
      {
        "astId": 3178,
        "contract": "contracts/LimitOrderManager/LimitOrderManager.sol:LimitOrderManager",
        "label": "__gap",
        "offset": 0,
        "slot": "102",
        "type": "t_array(t_uint256)49_storage"
      },
      {
        "astId": 6506,
        "contract": "contracts/LimitOrderManager/LimitOrderManager.sol:LimitOrderManager",
        "label": "__gap",
        "offset": 0,
        "slot": "151",
        "type": "t_array(t_uint256)50_storage"
      },
      {
        "astId": 34711,
        "contract": "contracts/LimitOrderManager/LimitOrderManager.sol:LimitOrderManager",
        "label": "orders",
        "offset": 0,
        "slot": "201",
        "type": "t_array(t_struct(LimitOrder)63271_storage)dyn_storage"
      },
      {
        "astId": 34714,
        "contract": "contracts/LimitOrderManager/LimitOrderManager.sol:LimitOrderManager",
        "label": "ordersId",
        "offset": 0,
        "slot": "202",
        "type": "t_uint256"
      },
      {
        "astId": 34719,
        "contract": "contracts/LimitOrderManager/LimitOrderManager.sol:LimitOrderManager",
        "label": "orderIndexes",
        "offset": 0,
        "slot": "203",
        "type": "t_mapping(t_uint256,t_uint256)"
      },
      {
        "astId": 34724,
        "contract": "contracts/LimitOrderManager/LimitOrderManager.sol:LimitOrderManager",
        "label": "traderOrderIndexes",
        "offset": 0,
        "slot": "204",
        "type": "t_mapping(t_uint256,t_uint256)"
      },
      {
        "astId": 34730,
        "contract": "contracts/LimitOrderManager/LimitOrderManager.sol:LimitOrderManager",
        "label": "traderOrderIds",
        "offset": 0,
        "slot": "205",
        "type": "t_mapping(t_address,t_array(t_uint256)dyn_storage)"
      },
      {
        "astId": 34735,
        "contract": "contracts/LimitOrderManager/LimitOrderManager.sol:LimitOrderManager",
        "label": "bucketOrderIndexes",
        "offset": 0,
        "slot": "206",
        "type": "t_mapping(t_uint256,t_uint256)"
      },
      {
        "astId": 34741,
        "contract": "contracts/LimitOrderManager/LimitOrderManager.sol:LimitOrderManager",
        "label": "bucketOrderIds",
        "offset": 0,
        "slot": "207",
        "type": "t_mapping(t_address,t_array(t_uint256)dyn_storage)"
      },
      {
        "astId": 34747,
        "contract": "contracts/LimitOrderManager/LimitOrderManager.sol:LimitOrderManager",
        "label": "openConditions",
        "offset": 0,
        "slot": "208",
        "type": "t_mapping(t_uint256,t_array(t_struct(Condition)63241_storage)dyn_storage)"
      },
      {
        "astId": 34753,
        "contract": "contracts/LimitOrderManager/LimitOrderManager.sol:LimitOrderManager",
        "label": "closeConditions",
        "offset": 0,
        "slot": "209",
        "type": "t_mapping(t_uint256,t_array(t_struct(Condition)63241_storage)dyn_storage)"
      },
      {
        "astId": 34757,
        "contract": "contracts/LimitOrderManager/LimitOrderManager.sol:LimitOrderManager",
        "label": "registry",
        "offset": 0,
        "slot": "210",
        "type": "t_contract(IAccessControl)7879"
      },
      {
        "astId": 34761,
        "contract": "contracts/LimitOrderManager/LimitOrderManager.sol:LimitOrderManager",
        "label": "traderBalanceVault",
        "offset": 0,
        "slot": "211",
        "type": "t_contract(ITraderBalanceVault)52304"
      },
      {
        "astId": 34765,
        "contract": "contracts/LimitOrderManager/LimitOrderManager.sol:LimitOrderManager",
        "label": "primexDNS",
        "offset": 0,
        "slot": "212",
        "type": "t_contract(IPrimexDNS)43432"
      },
      {
        "astId": 34769,
        "contract": "contracts/LimitOrderManager/LimitOrderManager.sol:LimitOrderManager",
        "label": "pm",
        "offset": 0,
        "slot": "213",
        "type": "t_contract(IPositionManager)39707"
      },
      {
        "astId": 34773,
        "contract": "contracts/LimitOrderManager/LimitOrderManager.sol:LimitOrderManager",
        "label": "swapManager",
        "offset": 0,
        "slot": "214",
        "type": "t_contract(ISwapManager)58059"
      },
      {
        "astId": 34776,
        "contract": "contracts/LimitOrderManager/LimitOrderManager.sol:LimitOrderManager",
        "label": "whiteBlackList",
        "offset": 0,
        "slot": "215",
        "type": "t_contract(IWhiteBlackList)53981"
      }
    ],
    "types": {
      "t_address": {
        "encoding": "inplace",
        "label": "address",
        "numberOfBytes": "20"
      },
      "t_array(t_struct(Condition)63241_storage)dyn_storage": {
        "base": "t_struct(Condition)63241_storage",
        "encoding": "dynamic_array",
        "label": "struct LimitOrderLibrary.Condition[]",
        "numberOfBytes": "32"
      },
      "t_array(t_struct(LimitOrder)63271_storage)dyn_storage": {
        "base": "t_struct(LimitOrder)63271_storage",
        "encoding": "dynamic_array",
        "label": "struct LimitOrderLibrary.LimitOrder[]",
        "numberOfBytes": "32"
      },
      "t_array(t_uint256)49_storage": {
        "base": "t_uint256",
        "encoding": "inplace",
        "label": "uint256[49]",
        "numberOfBytes": "1568"
      },
      "t_array(t_uint256)50_storage": {
        "base": "t_uint256",
        "encoding": "inplace",
        "label": "uint256[50]",
        "numberOfBytes": "1600"
      },
      "t_array(t_uint256)dyn_storage": {
        "base": "t_uint256",
        "encoding": "dynamic_array",
        "label": "uint256[]",
        "numberOfBytes": "32"
      },
      "t_bool": {
        "encoding": "inplace",
        "label": "bool",
        "numberOfBytes": "1"
      },
      "t_bytes_storage": {
        "encoding": "bytes",
        "label": "bytes",
        "numberOfBytes": "32"
      },
      "t_contract(IAccessControl)7879": {
        "encoding": "inplace",
        "label": "contract IAccessControl",
        "numberOfBytes": "20"
      },
      "t_contract(IBucket)26049": {
        "encoding": "inplace",
        "label": "contract IBucket",
        "numberOfBytes": "20"
      },
      "t_contract(IPositionManager)39707": {
        "encoding": "inplace",
        "label": "contract IPositionManager",
        "numberOfBytes": "20"
      },
      "t_contract(IPrimexDNS)43432": {
        "encoding": "inplace",
        "label": "contract IPrimexDNS",
        "numberOfBytes": "20"
      },
      "t_contract(ISwapManager)58059": {
        "encoding": "inplace",
        "label": "contract ISwapManager",
        "numberOfBytes": "20"
      },
      "t_contract(ITraderBalanceVault)52304": {
        "encoding": "inplace",
        "label": "contract ITraderBalanceVault",
        "numberOfBytes": "20"
      },
      "t_contract(IWhiteBlackList)53981": {
        "encoding": "inplace",
        "label": "contract IWhiteBlackList",
        "numberOfBytes": "20"
      },
      "t_mapping(t_address,t_array(t_uint256)dyn_storage)": {
        "encoding": "mapping",
        "key": "t_address",
        "label": "mapping(address => uint256[])",
        "numberOfBytes": "32",
        "value": "t_array(t_uint256)dyn_storage"
      },
      "t_mapping(t_uint256,t_array(t_struct(Condition)63241_storage)dyn_storage)": {
        "encoding": "mapping",
        "key": "t_uint256",
        "label": "mapping(uint256 => struct LimitOrderLibrary.Condition[])",
        "numberOfBytes": "32",
        "value": "t_array(t_struct(Condition)63241_storage)dyn_storage"
      },
      "t_mapping(t_uint256,t_uint256)": {
        "encoding": "mapping",
        "key": "t_uint256",
        "label": "mapping(uint256 => uint256)",
        "numberOfBytes": "32",
        "value": "t_uint256"
      },
      "t_struct(Condition)63241_storage": {
        "encoding": "inplace",
        "label": "struct LimitOrderLibrary.Condition",
        "members": [
          {
            "astId": 63238,
            "contract": "contracts/LimitOrderManager/LimitOrderManager.sol:LimitOrderManager",
            "label": "managerType",
            "offset": 0,
            "slot": "0",
            "type": "t_uint256"
          },
          {
            "astId": 63240,
            "contract": "contracts/LimitOrderManager/LimitOrderManager.sol:LimitOrderManager",
            "label": "params",
            "offset": 0,
            "slot": "1",
            "type": "t_bytes_storage"
          }
        ],
        "numberOfBytes": "64"
      },
      "t_struct(LimitOrder)63271_storage": {
        "encoding": "inplace",
        "label": "struct LimitOrderLibrary.LimitOrder",
        "members": [
          {
            "astId": 63244,
            "contract": "contracts/LimitOrderManager/LimitOrderManager.sol:LimitOrderManager",
            "label": "bucket",
            "offset": 0,
            "slot": "0",
            "type": "t_contract(IBucket)26049"
          },
          {
            "astId": 63246,
            "contract": "contracts/LimitOrderManager/LimitOrderManager.sol:LimitOrderManager",
            "label": "positionAsset",
            "offset": 0,
            "slot": "1",
            "type": "t_address"
          },
          {
            "astId": 63248,
            "contract": "contracts/LimitOrderManager/LimitOrderManager.sol:LimitOrderManager",
            "label": "depositAsset",
            "offset": 0,
            "slot": "2",
            "type": "t_address"
          },
          {
            "astId": 63250,
            "contract": "contracts/LimitOrderManager/LimitOrderManager.sol:LimitOrderManager",
            "label": "depositAmount",
            "offset": 0,
            "slot": "3",
            "type": "t_uint256"
          },
          {
            "astId": 63252,
            "contract": "contracts/LimitOrderManager/LimitOrderManager.sol:LimitOrderManager",
            "label": "feeToken",
            "offset": 0,
            "slot": "4",
            "type": "t_address"
          },
          {
            "astId": 63254,
            "contract": "contracts/LimitOrderManager/LimitOrderManager.sol:LimitOrderManager",
            "label": "protocolFee",
            "offset": 0,
            "slot": "5",
            "type": "t_uint256"
          },
          {
            "astId": 63256,
            "contract": "contracts/LimitOrderManager/LimitOrderManager.sol:LimitOrderManager",
            "label": "trader",
            "offset": 0,
            "slot": "6",
            "type": "t_address"
          },
          {
            "astId": 63258,
            "contract": "contracts/LimitOrderManager/LimitOrderManager.sol:LimitOrderManager",
            "label": "deadline",
            "offset": 0,
            "slot": "7",
            "type": "t_uint256"
          },
          {
            "astId": 63260,
            "contract": "contracts/LimitOrderManager/LimitOrderManager.sol:LimitOrderManager",
            "label": "id",
            "offset": 0,
            "slot": "8",
            "type": "t_uint256"
          },
          {
            "astId": 63262,
            "contract": "contracts/LimitOrderManager/LimitOrderManager.sol:LimitOrderManager",
            "label": "leverage",
            "offset": 0,
            "slot": "9",
            "type": "t_uint256"
          },
          {
            "astId": 63264,
            "contract": "contracts/LimitOrderManager/LimitOrderManager.sol:LimitOrderManager",
            "label": "shouldOpenPosition",
            "offset": 0,
            "slot": "10",
            "type": "t_bool"
          },
          {
            "astId": 63266,
            "contract": "contracts/LimitOrderManager/LimitOrderManager.sol:LimitOrderManager",
            "label": "createdAt",
            "offset": 0,
            "slot": "11",
            "type": "t_uint256"
          },
          {
            "astId": 63268,
            "contract": "contracts/LimitOrderManager/LimitOrderManager.sol:LimitOrderManager",
            "label": "updatedConditionsAt",
            "offset": 0,
            "slot": "12",
            "type": "t_uint256"
          },
          {
            "astId": 63270,
            "contract": "contracts/LimitOrderManager/LimitOrderManager.sol:LimitOrderManager",
            "label": "extraParams",
            "offset": 0,
            "slot": "13",
            "type": "t_bytes_storage"
          }
        ],
        "numberOfBytes": "448"
      },
      "t_uint256": {
        "encoding": "inplace",
        "label": "uint256",
        "numberOfBytes": "32"
      },
      "t_uint8": {
        "encoding": "inplace",
        "label": "uint8",
        "numberOfBytes": "1"
      }
    }
  }
}