{
  "address": "0x671226e36f35E59301699993d5a9D04bBe4c073A",
  "abi": [
    {
      "inputs": [],
      "stateMutability": "nonpayable",
      "type": "constructor"
    },
    {
      "inputs": [],
      "name": "DS_MATH_ADD_OVERFLOW",
      "type": "error"
    },
    {
      "inputs": [],
      "name": "DS_MATH_MUL_OVERFLOW",
      "type": "error"
    },
    {
      "anonymous": false,
      "inputs": [
        {
          "indexed": true,
          "internalType": "address",
          "name": "newPositionManagerExtension",
          "type": "address"
        }
      ],
      "name": "ChangePositionManagerExtension",
      "type": "event"
    },
    {
      "anonymous": false,
      "inputs": [
        {
          "indexed": true,
          "internalType": "uint256",
          "name": "positionId",
          "type": "uint256"
        },
        {
          "indexed": true,
          "internalType": "address",
          "name": "trader",
          "type": "address"
        },
        {
          "indexed": false,
          "internalType": "uint256",
          "name": "depositDelta",
          "type": "uint256"
        },
        {
          "indexed": false,
          "internalType": "uint256",
          "name": "scaledDebtAmount",
          "type": "uint256"
        }
      ],
      "name": "DecreaseDeposit",
      "type": "event"
    },
    {
      "anonymous": false,
      "inputs": [
        {
          "indexed": true,
          "internalType": "uint256",
          "name": "positionId",
          "type": "uint256"
        },
        {
          "indexed": true,
          "internalType": "address",
          "name": "trader",
          "type": "address"
        },
        {
          "indexed": false,
          "internalType": "uint256",
          "name": "depositDelta",
          "type": "uint256"
        },
        {
          "indexed": false,
          "internalType": "uint256",
          "name": "scaledDebtAmount",
          "type": "uint256"
        }
      ],
      "name": "IncreaseDeposit",
      "type": "event"
    },
    {
      "anonymous": false,
      "inputs": [
        {
          "indexed": false,
          "internalType": "uint8",
          "name": "version",
          "type": "uint8"
        }
      ],
      "name": "Initialized",
      "type": "event"
    },
    {
      "anonymous": false,
      "inputs": [
        {
          "indexed": true,
          "internalType": "address",
          "name": "_keeperRewardDistributor",
          "type": "address"
        }
      ],
      "name": "KeeperRewardDistributorChanged",
      "type": "event"
    },
    {
      "anonymous": false,
      "inputs": [
        {
          "indexed": true,
          "internalType": "uint256",
          "name": "maintenanceBuffer",
          "type": "uint256"
        }
      ],
      "name": "MaintenanceBufferChanged",
      "type": "event"
    },
    {
      "anonymous": false,
      "inputs": [
        {
          "indexed": true,
          "internalType": "uint256",
          "name": "positionId",
          "type": "uint256"
        },
        {
          "indexed": true,
          "internalType": "address",
          "name": "trader",
          "type": "address"
        },
        {
          "indexed": true,
          "internalType": "address",
          "name": "openedBy",
          "type": "address"
        },
        {
          "components": [
            {
              "internalType": "uint256",
              "name": "id",
              "type": "uint256"
            },
            {
              "internalType": "uint256",
              "name": "scaledDebtAmount",
              "type": "uint256"
            },
            {
              "internalType": "contract IBucketV3",
              "name": "bucket",
              "type": "address"
            },
            {
              "internalType": "address",
              "name": "soldAsset",
              "type": "address"
            },
            {
              "internalType": "uint256",
              "name": "depositAmountInSoldAsset",
              "type": "uint256"
            },
            {
              "internalType": "address",
              "name": "positionAsset",
              "type": "address"
            },
            {
              "internalType": "uint256",
              "name": "positionAmount",
              "type": "uint256"
            },
            {
              "internalType": "address",
              "name": "trader",
              "type": "address"
            },
            {
              "internalType": "uint256",
              "name": "openBorrowIndex",
              "type": "uint256"
            },
            {
              "internalType": "uint256",
              "name": "createdAt",
              "type": "uint256"
            },
            {
              "internalType": "uint256",
              "name": "updatedConditionsAt",
              "type": "uint256"
            },
            {
              "internalType": "bytes",
              "name": "extraParams",
              "type": "bytes"
            }
          ],
          "indexed": false,
          "internalType": "struct PositionLibrary.Position",
          "name": "position",
          "type": "tuple"
        },
        {
          "indexed": false,
          "internalType": "uint256",
          "name": "entryPrice",
          "type": "uint256"
        },
        {
          "indexed": false,
          "internalType": "uint256",
          "name": "leverage",
          "type": "uint256"
        },
        {
          "components": [
            {
              "internalType": "uint256",
              "name": "managerType",
              "type": "uint256"
            },
            {
              "internalType": "bytes",
              "name": "params",
              "type": "bytes"
            }
          ],
          "indexed": false,
          "internalType": "struct LimitOrderLibrary.Condition[]",
          "name": "closeConditions",
          "type": "tuple[]"
        }
      ],
      "name": "OpenPosition",
      "type": "event"
    },
    {
      "anonymous": false,
      "inputs": [
        {
          "indexed": true,
          "internalType": "uint256",
          "name": "newMultiplier",
          "type": "uint256"
        }
      ],
      "name": "OracleTolerableLimitMultiplierChanged",
      "type": "event"
    },
    {
      "anonymous": false,
      "inputs": [
        {
          "indexed": true,
          "internalType": "uint256",
          "name": "positionId",
          "type": "uint256"
        },
        {
          "indexed": true,
          "internalType": "address",
          "name": "trader",
          "type": "address"
        },
        {
          "indexed": false,
          "internalType": "address",
          "name": "paymentAsset",
          "type": "address"
        },
        {
          "indexed": true,
          "internalType": "enum IPrimexDNSStorageV3.FeeRateType",
          "name": "feeRateType",
          "type": "uint8"
        },
        {
          "indexed": false,
          "internalType": "uint256",
          "name": "feeInPaymentAsset",
          "type": "uint256"
        },
        {
          "indexed": false,
          "internalType": "uint256",
          "name": "feeInPmx",
          "type": "uint256"
        }
      ],
      "name": "PaidProtocolFee",
      "type": "event"
    },
    {
      "anonymous": false,
      "inputs": [
        {
          "indexed": true,
          "internalType": "uint256",
          "name": "positionId",
          "type": "uint256"
        },
        {
          "indexed": true,
          "internalType": "address",
          "name": "trader",
          "type": "address"
        },
        {
          "indexed": false,
          "internalType": "address",
          "name": "bucketAddress",
          "type": "address"
        },
        {
          "indexed": false,
          "internalType": "address",
          "name": "soldAsset",
          "type": "address"
        },
        {
          "indexed": false,
          "internalType": "address",
          "name": "positionAsset",
          "type": "address"
        },
        {
          "indexed": false,
          "internalType": "uint256",
          "name": "decreasePositionAmount",
          "type": "uint256"
        },
        {
          "indexed": false,
          "internalType": "uint256",
          "name": "depositedAmount",
          "type": "uint256"
        },
        {
          "indexed": false,
          "internalType": "uint256",
          "name": "scaledDebtAmount",
          "type": "uint256"
        },
        {
          "indexed": false,
          "internalType": "int256",
          "name": "profit",
          "type": "int256"
        },
        {
          "indexed": false,
          "internalType": "uint256",
          "name": "positionDebt",
          "type": "uint256"
        },
        {
          "indexed": false,
          "internalType": "uint256",
          "name": "amountOut",
          "type": "uint256"
        }
      ],
      "name": "PartialClosePosition",
      "type": "event"
    },
    {
      "anonymous": false,
      "inputs": [
        {
          "indexed": false,
          "internalType": "address",
          "name": "account",
          "type": "address"
        }
      ],
      "name": "Paused",
      "type": "event"
    },
    {
      "anonymous": false,
      "inputs": [
        {
          "indexed": true,
          "internalType": "uint256",
          "name": "securityBuffer",
          "type": "uint256"
        }
      ],
      "name": "SecurityBufferChanged",
      "type": "event"
    },
    {
      "anonymous": false,
      "inputs": [
        {
          "indexed": true,
          "internalType": "uint256",
          "name": "oracleTolerableLimit",
          "type": "uint256"
        }
      ],
      "name": "SetDefaultOracleTolerableLimit",
      "type": "event"
    },
    {
      "anonymous": false,
      "inputs": [
        {
          "indexed": false,
          "internalType": "address",
          "name": "token0",
          "type": "address"
        },
        {
          "indexed": false,
          "internalType": "address",
          "name": "token1",
          "type": "address"
        },
        {
          "indexed": false,
          "internalType": "uint256",
          "name": "amountInToken0",
          "type": "uint256"
        },
        {
          "indexed": false,
          "internalType": "uint256",
          "name": "amountInToken1",
          "type": "uint256"
        }
      ],
      "name": "SetMaxPositionSize",
      "type": "event"
    },
    {
      "anonymous": false,
      "inputs": [
        {
          "indexed": true,
          "internalType": "address",
          "name": "assetA",
          "type": "address"
        },
        {
          "indexed": true,
          "internalType": "address",
          "name": "assetB",
          "type": "address"
        },
        {
          "indexed": false,
          "internalType": "uint256",
          "name": "oracleTolerableLimit",
          "type": "uint256"
        }
      ],
      "name": "SetOracleTolerableLimit",
      "type": "event"
    },
    {
      "anonymous": false,
      "inputs": [
        {
          "indexed": false,
          "internalType": "address",
          "name": "account",
          "type": "address"
        }
      ],
      "name": "Unpaused",
      "type": "event"
    },
    {
      "anonymous": false,
      "inputs": [
        {
          "indexed": true,
          "internalType": "uint256",
          "name": "positionId",
          "type": "uint256"
        },
        {
          "indexed": true,
          "internalType": "address",
          "name": "trader",
          "type": "address"
        },
        {
          "components": [
            {
              "internalType": "uint256",
              "name": "managerType",
              "type": "uint256"
            },
            {
              "internalType": "bytes",
              "name": "params",
              "type": "bytes"
            }
          ],
          "indexed": false,
          "internalType": "struct LimitOrderLibrary.Condition[]",
          "name": "closeConditions",
          "type": "tuple[]"
        }
      ],
      "name": "UpdatePositionConditions",
      "type": "event"
    },
    {
      "inputs": [
        {
          "internalType": "address",
          "name": "",
          "type": "address"
        },
        {
          "internalType": "uint256",
          "name": "",
          "type": "uint256"
        }
      ],
      "name": "bucketPositionIds",
      "outputs": [
        {
          "internalType": "uint256",
          "name": "",
          "type": "uint256"
        }
      ],
      "stateMutability": "view",
      "type": "function"
    },
    {
      "inputs": [
        {
          "internalType": "uint256",
          "name": "_id",
          "type": "uint256"
        },
        {
          "internalType": "address",
          "name": "_depositReceiver",
          "type": "address"
        },
        {
          "components": [
            {
              "internalType": "uint256",
              "name": "shares",
              "type": "uint256"
            },
            {
              "components": [
                {
                  "internalType": "address",
                  "name": "to",
                  "type": "address"
                },
                {
                  "components": [
                    {
                      "internalType": "string",
                      "name": "dexName",
                      "type": "string"
                    },
                    {
                      "internalType": "uint256",
                      "name": "shares",
                      "type": "uint256"
                    },
                    {
                      "internalType": "bytes",
                      "name": "payload",
                      "type": "bytes"
                    }
                  ],
                  "internalType": "struct PrimexPricingLibrary.Path[]",
                  "name": "paths",
                  "type": "tuple[]"
                }
              ],
              "internalType": "struct PrimexPricingLibrary.Route[]",
              "name": "routes",
              "type": "tuple[]"
            }
          ],
          "internalType": "struct PrimexPricingLibrary.MegaRoute[]",
          "name": "_megaRoutes",
          "type": "tuple[]"
        },
        {
          "internalType": "uint256",
          "name": "_amountOutMin",
          "type": "uint256"
        },
        {
          "internalType": "bytes",
          "name": "_positionSoldAssetOracleData",
          "type": "bytes"
        },
        {
          "internalType": "bytes",
          "name": "_pmxSoldAssetOracleData",
          "type": "bytes"
        },
        {
          "internalType": "bytes",
          "name": "_nativeSoldAssetOracleData",
          "type": "bytes"
        },
        {
          "internalType": "bytes[][]",
          "name": "_pullOracleData",
          "type": "bytes[][]"
        },
        {
          "internalType": "uint256[]",
          "name": "_pullOracleTypes",
          "type": "uint256[]"
        }
      ],
      "name": "closePosition",
      "outputs": [],
      "stateMutability": "payable",
      "type": "function"
    },
    {
      "inputs": [
        {
          "components": [
            {
              "internalType": "uint256",
              "name": "id",
              "type": "uint256"
            },
            {
              "internalType": "address",
              "name": "keeper",
              "type": "address"
            },
            {
              "components": [
                {
                  "internalType": "uint256",
                  "name": "shares",
                  "type": "uint256"
                },
                {
                  "components": [
                    {
                      "internalType": "address",
                      "name": "to",
                      "type": "address"
                    },
                    {
                      "components": [
                        {
                          "internalType": "string",
                          "name": "dexName",
                          "type": "string"
                        },
                        {
                          "internalType": "uint256",
                          "name": "shares",
                          "type": "uint256"
                        },
                        {
                          "internalType": "bytes",
                          "name": "payload",
                          "type": "bytes"
                        }
                      ],
                      "internalType": "struct PrimexPricingLibrary.Path[]",
                      "name": "paths",
                      "type": "tuple[]"
                    }
                  ],
                  "internalType": "struct PrimexPricingLibrary.Route[]",
                  "name": "routes",
                  "type": "tuple[]"
                }
              ],
              "internalType": "struct PrimexPricingLibrary.MegaRoute[]",
              "name": "megaRoutes",
              "type": "tuple[]"
            },
            {
              "internalType": "uint256",
              "name": "conditionIndex",
              "type": "uint256"
            },
            {
              "internalType": "bytes",
              "name": "ccmAdditionalParams",
              "type": "bytes"
            },
            {
              "internalType": "enum PositionLibrary.CloseReason",
              "name": "closeReason",
              "type": "uint8"
            },
            {
              "internalType": "bytes",
              "name": "positionSoldAssetOracleData",
              "type": "bytes"
            },
            {
              "internalType": "bytes",
              "name": "nativePmxOracleData",
              "type": "bytes"
            },
            {
              "internalType": "bytes",
              "name": "positionNativeAssetOracleData",
              "type": "bytes"
            },
            {
              "internalType": "bytes",
              "name": "pmxSoldAssetOracleData",
              "type": "bytes"
            },
            {
              "internalType": "bytes",
              "name": "nativeSoldAssetOracleData",
              "type": "bytes"
            },
            {
              "internalType": "bytes[][]",
              "name": "pullOracleData",
              "type": "bytes[][]"
            },
            {
              "internalType": "uint256[]",
              "name": "pullOracleTypes",
              "type": "uint256[]"
            }
          ],
          "internalType": "struct IPositionManagerV2.ClosePositionByConditionParams",
          "name": "_params",
          "type": "tuple"
        }
      ],
      "name": "closePositionByCondition",
      "outputs": [],
      "stateMutability": "payable",
      "type": "function"
    },
    {
      "inputs": [
        {
          "internalType": "uint256",
          "name": "_positionId",
          "type": "uint256"
        },
        {
          "internalType": "uint256",
          "name": "_amount",
          "type": "uint256"
        },
        {
          "internalType": "bytes",
          "name": "_positionSoldAssetOracleData",
          "type": "bytes"
        },
        {
          "internalType": "bytes",
          "name": "_nativeSoldAssetOracleData",
          "type": "bytes"
        },
        {
          "internalType": "bytes[][]",
          "name": "_pullOracleData",
          "type": "bytes[][]"
        },
        {
          "internalType": "uint256[]",
          "name": "_pullOracleTypes",
          "type": "uint256[]"
        }
      ],
      "name": "decreaseDeposit",
      "outputs": [],
      "stateMutability": "payable",
      "type": "function"
    },
    {
      "inputs": [],
      "name": "defaultOracleTolerableLimit",
      "outputs": [
        {
          "internalType": "uint256",
          "name": "",
          "type": "uint256"
        }
      ],
      "stateMutability": "view",
      "type": "function"
    },
    {
      "inputs": [
        {
          "internalType": "uint256[]",
          "name": "_ids",
          "type": "uint256[]"
        },
        {
          "internalType": "address[]",
          "name": "_traders",
          "type": "address[]"
        },
        {
          "internalType": "uint256",
          "name": "_length",
          "type": "uint256"
        },
        {
          "internalType": "address",
          "name": "_bucket",
          "type": "address"
        }
      ],
      "name": "deletePositions",
      "outputs": [],
      "stateMutability": "nonpayable",
      "type": "function"
    },
    {
      "inputs": [
        {
          "internalType": "address",
          "name": "_token",
          "type": "address"
        },
        {
          "internalType": "address",
          "name": "_to",
          "type": "address"
        },
        {
          "internalType": "uint256",
          "name": "_amount",
          "type": "uint256"
        }
      ],
      "name": "doTransferOut",
      "outputs": [],
      "stateMutability": "nonpayable",
      "type": "function"
    },
    {
      "inputs": [],
      "name": "getAllPositionsLength",
      "outputs": [
        {
          "internalType": "uint256",
          "name": "",
          "type": "uint256"
        }
      ],
      "stateMutability": "view",
      "type": "function"
    },
    {
      "inputs": [
        {
          "internalType": "address",
          "name": "_bucket",
          "type": "address"
        }
      ],
      "name": "getBucketPositionsLength",
      "outputs": [
        {
          "internalType": "uint256",
          "name": "",
          "type": "uint256"
        }
      ],
      "stateMutability": "view",
      "type": "function"
    },
    {
      "inputs": [
        {
          "internalType": "uint256",
          "name": "_positionId",
          "type": "uint256"
        },
        {
          "internalType": "uint256",
          "name": "_index",
          "type": "uint256"
        }
      ],
      "name": "getCloseCondition",
      "outputs": [
        {
          "components": [
            {
              "internalType": "uint256",
              "name": "managerType",
              "type": "uint256"
            },
            {
              "internalType": "bytes",
              "name": "params",
              "type": "bytes"
            }
          ],
          "internalType": "struct LimitOrderLibrary.Condition",
          "name": "",
          "type": "tuple"
        }
      ],
      "stateMutability": "view",
      "type": "function"
    },
    {
      "inputs": [
        {
          "internalType": "uint256",
          "name": "_positionId",
          "type": "uint256"
        }
      ],
      "name": "getCloseConditions",
      "outputs": [
        {
          "components": [
            {
              "internalType": "uint256",
              "name": "managerType",
              "type": "uint256"
            },
            {
              "internalType": "bytes",
              "name": "params",
              "type": "bytes"
            }
          ],
          "internalType": "struct LimitOrderLibrary.Condition[]",
          "name": "",
          "type": "tuple[]"
        }
      ],
      "stateMutability": "view",
      "type": "function"
    },
    {
      "inputs": [
        {
          "internalType": "address",
          "name": "assetA",
          "type": "address"
        },
        {
          "internalType": "address",
          "name": "assetB",
          "type": "address"
        }
      ],
      "name": "getOracleTolerableLimit",
      "outputs": [
        {
          "internalType": "uint256",
          "name": "",
          "type": "uint256"
        }
      ],
      "stateMutability": "view",
      "type": "function"
    },
    {
      "inputs": [
        {
          "internalType": "uint256",
          "name": "_id",
          "type": "uint256"
        }
      ],
      "name": "getPosition",
      "outputs": [
        {
          "components": [
            {
              "internalType": "uint256",
              "name": "id",
              "type": "uint256"
            },
            {
              "internalType": "uint256",
              "name": "scaledDebtAmount",
              "type": "uint256"
            },
            {
              "internalType": "contract IBucketV3",
              "name": "bucket",
              "type": "address"
            },
            {
              "internalType": "address",
              "name": "soldAsset",
              "type": "address"
            },
            {
              "internalType": "uint256",
              "name": "depositAmountInSoldAsset",
              "type": "uint256"
            },
            {
              "internalType": "address",
              "name": "positionAsset",
              "type": "address"
            },
            {
              "internalType": "uint256",
              "name": "positionAmount",
              "type": "uint256"
            },
            {
              "internalType": "address",
              "name": "trader",
              "type": "address"
            },
            {
              "internalType": "uint256",
              "name": "openBorrowIndex",
              "type": "uint256"
            },
            {
              "internalType": "uint256",
              "name": "createdAt",
              "type": "uint256"
            },
            {
              "internalType": "uint256",
              "name": "updatedConditionsAt",
              "type": "uint256"
            },
            {
              "internalType": "bytes",
              "name": "extraParams",
              "type": "bytes"
            }
          ],
          "internalType": "struct PositionLibrary.Position",
          "name": "",
          "type": "tuple"
        }
      ],
      "stateMutability": "view",
      "type": "function"
    },
    {
      "inputs": [
        {
          "internalType": "uint256",
          "name": "_index",
          "type": "uint256"
        }
      ],
      "name": "getPositionByIndex",
      "outputs": [
        {
          "components": [
            {
              "internalType": "uint256",
              "name": "id",
              "type": "uint256"
            },
            {
              "internalType": "uint256",
              "name": "scaledDebtAmount",
              "type": "uint256"
            },
            {
              "internalType": "contract IBucketV3",
              "name": "bucket",
              "type": "address"
            },
            {
              "internalType": "address",
              "name": "soldAsset",
              "type": "address"
            },
            {
              "internalType": "uint256",
              "name": "depositAmountInSoldAsset",
              "type": "uint256"
            },
            {
              "internalType": "address",
              "name": "positionAsset",
              "type": "address"
            },
            {
              "internalType": "uint256",
              "name": "positionAmount",
              "type": "uint256"
            },
            {
              "internalType": "address",
              "name": "trader",
              "type": "address"
            },
            {
              "internalType": "uint256",
              "name": "openBorrowIndex",
              "type": "uint256"
            },
            {
              "internalType": "uint256",
              "name": "createdAt",
              "type": "uint256"
            },
            {
              "internalType": "uint256",
              "name": "updatedConditionsAt",
              "type": "uint256"
            },
            {
              "internalType": "bytes",
              "name": "extraParams",
              "type": "bytes"
            }
          ],
          "internalType": "struct PositionLibrary.Position",
          "name": "",
          "type": "tuple"
        }
      ],
      "stateMutability": "view",
      "type": "function"
    },
    {
      "inputs": [
        {
          "internalType": "uint256",
          "name": "_id",
          "type": "uint256"
        }
      ],
      "name": "getPositionDebt",
      "outputs": [
        {
          "internalType": "uint256",
          "name": "",
          "type": "uint256"
        }
      ],
      "stateMutability": "view",
      "type": "function"
    },
    {
      "inputs": [
        {
          "internalType": "address",
          "name": "_trader",
          "type": "address"
        }
      ],
      "name": "getTraderPositionsLength",
      "outputs": [
        {
          "internalType": "uint256",
          "name": "",
          "type": "uint256"
        }
      ],
      "stateMutability": "view",
      "type": "function"
    },
    {
      "inputs": [
        {
          "internalType": "uint256",
          "name": "_positionId",
          "type": "uint256"
        },
        {
          "internalType": "uint256",
          "name": "_amount",
          "type": "uint256"
        },
        {
          "internalType": "address",
          "name": "_asset",
          "type": "address"
        },
        {
          "internalType": "bool",
          "name": "_takeDepositFromWallet",
          "type": "bool"
        },
        {
          "components": [
            {
              "internalType": "uint256",
              "name": "shares",
              "type": "uint256"
            },
            {
              "components": [
                {
                  "internalType": "address",
                  "name": "to",
                  "type": "address"
                },
                {
                  "components": [
                    {
                      "internalType": "string",
                      "name": "dexName",
                      "type": "string"
                    },
                    {
                      "internalType": "uint256",
                      "name": "shares",
                      "type": "uint256"
                    },
                    {
                      "internalType": "bytes",
                      "name": "payload",
                      "type": "bytes"
                    }
                  ],
                  "internalType": "struct PrimexPricingLibrary.Path[]",
                  "name": "paths",
                  "type": "tuple[]"
                }
              ],
              "internalType": "struct PrimexPricingLibrary.Route[]",
              "name": "routes",
              "type": "tuple[]"
            }
          ],
          "internalType": "struct PrimexPricingLibrary.MegaRoute[]",
          "name": "_megaRoutes",
          "type": "tuple[]"
        },
        {
          "internalType": "uint256",
          "name": "_amountOutMin",
          "type": "uint256"
        }
      ],
      "name": "increaseDeposit",
      "outputs": [],
      "stateMutability": "nonpayable",
      "type": "function"
    },
    {
      "inputs": [
        {
          "internalType": "address",
          "name": "_registry",
          "type": "address"
        },
        {
          "internalType": "address",
          "name": "_primexDNS",
          "type": "address"
        },
        {
          "internalType": "address payable",
          "name": "_traderBalanceVault",
          "type": "address"
        },
        {
          "internalType": "address",
          "name": "_priceOracle",
          "type": "address"
        },
        {
          "internalType": "address",
          "name": "_keeperRewardDistributor",
          "type": "address"
        },
        {
          "internalType": "address",
          "name": "_whiteBlackList",
          "type": "address"
        },
        {
          "internalType": "address",
          "name": "_positionManagerExtension",
          "type": "address"
        }
      ],
      "name": "initialize",
      "outputs": [],
      "stateMutability": "nonpayable",
      "type": "function"
    },
    {
      "inputs": [
        {
          "internalType": "uint256",
          "name": "_id",
          "type": "uint256"
        }
      ],
      "name": "isDelistedPosition",
      "outputs": [
        {
          "internalType": "bool",
          "name": "",
          "type": "bool"
        }
      ],
      "stateMutability": "view",
      "type": "function"
    },
    {
      "inputs": [],
      "name": "keeperRewardDistributor",
      "outputs": [
        {
          "internalType": "contract IKeeperRewardDistributorV3",
          "name": "",
          "type": "address"
        }
      ],
      "stateMutability": "view",
      "type": "function"
    },
    {
      "inputs": [],
      "name": "maintenanceBuffer",
      "outputs": [
        {
          "internalType": "uint256",
          "name": "",
          "type": "uint256"
        }
      ],
      "stateMutability": "view",
      "type": "function"
    },
    {
      "inputs": [
        {
          "internalType": "address",
          "name": "",
          "type": "address"
        },
        {
          "internalType": "address",
          "name": "",
          "type": "address"
        }
      ],
      "name": "maxPositionSize",
      "outputs": [
        {
          "internalType": "uint256",
          "name": "",
          "type": "uint256"
        }
      ],
      "stateMutability": "view",
      "type": "function"
    },
    {
      "inputs": [],
      "name": "minPositionAsset",
      "outputs": [
        {
          "internalType": "address",
          "name": "",
          "type": "address"
        }
      ],
      "stateMutability": "view",
      "type": "function"
    },
    {
      "inputs": [],
      "name": "minPositionSize",
      "outputs": [
        {
          "internalType": "uint256",
          "name": "",
          "type": "uint256"
        }
      ],
      "stateMutability": "view",
      "type": "function"
    },
    {
      "inputs": [
        {
          "components": [
            {
              "components": [
                {
                  "internalType": "string",
                  "name": "bucket",
                  "type": "string"
                },
                {
                  "internalType": "uint256",
                  "name": "borrowedAmount",
                  "type": "uint256"
                },
                {
                  "components": [
                    {
                      "internalType": "uint256",
                      "name": "shares",
                      "type": "uint256"
                    },
                    {
                      "components": [
                        {
                          "internalType": "address",
                          "name": "to",
                          "type": "address"
                        },
                        {
                          "components": [
                            {
                              "internalType": "string",
                              "name": "dexName",
                              "type": "string"
                            },
                            {
                              "internalType": "uint256",
                              "name": "shares",
                              "type": "uint256"
                            },
                            {
                              "internalType": "bytes",
                              "name": "payload",
                              "type": "bytes"
                            }
                          ],
                          "internalType": "struct PrimexPricingLibrary.Path[]",
                          "name": "paths",
                          "type": "tuple[]"
                        }
                      ],
                      "internalType": "struct PrimexPricingLibrary.Route[]",
                      "name": "routes",
                      "type": "tuple[]"
                    }
                  ],
                  "internalType": "struct PrimexPricingLibrary.MegaRoute[]",
                  "name": "depositInThirdAssetMegaRoutes",
                  "type": "tuple[]"
                }
              ],
              "internalType": "struct PositionLibrary.OpenPositionMarginParams",
              "name": "marginParams",
              "type": "tuple"
            },
            {
              "components": [
                {
                  "internalType": "uint256",
                  "name": "shares",
                  "type": "uint256"
                },
                {
                  "components": [
                    {
                      "internalType": "address",
                      "name": "to",
                      "type": "address"
                    },
                    {
                      "components": [
                        {
                          "internalType": "string",
                          "name": "dexName",
                          "type": "string"
                        },
                        {
                          "internalType": "uint256",
                          "name": "shares",
                          "type": "uint256"
                        },
                        {
                          "internalType": "bytes",
                          "name": "payload",
                          "type": "bytes"
                        }
                      ],
                      "internalType": "struct PrimexPricingLibrary.Path[]",
                      "name": "paths",
                      "type": "tuple[]"
                    }
                  ],
                  "internalType": "struct PrimexPricingLibrary.Route[]",
                  "name": "routes",
                  "type": "tuple[]"
                }
              ],
              "internalType": "struct PrimexPricingLibrary.MegaRoute[]",
              "name": "firstAssetMegaRoutes",
              "type": "tuple[]"
            },
            {
              "internalType": "address",
              "name": "depositAsset",
              "type": "address"
            },
            {
              "internalType": "uint256",
              "name": "depositAmount",
              "type": "uint256"
            },
            {
              "internalType": "address",
              "name": "positionAsset",
              "type": "address"
            },
            {
              "internalType": "uint256",
              "name": "amountOutMin",
              "type": "uint256"
            },
            {
              "internalType": "uint256",
              "name": "deadline",
              "type": "uint256"
            },
            {
              "internalType": "bool",
              "name": "takeDepositFromWallet",
              "type": "bool"
            },
            {
              "internalType": "bool",
              "name": "isProtocolFeeInPmx",
              "type": "bool"
            },
            {
              "components": [
                {
                  "internalType": "uint256",
                  "name": "managerType",
                  "type": "uint256"
                },
                {
                  "internalType": "bytes",
                  "name": "params",
                  "type": "bytes"
                }
              ],
              "internalType": "struct LimitOrderLibrary.Condition[]",
              "name": "closeConditions",
              "type": "tuple[]"
            },
            {
              "internalType": "bytes",
              "name": "firstAssetOracleData",
              "type": "bytes"
            },
            {
              "internalType": "bytes",
              "name": "thirdAssetOracleData",
              "type": "bytes"
            },
            {
              "internalType": "bytes",
              "name": "depositSoldAssetOracleData",
              "type": "bytes"
            },
            {
              "internalType": "bytes",
              "name": "positionUsdOracleData",
              "type": "bytes"
            },
            {
              "internalType": "bytes",
              "name": "nativePositionAssetOracleData",
              "type": "bytes"
            },
            {
              "internalType": "bytes",
              "name": "pmxPositionAssetOracleData",
              "type": "bytes"
            },
            {
              "internalType": "bytes",
              "name": "nativeSoldAssetOracleData",
              "type": "bytes"
            },
            {
              "internalType": "bytes[][]",
              "name": "pullOracleData",
              "type": "bytes[][]"
            },
            {
              "internalType": "uint256[]",
              "name": "pullOracleTypes",
              "type": "uint256[]"
            }
          ],
          "internalType": "struct PositionLibrary.OpenPositionParams",
          "name": "_params",
          "type": "tuple"
        }
      ],
      "name": "openPosition",
      "outputs": [],
      "stateMutability": "payable",
      "type": "function"
    },
    {
      "inputs": [
        {
          "components": [
            {
              "internalType": "address",
              "name": "sender",
              "type": "address"
            },
            {
              "components": [
                {
                  "internalType": "contract IBucketV3",
                  "name": "bucket",
                  "type": "address"
                },
                {
                  "internalType": "address",
                  "name": "positionAsset",
                  "type": "address"
                },
                {
                  "internalType": "address",
                  "name": "depositAsset",
                  "type": "address"
                },
                {
                  "internalType": "uint256",
                  "name": "depositAmount",
                  "type": "uint256"
                },
                {
                  "internalType": "address",
                  "name": "feeToken",
                  "type": "address"
                },
                {
                  "internalType": "uint256",
                  "name": "protocolFee",
                  "type": "uint256"
                },
                {
                  "internalType": "address",
                  "name": "trader",
                  "type": "address"
                },
                {
                  "internalType": "uint256",
                  "name": "deadline",
                  "type": "uint256"
                },
                {
                  "internalType": "uint256",
                  "name": "id",
                  "type": "uint256"
                },
                {
                  "internalType": "uint256",
                  "name": "leverage",
                  "type": "uint256"
                },
                {
                  "internalType": "bool",
                  "name": "shouldOpenPosition",
                  "type": "bool"
                },
                {
                  "internalType": "uint256",
                  "name": "createdAt",
                  "type": "uint256"
                },
                {
                  "internalType": "uint256",
                  "name": "updatedConditionsAt",
                  "type": "uint256"
                },
                {
                  "internalType": "bytes",
                  "name": "extraParams",
                  "type": "bytes"
                }
              ],
              "internalType": "struct LimitOrderLibrary.LimitOrder",
              "name": "order",
              "type": "tuple"
            },
            {
              "components": [
                {
                  "internalType": "uint256",
                  "name": "managerType",
                  "type": "uint256"
                },
                {
                  "internalType": "bytes",
                  "name": "params",
                  "type": "bytes"
                }
              ],
              "internalType": "struct LimitOrderLibrary.Condition[]",
              "name": "closeConditions",
              "type": "tuple[]"
            },
            {
              "components": [
                {
                  "internalType": "uint256",
                  "name": "shares",
                  "type": "uint256"
                },
                {
                  "components": [
                    {
                      "internalType": "address",
                      "name": "to",
                      "type": "address"
                    },
                    {
                      "components": [
                        {
                          "internalType": "string",
                          "name": "dexName",
                          "type": "string"
                        },
                        {
                          "internalType": "uint256",
                          "name": "shares",
                          "type": "uint256"
                        },
                        {
                          "internalType": "bytes",
                          "name": "payload",
                          "type": "bytes"
                        }
                      ],
                      "internalType": "struct PrimexPricingLibrary.Path[]",
                      "name": "paths",
                      "type": "tuple[]"
                    }
                  ],
                  "internalType": "struct PrimexPricingLibrary.Route[]",
                  "name": "routes",
                  "type": "tuple[]"
                }
              ],
              "internalType": "struct PrimexPricingLibrary.MegaRoute[]",
              "name": "firstAssetMegaRoutes",
              "type": "tuple[]"
            },
            {
              "components": [
                {
                  "internalType": "uint256",
                  "name": "shares",
                  "type": "uint256"
                },
                {
                  "components": [
                    {
                      "internalType": "address",
                      "name": "to",
                      "type": "address"
                    },
                    {
                      "components": [
                        {
                          "internalType": "string",
                          "name": "dexName",
                          "type": "string"
                        },
                        {
                          "internalType": "uint256",
                          "name": "shares",
                          "type": "uint256"
                        },
                        {
                          "internalType": "bytes",
                          "name": "payload",
                          "type": "bytes"
                        }
                      ],
                      "internalType": "struct PrimexPricingLibrary.Path[]",
                      "name": "paths",
                      "type": "tuple[]"
                    }
                  ],
                  "internalType": "struct PrimexPricingLibrary.Route[]",
                  "name": "routes",
                  "type": "tuple[]"
                }
              ],
              "internalType": "struct PrimexPricingLibrary.MegaRoute[]",
              "name": "depositInThirdAssetMegaRoutes",
              "type": "tuple[]"
            },
            {
              "internalType": "bytes",
              "name": "firstAssetOracleData",
              "type": "bytes"
            },
            {
              "internalType": "bytes",
              "name": "thirdAssetOracleData",
              "type": "bytes"
            },
            {
              "internalType": "bytes",
              "name": "depositSoldAssetOracleData",
              "type": "bytes"
            },
            {
              "internalType": "bytes",
              "name": "positionUsdOracleData",
              "type": "bytes"
            },
            {
              "internalType": "bytes",
              "name": "nativePositionAssetOracleData",
              "type": "bytes"
            },
            {
              "internalType": "bytes",
              "name": "pmxPositionAssetOracleData",
              "type": "bytes"
            },
            {
              "internalType": "bytes",
              "name": "nativeSoldAssetOracleData",
              "type": "bytes"
            },
            {
              "internalType": "uint256",
              "name": "borrowedAmount",
              "type": "uint256"
            }
          ],
          "internalType": "struct LimitOrderLibrary.OpenPositionByOrderParams",
          "name": "_params",
          "type": "tuple"
        }
      ],
      "name": "openPositionByOrder",
      "outputs": [
        {
          "internalType": "uint256",
          "name": "",
          "type": "uint256"
        },
        {
          "internalType": "uint256",
          "name": "",
          "type": "uint256"
        },
        {
          "internalType": "uint256",
          "name": "",
          "type": "uint256"
        },
        {
          "internalType": "uint256",
          "name": "",
          "type": "uint256"
        },
        {
          "internalType": "uint256",
          "name": "",
          "type": "uint256"
        }
      ],
      "stateMutability": "nonpayable",
      "type": "function"
    },
    {
      "inputs": [],
      "name": "oracleTolerableLimitMultiplier",
      "outputs": [
        {
          "internalType": "uint256",
          "name": "",
          "type": "uint256"
        }
      ],
      "stateMutability": "view",
      "type": "function"
    },
    {
      "inputs": [
        {
          "internalType": "uint256",
          "name": "_positionId",
          "type": "uint256"
        },
        {
          "internalType": "uint256",
          "name": "_amount",
          "type": "uint256"
        },
        {
          "internalType": "address",
          "name": "_depositReceiver",
          "type": "address"
        },
        {
          "components": [
            {
              "internalType": "uint256",
              "name": "shares",
              "type": "uint256"
            },
            {
              "components": [
                {
                  "internalType": "address",
                  "name": "to",
                  "type": "address"
                },
                {
                  "components": [
                    {
                      "internalType": "string",
                      "name": "dexName",
                      "type": "string"
                    },
                    {
                      "internalType": "uint256",
                      "name": "shares",
                      "type": "uint256"
                    },
                    {
                      "internalType": "bytes",
                      "name": "payload",
                      "type": "bytes"
                    }
                  ],
                  "internalType": "struct PrimexPricingLibrary.Path[]",
                  "name": "paths",
                  "type": "tuple[]"
                }
              ],
              "internalType": "struct PrimexPricingLibrary.Route[]",
              "name": "routes",
              "type": "tuple[]"
            }
          ],
          "internalType": "struct PrimexPricingLibrary.MegaRoute[]",
          "name": "_megaRoutes",
          "type": "tuple[]"
        },
        {
          "internalType": "uint256",
          "name": "_amountOutMin",
          "type": "uint256"
        },
        {
          "internalType": "bytes",
          "name": "_positionSoldAssetOracleData",
          "type": "bytes"
        },
        {
          "internalType": "bytes",
          "name": "_nativePositionAssetOracleData",
          "type": "bytes"
        },
        {
          "internalType": "bytes",
          "name": "_nativeSoldAssetOracleData",
          "type": "bytes"
        },
        {
          "internalType": "bytes",
          "name": "_pmxSoldAssetOracleData",
          "type": "bytes"
        },
        {
          "internalType": "bytes[][]",
          "name": "_pullOracleData",
          "type": "bytes[][]"
        },
        {
          "internalType": "uint256[]",
          "name": "_pullOracleTypes",
          "type": "uint256[]"
        }
      ],
      "name": "partiallyClosePosition",
      "outputs": [],
      "stateMutability": "payable",
      "type": "function"
    },
    {
      "inputs": [],
      "name": "pause",
      "outputs": [],
      "stateMutability": "nonpayable",
      "type": "function"
    },
    {
      "inputs": [],
      "name": "paused",
      "outputs": [
        {
          "internalType": "bool",
          "name": "",
          "type": "bool"
        }
      ],
      "stateMutability": "view",
      "type": "function"
    },
    {
      "inputs": [],
      "name": "positionManagerExtension",
      "outputs": [
        {
          "internalType": "address",
          "name": "",
          "type": "address"
        }
      ],
      "stateMutability": "view",
      "type": "function"
    },
    {
      "inputs": [],
      "name": "positionsId",
      "outputs": [
        {
          "internalType": "uint256",
          "name": "",
          "type": "uint256"
        }
      ],
      "stateMutability": "view",
      "type": "function"
    },
    {
      "inputs": [],
      "name": "priceOracle",
      "outputs": [
        {
          "internalType": "contract IPriceOracleV2",
          "name": "",
          "type": "address"
        }
      ],
      "stateMutability": "view",
      "type": "function"
    },
    {
      "inputs": [],
      "name": "primexDNS",
      "outputs": [
        {
          "internalType": "contract IPrimexDNSV3",
          "name": "",
          "type": "address"
        }
      ],
      "stateMutability": "view",
      "type": "function"
    },
    {
      "inputs": [],
      "name": "registry",
      "outputs": [
        {
          "internalType": "contract IAccessControl",
          "name": "",
          "type": "address"
        }
      ],
      "stateMutability": "view",
      "type": "function"
    },
    {
      "inputs": [],
      "name": "securityBuffer",
      "outputs": [
        {
          "internalType": "uint256",
          "name": "",
          "type": "uint256"
        }
      ],
      "stateMutability": "view",
      "type": "function"
    },
    {
      "inputs": [
        {
          "internalType": "address",
          "name": "_newPositionManagerExtension",
          "type": "address"
        }
      ],
      "name": "setPositionManagerExtension",
      "outputs": [],
      "stateMutability": "nonpayable",
      "type": "function"
    },
    {
      "inputs": [
        {
          "internalType": "bytes",
          "name": "_data",
          "type": "bytes"
        }
      ],
      "name": "setProtocolParamsByAdmin",
      "outputs": [],
      "stateMutability": "nonpayable",
      "type": "function"
    },
    {
      "inputs": [],
      "name": "spotTradingRewardDistributor",
      "outputs": [
        {
          "internalType": "contract ISpotTradingRewardDistributorV2",
          "name": "",
          "type": "address"
        }
      ],
      "stateMutability": "view",
      "type": "function"
    },
    {
      "inputs": [
        {
          "internalType": "bytes4",
          "name": "_interfaceId",
          "type": "bytes4"
        }
      ],
      "name": "supportsInterface",
      "outputs": [
        {
          "internalType": "bool",
          "name": "",
          "type": "bool"
        }
      ],
      "stateMutability": "view",
      "type": "function"
    },
    {
      "inputs": [],
      "name": "traderBalanceVault",
      "outputs": [
        {
          "internalType": "contract ITraderBalanceVault",
          "name": "",
          "type": "address"
        }
      ],
      "stateMutability": "view",
      "type": "function"
    },
    {
      "inputs": [
        {
          "internalType": "address",
          "name": "",
          "type": "address"
        },
        {
          "internalType": "uint256",
          "name": "",
          "type": "uint256"
        }
      ],
      "name": "traderPositionIds",
      "outputs": [
        {
          "internalType": "uint256",
          "name": "",
          "type": "uint256"
        }
      ],
      "stateMutability": "view",
      "type": "function"
    },
    {
      "inputs": [],
      "name": "unpause",
      "outputs": [],
      "stateMutability": "nonpayable",
      "type": "function"
    },
    {
      "inputs": [
        {
          "internalType": "uint256",
          "name": "_positionId",
          "type": "uint256"
        },
        {
          "components": [
            {
              "internalType": "uint256",
              "name": "managerType",
              "type": "uint256"
            },
            {
              "internalType": "bytes",
              "name": "params",
              "type": "bytes"
            }
          ],
          "internalType": "struct LimitOrderLibrary.Condition[]",
          "name": "_closeConditions",
          "type": "tuple[]"
        }
      ],
      "name": "updatePositionConditions",
      "outputs": [],
      "stateMutability": "nonpayable",
      "type": "function"
    }
  ],
  "transactionHash": "0xc7e39f4eeab4aa76218272bdb0e7eb61d14c0608203d767d0cb1bfcd2d874301",
  "args": [],
  "numDeployments": 5,
  "solcInputHash": "b9821e6aa5ae8bcd6a583375e546781d",
  "bytecode": "0x6080806040523460bd576000549060ff8260081c16606b575060ff808216036031575b6040516150e290816100c38239f35b60ff90811916176000557f7f26b83ff96e1f2b6a682f133852f6798a09c465da95921460cefb3847402498602060405160ff8152a1386022565b62461bcd60e51b815260206004820152602760248201527f496e697469616c697a61626c653a20636f6e747261637420697320696e697469604482015266616c697a696e6760c81b6064820152608490fd5b600080fdfe61068080604052600436101561001457600080fd5b600061058052610580513560e01c90816301ffc9a7146137ec575080630bbabf29146137cc5780630f2bd839146137795780631555ec02146136b95780631785884c1461368e578063212d55ec1461366e5780632630c12f146136435780633587647614613189578063365b03e4146131695780633bf7771f146130595780633f4a2d271461302e5780633f4ba83a14612f13578063414d19e314612bf857806344ff7dc314612bcd57806350f4132214612ba25780635c975abb14612b7d57806360fa88e414612b3f57806362ad9e9e1461293b578063659be0531461291057806368a270c114612866578063777d24c0146128465780637b1039991461281b5780637fa5056714611bea5780638262b7c514611b825780638456cb5914611a68578063898e971a14610d9d5780638992c91114610d7d5780639968861e14610d525780639c68a60814610d32578063a41b4ea414610ce7578063a8905dab14610cb3578063ac55640014610968578063b35ac7321461090e578063bb8313c2146108ee578063bd83eb4c14610827578063c5194ffb14610778578063c66c2536146106cb578063cc2ea79514610474578063d64470e91461041a578063d7638a46146103dc578063e3d7bb3314610382578063e92d529a14610357578063ea0341a81461026f5763eb02c3011461020c57600080fd5b34610268576020366003190112610268576004356102286140a4565b50610232816147dd565b610580515260dc6020526102646102586102526040610580512054614107565b50614126565b60405191829182613969565b0390f35b6105805180fd5b3461026857602036600319011261026857600435610580515260d3602052604061058051208054906102a08261435d565b916102ae6040519384613b27565b80835260208301809261058051526020610580512061058051915b83831061033957848660405191829160208301906020845251809152604083019060408160051b850101929161058051905b82821061030a57505050500390f35b919360019193955060206103298192603f198a82030186528851613880565b96019201920185949391926102fb565b6002602060019261034985613c5c565b8152019201920191906102c9565b3461026857610580513660031901126102685760d8546040516001600160a01b039091168152602090f35b34610268576020366003190112610268576004356001600160401b038111610268576103ce6103b86103d492369060040161393c565b60e0546001600160a01b03169291369190614243565b90614e82565b506105805180f35b34610268576020366003190112610268576001600160a01b036103fd6138e6565b16610580515260d260205260206040610580512054604051908152f35b34610268576040366003190112610268576104336138e6565b6024359060018060a01b0316610580515260d16020526040610580512080548210156102685760209161046591613a4c565b90549060031b1c604051908152f35b346102685760c03660031901126102685761048d613912565b60643580151590819003610268576084356001600160401b038111610268576104ba9036906004016138a0565b90926104c4614f12565b6104cc614f68565b600435610580515260dc6020526104e96040610580512054614107565b5060d65460d75460d55460405193976001600160a01b039384169392831692909116906101008501908582106001600160401b038311176106b15760209761054f9260405260243587528887019760018060a01b0316885260408701998a523691614374565b91606085019283526080850193845260a0850190815260c085019182526105c960e086019360a4358552604051998a98899863f7e2251760e01b8a528d60048b0152604060248b01525160448a015260018060a01b03905116606489015251151560848801525161010060a48801526101448701906145fc565b93516001600160a01b0390811660c48701529051811660e486015290511661010484015251610124830152038173e31a74961DE60A4c117e000734F5079728CEB83F5af49081156106a357610580519161066c575b507fad6b2ae912630f53b4805f4a0718a98a9cc995c7ac0dd218a8850dd8464a745160408354926001808060a01b0360078701541695015482519182526020820152a3600180556105805180f35b90506020813d60201161069b575b8161068760209383613b27565b8101031261069657518261061e565b600080fd5b3d915061067a565b6040513d61058051823e3d90fd5b634e487b7160e01b61058051526041600452602461058051fd5b34610268576060366003190112610268576106e46138e6565b6106ec6138fc565b6106f4614749565b739216e34b2458B492b25abDE8546e56CA8A1acCD590813b1561026857604051636336129b60e11b81526001600160a01b0393841660048201529216602483015260448035908301526105805190829060649082905af480156106a35761075d575b6105805180f35b6105805161076a91613b27565b610580516102685780610756565b34610268576020366003190112610268576107916138e6565b60d454604051632474521560e21b815261058051600482015233602482015290602090829060449082906001600160a01b03165afa9081156106a35761058051916107f8575b50156107e65761075690614d85565b60405163036be76f60e61b8152600490fd5b61081a915060203d602011610820575b6108128183613b27565b810190613ca5565b826107d7565b503d610808565b3461026857602036600319011261026857600435610844816147dd565b610580515260dc60205261088760206108666102526040610580512054614107565b60405180938192632ac0a2ad60e21b835284600484015260248301906142b3565b038173e31a74961DE60A4c117e000734F5079728CEB83F5af480156106a35761058051906108bb575b602090604051908152f35b506020813d6020116108e6575b816108d560209383613b27565b8101031261069657602090516108b0565b3d91506108c8565b34610268576105805136600319011261026857602060da54604051908152f35b34610268576040366003190112610268576109276138e6565b61092f6138fc565b9060018060a01b0316610580515260c9602052604061058051209060018060a01b03166000526020526020604060002054604051908152f35b346102685761097636613a18565b604051622b155960ea1b60208083019190915260248201526001600160a01b0361099f83613928565b16604482015260208201356101be1983360301811215610268576101a06064830152820180356001600160a01b038116908190036102685783610180610c44610c23610c02610be1610bc0610ba0610b80610b61610b42610b22610c6c9f8f610c5b9f819f610af1610b1092610b05926101e486015260018060a01b03610a2860208301613928565b166102048601526001600160a01b03610a4360408301613928565b1661022486015260608101356102448601526001600160a01b03610a6960808301613928565b1661026486015260a08101356102848601526001600160a01b03610a8f60c08301613928565b166102a486015260e08101356102c48601526101008101356102e4860152610120810135610304860152610ac66101408201613a7a565b15156103248601526101608101356103448601526101808101356103648601526101a0810190613cde565b6101c06103848601526103a4850191613cbd565b926040810190613d6f565b91608460431982860301910152614029565b8c610b3060608e018e613d6f565b9160a460431982860301910152613e49565b610b4f60808c018c613d6f565b8d83036043190160c48f015290613e49565b610b6e60a08b018b613cde565b8c83036043190160e48e015290613cbd565b610b8d60c08a018a613cde565b8b8303604319016101048d015290613cbd565b610bad60e0890189613cde565b8a8303604319016101248c015290613cbd565b610bce610100880188613cde565b898303604319016101448b015290613cbd565b610bef610120870187613cde565b888303604319016101648a015290613cbd565b610c10610140860186613cde565b8783036043190161018489015290613cbd565b610c31610160850185613cde565b868303604319016101a488015290613cbd565b9101356101c483015203601f198101835282613b27565b60e0546001600160a01b0316614e82565b60a0818051810103126102685780602060a0920151906040810151906060810151846080830151920151926040519485526020850152604084015260608301526080820152f35b34610268576040366003190112610268576020610cdf610cd16138e6565b610cd96138fc565b9061427a565b604051908152f35b3461026857604036600319011261026857610d006138e6565b6024359060018060a01b0316610580515260d26020526040610580512080548210156102685760209161046591613a4c565b34610268576105805136600319011261026857602060ce54604051908152f35b3461026857610580513660031901126102685760d5546040516001600160a01b039091168152602090f35b34610268576105805136600319011261026857602060ca54604051908152f35b61012036600319011261026857610db26138fc565b610200526044356001600160401b03811161026857610dd59036906004016138a0565b6104a052610460526084356001600160401b03811161026857610dfc90369060040161393c565b610100526101205260a4356001600160401b03811161026857610e2390369060040161393c565b610140526101605260c4356001600160401b03811161026857610e4a90369060040161393c565b610180526101e05260e4356001600160401b03811161026857610e719036906004016138a0565b610104356001600160401b03811161026857610e919036906004016138a0565b91610e9a614f12565b610ea2614f68565b610eaa613b48565b60206104c0819052604051610480819052919591610ec89190613b27565b610580516104805152601f196104c05101366104c05161048051013760405161022052610efb6104c05161022051613b27565b610580516102205152601f196104c05101366104c05161022051013760405161024052610f2e6104c05161024051613b27565b610580516102405152601f196104c05101366104c051610240510137604051610f5681613ad4565b610580518152610580516104c0518201526105805160408201526105805160608201526105805160808201526105805160a08201526105805160c08201526105805160e08201526105805161010082015261012061058051910152610fbc6004356147dd565b610200516001600160a01b031615611a565760d7546001600160a01b031690813b156102685761100e926110256040519687958694859463f197ce3560e01b8652604060048701526044860191613da3565b906003198483030160248501526105805197613dfd565b039134905af180156106a357611a3b575b506040516102605261104a61026051613af0565b6110526140a4565b6102605152610580516104c051610260510152610580516040610260510152610580516060610260510152600435610580515260dc6104c0515261109f6102526040610580512054614107565b8061026051526104c051015115156104c051610260510152610580515061058051506104c05161026051015115158060606102605101526118c9575b61026051805160c081015160808201516101a0526104c08051808401516101c05260408086015160d65460d75460d554949098015160a08801516060909801519351631dae49b960e21b81526001600160a01b03988916600482015293881660248501529451959892979415159692959383169483169392169187604481865afa9687156106a3576105805197611890575b5060cb546102605160600151151560a05260d8546001600160a01b031660e05260405160c08190529098906111a190613b0b565b60c051526101a0516104c05160c05101526101c051604060c051015260018060a01b036102005116606060c05101526111e1366104a05161046051614374565b608060c051015260643560a060c051015260c08051015260e060c051015261010060c051015261012060c051015261014060c05101526104805161016060c051015261018060c05101526101a060c05101526101c060c051015260a0516101e060c05101526105805161020060c051015260e05161022060c051015261126e366101005161012051614243565b61024060c0510152611287366101405161016051614243565b61026060c05101526112a036610180516101e051614243565b61028060c051015261147e6101406112d961026051516040519384928392630b2aa09960e11b84526060600485015260648401906142b3565b60031983820301602484015260c0515181526104c05160c05101516104c051820152604060c0510151604082015260018060a01b03606060c05101511660608201526114666114506113da6113c4611344608060c05101516102a060808801526102a08701906145fc565b60a060c051015160a087015260c08051015160c087015260018060a01b0360e060c05101511660e087015260018060a01b0361010060c05101511661010087015260018060a01b0361012060c05101511661012087015260408a60c05101518783038c890152805183526104c051015191816104c051820152019061383f565b61016060c051015185820361016087015261383f565b61018060c051015115156101808501526101a060c05101516101a08501526101c060c05101516101c08501526101e060c051015115156101e085015261020060c051015161020085015260018060a01b0361022060c05101511661022085015261024060c051015184820361024086015261383f565b61026060c051015183820361026085015261383f565b9061028060c05101519061028081840391015261383f565b610580516044830152038173e31a74961DE60A4c117e000734F5079728CEB83F5af49081156106a35761058051916117ca575b506102605151604081015160e0909101516114db916001600160a01b0391821691166004356149f7565b6105805161158b575b60a081015160c082015160e0830151926001600160a01b03928316929091169060088410156115715761010081015161012090910151604080516001600160a01b039094168452602084019290925290820152600435907f68c1d3a775fd37da20ef77475b9074ee3b57e4d73d94e046e892720b5043ff729080606081015b0390a4600180556105805180f35b634e487b7160e01b61058051526021600452602461058051fd5b60d854610260515160a081015160c09091015160808401516001600160a01b03928316939192909116906005811015611571575a610580510390816117b0576104c051604051906115dc9082613b27565b61058051815260003681376040516104c0516104c05182015261161b8161160d604082016104a05161046051613e49565b03601f198101835282613b27565b51906040519361162a85613ad4565b610200516001600160a01b031685526104c0518501978852604085019687526060850193845260016080860190815260a0860191825260c0860192835260e0860193845261022051610100870190815261024051610120880190815298909590883b156102685760405163ee4bc79960e01b81526104c051600482015297516001600160a01b0390811660248a01529a51909a166044880152985160648701529751949761016489019560058110156115715790899796959493929160848901525160a48801525160c4870152519261014060e487015283518091526101848601936104c0510190610580515b81811061179557505050611746859384936117609351610104860152516023198583030161012486015261383f565b95518287036023190161014484015261058051969061383f565b039161058051905af180156106a35761177a575b506114e4565b6105805161178791613b27565b610580516102685781611774565b825186526104c0518a98509586019590920191600101611717565b634e487b7160e01b61058051526011600452602461058051fd5b9050610140813d8211611888575b816117e66101409383613b27565b8101031261026857604051906117fb82613ad4565b805182526104c0518101516104c05183015260408101516040830152606081015160608301526080810151600581101561026857608083015261184060a08201614fdb565b60a083015261185160c08201614fdb565b60c083015260e0810151906008821015610268576101209160e08401526101008101516101008401520151610120820152816114b1565b3d91506117d8565b9096506104c0513d6104c051116118c2575b6118ac8183613b27565b816104c05191810103126106965751958861116d565b503d6118a2565b610260515160a08101516060909101516118ef916001600160a01b03918216911661427a565b604061026051015260018060a01b0360d4541660405190632474521560e21b82527f5770eb0b3cb4d032328b9b2070b33a4b2779280a0ec69c0dfa26ce7c00bb68286004830152336024830152816044816104c051935afa9081156106a3576105805191611a1b575b50156110db57610260516040015160ce54610580516080528015919082156119f8575b5050156119e3576706f05b59d3b2000060805101608051116117b0576080516706f05b59d3b200008101106119ce57670de0b6b3a76400006706f05b59d3b20000608051010460406102605101526110db565b630a77254f60e01b6105805152600461058051fd5b631550e8b760e01b6105805152600461058051fd5b819250611a0881611a1393614825565b608052608051614fef565b14828061197b565b6104c051611a3592503d8111610820576108128183613b27565b82611958565b61058051611a4891613b27565b610580516102685781611036565b60405163044aa57560e41b8152600490fd5b3461026857610580513660031901126102685760d454604051632474521560e21b81527f5c91514091af31f62f596a314af7d5be40146b2f2355969392f055e12e0982fb600482015233602482015290602090829060449082906001600160a01b03165afa9081156106a3576105805191611b63575b50156107e65760655460ff8116611b2b5760019060ff1916176065557f62e78cea01bee320cd4e420270b5ea74000d11b0c9f74754ebdbfc544b05a2586020604051338152a16105805180f35b60405162461bcd60e51b815260206004820152601060248201526f14185d5cd8589b194e881c185d5cd95960821b6044820152606490fd5b611b7c915060203d602011610820576108128183613b27565b81611ade565b34610268576040366003190112610268576024356001600160401b03811161026857610c5b611bb86103d49236906004016138a0565b61160d604093929351938492638262b7c560e01b60208501526004356024850152604060448501526064840191614029565b611bf336613a18565b61056052611bff614f12565b600760a06105605101351015610268576105605160a00135156107e657611c24614f68565b5a6104e052611c31613b48565b60606105605101356105605135610580515260d3602052604061058051205481106127eb575b50611c6760206105605101613c91565b6103c052611c7e60406105605101610560516141c1565b6105205261054052611c9960806105605101610560516141f6565b91906105805150611cb360c06105605101610560516141f6565b6103005261032052611cce60e06105605101610560516141f6565b6105a05292611ce76101206105605101610560516141f6565b6103405261036052611d036101406105605101610560516141f6565b610380526103a052611d7d611d226101006105605101610560516141f6565b61050052611d3a6101606105605101610560516141c1565b929091611d6e611d61611d576101806105605101610560516141c1565b9890973691614243565b9836906105a05190614243565b61040052610500513691614243565b61042052604051611d8d81613ad4565b6105805181526105805160208201526105805160408201526105805160608201526105805160808201526105805160a08201526105805160c08201526105805160e08201526105805161010082015261012061058051910152611df361056051356147dd565b6103c0516001600160a01b031615611a565760d7546001600160a01b031690813b156102685761100e92611e456040519687958694859463f197ce3560e01b8652604060048701526044860191613da3565b039134905af180156106a3576127d8575b5060405161044052611e6a61044051613af0565b611e726140a4565b61044051526105805160206104405101526105805160406104405101526105805160606104405101526105605135610580515260dc6020526020611ebf6102526040610580512054614107565b806104405152015115156020610440510152600760a06105605101351015611571576104408051600160609182015290515160a0810151910151611f0f916001600160a01b03918216911661427a565b60406104405101526044602060018060a01b0360d4541660405192838092632474521560e21b82527f5770eb0b3cb4d032328b9b2070b33a4b2779280a0ec69c0dfa26ce7c00bb682860048301523360248301525afa9081156106a35761058051916127b9575b50612733575b61044051805160c081015160808201516102a0526020808301516103e05260408085015160d65460d75460d5549785015160a08801516060909801519451631dae49b960e21b81526001600160a01b0398891660048201529488166024860152959993989515159793969384169490841693909116919088604481865afa9788156106a35761058051986126ff575b5060cb54610440516060015115156102805260d8546001600160a01b03166102e0526040516102c081905290999061204290613b0b565b6102c051526102a05160206102c05101526103e05160406102c051015260018060a01b036103c0511660606102c0510152612084366105205161054051614374565b60806102c05101526105805160a06102c051015260c06102c051015260e06102c05101526101006102c05101526101206102c05101526101406102c05101526101606102c05101526101806102c05101526101a06102c05101526101c06102c0510152610280516101e06102c05101526104e0516102006102c05101526102e0516102206102c051015261211f366103005161032051614243565b6102406102c0510152612139366103405161036051614243565b6102606102c051015261215336610380516103a051614243565b6102806102c051015261234061014061218d61044051516040519384928392630b2aa09960e11b84526060600485015260648401906142b3565b6003198382030160248401526102c05151815260206102c0510151602082015260406102c0510151604082015260018060a01b0360606102c051015116606082015261232761231061229361227c6121f960806102c05101516102a060808801526102a08701906145fc565b60a06102c051015160a087015260c06102c051015160c087015260018060a01b0360e06102c05101511660e087015260018060a01b036101006102c05101511661010087015260018060a01b036101206102c051015116610120870152604060208b6102c05101518884038d8a015280518452015191816020820152019061383f565b6101606102c051015185820361016087015261383f565b6101806102c051015115156101808501526101a06102c05101516101a08501526101c06102c05101516101c08501526101e06102c051015115156101e08501526102006102c051015161020085015260018060a01b036102206102c0510151166102208501526102406102c051015184820361024086015261383f565b6102606102c051015183820361026085015261383f565b906102806102c05101519061028081840391015261383f565b6105605160a001356044830152038173e31a74961DE60A4c117e000734F5079728CEB83F5af49081156106a357610580519161263d575b506104405151604081015160e090910151610560516123a4926001600160a01b03928316921690356149f7565b61044051516101400151420361243a575b60a081015160c082015160e0830151926001600160a01b0392831692909116906008841015611571576101008101516101209091015160408051610560516001600160a01b03909516815260208101939093528201529035907f68c1d3a775fd37da20ef77475b9074ee3b57e4d73d94e046e892720b5043ff72908060608101611563565b60d854610440515160a081015160c09091015160808401516001600160a01b03928316939192909116906005811015611571575a6104e05103906104e05182116126275760405160209261248e8483613b27565b610580518252600036813760405184808201526124b98161160d604082016105205161054051613e49565b5191604051916124c883613ad4565b6103c0516001600160a01b03168352858301988952604083019788526060830194855260016080840190815260a0840191825260c0840192835260e0840194855261040051610100850190815261042051610120860190815299909690893b156102685760405163ee4bc79960e01b8152600481018a905295516001600160a01b0390811660248801529b51909b16604486015299516064850152985192986101648a019360058110156115715760848b01525160a48a01525160c48901525161014060e489015280519182905261058051889695610184880195949392810192915b8281106126105750505050611746859384936125db9351610104860152516023198583030161012486015261383f565b039161058051905af180156106a3576125f5575b506123b5565b6105805161260291613b27565b6105805161026857816125ef565b835187528a985095810195928101926001016125ab565b634e487b7160e01b600052601160045260246000fd5b9050610140813d82116126f7575b816126596101409383613b27565b81010312610268576040519061266e82613ad4565b80518252602081015160208301526040810151604083015260608101516060830152608081015160058110156102685760808301526126af60a08201614fdb565b60a08301526126c060c08201614fdb565b60c083015260e0810151906008821015610268576101209160e0840152610100810151610100840152015161012082015281612377565b3d915061264b565b9097506020813d60201161272b575b8161271b60209383613b27565b810103126106965751968961200b565b3d915061270e565b610440516040015160ce546105805191811591908215612799575b5050156119e3576706f05b59d3b20000810181116117b057806706f05b59d3b200008101106119ce576706f05b59d3b20000670de0b6b3a76400009101046040610440510152611f7c565b915091506127b16127aa8383614825565b9283614fef565b14848061274e565b6127d2915060203d602011610820576108128183613b27565b83611f76565b610580516127e591613b27565b82611e56565b612815915061280f906105605135610580515260d360205260406105805120613b62565b50613c5c565b81611c57565b3461026857610580513660031901126102685760d4546040516001600160a01b039091168152602090f35b34610268576105805136600319011261026857602060cb54604051908152f35b3461026857602036600319011261026857600435612883816147dd565b610580515260dc60205261289d6040610580512054614107565b50600201546001600160a01b0316806128c257506020610580515b6040519015158152f35b602060049160405192838092634ad09aa560e01b82525afa80156106a35760209161058051916128f3575b506128b8565b61290a9150823d8411610820576108128183613b27565b826128ed565b3461026857610580513660031901126102685760e0546040516001600160a01b039091168152602090f35b61016036600319011261026857612950613912565b6064356001600160401b0381116102685761296f9036906004016138a0565b919060a4356001600160401b0381116102685761299090369060040161393c565b9060c4356001600160401b038111610268576129b090369060040161393c565b9060e4356001600160401b038111610268576129d090369060040161393c565b90610104356001600160401b038111610268576129f190369060040161393c565b929093610124356001600160401b03811161026857612a149036906004016138a0565b969097610144356001600160401b03811161026857612a379036906004016138a0565b9a909b6040519e8f9e8f90633156cf4f60e11b602083015260043560248301526024356044830152600160a01b600190031660648201526084810161016090526101840190612a8592613e49565b60843560a48f01528d81036023190160c48f0152612aa592909190613cbd565b906023198c83030160e48d0152612abb92613cbd565b906023198a8303016101048b0152612ad292613cbd565b9060231988830301610124890152612ae992613cbd565b9060231986830301610144870152612b0092613da3565b9060231984830301610164850152612b1792613dfd565b03601f1981018252612b299082613b27565b60e0546103d491906001600160a01b0316614e82565b34610268576020366003190112610268576001600160a01b03612b606138e6565b16610580515260d160205260206040610580512054604051908152f35b34610268576105805136600319011261026857602060ff606554166040519015158152f35b3461026857610580513660031901126102685760d9546040516001600160a01b039091168152602090f35b3461026857602036600319011261026857612be66140a4565b50610264610258610252600435614107565b6020366003190112610268576004356001600160401b03811161026857806004016102606003198336030112610268576040519063414d19e360e01b60208301526024820160209052612c4b8180613e21565b6102606044840152612c5d8180613cde565b6102a4850160609052610304850190612c7592613cbd565b9060208101356102c485015260408101612c8e91613d6f565b8483036102a319016102e4860152612ca69291613e49565b612cb36024850183613d6f565b848303604319016064860152612cc99291613e49565b6001600160a01b03612cdd60448601613928565b16608484810191909152606485013560a48501526001600160a01b0390612d05908601613928565b1660c484015260a484013560e484015260c484013561010484015260e48401612d2d90613a7a565b1515610124840152612d426101048501613a7a565b1515610144840152612d58610124850183613d6f565b84830360431901610164860152612d6f9291614029565b612d7d610144850183613cde565b84830360431901610184860152612d949291613cbd565b612da2610164850183613cde565b848303604319016101a4860152612db99291613cbd565b612dc7610184850183613cde565b848303604319016101c4860152612dde9291613cbd565b612dec6101a4850183613cde565b848303604319016101e4860152612e039291613cbd565b612e116101c4850183613cde565b84830360431901610204860152612e289291613cbd565b612e366101e4850183613cde565b84830360431901610224860152612e4d9291613cbd565b612e5b610204850183613cde565b84830360431901610244860152612e729291613cbd565b92612e81610224820183613d6f565b6043198587030161026486015280865260208601958160051b8101602001968361058051925b848410612edb576103d489610c5b8161160d8e612ec86102448e018f613d6f565b8483036043190161028486015290613dfd565b909192939498602080612f03600193612efd8e601f19888403018a5288613d6f565b90613d0f565b9b01940194019294939190612ea7565b3461026857610580513660031901126102685760d454604051632474521560e21b81527f5a7d4408f4759dddd7fdfd0d21abd99341dc2f52cda14804988a9b2df20766d8600482015233602482015290602090829060449082906001600160a01b03165afa9081156106a357610580519161300f575b50156107e65760655460ff811615612fd35760ff19166065557f5db9ee0a495bf2e6ff9c91a7834c1ba4fdd244a5e8aa4e537bd38aeae4b073aa6020604051338152a16105805180f35b60405162461bcd60e51b815260206004820152601460248201527314185d5cd8589b194e881b9bdd081c185d5cd95960621b6044820152606490fd5b613028915060203d602011610820576108128183613b27565b81612f89565b3461026857610580513660031901126102685760d6546040516001600160a01b039091168152602090f35b60c0366003190112610268576044356001600160401b0381116102685761308490369060040161393c565b6064356001600160401b038111610268576130a390369060040161393c565b926084356001600160401b038111610268576130c39036906004016138a0565b92909360a435926001600160401b0384116102685761315760c096610c5b9661314561160d966103d49b61313361310060649b36906004016138a0565b9890996040519e8f9d8e633bf7771f60e01b602082015260043560248201526024356044820152015260e48d0191613cbd565b8a81036023190160848c015291613cbd565b8781036023190160a489015291613da3565b8481036023190160c486015291613dfd565b34610268576105805136600319011261026857602060cf54604051908152f35b346102685760e0366003190112610268576131a26138e6565b6131aa6138fc565b6044356001600160a01b03811690819003610268576131c76138d0565b6084356001600160a01b038116908190036102685760a4356001600160a01b03811692908390036102685760c435936001600160a01b03851685036102685761058051549660ff8860081c161597888099613636575b801561361f575b156135c35788600160ff1983161761058051556135ae575b506040516301ffc9a760e01b8152637965db0b60e01b60048201526001600160a01b039190911696906020816024818b5afa9081156106a357610580519161358f575b508061352c575b806134d2575b8061346f575b80613415575b806133bb575b15611a565761332e966001600160601b0360a01b60d454161760d45560018060a01b03166001600160601b0360a01b60d654161760d6556001600160601b0360a01b60d554161760d55560018060a01b03166001600160601b0360a01b60d754161760d7556001600160601b0360a01b60d854161760d8556001600160601b0360a01b60df54161760df55614d85565b61058051549061337560ff8360081c1661334781614e22565b61335081614e22565b60ff196065541660655561336381614e22565b61336c81614e22565b60018055614e22565b613380576105805180f35b61ff00191661058051557f7f26b83ff96e1f2b6a682f133852f6798a09c465da95921460cefb3847402498602060405160018152a180610756565b506040516301ffc9a760e01b8152633df6cef760e01b6004820152602081602481895afa9081156106a35761058051916133f6575b5061329e565b61340f915060203d602011610820576108128183613b27565b896133f0565b506040516301ffc9a760e01b8152631e42d3e560e01b6004820152602081602481885afa9081156106a3576105805191613450575b50613298565b613469915060203d602011610820576108128183613b27565b8961344a565b506040516301ffc9a760e01b81526333ca6d2360e21b60048201526020816024816001600160a01b0388165afa9081156106a35761058051916134b3575b50613292565b6134cc915060203d602011610820576108128183613b27565b896134ad565b506040516301ffc9a760e01b81526312b3ed2b60e01b6004820152602081602481865afa9081156106a357610580519161350d575b5061328c565b613526915060203d602011610820576108128183613b27565b89613507565b506040516301ffc9a760e01b8152633f9940a760e11b60048201526020816024816001600160a01b0386165afa9081156106a3576105805191613570575b50613286565b613589915060203d602011610820576108128183613b27565b8961356a565b6135a8915060203d602011610820576108128183613b27565b8961327f565b6101019061ffff19161761058051558861323c565b60405162461bcd60e51b815260206004820152602e60248201527f496e697469616c697a61626c653a20636f6e747261637420697320616c72656160448201526d191e481a5b9a5d1a585b1a5e995960921b6064820152608490fd5b50303b1580156132245750600160ff821614613224565b50600160ff82161061321d565b3461026857610580513660031901126102685760d7546040516001600160a01b039091168152602090f35b34610268576105805136600319011261026857602060cc54604051908152f35b3461026857610580513660031901126102685760db546040516001600160a01b039091168152602090f35b34610268576080366003190112610268576004356001600160401b038111610268576136e99036906004016138a0565b906024356001600160401b038111610268576137099036906004016138a0565b9190604435926137176138d0565b90613720614749565b610580515b858110613733576105805180f35b8061374a6137446001938a89613c81565b356147dd565b613773613758828a89613c81565b358561376d61376885888b613c81565b613c91565b916149f7565b01613725565b3461026857604036600319011261026857613792613b48565b50600435610580515260d36020526102646137b861280f60243560406105805120613b62565b604051918291602083526020830190613880565b34610268576105805136600319011261026857602060d054604051908152f35b34610268576020366003190112610268576004359063ffffffff60e01b821680920361026857602091633d79d7fb60e11b811490811561382e575b5015158152f35b6301ffc9a760e01b14905083613827565b919082519283825260005b84811061386b575050826000602080949584010152601f8019910116010190565b8060208092840101518282860101520161384a565b906040602061389d9380518452015191816020820152019061383f565b90565b9181601f84011215610696578235916001600160401b038311610696576020808501948460051b01011161069657565b606435906001600160a01b038216820361069657565b600435906001600160a01b038216820361069657565b602435906001600160a01b038216820361069657565b604435906001600160a01b038216820361069657565b35906001600160a01b038216820361069657565b9181601f84011215610696578235916001600160401b038311610696576020838186019501011161069657565b6101a061016061389d9360208452805160208501526020810151604085015260018060a01b03604082015116606085015260018060a01b036060820151166080850152608081015160a085015260018060a01b0360a08201511660c085015260c081015160e085015260018060a01b0360e0820151166101008501526101008101516101208501526101208101516101408501526101408101518285015201519161018080820152019061383f565b602060031982011261069657600435906001600160401b038211610696576101a09082900360031901126106965760040190565b8054821015613a645760005260206000200190600090565b634e487b7160e01b600052603260045260246000fd5b3590811515820361069657565b604081019081106001600160401b03821117613aa257604052565b634e487b7160e01b600052604160045260246000fd5b61018081019081106001600160401b03821117613aa257604052565b61014081019081106001600160401b03821117613aa257604052565b608081019081106001600160401b03821117613aa257604052565b6102a081019081106001600160401b03821117613aa257604052565b90601f801991011681019081106001600160401b03821117613aa257604052565b60405190613b5582613a87565b6060602083600081520152565b8054821015613a645760005260206000209060011b0190600090565b90600182811c92168015613bae575b6020831014613b9857565b634e487b7160e01b600052602260045260246000fd5b91607f1691613b8d565b9060405191826000825492613bcc84613b7e565b8084529360018116908115613c3a5750600114613bf3575b50613bf192500383613b27565b565b90506000929192526020600020906000915b818310613c1e575050906020613bf19282010138613be4565b6020919350806001915483858901015201910190918492613c05565b905060209250613bf194915060ff191682840152151560051b82010138613be4565b90604051613c6981613a87565b6020613c7c600183958054855201613bb8565b910152565b9190811015613a645760051b0190565b356001600160a01b03811681036106965790565b90816020910312610696575180151581036106965790565b908060209392818452848401376000828201840152601f01601f1916010190565b9035601e19823603018112156106965701602081359101916001600160401b03821161069657813603831361069657565b90602083828152019260208260051b82010193836000925b848410613d375750505050505090565b909192939495602080613d5f600193601f19868203018852613d598b88613cde565b90613cbd565b9801940194019294939190613d27565b9035601e19823603018112156106965701602081359101916001600160401b038211610696578160051b3603831361069657565b90602083828152019260208260051b82010193836000925b848410613dcb5750505050505090565b909192939495602080613ded600193601f19868203018852612efd8b88613d6f565b9801940194019294939190613dbb565b81835290916001600160fb1b0383116106965760209260051b809284830137010190565b9035605e1982360301811215610696570190565b9035603e1982360301811215610696570190565b919061060052602081610600518152019060206106005160051b82010192806106405260006105e0525b610600516105e05110613e865750505090565b909192601f19838203018452613e9f6106405183613e35565b613eb56040830191803584526020810190613d6f565b839192604060208396015252606081019160608460051b8301016106605280916000925b858410613f0a575050505050506020610660519381610640510161064052019160016105e051016105e05290613e73565b605f19826106605103018552613f208184613e35565b6106605160400190613f4d906001600160a01b03613f3d82613928565b1661066051526020810190613d6f565b80926040602061066051015252606061066051019060608360051b6106605101016105c05280610620526000915b838310613fa057505050506020806001926105c0516106605201950193019293613ed9565b6020600191605f19610660516105c05103018152614012613fc46106205186613e21565b613ffe613fe8613fd48380613cde565b60606105c0515260606105c0510191613cbd565b9185810135866105c05101526040810190613cde565b906105c051830360406105c0510152613cbd565b6105c0528161062051016106205201920191613f7b565b90602083828152019260208260051b82010193836000925b8484106140515750505050505090565b909192939495602080614094600193601f1986820301885260406140856140788d8a613e35565b8035845285810190613cde565b91909281868201520191613cbd565b9801940194019294939190614041565b604051906140b182613ab8565b60606101608360008152600060208201526000604082015260008382015260006080820152600060a0820152600060c0820152600060e08201526000610100820152600061012082015260006101408201520152565b60cf54811015613a645760cf600052600c602060002091020190600090565b9060405161413381613ab8565b825481526001830154602082015260028301546001600160a01b039081166040830152600384015481166060830152600484015460808301526005840154811660a0830152600684015460c083015260078401541660e082015260088301546101008201526009830154610120820152600a83015461014082015291829061016090613c7c90600b01613bb8565b903590601e198136030182121561069657018035906001600160401b03821161069657602001918160051b3603831361069657565b903590601e198136030182121561069657018035906001600160401b0382116106965760200191813603831361069657565b6001600160401b038111613aa257601f01601f191660200190565b92919261424f82614228565b9161425d6040519384613b27565b829481845281830111610696578281602093846000960137010152565b6001600160a01b03908116600090815260cd602090815260408083209490931682529290925290205480156142ac5790565b5060ca5490565b9061018061016061389d93805184526020810151602085015260018060a01b03604082015116604085015260018060a01b0360608201511660608501526080810151608085015260018060a01b0360a08201511660a085015260c081015160c085015260018060a01b0360e08201511660e085015261010081015161010085015261012081015161012085015261014081015161014085015201519181610160820152019061383f565b6001600160401b038111613aa25760051b60200190565b909291610660526143848361435d565b926143926040519485613b27565b6020848281520191610660518260051b8201116106965780925b8260051b820184106143be5750505050565b83356001600160401b03811161069657820160408161066051031261069657604051906143ea82613a87565b803582526020810135906001600160401b038211610696570161066051601f8201121561069657803561441c8161435d565b9161442a6040519384613b27565b81835260208084019260051b820101906106605182116106965760208101925b82841061446a5750505050918160209384809401528152019301926143ac565b83356001600160401b0381116106965782016040601f198261066051030112610696576040519061449a82613a87565b6144a660208201613928565b825260408101356001600160401b03811161069657602091010161066051601f820112156106965780356144d98161435d565b916144e76040519384613b27565b81835260208084019260051b820101906106605182116106965760208101925b82841061452757505050509181602093848094015281520193019261444a565b83356001600160401b038111610696578201906060601f1983610660510301126106965760405191606083018381106001600160401b03821117613aa25760405260208101356001600160401b0381116106965760209082010161066051601f8201121561069657610660516145a291803590602001614243565b83526040810135602084015260608101356001600160401b0381116106965760209101019061066051601f83011215610696576020926145ec849361066051908581359101614243565b6040820152815201930192614507565b9080602083519182815201916020808360051b8301019401926000915b83831061462857505050505090565b9091929394601f1982820301835285519060206040820192805183520151916040602083015282518091526060820190602060608260051b85010194019260005b82811061468a57505050505060208060019297019301930191939290614619565b9091929394605f1983820301855285516020604083019160018060a01b0381511684520151916040602082015282518092526060810190602060608460051b8301019401926000915b8183106146f457505050505060208060019297019501910192919092614669565b909192939460208061473c600193605f198682030189528951906040614723835160608452606084019061383f565b928581015186840152015190604081840391015261383f565b97019501930191906146d3565b60d454604051632474521560e21b81527f28eb28c26cbbd48a6bfad016505ccf4a189452995f59d16217af8920961ed25c600482015233602482015290602090829060449082906001600160a01b03165afa9081156147d1576000916147b2575b50156107e657565b6147cb915060203d602011610820576108128183613b27565b386147aa565b6040513d6000823e3d90fd5b60cf5415159081614803575b50156147f157565b604051631eab2a3b60e31b8152600490fd5b80915060005260dc60205261481c604060002054614107565b505414386147e9565b8181029291811591840414171561262757565b818110614843575050565b60008155600101614838565b6148598154613b7e565b9081614863575050565b81601f60009311600114614875575055565b8183526020832061489191601f0160051c810190600101614838565b8082528160208120915555565b805480156148c75760001901906148b58282613a4c565b8154906000199060031b1b1916905555565b634e487b7160e01b600052603160045260246000fd5b9190918281146149f2576148f18354613b7e565b6001600160401b038111613aa2576149098254613b7e565b601f81116149b5575b50600093601f821160011461494f579381929394600092614944575b50508160011b916000199060031b1c1916179055565b01549050388061492e565b845260208085208386529085209094601f198316815b81811061499d57509583600195969710614984575b505050811b019055565b015460001960f88460031b161c1916905538808061497a565b9192600180602092868b015481550194019201614965565b6149e290836000526020600020601f840160051c810191602085106149e8575b601f0160051c0190614838565b38614912565b90915081906149d5565b509050565b91908260005260d360205260406000208054906000815581614d44575b50506001600160a01b0316600081815260d2602052604090208054600019810190811161262757614a4491613a4c565b90549060031b1c8160005260d2602052614a8e81614a7560406000208760005260de60205260406000205490613a4c565b90919082549060031b91821b91600019901b1916179055565b8360005260de6020526040600020549060005260de60205260406000205560005260d2602052614ac1604060002061489e565b600082815260de602090815260408083208390556001600160a01b039390931680835260d19091529190208054600019810190811161262757614b0391613a4c565b90549060031b1c8160005260d1602052614b3481614a7560406000208660005260dd60205260406000205490613a4c565b8260005260dd6020526040600020549060005260dd60205260406000205560005260d1602052614b67604060002061489e565b600081815260dd602052604081205560cf54600019810190811161262757614b8e90614107565b508160005260dc602052614ba6604060002054614107565b614c6f57818103614c85575b50508060005260dc60205260406000205460cf54600019810190811161262757614bdb90614107565b505460005260dc60205260406000205560cf5480156148c75760001901614c0181614107565b614c6f57600b816000614c5b93556000600182015560006002820155600060038201556000600482015560006005820155600060068201556000600782015560006008820155600060098201556000600a8201550161484f565b60cf5560005260dc60205260006040812055565b634e487b7160e01b600052600060045260246000fd5b815481556001808301549082015560028083015490820180546001600160a01b03199081166001600160a01b039384161790915560038085015490840180548316918416919091179055600480850154908401556005808501549084018054831691841691909117905560068085015490840155600780850154908401805490921692169190911790556008808301549082015560098083015490820155600a8083015490820155614d3d91600b90810191016148dd565b3880614bb2565b6001600160ff1b03821682036126275760005260206000209060011b8101905b81811015614a145780600060029255614d7f6001820161484f565b01614d64565b6040516301ffc9a760e01b815263caaf0f5760e01b60048201526001600160a01b039190911690602081602481855afa9081156147d157600091614e03575b5015611a565760e080546001600160a01b031916821790557fdddcc4cb45c2da1250e71ec604cb86c02f387bdcf776e6447f9bdf7d0ac50b00600080a2565b614e1c915060203d602011610820576108128183613b27565b38614dc4565b15614e2957565b60405162461bcd60e51b815260206004820152602b60248201527f496e697469616c697a61626c653a20636f6e7472616374206973206e6f74206960448201526a6e697469616c697a696e6760a81b6064820152608490fd5b9061389d9160008060405193614e99606086613b27565b602785527f416464726573733a206c6f772d6c6576656c2064656c65676174652063616c6c6020860152660819985a5b195960ca1b6040860152602081519101845af43d15614f0a573d91614eed83614228565b92614efb6040519485613b27565b83523d6000602085013e61500f565b60609161500f565b600260015414614f23576002600155565b60405162461bcd60e51b815260206004820152601f60248201527f5265656e7472616e637947756172643a207265656e7472616e742063616c6c006044820152606490fd5b60df54604051630723eb0360e51b815233600482015290602090829060249082906001600160a01b03165afa9081156147d157600091614fbc575b50614faa57565b6040516333df015b60e01b8152600490fd5b614fd5915060203d602011610820576108128183613b27565b38614fa3565b51906001600160a01b038216820361069657565b8115614ff9570490565b634e487b7160e01b600052601260045260246000fd5b919290156150715750815115615023575090565b3b1561502c5790565b60405162461bcd60e51b815260206004820152601d60248201527f416464726573733a2063616c6c20746f206e6f6e2d636f6e74726163740000006044820152606490fd5b8251909150156150845750805190602001fd5b60405162461bcd60e51b8152602060048201529081906150a890602483019061383f565b0390fdfea2646970667358221220cad023f194494decd35196aacc98ed036f4af50fc6cf95986ff4087e713afdfa64736f6c634300081a0033",
  "deployedBytecode": "0x61068080604052600436101561001457600080fd5b600061058052610580513560e01c90816301ffc9a7146137ec575080630bbabf29146137cc5780630f2bd839146137795780631555ec02146136b95780631785884c1461368e578063212d55ec1461366e5780632630c12f146136435780633587647614613189578063365b03e4146131695780633bf7771f146130595780633f4a2d271461302e5780633f4ba83a14612f13578063414d19e314612bf857806344ff7dc314612bcd57806350f4132214612ba25780635c975abb14612b7d57806360fa88e414612b3f57806362ad9e9e1461293b578063659be0531461291057806368a270c114612866578063777d24c0146128465780637b1039991461281b5780637fa5056714611bea5780638262b7c514611b825780638456cb5914611a68578063898e971a14610d9d5780638992c91114610d7d5780639968861e14610d525780639c68a60814610d32578063a41b4ea414610ce7578063a8905dab14610cb3578063ac55640014610968578063b35ac7321461090e578063bb8313c2146108ee578063bd83eb4c14610827578063c5194ffb14610778578063c66c2536146106cb578063cc2ea79514610474578063d64470e91461041a578063d7638a46146103dc578063e3d7bb3314610382578063e92d529a14610357578063ea0341a81461026f5763eb02c3011461020c57600080fd5b34610268576020366003190112610268576004356102286140a4565b50610232816147dd565b610580515260dc6020526102646102586102526040610580512054614107565b50614126565b60405191829182613969565b0390f35b6105805180fd5b3461026857602036600319011261026857600435610580515260d3602052604061058051208054906102a08261435d565b916102ae6040519384613b27565b80835260208301809261058051526020610580512061058051915b83831061033957848660405191829160208301906020845251809152604083019060408160051b850101929161058051905b82821061030a57505050500390f35b919360019193955060206103298192603f198a82030186528851613880565b96019201920185949391926102fb565b6002602060019261034985613c5c565b8152019201920191906102c9565b3461026857610580513660031901126102685760d8546040516001600160a01b039091168152602090f35b34610268576020366003190112610268576004356001600160401b038111610268576103ce6103b86103d492369060040161393c565b60e0546001600160a01b03169291369190614243565b90614e82565b506105805180f35b34610268576020366003190112610268576001600160a01b036103fd6138e6565b16610580515260d260205260206040610580512054604051908152f35b34610268576040366003190112610268576104336138e6565b6024359060018060a01b0316610580515260d16020526040610580512080548210156102685760209161046591613a4c565b90549060031b1c604051908152f35b346102685760c03660031901126102685761048d613912565b60643580151590819003610268576084356001600160401b038111610268576104ba9036906004016138a0565b90926104c4614f12565b6104cc614f68565b600435610580515260dc6020526104e96040610580512054614107565b5060d65460d75460d55460405193976001600160a01b039384169392831692909116906101008501908582106001600160401b038311176106b15760209761054f9260405260243587528887019760018060a01b0316885260408701998a523691614374565b91606085019283526080850193845260a0850190815260c085019182526105c960e086019360a4358552604051998a98899863f7e2251760e01b8a528d60048b0152604060248b01525160448a015260018060a01b03905116606489015251151560848801525161010060a48801526101448701906145fc565b93516001600160a01b0390811660c48701529051811660e486015290511661010484015251610124830152038173__$3ea787592ca519a32436565b5d70444cd7$__5af49081156106a357610580519161066c575b507fad6b2ae912630f53b4805f4a0718a98a9cc995c7ac0dd218a8850dd8464a745160408354926001808060a01b0360078701541695015482519182526020820152a3600180556105805180f35b90506020813d60201161069b575b8161068760209383613b27565b8101031261069657518261061e565b600080fd5b3d915061067a565b6040513d61058051823e3d90fd5b634e487b7160e01b61058051526041600452602461058051fd5b34610268576060366003190112610268576106e46138e6565b6106ec6138fc565b6106f4614749565b73__$183737d697d7aa9b5df9988cbe11bc4947$__90813b1561026857604051636336129b60e11b81526001600160a01b0393841660048201529216602483015260448035908301526105805190829060649082905af480156106a35761075d575b6105805180f35b6105805161076a91613b27565b610580516102685780610756565b34610268576020366003190112610268576107916138e6565b60d454604051632474521560e21b815261058051600482015233602482015290602090829060449082906001600160a01b03165afa9081156106a35761058051916107f8575b50156107e65761075690614d85565b60405163036be76f60e61b8152600490fd5b61081a915060203d602011610820575b6108128183613b27565b810190613ca5565b826107d7565b503d610808565b3461026857602036600319011261026857600435610844816147dd565b610580515260dc60205261088760206108666102526040610580512054614107565b60405180938192632ac0a2ad60e21b835284600484015260248301906142b3565b038173__$3ea787592ca519a32436565b5d70444cd7$__5af480156106a35761058051906108bb575b602090604051908152f35b506020813d6020116108e6575b816108d560209383613b27565b8101031261069657602090516108b0565b3d91506108c8565b34610268576105805136600319011261026857602060da54604051908152f35b34610268576040366003190112610268576109276138e6565b61092f6138fc565b9060018060a01b0316610580515260c9602052604061058051209060018060a01b03166000526020526020604060002054604051908152f35b346102685761097636613a18565b604051622b155960ea1b60208083019190915260248201526001600160a01b0361099f83613928565b16604482015260208201356101be1983360301811215610268576101a06064830152820180356001600160a01b038116908190036102685783610180610c44610c23610c02610be1610bc0610ba0610b80610b61610b42610b22610c6c9f8f610c5b9f819f610af1610b1092610b05926101e486015260018060a01b03610a2860208301613928565b166102048601526001600160a01b03610a4360408301613928565b1661022486015260608101356102448601526001600160a01b03610a6960808301613928565b1661026486015260a08101356102848601526001600160a01b03610a8f60c08301613928565b166102a486015260e08101356102c48601526101008101356102e4860152610120810135610304860152610ac66101408201613a7a565b15156103248601526101608101356103448601526101808101356103648601526101a0810190613cde565b6101c06103848601526103a4850191613cbd565b926040810190613d6f565b91608460431982860301910152614029565b8c610b3060608e018e613d6f565b9160a460431982860301910152613e49565b610b4f60808c018c613d6f565b8d83036043190160c48f015290613e49565b610b6e60a08b018b613cde565b8c83036043190160e48e015290613cbd565b610b8d60c08a018a613cde565b8b8303604319016101048d015290613cbd565b610bad60e0890189613cde565b8a8303604319016101248c015290613cbd565b610bce610100880188613cde565b898303604319016101448b015290613cbd565b610bef610120870187613cde565b888303604319016101648a015290613cbd565b610c10610140860186613cde565b8783036043190161018489015290613cbd565b610c31610160850185613cde565b868303604319016101a488015290613cbd565b9101356101c483015203601f198101835282613b27565b60e0546001600160a01b0316614e82565b60a0818051810103126102685780602060a0920151906040810151906060810151846080830151920151926040519485526020850152604084015260608301526080820152f35b34610268576040366003190112610268576020610cdf610cd16138e6565b610cd96138fc565b9061427a565b604051908152f35b3461026857604036600319011261026857610d006138e6565b6024359060018060a01b0316610580515260d26020526040610580512080548210156102685760209161046591613a4c565b34610268576105805136600319011261026857602060ce54604051908152f35b3461026857610580513660031901126102685760d5546040516001600160a01b039091168152602090f35b34610268576105805136600319011261026857602060ca54604051908152f35b61012036600319011261026857610db26138fc565b610200526044356001600160401b03811161026857610dd59036906004016138a0565b6104a052610460526084356001600160401b03811161026857610dfc90369060040161393c565b610100526101205260a4356001600160401b03811161026857610e2390369060040161393c565b610140526101605260c4356001600160401b03811161026857610e4a90369060040161393c565b610180526101e05260e4356001600160401b03811161026857610e719036906004016138a0565b610104356001600160401b03811161026857610e919036906004016138a0565b91610e9a614f12565b610ea2614f68565b610eaa613b48565b60206104c0819052604051610480819052919591610ec89190613b27565b610580516104805152601f196104c05101366104c05161048051013760405161022052610efb6104c05161022051613b27565b610580516102205152601f196104c05101366104c05161022051013760405161024052610f2e6104c05161024051613b27565b610580516102405152601f196104c05101366104c051610240510137604051610f5681613ad4565b610580518152610580516104c0518201526105805160408201526105805160608201526105805160808201526105805160a08201526105805160c08201526105805160e08201526105805161010082015261012061058051910152610fbc6004356147dd565b610200516001600160a01b031615611a565760d7546001600160a01b031690813b156102685761100e926110256040519687958694859463f197ce3560e01b8652604060048701526044860191613da3565b906003198483030160248501526105805197613dfd565b039134905af180156106a357611a3b575b506040516102605261104a61026051613af0565b6110526140a4565b6102605152610580516104c051610260510152610580516040610260510152610580516060610260510152600435610580515260dc6104c0515261109f6102526040610580512054614107565b8061026051526104c051015115156104c051610260510152610580515061058051506104c05161026051015115158060606102605101526118c9575b61026051805160c081015160808201516101a0526104c08051808401516101c05260408086015160d65460d75460d554949098015160a08801516060909801519351631dae49b960e21b81526001600160a01b03988916600482015293881660248501529451959892979415159692959383169483169392169187604481865afa9687156106a3576105805197611890575b5060cb546102605160600151151560a05260d8546001600160a01b031660e05260405160c08190529098906111a190613b0b565b60c051526101a0516104c05160c05101526101c051604060c051015260018060a01b036102005116606060c05101526111e1366104a05161046051614374565b608060c051015260643560a060c051015260c08051015260e060c051015261010060c051015261012060c051015261014060c05101526104805161016060c051015261018060c05101526101a060c05101526101c060c051015260a0516101e060c05101526105805161020060c051015260e05161022060c051015261126e366101005161012051614243565b61024060c0510152611287366101405161016051614243565b61026060c05101526112a036610180516101e051614243565b61028060c051015261147e6101406112d961026051516040519384928392630b2aa09960e11b84526060600485015260648401906142b3565b60031983820301602484015260c0515181526104c05160c05101516104c051820152604060c0510151604082015260018060a01b03606060c05101511660608201526114666114506113da6113c4611344608060c05101516102a060808801526102a08701906145fc565b60a060c051015160a087015260c08051015160c087015260018060a01b0360e060c05101511660e087015260018060a01b0361010060c05101511661010087015260018060a01b0361012060c05101511661012087015260408a60c05101518783038c890152805183526104c051015191816104c051820152019061383f565b61016060c051015185820361016087015261383f565b61018060c051015115156101808501526101a060c05101516101a08501526101c060c05101516101c08501526101e060c051015115156101e085015261020060c051015161020085015260018060a01b0361022060c05101511661022085015261024060c051015184820361024086015261383f565b61026060c051015183820361026085015261383f565b9061028060c05101519061028081840391015261383f565b610580516044830152038173__$3ea787592ca519a32436565b5d70444cd7$__5af49081156106a35761058051916117ca575b506102605151604081015160e0909101516114db916001600160a01b0391821691166004356149f7565b6105805161158b575b60a081015160c082015160e0830151926001600160a01b03928316929091169060088410156115715761010081015161012090910151604080516001600160a01b039094168452602084019290925290820152600435907f68c1d3a775fd37da20ef77475b9074ee3b57e4d73d94e046e892720b5043ff729080606081015b0390a4600180556105805180f35b634e487b7160e01b61058051526021600452602461058051fd5b60d854610260515160a081015160c09091015160808401516001600160a01b03928316939192909116906005811015611571575a610580510390816117b0576104c051604051906115dc9082613b27565b61058051815260003681376040516104c0516104c05182015261161b8161160d604082016104a05161046051613e49565b03601f198101835282613b27565b51906040519361162a85613ad4565b610200516001600160a01b031685526104c0518501978852604085019687526060850193845260016080860190815260a0860191825260c0860192835260e0860193845261022051610100870190815261024051610120880190815298909590883b156102685760405163ee4bc79960e01b81526104c051600482015297516001600160a01b0390811660248a01529a51909a166044880152985160648701529751949761016489019560058110156115715790899796959493929160848901525160a48801525160c4870152519261014060e487015283518091526101848601936104c0510190610580515b81811061179557505050611746859384936117609351610104860152516023198583030161012486015261383f565b95518287036023190161014484015261058051969061383f565b039161058051905af180156106a35761177a575b506114e4565b6105805161178791613b27565b610580516102685781611774565b825186526104c0518a98509586019590920191600101611717565b634e487b7160e01b61058051526011600452602461058051fd5b9050610140813d8211611888575b816117e66101409383613b27565b8101031261026857604051906117fb82613ad4565b805182526104c0518101516104c05183015260408101516040830152606081015160608301526080810151600581101561026857608083015261184060a08201614fdb565b60a083015261185160c08201614fdb565b60c083015260e0810151906008821015610268576101209160e08401526101008101516101008401520151610120820152816114b1565b3d91506117d8565b9096506104c0513d6104c051116118c2575b6118ac8183613b27565b816104c05191810103126106965751958861116d565b503d6118a2565b610260515160a08101516060909101516118ef916001600160a01b03918216911661427a565b604061026051015260018060a01b0360d4541660405190632474521560e21b82527f5770eb0b3cb4d032328b9b2070b33a4b2779280a0ec69c0dfa26ce7c00bb68286004830152336024830152816044816104c051935afa9081156106a3576105805191611a1b575b50156110db57610260516040015160ce54610580516080528015919082156119f8575b5050156119e3576706f05b59d3b2000060805101608051116117b0576080516706f05b59d3b200008101106119ce57670de0b6b3a76400006706f05b59d3b20000608051010460406102605101526110db565b630a77254f60e01b6105805152600461058051fd5b631550e8b760e01b6105805152600461058051fd5b819250611a0881611a1393614825565b608052608051614fef565b14828061197b565b6104c051611a3592503d8111610820576108128183613b27565b82611958565b61058051611a4891613b27565b610580516102685781611036565b60405163044aa57560e41b8152600490fd5b3461026857610580513660031901126102685760d454604051632474521560e21b81527f5c91514091af31f62f596a314af7d5be40146b2f2355969392f055e12e0982fb600482015233602482015290602090829060449082906001600160a01b03165afa9081156106a3576105805191611b63575b50156107e65760655460ff8116611b2b5760019060ff1916176065557f62e78cea01bee320cd4e420270b5ea74000d11b0c9f74754ebdbfc544b05a2586020604051338152a16105805180f35b60405162461bcd60e51b815260206004820152601060248201526f14185d5cd8589b194e881c185d5cd95960821b6044820152606490fd5b611b7c915060203d602011610820576108128183613b27565b81611ade565b34610268576040366003190112610268576024356001600160401b03811161026857610c5b611bb86103d49236906004016138a0565b61160d604093929351938492638262b7c560e01b60208501526004356024850152604060448501526064840191614029565b611bf336613a18565b61056052611bff614f12565b600760a06105605101351015610268576105605160a00135156107e657611c24614f68565b5a6104e052611c31613b48565b60606105605101356105605135610580515260d3602052604061058051205481106127eb575b50611c6760206105605101613c91565b6103c052611c7e60406105605101610560516141c1565b6105205261054052611c9960806105605101610560516141f6565b91906105805150611cb360c06105605101610560516141f6565b6103005261032052611cce60e06105605101610560516141f6565b6105a05292611ce76101206105605101610560516141f6565b6103405261036052611d036101406105605101610560516141f6565b610380526103a052611d7d611d226101006105605101610560516141f6565b61050052611d3a6101606105605101610560516141c1565b929091611d6e611d61611d576101806105605101610560516141c1565b9890973691614243565b9836906105a05190614243565b61040052610500513691614243565b61042052604051611d8d81613ad4565b6105805181526105805160208201526105805160408201526105805160608201526105805160808201526105805160a08201526105805160c08201526105805160e08201526105805161010082015261012061058051910152611df361056051356147dd565b6103c0516001600160a01b031615611a565760d7546001600160a01b031690813b156102685761100e92611e456040519687958694859463f197ce3560e01b8652604060048701526044860191613da3565b039134905af180156106a3576127d8575b5060405161044052611e6a61044051613af0565b611e726140a4565b61044051526105805160206104405101526105805160406104405101526105805160606104405101526105605135610580515260dc6020526020611ebf6102526040610580512054614107565b806104405152015115156020610440510152600760a06105605101351015611571576104408051600160609182015290515160a0810151910151611f0f916001600160a01b03918216911661427a565b60406104405101526044602060018060a01b0360d4541660405192838092632474521560e21b82527f5770eb0b3cb4d032328b9b2070b33a4b2779280a0ec69c0dfa26ce7c00bb682860048301523360248301525afa9081156106a35761058051916127b9575b50612733575b61044051805160c081015160808201516102a0526020808301516103e05260408085015160d65460d75460d5549785015160a08801516060909801519451631dae49b960e21b81526001600160a01b0398891660048201529488166024860152959993989515159793969384169490841693909116919088604481865afa9788156106a35761058051986126ff575b5060cb54610440516060015115156102805260d8546001600160a01b03166102e0526040516102c081905290999061204290613b0b565b6102c051526102a05160206102c05101526103e05160406102c051015260018060a01b036103c0511660606102c0510152612084366105205161054051614374565b60806102c05101526105805160a06102c051015260c06102c051015260e06102c05101526101006102c05101526101206102c05101526101406102c05101526101606102c05101526101806102c05101526101a06102c05101526101c06102c0510152610280516101e06102c05101526104e0516102006102c05101526102e0516102206102c051015261211f366103005161032051614243565b6102406102c0510152612139366103405161036051614243565b6102606102c051015261215336610380516103a051614243565b6102806102c051015261234061014061218d61044051516040519384928392630b2aa09960e11b84526060600485015260648401906142b3565b6003198382030160248401526102c05151815260206102c0510151602082015260406102c0510151604082015260018060a01b0360606102c051015116606082015261232761231061229361227c6121f960806102c05101516102a060808801526102a08701906145fc565b60a06102c051015160a087015260c06102c051015160c087015260018060a01b0360e06102c05101511660e087015260018060a01b036101006102c05101511661010087015260018060a01b036101206102c051015116610120870152604060208b6102c05101518884038d8a015280518452015191816020820152019061383f565b6101606102c051015185820361016087015261383f565b6101806102c051015115156101808501526101a06102c05101516101a08501526101c06102c05101516101c08501526101e06102c051015115156101e08501526102006102c051015161020085015260018060a01b036102206102c0510151166102208501526102406102c051015184820361024086015261383f565b6102606102c051015183820361026085015261383f565b906102806102c05101519061028081840391015261383f565b6105605160a001356044830152038173__$3ea787592ca519a32436565b5d70444cd7$__5af49081156106a357610580519161263d575b506104405151604081015160e090910151610560516123a4926001600160a01b03928316921690356149f7565b61044051516101400151420361243a575b60a081015160c082015160e0830151926001600160a01b0392831692909116906008841015611571576101008101516101209091015160408051610560516001600160a01b03909516815260208101939093528201529035907f68c1d3a775fd37da20ef77475b9074ee3b57e4d73d94e046e892720b5043ff72908060608101611563565b60d854610440515160a081015160c09091015160808401516001600160a01b03928316939192909116906005811015611571575a6104e05103906104e05182116126275760405160209261248e8483613b27565b610580518252600036813760405184808201526124b98161160d604082016105205161054051613e49565b5191604051916124c883613ad4565b6103c0516001600160a01b03168352858301988952604083019788526060830194855260016080840190815260a0840191825260c0840192835260e0840194855261040051610100850190815261042051610120860190815299909690893b156102685760405163ee4bc79960e01b8152600481018a905295516001600160a01b0390811660248801529b51909b16604486015299516064850152985192986101648a019360058110156115715760848b01525160a48a01525160c48901525161014060e489015280519182905261058051889695610184880195949392810192915b8281106126105750505050611746859384936125db9351610104860152516023198583030161012486015261383f565b039161058051905af180156106a3576125f5575b506123b5565b6105805161260291613b27565b6105805161026857816125ef565b835187528a985095810195928101926001016125ab565b634e487b7160e01b600052601160045260246000fd5b9050610140813d82116126f7575b816126596101409383613b27565b81010312610268576040519061266e82613ad4565b80518252602081015160208301526040810151604083015260608101516060830152608081015160058110156102685760808301526126af60a08201614fdb565b60a08301526126c060c08201614fdb565b60c083015260e0810151906008821015610268576101209160e0840152610100810151610100840152015161012082015281612377565b3d915061264b565b9097506020813d60201161272b575b8161271b60209383613b27565b810103126106965751968961200b565b3d915061270e565b610440516040015160ce546105805191811591908215612799575b5050156119e3576706f05b59d3b20000810181116117b057806706f05b59d3b200008101106119ce576706f05b59d3b20000670de0b6b3a76400009101046040610440510152611f7c565b915091506127b16127aa8383614825565b9283614fef565b14848061274e565b6127d2915060203d602011610820576108128183613b27565b83611f76565b610580516127e591613b27565b82611e56565b612815915061280f906105605135610580515260d360205260406105805120613b62565b50613c5c565b81611c57565b3461026857610580513660031901126102685760d4546040516001600160a01b039091168152602090f35b34610268576105805136600319011261026857602060cb54604051908152f35b3461026857602036600319011261026857600435612883816147dd565b610580515260dc60205261289d6040610580512054614107565b50600201546001600160a01b0316806128c257506020610580515b6040519015158152f35b602060049160405192838092634ad09aa560e01b82525afa80156106a35760209161058051916128f3575b506128b8565b61290a9150823d8411610820576108128183613b27565b826128ed565b3461026857610580513660031901126102685760e0546040516001600160a01b039091168152602090f35b61016036600319011261026857612950613912565b6064356001600160401b0381116102685761296f9036906004016138a0565b919060a4356001600160401b0381116102685761299090369060040161393c565b9060c4356001600160401b038111610268576129b090369060040161393c565b9060e4356001600160401b038111610268576129d090369060040161393c565b90610104356001600160401b038111610268576129f190369060040161393c565b929093610124356001600160401b03811161026857612a149036906004016138a0565b969097610144356001600160401b03811161026857612a379036906004016138a0565b9a909b6040519e8f9e8f90633156cf4f60e11b602083015260043560248301526024356044830152600160a01b600190031660648201526084810161016090526101840190612a8592613e49565b60843560a48f01528d81036023190160c48f0152612aa592909190613cbd565b906023198c83030160e48d0152612abb92613cbd565b906023198a8303016101048b0152612ad292613cbd565b9060231988830301610124890152612ae992613cbd565b9060231986830301610144870152612b0092613da3565b9060231984830301610164850152612b1792613dfd565b03601f1981018252612b299082613b27565b60e0546103d491906001600160a01b0316614e82565b34610268576020366003190112610268576001600160a01b03612b606138e6565b16610580515260d160205260206040610580512054604051908152f35b34610268576105805136600319011261026857602060ff606554166040519015158152f35b3461026857610580513660031901126102685760d9546040516001600160a01b039091168152602090f35b3461026857602036600319011261026857612be66140a4565b50610264610258610252600435614107565b6020366003190112610268576004356001600160401b03811161026857806004016102606003198336030112610268576040519063414d19e360e01b60208301526024820160209052612c4b8180613e21565b6102606044840152612c5d8180613cde565b6102a4850160609052610304850190612c7592613cbd565b9060208101356102c485015260408101612c8e91613d6f565b8483036102a319016102e4860152612ca69291613e49565b612cb36024850183613d6f565b848303604319016064860152612cc99291613e49565b6001600160a01b03612cdd60448601613928565b16608484810191909152606485013560a48501526001600160a01b0390612d05908601613928565b1660c484015260a484013560e484015260c484013561010484015260e48401612d2d90613a7a565b1515610124840152612d426101048501613a7a565b1515610144840152612d58610124850183613d6f565b84830360431901610164860152612d6f9291614029565b612d7d610144850183613cde565b84830360431901610184860152612d949291613cbd565b612da2610164850183613cde565b848303604319016101a4860152612db99291613cbd565b612dc7610184850183613cde565b848303604319016101c4860152612dde9291613cbd565b612dec6101a4850183613cde565b848303604319016101e4860152612e039291613cbd565b612e116101c4850183613cde565b84830360431901610204860152612e289291613cbd565b612e366101e4850183613cde565b84830360431901610224860152612e4d9291613cbd565b612e5b610204850183613cde565b84830360431901610244860152612e729291613cbd565b92612e81610224820183613d6f565b6043198587030161026486015280865260208601958160051b8101602001968361058051925b848410612edb576103d489610c5b8161160d8e612ec86102448e018f613d6f565b8483036043190161028486015290613dfd565b909192939498602080612f03600193612efd8e601f19888403018a5288613d6f565b90613d0f565b9b01940194019294939190612ea7565b3461026857610580513660031901126102685760d454604051632474521560e21b81527f5a7d4408f4759dddd7fdfd0d21abd99341dc2f52cda14804988a9b2df20766d8600482015233602482015290602090829060449082906001600160a01b03165afa9081156106a357610580519161300f575b50156107e65760655460ff811615612fd35760ff19166065557f5db9ee0a495bf2e6ff9c91a7834c1ba4fdd244a5e8aa4e537bd38aeae4b073aa6020604051338152a16105805180f35b60405162461bcd60e51b815260206004820152601460248201527314185d5cd8589b194e881b9bdd081c185d5cd95960621b6044820152606490fd5b613028915060203d602011610820576108128183613b27565b81612f89565b3461026857610580513660031901126102685760d6546040516001600160a01b039091168152602090f35b60c0366003190112610268576044356001600160401b0381116102685761308490369060040161393c565b6064356001600160401b038111610268576130a390369060040161393c565b926084356001600160401b038111610268576130c39036906004016138a0565b92909360a435926001600160401b0384116102685761315760c096610c5b9661314561160d966103d49b61313361310060649b36906004016138a0565b9890996040519e8f9d8e633bf7771f60e01b602082015260043560248201526024356044820152015260e48d0191613cbd565b8a81036023190160848c015291613cbd565b8781036023190160a489015291613da3565b8481036023190160c486015291613dfd565b34610268576105805136600319011261026857602060cf54604051908152f35b346102685760e0366003190112610268576131a26138e6565b6131aa6138fc565b6044356001600160a01b03811690819003610268576131c76138d0565b6084356001600160a01b038116908190036102685760a4356001600160a01b03811692908390036102685760c435936001600160a01b03851685036102685761058051549660ff8860081c161597888099613636575b801561361f575b156135c35788600160ff1983161761058051556135ae575b506040516301ffc9a760e01b8152637965db0b60e01b60048201526001600160a01b039190911696906020816024818b5afa9081156106a357610580519161358f575b508061352c575b806134d2575b8061346f575b80613415575b806133bb575b15611a565761332e966001600160601b0360a01b60d454161760d45560018060a01b03166001600160601b0360a01b60d654161760d6556001600160601b0360a01b60d554161760d55560018060a01b03166001600160601b0360a01b60d754161760d7556001600160601b0360a01b60d854161760d8556001600160601b0360a01b60df54161760df55614d85565b61058051549061337560ff8360081c1661334781614e22565b61335081614e22565b60ff196065541660655561336381614e22565b61336c81614e22565b60018055614e22565b613380576105805180f35b61ff00191661058051557f7f26b83ff96e1f2b6a682f133852f6798a09c465da95921460cefb3847402498602060405160018152a180610756565b506040516301ffc9a760e01b8152633df6cef760e01b6004820152602081602481895afa9081156106a35761058051916133f6575b5061329e565b61340f915060203d602011610820576108128183613b27565b896133f0565b506040516301ffc9a760e01b8152631e42d3e560e01b6004820152602081602481885afa9081156106a3576105805191613450575b50613298565b613469915060203d602011610820576108128183613b27565b8961344a565b506040516301ffc9a760e01b81526333ca6d2360e21b60048201526020816024816001600160a01b0388165afa9081156106a35761058051916134b3575b50613292565b6134cc915060203d602011610820576108128183613b27565b896134ad565b506040516301ffc9a760e01b81526312b3ed2b60e01b6004820152602081602481865afa9081156106a357610580519161350d575b5061328c565b613526915060203d602011610820576108128183613b27565b89613507565b506040516301ffc9a760e01b8152633f9940a760e11b60048201526020816024816001600160a01b0386165afa9081156106a3576105805191613570575b50613286565b613589915060203d602011610820576108128183613b27565b8961356a565b6135a8915060203d602011610820576108128183613b27565b8961327f565b6101019061ffff19161761058051558861323c565b60405162461bcd60e51b815260206004820152602e60248201527f496e697469616c697a61626c653a20636f6e747261637420697320616c72656160448201526d191e481a5b9a5d1a585b1a5e995960921b6064820152608490fd5b50303b1580156132245750600160ff821614613224565b50600160ff82161061321d565b3461026857610580513660031901126102685760d7546040516001600160a01b039091168152602090f35b34610268576105805136600319011261026857602060cc54604051908152f35b3461026857610580513660031901126102685760db546040516001600160a01b039091168152602090f35b34610268576080366003190112610268576004356001600160401b038111610268576136e99036906004016138a0565b906024356001600160401b038111610268576137099036906004016138a0565b9190604435926137176138d0565b90613720614749565b610580515b858110613733576105805180f35b8061374a6137446001938a89613c81565b356147dd565b613773613758828a89613c81565b358561376d61376885888b613c81565b613c91565b916149f7565b01613725565b3461026857604036600319011261026857613792613b48565b50600435610580515260d36020526102646137b861280f60243560406105805120613b62565b604051918291602083526020830190613880565b34610268576105805136600319011261026857602060d054604051908152f35b34610268576020366003190112610268576004359063ffffffff60e01b821680920361026857602091633d79d7fb60e11b811490811561382e575b5015158152f35b6301ffc9a760e01b14905083613827565b919082519283825260005b84811061386b575050826000602080949584010152601f8019910116010190565b8060208092840101518282860101520161384a565b906040602061389d9380518452015191816020820152019061383f565b90565b9181601f84011215610696578235916001600160401b038311610696576020808501948460051b01011161069657565b606435906001600160a01b038216820361069657565b600435906001600160a01b038216820361069657565b602435906001600160a01b038216820361069657565b604435906001600160a01b038216820361069657565b35906001600160a01b038216820361069657565b9181601f84011215610696578235916001600160401b038311610696576020838186019501011161069657565b6101a061016061389d9360208452805160208501526020810151604085015260018060a01b03604082015116606085015260018060a01b036060820151166080850152608081015160a085015260018060a01b0360a08201511660c085015260c081015160e085015260018060a01b0360e0820151166101008501526101008101516101208501526101208101516101408501526101408101518285015201519161018080820152019061383f565b602060031982011261069657600435906001600160401b038211610696576101a09082900360031901126106965760040190565b8054821015613a645760005260206000200190600090565b634e487b7160e01b600052603260045260246000fd5b3590811515820361069657565b604081019081106001600160401b03821117613aa257604052565b634e487b7160e01b600052604160045260246000fd5b61018081019081106001600160401b03821117613aa257604052565b61014081019081106001600160401b03821117613aa257604052565b608081019081106001600160401b03821117613aa257604052565b6102a081019081106001600160401b03821117613aa257604052565b90601f801991011681019081106001600160401b03821117613aa257604052565b60405190613b5582613a87565b6060602083600081520152565b8054821015613a645760005260206000209060011b0190600090565b90600182811c92168015613bae575b6020831014613b9857565b634e487b7160e01b600052602260045260246000fd5b91607f1691613b8d565b9060405191826000825492613bcc84613b7e565b8084529360018116908115613c3a5750600114613bf3575b50613bf192500383613b27565b565b90506000929192526020600020906000915b818310613c1e575050906020613bf19282010138613be4565b6020919350806001915483858901015201910190918492613c05565b905060209250613bf194915060ff191682840152151560051b82010138613be4565b90604051613c6981613a87565b6020613c7c600183958054855201613bb8565b910152565b9190811015613a645760051b0190565b356001600160a01b03811681036106965790565b90816020910312610696575180151581036106965790565b908060209392818452848401376000828201840152601f01601f1916010190565b9035601e19823603018112156106965701602081359101916001600160401b03821161069657813603831361069657565b90602083828152019260208260051b82010193836000925b848410613d375750505050505090565b909192939495602080613d5f600193601f19868203018852613d598b88613cde565b90613cbd565b9801940194019294939190613d27565b9035601e19823603018112156106965701602081359101916001600160401b038211610696578160051b3603831361069657565b90602083828152019260208260051b82010193836000925b848410613dcb5750505050505090565b909192939495602080613ded600193601f19868203018852612efd8b88613d6f565b9801940194019294939190613dbb565b81835290916001600160fb1b0383116106965760209260051b809284830137010190565b9035605e1982360301811215610696570190565b9035603e1982360301811215610696570190565b919061060052602081610600518152019060206106005160051b82010192806106405260006105e0525b610600516105e05110613e865750505090565b909192601f19838203018452613e9f6106405183613e35565b613eb56040830191803584526020810190613d6f565b839192604060208396015252606081019160608460051b8301016106605280916000925b858410613f0a575050505050506020610660519381610640510161064052019160016105e051016105e05290613e73565b605f19826106605103018552613f208184613e35565b6106605160400190613f4d906001600160a01b03613f3d82613928565b1661066051526020810190613d6f565b80926040602061066051015252606061066051019060608360051b6106605101016105c05280610620526000915b838310613fa057505050506020806001926105c0516106605201950193019293613ed9565b6020600191605f19610660516105c05103018152614012613fc46106205186613e21565b613ffe613fe8613fd48380613cde565b60606105c0515260606105c0510191613cbd565b9185810135866105c05101526040810190613cde565b906105c051830360406105c0510152613cbd565b6105c0528161062051016106205201920191613f7b565b90602083828152019260208260051b82010193836000925b8484106140515750505050505090565b909192939495602080614094600193601f1986820301885260406140856140788d8a613e35565b8035845285810190613cde565b91909281868201520191613cbd565b9801940194019294939190614041565b604051906140b182613ab8565b60606101608360008152600060208201526000604082015260008382015260006080820152600060a0820152600060c0820152600060e08201526000610100820152600061012082015260006101408201520152565b60cf54811015613a645760cf600052600c602060002091020190600090565b9060405161413381613ab8565b825481526001830154602082015260028301546001600160a01b039081166040830152600384015481166060830152600484015460808301526005840154811660a0830152600684015460c083015260078401541660e082015260088301546101008201526009830154610120820152600a83015461014082015291829061016090613c7c90600b01613bb8565b903590601e198136030182121561069657018035906001600160401b03821161069657602001918160051b3603831361069657565b903590601e198136030182121561069657018035906001600160401b0382116106965760200191813603831361069657565b6001600160401b038111613aa257601f01601f191660200190565b92919261424f82614228565b9161425d6040519384613b27565b829481845281830111610696578281602093846000960137010152565b6001600160a01b03908116600090815260cd602090815260408083209490931682529290925290205480156142ac5790565b5060ca5490565b9061018061016061389d93805184526020810151602085015260018060a01b03604082015116604085015260018060a01b0360608201511660608501526080810151608085015260018060a01b0360a08201511660a085015260c081015160c085015260018060a01b0360e08201511660e085015261010081015161010085015261012081015161012085015261014081015161014085015201519181610160820152019061383f565b6001600160401b038111613aa25760051b60200190565b909291610660526143848361435d565b926143926040519485613b27565b6020848281520191610660518260051b8201116106965780925b8260051b820184106143be5750505050565b83356001600160401b03811161069657820160408161066051031261069657604051906143ea82613a87565b803582526020810135906001600160401b038211610696570161066051601f8201121561069657803561441c8161435d565b9161442a6040519384613b27565b81835260208084019260051b820101906106605182116106965760208101925b82841061446a5750505050918160209384809401528152019301926143ac565b83356001600160401b0381116106965782016040601f198261066051030112610696576040519061449a82613a87565b6144a660208201613928565b825260408101356001600160401b03811161069657602091010161066051601f820112156106965780356144d98161435d565b916144e76040519384613b27565b81835260208084019260051b820101906106605182116106965760208101925b82841061452757505050509181602093848094015281520193019261444a565b83356001600160401b038111610696578201906060601f1983610660510301126106965760405191606083018381106001600160401b03821117613aa25760405260208101356001600160401b0381116106965760209082010161066051601f8201121561069657610660516145a291803590602001614243565b83526040810135602084015260608101356001600160401b0381116106965760209101019061066051601f83011215610696576020926145ec849361066051908581359101614243565b6040820152815201930192614507565b9080602083519182815201916020808360051b8301019401926000915b83831061462857505050505090565b9091929394601f1982820301835285519060206040820192805183520151916040602083015282518091526060820190602060608260051b85010194019260005b82811061468a57505050505060208060019297019301930191939290614619565b9091929394605f1983820301855285516020604083019160018060a01b0381511684520151916040602082015282518092526060810190602060608460051b8301019401926000915b8183106146f457505050505060208060019297019501910192919092614669565b909192939460208061473c600193605f198682030189528951906040614723835160608452606084019061383f565b928581015186840152015190604081840391015261383f565b97019501930191906146d3565b60d454604051632474521560e21b81527f28eb28c26cbbd48a6bfad016505ccf4a189452995f59d16217af8920961ed25c600482015233602482015290602090829060449082906001600160a01b03165afa9081156147d1576000916147b2575b50156107e657565b6147cb915060203d602011610820576108128183613b27565b386147aa565b6040513d6000823e3d90fd5b60cf5415159081614803575b50156147f157565b604051631eab2a3b60e31b8152600490fd5b80915060005260dc60205261481c604060002054614107565b505414386147e9565b8181029291811591840414171561262757565b818110614843575050565b60008155600101614838565b6148598154613b7e565b9081614863575050565b81601f60009311600114614875575055565b8183526020832061489191601f0160051c810190600101614838565b8082528160208120915555565b805480156148c75760001901906148b58282613a4c565b8154906000199060031b1b1916905555565b634e487b7160e01b600052603160045260246000fd5b9190918281146149f2576148f18354613b7e565b6001600160401b038111613aa2576149098254613b7e565b601f81116149b5575b50600093601f821160011461494f579381929394600092614944575b50508160011b916000199060031b1c1916179055565b01549050388061492e565b845260208085208386529085209094601f198316815b81811061499d57509583600195969710614984575b505050811b019055565b015460001960f88460031b161c1916905538808061497a565b9192600180602092868b015481550194019201614965565b6149e290836000526020600020601f840160051c810191602085106149e8575b601f0160051c0190614838565b38614912565b90915081906149d5565b509050565b91908260005260d360205260406000208054906000815581614d44575b50506001600160a01b0316600081815260d2602052604090208054600019810190811161262757614a4491613a4c565b90549060031b1c8160005260d2602052614a8e81614a7560406000208760005260de60205260406000205490613a4c565b90919082549060031b91821b91600019901b1916179055565b8360005260de6020526040600020549060005260de60205260406000205560005260d2602052614ac1604060002061489e565b600082815260de602090815260408083208390556001600160a01b039390931680835260d19091529190208054600019810190811161262757614b0391613a4c565b90549060031b1c8160005260d1602052614b3481614a7560406000208660005260dd60205260406000205490613a4c565b8260005260dd6020526040600020549060005260dd60205260406000205560005260d1602052614b67604060002061489e565b600081815260dd602052604081205560cf54600019810190811161262757614b8e90614107565b508160005260dc602052614ba6604060002054614107565b614c6f57818103614c85575b50508060005260dc60205260406000205460cf54600019810190811161262757614bdb90614107565b505460005260dc60205260406000205560cf5480156148c75760001901614c0181614107565b614c6f57600b816000614c5b93556000600182015560006002820155600060038201556000600482015560006005820155600060068201556000600782015560006008820155600060098201556000600a8201550161484f565b60cf5560005260dc60205260006040812055565b634e487b7160e01b600052600060045260246000fd5b815481556001808301549082015560028083015490820180546001600160a01b03199081166001600160a01b039384161790915560038085015490840180548316918416919091179055600480850154908401556005808501549084018054831691841691909117905560068085015490840155600780850154908401805490921692169190911790556008808301549082015560098083015490820155600a8083015490820155614d3d91600b90810191016148dd565b3880614bb2565b6001600160ff1b03821682036126275760005260206000209060011b8101905b81811015614a145780600060029255614d7f6001820161484f565b01614d64565b6040516301ffc9a760e01b815263caaf0f5760e01b60048201526001600160a01b039190911690602081602481855afa9081156147d157600091614e03575b5015611a565760e080546001600160a01b031916821790557fdddcc4cb45c2da1250e71ec604cb86c02f387bdcf776e6447f9bdf7d0ac50b00600080a2565b614e1c915060203d602011610820576108128183613b27565b38614dc4565b15614e2957565b60405162461bcd60e51b815260206004820152602b60248201527f496e697469616c697a61626c653a20636f6e7472616374206973206e6f74206960448201526a6e697469616c697a696e6760a81b6064820152608490fd5b9061389d9160008060405193614e99606086613b27565b602785527f416464726573733a206c6f772d6c6576656c2064656c65676174652063616c6c6020860152660819985a5b195960ca1b6040860152602081519101845af43d15614f0a573d91614eed83614228565b92614efb6040519485613b27565b83523d6000602085013e61500f565b60609161500f565b600260015414614f23576002600155565b60405162461bcd60e51b815260206004820152601f60248201527f5265656e7472616e637947756172643a207265656e7472616e742063616c6c006044820152606490fd5b60df54604051630723eb0360e51b815233600482015290602090829060249082906001600160a01b03165afa9081156147d157600091614fbc575b50614faa57565b6040516333df015b60e01b8152600490fd5b614fd5915060203d602011610820576108128183613b27565b38614fa3565b51906001600160a01b038216820361069657565b8115614ff9570490565b634e487b7160e01b600052601260045260246000fd5b919290156150715750815115615023575090565b3b1561502c5790565b60405162461bcd60e51b815260206004820152601d60248201527f416464726573733a2063616c6c20746f206e6f6e2d636f6e74726163740000006044820152606490fd5b8251909150156150845750805190602001fd5b60405162461bcd60e51b8152602060048201529081906150a890602483019061383f565b0390fdfea2646970667358221220cad023f194494decd35196aacc98ed036f4af50fc6cf95986ff4087e713afdfa64736f6c634300081a0033",
  "libraries": {
    "PositionLibrary": "0xe31a74961DE60A4c117e000734F5079728CEB83F",
    "TokenTransfersLibrary": "0x9216e34b2458B492b25abDE8546e56CA8A1acCD5"
  },
  "devdoc": {
    "events": {
      "Initialized(uint8)": {
        "details": "Triggered when the contract has been initialized or reinitialized."
      },
      "Paused(address)": {
        "details": "Emitted when the pause is triggered by `account`."
      },
      "Unpaused(address)": {
        "details": "Emitted when the pause is lifted by `account`."
      }
    },
    "kind": "dev",
    "methods": {
      "closePosition(uint256,address,(uint256,(address,(string,uint256,bytes)[])[])[],uint256,bytes,bytes,bytes,bytes[][],uint256[])": {
        "details": "Protocol will fall down (revert) if two conditions occur both: 1. (token1Price + position.depositedAmount).wdiv(positionDebt) will become lower than 1, so position will make loss for Protocol. 2. Not enough liquidity in bucket to pay that loss.",
        "params": {
          "_amountOutMin": "minimum allowed amount out for position",
          "_dealReceiver": "The receiver of the rest of trader's deposit.",
          "_id": "Position id for `msg.sender`.",
          "_megaRoutes": "swap routes on dexes"
        }
      },
      "decreaseDeposit(uint256,uint256,bytes,bytes,bytes[][],uint256[])": {
        "params": {
          "_amount": "The amount to decrease the deposit by.",
          "_positionId": "The ID of the position."
        }
      },
      "deletePositions(uint256[],address[],uint256,address)": {
        "params": {
          "_bucket": "The address of the bucket from which the position is to be deleted.",
          "_ids": "The IDs of the positions to be deleted.",
          "_length": "The length of the traders array.",
          "_traders": "The addresses of the traders who owns the position."
        }
      },
      "doTransferOut(address,address,uint256)": {
        "details": "Only callable by the BATCH_MANAGER_ROLE role.",
        "params": {
          "_amount": "The amount of tokens to be transferred.",
          "_to": "The address to which the tokens will be transferred.",
          "_token": "The address of the token to be transferred."
        }
      },
      "getAllPositionsLength()": {
        "returns": {
          "_0": "The length of the positions array."
        }
      },
      "getBucketPositionsLength(address)": {
        "params": {
          "_bucket": "The address of the bucket."
        },
        "returns": {
          "_0": "The number of positions the bucket has."
        }
      },
      "getCloseCondition(uint256,uint256)": {
        "params": {
          "_index": "The index of the close condition.",
          "_positionId": "The identifier of the position."
        },
        "returns": {
          "_0": "The close condition at the specified position and index."
        }
      },
      "getCloseConditions(uint256)": {
        "params": {
          "_positionId": "The ID of the position."
        },
        "returns": {
          "_0": "An array of close conditions associated with the position."
        }
      },
      "getOracleTolerableLimit(address,address)": {
        "params": {
          "assetA": "The address of the first asset in the pair.",
          "assetB": "The address of the second asset in the pair."
        },
        "returns": {
          "_0": "The oracle tolerable limit in WAD format (1 WAD = 100%) for the asset pair."
        }
      },
      "getPosition(uint256)": {
        "params": {
          "_id": "The ID of the position to retrieve."
        },
        "returns": {
          "_0": "position The position information associated with the given ID."
        }
      },
      "getPositionByIndex(uint256)": {
        "params": {
          "_index": "The index of the position to retrieve."
        },
        "returns": {
          "_0": "The Position struct at the specified index."
        }
      },
      "getPositionDebt(uint256)": {
        "params": {
          "_id": "The ID of the position."
        },
        "returns": {
          "_0": "The debt of the position, measured in the same decimal format as debtTokens."
        }
      },
      "getTraderPositionsLength(address)": {
        "params": {
          "_trader": "The address of the trader."
        },
        "returns": {
          "_0": "The number of positions the trader has."
        }
      },
      "increaseDeposit(uint256,uint256,address,bool,(uint256,(address,(string,uint256,bytes)[])[])[],uint256)": {
        "params": {
          "_amount": "The amount to increase the deposit by.",
          "_amountOutMin": "The minimum amount of the output asset to receive from trading.",
          "_asset": "The address of the asset to deposit.",
          "_megaRoutes": "An array of routes to use for trading.",
          "_positionId": "The ID of the position to increase the deposit for.",
          "_takeDepositFromWallet": "A flag indicating whether to make the deposit immediately."
        }
      },
      "initialize(address,address,address,address,address,address,address)": {
        "params": {
          "_keeperRewardDistributor": "The address of the KeeperRewardDistributor contract.",
          "_positionManagerExtension": "The address of the PositionManagerExtension contract.",
          "_priceOracle": "The address of the PriceOracle contract.",
          "_primexDNS": "The address of the PrimexDNS contract.",
          "_registry": "The address of the Registry contract.",
          "_traderBalanceVault": "The address of the TraderBalanceVault contract.",
          "_whiteBlackList": "The address of the WhiteBlacklist contract."
        }
      },
      "isDelistedPosition(uint256)": {
        "params": {
          "_id": "The ID of the position."
        },
        "returns": {
          "_0": "A boolean indicating whether the position is delisted or not."
        }
      },
      "openPosition(((string,uint256,(uint256,(address,(string,uint256,bytes)[])[])[]),(uint256,(address,(string,uint256,bytes)[])[])[],address,uint256,address,uint256,uint256,bool,bool,(uint256,bytes)[],bytes,bytes,bytes,bytes,bytes,bytes,bytes,bytes[][],uint256[]))": {
        "details": "Locks trader's collateral in TraderBalanceVault. Takes loan from bucket for deal. Makes swap bucket borrowedAsset amount on '_dex'. Updates rates and indexes in the '_bucket'. Mints debtToken for trader (msg.sender)",
        "params": {
          "_params": "The parameters required to open a position."
        }
      },
      "openPositionByOrder((address,(address,address,address,uint256,address,uint256,address,uint256,uint256,uint256,bool,uint256,uint256,bytes),(uint256,bytes)[],(uint256,(address,(string,uint256,bytes)[])[])[],(uint256,(address,(string,uint256,bytes)[])[])[],bytes,bytes,bytes,bytes,bytes,bytes,bytes,uint256))": {
        "details": "Only callable by the LOM_ROLE role.",
        "params": {
          "_params": "The parameters for opening a position."
        },
        "returns": {
          "_0": "The total borrowed amount, position amount, position ID, and entry price of the new position."
        }
      },
      "partiallyClosePosition(uint256,uint256,address,(uint256,(address,(string,uint256,bytes)[])[])[],uint256,bytes,bytes,bytes,bytes,bytes[][],uint256[])": {
        "params": {
          "_amount": "The amount of the position asset to be closed from the position.",
          "_amountOutMin": "The minimum amount to be received after swapping, measured in the same decimal format as the position's asset.",
          "_depositReceiver": "The address where the remaining deposit will be sent.",
          "_megaRoutes": "The routing information for swapping assets.",
          "_positionId": "The ID of the position to be partially closed."
        }
      },
      "pause()": {
        "details": "Triggers stopped state. This function can only be called by an address with the EMERGENCY_ADMIN role. Requirements: - The contract must not be paused."
      },
      "paused()": {
        "details": "Returns true if the contract is paused, and false otherwise."
      },
      "setPositionManagerExtension(address)": {
        "details": "Only callable by the BIG_TIMELOCK_ADMIN role.",
        "params": {
          "_newPositionManagerExtension": "The address of PositionManagerExtension contract."
        }
      },
      "setProtocolParamsByAdmin(bytes)": {
        "details": "This function allows an admin to update protocol parameters using a delegatecall to the PositionManagerExtension contract.",
        "params": {
          "_data": "The data containing the encoded function call to be executed by the delegatecall."
        }
      },
      "supportsInterface(bytes4)": {
        "params": {
          "_interfaceId": "The interface id to check"
        }
      },
      "unpause()": {
        "details": "Returns to normal state. This function can only be called by an address with the SMALL_TIMELOCK_ADMIN or MEDIUM_TIMELOCK_ADMIN role depending on the contract. Requirements: - The contract must be paused."
      },
      "updatePositionConditions(uint256,(uint256,bytes)[])": {
        "details": "The caller of this function must be the trader who owns the position.Emits an `UpdatePositionConditions` event upon successful update.",
        "params": {
          "_closeConditions": "An array of close conditions for the position.",
          "_positionId": "The ID of the position to update."
        }
      }
    },
    "version": 1
  },
  "userdoc": {
    "kind": "user",
    "methods": {
      "closePosition(uint256,address,(uint256,(address,(string,uint256,bytes)[])[])[],uint256,bytes,bytes,bytes,bytes[][],uint256[])": {
        "notice": "Close trader's active position or liquidate risky position."
      },
      "decreaseDeposit(uint256,uint256,bytes,bytes,bytes[][],uint256[])": {
        "notice": "Decreases the deposit amount for a given position."
      },
      "deletePositions(uint256[],address[],uint256,address)": {
        "notice": "Deletes a positions by their IDs from a specific bucket for a given traders."
      },
      "doTransferOut(address,address,uint256)": {
        "notice": "Transfers a specified amount of tokens from the contract to a specified address."
      },
      "getAllPositionsLength()": {
        "notice": "Returns the length of the positions array."
      },
      "getBucketPositionsLength(address)": {
        "notice": "Returns the length of the array containing the positions of a specific bucket."
      },
      "getCloseCondition(uint256,uint256)": {
        "notice": "Retrieves the close condition for a given position and index."
      },
      "getCloseConditions(uint256)": {
        "notice": "Retrieves the close conditions for a specific position."
      },
      "getOracleTolerableLimit(address,address)": {
        "notice": "Returns the oracle tolerable limit for the given asset pair."
      },
      "getPosition(uint256)": {
        "notice": "Retrieves the position information for a given ID."
      },
      "getPositionByIndex(uint256)": {
        "notice": "Retrieves the position at the specified index."
      },
      "getPositionDebt(uint256)": {
        "notice": "Returns the debt of a position with the given ID."
      },
      "getTraderPositionsLength(address)": {
        "notice": "Returns the length of the array containing the positions of a specific trader."
      },
      "increaseDeposit(uint256,uint256,address,bool,(uint256,(address,(string,uint256,bytes)[])[])[],uint256)": {
        "notice": "Increases the deposit amount for a given position."
      },
      "initialize(address,address,address,address,address,address,address)": {
        "notice": "Initializes the contract with the specified addresses and initializes inherited contracts."
      },
      "isDelistedPosition(uint256)": {
        "notice": "Checks if a position with the given ID is delisted."
      },
      "openPosition(((string,uint256,(uint256,(address,(string,uint256,bytes)[])[])[]),(uint256,(address,(string,uint256,bytes)[])[])[],address,uint256,address,uint256,uint256,bool,bool,(uint256,bytes)[],bytes,bytes,bytes,bytes,bytes,bytes,bytes,bytes[][],uint256[]))": {
        "notice": "Opens margin position."
      },
      "openPositionByOrder((address,(address,address,address,uint256,address,uint256,address,uint256,uint256,uint256,bool,uint256,uint256,bytes),(uint256,bytes)[],(uint256,(address,(string,uint256,bytes)[])[])[],(uint256,(address,(string,uint256,bytes)[])[])[],bytes,bytes,bytes,bytes,bytes,bytes,bytes,uint256))": {
        "notice": "Opens a position based on the provided order parameters."
      },
      "partiallyClosePosition(uint256,uint256,address,(uint256,(address,(string,uint256,bytes)[])[])[],uint256,bytes,bytes,bytes,bytes,bytes[][],uint256[])": {
        "notice": "Allows the trader to partially close a position."
      },
      "setPositionManagerExtension(address)": {
        "notice": "Sets the positionManagerExtension."
      },
      "setProtocolParamsByAdmin(bytes)": {
        "notice": "Sets protocol parameters through an administrative delegatecall."
      },
      "supportsInterface(bytes4)": {
        "notice": "Interface checker"
      },
      "updatePositionConditions(uint256,(uint256,bytes)[])": {
        "notice": "Updates the position with the given position ID by setting new close conditions."
      }
    },
    "version": 1
  },
  "storageLayout": {
    "storage": [
      {
        "astId": 3021,
        "contract": "contracts/PositionManager/PositionManager.sol:PositionManager",
        "label": "_initialized",
        "offset": 0,
        "slot": "0",
        "type": "t_uint8"
      },
      {
        "astId": 3024,
        "contract": "contracts/PositionManager/PositionManager.sol:PositionManager",
        "label": "_initializing",
        "offset": 1,
        "slot": "0",
        "type": "t_bool"
      },
      {
        "astId": 3324,
        "contract": "contracts/PositionManager/PositionManager.sol:PositionManager",
        "label": "_status",
        "offset": 0,
        "slot": "1",
        "type": "t_uint256"
      },
      {
        "astId": 3393,
        "contract": "contracts/PositionManager/PositionManager.sol:PositionManager",
        "label": "__gap",
        "offset": 0,
        "slot": "2",
        "type": "t_array(t_uint256)49_storage"
      },
      {
        "astId": 5998,
        "contract": "contracts/PositionManager/PositionManager.sol:PositionManager",
        "label": "__gap",
        "offset": 0,
        "slot": "51",
        "type": "t_array(t_uint256)50_storage"
      },
      {
        "astId": 3204,
        "contract": "contracts/PositionManager/PositionManager.sol:PositionManager",
        "label": "_paused",
        "offset": 0,
        "slot": "101",
        "type": "t_bool"
      },
      {
        "astId": 3309,
        "contract": "contracts/PositionManager/PositionManager.sol:PositionManager",
        "label": "__gap",
        "offset": 0,
        "slot": "102",
        "type": "t_array(t_uint256)49_storage"
      },
      {
        "astId": 6637,
        "contract": "contracts/PositionManager/PositionManager.sol:PositionManager",
        "label": "__gap",
        "offset": 0,
        "slot": "151",
        "type": "t_array(t_uint256)50_storage"
      },
      {
        "astId": 55998,
        "contract": "contracts/PositionManager/PositionManager.sol:PositionManager",
        "label": "maxPositionSize",
        "offset": 0,
        "slot": "201",
        "type": "t_mapping(t_address,t_mapping(t_address,t_uint256))"
      },
      {
        "astId": 56001,
        "contract": "contracts/PositionManager/PositionManager.sol:PositionManager",
        "label": "defaultOracleTolerableLimit",
        "offset": 0,
        "slot": "202",
        "type": "t_uint256"
      },
      {
        "astId": 56004,
        "contract": "contracts/PositionManager/PositionManager.sol:PositionManager",
        "label": "securityBuffer",
        "offset": 0,
        "slot": "203",
        "type": "t_uint256"
      },
      {
        "astId": 56007,
        "contract": "contracts/PositionManager/PositionManager.sol:PositionManager",
        "label": "maintenanceBuffer",
        "offset": 0,
        "slot": "204",
        "type": "t_uint256"
      },
      {
        "astId": 56013,
        "contract": "contracts/PositionManager/PositionManager.sol:PositionManager",
        "label": "oracleTolerableLimits",
        "offset": 0,
        "slot": "205",
        "type": "t_mapping(t_address,t_mapping(t_address,t_uint256))"
      },
      {
        "astId": 56015,
        "contract": "contracts/PositionManager/PositionManager.sol:PositionManager",
        "label": "oracleTolerableLimitMultiplier",
        "offset": 0,
        "slot": "206",
        "type": "t_uint256"
      },
      {
        "astId": 56019,
        "contract": "contracts/PositionManager/PositionManager.sol:PositionManager",
        "label": "positions",
        "offset": 0,
        "slot": "207",
        "type": "t_array(t_struct(Position)85440_storage)dyn_storage"
      },
      {
        "astId": 56022,
        "contract": "contracts/PositionManager/PositionManager.sol:PositionManager",
        "label": "positionsId",
        "offset": 0,
        "slot": "208",
        "type": "t_uint256"
      },
      {
        "astId": 56028,
        "contract": "contracts/PositionManager/PositionManager.sol:PositionManager",
        "label": "traderPositionIds",
        "offset": 0,
        "slot": "209",
        "type": "t_mapping(t_address,t_array(t_uint256)dyn_storage)"
      },
      {
        "astId": 56034,
        "contract": "contracts/PositionManager/PositionManager.sol:PositionManager",
        "label": "bucketPositionIds",
        "offset": 0,
        "slot": "210",
        "type": "t_mapping(t_address,t_array(t_uint256)dyn_storage)"
      },
      {
        "astId": 56040,
        "contract": "contracts/PositionManager/PositionManager.sol:PositionManager",
        "label": "closeConditions",
        "offset": 0,
        "slot": "211",
        "type": "t_mapping(t_uint256,t_array(t_struct(Condition)83987_storage)dyn_storage)"
      },
      {
        "astId": 56044,
        "contract": "contracts/PositionManager/PositionManager.sol:PositionManager",
        "label": "registry",
        "offset": 0,
        "slot": "212",
        "type": "t_contract(IAccessControl)8010"
      },
      {
        "astId": 56048,
        "contract": "contracts/PositionManager/PositionManager.sol:PositionManager",
        "label": "traderBalanceVault",
        "offset": 0,
        "slot": "213",
        "type": "t_contract(ITraderBalanceVault)71550"
      },
      {
        "astId": 56052,
        "contract": "contracts/PositionManager/PositionManager.sol:PositionManager",
        "label": "primexDNS",
        "offset": 0,
        "slot": "214",
        "type": "t_contract(IPrimexDNSV3)60258"
      },
      {
        "astId": 56056,
        "contract": "contracts/PositionManager/PositionManager.sol:PositionManager",
        "label": "priceOracle",
        "offset": 0,
        "slot": "215",
        "type": "t_contract(IPriceOracleV2)56397"
      },
      {
        "astId": 56060,
        "contract": "contracts/PositionManager/PositionManager.sol:PositionManager",
        "label": "keeperRewardDistributor",
        "offset": 0,
        "slot": "216",
        "type": "t_contract(IKeeperRewardDistributorV3)43525"
      },
      {
        "astId": 56064,
        "contract": "contracts/PositionManager/PositionManager.sol:PositionManager",
        "label": "spotTradingRewardDistributor",
        "offset": 0,
        "slot": "217",
        "type": "t_contract(ISpotTradingRewardDistributorV2)65617"
      },
      {
        "astId": 56067,
        "contract": "contracts/PositionManager/PositionManager.sol:PositionManager",
        "label": "minPositionSize",
        "offset": 0,
        "slot": "218",
        "type": "t_uint256"
      },
      {
        "astId": 56070,
        "contract": "contracts/PositionManager/PositionManager.sol:PositionManager",
        "label": "minPositionAsset",
        "offset": 0,
        "slot": "219",
        "type": "t_address"
      },
      {
        "astId": 56074,
        "contract": "contracts/PositionManager/PositionManager.sol:PositionManager",
        "label": "positionIndexes",
        "offset": 0,
        "slot": "220",
        "type": "t_mapping(t_uint256,t_uint256)"
      },
      {
        "astId": 56078,
        "contract": "contracts/PositionManager/PositionManager.sol:PositionManager",
        "label": "traderPositionIndexes",
        "offset": 0,
        "slot": "221",
        "type": "t_mapping(t_uint256,t_uint256)"
      },
      {
        "astId": 56082,
        "contract": "contracts/PositionManager/PositionManager.sol:PositionManager",
        "label": "bucketPositionIndexes",
        "offset": 0,
        "slot": "222",
        "type": "t_mapping(t_uint256,t_uint256)"
      },
      {
        "astId": 56085,
        "contract": "contracts/PositionManager/PositionManager.sol:PositionManager",
        "label": "whiteBlackList",
        "offset": 0,
        "slot": "223",
        "type": "t_contract(IWhiteBlackList)75076"
      },
      {
        "astId": 56093,
        "contract": "contracts/PositionManager/PositionManager.sol:PositionManager",
        "label": "positionManagerExtension",
        "offset": 0,
        "slot": "224",
        "type": "t_address"
      }
    ],
    "types": {
      "t_address": {
        "encoding": "inplace",
        "label": "address",
        "numberOfBytes": "20"
      },
      "t_array(t_struct(Condition)83987_storage)dyn_storage": {
        "base": "t_struct(Condition)83987_storage",
        "encoding": "dynamic_array",
        "label": "struct LimitOrderLibrary.Condition[]",
        "numberOfBytes": "32"
      },
      "t_array(t_struct(Position)85440_storage)dyn_storage": {
        "base": "t_struct(Position)85440_storage",
        "encoding": "dynamic_array",
        "label": "struct PositionLibrary.Position[]",
        "numberOfBytes": "32"
      },
      "t_array(t_uint256)49_storage": {
        "base": "t_uint256",
        "encoding": "inplace",
        "label": "uint256[49]",
        "numberOfBytes": "1568"
      },
      "t_array(t_uint256)50_storage": {
        "base": "t_uint256",
        "encoding": "inplace",
        "label": "uint256[50]",
        "numberOfBytes": "1600"
      },
      "t_array(t_uint256)dyn_storage": {
        "base": "t_uint256",
        "encoding": "dynamic_array",
        "label": "uint256[]",
        "numberOfBytes": "32"
      },
      "t_bool": {
        "encoding": "inplace",
        "label": "bool",
        "numberOfBytes": "1"
      },
      "t_bytes_storage": {
        "encoding": "bytes",
        "label": "bytes",
        "numberOfBytes": "32"
      },
      "t_contract(IAccessControl)8010": {
        "encoding": "inplace",
        "label": "contract IAccessControl",
        "numberOfBytes": "20"
      },
      "t_contract(IBucketV3)31724": {
        "encoding": "inplace",
        "label": "contract IBucketV3",
        "numberOfBytes": "20"
      },
      "t_contract(IKeeperRewardDistributorV3)43525": {
        "encoding": "inplace",
        "label": "contract IKeeperRewardDistributorV3",
        "numberOfBytes": "20"
      },
      "t_contract(IPriceOracleV2)56397": {
        "encoding": "inplace",
        "label": "contract IPriceOracleV2",
        "numberOfBytes": "20"
      },
      "t_contract(IPrimexDNSV3)60258": {
        "encoding": "inplace",
        "label": "contract IPrimexDNSV3",
        "numberOfBytes": "20"
      },
      "t_contract(ISpotTradingRewardDistributorV2)65617": {
        "encoding": "inplace",
        "label": "contract ISpotTradingRewardDistributorV2",
        "numberOfBytes": "20"
      },
      "t_contract(ITraderBalanceVault)71550": {
        "encoding": "inplace",
        "label": "contract ITraderBalanceVault",
        "numberOfBytes": "20"
      },
      "t_contract(IWhiteBlackList)75076": {
        "encoding": "inplace",
        "label": "contract IWhiteBlackList",
        "numberOfBytes": "20"
      },
      "t_mapping(t_address,t_array(t_uint256)dyn_storage)": {
        "encoding": "mapping",
        "key": "t_address",
        "label": "mapping(address => uint256[])",
        "numberOfBytes": "32",
        "value": "t_array(t_uint256)dyn_storage"
      },
      "t_mapping(t_address,t_mapping(t_address,t_uint256))": {
        "encoding": "mapping",
        "key": "t_address",
        "label": "mapping(address => mapping(address => uint256))",
        "numberOfBytes": "32",
        "value": "t_mapping(t_address,t_uint256)"
      },
      "t_mapping(t_address,t_uint256)": {
        "encoding": "mapping",
        "key": "t_address",
        "label": "mapping(address => uint256)",
        "numberOfBytes": "32",
        "value": "t_uint256"
      },
      "t_mapping(t_uint256,t_array(t_struct(Condition)83987_storage)dyn_storage)": {
        "encoding": "mapping",
        "key": "t_uint256",
        "label": "mapping(uint256 => struct LimitOrderLibrary.Condition[])",
        "numberOfBytes": "32",
        "value": "t_array(t_struct(Condition)83987_storage)dyn_storage"
      },
      "t_mapping(t_uint256,t_uint256)": {
        "encoding": "mapping",
        "key": "t_uint256",
        "label": "mapping(uint256 => uint256)",
        "numberOfBytes": "32",
        "value": "t_uint256"
      },
      "t_struct(Condition)83987_storage": {
        "encoding": "inplace",
        "label": "struct LimitOrderLibrary.Condition",
        "members": [
          {
            "astId": 83984,
            "contract": "contracts/PositionManager/PositionManager.sol:PositionManager",
            "label": "managerType",
            "offset": 0,
            "slot": "0",
            "type": "t_uint256"
          },
          {
            "astId": 83986,
            "contract": "contracts/PositionManager/PositionManager.sol:PositionManager",
            "label": "params",
            "offset": 0,
            "slot": "1",
            "type": "t_bytes_storage"
          }
        ],
        "numberOfBytes": "64"
      },
      "t_struct(Position)85440_storage": {
        "encoding": "inplace",
        "label": "struct PositionLibrary.Position",
        "members": [
          {
            "astId": 85416,
            "contract": "contracts/PositionManager/PositionManager.sol:PositionManager",
            "label": "id",
            "offset": 0,
            "slot": "0",
            "type": "t_uint256"
          },
          {
            "astId": 85418,
            "contract": "contracts/PositionManager/PositionManager.sol:PositionManager",
            "label": "scaledDebtAmount",
            "offset": 0,
            "slot": "1",
            "type": "t_uint256"
          },
          {
            "astId": 85421,
            "contract": "contracts/PositionManager/PositionManager.sol:PositionManager",
            "label": "bucket",
            "offset": 0,
            "slot": "2",
            "type": "t_contract(IBucketV3)31724"
          },
          {
            "astId": 85423,
            "contract": "contracts/PositionManager/PositionManager.sol:PositionManager",
            "label": "soldAsset",
            "offset": 0,
            "slot": "3",
            "type": "t_address"
          },
          {
            "astId": 85425,
            "contract": "contracts/PositionManager/PositionManager.sol:PositionManager",
            "label": "depositAmountInSoldAsset",
            "offset": 0,
            "slot": "4",
            "type": "t_uint256"
          },
          {
            "astId": 85427,
            "contract": "contracts/PositionManager/PositionManager.sol:PositionManager",
            "label": "positionAsset",
            "offset": 0,
            "slot": "5",
            "type": "t_address"
          },
          {
            "astId": 85429,
            "contract": "contracts/PositionManager/PositionManager.sol:PositionManager",
            "label": "positionAmount",
            "offset": 0,
            "slot": "6",
            "type": "t_uint256"
          },
          {
            "astId": 85431,
            "contract": "contracts/PositionManager/PositionManager.sol:PositionManager",
            "label": "trader",
            "offset": 0,
            "slot": "7",
            "type": "t_address"
          },
          {
            "astId": 85433,
            "contract": "contracts/PositionManager/PositionManager.sol:PositionManager",
            "label": "openBorrowIndex",
            "offset": 0,
            "slot": "8",
            "type": "t_uint256"
          },
          {
            "astId": 85435,
            "contract": "contracts/PositionManager/PositionManager.sol:PositionManager",
            "label": "createdAt",
            "offset": 0,
            "slot": "9",
            "type": "t_uint256"
          },
          {
            "astId": 85437,
            "contract": "contracts/PositionManager/PositionManager.sol:PositionManager",
            "label": "updatedConditionsAt",
            "offset": 0,
            "slot": "10",
            "type": "t_uint256"
          },
          {
            "astId": 85439,
            "contract": "contracts/PositionManager/PositionManager.sol:PositionManager",
            "label": "extraParams",
            "offset": 0,
            "slot": "11",
            "type": "t_bytes_storage"
          }
        ],
        "numberOfBytes": "384"
      },
      "t_uint256": {
        "encoding": "inplace",
        "label": "uint256",
        "numberOfBytes": "32"
      },
      "t_uint8": {
        "encoding": "inplace",
        "label": "uint8",
        "numberOfBytes": "1"
      }
    }
  }
}