{
  "address": "0xCbaEc4b0683Ed6F2C2C318500962857768Fc1366",
  "abi": [
    {
      "inputs": [
        {
          "internalType": "address",
          "name": "_takeProfitStopLossCCM",
          "type": "address"
        }
      ],
      "stateMutability": "nonpayable",
      "type": "constructor"
    },
    {
      "inputs": [],
      "name": "DS_MATH_ADD_OVERFLOW",
      "type": "error"
    },
    {
      "inputs": [],
      "name": "DS_MATH_MUL_OVERFLOW",
      "type": "error"
    },
    {
      "inputs": [
        {
          "internalType": "address",
          "name": "_bucketFactory",
          "type": "address"
        },
        {
          "internalType": "address",
          "name": "_user",
          "type": "address"
        },
        {
          "internalType": "address",
          "name": "_positionManager",
          "type": "address"
        },
        {
          "internalType": "bool",
          "name": "_showDeprecated",
          "type": "bool"
        }
      ],
      "name": "getAllBucketsFactory",
      "outputs": [
        {
          "components": [
            {
              "internalType": "address",
              "name": "bucketAddress",
              "type": "address"
            },
            {
              "internalType": "string",
              "name": "name",
              "type": "string"
            },
            {
              "components": [
                {
                  "internalType": "address",
                  "name": "tokenAddress",
                  "type": "address"
                },
                {
                  "internalType": "string",
                  "name": "symbol",
                  "type": "string"
                },
                {
                  "internalType": "string",
                  "name": "name",
                  "type": "string"
                },
                {
                  "internalType": "uint256",
                  "name": "decimals",
                  "type": "uint256"
                },
                {
                  "internalType": "uint256",
                  "name": "balance",
                  "type": "uint256"
                }
              ],
              "internalType": "struct IPrimexLens.TokenMetadata",
              "name": "asset",
              "type": "tuple"
            },
            {
              "internalType": "uint128",
              "name": "bar",
              "type": "uint128"
            },
            {
              "internalType": "uint128",
              "name": "lar",
              "type": "uint128"
            },
            {
              "internalType": "uint256",
              "name": "supply",
              "type": "uint256"
            },
            {
              "internalType": "uint256",
              "name": "demand",
              "type": "uint256"
            },
            {
              "internalType": "uint256",
              "name": "availableLiquidity",
              "type": "uint256"
            },
            {
              "internalType": "uint256",
              "name": "utilizationRatio",
              "type": "uint256"
            },
            {
              "components": [
                {
                  "components": [
                    {
                      "internalType": "address",
                      "name": "tokenAddress",
                      "type": "address"
                    },
                    {
                      "internalType": "string",
                      "name": "symbol",
                      "type": "string"
                    },
                    {
                      "internalType": "string",
                      "name": "name",
                      "type": "string"
                    },
                    {
                      "internalType": "uint256",
                      "name": "decimals",
                      "type": "uint256"
                    },
                    {
                      "internalType": "uint256",
                      "name": "balance",
                      "type": "uint256"
                    }
                  ],
                  "internalType": "struct IPrimexLens.TokenMetadata",
                  "name": "asset",
                  "type": "tuple"
                },
                {
                  "components": [
                    {
                      "internalType": "uint256",
                      "name": "id",
                      "type": "uint256"
                    },
                    {
                      "internalType": "bool",
                      "name": "isSupported",
                      "type": "bool"
                    },
                    {
                      "internalType": "uint256",
                      "name": "pairPriceDrop",
                      "type": "uint256"
                    },
                    {
                      "internalType": "uint256",
                      "name": "maxLeverage",
                      "type": "uint256"
                    }
                  ],
                  "internalType": "struct IPrimexLens.BucketTokenMetadata",
                  "name": "properties",
                  "type": "tuple"
                }
              ],
              "internalType": "struct IPrimexLens.SupportedAsset[]",
              "name": "supportedAssets",
              "type": "tuple[]"
            },
            {
              "components": [
                {
                  "internalType": "address",
                  "name": "tokenAddress",
                  "type": "address"
                },
                {
                  "internalType": "string",
                  "name": "symbol",
                  "type": "string"
                },
                {
                  "internalType": "string",
                  "name": "name",
                  "type": "string"
                },
                {
                  "internalType": "uint256",
                  "name": "decimals",
                  "type": "uint256"
                },
                {
                  "internalType": "uint256",
                  "name": "balance",
                  "type": "uint256"
                }
              ],
              "internalType": "struct IPrimexLens.TokenMetadata",
              "name": "pToken",
              "type": "tuple"
            },
            {
              "components": [
                {
                  "internalType": "address",
                  "name": "tokenAddress",
                  "type": "address"
                },
                {
                  "internalType": "string",
                  "name": "symbol",
                  "type": "string"
                },
                {
                  "internalType": "string",
                  "name": "name",
                  "type": "string"
                },
                {
                  "internalType": "uint256",
                  "name": "decimals",
                  "type": "uint256"
                },
                {
                  "internalType": "uint256",
                  "name": "balance",
                  "type": "uint256"
                }
              ],
              "internalType": "struct IPrimexLens.TokenMetadata",
              "name": "debtToken",
              "type": "tuple"
            },
            {
              "internalType": "uint256",
              "name": "feeBuffer",
              "type": "uint256"
            },
            {
              "internalType": "uint256",
              "name": "withdrawalFeeRate",
              "type": "uint256"
            },
            {
              "components": [
                {
                  "internalType": "contract ILiquidityMiningRewardDistributor",
                  "name": "liquidityMiningRewardDistributor",
                  "type": "address"
                },
                {
                  "internalType": "bool",
                  "name": "isBucketLaunched",
                  "type": "bool"
                },
                {
                  "internalType": "uint256",
                  "name": "accumulatingAmount",
                  "type": "uint256"
                },
                {
                  "internalType": "uint256",
                  "name": "deadlineTimestamp",
                  "type": "uint256"
                },
                {
                  "internalType": "uint256",
                  "name": "stabilizationDuration",
                  "type": "uint256"
                },
                {
                  "internalType": "uint256",
                  "name": "stabilizationEndTimestamp",
                  "type": "uint256"
                },
                {
                  "internalType": "uint256",
                  "name": "maxAmountPerUser",
                  "type": "uint256"
                },
                {
                  "internalType": "uint256",
                  "name": "maxDuration",
                  "type": "uint256"
                },
                {
                  "internalType": "uint256",
                  "name": "maxStabilizationEndTimestamp",
                  "type": "uint256"
                }
              ],
              "internalType": "struct IBucketStorage.LiquidityMiningParams",
              "name": "miningParams",
              "type": "tuple"
            },
            {
              "components": [
                {
                  "internalType": "uint256",
                  "name": "amountInMining",
                  "type": "uint256"
                },
                {
                  "internalType": "uint256",
                  "name": "currentPercent",
                  "type": "uint256"
                },
                {
                  "components": [
                    {
                      "internalType": "uint256",
                      "name": "minReward",
                      "type": "uint256"
                    },
                    {
                      "internalType": "uint256",
                      "name": "maxReward",
                      "type": "uint256"
                    },
                    {
                      "internalType": "uint256",
                      "name": "extraReward",
                      "type": "uint256"
                    }
                  ],
                  "internalType": "struct ILiquidityMiningRewardDistributor.RewardsInPMX",
                  "name": "rewardsInPMX",
                  "type": "tuple"
                }
              ],
              "internalType": "struct IPrimexLens.LenderInfo",
              "name": "lenderInfo",
              "type": "tuple"
            },
            {
              "components": [
                {
                  "internalType": "uint256",
                  "name": "pmxAmount",
                  "type": "uint256"
                },
                {
                  "internalType": "uint256",
                  "name": "withdrawnRewards",
                  "type": "uint256"
                },
                {
                  "internalType": "uint256",
                  "name": "totalPoints",
                  "type": "uint256"
                }
              ],
              "internalType": "struct IPrimexLens.LiquidityMiningBucketInfo",
              "name": "lmBucketInfo",
              "type": "tuple"
            },
            {
              "internalType": "uint128",
              "name": "estimatedBar",
              "type": "uint128"
            },
            {
              "internalType": "uint128",
              "name": "estimatedLar",
              "type": "uint128"
            },
            {
              "internalType": "bool",
              "name": "isDeprecated",
              "type": "bool"
            },
            {
              "internalType": "bool",
              "name": "isDelisted",
              "type": "bool"
            },
            {
              "components": [
                {
                  "internalType": "uint256",
                  "name": "urOptimal",
                  "type": "uint256"
                },
                {
                  "internalType": "uint256",
                  "name": "k0",
                  "type": "uint256"
                },
                {
                  "internalType": "uint256",
                  "name": "k1",
                  "type": "uint256"
                },
                {
                  "internalType": "uint256",
                  "name": "b0",
                  "type": "uint256"
                },
                {
                  "internalType": "int256",
                  "name": "b1",
                  "type": "int256"
                }
              ],
              "internalType": "struct IInterestRateStrategy.BarCalculationParams",
              "name": "barCalcParams",
              "type": "tuple"
            },
            {
              "internalType": "uint256",
              "name": "maxTotalDeposit",
              "type": "uint256"
            }
          ],
          "internalType": "struct IPrimexLens.BucketMetaData[]",
          "name": "",
          "type": "tuple[]"
        }
      ],
      "stateMutability": "view",
      "type": "function"
    },
    {
      "inputs": [
        {
          "internalType": "address",
          "name": "_positionManager",
          "type": "address"
        },
        {
          "internalType": "address",
          "name": "_bucket",
          "type": "address"
        },
        {
          "internalType": "uint256",
          "name": "_cursor",
          "type": "uint256"
        },
        {
          "internalType": "uint256",
          "name": "_count",
          "type": "uint256"
        }
      ],
      "name": "getArrayOpenPositionDataByBucket",
      "outputs": [
        {
          "components": [
            {
              "internalType": "uint256",
              "name": "id",
              "type": "uint256"
            },
            {
              "components": [
                {
                  "internalType": "address",
                  "name": "bucketAddress",
                  "type": "address"
                },
                {
                  "internalType": "string",
                  "name": "name",
                  "type": "string"
                },
                {
                  "components": [
                    {
                      "internalType": "address",
                      "name": "tokenAddress",
                      "type": "address"
                    },
                    {
                      "internalType": "string",
                      "name": "symbol",
                      "type": "string"
                    },
                    {
                      "internalType": "string",
                      "name": "name",
                      "type": "string"
                    },
                    {
                      "internalType": "uint256",
                      "name": "decimals",
                      "type": "uint256"
                    },
                    {
                      "internalType": "uint256",
                      "name": "balance",
                      "type": "uint256"
                    }
                  ],
                  "internalType": "struct IPrimexLens.TokenMetadata",
                  "name": "asset",
                  "type": "tuple"
                },
                {
                  "internalType": "uint128",
                  "name": "bar",
                  "type": "uint128"
                },
                {
                  "internalType": "uint128",
                  "name": "lar",
                  "type": "uint128"
                },
                {
                  "internalType": "uint256",
                  "name": "supply",
                  "type": "uint256"
                },
                {
                  "internalType": "uint256",
                  "name": "demand",
                  "type": "uint256"
                },
                {
                  "internalType": "uint256",
                  "name": "availableLiquidity",
                  "type": "uint256"
                },
                {
                  "internalType": "uint256",
                  "name": "utilizationRatio",
                  "type": "uint256"
                },
                {
                  "components": [
                    {
                      "components": [
                        {
                          "internalType": "address",
                          "name": "tokenAddress",
                          "type": "address"
                        },
                        {
                          "internalType": "string",
                          "name": "symbol",
                          "type": "string"
                        },
                        {
                          "internalType": "string",
                          "name": "name",
                          "type": "string"
                        },
                        {
                          "internalType": "uint256",
                          "name": "decimals",
                          "type": "uint256"
                        },
                        {
                          "internalType": "uint256",
                          "name": "balance",
                          "type": "uint256"
                        }
                      ],
                      "internalType": "struct IPrimexLens.TokenMetadata",
                      "name": "asset",
                      "type": "tuple"
                    },
                    {
                      "components": [
                        {
                          "internalType": "uint256",
                          "name": "id",
                          "type": "uint256"
                        },
                        {
                          "internalType": "bool",
                          "name": "isSupported",
                          "type": "bool"
                        },
                        {
                          "internalType": "uint256",
                          "name": "pairPriceDrop",
                          "type": "uint256"
                        },
                        {
                          "internalType": "uint256",
                          "name": "maxLeverage",
                          "type": "uint256"
                        }
                      ],
                      "internalType": "struct IPrimexLens.BucketTokenMetadata",
                      "name": "properties",
                      "type": "tuple"
                    }
                  ],
                  "internalType": "struct IPrimexLens.SupportedAsset[]",
                  "name": "supportedAssets",
                  "type": "tuple[]"
                },
                {
                  "components": [
                    {
                      "internalType": "address",
                      "name": "tokenAddress",
                      "type": "address"
                    },
                    {
                      "internalType": "string",
                      "name": "symbol",
                      "type": "string"
                    },
                    {
                      "internalType": "string",
                      "name": "name",
                      "type": "string"
                    },
                    {
                      "internalType": "uint256",
                      "name": "decimals",
                      "type": "uint256"
                    },
                    {
                      "internalType": "uint256",
                      "name": "balance",
                      "type": "uint256"
                    }
                  ],
                  "internalType": "struct IPrimexLens.TokenMetadata",
                  "name": "pToken",
                  "type": "tuple"
                },
                {
                  "components": [
                    {
                      "internalType": "address",
                      "name": "tokenAddress",
                      "type": "address"
                    },
                    {
                      "internalType": "string",
                      "name": "symbol",
                      "type": "string"
                    },
                    {
                      "internalType": "string",
                      "name": "name",
                      "type": "string"
                    },
                    {
                      "internalType": "uint256",
                      "name": "decimals",
                      "type": "uint256"
                    },
                    {
                      "internalType": "uint256",
                      "name": "balance",
                      "type": "uint256"
                    }
                  ],
                  "internalType": "struct IPrimexLens.TokenMetadata",
                  "name": "debtToken",
                  "type": "tuple"
                },
                {
                  "internalType": "uint256",
                  "name": "feeBuffer",
                  "type": "uint256"
                },
                {
                  "internalType": "uint256",
                  "name": "withdrawalFeeRate",
                  "type": "uint256"
                },
                {
                  "components": [
                    {
                      "internalType": "contract ILiquidityMiningRewardDistributor",
                      "name": "liquidityMiningRewardDistributor",
                      "type": "address"
                    },
                    {
                      "internalType": "bool",
                      "name": "isBucketLaunched",
                      "type": "bool"
                    },
                    {
                      "internalType": "uint256",
                      "name": "accumulatingAmount",
                      "type": "uint256"
                    },
                    {
                      "internalType": "uint256",
                      "name": "deadlineTimestamp",
                      "type": "uint256"
                    },
                    {
                      "internalType": "uint256",
                      "name": "stabilizationDuration",
                      "type": "uint256"
                    },
                    {
                      "internalType": "uint256",
                      "name": "stabilizationEndTimestamp",
                      "type": "uint256"
                    },
                    {
                      "internalType": "uint256",
                      "name": "maxAmountPerUser",
                      "type": "uint256"
                    },
                    {
                      "internalType": "uint256",
                      "name": "maxDuration",
                      "type": "uint256"
                    },
                    {
                      "internalType": "uint256",
                      "name": "maxStabilizationEndTimestamp",
                      "type": "uint256"
                    }
                  ],
                  "internalType": "struct IBucketStorage.LiquidityMiningParams",
                  "name": "miningParams",
                  "type": "tuple"
                },
                {
                  "components": [
                    {
                      "internalType": "uint256",
                      "name": "amountInMining",
                      "type": "uint256"
                    },
                    {
                      "internalType": "uint256",
                      "name": "currentPercent",
                      "type": "uint256"
                    },
                    {
                      "components": [
                        {
                          "internalType": "uint256",
                          "name": "minReward",
                          "type": "uint256"
                        },
                        {
                          "internalType": "uint256",
                          "name": "maxReward",
                          "type": "uint256"
                        },
                        {
                          "internalType": "uint256",
                          "name": "extraReward",
                          "type": "uint256"
                        }
                      ],
                      "internalType": "struct ILiquidityMiningRewardDistributor.RewardsInPMX",
                      "name": "rewardsInPMX",
                      "type": "tuple"
                    }
                  ],
                  "internalType": "struct IPrimexLens.LenderInfo",
                  "name": "lenderInfo",
                  "type": "tuple"
                },
                {
                  "components": [
                    {
                      "internalType": "uint256",
                      "name": "pmxAmount",
                      "type": "uint256"
                    },
                    {
                      "internalType": "uint256",
                      "name": "withdrawnRewards",
                      "type": "uint256"
                    },
                    {
                      "internalType": "uint256",
                      "name": "totalPoints",
                      "type": "uint256"
                    }
                  ],
                  "internalType": "struct IPrimexLens.LiquidityMiningBucketInfo",
                  "name": "lmBucketInfo",
                  "type": "tuple"
                },
                {
                  "internalType": "uint128",
                  "name": "estimatedBar",
                  "type": "uint128"
                },
                {
                  "internalType": "uint128",
                  "name": "estimatedLar",
                  "type": "uint128"
                },
                {
                  "internalType": "bool",
                  "name": "isDeprecated",
                  "type": "bool"
                },
                {
                  "internalType": "bool",
                  "name": "isDelisted",
                  "type": "bool"
                },
                {
                  "components": [
                    {
                      "internalType": "uint256",
                      "name": "urOptimal",
                      "type": "uint256"
                    },
                    {
                      "internalType": "uint256",
                      "name": "k0",
                      "type": "uint256"
                    },
                    {
                      "internalType": "uint256",
                      "name": "k1",
                      "type": "uint256"
                    },
                    {
                      "internalType": "uint256",
                      "name": "b0",
                      "type": "uint256"
                    },
                    {
                      "internalType": "int256",
                      "name": "b1",
                      "type": "int256"
                    }
                  ],
                  "internalType": "struct IInterestRateStrategy.BarCalculationParams",
                  "name": "barCalcParams",
                  "type": "tuple"
                },
                {
                  "internalType": "uint256",
                  "name": "maxTotalDeposit",
                  "type": "uint256"
                }
              ],
              "internalType": "struct IPrimexLens.BucketMetaData",
              "name": "bucket",
              "type": "tuple"
            },
            {
              "components": [
                {
                  "internalType": "address",
                  "name": "tokenAddress",
                  "type": "address"
                },
                {
                  "internalType": "string",
                  "name": "symbol",
                  "type": "string"
                },
                {
                  "internalType": "string",
                  "name": "name",
                  "type": "string"
                },
                {
                  "internalType": "uint256",
                  "name": "decimals",
                  "type": "uint256"
                },
                {
                  "internalType": "uint256",
                  "name": "balance",
                  "type": "uint256"
                }
              ],
              "internalType": "struct IPrimexLens.TokenMetadata[2]",
              "name": "pair",
              "type": "tuple[2]"
            },
            {
              "internalType": "uint256",
              "name": "positionSize",
              "type": "uint256"
            },
            {
              "internalType": "uint256",
              "name": "liquidationPrice",
              "type": "uint256"
            },
            {
              "internalType": "uint256",
              "name": "stopLossPrice",
              "type": "uint256"
            },
            {
              "internalType": "uint256",
              "name": "takeProfitPrice",
              "type": "uint256"
            },
            {
              "internalType": "uint256",
              "name": "debt",
              "type": "uint256"
            },
            {
              "internalType": "uint256",
              "name": "depositAmount",
              "type": "uint256"
            },
            {
              "internalType": "uint256",
              "name": "createdAt",
              "type": "uint256"
            }
          ],
          "internalType": "struct IPrimexLens.OpenPositionData[]",
          "name": "positionsData",
          "type": "tuple[]"
        },
        {
          "internalType": "uint256",
          "name": "newCursor",
          "type": "uint256"
        }
      ],
      "stateMutability": "view",
      "type": "function"
    },
    {
      "inputs": [
        {
          "internalType": "address",
          "name": "_positionManager",
          "type": "address"
        },
        {
          "internalType": "address",
          "name": "_trader",
          "type": "address"
        },
        {
          "internalType": "uint256",
          "name": "_cursor",
          "type": "uint256"
        },
        {
          "internalType": "uint256",
          "name": "_count",
          "type": "uint256"
        }
      ],
      "name": "getArrayOpenPositionDataByTrader",
      "outputs": [
        {
          "components": [
            {
              "internalType": "uint256",
              "name": "id",
              "type": "uint256"
            },
            {
              "components": [
                {
                  "internalType": "address",
                  "name": "bucketAddress",
                  "type": "address"
                },
                {
                  "internalType": "string",
                  "name": "name",
                  "type": "string"
                },
                {
                  "components": [
                    {
                      "internalType": "address",
                      "name": "tokenAddress",
                      "type": "address"
                    },
                    {
                      "internalType": "string",
                      "name": "symbol",
                      "type": "string"
                    },
                    {
                      "internalType": "string",
                      "name": "name",
                      "type": "string"
                    },
                    {
                      "internalType": "uint256",
                      "name": "decimals",
                      "type": "uint256"
                    },
                    {
                      "internalType": "uint256",
                      "name": "balance",
                      "type": "uint256"
                    }
                  ],
                  "internalType": "struct IPrimexLens.TokenMetadata",
                  "name": "asset",
                  "type": "tuple"
                },
                {
                  "internalType": "uint128",
                  "name": "bar",
                  "type": "uint128"
                },
                {
                  "internalType": "uint128",
                  "name": "lar",
                  "type": "uint128"
                },
                {
                  "internalType": "uint256",
                  "name": "supply",
                  "type": "uint256"
                },
                {
                  "internalType": "uint256",
                  "name": "demand",
                  "type": "uint256"
                },
                {
                  "internalType": "uint256",
                  "name": "availableLiquidity",
                  "type": "uint256"
                },
                {
                  "internalType": "uint256",
                  "name": "utilizationRatio",
                  "type": "uint256"
                },
                {
                  "components": [
                    {
                      "components": [
                        {
                          "internalType": "address",
                          "name": "tokenAddress",
                          "type": "address"
                        },
                        {
                          "internalType": "string",
                          "name": "symbol",
                          "type": "string"
                        },
                        {
                          "internalType": "string",
                          "name": "name",
                          "type": "string"
                        },
                        {
                          "internalType": "uint256",
                          "name": "decimals",
                          "type": "uint256"
                        },
                        {
                          "internalType": "uint256",
                          "name": "balance",
                          "type": "uint256"
                        }
                      ],
                      "internalType": "struct IPrimexLens.TokenMetadata",
                      "name": "asset",
                      "type": "tuple"
                    },
                    {
                      "components": [
                        {
                          "internalType": "uint256",
                          "name": "id",
                          "type": "uint256"
                        },
                        {
                          "internalType": "bool",
                          "name": "isSupported",
                          "type": "bool"
                        },
                        {
                          "internalType": "uint256",
                          "name": "pairPriceDrop",
                          "type": "uint256"
                        },
                        {
                          "internalType": "uint256",
                          "name": "maxLeverage",
                          "type": "uint256"
                        }
                      ],
                      "internalType": "struct IPrimexLens.BucketTokenMetadata",
                      "name": "properties",
                      "type": "tuple"
                    }
                  ],
                  "internalType": "struct IPrimexLens.SupportedAsset[]",
                  "name": "supportedAssets",
                  "type": "tuple[]"
                },
                {
                  "components": [
                    {
                      "internalType": "address",
                      "name": "tokenAddress",
                      "type": "address"
                    },
                    {
                      "internalType": "string",
                      "name": "symbol",
                      "type": "string"
                    },
                    {
                      "internalType": "string",
                      "name": "name",
                      "type": "string"
                    },
                    {
                      "internalType": "uint256",
                      "name": "decimals",
                      "type": "uint256"
                    },
                    {
                      "internalType": "uint256",
                      "name": "balance",
                      "type": "uint256"
                    }
                  ],
                  "internalType": "struct IPrimexLens.TokenMetadata",
                  "name": "pToken",
                  "type": "tuple"
                },
                {
                  "components": [
                    {
                      "internalType": "address",
                      "name": "tokenAddress",
                      "type": "address"
                    },
                    {
                      "internalType": "string",
                      "name": "symbol",
                      "type": "string"
                    },
                    {
                      "internalType": "string",
                      "name": "name",
                      "type": "string"
                    },
                    {
                      "internalType": "uint256",
                      "name": "decimals",
                      "type": "uint256"
                    },
                    {
                      "internalType": "uint256",
                      "name": "balance",
                      "type": "uint256"
                    }
                  ],
                  "internalType": "struct IPrimexLens.TokenMetadata",
                  "name": "debtToken",
                  "type": "tuple"
                },
                {
                  "internalType": "uint256",
                  "name": "feeBuffer",
                  "type": "uint256"
                },
                {
                  "internalType": "uint256",
                  "name": "withdrawalFeeRate",
                  "type": "uint256"
                },
                {
                  "components": [
                    {
                      "internalType": "contract ILiquidityMiningRewardDistributor",
                      "name": "liquidityMiningRewardDistributor",
                      "type": "address"
                    },
                    {
                      "internalType": "bool",
                      "name": "isBucketLaunched",
                      "type": "bool"
                    },
                    {
                      "internalType": "uint256",
                      "name": "accumulatingAmount",
                      "type": "uint256"
                    },
                    {
                      "internalType": "uint256",
                      "name": "deadlineTimestamp",
                      "type": "uint256"
                    },
                    {
                      "internalType": "uint256",
                      "name": "stabilizationDuration",
                      "type": "uint256"
                    },
                    {
                      "internalType": "uint256",
                      "name": "stabilizationEndTimestamp",
                      "type": "uint256"
                    },
                    {
                      "internalType": "uint256",
                      "name": "maxAmountPerUser",
                      "type": "uint256"
                    },
                    {
                      "internalType": "uint256",
                      "name": "maxDuration",
                      "type": "uint256"
                    },
                    {
                      "internalType": "uint256",
                      "name": "maxStabilizationEndTimestamp",
                      "type": "uint256"
                    }
                  ],
                  "internalType": "struct IBucketStorage.LiquidityMiningParams",
                  "name": "miningParams",
                  "type": "tuple"
                },
                {
                  "components": [
                    {
                      "internalType": "uint256",
                      "name": "amountInMining",
                      "type": "uint256"
                    },
                    {
                      "internalType": "uint256",
                      "name": "currentPercent",
                      "type": "uint256"
                    },
                    {
                      "components": [
                        {
                          "internalType": "uint256",
                          "name": "minReward",
                          "type": "uint256"
                        },
                        {
                          "internalType": "uint256",
                          "name": "maxReward",
                          "type": "uint256"
                        },
                        {
                          "internalType": "uint256",
                          "name": "extraReward",
                          "type": "uint256"
                        }
                      ],
                      "internalType": "struct ILiquidityMiningRewardDistributor.RewardsInPMX",
                      "name": "rewardsInPMX",
                      "type": "tuple"
                    }
                  ],
                  "internalType": "struct IPrimexLens.LenderInfo",
                  "name": "lenderInfo",
                  "type": "tuple"
                },
                {
                  "components": [
                    {
                      "internalType": "uint256",
                      "name": "pmxAmount",
                      "type": "uint256"
                    },
                    {
                      "internalType": "uint256",
                      "name": "withdrawnRewards",
                      "type": "uint256"
                    },
                    {
                      "internalType": "uint256",
                      "name": "totalPoints",
                      "type": "uint256"
                    }
                  ],
                  "internalType": "struct IPrimexLens.LiquidityMiningBucketInfo",
                  "name": "lmBucketInfo",
                  "type": "tuple"
                },
                {
                  "internalType": "uint128",
                  "name": "estimatedBar",
                  "type": "uint128"
                },
                {
                  "internalType": "uint128",
                  "name": "estimatedLar",
                  "type": "uint128"
                },
                {
                  "internalType": "bool",
                  "name": "isDeprecated",
                  "type": "bool"
                },
                {
                  "internalType": "bool",
                  "name": "isDelisted",
                  "type": "bool"
                },
                {
                  "components": [
                    {
                      "internalType": "uint256",
                      "name": "urOptimal",
                      "type": "uint256"
                    },
                    {
                      "internalType": "uint256",
                      "name": "k0",
                      "type": "uint256"
                    },
                    {
                      "internalType": "uint256",
                      "name": "k1",
                      "type": "uint256"
                    },
                    {
                      "internalType": "uint256",
                      "name": "b0",
                      "type": "uint256"
                    },
                    {
                      "internalType": "int256",
                      "name": "b1",
                      "type": "int256"
                    }
                  ],
                  "internalType": "struct IInterestRateStrategy.BarCalculationParams",
                  "name": "barCalcParams",
                  "type": "tuple"
                },
                {
                  "internalType": "uint256",
                  "name": "maxTotalDeposit",
                  "type": "uint256"
                }
              ],
              "internalType": "struct IPrimexLens.BucketMetaData",
              "name": "bucket",
              "type": "tuple"
            },
            {
              "components": [
                {
                  "internalType": "address",
                  "name": "tokenAddress",
                  "type": "address"
                },
                {
                  "internalType": "string",
                  "name": "symbol",
                  "type": "string"
                },
                {
                  "internalType": "string",
                  "name": "name",
                  "type": "string"
                },
                {
                  "internalType": "uint256",
                  "name": "decimals",
                  "type": "uint256"
                },
                {
                  "internalType": "uint256",
                  "name": "balance",
                  "type": "uint256"
                }
              ],
              "internalType": "struct IPrimexLens.TokenMetadata[2]",
              "name": "pair",
              "type": "tuple[2]"
            },
            {
              "internalType": "uint256",
              "name": "positionSize",
              "type": "uint256"
            },
            {
              "internalType": "uint256",
              "name": "liquidationPrice",
              "type": "uint256"
            },
            {
              "internalType": "uint256",
              "name": "stopLossPrice",
              "type": "uint256"
            },
            {
              "internalType": "uint256",
              "name": "takeProfitPrice",
              "type": "uint256"
            },
            {
              "internalType": "uint256",
              "name": "debt",
              "type": "uint256"
            },
            {
              "internalType": "uint256",
              "name": "depositAmount",
              "type": "uint256"
            },
            {
              "internalType": "uint256",
              "name": "createdAt",
              "type": "uint256"
            }
          ],
          "internalType": "struct IPrimexLens.OpenPositionData[]",
          "name": "positionsData",
          "type": "tuple[]"
        },
        {
          "internalType": "uint256",
          "name": "newCursor",
          "type": "uint256"
        }
      ],
      "stateMutability": "view",
      "type": "function"
    },
    {
      "inputs": [
        {
          "internalType": "address",
          "name": "_bucket",
          "type": "address"
        },
        {
          "internalType": "address",
          "name": "_asset",
          "type": "address"
        }
      ],
      "name": "getAssetMetadata",
      "outputs": [
        {
          "components": [
            {
              "internalType": "uint256",
              "name": "id",
              "type": "uint256"
            },
            {
              "internalType": "bool",
              "name": "isSupported",
              "type": "bool"
            },
            {
              "internalType": "uint256",
              "name": "pairPriceDrop",
              "type": "uint256"
            },
            {
              "internalType": "uint256",
              "name": "maxLeverage",
              "type": "uint256"
            }
          ],
          "internalType": "struct IPrimexLens.BucketTokenMetadata",
          "name": "",
          "type": "tuple"
        }
      ],
      "stateMutability": "view",
      "type": "function"
    },
    {
      "inputs": [
        {
          "internalType": "address",
          "name": "_bucket",
          "type": "address"
        },
        {
          "internalType": "address",
          "name": "_user",
          "type": "address"
        }
      ],
      "name": "getBucket",
      "outputs": [
        {
          "components": [
            {
              "internalType": "address",
              "name": "bucketAddress",
              "type": "address"
            },
            {
              "internalType": "string",
              "name": "name",
              "type": "string"
            },
            {
              "components": [
                {
                  "internalType": "address",
                  "name": "tokenAddress",
                  "type": "address"
                },
                {
                  "internalType": "string",
                  "name": "symbol",
                  "type": "string"
                },
                {
                  "internalType": "string",
                  "name": "name",
                  "type": "string"
                },
                {
                  "internalType": "uint256",
                  "name": "decimals",
                  "type": "uint256"
                },
                {
                  "internalType": "uint256",
                  "name": "balance",
                  "type": "uint256"
                }
              ],
              "internalType": "struct IPrimexLens.TokenMetadata",
              "name": "asset",
              "type": "tuple"
            },
            {
              "internalType": "uint128",
              "name": "bar",
              "type": "uint128"
            },
            {
              "internalType": "uint128",
              "name": "lar",
              "type": "uint128"
            },
            {
              "internalType": "uint256",
              "name": "supply",
              "type": "uint256"
            },
            {
              "internalType": "uint256",
              "name": "demand",
              "type": "uint256"
            },
            {
              "internalType": "uint256",
              "name": "availableLiquidity",
              "type": "uint256"
            },
            {
              "internalType": "uint256",
              "name": "utilizationRatio",
              "type": "uint256"
            },
            {
              "components": [
                {
                  "components": [
                    {
                      "internalType": "address",
                      "name": "tokenAddress",
                      "type": "address"
                    },
                    {
                      "internalType": "string",
                      "name": "symbol",
                      "type": "string"
                    },
                    {
                      "internalType": "string",
                      "name": "name",
                      "type": "string"
                    },
                    {
                      "internalType": "uint256",
                      "name": "decimals",
                      "type": "uint256"
                    },
                    {
                      "internalType": "uint256",
                      "name": "balance",
                      "type": "uint256"
                    }
                  ],
                  "internalType": "struct IPrimexLens.TokenMetadata",
                  "name": "asset",
                  "type": "tuple"
                },
                {
                  "components": [
                    {
                      "internalType": "uint256",
                      "name": "id",
                      "type": "uint256"
                    },
                    {
                      "internalType": "bool",
                      "name": "isSupported",
                      "type": "bool"
                    },
                    {
                      "internalType": "uint256",
                      "name": "pairPriceDrop",
                      "type": "uint256"
                    },
                    {
                      "internalType": "uint256",
                      "name": "maxLeverage",
                      "type": "uint256"
                    }
                  ],
                  "internalType": "struct IPrimexLens.BucketTokenMetadata",
                  "name": "properties",
                  "type": "tuple"
                }
              ],
              "internalType": "struct IPrimexLens.SupportedAsset[]",
              "name": "supportedAssets",
              "type": "tuple[]"
            },
            {
              "components": [
                {
                  "internalType": "address",
                  "name": "tokenAddress",
                  "type": "address"
                },
                {
                  "internalType": "string",
                  "name": "symbol",
                  "type": "string"
                },
                {
                  "internalType": "string",
                  "name": "name",
                  "type": "string"
                },
                {
                  "internalType": "uint256",
                  "name": "decimals",
                  "type": "uint256"
                },
                {
                  "internalType": "uint256",
                  "name": "balance",
                  "type": "uint256"
                }
              ],
              "internalType": "struct IPrimexLens.TokenMetadata",
              "name": "pToken",
              "type": "tuple"
            },
            {
              "components": [
                {
                  "internalType": "address",
                  "name": "tokenAddress",
                  "type": "address"
                },
                {
                  "internalType": "string",
                  "name": "symbol",
                  "type": "string"
                },
                {
                  "internalType": "string",
                  "name": "name",
                  "type": "string"
                },
                {
                  "internalType": "uint256",
                  "name": "decimals",
                  "type": "uint256"
                },
                {
                  "internalType": "uint256",
                  "name": "balance",
                  "type": "uint256"
                }
              ],
              "internalType": "struct IPrimexLens.TokenMetadata",
              "name": "debtToken",
              "type": "tuple"
            },
            {
              "internalType": "uint256",
              "name": "feeBuffer",
              "type": "uint256"
            },
            {
              "internalType": "uint256",
              "name": "withdrawalFeeRate",
              "type": "uint256"
            },
            {
              "components": [
                {
                  "internalType": "contract ILiquidityMiningRewardDistributor",
                  "name": "liquidityMiningRewardDistributor",
                  "type": "address"
                },
                {
                  "internalType": "bool",
                  "name": "isBucketLaunched",
                  "type": "bool"
                },
                {
                  "internalType": "uint256",
                  "name": "accumulatingAmount",
                  "type": "uint256"
                },
                {
                  "internalType": "uint256",
                  "name": "deadlineTimestamp",
                  "type": "uint256"
                },
                {
                  "internalType": "uint256",
                  "name": "stabilizationDuration",
                  "type": "uint256"
                },
                {
                  "internalType": "uint256",
                  "name": "stabilizationEndTimestamp",
                  "type": "uint256"
                },
                {
                  "internalType": "uint256",
                  "name": "maxAmountPerUser",
                  "type": "uint256"
                },
                {
                  "internalType": "uint256",
                  "name": "maxDuration",
                  "type": "uint256"
                },
                {
                  "internalType": "uint256",
                  "name": "maxStabilizationEndTimestamp",
                  "type": "uint256"
                }
              ],
              "internalType": "struct IBucketStorage.LiquidityMiningParams",
              "name": "miningParams",
              "type": "tuple"
            },
            {
              "components": [
                {
                  "internalType": "uint256",
                  "name": "amountInMining",
                  "type": "uint256"
                },
                {
                  "internalType": "uint256",
                  "name": "currentPercent",
                  "type": "uint256"
                },
                {
                  "components": [
                    {
                      "internalType": "uint256",
                      "name": "minReward",
                      "type": "uint256"
                    },
                    {
                      "internalType": "uint256",
                      "name": "maxReward",
                      "type": "uint256"
                    },
                    {
                      "internalType": "uint256",
                      "name": "extraReward",
                      "type": "uint256"
                    }
                  ],
                  "internalType": "struct ILiquidityMiningRewardDistributor.RewardsInPMX",
                  "name": "rewardsInPMX",
                  "type": "tuple"
                }
              ],
              "internalType": "struct IPrimexLens.LenderInfo",
              "name": "lenderInfo",
              "type": "tuple"
            },
            {
              "components": [
                {
                  "internalType": "uint256",
                  "name": "pmxAmount",
                  "type": "uint256"
                },
                {
                  "internalType": "uint256",
                  "name": "withdrawnRewards",
                  "type": "uint256"
                },
                {
                  "internalType": "uint256",
                  "name": "totalPoints",
                  "type": "uint256"
                }
              ],
              "internalType": "struct IPrimexLens.LiquidityMiningBucketInfo",
              "name": "lmBucketInfo",
              "type": "tuple"
            },
            {
              "internalType": "uint128",
              "name": "estimatedBar",
              "type": "uint128"
            },
            {
              "internalType": "uint128",
              "name": "estimatedLar",
              "type": "uint128"
            },
            {
              "internalType": "bool",
              "name": "isDeprecated",
              "type": "bool"
            },
            {
              "internalType": "bool",
              "name": "isDelisted",
              "type": "bool"
            },
            {
              "components": [
                {
                  "internalType": "uint256",
                  "name": "urOptimal",
                  "type": "uint256"
                },
                {
                  "internalType": "uint256",
                  "name": "k0",
                  "type": "uint256"
                },
                {
                  "internalType": "uint256",
                  "name": "k1",
                  "type": "uint256"
                },
                {
                  "internalType": "uint256",
                  "name": "b0",
                  "type": "uint256"
                },
                {
                  "internalType": "int256",
                  "name": "b1",
                  "type": "int256"
                }
              ],
              "internalType": "struct IInterestRateStrategy.BarCalculationParams",
              "name": "barCalcParams",
              "type": "tuple"
            },
            {
              "internalType": "uint256",
              "name": "maxTotalDeposit",
              "type": "uint256"
            }
          ],
          "internalType": "struct IPrimexLens.BucketMetaData",
          "name": "",
          "type": "tuple"
        }
      ],
      "stateMutability": "view",
      "type": "function"
    },
    {
      "inputs": [
        {
          "internalType": "address[]",
          "name": "_buckets",
          "type": "address[]"
        },
        {
          "internalType": "address",
          "name": "_user",
          "type": "address"
        },
        {
          "internalType": "address",
          "name": "_positionManager",
          "type": "address"
        },
        {
          "internalType": "bool",
          "name": "_showDeprecated",
          "type": "bool"
        }
      ],
      "name": "getBucketsArray",
      "outputs": [
        {
          "components": [
            {
              "internalType": "address",
              "name": "bucketAddress",
              "type": "address"
            },
            {
              "internalType": "string",
              "name": "name",
              "type": "string"
            },
            {
              "components": [
                {
                  "internalType": "address",
                  "name": "tokenAddress",
                  "type": "address"
                },
                {
                  "internalType": "string",
                  "name": "symbol",
                  "type": "string"
                },
                {
                  "internalType": "string",
                  "name": "name",
                  "type": "string"
                },
                {
                  "internalType": "uint256",
                  "name": "decimals",
                  "type": "uint256"
                },
                {
                  "internalType": "uint256",
                  "name": "balance",
                  "type": "uint256"
                }
              ],
              "internalType": "struct IPrimexLens.TokenMetadata",
              "name": "asset",
              "type": "tuple"
            },
            {
              "internalType": "uint128",
              "name": "bar",
              "type": "uint128"
            },
            {
              "internalType": "uint128",
              "name": "lar",
              "type": "uint128"
            },
            {
              "internalType": "uint256",
              "name": "supply",
              "type": "uint256"
            },
            {
              "internalType": "uint256",
              "name": "demand",
              "type": "uint256"
            },
            {
              "internalType": "uint256",
              "name": "availableLiquidity",
              "type": "uint256"
            },
            {
              "internalType": "uint256",
              "name": "utilizationRatio",
              "type": "uint256"
            },
            {
              "components": [
                {
                  "components": [
                    {
                      "internalType": "address",
                      "name": "tokenAddress",
                      "type": "address"
                    },
                    {
                      "internalType": "string",
                      "name": "symbol",
                      "type": "string"
                    },
                    {
                      "internalType": "string",
                      "name": "name",
                      "type": "string"
                    },
                    {
                      "internalType": "uint256",
                      "name": "decimals",
                      "type": "uint256"
                    },
                    {
                      "internalType": "uint256",
                      "name": "balance",
                      "type": "uint256"
                    }
                  ],
                  "internalType": "struct IPrimexLens.TokenMetadata",
                  "name": "asset",
                  "type": "tuple"
                },
                {
                  "components": [
                    {
                      "internalType": "uint256",
                      "name": "id",
                      "type": "uint256"
                    },
                    {
                      "internalType": "bool",
                      "name": "isSupported",
                      "type": "bool"
                    },
                    {
                      "internalType": "uint256",
                      "name": "pairPriceDrop",
                      "type": "uint256"
                    },
                    {
                      "internalType": "uint256",
                      "name": "maxLeverage",
                      "type": "uint256"
                    }
                  ],
                  "internalType": "struct IPrimexLens.BucketTokenMetadata",
                  "name": "properties",
                  "type": "tuple"
                }
              ],
              "internalType": "struct IPrimexLens.SupportedAsset[]",
              "name": "supportedAssets",
              "type": "tuple[]"
            },
            {
              "components": [
                {
                  "internalType": "address",
                  "name": "tokenAddress",
                  "type": "address"
                },
                {
                  "internalType": "string",
                  "name": "symbol",
                  "type": "string"
                },
                {
                  "internalType": "string",
                  "name": "name",
                  "type": "string"
                },
                {
                  "internalType": "uint256",
                  "name": "decimals",
                  "type": "uint256"
                },
                {
                  "internalType": "uint256",
                  "name": "balance",
                  "type": "uint256"
                }
              ],
              "internalType": "struct IPrimexLens.TokenMetadata",
              "name": "pToken",
              "type": "tuple"
            },
            {
              "components": [
                {
                  "internalType": "address",
                  "name": "tokenAddress",
                  "type": "address"
                },
                {
                  "internalType": "string",
                  "name": "symbol",
                  "type": "string"
                },
                {
                  "internalType": "string",
                  "name": "name",
                  "type": "string"
                },
                {
                  "internalType": "uint256",
                  "name": "decimals",
                  "type": "uint256"
                },
                {
                  "internalType": "uint256",
                  "name": "balance",
                  "type": "uint256"
                }
              ],
              "internalType": "struct IPrimexLens.TokenMetadata",
              "name": "debtToken",
              "type": "tuple"
            },
            {
              "internalType": "uint256",
              "name": "feeBuffer",
              "type": "uint256"
            },
            {
              "internalType": "uint256",
              "name": "withdrawalFeeRate",
              "type": "uint256"
            },
            {
              "components": [
                {
                  "internalType": "contract ILiquidityMiningRewardDistributor",
                  "name": "liquidityMiningRewardDistributor",
                  "type": "address"
                },
                {
                  "internalType": "bool",
                  "name": "isBucketLaunched",
                  "type": "bool"
                },
                {
                  "internalType": "uint256",
                  "name": "accumulatingAmount",
                  "type": "uint256"
                },
                {
                  "internalType": "uint256",
                  "name": "deadlineTimestamp",
                  "type": "uint256"
                },
                {
                  "internalType": "uint256",
                  "name": "stabilizationDuration",
                  "type": "uint256"
                },
                {
                  "internalType": "uint256",
                  "name": "stabilizationEndTimestamp",
                  "type": "uint256"
                },
                {
                  "internalType": "uint256",
                  "name": "maxAmountPerUser",
                  "type": "uint256"
                },
                {
                  "internalType": "uint256",
                  "name": "maxDuration",
                  "type": "uint256"
                },
                {
                  "internalType": "uint256",
                  "name": "maxStabilizationEndTimestamp",
                  "type": "uint256"
                }
              ],
              "internalType": "struct IBucketStorage.LiquidityMiningParams",
              "name": "miningParams",
              "type": "tuple"
            },
            {
              "components": [
                {
                  "internalType": "uint256",
                  "name": "amountInMining",
                  "type": "uint256"
                },
                {
                  "internalType": "uint256",
                  "name": "currentPercent",
                  "type": "uint256"
                },
                {
                  "components": [
                    {
                      "internalType": "uint256",
                      "name": "minReward",
                      "type": "uint256"
                    },
                    {
                      "internalType": "uint256",
                      "name": "maxReward",
                      "type": "uint256"
                    },
                    {
                      "internalType": "uint256",
                      "name": "extraReward",
                      "type": "uint256"
                    }
                  ],
                  "internalType": "struct ILiquidityMiningRewardDistributor.RewardsInPMX",
                  "name": "rewardsInPMX",
                  "type": "tuple"
                }
              ],
              "internalType": "struct IPrimexLens.LenderInfo",
              "name": "lenderInfo",
              "type": "tuple"
            },
            {
              "components": [
                {
                  "internalType": "uint256",
                  "name": "pmxAmount",
                  "type": "uint256"
                },
                {
                  "internalType": "uint256",
                  "name": "withdrawnRewards",
                  "type": "uint256"
                },
                {
                  "internalType": "uint256",
                  "name": "totalPoints",
                  "type": "uint256"
                }
              ],
              "internalType": "struct IPrimexLens.LiquidityMiningBucketInfo",
              "name": "lmBucketInfo",
              "type": "tuple"
            },
            {
              "internalType": "uint128",
              "name": "estimatedBar",
              "type": "uint128"
            },
            {
              "internalType": "uint128",
              "name": "estimatedLar",
              "type": "uint128"
            },
            {
              "internalType": "bool",
              "name": "isDeprecated",
              "type": "bool"
            },
            {
              "internalType": "bool",
              "name": "isDelisted",
              "type": "bool"
            },
            {
              "components": [
                {
                  "internalType": "uint256",
                  "name": "urOptimal",
                  "type": "uint256"
                },
                {
                  "internalType": "uint256",
                  "name": "k0",
                  "type": "uint256"
                },
                {
                  "internalType": "uint256",
                  "name": "k1",
                  "type": "uint256"
                },
                {
                  "internalType": "uint256",
                  "name": "b0",
                  "type": "uint256"
                },
                {
                  "internalType": "int256",
                  "name": "b1",
                  "type": "int256"
                }
              ],
              "internalType": "struct IInterestRateStrategy.BarCalculationParams",
              "name": "barCalcParams",
              "type": "tuple"
            },
            {
              "internalType": "uint256",
              "name": "maxTotalDeposit",
              "type": "uint256"
            }
          ],
          "internalType": "struct IPrimexLens.BucketMetaData[]",
          "name": "",
          "type": "tuple[]"
        }
      ],
      "stateMutability": "view",
      "type": "function"
    },
    {
      "inputs": [
        {
          "internalType": "address[]",
          "name": "_feeds",
          "type": "address[]"
        }
      ],
      "name": "getChainlinkLatestRoundData",
      "outputs": [
        {
          "components": [
            {
              "internalType": "uint80",
              "name": "roundId",
              "type": "uint80"
            },
            {
              "internalType": "int256",
              "name": "answer",
              "type": "int256"
            },
            {
              "internalType": "uint256",
              "name": "startedAt",
              "type": "uint256"
            },
            {
              "internalType": "uint256",
              "name": "updatedAt",
              "type": "uint256"
            },
            {
              "internalType": "uint80",
              "name": "answeredInRound",
              "type": "uint80"
            }
          ],
          "internalType": "struct IPrimexLens.RoundData[]",
          "name": "",
          "type": "tuple[]"
        }
      ],
      "stateMutability": "view",
      "type": "function"
    },
    {
      "inputs": [
        {
          "internalType": "contract ILiquidityMiningRewardDistributor",
          "name": "liquidityMiningRewardDistributor",
          "type": "address"
        },
        {
          "internalType": "string",
          "name": "bucketName",
          "type": "string"
        }
      ],
      "name": "getLMBucketInfo",
      "outputs": [
        {
          "components": [
            {
              "internalType": "uint256",
              "name": "pmxAmount",
              "type": "uint256"
            },
            {
              "internalType": "uint256",
              "name": "withdrawnRewards",
              "type": "uint256"
            },
            {
              "internalType": "uint256",
              "name": "totalPoints",
              "type": "uint256"
            }
          ],
          "internalType": "struct IPrimexLens.LiquidityMiningBucketInfo",
          "name": "",
          "type": "tuple"
        }
      ],
      "stateMutability": "view",
      "type": "function"
    },
    {
      "inputs": [
        {
          "internalType": "contract ILiquidityMiningRewardDistributor",
          "name": "liquidityMiningRewardDistributor",
          "type": "address"
        },
        {
          "internalType": "string",
          "name": "bucketName",
          "type": "string"
        },
        {
          "internalType": "address",
          "name": "user",
          "type": "address"
        }
      ],
      "name": "getLenderInfo",
      "outputs": [
        {
          "components": [
            {
              "internalType": "uint256",
              "name": "amountInMining",
              "type": "uint256"
            },
            {
              "internalType": "uint256",
              "name": "currentPercent",
              "type": "uint256"
            },
            {
              "components": [
                {
                  "internalType": "uint256",
                  "name": "minReward",
                  "type": "uint256"
                },
                {
                  "internalType": "uint256",
                  "name": "maxReward",
                  "type": "uint256"
                },
                {
                  "internalType": "uint256",
                  "name": "extraReward",
                  "type": "uint256"
                }
              ],
              "internalType": "struct ILiquidityMiningRewardDistributor.RewardsInPMX",
              "name": "rewardsInPMX",
              "type": "tuple"
            }
          ],
          "internalType": "struct IPrimexLens.LenderInfo",
          "name": "",
          "type": "tuple"
        }
      ],
      "stateMutability": "view",
      "type": "function"
    },
    {
      "inputs": [
        {
          "internalType": "address",
          "name": "_limitOrderManager",
          "type": "address"
        },
        {
          "internalType": "uint256",
          "name": "_cursor",
          "type": "uint256"
        },
        {
          "internalType": "uint256",
          "name": "_count",
          "type": "uint256"
        }
      ],
      "name": "getLimitOrdersWithConditions",
      "outputs": [
        {
          "components": [
            {
              "components": [
                {
                  "internalType": "contract IBucket",
                  "name": "bucket",
                  "type": "address"
                },
                {
                  "internalType": "address",
                  "name": "positionAsset",
                  "type": "address"
                },
                {
                  "internalType": "address",
                  "name": "depositAsset",
                  "type": "address"
                },
                {
                  "internalType": "uint256",
                  "name": "depositAmount",
                  "type": "uint256"
                },
                {
                  "internalType": "address",
                  "name": "feeToken",
                  "type": "address"
                },
                {
                  "internalType": "uint256",
                  "name": "protocolFee",
                  "type": "uint256"
                },
                {
                  "internalType": "address",
                  "name": "trader",
                  "type": "address"
                },
                {
                  "internalType": "uint256",
                  "name": "deadline",
                  "type": "uint256"
                },
                {
                  "internalType": "uint256",
                  "name": "id",
                  "type": "uint256"
                },
                {
                  "internalType": "uint256",
                  "name": "leverage",
                  "type": "uint256"
                },
                {
                  "internalType": "bool",
                  "name": "shouldOpenPosition",
                  "type": "bool"
                },
                {
                  "internalType": "uint256",
                  "name": "createdAt",
                  "type": "uint256"
                },
                {
                  "internalType": "uint256",
                  "name": "updatedConditionsAt",
                  "type": "uint256"
                },
                {
                  "internalType": "bytes",
                  "name": "extraParams",
                  "type": "bytes"
                }
              ],
              "internalType": "struct LimitOrderLibrary.LimitOrder",
              "name": "limitOrderData",
              "type": "tuple"
            },
            {
              "components": [
                {
                  "internalType": "uint256",
                  "name": "managerType",
                  "type": "uint256"
                },
                {
                  "internalType": "bytes",
                  "name": "params",
                  "type": "bytes"
                }
              ],
              "internalType": "struct LimitOrderLibrary.Condition[]",
              "name": "openConditionsData",
              "type": "tuple[]"
            }
          ],
          "internalType": "struct IPrimexLens.LimitOrderWithConditions[]",
          "name": "limitOrdersWithConditions",
          "type": "tuple[]"
        },
        {
          "internalType": "uint256",
          "name": "newCursor",
          "type": "uint256"
        }
      ],
      "stateMutability": "view",
      "type": "function"
    },
    {
      "inputs": [
        {
          "internalType": "address",
          "name": "_positionManager",
          "type": "address"
        },
        {
          "internalType": "string",
          "name": "_bucket",
          "type": "string"
        },
        {
          "internalType": "uint256",
          "name": "_borrowedAmount",
          "type": "uint256"
        },
        {
          "internalType": "address",
          "name": "_positionAsset",
          "type": "address"
        },
        {
          "internalType": "uint256",
          "name": "_positionAmount",
          "type": "uint256"
        }
      ],
      "name": "getLiquidationPrice",
      "outputs": [
        {
          "internalType": "uint256",
          "name": "",
          "type": "uint256"
        }
      ],
      "stateMutability": "view",
      "type": "function"
    },
    {
      "inputs": [
        {
          "internalType": "address",
          "name": "_positionManager",
          "type": "address"
        },
        {
          "internalType": "uint256",
          "name": "_id",
          "type": "uint256"
        }
      ],
      "name": "getLiquidationPrice",
      "outputs": [
        {
          "internalType": "uint256",
          "name": "",
          "type": "uint256"
        }
      ],
      "stateMutability": "view",
      "type": "function"
    },
    {
      "inputs": [
        {
          "internalType": "address",
          "name": "_positionManager",
          "type": "address"
        },
        {
          "internalType": "uint256",
          "name": "_id",
          "type": "uint256"
        }
      ],
      "name": "getOpenPositionData",
      "outputs": [
        {
          "components": [
            {
              "internalType": "uint256",
              "name": "id",
              "type": "uint256"
            },
            {
              "components": [
                {
                  "internalType": "address",
                  "name": "bucketAddress",
                  "type": "address"
                },
                {
                  "internalType": "string",
                  "name": "name",
                  "type": "string"
                },
                {
                  "components": [
                    {
                      "internalType": "address",
                      "name": "tokenAddress",
                      "type": "address"
                    },
                    {
                      "internalType": "string",
                      "name": "symbol",
                      "type": "string"
                    },
                    {
                      "internalType": "string",
                      "name": "name",
                      "type": "string"
                    },
                    {
                      "internalType": "uint256",
                      "name": "decimals",
                      "type": "uint256"
                    },
                    {
                      "internalType": "uint256",
                      "name": "balance",
                      "type": "uint256"
                    }
                  ],
                  "internalType": "struct IPrimexLens.TokenMetadata",
                  "name": "asset",
                  "type": "tuple"
                },
                {
                  "internalType": "uint128",
                  "name": "bar",
                  "type": "uint128"
                },
                {
                  "internalType": "uint128",
                  "name": "lar",
                  "type": "uint128"
                },
                {
                  "internalType": "uint256",
                  "name": "supply",
                  "type": "uint256"
                },
                {
                  "internalType": "uint256",
                  "name": "demand",
                  "type": "uint256"
                },
                {
                  "internalType": "uint256",
                  "name": "availableLiquidity",
                  "type": "uint256"
                },
                {
                  "internalType": "uint256",
                  "name": "utilizationRatio",
                  "type": "uint256"
                },
                {
                  "components": [
                    {
                      "components": [
                        {
                          "internalType": "address",
                          "name": "tokenAddress",
                          "type": "address"
                        },
                        {
                          "internalType": "string",
                          "name": "symbol",
                          "type": "string"
                        },
                        {
                          "internalType": "string",
                          "name": "name",
                          "type": "string"
                        },
                        {
                          "internalType": "uint256",
                          "name": "decimals",
                          "type": "uint256"
                        },
                        {
                          "internalType": "uint256",
                          "name": "balance",
                          "type": "uint256"
                        }
                      ],
                      "internalType": "struct IPrimexLens.TokenMetadata",
                      "name": "asset",
                      "type": "tuple"
                    },
                    {
                      "components": [
                        {
                          "internalType": "uint256",
                          "name": "id",
                          "type": "uint256"
                        },
                        {
                          "internalType": "bool",
                          "name": "isSupported",
                          "type": "bool"
                        },
                        {
                          "internalType": "uint256",
                          "name": "pairPriceDrop",
                          "type": "uint256"
                        },
                        {
                          "internalType": "uint256",
                          "name": "maxLeverage",
                          "type": "uint256"
                        }
                      ],
                      "internalType": "struct IPrimexLens.BucketTokenMetadata",
                      "name": "properties",
                      "type": "tuple"
                    }
                  ],
                  "internalType": "struct IPrimexLens.SupportedAsset[]",
                  "name": "supportedAssets",
                  "type": "tuple[]"
                },
                {
                  "components": [
                    {
                      "internalType": "address",
                      "name": "tokenAddress",
                      "type": "address"
                    },
                    {
                      "internalType": "string",
                      "name": "symbol",
                      "type": "string"
                    },
                    {
                      "internalType": "string",
                      "name": "name",
                      "type": "string"
                    },
                    {
                      "internalType": "uint256",
                      "name": "decimals",
                      "type": "uint256"
                    },
                    {
                      "internalType": "uint256",
                      "name": "balance",
                      "type": "uint256"
                    }
                  ],
                  "internalType": "struct IPrimexLens.TokenMetadata",
                  "name": "pToken",
                  "type": "tuple"
                },
                {
                  "components": [
                    {
                      "internalType": "address",
                      "name": "tokenAddress",
                      "type": "address"
                    },
                    {
                      "internalType": "string",
                      "name": "symbol",
                      "type": "string"
                    },
                    {
                      "internalType": "string",
                      "name": "name",
                      "type": "string"
                    },
                    {
                      "internalType": "uint256",
                      "name": "decimals",
                      "type": "uint256"
                    },
                    {
                      "internalType": "uint256",
                      "name": "balance",
                      "type": "uint256"
                    }
                  ],
                  "internalType": "struct IPrimexLens.TokenMetadata",
                  "name": "debtToken",
                  "type": "tuple"
                },
                {
                  "internalType": "uint256",
                  "name": "feeBuffer",
                  "type": "uint256"
                },
                {
                  "internalType": "uint256",
                  "name": "withdrawalFeeRate",
                  "type": "uint256"
                },
                {
                  "components": [
                    {
                      "internalType": "contract ILiquidityMiningRewardDistributor",
                      "name": "liquidityMiningRewardDistributor",
                      "type": "address"
                    },
                    {
                      "internalType": "bool",
                      "name": "isBucketLaunched",
                      "type": "bool"
                    },
                    {
                      "internalType": "uint256",
                      "name": "accumulatingAmount",
                      "type": "uint256"
                    },
                    {
                      "internalType": "uint256",
                      "name": "deadlineTimestamp",
                      "type": "uint256"
                    },
                    {
                      "internalType": "uint256",
                      "name": "stabilizationDuration",
                      "type": "uint256"
                    },
                    {
                      "internalType": "uint256",
                      "name": "stabilizationEndTimestamp",
                      "type": "uint256"
                    },
                    {
                      "internalType": "uint256",
                      "name": "maxAmountPerUser",
                      "type": "uint256"
                    },
                    {
                      "internalType": "uint256",
                      "name": "maxDuration",
                      "type": "uint256"
                    },
                    {
                      "internalType": "uint256",
                      "name": "maxStabilizationEndTimestamp",
                      "type": "uint256"
                    }
                  ],
                  "internalType": "struct IBucketStorage.LiquidityMiningParams",
                  "name": "miningParams",
                  "type": "tuple"
                },
                {
                  "components": [
                    {
                      "internalType": "uint256",
                      "name": "amountInMining",
                      "type": "uint256"
                    },
                    {
                      "internalType": "uint256",
                      "name": "currentPercent",
                      "type": "uint256"
                    },
                    {
                      "components": [
                        {
                          "internalType": "uint256",
                          "name": "minReward",
                          "type": "uint256"
                        },
                        {
                          "internalType": "uint256",
                          "name": "maxReward",
                          "type": "uint256"
                        },
                        {
                          "internalType": "uint256",
                          "name": "extraReward",
                          "type": "uint256"
                        }
                      ],
                      "internalType": "struct ILiquidityMiningRewardDistributor.RewardsInPMX",
                      "name": "rewardsInPMX",
                      "type": "tuple"
                    }
                  ],
                  "internalType": "struct IPrimexLens.LenderInfo",
                  "name": "lenderInfo",
                  "type": "tuple"
                },
                {
                  "components": [
                    {
                      "internalType": "uint256",
                      "name": "pmxAmount",
                      "type": "uint256"
                    },
                    {
                      "internalType": "uint256",
                      "name": "withdrawnRewards",
                      "type": "uint256"
                    },
                    {
                      "internalType": "uint256",
                      "name": "totalPoints",
                      "type": "uint256"
                    }
                  ],
                  "internalType": "struct IPrimexLens.LiquidityMiningBucketInfo",
                  "name": "lmBucketInfo",
                  "type": "tuple"
                },
                {
                  "internalType": "uint128",
                  "name": "estimatedBar",
                  "type": "uint128"
                },
                {
                  "internalType": "uint128",
                  "name": "estimatedLar",
                  "type": "uint128"
                },
                {
                  "internalType": "bool",
                  "name": "isDeprecated",
                  "type": "bool"
                },
                {
                  "internalType": "bool",
                  "name": "isDelisted",
                  "type": "bool"
                },
                {
                  "components": [
                    {
                      "internalType": "uint256",
                      "name": "urOptimal",
                      "type": "uint256"
                    },
                    {
                      "internalType": "uint256",
                      "name": "k0",
                      "type": "uint256"
                    },
                    {
                      "internalType": "uint256",
                      "name": "k1",
                      "type": "uint256"
                    },
                    {
                      "internalType": "uint256",
                      "name": "b0",
                      "type": "uint256"
                    },
                    {
                      "internalType": "int256",
                      "name": "b1",
                      "type": "int256"
                    }
                  ],
                  "internalType": "struct IInterestRateStrategy.BarCalculationParams",
                  "name": "barCalcParams",
                  "type": "tuple"
                },
                {
                  "internalType": "uint256",
                  "name": "maxTotalDeposit",
                  "type": "uint256"
                }
              ],
              "internalType": "struct IPrimexLens.BucketMetaData",
              "name": "bucket",
              "type": "tuple"
            },
            {
              "components": [
                {
                  "internalType": "address",
                  "name": "tokenAddress",
                  "type": "address"
                },
                {
                  "internalType": "string",
                  "name": "symbol",
                  "type": "string"
                },
                {
                  "internalType": "string",
                  "name": "name",
                  "type": "string"
                },
                {
                  "internalType": "uint256",
                  "name": "decimals",
                  "type": "uint256"
                },
                {
                  "internalType": "uint256",
                  "name": "balance",
                  "type": "uint256"
                }
              ],
              "internalType": "struct IPrimexLens.TokenMetadata[2]",
              "name": "pair",
              "type": "tuple[2]"
            },
            {
              "internalType": "uint256",
              "name": "positionSize",
              "type": "uint256"
            },
            {
              "internalType": "uint256",
              "name": "liquidationPrice",
              "type": "uint256"
            },
            {
              "internalType": "uint256",
              "name": "stopLossPrice",
              "type": "uint256"
            },
            {
              "internalType": "uint256",
              "name": "takeProfitPrice",
              "type": "uint256"
            },
            {
              "internalType": "uint256",
              "name": "debt",
              "type": "uint256"
            },
            {
              "internalType": "uint256",
              "name": "depositAmount",
              "type": "uint256"
            },
            {
              "internalType": "uint256",
              "name": "createdAt",
              "type": "uint256"
            }
          ],
          "internalType": "struct IPrimexLens.OpenPositionData",
          "name": "",
          "type": "tuple"
        }
      ],
      "stateMutability": "view",
      "type": "function"
    },
    {
      "inputs": [
        {
          "internalType": "address",
          "name": "_positionManager",
          "type": "address"
        },
        {
          "internalType": "uint256",
          "name": "_cursor",
          "type": "uint256"
        },
        {
          "internalType": "uint256",
          "name": "_count",
          "type": "uint256"
        }
      ],
      "name": "getOpenPositionsWithConditions",
      "outputs": [
        {
          "components": [
            {
              "components": [
                {
                  "internalType": "uint256",
                  "name": "id",
                  "type": "uint256"
                },
                {
                  "internalType": "uint256",
                  "name": "scaledDebtAmount",
                  "type": "uint256"
                },
                {
                  "internalType": "contract IBucket",
                  "name": "bucket",
                  "type": "address"
                },
                {
                  "internalType": "address",
                  "name": "soldAsset",
                  "type": "address"
                },
                {
                  "internalType": "uint256",
                  "name": "depositAmountInSoldAsset",
                  "type": "uint256"
                },
                {
                  "internalType": "address",
                  "name": "positionAsset",
                  "type": "address"
                },
                {
                  "internalType": "uint256",
                  "name": "positionAmount",
                  "type": "uint256"
                },
                {
                  "internalType": "address",
                  "name": "trader",
                  "type": "address"
                },
                {
                  "internalType": "uint256",
                  "name": "openBorrowIndex",
                  "type": "uint256"
                },
                {
                  "internalType": "uint256",
                  "name": "createdAt",
                  "type": "uint256"
                },
                {
                  "internalType": "uint256",
                  "name": "updatedConditionsAt",
                  "type": "uint256"
                },
                {
                  "internalType": "bytes",
                  "name": "extraParams",
                  "type": "bytes"
                }
              ],
              "internalType": "struct PositionLibrary.Position",
              "name": "positionData",
              "type": "tuple"
            },
            {
              "components": [
                {
                  "internalType": "uint256",
                  "name": "managerType",
                  "type": "uint256"
                },
                {
                  "internalType": "bytes",
                  "name": "params",
                  "type": "bytes"
                }
              ],
              "internalType": "struct LimitOrderLibrary.Condition[]",
              "name": "conditionsData",
              "type": "tuple[]"
            }
          ],
          "internalType": "struct IPrimexLens.OpenPositionWithConditions[]",
          "name": "openPositionsWithConditions",
          "type": "tuple[]"
        },
        {
          "internalType": "uint256",
          "name": "newCursor",
          "type": "uint256"
        }
      ],
      "stateMutability": "view",
      "type": "function"
    },
    {
      "inputs": [
        {
          "internalType": "contract IPositionManager",
          "name": "_pm",
          "type": "address"
        },
        {
          "internalType": "uint256",
          "name": "_id",
          "type": "uint256"
        }
      ],
      "name": "getPositionMaxDecrease",
      "outputs": [
        {
          "internalType": "uint256",
          "name": "",
          "type": "uint256"
        }
      ],
      "stateMutability": "view",
      "type": "function"
    },
    {
      "inputs": [
        {
          "internalType": "address",
          "name": "_positionManager",
          "type": "address"
        },
        {
          "internalType": "uint256",
          "name": "_id",
          "type": "uint256"
        },
        {
          "components": [
            {
              "internalType": "uint256",
              "name": "shares",
              "type": "uint256"
            },
            {
              "components": [
                {
                  "internalType": "string",
                  "name": "dexName",
                  "type": "string"
                },
                {
                  "internalType": "bytes",
                  "name": "encodedPath",
                  "type": "bytes"
                }
              ],
              "internalType": "struct PrimexPricingLibrary.SwapPath[]",
              "name": "paths",
              "type": "tuple[]"
            }
          ],
          "internalType": "struct PrimexPricingLibrary.Route[]",
          "name": "_routes",
          "type": "tuple[]"
        }
      ],
      "name": "getPositionStatus",
      "outputs": [
        {
          "components": [
            {
              "internalType": "bool",
              "name": "liquidationThreshold",
              "type": "bool"
            },
            {
              "internalType": "bool",
              "name": "takeProfitReached",
              "type": "bool"
            },
            {
              "internalType": "bool",
              "name": "stopLossReached",
              "type": "bool"
            }
          ],
          "internalType": "struct IPrimexLens.PositionStatus",
          "name": "",
          "type": "tuple"
        }
      ],
      "stateMutability": "nonpayable",
      "type": "function"
    },
    {
      "inputs": [
        {
          "internalType": "address",
          "name": "_bucket",
          "type": "address"
        },
        {
          "internalType": "address",
          "name": "_asset",
          "type": "address"
        },
        {
          "internalType": "address",
          "name": "_trader",
          "type": "address"
        }
      ],
      "name": "getSupportedAsset",
      "outputs": [
        {
          "components": [
            {
              "components": [
                {
                  "internalType": "address",
                  "name": "tokenAddress",
                  "type": "address"
                },
                {
                  "internalType": "string",
                  "name": "symbol",
                  "type": "string"
                },
                {
                  "internalType": "string",
                  "name": "name",
                  "type": "string"
                },
                {
                  "internalType": "uint256",
                  "name": "decimals",
                  "type": "uint256"
                },
                {
                  "internalType": "uint256",
                  "name": "balance",
                  "type": "uint256"
                }
              ],
              "internalType": "struct IPrimexLens.TokenMetadata",
              "name": "asset",
              "type": "tuple"
            },
            {
              "components": [
                {
                  "internalType": "uint256",
                  "name": "id",
                  "type": "uint256"
                },
                {
                  "internalType": "bool",
                  "name": "isSupported",
                  "type": "bool"
                },
                {
                  "internalType": "uint256",
                  "name": "pairPriceDrop",
                  "type": "uint256"
                },
                {
                  "internalType": "uint256",
                  "name": "maxLeverage",
                  "type": "uint256"
                }
              ],
              "internalType": "struct IPrimexLens.BucketTokenMetadata",
              "name": "properties",
              "type": "tuple"
            }
          ],
          "internalType": "struct IPrimexLens.SupportedAsset",
          "name": "",
          "type": "tuple"
        }
      ],
      "stateMutability": "view",
      "type": "function"
    },
    {
      "inputs": [
        {
          "internalType": "address",
          "name": "_bucket",
          "type": "address"
        },
        {
          "internalType": "address[]",
          "name": "_assets",
          "type": "address[]"
        },
        {
          "internalType": "address",
          "name": "_trader",
          "type": "address"
        }
      ],
      "name": "getSupportedAssetArray",
      "outputs": [
        {
          "components": [
            {
              "components": [
                {
                  "internalType": "address",
                  "name": "tokenAddress",
                  "type": "address"
                },
                {
                  "internalType": "string",
                  "name": "symbol",
                  "type": "string"
                },
                {
                  "internalType": "string",
                  "name": "name",
                  "type": "string"
                },
                {
                  "internalType": "uint256",
                  "name": "decimals",
                  "type": "uint256"
                },
                {
                  "internalType": "uint256",
                  "name": "balance",
                  "type": "uint256"
                }
              ],
              "internalType": "struct IPrimexLens.TokenMetadata",
              "name": "asset",
              "type": "tuple"
            },
            {
              "components": [
                {
                  "internalType": "uint256",
                  "name": "id",
                  "type": "uint256"
                },
                {
                  "internalType": "bool",
                  "name": "isSupported",
                  "type": "bool"
                },
                {
                  "internalType": "uint256",
                  "name": "pairPriceDrop",
                  "type": "uint256"
                },
                {
                  "internalType": "uint256",
                  "name": "maxLeverage",
                  "type": "uint256"
                }
              ],
              "internalType": "struct IPrimexLens.BucketTokenMetadata",
              "name": "properties",
              "type": "tuple"
            }
          ],
          "internalType": "struct IPrimexLens.SupportedAsset[]",
          "name": "",
          "type": "tuple[]"
        }
      ],
      "stateMutability": "view",
      "type": "function"
    },
    {
      "inputs": [
        {
          "internalType": "address[]",
          "name": "_tokens",
          "type": "address[]"
        },
        {
          "internalType": "address",
          "name": "_trader",
          "type": "address"
        }
      ],
      "name": "getTokenArrayMetadata",
      "outputs": [
        {
          "components": [
            {
              "internalType": "address",
              "name": "tokenAddress",
              "type": "address"
            },
            {
              "internalType": "string",
              "name": "symbol",
              "type": "string"
            },
            {
              "internalType": "string",
              "name": "name",
              "type": "string"
            },
            {
              "internalType": "uint256",
              "name": "decimals",
              "type": "uint256"
            },
            {
              "internalType": "uint256",
              "name": "balance",
              "type": "uint256"
            }
          ],
          "internalType": "struct IPrimexLens.TokenMetadata[]",
          "name": "",
          "type": "tuple[]"
        }
      ],
      "stateMutability": "view",
      "type": "function"
    },
    {
      "inputs": [
        {
          "internalType": "address",
          "name": "_token",
          "type": "address"
        },
        {
          "internalType": "address",
          "name": "_trader",
          "type": "address"
        }
      ],
      "name": "getTokenMetadata",
      "outputs": [
        {
          "components": [
            {
              "internalType": "address",
              "name": "tokenAddress",
              "type": "address"
            },
            {
              "internalType": "string",
              "name": "symbol",
              "type": "string"
            },
            {
              "internalType": "string",
              "name": "name",
              "type": "string"
            },
            {
              "internalType": "uint256",
              "name": "decimals",
              "type": "uint256"
            },
            {
              "internalType": "uint256",
              "name": "balance",
              "type": "uint256"
            }
          ],
          "internalType": "struct IPrimexLens.TokenMetadata",
          "name": "",
          "type": "tuple"
        }
      ],
      "stateMutability": "view",
      "type": "function"
    },
    {
      "inputs": [
        {
          "internalType": "address",
          "name": "_positionManager",
          "type": "address"
        },
        {
          "internalType": "uint256",
          "name": "_id",
          "type": "uint256"
        }
      ],
      "name": "isStopLossReached",
      "outputs": [
        {
          "internalType": "bool",
          "name": "",
          "type": "bool"
        }
      ],
      "stateMutability": "view",
      "type": "function"
    },
    {
      "inputs": [
        {
          "internalType": "address",
          "name": "_positionManager",
          "type": "address"
        },
        {
          "internalType": "uint256",
          "name": "_id",
          "type": "uint256"
        },
        {
          "components": [
            {
              "internalType": "uint256",
              "name": "shares",
              "type": "uint256"
            },
            {
              "components": [
                {
                  "internalType": "string",
                  "name": "dexName",
                  "type": "string"
                },
                {
                  "internalType": "bytes",
                  "name": "encodedPath",
                  "type": "bytes"
                }
              ],
              "internalType": "struct PrimexPricingLibrary.SwapPath[]",
              "name": "paths",
              "type": "tuple[]"
            }
          ],
          "internalType": "struct PrimexPricingLibrary.Route[]",
          "name": "_routes",
          "type": "tuple[]"
        }
      ],
      "name": "isTakeProfitReached",
      "outputs": [
        {
          "internalType": "bool",
          "name": "",
          "type": "bool"
        }
      ],
      "stateMutability": "nonpayable",
      "type": "function"
    },
    {
      "inputs": [
        {
          "internalType": "bytes4",
          "name": "interfaceId",
          "type": "bytes4"
        }
      ],
      "name": "supportsInterface",
      "outputs": [
        {
          "internalType": "bool",
          "name": "",
          "type": "bool"
        }
      ],
      "stateMutability": "view",
      "type": "function"
    },
    {
      "inputs": [],
      "name": "takeProfitStopLossCCM",
      "outputs": [
        {
          "internalType": "address",
          "name": "",
          "type": "address"
        }
      ],
      "stateMutability": "view",
      "type": "function"
    }
  ],
  "transactionHash": "0x9ccf1113657675db50605432fc0cd5eb509973f8e6cc98e88b7245d6fe294f2d",
  "args": [
    "0x8Aa7671b49758b27Efa8b961BB143367f973b2bc"
  ],
  "numDeployments": 2,
  "solcInputHash": "e5e8e3dbdc56cc98b4c9491244421c19",
  "bytecode": "0x60a08060405234620001175760208162005a7d80380380916200002382856200011c565b8339810103126200011757516001600160a01b03811680820362000117576040516301ffc9a760e01b8152632b49a35560e11b600482015290602090829060249082905afa9081156200010b57600091620000c3575b5015620000b1576080526040516159269081620001578239608051818181610f8f01528181611299015281816136300152613e2c0152f35b60405163044aa57560e41b8152600490fd5b6020813d821162000102575b81620000de602093836200011c565b81010312620000fe5751908115158203620000fb57503862000079565b80fd5b5080fd5b3d9150620000cf565b6040513d6000823e3d90fd5b600080fd5b601f909101601f19168101906001600160401b038211908210176200014057604052565b634e487b7160e01b600052604160045260246000fdfe61028080604052600436101561001457600080fd5b60e0600035811c91826301ffc9a7146118b657508163073f468c146117ac57816314fdc0731461176357816336ca926314611531578163429bd646146113f55750806344ec1614146113565780634acefed4146113155780634afdb64c146112f95780635927c358146112c8578063679bfb5b146112835780636a869ebb14610db75780636c5a9cd114610d7b5780638ddbcc6214610d615780639e09d40e14610ce6578063a8d028b514610ca5578063b23c434014610c40578063b29d57d814610be5578063b3e1d9f214610b84578063bdf4cd1814610ad9578063cd04eef414610506578063d030bb25146104d7578063debd310d146104a9578063e10a27a41461025b5763f107f8341461012a57600080fd5b34610256576040366003190112610256576004356001600160401b0381116102565761015a903690600401611fd6565b9061016361191f565b61016c8361219e565b9261017a6040519485611e2d565b808452601f196101898261219e565b0160005b81811061023f57505060005b8181106101ff576040805160208082528751818301819052600093600582901b8401810192808b01929185015b8287106101d35785850386f35b9091929382806101ef600193603f198a820301865288516119a2565b96019201960195929190926101c6565b8061021f8461021a61021561023a95878a61309f565b6130af565b613fd6565b6102298288612487565b526102348187612487565b50612459565b610199565b60209061024a612981565b8282890101520161018d565b600080fd5b3461025657602080600319360112610256576004356001600160401b0381116102565761028c903690600401611fd6565b906102968261219e565b916102a46040519384611e2d565b808352601f196102b38261219e565b0160005b81811061048c57505060005b81811061034157505050604051908282018383528151809152836040840192019360005b8281106102f45784840385f35b8551805169ffffffffffffffffffff90811686528184015186850152604080830151908701526060808301519087015260809182015116908501529481019460a0909301926001016102e7565b929391926001600160a01b038061035c61021584868961309f565b161561047a5761037061021583858861309f565b16906040518092633fabe5a360e21b825281600460a09384935afa90811561046e57600090600080600092600095610410575b5061040796506103b3868c612487565b5169ffffffffffffffffffff8095169052886103cf878d612487565b51015260406103de868c612487565b51015260606103ed858b612487565b51015260806103fc848a612487565b510191169052612459565b939291936102c3565b94505050505082813d8311610467575b61042a8183611e2d565b81010312610256578161043f610407936130c3565b858201519060408301519261045b6080606083015192016130c3565b9192939091938b6103a3565b503d610420565b6040513d6000823e3d90fd5b60405163044aa57560e41b8152600490fd5b94809394956104996129d6565b82828901015201949392946102b7565b34610256576104c36104ba36612102565b92919091612be4565b906104d36040519283928361213b565b0390f35b346102565760403660031901126102565760206104fe6104f5611909565b60243590615677565b604051908152f35b34610256576040366003190112610256576004356001600160a01b03811681036102565760405163eb02c30160e01b81526024803560048301529091906000908390816001600160a01b0385165afa91821561046e57600092610ab4575b50604051632630c12f60e01b81526020816004816001600160a01b0386165afa90811561046e576105d891602091600091610a97575b5060a08501516060860151604051631dae49b960e21b81526001600160a01b0392831660048201529116602482015292839190829081906044820190565b03916001600160a01b03165afa90811561046e57600091610a65575b506040516301ddf49360e61b8152916020836004816001600160a01b0385165afa92831561046e57600093610a31575b5060405163084b557b60e21b8152906020826004816001600160a01b0385165afa91821561046e576000926109fb575b5060a0850151606086015160405163a8905dab60e01b81526001600160a01b03928316600482015291166024820152919260208380604481015b03816001600160a01b0386165afa801561046e576000906109c8575b604087810151905163280188b760e21b81529450602090859060049082906001600160a01b03165afa93841561046e57600094610994575b5060a0870151606088015160c0890151604051632630c12f60e01b81526001600160a01b03938416969093919282169160209185916004918391165afa92831561046e57600093610963575b5060405163a3f092a760e01b81526004810196909652602486015260448501526001600160a01b031660648401526020836084817318f61d94ab3B2d8BCdc2cc70968503A447cc31cC5af492831561046e5760009361092f575b50670de0b6b3a7640000958603908682116108d35786038681116108d3576107b46107b99188936158b3565b615882565b049085038581116108d3578592836107da6107b46107b4946107e0966158b3565b046158b3565b049183018084116108d3576107b46107f99185936158b3565b0490828102928184048114821517156108d35783040361091d57610824610829928260011c9061589e565b615862565b906004602060018060a01b03604084015116604051928380926368d0612f60e01b82525afa801561046e576000906108e9575b61086c91506020830151906158b3565b916b019d971e4fe8401e740000008301928381116108d35783106108c1576108a76080916b033b2e3c9fd0803ce80000006020950490612698565b9101518082116108ba5750604051908152f35b90506104fe565b604051630a77254f60e01b8152600490fd5b634e487b7160e01b600052601160045260246000fd5b506020813d602011610915575b8161090360209383611e2d565b810103126102565761086c905161085c565b3d91506108f6565b604051631550e8b760e01b8152600490fd5b9092506020813d60201161095b575b8161094b60209383611e2d565b8101031261025657519187610788565b3d915061093e565b61098691935060203d60201161098d575b61097e8183611e2d565b810190612468565b918a61072e565b503d610974565b9093506020813d6020116109c0575b816109b060209383611e2d565b81010312610256575192876106e2565b3d91506109a3565b506020833d6020116109f3575b816109e260209383611e2d565b8101031261025657600492516106aa565b3d91506109d5565b91506020823d602011610a29575b81610a1660209383611e2d565b810103126102565761068e915191610654565b3d9150610a09565b9092506020813d602011610a5d575b81610a4d60209383611e2d565b8101031261025657519184610624565b3d9150610a40565b90506020813d602011610a8f575b81610a8060209383611e2d565b810103126102565751836105f4565b3d9150610a73565b610aae9150823d841161098d5761097e8183611e2d565b8561059a565b610ad29192503d806000833e610aca8183611e2d565b8101906122b2565b9082610564565b3461025657606036600319011261025657610af2611909565b602435906001600160401b03821161025657610b15610b239236906004016121b5565b610b1d611935565b91614552565b60405160209182820192808352815180945260408301938160408260051b8601019301916000955b828710610b585785850386f35b909192938280610b74600193603f198a820301865288516119f3565b9601920196019592919092610b4b565b34610256576080366003190112610256576004356001600160401b03811161025657610bd9610bba6104d39236906004016121b5565b610bc261191f565b610bca611935565b90610bd361194b565b926152ca565b60405191829182611cbd565b34610256576040366003190112610256576080610c11610c03611909565b610c0b61191f565b906141d0565b610c3e60405180926060809180518452602081015115156020850152604081015160408501520151910152565bf35b3461025657604036600319011261025657610c59611909565b6024356001600160401b03811161025657606091610c7e610c84923690600401611e69565b90615210565b610c3e60405180926040809180518452602081015160208501520151910152565b34610256576040366003190112610256576104d3610cd2610cc4611909565b610ccc61191f565b9061460e565b604051918291602083526020830190611a3e565b3461025657606036600319011261025657610cff611909565b6024356001600160401b0381116102565760a091610d24610d32923690600401611e69565b610d2c611935565b9161510d565b604080518251815260208084015181830152928201518051828401529283015160608201529101516080820152f35b34610256576104c3610d7236612102565b92919091612e2d565b34610256576040366003190112610256576104d3610da3610d9a611909565b602435906137f2565b60405191829160208352602083019061204c565b3461025657610dc536612006565b9091610dcf612223565b506040516301ffc9a760e01b81526306cc15a560e11b60048201526020816024816001600160a01b0389165afa90811561046e57600091611249575b501561047a5760405163eb02c30160e01b8152600481018290526000816024816001600160a01b0389165afa90811561046e5760009161122e575b50604051631d40683560e31b815260048101839052936000856024816001600160a01b038a165afa94851561046e57600095611209575b5060009485805b82518110156111fa57604051633f4a2d2760e01b81526020816004816001600160a01b038e165afa90811561046e576000916111db575b506020610ec88386612487565b51516040516352ff146960e11b8152600481019190915291829060249082906001600160a01b03165afa90811561046e5760009161119c575b506040516301ffc9a760e01b8152632b49a35560e11b600482015290602090829060249082906001600160a01b03165afa90811561046e57600091611162575b50610f5457610f4f90612459565b610e84565b610f7c939495969750610f6a9150602092612487565b510151602080825183010191016124b1565b805160405163683b00d760e01b815291957f00000000000000000000000000000000000000000000000000000000000000006001600160a01b03169360209284928392610fcd92896004860161253f565b03816000865af190811561046e5760009161111e575b50602091826110149296015193604051809581948293631ade716160e31b8452604060048501526044840190611f41565b90602483015203915afa801561046e576000906110e4575b60209150915b60405163e56c926360e01b8152600481019190915293849060249082906001600160a01b03165afa91821561046e576000926110a8575b60609350604080519361107b85611d1f565b15159384815260208101921515835201911515825260405192835251151560208301525115156040820152f35b91506020833d6020116110dc575b816110c360209383611e2d565b81010312610256576110d6606093612242565b91611069565b3d91506110b6565b506020813d602011611116575b816110fe60209383611e2d565b8101031261025657611111602091612242565b61102c565b3d91506110f1565b90506020813d60201161115a575b8161113960209383611e2d565b81010312610256576020918261115161101493612242565b92505091610fe3565b3d915061112c565b90506020813d602011611194575b8161117d60209383611e2d565b810103126102565761118e90612242565b8a610f41565b3d9150611170565b90506020813d6020116111d3575b816111b760209383611e2d565b810103126102565760206111cc60249261224f565b9150610f01565b3d91506111aa565b6111f4915060203d60201161098d5761097e8183611e2d565b8a610ebb565b50959450505050602090611032565b6112279195503d806000833e61121f8183611e2d565b81019061238e565b9386610e7d565b61124391503d806000833e610aca8183611e2d565b85610e46565b90506020813d60201161127b575b8161126460209383611e2d565b810103126102565761127590612242565b85610e0b565b3d9150611257565b34610256576000366003190112610256576040517f00000000000000000000000000000000000000000000000000000000000000006001600160a01b03168152602090f35b346102565760403660031901126102565760206112ef6112e6611909565b60243590613c66565b6040519015158152f35b346102565760206112ef61130c36612006565b9291909161346c565b34610256576040366003190112610256576104d3611342611334611909565b61133c61191f565b90613fd6565b6040519182916020835260208301906119a2565b346102565761136d61136736611eb0565b916126a5565b90604051906040820192604083528151809452606083019160608560051b850101926020809201906000905b8782106113ad575050508380955001520390f35b90919483806113e8600193605f198b8203018652895190836113d88351604084526040840190611f41565b9201519084818403910152611eda565b9701920192019091611399565b346102565761140c61140636611eb0565b916130da565b909160405191604083019360408452805180955260609283850193808760051b870101946020809401926000925b89841061144d5788808989898301520390f35b90919293968580611522600193605f198d82030188528b5190836113d8835160408452888060a01b038082511660408601528084830151168b8601528060408301511660809081870152818c8401519160a09283890152840151169060c091828801528301518d8701528201511661010090818601528b8201519061012091828701528201519061014091828701528201519061016091828701528201511515906101809182870152820151906101a09182870152820151916101c092838701520151906101e085015261020084019061197d565b9901940194019293919061143a565b346102565760a03660031901126102565761154a611909565b6024356001600160401b03811161025657611569903690600401611e69565b6001600160a01b0360643581811693909290848403610256576040516301ffc9a760e01b81526306cc15a560e11b6004820152602095918416918682602481865afa91821561046e5760009261172c575b5081611722575b501561047a578460049160405192838092633f4a2d2760e01b82525afa801561046e57859261161692600092611703575b5060405194858094819363af9a2aa760e01b8352876004840152602483019061197d565b0392165afa801561046e5783916000916116c8575b50604051630500ad0b60e41b81526001600160a01b03918216600482015292166024830152608480356044808501919091523560648401528290819081015b03817318f61d94ab3B2d8BCdc2cc70968503A447cc31cC5af490811561046e5760009161169b575b50604051908152f35b90508181813d83116116c1575b6116b28183611e2d565b81010312610256575182611692565b503d6116a8565b82819392503d83116116fc575b6116df8183611e2d565b810103126102565761166a916116f5849261224f565b909261162b565b503d6116d5565b61171b919250843d861161098d5761097e8183611e2d565b90876115f2565b90501515866115c1565b9091508681813d831161175c575b6117448183611e2d565b810103126102565761175590612242565b90876115ba565b503d61173a565b34610256576060366003190112610256576104d3611798611782611909565b61178a61191f565b611792611935565b9161451d565b6040519182916020835260208301906119f3565b34610256576080366003190112610256576117c5611909565b6117cd61191f565b906117d6611935565b906117df61194b565b6040516301ffc9a760e01b81526313e9760960e01b60048201526001600160a01b03909216929091602081602481875afa90811561046e5760009161187d575b501561047a5760006004936040519485809263f9776bcb60e01b82525afa93841561046e576104d394610bd99460009161185a575b506152ca565b61187791503d806000833e61186f8183611e2d565b81019061301e565b86611854565b90506020813d82116118ae575b8161189760209383611e2d565b81010312610256576118a890612242565b8561181f565b3d915061188a565b34610256576020366003190112610256576004359063ffffffff60e01b821680920361025657602091631a85d68360e01b81149081156118f8575b5015158152f35b6301ffc9a760e01b149050836118f1565b600435906001600160a01b038216820361025657565b602435906001600160a01b038216820361025657565b604435906001600160a01b038216820361025657565b60643590811515820361025657565b60005b83811061196d5750506000910152565b818101518382015260200161195d565b906020916119968151809281855285808601910161195a565b601f01601f1916010190565b9060018060a01b0382511681526080806119e06119ce602086015160a0602087015260a086019061197d565b6040860151858203604087015261197d565b9360608101516060850152015191015290565b90611a3990602080611a0e855160a0855260a08501906119a2565b9401519101906060809180518452602081015115156020850152604081015160408501520151910152565b90565b565b908060018060a01b03928381511682526020611a7c611a6a82840151610520808588015286019061197d565b604084015185820360408701526119a2565b946001600160801b039586606085015116606086015286608085015116608086015260a084015160a086015260c084015160c086015260e084015160e08601526101009081850151828701526101209081860151918782039088015281518082528582019186808360051b8301019401926000915b838310611c855750505050509085929161014090818701519185820390860152611b1a916119a2565b61016090818701519185820390860152611b33916119a2565b9761018080870151908501526101a080870151908501526101c08087015193845116908501528483015115156101e090818601528160408501516102009081880152606086015190610220918289015260808701519361024094858a015260a08801519661026097888b015260c089015198610280998a8c015260e08101516102a0809c015201516102c0809d01528a01516102e08d01611bfb9180518252602080820151818401526040918201518051838501529081015160608401520151608090910152565b89015180516103808d015260208101516103a08d0152604001516103c08c0152880151166103e08a0152860151166104008801528401511515610420870152830151151561044086015282015190815161046086015281015161048085015260408101516104a085015260608101516104c0850152608001516104e0840152015190610500015290565b919395969780809a9b50611ca76001939597601f1986820301875289516119f3565b97019301930190928a9998979695949293611af1565b602080820190808352835180925260408301928160408460051b8301019501936000915b848310611cf15750505050505090565b9091929394958480611d0f600193603f198682030187528a51611a3e565b9801930193019194939290611ce1565b606081019081106001600160401b03821117611d3a57604052565b634e487b7160e01b600052604160045260246000fd5b61018081019081106001600160401b03821117611d3a57604052565b604081019081106001600160401b03821117611d3a57604052565b60a081019081106001600160401b03821117611d3a57604052565b6102e081019081106001600160401b03821117611d3a57604052565b61012081019081106001600160401b03821117611d3a57604052565b61014081019081106001600160401b03821117611d3a57604052565b6101c081019081106001600160401b03821117611d3a57604052565b608081019081106001600160401b03821117611d3a57604052565b90601f801991011681019081106001600160401b03821117611d3a57604052565b6001600160401b038111611d3a57601f01601f191660200190565b81601f8201121561025657803590611e8082611e4e565b92611e8e6040519485611e2d565b8284526020838301011161025657816000926020809301838601378301015290565b6060906003190112610256576004356001600160a01b038116810361025657906024359060443590565b90815180825260208092019182818360051b85019501936000915b848310611f055750505050505090565b9091929394958480611f318385600195038752828b51805183520151906040908185820152019061197d565b9801930193019194939290611ef5565b90611a3991805182526020810151602083015260018060a01b03806040830151166040840152806060830151166060840152608082015160808401528060a08301511660a084015260c082015160c084015260e08201511660e083015261010080820151908301526101208082015190830152610140808201519083015261016080910151916101808092820152019061197d565b9181601f84011215610256578235916001600160401b038311610256576020808501948460051b01011161025657565b6060600319820112610256576004356001600160a01b0381168103610256579160243591604435906001600160401b0382116102565761204891600401611fd6565b9091565b908151815260209161206b838201516101408086860152840190611a3e565b60408281015184830385830152908201949091906000825b600282106120da575050505050606081015160608301526080810151608083015260a081015160a083015260c081015160c083015260e081015160e083015261010080820151908301526101208091015191015290565b909192939683806120f383886001950386528b516119a2565b99019201920190939291612083565b6080906003190112610256576001600160a01b039060043582811681036102565791602435908116810361025657906044359060643590565b929190604084016040855281518091526060850160608260051b870101916020809401916000905b85838310612175575050505050930152565b8061219060019394959697605f198d8203018652885161204c565b960192019201909291612163565b6001600160401b038111611d3a5760051b60200190565b81601f82011215610256578035916121cc8361219e565b926121da6040519485611e2d565b808452602092838086019260051b820101928311610256578301905b828210612204575050505090565b81356001600160a01b03811681036102565781529083019083016121f6565b6040519061223082611d1f565b60006040838281528260208201520152565b5190811515820361025657565b51906001600160a01b038216820361025657565b9092919261227081611e4e565b9161227e6040519384611e2d565b829482845282820111610256576020611a3c93019061195a565b9080601f83011215610256578151611a3992602001612263565b6020818303126102565780516001600160401b039182821161025657016101808184031261025657604051926122e784611d50565b81518452602082015160208501526123016040830161224f565b60408501526123126060830161224f565b60608501526080820151608085015261232d60a0830161224f565b60a085015260c082015160c085015261234860e0830161224f565b60e08501526101008083015190850152610120808301519085015261014080830151908501526101609283830151908111610256576123879201612298565b9082015290565b9060209081838203126102565782516001600160401b039384821161025657019080601f830112156102565781516123c58161219e565b946040906123d582519788611e2d565b828752858088019360051b8601019484861161025657868101935b86851061240257505050505050505090565b84518381116102565782019084601f1983890301126102565784519061242782611d6c565b89830151825285830151918583116102565761244a898c80969581960101612298565b838201528152019401936123f0565b60001981146108d35760010190565b9081602091031261025657516001600160a01b03811681036102565790565b805182101561249b5760209160051b010190565b634e487b7160e01b600052603260045260246000fd5b90816040910312610256576020604051916124cb83611d6c565b805183520151602082015290565b9035601e19823603018112156102565701602081359101916001600160401b03821161025657813603831361025657565b908060209392818452848401376000828201840152601f01601f1916010190565b9035603e1982360301811215610256570190565b9061255590949294606083526060830190611f41565b9360208201526040818503910152808352602083019260208260051b82010193836000925b84841061258a5750505050505090565b909192939495601f198282030184526125a3878461252b565b6040820190803583526020810135601e19823603018112156102565701916001600160401b0383351161025657823560051b91823603602085011361025657604060208395949301528235905260608084019184010192602083019260005b81358110612625575050505050602080600192980194019401929493919061257a565b909192939460208061267e600193605f198882030189526126488a84890161252b565b9061267161266761265984806124d9565b60408552604085019161250a565b92858101906124d9565b918581850391015261250a565b9701950193929101612602565b919082018092116108d357565b919082039182116108d357565b604080516301ffc9a760e01b81526306cc15a560e11b600480830191909152600096958794602494936020936001600160a01b03909216929084818881875afa90811561293357889161294c575b501561293d578451630d96c0f960e21b81529084828481875afa918215612933578892612900575b50818910156128f0578161272f828b61268b565b106128db57508761273f91612698565b945b61274a8661219e565b976127578651998a611e2d565b868952601f196127668861219e565b0185895b8a8c8483106128685750925050505b87811061278d575050505050505050509190565b612797818361268b565b8751906344ff7dc360e01b82528582015289818581895afa908115612844578a9161284e575b506127c8828c612487565b51526127d4818b612487565b515151875190631d40683560e31b82528582015289818581895afa908115612844579087838d61281b95948e8095612820575b50509061281391612487565b510152612459565b612779565b612813939295509061283b913d8091833e61121f8183611e2d565b9390918e612807565b88513d8c823e3d90fd5b61286291503d808c833e610aca8183611e2d565b386127bd565b8284918c519361287785611d6c565b8d51818f61288483611d50565b818352818784015282015260609180838301528060808301528060a08301528060c08301528060e083015280610100830152806101208301526101408201528161016082015285528385015201015201869061276a565b80969a506128ea91508861268b565b98612741565b5050505050505092505060609190565b9091508481813d831161292c575b6129188183611e2d565b810103126129285751903861271b565b8780fd5b503d61290e565b86513d8a823e3d90fd5b50835163044aa57560e41b8152fd5b90508481813d831161297a575b6129638183611e2d565b810103126129285761297490612242565b386126f3565b503d612959565b6040519061298e82611d87565b600060808382815260606020820152606060408201528260608201520152565b604051906129bb82611d1f565b81600081526000602082015260406129d1612223565b910152565b604051906129e382611d87565b60006080838281528260208201528260408201528260608201520152565b60405190612a0e82611da2565b6000808352606060208401526102c083612a26612981565b60408201528260608201528260808201528260a08201528260c08201528260e082015261010083818301526060610120830152612a61612981565b610140830152612a6f612981565b61016083015283610180830152836101a08301528360405191612a9183611dbe565b8183528160208401528160408401528160608401528160808401528160a08401528160c08401528160e08401528201526101c0820152612acf6129ae565b6101e0820152612add612223565b61020082015282610220820152826102408201528261026082015282610280820152612b076129d6565b6102a08201520152565b604090815191612b2083611dda565b82600091828252612b2f612a01565b9060209182840152805191612b4383611d6c565b845b828110612b805750509082916101209301528260608201528260808201528260a08201528260c08201528260e0820152826101008201520152565b8190612b8a612981565b8186015201612b45565b90612b9e8261219e565b612bab6040519182611e2d565b8281528092612bbc601f199161219e565b019060005b828110612bcd57505050565b602090612bd8612b11565b82828501015201612bc1565b604080516301ffc9a760e01b81526306cc15a560e11b600480830191909152600097969293928892602092916001600160a01b03808716929091908581602481875afa908115612e23578791612dea575b5080612ddf575b15612dcf57875163183ea23960e21b8152918916848301528482602481865afa918215612dc5578692612d92575b50818a1015612d815781612c7e828c61268b565b10612d6c575088612c8e91612698565b965b612c9988612b94565b98855b898110612cb157505050505050505050509190565b8086612cc0612cf1938561268b565b8b5163d64470e960e01b81526001600160a01b03871689820190815260208101929092529384918291604090910190565b0381885afa918215612d62578c908993612d2e575b50612d1e82612d18612d29958d6137f2565b92612487565b52610234818d612487565b612c9c565b80929350888092503d8311612d5b575b612d488183611e2d565b810103126129285751908b612d1e612d06565b503d612d3e565b8a513d8a823e3d90fd5b80989b50612d7b91508961268b565b99612c90565b505050505095505050505060609190565b9091508481813d8311612dbe575b612daa8183611e2d565b81010312612dba57519038612c6a565b8580fd5b503d612da0565b88513d88823e3d90fd5b875163044aa57560e41b81528490fd5b508189161515612c3c565b90508581813d8311612e1c575b612e018183611e2d565b81010312612e1857612e1290612242565b38612c35565b8680fd5b503d612df7565b89513d89823e3d90fd5b604080516301ffc9a760e01b81526306cc15a560e11b600480830191909152600097969293928892602092916001600160a01b03808716929091908581602481875afa908115612e23578791612fe9575b5080612fde575b15612dcf578751636bb1c52360e11b8152918916848301528482602481865afa918215612dc5578692612faf575b50818a1015612d815781612ec7828c61268b565b10612f9a575088612ed791612698565b965b612ee288612b94565b98855b898110612efa57505050505050505050509190565b8086612f09612f3a938561268b565b8b51632906d3a960e21b81526001600160a01b03871689820190815260208101929092529384918291604090910190565b0381885afa918215612d62578c908993612f66575b50612d1e82612d18612f61958d6137f2565b612ee5565b80929350888092503d8311612f93575b612f808183611e2d565b810103126129285751908b612d1e612f4f565b503d612f76565b80989b50612fa991508961268b565b99612ed9565b9091508481813d8311612fd7575b612fc78183611e2d565b81010312612dba57519038612eb3565b503d612fbd565b508189161515612e85565b90508581813d8311613017575b6130008183611e2d565b81010312612e185761301190612242565b38612e7e565b503d612ff6565b6020908181840312610256578051906001600160401b03821161025657019180601f840112156102565782516130538161219e565b936130616040519586611e2d565b818552838086019260051b820101928311610256578301905b828210613088575050505090565b8380916130948461224f565b81520191019061307a565b919081101561249b5760051b0190565b356001600160a01b03811681036102565790565b519069ffffffffffffffffffff8216820361025657565b604080516301ffc9a760e01b81526332ed0a6160e11b600480830191909152600096958794602494936020936001600160a01b03909216929084818881875afa908115612933578891613437575b501561293d5784516301f0b85b60e21b81529084828481875afa918215612933578892613408575b50818910156128f05781613164828b61268b565b106133f357508761317491612698565b945b61317f8661219e565b9761318c8651998a611e2d565b868952601f1961319b8861219e565b0185895b8a8c8483106133725750925050505b8781106131c2575050505050505050509190565b6131cc818361268b565b87519063dabe8a7160e01b82528582015289818581895afa908115612844578a91613250575b506131fd828c612487565b515261010061320c828c612487565b51510151875190635973af3960e01b82528582015289818581895afa908115612844579087838d61324b95948e80956128205750509061281391612487565b6131ae565b90503d808b833e6132618183611e2d565b8101878282031261336e5781516001600160401b039283821161336a5701906101c0828203126133665789519261329784611df6565b6132a08361224f565b84526132ad8a840161224f565b8a8501526132bc8b840161224f565b8b8501526060808401519085015260806132d781850161224f565b9085015260a0808401519085015260c06132f281850161224f565b9085015260e0808401519085015261010080840151908501526101208084015190850152610140613324818501612242565b90850152610160808401519085015261018080840151908501526101a0928381015191821161336257613358929101612298565b90820152386131f2565b8d80fd5b8b80fd5b8c80fd5b8a80fd5b8284918c519361338185611d6c565b8d51818f61338e83611df6565b818352818784015282015260609180838301528060808301528060a08301528060c08301528060e083015280610100830152806101208301528061014083015280610160830152610180820152816101a082015285528385015201015201869061319f565b80969a5061340291508861268b565b98613176565b9091508481813d8311613430575b6134208183611e2d565b8101031261292857519038613150565b503d613416565b90508481813d8311613465575b61344e8183611e2d565b810103126129285761345f90612242565b38613128565b503d613444565b604080516301ffc9a760e01b8082526306cc15a560e11b6004808401919091526001600160a01b03948516979395602095936024939190878186818e5afa908115613784576000916137bd575b50156137ad57875163eb02c30160e01b815283810182905293919060008584818e5afa94851561378457908b93929160009661378f575b50600090838b5180968193631d40683560e31b8352898301525afa92831561378457600093613769575b50825115613759578851600061352f82611d6c565b808252898201529a60005b8451811015613745578a51633f4a2d2760e01b81528a818881865afa9081156136de578991868e8e93600093613726575b50613576868b612487565b5151905194859384926352ff146960e11b84528d840152165afa9081156136de578991868e8e936000936136e9575b5051878152632b49a35560e11b8b8201529384928391165afa9081156136de576000916136a9575b506135e0576135db90612459565b61353a565b899a9b9c5061362c935061361092508991506135ff9060009695612487565b5101518880825183010191016124b1565b519589519a8b978896879563683b00d760e01b8752860161253f565b03927f0000000000000000000000000000000000000000000000000000000000000000165af191821561369f5750600091613668575b50905090565b82813d8311613698575b61367c8183611e2d565b81010312613695575061368e90612242565b8038613662565b80fd5b503d613672565b513d6000823e3d90fd5b908b82813d83116136d7575b6136bf8183611e2d565b8101031261369557506136d190612242565b386135cd565b503d6136b5565b8c513d6000823e3d90fd5b945050509082813d831161371f575b6137028183611e2d565b8101031261369557508a8c866137188c9461224f565b91386135a5565b503d6136f8565b61373e919350843d861161098d5761097e8183611e2d565b913861356b565b505050505060009061362c86979899613610565b5050505050505050505050600090565b61377d91933d8091833e61121f8183611e2d565b913861351a565b89513d6000823e3d90fd5b6137a690600092973d8091833e610aca8183611e2d565b95906134f0565b875163044aa57560e41b81528390fd5b908882813d83116137eb575b6137d38183611e2d565b8101031261369557506137e590612242565b386134b9565b503d6137c9565b906137fb612b11565b506040516301ffc9a760e01b81526306cc15a560e11b60048083019190915292906020816024816001600160a01b0386165afa90811561046e57600091613c2c575b5015613c1b5760405163eb02c30160e01b81528381018390526000816024816001600160a01b0386165afa90811561046e57600091613c02575b50604081810180519151632f60fad360e21b815286810186905290936001600160a01b0392831615926020908390602490829085165afa91821561046e57600092613bce575b506138c6612a01565b948315613ba8575b50604051631d40683560e31b81528781018790526000816024816001600160a01b0386165afa90811561046e57600091613b8f575b50604051600061391282611d6c565b80825260208201529760005b8251811015613b8157604051633f4a2d2760e01b815260208184816001600160a01b0389165afa90811561046e57600091613b62575b5060206139618386612487565b51516040516352ff146960e11b81528581019190915291829060249082906001600160a01b03165afa90811561046e57600091613b23575b506040516301ffc9a760e01b8152632b49a35560e11b8482015290602090829060249082906001600160a01b03165afa90811561046e57600091613ae9575b5080613ad1575b6139f1576139ec90612459565b61391e565b613a099394959697989950610f6a9150602092612487565b613a7385519760405195613a1c87611d6c565b15613ac757606087015160e0880151613a41916001600160a01b039182169116613fd6565b865260a087015160e0880151613a63916001600160a01b039182169116613fd6565b602087015260c087015193615677565b602082015191519260808701519561012080980151986040519a613a968c611dda565b8b5260208b015260408a01526060890152608088015260a087015260c086015260e085015261010084015282015290565b6040880151613a41565b506020613ade8285612487565b5101515115156139df565b906020823d602011613b1b575b81613b0360209383611e2d565b810103126136955750613b1590612242565b386139d8565b3d9150613af6565b906020823d602011613b5a575b81613b3d60209383611e2d565b8101031261369557506020613b5360249261224f565b9150613999565b3d9150613b30565b613b7b915060203d60201161098d5761097e8183611e2d565b38613954565b505050909192939495613a09565b613ba2913d8091833e61121f8183611e2d565b38613903565b5160e0850151919550613bc7916001600160a01b03908116911661460e565b93386138ce565b90916020823d602011613bfa575b81613be960209383611e2d565b8101031261369557505190386138bd565b3d9150613bdc565b613c15913d8091833e610aca8183611e2d565b38613877565b60405163044aa57560e41b81528390fd5b906020823d602011613c5e575b81613c4660209383611e2d565b810103126136955750613c5890612242565b3861383d565b3d9150613c39565b604080516301ffc9a760e01b8082526306cc15a560e11b6004808401919091526001600160a01b0394851695939460209492939092602491868184818c5afa908115613f3557600091613f6b575b5015613f5b57865163eb02c30160e01b81528381018290529460008684818c5afa958615613f3557600096613f40575b50875191631d40683560e31b83528483015260008284818c5afa918215613f3557600092613f1a575b50815115613f0c5787516000613d2282611d6c565b808252888201529860005b8351811015613ef8578951633f4a2d2760e01b815289818881865afa908115613e985788918b91600091613edb575b50878d613d69868a612487565b5151905194859384926352ff146960e11b84528d840152165afa908115613e985788918b91600091613ea3575b50878d5180948193898352632b49a35560e11b8d840152165afa908115613e9857600091613e63575b50613dd257613dcd90612459565b613d2d565b613e249a5089949250888098979694819350613e0292613df191612487565b5101518280825183010191016124b1565b01518351998a9687958695631ade716160e31b87528601526044850190611f41565b9183015203917f0000000000000000000000000000000000000000000000000000000000000000165afa91821561369f57506000916136685750905090565b908a82813d8311613e91575b613e798183611e2d565b810103126136955750613e8b90612242565b38613dbf565b503d613e6f565b8b513d6000823e3d90fd5b92509082813d8111613ed4575b613eba8183611e2d565b81010312613695575089613ece899261224f565b38613d96565b503d613eb0565b613ef29150823d841161098d5761097e8183611e2d565b38613d5c565b5050505084939291869185613e2499613e02565b505050505050505050600090565b613f2e91923d8091833e61121f8183611e2d565b9038613d0d565b88513d6000823e3d90fd5b613f5491963d8091833e610aca8183611e2d565b9438613ce4565b865163044aa57560e41b81528390fd5b908782813d8311613f99575b613f818183611e2d565b810103126136955750613f9390612242565b38613cb4565b503d613f77565b602081830312610256578051906001600160401b03821161025657019080601f83011215610256578151611a3992602001612263565b9190613fe0612981565b506001600160a01b0392831690811561047a57604080516395d89b4160e01b8152600095918682600481885afa9182156141a1578792614185575b5080516306fdde0360e01b8152918783600481895afa92831561417b578893614157575b5081519363313ce56760e01b855260209586866004818b5afa95861561414d578a96614110575b50168015614103578251906370a0823160e01b8252600482015285816024818a5afa9081156140f95789916140c2575b5060ff9596979850955b8251976140ac89611d87565b8852870152850152166060830152608082015290565b90508581813d83116140f2575b6140d98183611e2d565b810103126140ee5751969750879660ff614096565b8880fd5b503d6140cf565b83513d8b823e3d90fd5b5060ff94959697956140a0565b9095508681813d8311614146575b6141288183611e2d565b81010312614142575160ff81168103614142579438614066565b8980fd5b503d61411e565b84513d8c823e3d90fd5b6141749193503d808a833e61416c8183611e2d565b810190613fa0565b913861403f565b82513d8a823e3d90fd5b61419a9192503d8089833e61416c8183611e2d565b903861401b565b81513d89823e3d90fd5b604051906141b882611e12565b60006060838281528260208201528260408201520152565b91906141da6141ab565b50604080516301ffc9a760e01b815263cad9e0d360e01b6004808301919091526001600160a01b039586169291602091908281602481885afa9081156143ec576000916144c6575b50806144bb575b156144ad578251631e46e62f60e21b815282818381885afa9081156143ec578891849160009161446d575b50838651809b8193632630c12f60e01b8352165afa9788156143ec5760009861444e575b50835163011ddaef60e71b815283818481895afa9081156144435796809899838087946142e29a9b600091614426575b508951634858138f60e01b81526001600160a01b039586168982019081529190931694909416602085015290988993849291839160400190565b0392165afa9485156143ec576000956143f7575b50835163a4c1cccb60e01b815296168187018190528387602481895afa9182156143ec5760009788936143a9575b5090602484928651988993849263235f17f560e01b84528301525afa94851561439e5760009561436f575b5082519561435c87611e12565b8652151590850152830152606082015290565b90948282813d8311614397575b6143868183611e2d565b81010312613695575051933861434f565b503d61437c565b83513d6000823e3d90fd5b979092508488813d83116143e5575b6143c28183611e2d565b810103126136955750829060246143dc838a519a01612242565b93919250614324565b503d6143b8565b84513d6000823e3d90fd5b90948382813d831161441f575b61440e8183611e2d565b8101031261369557505193386142f6565b503d614404565b61443d9150863d881161098d5761097e8183611e2d565b386142a8565b85513d6000823e3d90fd5b614466919850833d851161098d5761097e8183611e2d565b9638614278565b8281939294503d83116144a6575b6144858183611e2d565b810103126144a25751908882168203613695575082889138614254565b5080fd5b503d61447b565b825163044aa57560e41b8152fd5b508685161515614229565b908382813d83116144f4575b6144dc8183611e2d565b8101031261369557506144ee90612242565b38614222565b503d6144d2565b6040519061450882611d6c565b81614511612981565b815260206129d16141ab565b919061453561453b9261452e6144fb565b5082613fd6565b926141d0565b6040519161454883611d6c565b8252602082015290565b90918251916145608361219e565b9361456e6040519586611e2d565b838552601f1961457d8561219e565b0160005b8181106145d857505060005b84811061459c57505050505090565b6145d3906145be856001600160a01b036145b68487612487565b51168661451d565b6145c88289612487565b526102348188612487565b61458d565b6020906145e36144fb565b82828a01015201614581565b9081602091031261025657516001600160801b03811681036102565790565b614616612a01565b506040516301ffc9a760e01b815263cad9e0d360e01b60048201526020816024816001600160a01b0386165afa90811561046e576000916150d3575b501561047a57604051637437535960e01b8152916020836004816001600160a01b0386165afa92831561046e5760009361509f575b50604051631f1b131360e31b8152916020836004816001600160a01b0385165afa92831561046e57600493602091600091615082575b506040516318160ddd60e01b815294859182906001600160a01b03165afa92831561046e5760009361504e575b506146f5848461268b565b6000811561504857506b033b2e3c9fd0803ce8000000808502908582048114861517156108d357859082040361091d5781610824614737928260011c9061589e565b935b604051630783377560e51b81526000816004816001600160a01b0388165afa90811561046e5761477491869160009161502f575b5085614552565b604051634c66358f60e11b815295610120876004816001600160a01b0389165afa96871561046e57600097614f7e575b506040516307c0e8c160e31b81526020816004816001600160a01b038a165afa90811561046e57600091614f3b575b5060405163ddce491760e01b81526001600160a01b038781166004830152909160a09183916024918391165afa801561046e576000608052614ecb575b506040516306fdde0360e01b81526000816004816001600160a01b038a165afa801561046e57600061010052614ead575b5060405163011ddaef60e71b81526020816004816001600160a01b038a165afa90811561046e57614885918891600091614e4b575b506001600160a01b0316613fd6565b60a052604051637f5d87bf60e11b81526020816004816001600160a01b038a165afa801561046e5760006101c052614e8b575b5060405163905e383760e01b8152976020896004816001600160a01b038a165afa98891561046e57600099614e6a575b506040516358a06f0760e01b81526020816004816001600160a01b038b165afa90811561046e5761492b918991600091614e4b57506001600160a01b0316613fd6565b604051631f1b131360e31b81529094906020816004816001600160a01b038c165afa90811561046e57614970918a91600091614e4b57506001600160a01b0316613fd6565b60405163280188b760e21b8152979096906020896004816001600160a01b0385165afa98891561046e57600099614e17575b5060405163a223f82160e01b81529960208b6004816001600160a01b0386165afa9a8b1561046e5760009b614de3575b508b516040516306fdde0360e01b815291906001600160a01b03908116906000908490600490829088165afa90811561046e57614a1793600092614dc8575b5061510d565b8b516040516306fdde0360e01b8152919d91906001600160a01b03908116906000908390600490829088165afa90811561046e57614a5d92600092614dad575b50615210565b60c052604051635ea24eef60e11b81526020816004816001600160a01b0387165afa801561046e5760006101e052614d8b575b506040516327c37b2560e01b81526020816004816001600160a01b0387165afa801561046e57600061022052614d59575b50604051630c71782360e41b81526020816004816001600160a01b0387165afa806101a0521561046e576000610200526101a051614d16575b50604051610160818152634ad09aa560e01b909152516020906004816001600160a01b0386165afa80610140521561046e5760006102405261014051614cce575b6040516101808181526371a6cab760e01b909152516020906004816001600160a01b0386165afa80610120521561046e5760006102605261012051614c8b575b6001600160801b0391614b936040518060e052611da2565b60018060a01b031660e0515261010051602060e051015260a051604060e0510152816101c05116606060e051015216608060e051015260a060e051015260c060e051015260e08051015261010060e051015261012060e051015261014060e051015261016060e051015261018060e05101526101a060e05101526101c060e05101526101e060e051015260c05161020060e05101526001600160801b036101e0511661022060e05101526001600160801b03610220511661024060e051015261020051151561026060e051015261024051151561028060e05101526080516102a060e0510152610260516102c060e051015260e05190565b6020913d602011614cc6575b614ca48361018051611e2d565b602061018051809481010312614cbf57915161026052614b7b565b6102605180fd5b3d9250614c97565b60203d602011614d0f575b614ce68161016051611e2d565b602061016051809281010312614d0857614cff90612242565b61024052614b3b565b6102405180fd5b503d614cd9565b6020813d602011614d51575b81614d2f60209383611e2d565b81010312614d4a57614d4090612242565b6102005238614afa565b6102005180fd5b3d9150614d22565b614d7a9060203d602011614d84575b614d728183611e2d565b8101906145ef565b6102205238614ac1565b503d614d68565b614da39060203d602011614d8457614d728183611e2d565b6101e05238614a90565b614dc191923d8091833e61416c8183611e2d565b9038614a57565b614ddc91923d8091833e61416c8183611e2d565b9038614a11565b909a6020823d602011614e0f575b81614dfe60209383611e2d565b8101031261369557505199386149d2565b3d9150614df1565b90986020823d602011614e43575b81614e3260209383611e2d565b8101031261369557505197386149a2565b3d9150614e25565b614e64915060203d60201161098d5761097e8183611e2d565b38614876565b614e8491995060203d602011614d8457614d728183611e2d565b97386148e8565b614ea39060203d602011614d8457614d728183611e2d565b6101c052386148b8565b614ec1903d806000833e61416c8183611e2d565b6101005238614841565b60a0813d60a011614f33575b81614ee460a09383611e2d565b81010312614f2d57608060405191614efb83611d87565b805183526020810151602084015260408101516040840152606081015160608401520151608082015260805238614810565b60805180fd5b3d9150614ed7565b6020813d602011614f76575b81614f5460209383611e2d565b810103126144a25751906001600160a01b0382168203613695575060a06147d3565b3d9150614f47565b610120979197813d61012011615027575b81614f9d6101209383611e2d565b810103126144a25760405191614fb283611dbe565b8151906001600160a01b038216820361369557508252614fd460208201612242565b602083015260408101516040830152606081015160608301526080810151608083015260a081015160a083015260c081015160c083015260e081015160e0830152610100809101519082015295386147a4565b3d9150614f8f565b615042913d8091833e61186f8183611e2d565b3861476d565b93614739565b90926020823d60201161507a575b8161506960209383611e2d565b8101031261369557505191386146ea565b3d915061505c565b6150999150823d841161098d5761097e8183611e2d565b386146bd565b90926020823d6020116150cb575b816150ba60209383611e2d565b810103126136955750519138614687565b3d91506150ad565b906020823d602011615105575b816150ed60209383611e2d565b8101031261369557506150ff90612242565b38614652565b3d91506150e0565b916151166129ae565b5061511f6129ae565b926001600160a01b039081169081156152095760a09161515f6040958651958694859384936311ddedf160e01b855260606004860152606485019061197d565b9116602483015242604483015203915afa80156151fe5760009283928492615190575b508401526020830152815290565b925090508160a03d81116151f7575b6151a98183611e2d565b8101039260a08412613695578251906060602085015195603f190112613695575060808251936151d885611d1f565b8381015185526060810151602086015201518284015292919038615182565b503d61519f565b82513d6000823e3d90fd5b5050505090565b90615219612223565b50615222612223565b916001600160a01b031680156152c55761525c91606091604051808095819463230fa49560e21b835260206004840152602483019061197d565b03915afa90811561046e5760009182918391615283575b5060408401526020830152815290565b929150506060823d82116152bd575b8161529f60609383611e2d565b81010312613695575080516040602083015192015190919038615273565b3d9150615292565b505090565b919060018060a01b03809216926040948551946301ffc9a760e01b865260046306cc15a560e11b81880152602060249781818a81875afa90811561566c57600091615637575b501561562857600095865b86518110156155a6578861532f8289612487565b518c51633f4a2d2760e01b81529116848287818a5afa9182156154db57600092615587575b508c516306fdde0360e01b8152906000828881845afa918215615561578c8f8f9260009561556c575b50519485809263481d98fb60e11b82528a8c830152816153a3608098899783019061197d565b0392165afa928315615561576000928394615519575b505088928915615426575b50508161540d575b506153e0575b6153db90612459565b61531b565b966154056153db918a6153f38b8b612487565b51166153ff828b612487565b52612459565b9790506153d2565b9050898061541b848b612487565b5116911614386153cc565b90919250600381101561550557858e926002899314938461544f575b50505050159038806153c4565b516358a06f0760e01b815293509091839182905afa9081156154db578b918d8f88936000936154e6575b50516370a0823160e01b81528785168a8201529384928391165afa9081156154db576000916154ae575b50158585388f615442565b908582813d83116154d4575b6154c48183611e2d565b81010312613695575051386154a3565b503d6154ba565b8d513d6000823e3d90fd5b6154fe919350843d861161098d5761097e8183611e2d565b9138615479565b8c602188634e487b7160e01b600052526000fd5b9080929450813d831161555a575b6155318183611e2d565b810103126144a257856155438261224f565b9101519160038310156136955750909138806153b9565b503d615527565b8e513d6000823e3d90fd5b61558091953d8091833e61416c8183611e2d565b933861537d565b61559f919250853d871161098d5761097e8183611e2d565b9038615354565b5096959750925050506155c46155bb8661219e565b96519687611e2d565b848652601f196155d38661219e565b0160005b8181106156125750505060005b8481106155f357505050505090565b806145be858561560661560d9587612487565b511661460e565b6155e4565b829061561c612a01565b82828b010152016155d7565b50875163044aa57560e41b8152fd5b908282813d8311615665575b61564d8183611e2d565b81010312613695575061565f90612242565b38615310565b503d615643565b8a513d6000823e3d90fd5b604080516301ffc9a760e01b81526306cc15a560e11b60048201526001600160a01b03928316939192602092918381602481895afa9081156144435760009161582d575b501561581c57835163eb02c30160e01b81526004810183905291600083602481895afa92831561444357600093615801575b5083830151156157f65783906024865180988193632f60fad360e21b835260048301525afa9485156143ec576000956157c7575b508382015160a083015160c0909301518551630500ad0b60e41b81526001600160a01b039284168316600482015293909216166024830152604482015260648101939093528083806084810103817318f61d94ab3B2d8BCdc2cc70968503A447cc31cC5af491821561369f575060009161579b5750905090565b82813d83116157c0575b6157af8183611e2d565b810103126136955750518038613662565b503d6157a5565b90948382813d83116157ef575b6157de8183611e2d565b810103126136955750519382615721565b503d6157d4565b505050505050600090565b61581591933d8091833e610aca8183611e2d565b91386156ed565b835163044aa57560e41b8152600490fd5b908482813d831161585b575b6158438183611e2d565b81010312613695575061585590612242565b386156bb565b503d615839565b811561586c570490565b634e487b7160e01b600052601260045260246000fd5b906706f05b59d3b200008201918281116108d35782106108c157565b91906158aa908361268b565b9182106108c157565b6000929180159182156158ca575b50501561091d57565b808202945091508115828504821417156108d3576158e89084615862565b1438806158c156fea264697066735822122065afa564969e5a9698e65677a4c96b77281bf453cc5341f295b054f2d93bd2b964736f6c63430008120033",
  "deployedBytecode": "0x61028080604052600436101561001457600080fd5b60e0600035811c91826301ffc9a7146118b657508163073f468c146117ac57816314fdc0731461176357816336ca926314611531578163429bd646146113f55750806344ec1614146113565780634acefed4146113155780634afdb64c146112f95780635927c358146112c8578063679bfb5b146112835780636a869ebb14610db75780636c5a9cd114610d7b5780638ddbcc6214610d615780639e09d40e14610ce6578063a8d028b514610ca5578063b23c434014610c40578063b29d57d814610be5578063b3e1d9f214610b84578063bdf4cd1814610ad9578063cd04eef414610506578063d030bb25146104d7578063debd310d146104a9578063e10a27a41461025b5763f107f8341461012a57600080fd5b34610256576040366003190112610256576004356001600160401b0381116102565761015a903690600401611fd6565b9061016361191f565b61016c8361219e565b9261017a6040519485611e2d565b808452601f196101898261219e565b0160005b81811061023f57505060005b8181106101ff576040805160208082528751818301819052600093600582901b8401810192808b01929185015b8287106101d35785850386f35b9091929382806101ef600193603f198a820301865288516119a2565b96019201960195929190926101c6565b8061021f8461021a61021561023a95878a61309f565b6130af565b613fd6565b6102298288612487565b526102348187612487565b50612459565b610199565b60209061024a612981565b8282890101520161018d565b600080fd5b3461025657602080600319360112610256576004356001600160401b0381116102565761028c903690600401611fd6565b906102968261219e565b916102a46040519384611e2d565b808352601f196102b38261219e565b0160005b81811061048c57505060005b81811061034157505050604051908282018383528151809152836040840192019360005b8281106102f45784840385f35b8551805169ffffffffffffffffffff90811686528184015186850152604080830151908701526060808301519087015260809182015116908501529481019460a0909301926001016102e7565b929391926001600160a01b038061035c61021584868961309f565b161561047a5761037061021583858861309f565b16906040518092633fabe5a360e21b825281600460a09384935afa90811561046e57600090600080600092600095610410575b5061040796506103b3868c612487565b5169ffffffffffffffffffff8095169052886103cf878d612487565b51015260406103de868c612487565b51015260606103ed858b612487565b51015260806103fc848a612487565b510191169052612459565b939291936102c3565b94505050505082813d8311610467575b61042a8183611e2d565b81010312610256578161043f610407936130c3565b858201519060408301519261045b6080606083015192016130c3565b9192939091938b6103a3565b503d610420565b6040513d6000823e3d90fd5b60405163044aa57560e41b8152600490fd5b94809394956104996129d6565b82828901015201949392946102b7565b34610256576104c36104ba36612102565b92919091612be4565b906104d36040519283928361213b565b0390f35b346102565760403660031901126102565760206104fe6104f5611909565b60243590615677565b604051908152f35b34610256576040366003190112610256576004356001600160a01b03811681036102565760405163eb02c30160e01b81526024803560048301529091906000908390816001600160a01b0385165afa91821561046e57600092610ab4575b50604051632630c12f60e01b81526020816004816001600160a01b0386165afa90811561046e576105d891602091600091610a97575b5060a08501516060860151604051631dae49b960e21b81526001600160a01b0392831660048201529116602482015292839190829081906044820190565b03916001600160a01b03165afa90811561046e57600091610a65575b506040516301ddf49360e61b8152916020836004816001600160a01b0385165afa92831561046e57600093610a31575b5060405163084b557b60e21b8152906020826004816001600160a01b0385165afa91821561046e576000926109fb575b5060a0850151606086015160405163a8905dab60e01b81526001600160a01b03928316600482015291166024820152919260208380604481015b03816001600160a01b0386165afa801561046e576000906109c8575b604087810151905163280188b760e21b81529450602090859060049082906001600160a01b03165afa93841561046e57600094610994575b5060a0870151606088015160c0890151604051632630c12f60e01b81526001600160a01b03938416969093919282169160209185916004918391165afa92831561046e57600093610963575b5060405163a3f092a760e01b81526004810196909652602486015260448501526001600160a01b0316606484015260208360848173__$75df3f6366b0557754cd3ba14359105414$__5af492831561046e5760009361092f575b50670de0b6b3a7640000958603908682116108d35786038681116108d3576107b46107b99188936158b3565b615882565b049085038581116108d3578592836107da6107b46107b4946107e0966158b3565b046158b3565b049183018084116108d3576107b46107f99185936158b3565b0490828102928184048114821517156108d35783040361091d57610824610829928260011c9061589e565b615862565b906004602060018060a01b03604084015116604051928380926368d0612f60e01b82525afa801561046e576000906108e9575b61086c91506020830151906158b3565b916b019d971e4fe8401e740000008301928381116108d35783106108c1576108a76080916b033b2e3c9fd0803ce80000006020950490612698565b9101518082116108ba5750604051908152f35b90506104fe565b604051630a77254f60e01b8152600490fd5b634e487b7160e01b600052601160045260246000fd5b506020813d602011610915575b8161090360209383611e2d565b810103126102565761086c905161085c565b3d91506108f6565b604051631550e8b760e01b8152600490fd5b9092506020813d60201161095b575b8161094b60209383611e2d565b8101031261025657519187610788565b3d915061093e565b61098691935060203d60201161098d575b61097e8183611e2d565b810190612468565b918a61072e565b503d610974565b9093506020813d6020116109c0575b816109b060209383611e2d565b81010312610256575192876106e2565b3d91506109a3565b506020833d6020116109f3575b816109e260209383611e2d565b8101031261025657600492516106aa565b3d91506109d5565b91506020823d602011610a29575b81610a1660209383611e2d565b810103126102565761068e915191610654565b3d9150610a09565b9092506020813d602011610a5d575b81610a4d60209383611e2d565b8101031261025657519184610624565b3d9150610a40565b90506020813d602011610a8f575b81610a8060209383611e2d565b810103126102565751836105f4565b3d9150610a73565b610aae9150823d841161098d5761097e8183611e2d565b8561059a565b610ad29192503d806000833e610aca8183611e2d565b8101906122b2565b9082610564565b3461025657606036600319011261025657610af2611909565b602435906001600160401b03821161025657610b15610b239236906004016121b5565b610b1d611935565b91614552565b60405160209182820192808352815180945260408301938160408260051b8601019301916000955b828710610b585785850386f35b909192938280610b74600193603f198a820301865288516119f3565b9601920196019592919092610b4b565b34610256576080366003190112610256576004356001600160401b03811161025657610bd9610bba6104d39236906004016121b5565b610bc261191f565b610bca611935565b90610bd361194b565b926152ca565b60405191829182611cbd565b34610256576040366003190112610256576080610c11610c03611909565b610c0b61191f565b906141d0565b610c3e60405180926060809180518452602081015115156020850152604081015160408501520151910152565bf35b3461025657604036600319011261025657610c59611909565b6024356001600160401b03811161025657606091610c7e610c84923690600401611e69565b90615210565b610c3e60405180926040809180518452602081015160208501520151910152565b34610256576040366003190112610256576104d3610cd2610cc4611909565b610ccc61191f565b9061460e565b604051918291602083526020830190611a3e565b3461025657606036600319011261025657610cff611909565b6024356001600160401b0381116102565760a091610d24610d32923690600401611e69565b610d2c611935565b9161510d565b604080518251815260208084015181830152928201518051828401529283015160608201529101516080820152f35b34610256576104c3610d7236612102565b92919091612e2d565b34610256576040366003190112610256576104d3610da3610d9a611909565b602435906137f2565b60405191829160208352602083019061204c565b3461025657610dc536612006565b9091610dcf612223565b506040516301ffc9a760e01b81526306cc15a560e11b60048201526020816024816001600160a01b0389165afa90811561046e57600091611249575b501561047a5760405163eb02c30160e01b8152600481018290526000816024816001600160a01b0389165afa90811561046e5760009161122e575b50604051631d40683560e31b815260048101839052936000856024816001600160a01b038a165afa94851561046e57600095611209575b5060009485805b82518110156111fa57604051633f4a2d2760e01b81526020816004816001600160a01b038e165afa90811561046e576000916111db575b506020610ec88386612487565b51516040516352ff146960e11b8152600481019190915291829060249082906001600160a01b03165afa90811561046e5760009161119c575b506040516301ffc9a760e01b8152632b49a35560e11b600482015290602090829060249082906001600160a01b03165afa90811561046e57600091611162575b50610f5457610f4f90612459565b610e84565b610f7c939495969750610f6a9150602092612487565b510151602080825183010191016124b1565b805160405163683b00d760e01b815291957f00000000000000000000000000000000000000000000000000000000000000006001600160a01b03169360209284928392610fcd92896004860161253f565b03816000865af190811561046e5760009161111e575b50602091826110149296015193604051809581948293631ade716160e31b8452604060048501526044840190611f41565b90602483015203915afa801561046e576000906110e4575b60209150915b60405163e56c926360e01b8152600481019190915293849060249082906001600160a01b03165afa91821561046e576000926110a8575b60609350604080519361107b85611d1f565b15159384815260208101921515835201911515825260405192835251151560208301525115156040820152f35b91506020833d6020116110dc575b816110c360209383611e2d565b81010312610256576110d6606093612242565b91611069565b3d91506110b6565b506020813d602011611116575b816110fe60209383611e2d565b8101031261025657611111602091612242565b61102c565b3d91506110f1565b90506020813d60201161115a575b8161113960209383611e2d565b81010312610256576020918261115161101493612242565b92505091610fe3565b3d915061112c565b90506020813d602011611194575b8161117d60209383611e2d565b810103126102565761118e90612242565b8a610f41565b3d9150611170565b90506020813d6020116111d3575b816111b760209383611e2d565b810103126102565760206111cc60249261224f565b9150610f01565b3d91506111aa565b6111f4915060203d60201161098d5761097e8183611e2d565b8a610ebb565b50959450505050602090611032565b6112279195503d806000833e61121f8183611e2d565b81019061238e565b9386610e7d565b61124391503d806000833e610aca8183611e2d565b85610e46565b90506020813d60201161127b575b8161126460209383611e2d565b810103126102565761127590612242565b85610e0b565b3d9150611257565b34610256576000366003190112610256576040517f00000000000000000000000000000000000000000000000000000000000000006001600160a01b03168152602090f35b346102565760403660031901126102565760206112ef6112e6611909565b60243590613c66565b6040519015158152f35b346102565760206112ef61130c36612006565b9291909161346c565b34610256576040366003190112610256576104d3611342611334611909565b61133c61191f565b90613fd6565b6040519182916020835260208301906119a2565b346102565761136d61136736611eb0565b916126a5565b90604051906040820192604083528151809452606083019160608560051b850101926020809201906000905b8782106113ad575050508380955001520390f35b90919483806113e8600193605f198b8203018652895190836113d88351604084526040840190611f41565b9201519084818403910152611eda565b9701920192019091611399565b346102565761140c61140636611eb0565b916130da565b909160405191604083019360408452805180955260609283850193808760051b870101946020809401926000925b89841061144d5788808989898301520390f35b90919293968580611522600193605f198d82030188528b5190836113d8835160408452888060a01b038082511660408601528084830151168b8601528060408301511660809081870152818c8401519160a09283890152840151169060c091828801528301518d8701528201511661010090818601528b8201519061012091828701528201519061014091828701528201519061016091828701528201511515906101809182870152820151906101a09182870152820151916101c092838701520151906101e085015261020084019061197d565b9901940194019293919061143a565b346102565760a03660031901126102565761154a611909565b6024356001600160401b03811161025657611569903690600401611e69565b6001600160a01b0360643581811693909290848403610256576040516301ffc9a760e01b81526306cc15a560e11b6004820152602095918416918682602481865afa91821561046e5760009261172c575b5081611722575b501561047a578460049160405192838092633f4a2d2760e01b82525afa801561046e57859261161692600092611703575b5060405194858094819363af9a2aa760e01b8352876004840152602483019061197d565b0392165afa801561046e5783916000916116c8575b50604051630500ad0b60e41b81526001600160a01b03918216600482015292166024830152608480356044808501919091523560648401528290819081015b038173__$75df3f6366b0557754cd3ba14359105414$__5af490811561046e5760009161169b575b50604051908152f35b90508181813d83116116c1575b6116b28183611e2d565b81010312610256575182611692565b503d6116a8565b82819392503d83116116fc575b6116df8183611e2d565b810103126102565761166a916116f5849261224f565b909261162b565b503d6116d5565b61171b919250843d861161098d5761097e8183611e2d565b90876115f2565b90501515866115c1565b9091508681813d831161175c575b6117448183611e2d565b810103126102565761175590612242565b90876115ba565b503d61173a565b34610256576060366003190112610256576104d3611798611782611909565b61178a61191f565b611792611935565b9161451d565b6040519182916020835260208301906119f3565b34610256576080366003190112610256576117c5611909565b6117cd61191f565b906117d6611935565b906117df61194b565b6040516301ffc9a760e01b81526313e9760960e01b60048201526001600160a01b03909216929091602081602481875afa90811561046e5760009161187d575b501561047a5760006004936040519485809263f9776bcb60e01b82525afa93841561046e576104d394610bd99460009161185a575b506152ca565b61187791503d806000833e61186f8183611e2d565b81019061301e565b86611854565b90506020813d82116118ae575b8161189760209383611e2d565b81010312610256576118a890612242565b8561181f565b3d915061188a565b34610256576020366003190112610256576004359063ffffffff60e01b821680920361025657602091631a85d68360e01b81149081156118f8575b5015158152f35b6301ffc9a760e01b149050836118f1565b600435906001600160a01b038216820361025657565b602435906001600160a01b038216820361025657565b604435906001600160a01b038216820361025657565b60643590811515820361025657565b60005b83811061196d5750506000910152565b818101518382015260200161195d565b906020916119968151809281855285808601910161195a565b601f01601f1916010190565b9060018060a01b0382511681526080806119e06119ce602086015160a0602087015260a086019061197d565b6040860151858203604087015261197d565b9360608101516060850152015191015290565b90611a3990602080611a0e855160a0855260a08501906119a2565b9401519101906060809180518452602081015115156020850152604081015160408501520151910152565b90565b565b908060018060a01b03928381511682526020611a7c611a6a82840151610520808588015286019061197d565b604084015185820360408701526119a2565b946001600160801b039586606085015116606086015286608085015116608086015260a084015160a086015260c084015160c086015260e084015160e08601526101009081850151828701526101209081860151918782039088015281518082528582019186808360051b8301019401926000915b838310611c855750505050509085929161014090818701519185820390860152611b1a916119a2565b61016090818701519185820390860152611b33916119a2565b9761018080870151908501526101a080870151908501526101c08087015193845116908501528483015115156101e090818601528160408501516102009081880152606086015190610220918289015260808701519361024094858a015260a08801519661026097888b015260c089015198610280998a8c015260e08101516102a0809c015201516102c0809d01528a01516102e08d01611bfb9180518252602080820151818401526040918201518051838501529081015160608401520151608090910152565b89015180516103808d015260208101516103a08d0152604001516103c08c0152880151166103e08a0152860151166104008801528401511515610420870152830151151561044086015282015190815161046086015281015161048085015260408101516104a085015260608101516104c0850152608001516104e0840152015190610500015290565b919395969780809a9b50611ca76001939597601f1986820301875289516119f3565b97019301930190928a9998979695949293611af1565b602080820190808352835180925260408301928160408460051b8301019501936000915b848310611cf15750505050505090565b9091929394958480611d0f600193603f198682030187528a51611a3e565b9801930193019194939290611ce1565b606081019081106001600160401b03821117611d3a57604052565b634e487b7160e01b600052604160045260246000fd5b61018081019081106001600160401b03821117611d3a57604052565b604081019081106001600160401b03821117611d3a57604052565b60a081019081106001600160401b03821117611d3a57604052565b6102e081019081106001600160401b03821117611d3a57604052565b61012081019081106001600160401b03821117611d3a57604052565b61014081019081106001600160401b03821117611d3a57604052565b6101c081019081106001600160401b03821117611d3a57604052565b608081019081106001600160401b03821117611d3a57604052565b90601f801991011681019081106001600160401b03821117611d3a57604052565b6001600160401b038111611d3a57601f01601f191660200190565b81601f8201121561025657803590611e8082611e4e565b92611e8e6040519485611e2d565b8284526020838301011161025657816000926020809301838601378301015290565b6060906003190112610256576004356001600160a01b038116810361025657906024359060443590565b90815180825260208092019182818360051b85019501936000915b848310611f055750505050505090565b9091929394958480611f318385600195038752828b51805183520151906040908185820152019061197d565b9801930193019194939290611ef5565b90611a3991805182526020810151602083015260018060a01b03806040830151166040840152806060830151166060840152608082015160808401528060a08301511660a084015260c082015160c084015260e08201511660e083015261010080820151908301526101208082015190830152610140808201519083015261016080910151916101808092820152019061197d565b9181601f84011215610256578235916001600160401b038311610256576020808501948460051b01011161025657565b6060600319820112610256576004356001600160a01b0381168103610256579160243591604435906001600160401b0382116102565761204891600401611fd6565b9091565b908151815260209161206b838201516101408086860152840190611a3e565b60408281015184830385830152908201949091906000825b600282106120da575050505050606081015160608301526080810151608083015260a081015160a083015260c081015160c083015260e081015160e083015261010080820151908301526101208091015191015290565b909192939683806120f383886001950386528b516119a2565b99019201920190939291612083565b6080906003190112610256576001600160a01b039060043582811681036102565791602435908116810361025657906044359060643590565b929190604084016040855281518091526060850160608260051b870101916020809401916000905b85838310612175575050505050930152565b8061219060019394959697605f198d8203018652885161204c565b960192019201909291612163565b6001600160401b038111611d3a5760051b60200190565b81601f82011215610256578035916121cc8361219e565b926121da6040519485611e2d565b808452602092838086019260051b820101928311610256578301905b828210612204575050505090565b81356001600160a01b03811681036102565781529083019083016121f6565b6040519061223082611d1f565b60006040838281528260208201520152565b5190811515820361025657565b51906001600160a01b038216820361025657565b9092919261227081611e4e565b9161227e6040519384611e2d565b829482845282820111610256576020611a3c93019061195a565b9080601f83011215610256578151611a3992602001612263565b6020818303126102565780516001600160401b039182821161025657016101808184031261025657604051926122e784611d50565b81518452602082015160208501526123016040830161224f565b60408501526123126060830161224f565b60608501526080820151608085015261232d60a0830161224f565b60a085015260c082015160c085015261234860e0830161224f565b60e08501526101008083015190850152610120808301519085015261014080830151908501526101609283830151908111610256576123879201612298565b9082015290565b9060209081838203126102565782516001600160401b039384821161025657019080601f830112156102565781516123c58161219e565b946040906123d582519788611e2d565b828752858088019360051b8601019484861161025657868101935b86851061240257505050505050505090565b84518381116102565782019084601f1983890301126102565784519061242782611d6c565b89830151825285830151918583116102565761244a898c80969581960101612298565b838201528152019401936123f0565b60001981146108d35760010190565b9081602091031261025657516001600160a01b03811681036102565790565b805182101561249b5760209160051b010190565b634e487b7160e01b600052603260045260246000fd5b90816040910312610256576020604051916124cb83611d6c565b805183520151602082015290565b9035601e19823603018112156102565701602081359101916001600160401b03821161025657813603831361025657565b908060209392818452848401376000828201840152601f01601f1916010190565b9035603e1982360301811215610256570190565b9061255590949294606083526060830190611f41565b9360208201526040818503910152808352602083019260208260051b82010193836000925b84841061258a5750505050505090565b909192939495601f198282030184526125a3878461252b565b6040820190803583526020810135601e19823603018112156102565701916001600160401b0383351161025657823560051b91823603602085011361025657604060208395949301528235905260608084019184010192602083019260005b81358110612625575050505050602080600192980194019401929493919061257a565b909192939460208061267e600193605f198882030189526126488a84890161252b565b9061267161266761265984806124d9565b60408552604085019161250a565b92858101906124d9565b918581850391015261250a565b9701950193929101612602565b919082018092116108d357565b919082039182116108d357565b604080516301ffc9a760e01b81526306cc15a560e11b600480830191909152600096958794602494936020936001600160a01b03909216929084818881875afa90811561293357889161294c575b501561293d578451630d96c0f960e21b81529084828481875afa918215612933578892612900575b50818910156128f0578161272f828b61268b565b106128db57508761273f91612698565b945b61274a8661219e565b976127578651998a611e2d565b868952601f196127668861219e565b0185895b8a8c8483106128685750925050505b87811061278d575050505050505050509190565b612797818361268b565b8751906344ff7dc360e01b82528582015289818581895afa908115612844578a9161284e575b506127c8828c612487565b51526127d4818b612487565b515151875190631d40683560e31b82528582015289818581895afa908115612844579087838d61281b95948e8095612820575b50509061281391612487565b510152612459565b612779565b612813939295509061283b913d8091833e61121f8183611e2d565b9390918e612807565b88513d8c823e3d90fd5b61286291503d808c833e610aca8183611e2d565b386127bd565b8284918c519361287785611d6c565b8d51818f61288483611d50565b818352818784015282015260609180838301528060808301528060a08301528060c08301528060e083015280610100830152806101208301526101408201528161016082015285528385015201015201869061276a565b80969a506128ea91508861268b565b98612741565b5050505050505092505060609190565b9091508481813d831161292c575b6129188183611e2d565b810103126129285751903861271b565b8780fd5b503d61290e565b86513d8a823e3d90fd5b50835163044aa57560e41b8152fd5b90508481813d831161297a575b6129638183611e2d565b810103126129285761297490612242565b386126f3565b503d612959565b6040519061298e82611d87565b600060808382815260606020820152606060408201528260608201520152565b604051906129bb82611d1f565b81600081526000602082015260406129d1612223565b910152565b604051906129e382611d87565b60006080838281528260208201528260408201528260608201520152565b60405190612a0e82611da2565b6000808352606060208401526102c083612a26612981565b60408201528260608201528260808201528260a08201528260c08201528260e082015261010083818301526060610120830152612a61612981565b610140830152612a6f612981565b61016083015283610180830152836101a08301528360405191612a9183611dbe565b8183528160208401528160408401528160608401528160808401528160a08401528160c08401528160e08401528201526101c0820152612acf6129ae565b6101e0820152612add612223565b61020082015282610220820152826102408201528261026082015282610280820152612b076129d6565b6102a08201520152565b604090815191612b2083611dda565b82600091828252612b2f612a01565b9060209182840152805191612b4383611d6c565b845b828110612b805750509082916101209301528260608201528260808201528260a08201528260c08201528260e0820152826101008201520152565b8190612b8a612981565b8186015201612b45565b90612b9e8261219e565b612bab6040519182611e2d565b8281528092612bbc601f199161219e565b019060005b828110612bcd57505050565b602090612bd8612b11565b82828501015201612bc1565b604080516301ffc9a760e01b81526306cc15a560e11b600480830191909152600097969293928892602092916001600160a01b03808716929091908581602481875afa908115612e23578791612dea575b5080612ddf575b15612dcf57875163183ea23960e21b8152918916848301528482602481865afa918215612dc5578692612d92575b50818a1015612d815781612c7e828c61268b565b10612d6c575088612c8e91612698565b965b612c9988612b94565b98855b898110612cb157505050505050505050509190565b8086612cc0612cf1938561268b565b8b5163d64470e960e01b81526001600160a01b03871689820190815260208101929092529384918291604090910190565b0381885afa918215612d62578c908993612d2e575b50612d1e82612d18612d29958d6137f2565b92612487565b52610234818d612487565b612c9c565b80929350888092503d8311612d5b575b612d488183611e2d565b810103126129285751908b612d1e612d06565b503d612d3e565b8a513d8a823e3d90fd5b80989b50612d7b91508961268b565b99612c90565b505050505095505050505060609190565b9091508481813d8311612dbe575b612daa8183611e2d565b81010312612dba57519038612c6a565b8580fd5b503d612da0565b88513d88823e3d90fd5b875163044aa57560e41b81528490fd5b508189161515612c3c565b90508581813d8311612e1c575b612e018183611e2d565b81010312612e1857612e1290612242565b38612c35565b8680fd5b503d612df7565b89513d89823e3d90fd5b604080516301ffc9a760e01b81526306cc15a560e11b600480830191909152600097969293928892602092916001600160a01b03808716929091908581602481875afa908115612e23578791612fe9575b5080612fde575b15612dcf578751636bb1c52360e11b8152918916848301528482602481865afa918215612dc5578692612faf575b50818a1015612d815781612ec7828c61268b565b10612f9a575088612ed791612698565b965b612ee288612b94565b98855b898110612efa57505050505050505050509190565b8086612f09612f3a938561268b565b8b51632906d3a960e21b81526001600160a01b03871689820190815260208101929092529384918291604090910190565b0381885afa918215612d62578c908993612f66575b50612d1e82612d18612f61958d6137f2565b612ee5565b80929350888092503d8311612f93575b612f808183611e2d565b810103126129285751908b612d1e612f4f565b503d612f76565b80989b50612fa991508961268b565b99612ed9565b9091508481813d8311612fd7575b612fc78183611e2d565b81010312612dba57519038612eb3565b503d612fbd565b508189161515612e85565b90508581813d8311613017575b6130008183611e2d565b81010312612e185761301190612242565b38612e7e565b503d612ff6565b6020908181840312610256578051906001600160401b03821161025657019180601f840112156102565782516130538161219e565b936130616040519586611e2d565b818552838086019260051b820101928311610256578301905b828210613088575050505090565b8380916130948461224f565b81520191019061307a565b919081101561249b5760051b0190565b356001600160a01b03811681036102565790565b519069ffffffffffffffffffff8216820361025657565b604080516301ffc9a760e01b81526332ed0a6160e11b600480830191909152600096958794602494936020936001600160a01b03909216929084818881875afa908115612933578891613437575b501561293d5784516301f0b85b60e21b81529084828481875afa918215612933578892613408575b50818910156128f05781613164828b61268b565b106133f357508761317491612698565b945b61317f8661219e565b9761318c8651998a611e2d565b868952601f1961319b8861219e565b0185895b8a8c8483106133725750925050505b8781106131c2575050505050505050509190565b6131cc818361268b565b87519063dabe8a7160e01b82528582015289818581895afa908115612844578a91613250575b506131fd828c612487565b515261010061320c828c612487565b51510151875190635973af3960e01b82528582015289818581895afa908115612844579087838d61324b95948e80956128205750509061281391612487565b6131ae565b90503d808b833e6132618183611e2d565b8101878282031261336e5781516001600160401b039283821161336a5701906101c0828203126133665789519261329784611df6565b6132a08361224f565b84526132ad8a840161224f565b8a8501526132bc8b840161224f565b8b8501526060808401519085015260806132d781850161224f565b9085015260a0808401519085015260c06132f281850161224f565b9085015260e0808401519085015261010080840151908501526101208084015190850152610140613324818501612242565b90850152610160808401519085015261018080840151908501526101a0928381015191821161336257613358929101612298565b90820152386131f2565b8d80fd5b8b80fd5b8c80fd5b8a80fd5b8284918c519361338185611d6c565b8d51818f61338e83611df6565b818352818784015282015260609180838301528060808301528060a08301528060c08301528060e083015280610100830152806101208301528061014083015280610160830152610180820152816101a082015285528385015201015201869061319f565b80969a5061340291508861268b565b98613176565b9091508481813d8311613430575b6134208183611e2d565b8101031261292857519038613150565b503d613416565b90508481813d8311613465575b61344e8183611e2d565b810103126129285761345f90612242565b38613128565b503d613444565b604080516301ffc9a760e01b8082526306cc15a560e11b6004808401919091526001600160a01b03948516979395602095936024939190878186818e5afa908115613784576000916137bd575b50156137ad57875163eb02c30160e01b815283810182905293919060008584818e5afa94851561378457908b93929160009661378f575b50600090838b5180968193631d40683560e31b8352898301525afa92831561378457600093613769575b50825115613759578851600061352f82611d6c565b808252898201529a60005b8451811015613745578a51633f4a2d2760e01b81528a818881865afa9081156136de578991868e8e93600093613726575b50613576868b612487565b5151905194859384926352ff146960e11b84528d840152165afa9081156136de578991868e8e936000936136e9575b5051878152632b49a35560e11b8b8201529384928391165afa9081156136de576000916136a9575b506135e0576135db90612459565b61353a565b899a9b9c5061362c935061361092508991506135ff9060009695612487565b5101518880825183010191016124b1565b519589519a8b978896879563683b00d760e01b8752860161253f565b03927f0000000000000000000000000000000000000000000000000000000000000000165af191821561369f5750600091613668575b50905090565b82813d8311613698575b61367c8183611e2d565b81010312613695575061368e90612242565b8038613662565b80fd5b503d613672565b513d6000823e3d90fd5b908b82813d83116136d7575b6136bf8183611e2d565b8101031261369557506136d190612242565b386135cd565b503d6136b5565b8c513d6000823e3d90fd5b945050509082813d831161371f575b6137028183611e2d565b8101031261369557508a8c866137188c9461224f565b91386135a5565b503d6136f8565b61373e919350843d861161098d5761097e8183611e2d565b913861356b565b505050505060009061362c86979899613610565b5050505050505050505050600090565b61377d91933d8091833e61121f8183611e2d565b913861351a565b89513d6000823e3d90fd5b6137a690600092973d8091833e610aca8183611e2d565b95906134f0565b875163044aa57560e41b81528390fd5b908882813d83116137eb575b6137d38183611e2d565b8101031261369557506137e590612242565b386134b9565b503d6137c9565b906137fb612b11565b506040516301ffc9a760e01b81526306cc15a560e11b60048083019190915292906020816024816001600160a01b0386165afa90811561046e57600091613c2c575b5015613c1b5760405163eb02c30160e01b81528381018390526000816024816001600160a01b0386165afa90811561046e57600091613c02575b50604081810180519151632f60fad360e21b815286810186905290936001600160a01b0392831615926020908390602490829085165afa91821561046e57600092613bce575b506138c6612a01565b948315613ba8575b50604051631d40683560e31b81528781018790526000816024816001600160a01b0386165afa90811561046e57600091613b8f575b50604051600061391282611d6c565b80825260208201529760005b8251811015613b8157604051633f4a2d2760e01b815260208184816001600160a01b0389165afa90811561046e57600091613b62575b5060206139618386612487565b51516040516352ff146960e11b81528581019190915291829060249082906001600160a01b03165afa90811561046e57600091613b23575b506040516301ffc9a760e01b8152632b49a35560e11b8482015290602090829060249082906001600160a01b03165afa90811561046e57600091613ae9575b5080613ad1575b6139f1576139ec90612459565b61391e565b613a099394959697989950610f6a9150602092612487565b613a7385519760405195613a1c87611d6c565b15613ac757606087015160e0880151613a41916001600160a01b039182169116613fd6565b865260a087015160e0880151613a63916001600160a01b039182169116613fd6565b602087015260c087015193615677565b602082015191519260808701519561012080980151986040519a613a968c611dda565b8b5260208b015260408a01526060890152608088015260a087015260c086015260e085015261010084015282015290565b6040880151613a41565b506020613ade8285612487565b5101515115156139df565b906020823d602011613b1b575b81613b0360209383611e2d565b810103126136955750613b1590612242565b386139d8565b3d9150613af6565b906020823d602011613b5a575b81613b3d60209383611e2d565b8101031261369557506020613b5360249261224f565b9150613999565b3d9150613b30565b613b7b915060203d60201161098d5761097e8183611e2d565b38613954565b505050909192939495613a09565b613ba2913d8091833e61121f8183611e2d565b38613903565b5160e0850151919550613bc7916001600160a01b03908116911661460e565b93386138ce565b90916020823d602011613bfa575b81613be960209383611e2d565b8101031261369557505190386138bd565b3d9150613bdc565b613c15913d8091833e610aca8183611e2d565b38613877565b60405163044aa57560e41b81528390fd5b906020823d602011613c5e575b81613c4660209383611e2d565b810103126136955750613c5890612242565b3861383d565b3d9150613c39565b604080516301ffc9a760e01b8082526306cc15a560e11b6004808401919091526001600160a01b0394851695939460209492939092602491868184818c5afa908115613f3557600091613f6b575b5015613f5b57865163eb02c30160e01b81528381018290529460008684818c5afa958615613f3557600096613f40575b50875191631d40683560e31b83528483015260008284818c5afa918215613f3557600092613f1a575b50815115613f0c5787516000613d2282611d6c565b808252888201529860005b8351811015613ef8578951633f4a2d2760e01b815289818881865afa908115613e985788918b91600091613edb575b50878d613d69868a612487565b5151905194859384926352ff146960e11b84528d840152165afa908115613e985788918b91600091613ea3575b50878d5180948193898352632b49a35560e11b8d840152165afa908115613e9857600091613e63575b50613dd257613dcd90612459565b613d2d565b613e249a5089949250888098979694819350613e0292613df191612487565b5101518280825183010191016124b1565b01518351998a9687958695631ade716160e31b87528601526044850190611f41565b9183015203917f0000000000000000000000000000000000000000000000000000000000000000165afa91821561369f57506000916136685750905090565b908a82813d8311613e91575b613e798183611e2d565b810103126136955750613e8b90612242565b38613dbf565b503d613e6f565b8b513d6000823e3d90fd5b92509082813d8111613ed4575b613eba8183611e2d565b81010312613695575089613ece899261224f565b38613d96565b503d613eb0565b613ef29150823d841161098d5761097e8183611e2d565b38613d5c565b5050505084939291869185613e2499613e02565b505050505050505050600090565b613f2e91923d8091833e61121f8183611e2d565b9038613d0d565b88513d6000823e3d90fd5b613f5491963d8091833e610aca8183611e2d565b9438613ce4565b865163044aa57560e41b81528390fd5b908782813d8311613f99575b613f818183611e2d565b810103126136955750613f9390612242565b38613cb4565b503d613f77565b602081830312610256578051906001600160401b03821161025657019080601f83011215610256578151611a3992602001612263565b9190613fe0612981565b506001600160a01b0392831690811561047a57604080516395d89b4160e01b8152600095918682600481885afa9182156141a1578792614185575b5080516306fdde0360e01b8152918783600481895afa92831561417b578893614157575b5081519363313ce56760e01b855260209586866004818b5afa95861561414d578a96614110575b50168015614103578251906370a0823160e01b8252600482015285816024818a5afa9081156140f95789916140c2575b5060ff9596979850955b8251976140ac89611d87565b8852870152850152166060830152608082015290565b90508581813d83116140f2575b6140d98183611e2d565b810103126140ee5751969750879660ff614096565b8880fd5b503d6140cf565b83513d8b823e3d90fd5b5060ff94959697956140a0565b9095508681813d8311614146575b6141288183611e2d565b81010312614142575160ff81168103614142579438614066565b8980fd5b503d61411e565b84513d8c823e3d90fd5b6141749193503d808a833e61416c8183611e2d565b810190613fa0565b913861403f565b82513d8a823e3d90fd5b61419a9192503d8089833e61416c8183611e2d565b903861401b565b81513d89823e3d90fd5b604051906141b882611e12565b60006060838281528260208201528260408201520152565b91906141da6141ab565b50604080516301ffc9a760e01b815263cad9e0d360e01b6004808301919091526001600160a01b039586169291602091908281602481885afa9081156143ec576000916144c6575b50806144bb575b156144ad578251631e46e62f60e21b815282818381885afa9081156143ec578891849160009161446d575b50838651809b8193632630c12f60e01b8352165afa9788156143ec5760009861444e575b50835163011ddaef60e71b815283818481895afa9081156144435796809899838087946142e29a9b600091614426575b508951634858138f60e01b81526001600160a01b039586168982019081529190931694909416602085015290988993849291839160400190565b0392165afa9485156143ec576000956143f7575b50835163a4c1cccb60e01b815296168187018190528387602481895afa9182156143ec5760009788936143a9575b5090602484928651988993849263235f17f560e01b84528301525afa94851561439e5760009561436f575b5082519561435c87611e12565b8652151590850152830152606082015290565b90948282813d8311614397575b6143868183611e2d565b81010312613695575051933861434f565b503d61437c565b83513d6000823e3d90fd5b979092508488813d83116143e5575b6143c28183611e2d565b810103126136955750829060246143dc838a519a01612242565b93919250614324565b503d6143b8565b84513d6000823e3d90fd5b90948382813d831161441f575b61440e8183611e2d565b8101031261369557505193386142f6565b503d614404565b61443d9150863d881161098d5761097e8183611e2d565b386142a8565b85513d6000823e3d90fd5b614466919850833d851161098d5761097e8183611e2d565b9638614278565b8281939294503d83116144a6575b6144858183611e2d565b810103126144a25751908882168203613695575082889138614254565b5080fd5b503d61447b565b825163044aa57560e41b8152fd5b508685161515614229565b908382813d83116144f4575b6144dc8183611e2d565b8101031261369557506144ee90612242565b38614222565b503d6144d2565b6040519061450882611d6c565b81614511612981565b815260206129d16141ab565b919061453561453b9261452e6144fb565b5082613fd6565b926141d0565b6040519161454883611d6c565b8252602082015290565b90918251916145608361219e565b9361456e6040519586611e2d565b838552601f1961457d8561219e565b0160005b8181106145d857505060005b84811061459c57505050505090565b6145d3906145be856001600160a01b036145b68487612487565b51168661451d565b6145c88289612487565b526102348188612487565b61458d565b6020906145e36144fb565b82828a01015201614581565b9081602091031261025657516001600160801b03811681036102565790565b614616612a01565b506040516301ffc9a760e01b815263cad9e0d360e01b60048201526020816024816001600160a01b0386165afa90811561046e576000916150d3575b501561047a57604051637437535960e01b8152916020836004816001600160a01b0386165afa92831561046e5760009361509f575b50604051631f1b131360e31b8152916020836004816001600160a01b0385165afa92831561046e57600493602091600091615082575b506040516318160ddd60e01b815294859182906001600160a01b03165afa92831561046e5760009361504e575b506146f5848461268b565b6000811561504857506b033b2e3c9fd0803ce8000000808502908582048114861517156108d357859082040361091d5781610824614737928260011c9061589e565b935b604051630783377560e51b81526000816004816001600160a01b0388165afa90811561046e5761477491869160009161502f575b5085614552565b604051634c66358f60e11b815295610120876004816001600160a01b0389165afa96871561046e57600097614f7e575b506040516307c0e8c160e31b81526020816004816001600160a01b038a165afa90811561046e57600091614f3b575b5060405163ddce491760e01b81526001600160a01b038781166004830152909160a09183916024918391165afa801561046e576000608052614ecb575b506040516306fdde0360e01b81526000816004816001600160a01b038a165afa801561046e57600061010052614ead575b5060405163011ddaef60e71b81526020816004816001600160a01b038a165afa90811561046e57614885918891600091614e4b575b506001600160a01b0316613fd6565b60a052604051637f5d87bf60e11b81526020816004816001600160a01b038a165afa801561046e5760006101c052614e8b575b5060405163905e383760e01b8152976020896004816001600160a01b038a165afa98891561046e57600099614e6a575b506040516358a06f0760e01b81526020816004816001600160a01b038b165afa90811561046e5761492b918991600091614e4b57506001600160a01b0316613fd6565b604051631f1b131360e31b81529094906020816004816001600160a01b038c165afa90811561046e57614970918a91600091614e4b57506001600160a01b0316613fd6565b60405163280188b760e21b8152979096906020896004816001600160a01b0385165afa98891561046e57600099614e17575b5060405163a223f82160e01b81529960208b6004816001600160a01b0386165afa9a8b1561046e5760009b614de3575b508b516040516306fdde0360e01b815291906001600160a01b03908116906000908490600490829088165afa90811561046e57614a1793600092614dc8575b5061510d565b8b516040516306fdde0360e01b8152919d91906001600160a01b03908116906000908390600490829088165afa90811561046e57614a5d92600092614dad575b50615210565b60c052604051635ea24eef60e11b81526020816004816001600160a01b0387165afa801561046e5760006101e052614d8b575b506040516327c37b2560e01b81526020816004816001600160a01b0387165afa801561046e57600061022052614d59575b50604051630c71782360e41b81526020816004816001600160a01b0387165afa806101a0521561046e576000610200526101a051614d16575b50604051610160818152634ad09aa560e01b909152516020906004816001600160a01b0386165afa80610140521561046e5760006102405261014051614cce575b6040516101808181526371a6cab760e01b909152516020906004816001600160a01b0386165afa80610120521561046e5760006102605261012051614c8b575b6001600160801b0391614b936040518060e052611da2565b60018060a01b031660e0515261010051602060e051015260a051604060e0510152816101c05116606060e051015216608060e051015260a060e051015260c060e051015260e08051015261010060e051015261012060e051015261014060e051015261016060e051015261018060e05101526101a060e05101526101c060e05101526101e060e051015260c05161020060e05101526001600160801b036101e0511661022060e05101526001600160801b03610220511661024060e051015261020051151561026060e051015261024051151561028060e05101526080516102a060e0510152610260516102c060e051015260e05190565b6020913d602011614cc6575b614ca48361018051611e2d565b602061018051809481010312614cbf57915161026052614b7b565b6102605180fd5b3d9250614c97565b60203d602011614d0f575b614ce68161016051611e2d565b602061016051809281010312614d0857614cff90612242565b61024052614b3b565b6102405180fd5b503d614cd9565b6020813d602011614d51575b81614d2f60209383611e2d565b81010312614d4a57614d4090612242565b6102005238614afa565b6102005180fd5b3d9150614d22565b614d7a9060203d602011614d84575b614d728183611e2d565b8101906145ef565b6102205238614ac1565b503d614d68565b614da39060203d602011614d8457614d728183611e2d565b6101e05238614a90565b614dc191923d8091833e61416c8183611e2d565b9038614a57565b614ddc91923d8091833e61416c8183611e2d565b9038614a11565b909a6020823d602011614e0f575b81614dfe60209383611e2d565b8101031261369557505199386149d2565b3d9150614df1565b90986020823d602011614e43575b81614e3260209383611e2d565b8101031261369557505197386149a2565b3d9150614e25565b614e64915060203d60201161098d5761097e8183611e2d565b38614876565b614e8491995060203d602011614d8457614d728183611e2d565b97386148e8565b614ea39060203d602011614d8457614d728183611e2d565b6101c052386148b8565b614ec1903d806000833e61416c8183611e2d565b6101005238614841565b60a0813d60a011614f33575b81614ee460a09383611e2d565b81010312614f2d57608060405191614efb83611d87565b805183526020810151602084015260408101516040840152606081015160608401520151608082015260805238614810565b60805180fd5b3d9150614ed7565b6020813d602011614f76575b81614f5460209383611e2d565b810103126144a25751906001600160a01b0382168203613695575060a06147d3565b3d9150614f47565b610120979197813d61012011615027575b81614f9d6101209383611e2d565b810103126144a25760405191614fb283611dbe565b8151906001600160a01b038216820361369557508252614fd460208201612242565b602083015260408101516040830152606081015160608301526080810151608083015260a081015160a083015260c081015160c083015260e081015160e0830152610100809101519082015295386147a4565b3d9150614f8f565b615042913d8091833e61186f8183611e2d565b3861476d565b93614739565b90926020823d60201161507a575b8161506960209383611e2d565b8101031261369557505191386146ea565b3d915061505c565b6150999150823d841161098d5761097e8183611e2d565b386146bd565b90926020823d6020116150cb575b816150ba60209383611e2d565b810103126136955750519138614687565b3d91506150ad565b906020823d602011615105575b816150ed60209383611e2d565b8101031261369557506150ff90612242565b38614652565b3d91506150e0565b916151166129ae565b5061511f6129ae565b926001600160a01b039081169081156152095760a09161515f6040958651958694859384936311ddedf160e01b855260606004860152606485019061197d565b9116602483015242604483015203915afa80156151fe5760009283928492615190575b508401526020830152815290565b925090508160a03d81116151f7575b6151a98183611e2d565b8101039260a08412613695578251906060602085015195603f190112613695575060808251936151d885611d1f565b8381015185526060810151602086015201518284015292919038615182565b503d61519f565b82513d6000823e3d90fd5b5050505090565b90615219612223565b50615222612223565b916001600160a01b031680156152c55761525c91606091604051808095819463230fa49560e21b835260206004840152602483019061197d565b03915afa90811561046e5760009182918391615283575b5060408401526020830152815290565b929150506060823d82116152bd575b8161529f60609383611e2d565b81010312613695575080516040602083015192015190919038615273565b3d9150615292565b505090565b919060018060a01b03809216926040948551946301ffc9a760e01b865260046306cc15a560e11b81880152602060249781818a81875afa90811561566c57600091615637575b501561562857600095865b86518110156155a6578861532f8289612487565b518c51633f4a2d2760e01b81529116848287818a5afa9182156154db57600092615587575b508c516306fdde0360e01b8152906000828881845afa918215615561578c8f8f9260009561556c575b50519485809263481d98fb60e11b82528a8c830152816153a3608098899783019061197d565b0392165afa928315615561576000928394615519575b505088928915615426575b50508161540d575b506153e0575b6153db90612459565b61531b565b966154056153db918a6153f38b8b612487565b51166153ff828b612487565b52612459565b9790506153d2565b9050898061541b848b612487565b5116911614386153cc565b90919250600381101561550557858e926002899314938461544f575b50505050159038806153c4565b516358a06f0760e01b815293509091839182905afa9081156154db578b918d8f88936000936154e6575b50516370a0823160e01b81528785168a8201529384928391165afa9081156154db576000916154ae575b50158585388f615442565b908582813d83116154d4575b6154c48183611e2d565b81010312613695575051386154a3565b503d6154ba565b8d513d6000823e3d90fd5b6154fe919350843d861161098d5761097e8183611e2d565b9138615479565b8c602188634e487b7160e01b600052526000fd5b9080929450813d831161555a575b6155318183611e2d565b810103126144a257856155438261224f565b9101519160038310156136955750909138806153b9565b503d615527565b8e513d6000823e3d90fd5b61558091953d8091833e61416c8183611e2d565b933861537d565b61559f919250853d871161098d5761097e8183611e2d565b9038615354565b5096959750925050506155c46155bb8661219e565b96519687611e2d565b848652601f196155d38661219e565b0160005b8181106156125750505060005b8481106155f357505050505090565b806145be858561560661560d9587612487565b511661460e565b6155e4565b829061561c612a01565b82828b010152016155d7565b50875163044aa57560e41b8152fd5b908282813d8311615665575b61564d8183611e2d565b81010312613695575061565f90612242565b38615310565b503d615643565b8a513d6000823e3d90fd5b604080516301ffc9a760e01b81526306cc15a560e11b60048201526001600160a01b03928316939192602092918381602481895afa9081156144435760009161582d575b501561581c57835163eb02c30160e01b81526004810183905291600083602481895afa92831561444357600093615801575b5083830151156157f65783906024865180988193632f60fad360e21b835260048301525afa9485156143ec576000956157c7575b508382015160a083015160c0909301518551630500ad0b60e41b81526001600160a01b0392841683166004820152939092161660248301526044820152606481019390935280838060848101038173__$75df3f6366b0557754cd3ba14359105414$__5af491821561369f575060009161579b5750905090565b82813d83116157c0575b6157af8183611e2d565b810103126136955750518038613662565b503d6157a5565b90948382813d83116157ef575b6157de8183611e2d565b810103126136955750519382615721565b503d6157d4565b505050505050600090565b61581591933d8091833e610aca8183611e2d565b91386156ed565b835163044aa57560e41b8152600490fd5b908482813d831161585b575b6158438183611e2d565b81010312613695575061585590612242565b386156bb565b503d615839565b811561586c570490565b634e487b7160e01b600052601260045260246000fd5b906706f05b59d3b200008201918281116108d35782106108c157565b91906158aa908361268b565b9182106108c157565b6000929180159182156158ca575b50501561091d57565b808202945091508115828504821417156108d3576158e89084615862565b1438806158c156fea264697066735822122065afa564969e5a9698e65677a4c96b77281bf453cc5341f295b054f2d93bd2b964736f6c63430008120033",
  "libraries": {
    "PrimexPricingLibrary": "0x18f61d94ab3B2d8BCdc2cc70968503A447cc31cC",
    "PositionLibrary": "0x1E4c090B2b4B5b1fB9c3e361Cb4B18552148B58f",
    "LimitOrderLibrary": "0xe73e5076bf0145fC5e4dC2B35d87D181026Cb02c",
    "Errors": "0x988288925196F0725268378d0C7c8aA0E50EB423"
  },
  "devdoc": {
    "details": "All functions in this contract are intended to be called off-chain. Do not call functions from other contracts to avoid an out-of-gas error.",
    "kind": "dev",
    "methods": {
      "getAllBucketsFactory(address,address,address,bool)": {
        "params": {
          "_bucketFactory": "The address of the BucketFactory contract.",
          "_positionManager": "The address of the PositionManager contract.",
          "_showDeprecated": "A boolean flag indicating whether to include deprecated buckets in the result.",
          "_trader": "The address of the trader for whom the buckets are retrieved."
        },
        "returns": {
          "_0": "An array of BucketMetaData structs representing the bucket metadata."
        }
      },
      "getArrayOpenPositionDataByBucket(address,address,uint256,uint256)": {
        "params": {
          "_bucket": "The address of the bucket positions are related to",
          "_count": "The number of positions to retrieve.",
          "_cursor": "The cursor value for pagination.",
          "_positionManager": "The address of the PositionManager where the positions is stored"
        }
      },
      "getArrayOpenPositionDataByTrader(address,address,uint256,uint256)": {
        "params": {
          "_count": "The number of positions to retrieve.",
          "_cursor": "The cursor value for pagination.",
          "_positionManager": "The address of the PositionManager where the positions is stored",
          "_trader": "The address, information about all positions of which will be displayed"
        }
      },
      "getAssetMetadata(address,address)": {
        "params": {
          "_asset": "The address of the asset to retrieve metadata for.",
          "_bucket": "The address of the Bucket contract."
        },
        "returns": {
          "_0": "metadata The metadata of the asset within the bucket."
        }
      },
      "getBucket(address,address)": {
        "params": {
          "_bucket": "The address of the Bucket contract.",
          "_trader": "The address of the trader."
        },
        "returns": {
          "_0": "The metadata of the bucket."
        }
      },
      "getBucketsArray(address[],address,address,bool)": {
        "params": {
          "_buckets": "The array of bucket addresses.",
          "_positionManager": "The address of the PositionManager contract.",
          "_showDeprecated": "Flag to determine whether deprecated buckets should be included.",
          "_trader": "The address of the trader."
        },
        "returns": {
          "_0": "An array of `BucketMetaData` objects."
        }
      },
      "getChainlinkLatestRoundData(address[])": {
        "params": {
          "_feeds": "An array of feed addresses."
        },
        "returns": {
          "_0": "res An array of RoundData structs containing the latest round data for each feed."
        }
      },
      "getLMBucketInfo(address,string)": {
        "params": {
          "_bucketName": "The name of the liquidity mining bucket.",
          "liquidityMiningRewardDistributor": "The instance of the LiquidityMiningRewardDistributor contract."
        },
        "returns": {
          "_0": "info The liquidity mining bucket information."
        }
      },
      "getLenderInfo(address,string,address)": {
        "params": {
          "bucketName": "The name of the lending bucket.",
          "liquidityMiningRewardDistributor": "The instance of the LiquidityMiningRewardDistributor contract.",
          "user": "The address of the lender."
        },
        "returns": {
          "_0": "info The lender information."
        }
      },
      "getLimitOrdersWithConditions(address,uint256,uint256)": {
        "params": {
          "_count": "The number of positions to retrieve.",
          "_cursor": "The cursor value for pagination.",
          "_limitOrderManager": "The address of the LimitOrderManager where the order is stored."
        },
        "returns": {
          "limitOrdersWithConditions": "limitOrderWithConditions An array of LimitOrderWithConditions structs representing open positions with conditions.",
          "newCursor": "The new cursor value for pagination."
        }
      },
      "getLiquidationPrice(address,string,uint256,address,uint256)": {
        "details": "The liquidation price is the price at which a position can be liquidated (i.e., its collateral can cover the borrowed amount).",
        "params": {
          "_borrowedAmount": "The amount borrowed in the position.",
          "_bucket": "The name of the bucket associated with the position.",
          "_positionAmount": "The amount of the asset held in the position.",
          "_positionAsset": "The address of the asset held in the position.",
          "_positionManager": "The address of the PositionManager contract."
        },
        "returns": {
          "_0": "The liquidation price in borrowed asset for the position."
        }
      },
      "getLiquidationPrice(address,uint256)": {
        "params": {
          "_id": "The ID of the position.",
          "_positionManager": "The address of the PositionManager contract."
        },
        "returns": {
          "_0": "The liquidation price in borrowed asset of the position."
        }
      },
      "getOpenPositionData(address,uint256)": {
        "params": {
          "_id": "Position id to show the parameters position",
          "_positionManager": "The address of the PositionManager where the position is stored"
        },
        "returns": {
          "_0": "openPositionData The open position data including various details."
        }
      },
      "getOpenPositionsWithConditions(address,uint256,uint256)": {
        "params": {
          "_count": "The number of positions to retrieve.",
          "_cursor": "The cursor value for pagination.",
          "_positionManager": "The address of the PositionManager where the position is stored."
        },
        "returns": {
          "newCursor": "The new cursor value for pagination.",
          "openPositionsWithConditions": "openPositionsWithConditionsArray An array of OpenPositionWithConditions structs representing open positions with conditions."
        }
      },
      "getPositionMaxDecrease(address,uint256)": {
        "details": "maxDecrease = (1 - securityBuffer) * (1 - oracleTolerableLimit) * (1 - pricedrop) * borrowedAssetAmountOut / (feeBuffer * (1 + maintenanceBuffer)) - position.bucket.getNormalizedVariableDebt() * position.scaledDebtAmount",
        "params": {
          "_id": "The ID of the position.",
          "_pm": "The instance of the PositionManager contract."
        },
        "returns": {
          "_0": "The maximum decrease in position value."
        }
      },
      "getPositionStatus(address,uint256,(uint256,(string,bytes)[])[])": {
        "params": {
          "_id": "Position id to show the parameters position",
          "_positionManager": "The address of the PositionManager where the position is stored",
          "_routes": "An array of route objects representing the pricing routes."
        },
        "returns": {
          "_0": "positionStatus The status of the position."
        }
      },
      "getSupportedAsset(address,address,address)": {
        "params": {
          "_asset": "The address of the asset for which information is requested.",
          "_bucket": "The address of the Bucket where the asset is supported.",
          "_trader": "The address of the Trader requesting the information."
        },
        "returns": {
          "_0": "supportedAsset The SupportedAsset struct containing the asset and its properties."
        }
      },
      "getSupportedAssetArray(address,address[],address)": {
        "params": {
          "_assets": "An array of asset addresses.",
          "_bucket": "The address of the Bucket.",
          "_trader": "The address of the trader."
        },
        "returns": {
          "_0": "res An array of SupportedAsset structs representing the supported assets."
        }
      },
      "getTokenArrayMetadata(address[],address)": {
        "params": {
          "_tokens": "The array of token addresses.",
          "_trader": "The address of the trader."
        },
        "returns": {
          "_0": "res The array of token metadata."
        }
      },
      "getTokenMetadata(address,address)": {
        "params": {
          "_token": "The address of the token.",
          "_trader": "The address of the trader."
        },
        "returns": {
          "_0": "metadata The metadata of the token."
        }
      },
      "isStopLossReached(address,uint256)": {
        "params": {
          "_id": "The ID of the position to check.",
          "_positionManager": "The address of the PositionManager contract."
        },
        "returns": {
          "_0": "A boolean indicating whether the stop loss condition is reached."
        }
      },
      "isTakeProfitReached(address,uint256,(uint256,(string,bytes)[])[])": {
        "params": {
          "_id": "The ID of the position to check.",
          "_positionManager": "The address of the PositionManager contract.",
          "_routes": "The routes for pricing the position."
        },
        "returns": {
          "_0": "A boolean indicating whether the take profit condition is reached."
        }
      },
      "supportsInterface(bytes4)": {
        "params": {
          "interfaceId": "The interface id to check"
        }
      }
    },
    "version": 1
  },
  "userdoc": {
    "kind": "user",
    "methods": {
      "getAllBucketsFactory(address,address,address,bool)": {
        "notice": "Retrieves all bucket metadata from a bucket factory contract."
      },
      "getArrayOpenPositionDataByBucket(address,address,uint256,uint256)": {
        "notice": "The function shows the parameters for all open positions of the `_trader` with the best dex for each position"
      },
      "getArrayOpenPositionDataByTrader(address,address,uint256,uint256)": {
        "notice": "The function shows the parameters for all open positions of the `_trader` with the best dex for each position"
      },
      "getAssetMetadata(address,address)": {
        "notice": "Retrieves the metadata of an asset within a bucket."
      },
      "getBucket(address,address)": {
        "notice": "Retrieves the metadata of a bucket."
      },
      "getBucketsArray(address[],address,address,bool)": {
        "notice": "Retrieves an array of `BucketMetaData` for the given `_user`."
      },
      "getChainlinkLatestRoundData(address[])": {
        "notice": "Retrieves the latest round data for multiple Chainlink feeds."
      },
      "getLMBucketInfo(address,string)": {
        "notice": "Retrieves information about a liquidity mining bucket."
      },
      "getLenderInfo(address,string,address)": {
        "notice": "Retrieves information about a lender from the LiquidityMiningRewardDistributor contract."
      },
      "getLimitOrdersWithConditions(address,uint256,uint256)": {
        "notice": "The function returns the limit orders with corresponding conditions"
      },
      "getLiquidationPrice(address,string,uint256,address,uint256)": {
        "notice": "Calculates the liquidation price for a given position."
      },
      "getLiquidationPrice(address,uint256)": {
        "notice": "Retrieves the liquidation price of a position."
      },
      "getOpenPositionData(address,uint256)": {
        "notice": "Retrieves open position data based on the provided position manager and id."
      },
      "getOpenPositionsWithConditions(address,uint256,uint256)": {
        "notice": "The function returns the positions with corresponding conditions."
      },
      "getPositionMaxDecrease(address,uint256)": {
        "notice": "Retrieves the maximum decrease in position value for a given position ID."
      },
      "getPositionStatus(address,uint256,(uint256,(string,bytes)[])[])": {
        "notice": "Retrieves the status of a position."
      },
      "getSupportedAsset(address,address,address)": {
        "notice": "Retrieves information about a supported asset."
      },
      "getSupportedAssetArray(address,address[],address)": {
        "notice": "Retrieves an array of SupportedAsset structs for the given bucket, assets, and trader."
      },
      "getTokenArrayMetadata(address[],address)": {
        "notice": "Retrieves the metadata of an array of tokens for a given trader."
      },
      "getTokenMetadata(address,address)": {
        "notice": "Retrieves the metadata of a token for a given trader."
      },
      "isStopLossReached(address,uint256)": {
        "notice": "Checks if the stop loss condition of a position is reached."
      },
      "isTakeProfitReached(address,uint256,(uint256,(string,bytes)[])[])": {
        "notice": "Checks if the take profit condition is reached for a given position."
      },
      "supportsInterface(bytes4)": {
        "notice": "Interface checker"
      }
    },
    "version": 1
  },
  "storageLayout": {
    "storage": [],
    "types": null
  }
}