{
  "address": "0x044644eCF9EC5A9DD99D0ffbA4f15043a3CeBEcD",
  "abi": [
    {
      "inputs": [
        {
          "internalType": "address",
          "name": "_takeProfitStopLossCCM",
          "type": "address"
        }
      ],
      "stateMutability": "nonpayable",
      "type": "constructor"
    },
    {
      "inputs": [],
      "name": "DS_MATH_ADD_OVERFLOW",
      "type": "error"
    },
    {
      "inputs": [],
      "name": "DS_MATH_MUL_OVERFLOW",
      "type": "error"
    },
    {
      "inputs": [
        {
          "internalType": "address[]",
          "name": "_bucketFactories",
          "type": "address[]"
        },
        {
          "internalType": "address",
          "name": "_user",
          "type": "address"
        },
        {
          "internalType": "address",
          "name": "_positionManager",
          "type": "address"
        },
        {
          "internalType": "bool",
          "name": "_showDeprecated",
          "type": "bool"
        }
      ],
      "name": "getAllBucketsFactory",
      "outputs": [
        {
          "components": [
            {
              "internalType": "address",
              "name": "bucketAddress",
              "type": "address"
            },
            {
              "internalType": "string",
              "name": "name",
              "type": "string"
            },
            {
              "components": [
                {
                  "internalType": "address",
                  "name": "tokenAddress",
                  "type": "address"
                },
                {
                  "internalType": "string",
                  "name": "symbol",
                  "type": "string"
                },
                {
                  "internalType": "string",
                  "name": "name",
                  "type": "string"
                },
                {
                  "internalType": "uint256",
                  "name": "decimals",
                  "type": "uint256"
                },
                {
                  "internalType": "uint256",
                  "name": "balance",
                  "type": "uint256"
                }
              ],
              "internalType": "struct IPrimexLens.TokenMetadata",
              "name": "asset",
              "type": "tuple"
            },
            {
              "internalType": "uint128",
              "name": "bar",
              "type": "uint128"
            },
            {
              "internalType": "uint128",
              "name": "lar",
              "type": "uint128"
            },
            {
              "internalType": "uint256",
              "name": "supply",
              "type": "uint256"
            },
            {
              "internalType": "uint256",
              "name": "demand",
              "type": "uint256"
            },
            {
              "internalType": "uint256",
              "name": "availableLiquidity",
              "type": "uint256"
            },
            {
              "internalType": "uint256",
              "name": "utilizationRatio",
              "type": "uint256"
            },
            {
              "components": [
                {
                  "components": [
                    {
                      "internalType": "address",
                      "name": "tokenAddress",
                      "type": "address"
                    },
                    {
                      "internalType": "string",
                      "name": "symbol",
                      "type": "string"
                    },
                    {
                      "internalType": "string",
                      "name": "name",
                      "type": "string"
                    },
                    {
                      "internalType": "uint256",
                      "name": "decimals",
                      "type": "uint256"
                    },
                    {
                      "internalType": "uint256",
                      "name": "balance",
                      "type": "uint256"
                    }
                  ],
                  "internalType": "struct IPrimexLens.TokenMetadata",
                  "name": "asset",
                  "type": "tuple"
                },
                {
                  "components": [
                    {
                      "internalType": "uint256",
                      "name": "id",
                      "type": "uint256"
                    },
                    {
                      "internalType": "bool",
                      "name": "isSupported",
                      "type": "bool"
                    },
                    {
                      "internalType": "uint256",
                      "name": "pairPriceDrop",
                      "type": "uint256"
                    },
                    {
                      "internalType": "uint256",
                      "name": "maxLeverage",
                      "type": "uint256"
                    }
                  ],
                  "internalType": "struct IPrimexLens.BucketTokenMetadata",
                  "name": "properties",
                  "type": "tuple"
                }
              ],
              "internalType": "struct IPrimexLens.SupportedAsset[]",
              "name": "supportedAssets",
              "type": "tuple[]"
            },
            {
              "components": [
                {
                  "internalType": "address",
                  "name": "tokenAddress",
                  "type": "address"
                },
                {
                  "internalType": "string",
                  "name": "symbol",
                  "type": "string"
                },
                {
                  "internalType": "string",
                  "name": "name",
                  "type": "string"
                },
                {
                  "internalType": "uint256",
                  "name": "decimals",
                  "type": "uint256"
                },
                {
                  "internalType": "uint256",
                  "name": "balance",
                  "type": "uint256"
                }
              ],
              "internalType": "struct IPrimexLens.TokenMetadata",
              "name": "pToken",
              "type": "tuple"
            },
            {
              "components": [
                {
                  "internalType": "address",
                  "name": "tokenAddress",
                  "type": "address"
                },
                {
                  "internalType": "string",
                  "name": "symbol",
                  "type": "string"
                },
                {
                  "internalType": "string",
                  "name": "name",
                  "type": "string"
                },
                {
                  "internalType": "uint256",
                  "name": "decimals",
                  "type": "uint256"
                },
                {
                  "internalType": "uint256",
                  "name": "balance",
                  "type": "uint256"
                }
              ],
              "internalType": "struct IPrimexLens.TokenMetadata",
              "name": "debtToken",
              "type": "tuple"
            },
            {
              "internalType": "uint256",
              "name": "feeBuffer",
              "type": "uint256"
            },
            {
              "internalType": "uint256",
              "name": "withdrawalFeeRate",
              "type": "uint256"
            },
            {
              "components": [
                {
                  "internalType": "contract ILiquidityMiningRewardDistributor",
                  "name": "liquidityMiningRewardDistributor",
                  "type": "address"
                },
                {
                  "internalType": "bool",
                  "name": "isBucketLaunched",
                  "type": "bool"
                },
                {
                  "internalType": "uint256",
                  "name": "accumulatingAmount",
                  "type": "uint256"
                },
                {
                  "internalType": "uint256",
                  "name": "deadlineTimestamp",
                  "type": "uint256"
                },
                {
                  "internalType": "uint256",
                  "name": "stabilizationDuration",
                  "type": "uint256"
                },
                {
                  "internalType": "uint256",
                  "name": "stabilizationEndTimestamp",
                  "type": "uint256"
                },
                {
                  "internalType": "uint256",
                  "name": "maxAmountPerUser",
                  "type": "uint256"
                },
                {
                  "internalType": "uint256",
                  "name": "maxDuration",
                  "type": "uint256"
                },
                {
                  "internalType": "uint256",
                  "name": "maxStabilizationEndTimestamp",
                  "type": "uint256"
                }
              ],
              "internalType": "struct IBucketStorage.LiquidityMiningParams",
              "name": "miningParams",
              "type": "tuple"
            },
            {
              "components": [
                {
                  "internalType": "uint256",
                  "name": "amountInMining",
                  "type": "uint256"
                },
                {
                  "internalType": "uint256",
                  "name": "currentPercent",
                  "type": "uint256"
                },
                {
                  "components": [
                    {
                      "internalType": "uint256",
                      "name": "minReward",
                      "type": "uint256"
                    },
                    {
                      "internalType": "uint256",
                      "name": "maxReward",
                      "type": "uint256"
                    },
                    {
                      "internalType": "uint256",
                      "name": "extraReward",
                      "type": "uint256"
                    }
                  ],
                  "internalType": "struct ILiquidityMiningRewardDistributor.RewardsInPMX",
                  "name": "rewardsInPMX",
                  "type": "tuple"
                }
              ],
              "internalType": "struct IPrimexLens.LenderInfo",
              "name": "lenderInfo",
              "type": "tuple"
            },
            {
              "components": [
                {
                  "internalType": "uint256",
                  "name": "pmxAmount",
                  "type": "uint256"
                },
                {
                  "internalType": "uint256",
                  "name": "withdrawnRewards",
                  "type": "uint256"
                },
                {
                  "internalType": "uint256",
                  "name": "totalPoints",
                  "type": "uint256"
                }
              ],
              "internalType": "struct IPrimexLens.LiquidityMiningBucketInfo",
              "name": "lmBucketInfo",
              "type": "tuple"
            },
            {
              "internalType": "uint128",
              "name": "estimatedBar",
              "type": "uint128"
            },
            {
              "internalType": "uint128",
              "name": "estimatedLar",
              "type": "uint128"
            },
            {
              "internalType": "bool",
              "name": "isDeprecated",
              "type": "bool"
            },
            {
              "internalType": "bool",
              "name": "isDelisted",
              "type": "bool"
            },
            {
              "components": [
                {
                  "internalType": "uint256",
                  "name": "urOptimal",
                  "type": "uint256"
                },
                {
                  "internalType": "uint256",
                  "name": "k0",
                  "type": "uint256"
                },
                {
                  "internalType": "uint256",
                  "name": "k1",
                  "type": "uint256"
                },
                {
                  "internalType": "uint256",
                  "name": "b0",
                  "type": "uint256"
                },
                {
                  "internalType": "int256",
                  "name": "b1",
                  "type": "int256"
                }
              ],
              "internalType": "struct IInterestRateStrategy.BarCalculationParams",
              "name": "barCalcParams",
              "type": "tuple"
            },
            {
              "internalType": "uint256",
              "name": "maxTotalDeposit",
              "type": "uint256"
            }
          ],
          "internalType": "struct IPrimexLens.BucketMetaData[]",
          "name": "",
          "type": "tuple[]"
        }
      ],
      "stateMutability": "view",
      "type": "function"
    },
    {
      "inputs": [
        {
          "internalType": "address",
          "name": "_positionManager",
          "type": "address"
        },
        {
          "internalType": "address",
          "name": "_bucket",
          "type": "address"
        },
        {
          "internalType": "uint256",
          "name": "_cursor",
          "type": "uint256"
        },
        {
          "internalType": "uint256",
          "name": "_count",
          "type": "uint256"
        }
      ],
      "name": "getArrayOpenPositionDataByBucket",
      "outputs": [
        {
          "components": [
            {
              "internalType": "uint256",
              "name": "id",
              "type": "uint256"
            },
            {
              "components": [
                {
                  "internalType": "address",
                  "name": "bucketAddress",
                  "type": "address"
                },
                {
                  "internalType": "string",
                  "name": "name",
                  "type": "string"
                },
                {
                  "components": [
                    {
                      "internalType": "address",
                      "name": "tokenAddress",
                      "type": "address"
                    },
                    {
                      "internalType": "string",
                      "name": "symbol",
                      "type": "string"
                    },
                    {
                      "internalType": "string",
                      "name": "name",
                      "type": "string"
                    },
                    {
                      "internalType": "uint256",
                      "name": "decimals",
                      "type": "uint256"
                    },
                    {
                      "internalType": "uint256",
                      "name": "balance",
                      "type": "uint256"
                    }
                  ],
                  "internalType": "struct IPrimexLens.TokenMetadata",
                  "name": "asset",
                  "type": "tuple"
                },
                {
                  "internalType": "uint128",
                  "name": "bar",
                  "type": "uint128"
                },
                {
                  "internalType": "uint128",
                  "name": "lar",
                  "type": "uint128"
                },
                {
                  "internalType": "uint256",
                  "name": "supply",
                  "type": "uint256"
                },
                {
                  "internalType": "uint256",
                  "name": "demand",
                  "type": "uint256"
                },
                {
                  "internalType": "uint256",
                  "name": "availableLiquidity",
                  "type": "uint256"
                },
                {
                  "internalType": "uint256",
                  "name": "utilizationRatio",
                  "type": "uint256"
                },
                {
                  "components": [
                    {
                      "components": [
                        {
                          "internalType": "address",
                          "name": "tokenAddress",
                          "type": "address"
                        },
                        {
                          "internalType": "string",
                          "name": "symbol",
                          "type": "string"
                        },
                        {
                          "internalType": "string",
                          "name": "name",
                          "type": "string"
                        },
                        {
                          "internalType": "uint256",
                          "name": "decimals",
                          "type": "uint256"
                        },
                        {
                          "internalType": "uint256",
                          "name": "balance",
                          "type": "uint256"
                        }
                      ],
                      "internalType": "struct IPrimexLens.TokenMetadata",
                      "name": "asset",
                      "type": "tuple"
                    },
                    {
                      "components": [
                        {
                          "internalType": "uint256",
                          "name": "id",
                          "type": "uint256"
                        },
                        {
                          "internalType": "bool",
                          "name": "isSupported",
                          "type": "bool"
                        },
                        {
                          "internalType": "uint256",
                          "name": "pairPriceDrop",
                          "type": "uint256"
                        },
                        {
                          "internalType": "uint256",
                          "name": "maxLeverage",
                          "type": "uint256"
                        }
                      ],
                      "internalType": "struct IPrimexLens.BucketTokenMetadata",
                      "name": "properties",
                      "type": "tuple"
                    }
                  ],
                  "internalType": "struct IPrimexLens.SupportedAsset[]",
                  "name": "supportedAssets",
                  "type": "tuple[]"
                },
                {
                  "components": [
                    {
                      "internalType": "address",
                      "name": "tokenAddress",
                      "type": "address"
                    },
                    {
                      "internalType": "string",
                      "name": "symbol",
                      "type": "string"
                    },
                    {
                      "internalType": "string",
                      "name": "name",
                      "type": "string"
                    },
                    {
                      "internalType": "uint256",
                      "name": "decimals",
                      "type": "uint256"
                    },
                    {
                      "internalType": "uint256",
                      "name": "balance",
                      "type": "uint256"
                    }
                  ],
                  "internalType": "struct IPrimexLens.TokenMetadata",
                  "name": "pToken",
                  "type": "tuple"
                },
                {
                  "components": [
                    {
                      "internalType": "address",
                      "name": "tokenAddress",
                      "type": "address"
                    },
                    {
                      "internalType": "string",
                      "name": "symbol",
                      "type": "string"
                    },
                    {
                      "internalType": "string",
                      "name": "name",
                      "type": "string"
                    },
                    {
                      "internalType": "uint256",
                      "name": "decimals",
                      "type": "uint256"
                    },
                    {
                      "internalType": "uint256",
                      "name": "balance",
                      "type": "uint256"
                    }
                  ],
                  "internalType": "struct IPrimexLens.TokenMetadata",
                  "name": "debtToken",
                  "type": "tuple"
                },
                {
                  "internalType": "uint256",
                  "name": "feeBuffer",
                  "type": "uint256"
                },
                {
                  "internalType": "uint256",
                  "name": "withdrawalFeeRate",
                  "type": "uint256"
                },
                {
                  "components": [
                    {
                      "internalType": "contract ILiquidityMiningRewardDistributor",
                      "name": "liquidityMiningRewardDistributor",
                      "type": "address"
                    },
                    {
                      "internalType": "bool",
                      "name": "isBucketLaunched",
                      "type": "bool"
                    },
                    {
                      "internalType": "uint256",
                      "name": "accumulatingAmount",
                      "type": "uint256"
                    },
                    {
                      "internalType": "uint256",
                      "name": "deadlineTimestamp",
                      "type": "uint256"
                    },
                    {
                      "internalType": "uint256",
                      "name": "stabilizationDuration",
                      "type": "uint256"
                    },
                    {
                      "internalType": "uint256",
                      "name": "stabilizationEndTimestamp",
                      "type": "uint256"
                    },
                    {
                      "internalType": "uint256",
                      "name": "maxAmountPerUser",
                      "type": "uint256"
                    },
                    {
                      "internalType": "uint256",
                      "name": "maxDuration",
                      "type": "uint256"
                    },
                    {
                      "internalType": "uint256",
                      "name": "maxStabilizationEndTimestamp",
                      "type": "uint256"
                    }
                  ],
                  "internalType": "struct IBucketStorage.LiquidityMiningParams",
                  "name": "miningParams",
                  "type": "tuple"
                },
                {
                  "components": [
                    {
                      "internalType": "uint256",
                      "name": "amountInMining",
                      "type": "uint256"
                    },
                    {
                      "internalType": "uint256",
                      "name": "currentPercent",
                      "type": "uint256"
                    },
                    {
                      "components": [
                        {
                          "internalType": "uint256",
                          "name": "minReward",
                          "type": "uint256"
                        },
                        {
                          "internalType": "uint256",
                          "name": "maxReward",
                          "type": "uint256"
                        },
                        {
                          "internalType": "uint256",
                          "name": "extraReward",
                          "type": "uint256"
                        }
                      ],
                      "internalType": "struct ILiquidityMiningRewardDistributor.RewardsInPMX",
                      "name": "rewardsInPMX",
                      "type": "tuple"
                    }
                  ],
                  "internalType": "struct IPrimexLens.LenderInfo",
                  "name": "lenderInfo",
                  "type": "tuple"
                },
                {
                  "components": [
                    {
                      "internalType": "uint256",
                      "name": "pmxAmount",
                      "type": "uint256"
                    },
                    {
                      "internalType": "uint256",
                      "name": "withdrawnRewards",
                      "type": "uint256"
                    },
                    {
                      "internalType": "uint256",
                      "name": "totalPoints",
                      "type": "uint256"
                    }
                  ],
                  "internalType": "struct IPrimexLens.LiquidityMiningBucketInfo",
                  "name": "lmBucketInfo",
                  "type": "tuple"
                },
                {
                  "internalType": "uint128",
                  "name": "estimatedBar",
                  "type": "uint128"
                },
                {
                  "internalType": "uint128",
                  "name": "estimatedLar",
                  "type": "uint128"
                },
                {
                  "internalType": "bool",
                  "name": "isDeprecated",
                  "type": "bool"
                },
                {
                  "internalType": "bool",
                  "name": "isDelisted",
                  "type": "bool"
                },
                {
                  "components": [
                    {
                      "internalType": "uint256",
                      "name": "urOptimal",
                      "type": "uint256"
                    },
                    {
                      "internalType": "uint256",
                      "name": "k0",
                      "type": "uint256"
                    },
                    {
                      "internalType": "uint256",
                      "name": "k1",
                      "type": "uint256"
                    },
                    {
                      "internalType": "uint256",
                      "name": "b0",
                      "type": "uint256"
                    },
                    {
                      "internalType": "int256",
                      "name": "b1",
                      "type": "int256"
                    }
                  ],
                  "internalType": "struct IInterestRateStrategy.BarCalculationParams",
                  "name": "barCalcParams",
                  "type": "tuple"
                },
                {
                  "internalType": "uint256",
                  "name": "maxTotalDeposit",
                  "type": "uint256"
                }
              ],
              "internalType": "struct IPrimexLens.BucketMetaData",
              "name": "bucket",
              "type": "tuple"
            },
            {
              "components": [
                {
                  "internalType": "address",
                  "name": "tokenAddress",
                  "type": "address"
                },
                {
                  "internalType": "string",
                  "name": "symbol",
                  "type": "string"
                },
                {
                  "internalType": "string",
                  "name": "name",
                  "type": "string"
                },
                {
                  "internalType": "uint256",
                  "name": "decimals",
                  "type": "uint256"
                },
                {
                  "internalType": "uint256",
                  "name": "balance",
                  "type": "uint256"
                }
              ],
              "internalType": "struct IPrimexLens.TokenMetadata[2]",
              "name": "pair",
              "type": "tuple[2]"
            },
            {
              "internalType": "uint256",
              "name": "positionSize",
              "type": "uint256"
            },
            {
              "internalType": "uint256",
              "name": "liquidationPrice",
              "type": "uint256"
            },
            {
              "internalType": "uint256",
              "name": "stopLossPrice",
              "type": "uint256"
            },
            {
              "internalType": "uint256",
              "name": "takeProfitPrice",
              "type": "uint256"
            },
            {
              "internalType": "uint256",
              "name": "debt",
              "type": "uint256"
            },
            {
              "internalType": "uint256",
              "name": "depositAmount",
              "type": "uint256"
            },
            {
              "internalType": "uint256",
              "name": "createdAt",
              "type": "uint256"
            },
            {
              "internalType": "bytes",
              "name": "extraParams",
              "type": "bytes"
            }
          ],
          "internalType": "struct IPrimexLens.OpenPositionData[]",
          "name": "positionsData",
          "type": "tuple[]"
        },
        {
          "internalType": "uint256",
          "name": "newCursor",
          "type": "uint256"
        }
      ],
      "stateMutability": "view",
      "type": "function"
    },
    {
      "inputs": [
        {
          "internalType": "address",
          "name": "_positionManager",
          "type": "address"
        },
        {
          "internalType": "address",
          "name": "_trader",
          "type": "address"
        },
        {
          "internalType": "uint256",
          "name": "_cursor",
          "type": "uint256"
        },
        {
          "internalType": "uint256",
          "name": "_count",
          "type": "uint256"
        }
      ],
      "name": "getArrayOpenPositionDataByTrader",
      "outputs": [
        {
          "components": [
            {
              "internalType": "uint256",
              "name": "id",
              "type": "uint256"
            },
            {
              "components": [
                {
                  "internalType": "address",
                  "name": "bucketAddress",
                  "type": "address"
                },
                {
                  "internalType": "string",
                  "name": "name",
                  "type": "string"
                },
                {
                  "components": [
                    {
                      "internalType": "address",
                      "name": "tokenAddress",
                      "type": "address"
                    },
                    {
                      "internalType": "string",
                      "name": "symbol",
                      "type": "string"
                    },
                    {
                      "internalType": "string",
                      "name": "name",
                      "type": "string"
                    },
                    {
                      "internalType": "uint256",
                      "name": "decimals",
                      "type": "uint256"
                    },
                    {
                      "internalType": "uint256",
                      "name": "balance",
                      "type": "uint256"
                    }
                  ],
                  "internalType": "struct IPrimexLens.TokenMetadata",
                  "name": "asset",
                  "type": "tuple"
                },
                {
                  "internalType": "uint128",
                  "name": "bar",
                  "type": "uint128"
                },
                {
                  "internalType": "uint128",
                  "name": "lar",
                  "type": "uint128"
                },
                {
                  "internalType": "uint256",
                  "name": "supply",
                  "type": "uint256"
                },
                {
                  "internalType": "uint256",
                  "name": "demand",
                  "type": "uint256"
                },
                {
                  "internalType": "uint256",
                  "name": "availableLiquidity",
                  "type": "uint256"
                },
                {
                  "internalType": "uint256",
                  "name": "utilizationRatio",
                  "type": "uint256"
                },
                {
                  "components": [
                    {
                      "components": [
                        {
                          "internalType": "address",
                          "name": "tokenAddress",
                          "type": "address"
                        },
                        {
                          "internalType": "string",
                          "name": "symbol",
                          "type": "string"
                        },
                        {
                          "internalType": "string",
                          "name": "name",
                          "type": "string"
                        },
                        {
                          "internalType": "uint256",
                          "name": "decimals",
                          "type": "uint256"
                        },
                        {
                          "internalType": "uint256",
                          "name": "balance",
                          "type": "uint256"
                        }
                      ],
                      "internalType": "struct IPrimexLens.TokenMetadata",
                      "name": "asset",
                      "type": "tuple"
                    },
                    {
                      "components": [
                        {
                          "internalType": "uint256",
                          "name": "id",
                          "type": "uint256"
                        },
                        {
                          "internalType": "bool",
                          "name": "isSupported",
                          "type": "bool"
                        },
                        {
                          "internalType": "uint256",
                          "name": "pairPriceDrop",
                          "type": "uint256"
                        },
                        {
                          "internalType": "uint256",
                          "name": "maxLeverage",
                          "type": "uint256"
                        }
                      ],
                      "internalType": "struct IPrimexLens.BucketTokenMetadata",
                      "name": "properties",
                      "type": "tuple"
                    }
                  ],
                  "internalType": "struct IPrimexLens.SupportedAsset[]",
                  "name": "supportedAssets",
                  "type": "tuple[]"
                },
                {
                  "components": [
                    {
                      "internalType": "address",
                      "name": "tokenAddress",
                      "type": "address"
                    },
                    {
                      "internalType": "string",
                      "name": "symbol",
                      "type": "string"
                    },
                    {
                      "internalType": "string",
                      "name": "name",
                      "type": "string"
                    },
                    {
                      "internalType": "uint256",
                      "name": "decimals",
                      "type": "uint256"
                    },
                    {
                      "internalType": "uint256",
                      "name": "balance",
                      "type": "uint256"
                    }
                  ],
                  "internalType": "struct IPrimexLens.TokenMetadata",
                  "name": "pToken",
                  "type": "tuple"
                },
                {
                  "components": [
                    {
                      "internalType": "address",
                      "name": "tokenAddress",
                      "type": "address"
                    },
                    {
                      "internalType": "string",
                      "name": "symbol",
                      "type": "string"
                    },
                    {
                      "internalType": "string",
                      "name": "name",
                      "type": "string"
                    },
                    {
                      "internalType": "uint256",
                      "name": "decimals",
                      "type": "uint256"
                    },
                    {
                      "internalType": "uint256",
                      "name": "balance",
                      "type": "uint256"
                    }
                  ],
                  "internalType": "struct IPrimexLens.TokenMetadata",
                  "name": "debtToken",
                  "type": "tuple"
                },
                {
                  "internalType": "uint256",
                  "name": "feeBuffer",
                  "type": "uint256"
                },
                {
                  "internalType": "uint256",
                  "name": "withdrawalFeeRate",
                  "type": "uint256"
                },
                {
                  "components": [
                    {
                      "internalType": "contract ILiquidityMiningRewardDistributor",
                      "name": "liquidityMiningRewardDistributor",
                      "type": "address"
                    },
                    {
                      "internalType": "bool",
                      "name": "isBucketLaunched",
                      "type": "bool"
                    },
                    {
                      "internalType": "uint256",
                      "name": "accumulatingAmount",
                      "type": "uint256"
                    },
                    {
                      "internalType": "uint256",
                      "name": "deadlineTimestamp",
                      "type": "uint256"
                    },
                    {
                      "internalType": "uint256",
                      "name": "stabilizationDuration",
                      "type": "uint256"
                    },
                    {
                      "internalType": "uint256",
                      "name": "stabilizationEndTimestamp",
                      "type": "uint256"
                    },
                    {
                      "internalType": "uint256",
                      "name": "maxAmountPerUser",
                      "type": "uint256"
                    },
                    {
                      "internalType": "uint256",
                      "name": "maxDuration",
                      "type": "uint256"
                    },
                    {
                      "internalType": "uint256",
                      "name": "maxStabilizationEndTimestamp",
                      "type": "uint256"
                    }
                  ],
                  "internalType": "struct IBucketStorage.LiquidityMiningParams",
                  "name": "miningParams",
                  "type": "tuple"
                },
                {
                  "components": [
                    {
                      "internalType": "uint256",
                      "name": "amountInMining",
                      "type": "uint256"
                    },
                    {
                      "internalType": "uint256",
                      "name": "currentPercent",
                      "type": "uint256"
                    },
                    {
                      "components": [
                        {
                          "internalType": "uint256",
                          "name": "minReward",
                          "type": "uint256"
                        },
                        {
                          "internalType": "uint256",
                          "name": "maxReward",
                          "type": "uint256"
                        },
                        {
                          "internalType": "uint256",
                          "name": "extraReward",
                          "type": "uint256"
                        }
                      ],
                      "internalType": "struct ILiquidityMiningRewardDistributor.RewardsInPMX",
                      "name": "rewardsInPMX",
                      "type": "tuple"
                    }
                  ],
                  "internalType": "struct IPrimexLens.LenderInfo",
                  "name": "lenderInfo",
                  "type": "tuple"
                },
                {
                  "components": [
                    {
                      "internalType": "uint256",
                      "name": "pmxAmount",
                      "type": "uint256"
                    },
                    {
                      "internalType": "uint256",
                      "name": "withdrawnRewards",
                      "type": "uint256"
                    },
                    {
                      "internalType": "uint256",
                      "name": "totalPoints",
                      "type": "uint256"
                    }
                  ],
                  "internalType": "struct IPrimexLens.LiquidityMiningBucketInfo",
                  "name": "lmBucketInfo",
                  "type": "tuple"
                },
                {
                  "internalType": "uint128",
                  "name": "estimatedBar",
                  "type": "uint128"
                },
                {
                  "internalType": "uint128",
                  "name": "estimatedLar",
                  "type": "uint128"
                },
                {
                  "internalType": "bool",
                  "name": "isDeprecated",
                  "type": "bool"
                },
                {
                  "internalType": "bool",
                  "name": "isDelisted",
                  "type": "bool"
                },
                {
                  "components": [
                    {
                      "internalType": "uint256",
                      "name": "urOptimal",
                      "type": "uint256"
                    },
                    {
                      "internalType": "uint256",
                      "name": "k0",
                      "type": "uint256"
                    },
                    {
                      "internalType": "uint256",
                      "name": "k1",
                      "type": "uint256"
                    },
                    {
                      "internalType": "uint256",
                      "name": "b0",
                      "type": "uint256"
                    },
                    {
                      "internalType": "int256",
                      "name": "b1",
                      "type": "int256"
                    }
                  ],
                  "internalType": "struct IInterestRateStrategy.BarCalculationParams",
                  "name": "barCalcParams",
                  "type": "tuple"
                },
                {
                  "internalType": "uint256",
                  "name": "maxTotalDeposit",
                  "type": "uint256"
                }
              ],
              "internalType": "struct IPrimexLens.BucketMetaData",
              "name": "bucket",
              "type": "tuple"
            },
            {
              "components": [
                {
                  "internalType": "address",
                  "name": "tokenAddress",
                  "type": "address"
                },
                {
                  "internalType": "string",
                  "name": "symbol",
                  "type": "string"
                },
                {
                  "internalType": "string",
                  "name": "name",
                  "type": "string"
                },
                {
                  "internalType": "uint256",
                  "name": "decimals",
                  "type": "uint256"
                },
                {
                  "internalType": "uint256",
                  "name": "balance",
                  "type": "uint256"
                }
              ],
              "internalType": "struct IPrimexLens.TokenMetadata[2]",
              "name": "pair",
              "type": "tuple[2]"
            },
            {
              "internalType": "uint256",
              "name": "positionSize",
              "type": "uint256"
            },
            {
              "internalType": "uint256",
              "name": "liquidationPrice",
              "type": "uint256"
            },
            {
              "internalType": "uint256",
              "name": "stopLossPrice",
              "type": "uint256"
            },
            {
              "internalType": "uint256",
              "name": "takeProfitPrice",
              "type": "uint256"
            },
            {
              "internalType": "uint256",
              "name": "debt",
              "type": "uint256"
            },
            {
              "internalType": "uint256",
              "name": "depositAmount",
              "type": "uint256"
            },
            {
              "internalType": "uint256",
              "name": "createdAt",
              "type": "uint256"
            },
            {
              "internalType": "bytes",
              "name": "extraParams",
              "type": "bytes"
            }
          ],
          "internalType": "struct IPrimexLens.OpenPositionData[]",
          "name": "positionsData",
          "type": "tuple[]"
        },
        {
          "internalType": "uint256",
          "name": "newCursor",
          "type": "uint256"
        }
      ],
      "stateMutability": "view",
      "type": "function"
    },
    {
      "inputs": [
        {
          "internalType": "address",
          "name": "_bucket",
          "type": "address"
        },
        {
          "internalType": "address",
          "name": "_asset",
          "type": "address"
        }
      ],
      "name": "getAssetMetadata",
      "outputs": [
        {
          "components": [
            {
              "internalType": "uint256",
              "name": "id",
              "type": "uint256"
            },
            {
              "internalType": "bool",
              "name": "isSupported",
              "type": "bool"
            },
            {
              "internalType": "uint256",
              "name": "pairPriceDrop",
              "type": "uint256"
            },
            {
              "internalType": "uint256",
              "name": "maxLeverage",
              "type": "uint256"
            }
          ],
          "internalType": "struct IPrimexLens.BucketTokenMetadata",
          "name": "",
          "type": "tuple"
        }
      ],
      "stateMutability": "view",
      "type": "function"
    },
    {
      "inputs": [
        {
          "internalType": "address",
          "name": "_bucket",
          "type": "address"
        },
        {
          "internalType": "address",
          "name": "_user",
          "type": "address"
        }
      ],
      "name": "getBucket",
      "outputs": [
        {
          "components": [
            {
              "internalType": "address",
              "name": "bucketAddress",
              "type": "address"
            },
            {
              "internalType": "string",
              "name": "name",
              "type": "string"
            },
            {
              "components": [
                {
                  "internalType": "address",
                  "name": "tokenAddress",
                  "type": "address"
                },
                {
                  "internalType": "string",
                  "name": "symbol",
                  "type": "string"
                },
                {
                  "internalType": "string",
                  "name": "name",
                  "type": "string"
                },
                {
                  "internalType": "uint256",
                  "name": "decimals",
                  "type": "uint256"
                },
                {
                  "internalType": "uint256",
                  "name": "balance",
                  "type": "uint256"
                }
              ],
              "internalType": "struct IPrimexLens.TokenMetadata",
              "name": "asset",
              "type": "tuple"
            },
            {
              "internalType": "uint128",
              "name": "bar",
              "type": "uint128"
            },
            {
              "internalType": "uint128",
              "name": "lar",
              "type": "uint128"
            },
            {
              "internalType": "uint256",
              "name": "supply",
              "type": "uint256"
            },
            {
              "internalType": "uint256",
              "name": "demand",
              "type": "uint256"
            },
            {
              "internalType": "uint256",
              "name": "availableLiquidity",
              "type": "uint256"
            },
            {
              "internalType": "uint256",
              "name": "utilizationRatio",
              "type": "uint256"
            },
            {
              "components": [
                {
                  "components": [
                    {
                      "internalType": "address",
                      "name": "tokenAddress",
                      "type": "address"
                    },
                    {
                      "internalType": "string",
                      "name": "symbol",
                      "type": "string"
                    },
                    {
                      "internalType": "string",
                      "name": "name",
                      "type": "string"
                    },
                    {
                      "internalType": "uint256",
                      "name": "decimals",
                      "type": "uint256"
                    },
                    {
                      "internalType": "uint256",
                      "name": "balance",
                      "type": "uint256"
                    }
                  ],
                  "internalType": "struct IPrimexLens.TokenMetadata",
                  "name": "asset",
                  "type": "tuple"
                },
                {
                  "components": [
                    {
                      "internalType": "uint256",
                      "name": "id",
                      "type": "uint256"
                    },
                    {
                      "internalType": "bool",
                      "name": "isSupported",
                      "type": "bool"
                    },
                    {
                      "internalType": "uint256",
                      "name": "pairPriceDrop",
                      "type": "uint256"
                    },
                    {
                      "internalType": "uint256",
                      "name": "maxLeverage",
                      "type": "uint256"
                    }
                  ],
                  "internalType": "struct IPrimexLens.BucketTokenMetadata",
                  "name": "properties",
                  "type": "tuple"
                }
              ],
              "internalType": "struct IPrimexLens.SupportedAsset[]",
              "name": "supportedAssets",
              "type": "tuple[]"
            },
            {
              "components": [
                {
                  "internalType": "address",
                  "name": "tokenAddress",
                  "type": "address"
                },
                {
                  "internalType": "string",
                  "name": "symbol",
                  "type": "string"
                },
                {
                  "internalType": "string",
                  "name": "name",
                  "type": "string"
                },
                {
                  "internalType": "uint256",
                  "name": "decimals",
                  "type": "uint256"
                },
                {
                  "internalType": "uint256",
                  "name": "balance",
                  "type": "uint256"
                }
              ],
              "internalType": "struct IPrimexLens.TokenMetadata",
              "name": "pToken",
              "type": "tuple"
            },
            {
              "components": [
                {
                  "internalType": "address",
                  "name": "tokenAddress",
                  "type": "address"
                },
                {
                  "internalType": "string",
                  "name": "symbol",
                  "type": "string"
                },
                {
                  "internalType": "string",
                  "name": "name",
                  "type": "string"
                },
                {
                  "internalType": "uint256",
                  "name": "decimals",
                  "type": "uint256"
                },
                {
                  "internalType": "uint256",
                  "name": "balance",
                  "type": "uint256"
                }
              ],
              "internalType": "struct IPrimexLens.TokenMetadata",
              "name": "debtToken",
              "type": "tuple"
            },
            {
              "internalType": "uint256",
              "name": "feeBuffer",
              "type": "uint256"
            },
            {
              "internalType": "uint256",
              "name": "withdrawalFeeRate",
              "type": "uint256"
            },
            {
              "components": [
                {
                  "internalType": "contract ILiquidityMiningRewardDistributor",
                  "name": "liquidityMiningRewardDistributor",
                  "type": "address"
                },
                {
                  "internalType": "bool",
                  "name": "isBucketLaunched",
                  "type": "bool"
                },
                {
                  "internalType": "uint256",
                  "name": "accumulatingAmount",
                  "type": "uint256"
                },
                {
                  "internalType": "uint256",
                  "name": "deadlineTimestamp",
                  "type": "uint256"
                },
                {
                  "internalType": "uint256",
                  "name": "stabilizationDuration",
                  "type": "uint256"
                },
                {
                  "internalType": "uint256",
                  "name": "stabilizationEndTimestamp",
                  "type": "uint256"
                },
                {
                  "internalType": "uint256",
                  "name": "maxAmountPerUser",
                  "type": "uint256"
                },
                {
                  "internalType": "uint256",
                  "name": "maxDuration",
                  "type": "uint256"
                },
                {
                  "internalType": "uint256",
                  "name": "maxStabilizationEndTimestamp",
                  "type": "uint256"
                }
              ],
              "internalType": "struct IBucketStorage.LiquidityMiningParams",
              "name": "miningParams",
              "type": "tuple"
            },
            {
              "components": [
                {
                  "internalType": "uint256",
                  "name": "amountInMining",
                  "type": "uint256"
                },
                {
                  "internalType": "uint256",
                  "name": "currentPercent",
                  "type": "uint256"
                },
                {
                  "components": [
                    {
                      "internalType": "uint256",
                      "name": "minReward",
                      "type": "uint256"
                    },
                    {
                      "internalType": "uint256",
                      "name": "maxReward",
                      "type": "uint256"
                    },
                    {
                      "internalType": "uint256",
                      "name": "extraReward",
                      "type": "uint256"
                    }
                  ],
                  "internalType": "struct ILiquidityMiningRewardDistributor.RewardsInPMX",
                  "name": "rewardsInPMX",
                  "type": "tuple"
                }
              ],
              "internalType": "struct IPrimexLens.LenderInfo",
              "name": "lenderInfo",
              "type": "tuple"
            },
            {
              "components": [
                {
                  "internalType": "uint256",
                  "name": "pmxAmount",
                  "type": "uint256"
                },
                {
                  "internalType": "uint256",
                  "name": "withdrawnRewards",
                  "type": "uint256"
                },
                {
                  "internalType": "uint256",
                  "name": "totalPoints",
                  "type": "uint256"
                }
              ],
              "internalType": "struct IPrimexLens.LiquidityMiningBucketInfo",
              "name": "lmBucketInfo",
              "type": "tuple"
            },
            {
              "internalType": "uint128",
              "name": "estimatedBar",
              "type": "uint128"
            },
            {
              "internalType": "uint128",
              "name": "estimatedLar",
              "type": "uint128"
            },
            {
              "internalType": "bool",
              "name": "isDeprecated",
              "type": "bool"
            },
            {
              "internalType": "bool",
              "name": "isDelisted",
              "type": "bool"
            },
            {
              "components": [
                {
                  "internalType": "uint256",
                  "name": "urOptimal",
                  "type": "uint256"
                },
                {
                  "internalType": "uint256",
                  "name": "k0",
                  "type": "uint256"
                },
                {
                  "internalType": "uint256",
                  "name": "k1",
                  "type": "uint256"
                },
                {
                  "internalType": "uint256",
                  "name": "b0",
                  "type": "uint256"
                },
                {
                  "internalType": "int256",
                  "name": "b1",
                  "type": "int256"
                }
              ],
              "internalType": "struct IInterestRateStrategy.BarCalculationParams",
              "name": "barCalcParams",
              "type": "tuple"
            },
            {
              "internalType": "uint256",
              "name": "maxTotalDeposit",
              "type": "uint256"
            }
          ],
          "internalType": "struct IPrimexLens.BucketMetaData",
          "name": "",
          "type": "tuple"
        }
      ],
      "stateMutability": "view",
      "type": "function"
    },
    {
      "inputs": [
        {
          "internalType": "address[]",
          "name": "_buckets",
          "type": "address[]"
        },
        {
          "internalType": "address",
          "name": "_user",
          "type": "address"
        },
        {
          "internalType": "address",
          "name": "_positionManager",
          "type": "address"
        },
        {
          "internalType": "bool",
          "name": "_showDeprecated",
          "type": "bool"
        }
      ],
      "name": "getBucketsArray",
      "outputs": [
        {
          "components": [
            {
              "internalType": "address",
              "name": "bucketAddress",
              "type": "address"
            },
            {
              "internalType": "string",
              "name": "name",
              "type": "string"
            },
            {
              "components": [
                {
                  "internalType": "address",
                  "name": "tokenAddress",
                  "type": "address"
                },
                {
                  "internalType": "string",
                  "name": "symbol",
                  "type": "string"
                },
                {
                  "internalType": "string",
                  "name": "name",
                  "type": "string"
                },
                {
                  "internalType": "uint256",
                  "name": "decimals",
                  "type": "uint256"
                },
                {
                  "internalType": "uint256",
                  "name": "balance",
                  "type": "uint256"
                }
              ],
              "internalType": "struct IPrimexLens.TokenMetadata",
              "name": "asset",
              "type": "tuple"
            },
            {
              "internalType": "uint128",
              "name": "bar",
              "type": "uint128"
            },
            {
              "internalType": "uint128",
              "name": "lar",
              "type": "uint128"
            },
            {
              "internalType": "uint256",
              "name": "supply",
              "type": "uint256"
            },
            {
              "internalType": "uint256",
              "name": "demand",
              "type": "uint256"
            },
            {
              "internalType": "uint256",
              "name": "availableLiquidity",
              "type": "uint256"
            },
            {
              "internalType": "uint256",
              "name": "utilizationRatio",
              "type": "uint256"
            },
            {
              "components": [
                {
                  "components": [
                    {
                      "internalType": "address",
                      "name": "tokenAddress",
                      "type": "address"
                    },
                    {
                      "internalType": "string",
                      "name": "symbol",
                      "type": "string"
                    },
                    {
                      "internalType": "string",
                      "name": "name",
                      "type": "string"
                    },
                    {
                      "internalType": "uint256",
                      "name": "decimals",
                      "type": "uint256"
                    },
                    {
                      "internalType": "uint256",
                      "name": "balance",
                      "type": "uint256"
                    }
                  ],
                  "internalType": "struct IPrimexLens.TokenMetadata",
                  "name": "asset",
                  "type": "tuple"
                },
                {
                  "components": [
                    {
                      "internalType": "uint256",
                      "name": "id",
                      "type": "uint256"
                    },
                    {
                      "internalType": "bool",
                      "name": "isSupported",
                      "type": "bool"
                    },
                    {
                      "internalType": "uint256",
                      "name": "pairPriceDrop",
                      "type": "uint256"
                    },
                    {
                      "internalType": "uint256",
                      "name": "maxLeverage",
                      "type": "uint256"
                    }
                  ],
                  "internalType": "struct IPrimexLens.BucketTokenMetadata",
                  "name": "properties",
                  "type": "tuple"
                }
              ],
              "internalType": "struct IPrimexLens.SupportedAsset[]",
              "name": "supportedAssets",
              "type": "tuple[]"
            },
            {
              "components": [
                {
                  "internalType": "address",
                  "name": "tokenAddress",
                  "type": "address"
                },
                {
                  "internalType": "string",
                  "name": "symbol",
                  "type": "string"
                },
                {
                  "internalType": "string",
                  "name": "name",
                  "type": "string"
                },
                {
                  "internalType": "uint256",
                  "name": "decimals",
                  "type": "uint256"
                },
                {
                  "internalType": "uint256",
                  "name": "balance",
                  "type": "uint256"
                }
              ],
              "internalType": "struct IPrimexLens.TokenMetadata",
              "name": "pToken",
              "type": "tuple"
            },
            {
              "components": [
                {
                  "internalType": "address",
                  "name": "tokenAddress",
                  "type": "address"
                },
                {
                  "internalType": "string",
                  "name": "symbol",
                  "type": "string"
                },
                {
                  "internalType": "string",
                  "name": "name",
                  "type": "string"
                },
                {
                  "internalType": "uint256",
                  "name": "decimals",
                  "type": "uint256"
                },
                {
                  "internalType": "uint256",
                  "name": "balance",
                  "type": "uint256"
                }
              ],
              "internalType": "struct IPrimexLens.TokenMetadata",
              "name": "debtToken",
              "type": "tuple"
            },
            {
              "internalType": "uint256",
              "name": "feeBuffer",
              "type": "uint256"
            },
            {
              "internalType": "uint256",
              "name": "withdrawalFeeRate",
              "type": "uint256"
            },
            {
              "components": [
                {
                  "internalType": "contract ILiquidityMiningRewardDistributor",
                  "name": "liquidityMiningRewardDistributor",
                  "type": "address"
                },
                {
                  "internalType": "bool",
                  "name": "isBucketLaunched",
                  "type": "bool"
                },
                {
                  "internalType": "uint256",
                  "name": "accumulatingAmount",
                  "type": "uint256"
                },
                {
                  "internalType": "uint256",
                  "name": "deadlineTimestamp",
                  "type": "uint256"
                },
                {
                  "internalType": "uint256",
                  "name": "stabilizationDuration",
                  "type": "uint256"
                },
                {
                  "internalType": "uint256",
                  "name": "stabilizationEndTimestamp",
                  "type": "uint256"
                },
                {
                  "internalType": "uint256",
                  "name": "maxAmountPerUser",
                  "type": "uint256"
                },
                {
                  "internalType": "uint256",
                  "name": "maxDuration",
                  "type": "uint256"
                },
                {
                  "internalType": "uint256",
                  "name": "maxStabilizationEndTimestamp",
                  "type": "uint256"
                }
              ],
              "internalType": "struct IBucketStorage.LiquidityMiningParams",
              "name": "miningParams",
              "type": "tuple"
            },
            {
              "components": [
                {
                  "internalType": "uint256",
                  "name": "amountInMining",
                  "type": "uint256"
                },
                {
                  "internalType": "uint256",
                  "name": "currentPercent",
                  "type": "uint256"
                },
                {
                  "components": [
                    {
                      "internalType": "uint256",
                      "name": "minReward",
                      "type": "uint256"
                    },
                    {
                      "internalType": "uint256",
                      "name": "maxReward",
                      "type": "uint256"
                    },
                    {
                      "internalType": "uint256",
                      "name": "extraReward",
                      "type": "uint256"
                    }
                  ],
                  "internalType": "struct ILiquidityMiningRewardDistributor.RewardsInPMX",
                  "name": "rewardsInPMX",
                  "type": "tuple"
                }
              ],
              "internalType": "struct IPrimexLens.LenderInfo",
              "name": "lenderInfo",
              "type": "tuple"
            },
            {
              "components": [
                {
                  "internalType": "uint256",
                  "name": "pmxAmount",
                  "type": "uint256"
                },
                {
                  "internalType": "uint256",
                  "name": "withdrawnRewards",
                  "type": "uint256"
                },
                {
                  "internalType": "uint256",
                  "name": "totalPoints",
                  "type": "uint256"
                }
              ],
              "internalType": "struct IPrimexLens.LiquidityMiningBucketInfo",
              "name": "lmBucketInfo",
              "type": "tuple"
            },
            {
              "internalType": "uint128",
              "name": "estimatedBar",
              "type": "uint128"
            },
            {
              "internalType": "uint128",
              "name": "estimatedLar",
              "type": "uint128"
            },
            {
              "internalType": "bool",
              "name": "isDeprecated",
              "type": "bool"
            },
            {
              "internalType": "bool",
              "name": "isDelisted",
              "type": "bool"
            },
            {
              "components": [
                {
                  "internalType": "uint256",
                  "name": "urOptimal",
                  "type": "uint256"
                },
                {
                  "internalType": "uint256",
                  "name": "k0",
                  "type": "uint256"
                },
                {
                  "internalType": "uint256",
                  "name": "k1",
                  "type": "uint256"
                },
                {
                  "internalType": "uint256",
                  "name": "b0",
                  "type": "uint256"
                },
                {
                  "internalType": "int256",
                  "name": "b1",
                  "type": "int256"
                }
              ],
              "internalType": "struct IInterestRateStrategy.BarCalculationParams",
              "name": "barCalcParams",
              "type": "tuple"
            },
            {
              "internalType": "uint256",
              "name": "maxTotalDeposit",
              "type": "uint256"
            }
          ],
          "internalType": "struct IPrimexLens.BucketMetaData[]",
          "name": "",
          "type": "tuple[]"
        }
      ],
      "stateMutability": "view",
      "type": "function"
    },
    {
      "inputs": [
        {
          "internalType": "address[]",
          "name": "_feeds",
          "type": "address[]"
        }
      ],
      "name": "getChainlinkLatestRoundData",
      "outputs": [
        {
          "components": [
            {
              "internalType": "uint80",
              "name": "roundId",
              "type": "uint80"
            },
            {
              "internalType": "int256",
              "name": "answer",
              "type": "int256"
            },
            {
              "internalType": "uint256",
              "name": "startedAt",
              "type": "uint256"
            },
            {
              "internalType": "uint256",
              "name": "updatedAt",
              "type": "uint256"
            },
            {
              "internalType": "uint80",
              "name": "answeredInRound",
              "type": "uint80"
            }
          ],
          "internalType": "struct IPrimexLens.RoundData[]",
          "name": "",
          "type": "tuple[]"
        }
      ],
      "stateMutability": "view",
      "type": "function"
    },
    {
      "inputs": [
        {
          "internalType": "enum IPrimexDNSStorageV3.TradingOrderType",
          "name": "_tradingOrderType",
          "type": "uint8"
        },
        {
          "internalType": "contract IPositionManagerV2",
          "name": "_pm",
          "type": "address"
        }
      ],
      "name": "getEstimatedMinProtocolFee",
      "outputs": [
        {
          "internalType": "uint256",
          "name": "",
          "type": "uint256"
        }
      ],
      "stateMutability": "view",
      "type": "function"
    },
    {
      "inputs": [
        {
          "internalType": "contract ILiquidityMiningRewardDistributor",
          "name": "liquidityMiningRewardDistributor",
          "type": "address"
        },
        {
          "internalType": "string",
          "name": "bucketName",
          "type": "string"
        }
      ],
      "name": "getLMBucketInfo",
      "outputs": [
        {
          "components": [
            {
              "internalType": "uint256",
              "name": "pmxAmount",
              "type": "uint256"
            },
            {
              "internalType": "uint256",
              "name": "withdrawnRewards",
              "type": "uint256"
            },
            {
              "internalType": "uint256",
              "name": "totalPoints",
              "type": "uint256"
            }
          ],
          "internalType": "struct IPrimexLens.LiquidityMiningBucketInfo",
          "name": "",
          "type": "tuple"
        }
      ],
      "stateMutability": "view",
      "type": "function"
    },
    {
      "inputs": [
        {
          "internalType": "contract ILiquidityMiningRewardDistributor",
          "name": "liquidityMiningRewardDistributor",
          "type": "address"
        },
        {
          "internalType": "string",
          "name": "bucketName",
          "type": "string"
        },
        {
          "internalType": "address",
          "name": "user",
          "type": "address"
        }
      ],
      "name": "getLenderInfo",
      "outputs": [
        {
          "components": [
            {
              "internalType": "uint256",
              "name": "amountInMining",
              "type": "uint256"
            },
            {
              "internalType": "uint256",
              "name": "currentPercent",
              "type": "uint256"
            },
            {
              "components": [
                {
                  "internalType": "uint256",
                  "name": "minReward",
                  "type": "uint256"
                },
                {
                  "internalType": "uint256",
                  "name": "maxReward",
                  "type": "uint256"
                },
                {
                  "internalType": "uint256",
                  "name": "extraReward",
                  "type": "uint256"
                }
              ],
              "internalType": "struct ILiquidityMiningRewardDistributor.RewardsInPMX",
              "name": "rewardsInPMX",
              "type": "tuple"
            }
          ],
          "internalType": "struct IPrimexLens.LenderInfo",
          "name": "",
          "type": "tuple"
        }
      ],
      "stateMutability": "view",
      "type": "function"
    },
    {
      "inputs": [
        {
          "internalType": "address",
          "name": "_limitOrderManager",
          "type": "address"
        },
        {
          "internalType": "uint256",
          "name": "_cursor",
          "type": "uint256"
        },
        {
          "internalType": "uint256",
          "name": "_count",
          "type": "uint256"
        }
      ],
      "name": "getLimitOrdersWithConditions",
      "outputs": [
        {
          "components": [
            {
              "components": [
                {
                  "internalType": "contract IBucketV3",
                  "name": "bucket",
                  "type": "address"
                },
                {
                  "internalType": "address",
                  "name": "positionAsset",
                  "type": "address"
                },
                {
                  "internalType": "address",
                  "name": "depositAsset",
                  "type": "address"
                },
                {
                  "internalType": "uint256",
                  "name": "depositAmount",
                  "type": "uint256"
                },
                {
                  "internalType": "address",
                  "name": "feeToken",
                  "type": "address"
                },
                {
                  "internalType": "uint256",
                  "name": "protocolFee",
                  "type": "uint256"
                },
                {
                  "internalType": "address",
                  "name": "trader",
                  "type": "address"
                },
                {
                  "internalType": "uint256",
                  "name": "deadline",
                  "type": "uint256"
                },
                {
                  "internalType": "uint256",
                  "name": "id",
                  "type": "uint256"
                },
                {
                  "internalType": "uint256",
                  "name": "leverage",
                  "type": "uint256"
                },
                {
                  "internalType": "bool",
                  "name": "shouldOpenPosition",
                  "type": "bool"
                },
                {
                  "internalType": "uint256",
                  "name": "createdAt",
                  "type": "uint256"
                },
                {
                  "internalType": "uint256",
                  "name": "updatedConditionsAt",
                  "type": "uint256"
                },
                {
                  "internalType": "bytes",
                  "name": "extraParams",
                  "type": "bytes"
                }
              ],
              "internalType": "struct LimitOrderLibrary.LimitOrder",
              "name": "limitOrderData",
              "type": "tuple"
            },
            {
              "components": [
                {
                  "internalType": "uint256",
                  "name": "managerType",
                  "type": "uint256"
                },
                {
                  "internalType": "bytes",
                  "name": "params",
                  "type": "bytes"
                }
              ],
              "internalType": "struct LimitOrderLibrary.Condition[]",
              "name": "openConditionsData",
              "type": "tuple[]"
            }
          ],
          "internalType": "struct IPrimexLens.LimitOrderWithConditions[]",
          "name": "limitOrdersWithConditions",
          "type": "tuple[]"
        },
        {
          "internalType": "uint256",
          "name": "newCursor",
          "type": "uint256"
        }
      ],
      "stateMutability": "view",
      "type": "function"
    },
    {
      "inputs": [
        {
          "internalType": "address",
          "name": "_positionManager",
          "type": "address"
        },
        {
          "internalType": "string",
          "name": "_bucket",
          "type": "string"
        },
        {
          "internalType": "uint256",
          "name": "_borrowedAmount",
          "type": "uint256"
        },
        {
          "internalType": "address",
          "name": "_positionAsset",
          "type": "address"
        },
        {
          "internalType": "uint256",
          "name": "_positionAmount",
          "type": "uint256"
        }
      ],
      "name": "getLiquidationPrice",
      "outputs": [
        {
          "internalType": "uint256",
          "name": "",
          "type": "uint256"
        }
      ],
      "stateMutability": "view",
      "type": "function"
    },
    {
      "inputs": [
        {
          "internalType": "address",
          "name": "_positionManager",
          "type": "address"
        },
        {
          "internalType": "uint256",
          "name": "_id",
          "type": "uint256"
        }
      ],
      "name": "getLiquidationPrice",
      "outputs": [
        {
          "internalType": "uint256",
          "name": "",
          "type": "uint256"
        }
      ],
      "stateMutability": "view",
      "type": "function"
    },
    {
      "inputs": [
        {
          "internalType": "address",
          "name": "_positionManager",
          "type": "address"
        },
        {
          "internalType": "uint256",
          "name": "_id",
          "type": "uint256"
        }
      ],
      "name": "getOpenPositionData",
      "outputs": [
        {
          "components": [
            {
              "internalType": "uint256",
              "name": "id",
              "type": "uint256"
            },
            {
              "components": [
                {
                  "internalType": "address",
                  "name": "bucketAddress",
                  "type": "address"
                },
                {
                  "internalType": "string",
                  "name": "name",
                  "type": "string"
                },
                {
                  "components": [
                    {
                      "internalType": "address",
                      "name": "tokenAddress",
                      "type": "address"
                    },
                    {
                      "internalType": "string",
                      "name": "symbol",
                      "type": "string"
                    },
                    {
                      "internalType": "string",
                      "name": "name",
                      "type": "string"
                    },
                    {
                      "internalType": "uint256",
                      "name": "decimals",
                      "type": "uint256"
                    },
                    {
                      "internalType": "uint256",
                      "name": "balance",
                      "type": "uint256"
                    }
                  ],
                  "internalType": "struct IPrimexLens.TokenMetadata",
                  "name": "asset",
                  "type": "tuple"
                },
                {
                  "internalType": "uint128",
                  "name": "bar",
                  "type": "uint128"
                },
                {
                  "internalType": "uint128",
                  "name": "lar",
                  "type": "uint128"
                },
                {
                  "internalType": "uint256",
                  "name": "supply",
                  "type": "uint256"
                },
                {
                  "internalType": "uint256",
                  "name": "demand",
                  "type": "uint256"
                },
                {
                  "internalType": "uint256",
                  "name": "availableLiquidity",
                  "type": "uint256"
                },
                {
                  "internalType": "uint256",
                  "name": "utilizationRatio",
                  "type": "uint256"
                },
                {
                  "components": [
                    {
                      "components": [
                        {
                          "internalType": "address",
                          "name": "tokenAddress",
                          "type": "address"
                        },
                        {
                          "internalType": "string",
                          "name": "symbol",
                          "type": "string"
                        },
                        {
                          "internalType": "string",
                          "name": "name",
                          "type": "string"
                        },
                        {
                          "internalType": "uint256",
                          "name": "decimals",
                          "type": "uint256"
                        },
                        {
                          "internalType": "uint256",
                          "name": "balance",
                          "type": "uint256"
                        }
                      ],
                      "internalType": "struct IPrimexLens.TokenMetadata",
                      "name": "asset",
                      "type": "tuple"
                    },
                    {
                      "components": [
                        {
                          "internalType": "uint256",
                          "name": "id",
                          "type": "uint256"
                        },
                        {
                          "internalType": "bool",
                          "name": "isSupported",
                          "type": "bool"
                        },
                        {
                          "internalType": "uint256",
                          "name": "pairPriceDrop",
                          "type": "uint256"
                        },
                        {
                          "internalType": "uint256",
                          "name": "maxLeverage",
                          "type": "uint256"
                        }
                      ],
                      "internalType": "struct IPrimexLens.BucketTokenMetadata",
                      "name": "properties",
                      "type": "tuple"
                    }
                  ],
                  "internalType": "struct IPrimexLens.SupportedAsset[]",
                  "name": "supportedAssets",
                  "type": "tuple[]"
                },
                {
                  "components": [
                    {
                      "internalType": "address",
                      "name": "tokenAddress",
                      "type": "address"
                    },
                    {
                      "internalType": "string",
                      "name": "symbol",
                      "type": "string"
                    },
                    {
                      "internalType": "string",
                      "name": "name",
                      "type": "string"
                    },
                    {
                      "internalType": "uint256",
                      "name": "decimals",
                      "type": "uint256"
                    },
                    {
                      "internalType": "uint256",
                      "name": "balance",
                      "type": "uint256"
                    }
                  ],
                  "internalType": "struct IPrimexLens.TokenMetadata",
                  "name": "pToken",
                  "type": "tuple"
                },
                {
                  "components": [
                    {
                      "internalType": "address",
                      "name": "tokenAddress",
                      "type": "address"
                    },
                    {
                      "internalType": "string",
                      "name": "symbol",
                      "type": "string"
                    },
                    {
                      "internalType": "string",
                      "name": "name",
                      "type": "string"
                    },
                    {
                      "internalType": "uint256",
                      "name": "decimals",
                      "type": "uint256"
                    },
                    {
                      "internalType": "uint256",
                      "name": "balance",
                      "type": "uint256"
                    }
                  ],
                  "internalType": "struct IPrimexLens.TokenMetadata",
                  "name": "debtToken",
                  "type": "tuple"
                },
                {
                  "internalType": "uint256",
                  "name": "feeBuffer",
                  "type": "uint256"
                },
                {
                  "internalType": "uint256",
                  "name": "withdrawalFeeRate",
                  "type": "uint256"
                },
                {
                  "components": [
                    {
                      "internalType": "contract ILiquidityMiningRewardDistributor",
                      "name": "liquidityMiningRewardDistributor",
                      "type": "address"
                    },
                    {
                      "internalType": "bool",
                      "name": "isBucketLaunched",
                      "type": "bool"
                    },
                    {
                      "internalType": "uint256",
                      "name": "accumulatingAmount",
                      "type": "uint256"
                    },
                    {
                      "internalType": "uint256",
                      "name": "deadlineTimestamp",
                      "type": "uint256"
                    },
                    {
                      "internalType": "uint256",
                      "name": "stabilizationDuration",
                      "type": "uint256"
                    },
                    {
                      "internalType": "uint256",
                      "name": "stabilizationEndTimestamp",
                      "type": "uint256"
                    },
                    {
                      "internalType": "uint256",
                      "name": "maxAmountPerUser",
                      "type": "uint256"
                    },
                    {
                      "internalType": "uint256",
                      "name": "maxDuration",
                      "type": "uint256"
                    },
                    {
                      "internalType": "uint256",
                      "name": "maxStabilizationEndTimestamp",
                      "type": "uint256"
                    }
                  ],
                  "internalType": "struct IBucketStorage.LiquidityMiningParams",
                  "name": "miningParams",
                  "type": "tuple"
                },
                {
                  "components": [
                    {
                      "internalType": "uint256",
                      "name": "amountInMining",
                      "type": "uint256"
                    },
                    {
                      "internalType": "uint256",
                      "name": "currentPercent",
                      "type": "uint256"
                    },
                    {
                      "components": [
                        {
                          "internalType": "uint256",
                          "name": "minReward",
                          "type": "uint256"
                        },
                        {
                          "internalType": "uint256",
                          "name": "maxReward",
                          "type": "uint256"
                        },
                        {
                          "internalType": "uint256",
                          "name": "extraReward",
                          "type": "uint256"
                        }
                      ],
                      "internalType": "struct ILiquidityMiningRewardDistributor.RewardsInPMX",
                      "name": "rewardsInPMX",
                      "type": "tuple"
                    }
                  ],
                  "internalType": "struct IPrimexLens.LenderInfo",
                  "name": "lenderInfo",
                  "type": "tuple"
                },
                {
                  "components": [
                    {
                      "internalType": "uint256",
                      "name": "pmxAmount",
                      "type": "uint256"
                    },
                    {
                      "internalType": "uint256",
                      "name": "withdrawnRewards",
                      "type": "uint256"
                    },
                    {
                      "internalType": "uint256",
                      "name": "totalPoints",
                      "type": "uint256"
                    }
                  ],
                  "internalType": "struct IPrimexLens.LiquidityMiningBucketInfo",
                  "name": "lmBucketInfo",
                  "type": "tuple"
                },
                {
                  "internalType": "uint128",
                  "name": "estimatedBar",
                  "type": "uint128"
                },
                {
                  "internalType": "uint128",
                  "name": "estimatedLar",
                  "type": "uint128"
                },
                {
                  "internalType": "bool",
                  "name": "isDeprecated",
                  "type": "bool"
                },
                {
                  "internalType": "bool",
                  "name": "isDelisted",
                  "type": "bool"
                },
                {
                  "components": [
                    {
                      "internalType": "uint256",
                      "name": "urOptimal",
                      "type": "uint256"
                    },
                    {
                      "internalType": "uint256",
                      "name": "k0",
                      "type": "uint256"
                    },
                    {
                      "internalType": "uint256",
                      "name": "k1",
                      "type": "uint256"
                    },
                    {
                      "internalType": "uint256",
                      "name": "b0",
                      "type": "uint256"
                    },
                    {
                      "internalType": "int256",
                      "name": "b1",
                      "type": "int256"
                    }
                  ],
                  "internalType": "struct IInterestRateStrategy.BarCalculationParams",
                  "name": "barCalcParams",
                  "type": "tuple"
                },
                {
                  "internalType": "uint256",
                  "name": "maxTotalDeposit",
                  "type": "uint256"
                }
              ],
              "internalType": "struct IPrimexLens.BucketMetaData",
              "name": "bucket",
              "type": "tuple"
            },
            {
              "components": [
                {
                  "internalType": "address",
                  "name": "tokenAddress",
                  "type": "address"
                },
                {
                  "internalType": "string",
                  "name": "symbol",
                  "type": "string"
                },
                {
                  "internalType": "string",
                  "name": "name",
                  "type": "string"
                },
                {
                  "internalType": "uint256",
                  "name": "decimals",
                  "type": "uint256"
                },
                {
                  "internalType": "uint256",
                  "name": "balance",
                  "type": "uint256"
                }
              ],
              "internalType": "struct IPrimexLens.TokenMetadata[2]",
              "name": "pair",
              "type": "tuple[2]"
            },
            {
              "internalType": "uint256",
              "name": "positionSize",
              "type": "uint256"
            },
            {
              "internalType": "uint256",
              "name": "liquidationPrice",
              "type": "uint256"
            },
            {
              "internalType": "uint256",
              "name": "stopLossPrice",
              "type": "uint256"
            },
            {
              "internalType": "uint256",
              "name": "takeProfitPrice",
              "type": "uint256"
            },
            {
              "internalType": "uint256",
              "name": "debt",
              "type": "uint256"
            },
            {
              "internalType": "uint256",
              "name": "depositAmount",
              "type": "uint256"
            },
            {
              "internalType": "uint256",
              "name": "createdAt",
              "type": "uint256"
            },
            {
              "internalType": "bytes",
              "name": "extraParams",
              "type": "bytes"
            }
          ],
          "internalType": "struct IPrimexLens.OpenPositionData",
          "name": "",
          "type": "tuple"
        }
      ],
      "stateMutability": "view",
      "type": "function"
    },
    {
      "inputs": [
        {
          "internalType": "address",
          "name": "_positionManager",
          "type": "address"
        },
        {
          "internalType": "uint256",
          "name": "_cursor",
          "type": "uint256"
        },
        {
          "internalType": "uint256",
          "name": "_count",
          "type": "uint256"
        }
      ],
      "name": "getOpenPositionsWithConditions",
      "outputs": [
        {
          "components": [
            {
              "components": [
                {
                  "internalType": "uint256",
                  "name": "id",
                  "type": "uint256"
                },
                {
                  "internalType": "uint256",
                  "name": "scaledDebtAmount",
                  "type": "uint256"
                },
                {
                  "internalType": "contract IBucketV3",
                  "name": "bucket",
                  "type": "address"
                },
                {
                  "internalType": "address",
                  "name": "soldAsset",
                  "type": "address"
                },
                {
                  "internalType": "uint256",
                  "name": "depositAmountInSoldAsset",
                  "type": "uint256"
                },
                {
                  "internalType": "address",
                  "name": "positionAsset",
                  "type": "address"
                },
                {
                  "internalType": "uint256",
                  "name": "positionAmount",
                  "type": "uint256"
                },
                {
                  "internalType": "address",
                  "name": "trader",
                  "type": "address"
                },
                {
                  "internalType": "uint256",
                  "name": "openBorrowIndex",
                  "type": "uint256"
                },
                {
                  "internalType": "uint256",
                  "name": "createdAt",
                  "type": "uint256"
                },
                {
                  "internalType": "uint256",
                  "name": "updatedConditionsAt",
                  "type": "uint256"
                },
                {
                  "internalType": "bytes",
                  "name": "extraParams",
                  "type": "bytes"
                }
              ],
              "internalType": "struct PositionLibrary.Position",
              "name": "positionData",
              "type": "tuple"
            },
            {
              "components": [
                {
                  "internalType": "uint256",
                  "name": "managerType",
                  "type": "uint256"
                },
                {
                  "internalType": "bytes",
                  "name": "params",
                  "type": "bytes"
                }
              ],
              "internalType": "struct LimitOrderLibrary.Condition[]",
              "name": "conditionsData",
              "type": "tuple[]"
            }
          ],
          "internalType": "struct IPrimexLens.OpenPositionWithConditions[]",
          "name": "openPositionsWithConditions",
          "type": "tuple[]"
        },
        {
          "internalType": "uint256",
          "name": "newCursor",
          "type": "uint256"
        }
      ],
      "stateMutability": "view",
      "type": "function"
    },
    {
      "inputs": [
        {
          "internalType": "contract IPositionManagerV2",
          "name": "_pm",
          "type": "address"
        },
        {
          "internalType": "uint256",
          "name": "_id",
          "type": "uint256"
        },
        {
          "internalType": "bytes",
          "name": "_positionSoldAssetOracleData",
          "type": "bytes"
        },
        {
          "internalType": "bytes[][]",
          "name": "_pullOracleData",
          "type": "bytes[][]"
        },
        {
          "internalType": "uint256[]",
          "name": "_pullOracleTypes",
          "type": "uint256[]"
        }
      ],
      "name": "getPositionMaxDecrease",
      "outputs": [
        {
          "internalType": "uint256",
          "name": "",
          "type": "uint256"
        }
      ],
      "stateMutability": "payable",
      "type": "function"
    },
    {
      "inputs": [
        {
          "internalType": "address",
          "name": "_bucket",
          "type": "address"
        },
        {
          "internalType": "address",
          "name": "_asset",
          "type": "address"
        },
        {
          "internalType": "address",
          "name": "_trader",
          "type": "address"
        }
      ],
      "name": "getSupportedAsset",
      "outputs": [
        {
          "components": [
            {
              "components": [
                {
                  "internalType": "address",
                  "name": "tokenAddress",
                  "type": "address"
                },
                {
                  "internalType": "string",
                  "name": "symbol",
                  "type": "string"
                },
                {
                  "internalType": "string",
                  "name": "name",
                  "type": "string"
                },
                {
                  "internalType": "uint256",
                  "name": "decimals",
                  "type": "uint256"
                },
                {
                  "internalType": "uint256",
                  "name": "balance",
                  "type": "uint256"
                }
              ],
              "internalType": "struct IPrimexLens.TokenMetadata",
              "name": "asset",
              "type": "tuple"
            },
            {
              "components": [
                {
                  "internalType": "uint256",
                  "name": "id",
                  "type": "uint256"
                },
                {
                  "internalType": "bool",
                  "name": "isSupported",
                  "type": "bool"
                },
                {
                  "internalType": "uint256",
                  "name": "pairPriceDrop",
                  "type": "uint256"
                },
                {
                  "internalType": "uint256",
                  "name": "maxLeverage",
                  "type": "uint256"
                }
              ],
              "internalType": "struct IPrimexLens.BucketTokenMetadata",
              "name": "properties",
              "type": "tuple"
            }
          ],
          "internalType": "struct IPrimexLens.SupportedAsset",
          "name": "",
          "type": "tuple"
        }
      ],
      "stateMutability": "view",
      "type": "function"
    },
    {
      "inputs": [
        {
          "internalType": "address",
          "name": "_bucket",
          "type": "address"
        },
        {
          "internalType": "address[]",
          "name": "_assets",
          "type": "address[]"
        },
        {
          "internalType": "address",
          "name": "_trader",
          "type": "address"
        }
      ],
      "name": "getSupportedAssetArray",
      "outputs": [
        {
          "components": [
            {
              "components": [
                {
                  "internalType": "address",
                  "name": "tokenAddress",
                  "type": "address"
                },
                {
                  "internalType": "string",
                  "name": "symbol",
                  "type": "string"
                },
                {
                  "internalType": "string",
                  "name": "name",
                  "type": "string"
                },
                {
                  "internalType": "uint256",
                  "name": "decimals",
                  "type": "uint256"
                },
                {
                  "internalType": "uint256",
                  "name": "balance",
                  "type": "uint256"
                }
              ],
              "internalType": "struct IPrimexLens.TokenMetadata",
              "name": "asset",
              "type": "tuple"
            },
            {
              "components": [
                {
                  "internalType": "uint256",
                  "name": "id",
                  "type": "uint256"
                },
                {
                  "internalType": "bool",
                  "name": "isSupported",
                  "type": "bool"
                },
                {
                  "internalType": "uint256",
                  "name": "pairPriceDrop",
                  "type": "uint256"
                },
                {
                  "internalType": "uint256",
                  "name": "maxLeverage",
                  "type": "uint256"
                }
              ],
              "internalType": "struct IPrimexLens.BucketTokenMetadata",
              "name": "properties",
              "type": "tuple"
            }
          ],
          "internalType": "struct IPrimexLens.SupportedAsset[]",
          "name": "",
          "type": "tuple[]"
        }
      ],
      "stateMutability": "view",
      "type": "function"
    },
    {
      "inputs": [
        {
          "internalType": "address[]",
          "name": "_tokens",
          "type": "address[]"
        },
        {
          "internalType": "address",
          "name": "_trader",
          "type": "address"
        }
      ],
      "name": "getTokenArrayMetadata",
      "outputs": [
        {
          "components": [
            {
              "internalType": "address",
              "name": "tokenAddress",
              "type": "address"
            },
            {
              "internalType": "string",
              "name": "symbol",
              "type": "string"
            },
            {
              "internalType": "string",
              "name": "name",
              "type": "string"
            },
            {
              "internalType": "uint256",
              "name": "decimals",
              "type": "uint256"
            },
            {
              "internalType": "uint256",
              "name": "balance",
              "type": "uint256"
            }
          ],
          "internalType": "struct IPrimexLens.TokenMetadata[]",
          "name": "",
          "type": "tuple[]"
        }
      ],
      "stateMutability": "view",
      "type": "function"
    },
    {
      "inputs": [
        {
          "internalType": "address",
          "name": "_token",
          "type": "address"
        },
        {
          "internalType": "address",
          "name": "_trader",
          "type": "address"
        }
      ],
      "name": "getTokenMetadata",
      "outputs": [
        {
          "components": [
            {
              "internalType": "address",
              "name": "tokenAddress",
              "type": "address"
            },
            {
              "internalType": "string",
              "name": "symbol",
              "type": "string"
            },
            {
              "internalType": "string",
              "name": "name",
              "type": "string"
            },
            {
              "internalType": "uint256",
              "name": "decimals",
              "type": "uint256"
            },
            {
              "internalType": "uint256",
              "name": "balance",
              "type": "uint256"
            }
          ],
          "internalType": "struct IPrimexLens.TokenMetadata",
          "name": "",
          "type": "tuple"
        }
      ],
      "stateMutability": "view",
      "type": "function"
    },
    {
      "inputs": [
        {
          "internalType": "address",
          "name": "_positionManager",
          "type": "address"
        },
        {
          "internalType": "uint256",
          "name": "_id",
          "type": "uint256"
        },
        {
          "internalType": "bytes",
          "name": "_positionSoldAssetOracleData",
          "type": "bytes"
        },
        {
          "internalType": "bytes[][]",
          "name": "_pullOracleData",
          "type": "bytes[][]"
        },
        {
          "internalType": "uint256[]",
          "name": "_pullOracleTypes",
          "type": "uint256[]"
        }
      ],
      "name": "isStopLossReached",
      "outputs": [
        {
          "internalType": "bool",
          "name": "",
          "type": "bool"
        }
      ],
      "stateMutability": "payable",
      "type": "function"
    },
    {
      "inputs": [
        {
          "internalType": "bytes4",
          "name": "interfaceId",
          "type": "bytes4"
        }
      ],
      "name": "supportsInterface",
      "outputs": [
        {
          "internalType": "bool",
          "name": "",
          "type": "bool"
        }
      ],
      "stateMutability": "view",
      "type": "function"
    },
    {
      "inputs": [],
      "name": "takeProfitStopLossCCM",
      "outputs": [
        {
          "internalType": "address",
          "name": "",
          "type": "address"
        }
      ],
      "stateMutability": "view",
      "type": "function"
    }
  ],
  "transactionHash": "0x933f1200449c359a5da2125f9dcda8bc5fa52f2eb214a4a727191f34b345a542",
  "args": [
    "0x9A78eDe3996447a127A98A01b13059809E75E7E1"
  ],
  "numDeployments": 5,
  "solcInputHash": "b9821e6aa5ae8bcd6a583375e546781d",
  "bytecode": "0x60a080604052346100f957602081615ef1803803809161001f82856100fe565b8339810103126100f957516001600160a01b0381168082036100f9576040516301ffc9a760e01b8152630452934760e01b600482015290602090829060249082905afa9081156100ed576000916100ab575b501561009957608052604051615db990816101388239608051818181610fc70152613e8b0152f35b60405163044aa57560e41b8152600490fd5b6020813d6020116100e5575b816100c4602093836100fe565b810103126100e157519081151582036100de575038610071565b80fd5b5080fd5b3d91506100b7565b6040513d6000823e3d90fd5b600080fd5b601f909101601f19168101906001600160401b0382119082101761012157604052565b634e487b7160e01b600052604160045260246000fdfe6102e080604052600436101561001457600080fd5b600090813560e01c90816301ffc9a7146116e75750806314fdc0731461169d57806316569dc1146114a657806336ca926314611253578063429bd6461461110957806344ec16141461106b5780634acefed4146110295780636629bf0a14610ff6578063679bfb5b14610fb15780636c5a9cd114610f7457806388782ed914610edd5780638ddbcc6214610ec25780639e09d40e14610e45578063a8d028b514610e03578063b23c434014610d9c578063b29d57d814610d40578063b3e1d9f214610cde578063bdf4cd1814610c7b578063d030bb2514610c53578063debd310d14610c24578063e10a27a4146109e4578063f107f834146108ca5763fa24cc661461011f57600080fd5b60a03660031901126108c75761013361173c565b6044356001600160401b0381116108c357610152903690600401611f3b565b926064356001600160401b0381116108bf57610172903690600401611860565b936084356001600160401b0381116108bb57610192903690600401611860565b604051632630c12f60e01b81526001600160a01b0390931696909391926020816004818b5afa90811561081757869161089c575b506001600160a01b031691823b156108985790859392916101fd6040519687958694859463f197ce3560e01b865260048601613af0565b039134905af1801561088d5761087d575b50906040519263eb02c30160e01b845260243560048501528284602481845afa93841561087257839461084e575b50604051632630c12f60e01b815290602082600481845afa918215610843578492610822575b5060a085018051606087018051604051631dae49b960e21b81526001600160a01b039384166004820152908316602482015292989094909160209184916044918391165afa9182156108175786926107e3575b506040516301ddf49360e61b8152602081600481875afa9081156106a85787916107b1575b5060405163084b557b60e21b815294602086600481885afa9586156107a6578896610770575b508951815160405163a8905dab60e01b81526001600160a01b03928316600482015291166024820152959660208780604481015b0381895afa938415610765578994610730575b60408b81018051915163280188b760e21b8152909d909950906020908a9060049082906001600160a01b03165afa98891561072557908c949392918c9a6106eb575b5051925160c09490940151604051632630c12f60e01b815290986001600160a01b039586169590941693602090829060049082905afa9081156106e05791602095949391610418938e916106b3575b506040519a8b96879663735aad2560e01b885260048801526024870152604486015260018060a01b0316606485015260a0608485015260a4840191613acf565b0381737A0FFAaEFbed420d00c5E60c1668693a8a26B88C5af49384156106a8578794610674575b50670de0b6b3a76400000390670de0b6b3a7640000821161066057670de0b6b3a76400000390670de0b6b3a76400008211610660579061047e91615d06565b90670de0b6b3a76400000390670de0b6b3a7640000821161064c576104ac92916104a791615d06565b615d06565b91670de0b6b3a7640000019081670de0b6b3a76400001161063857906104d191615d06565b90670de0b6b3a7640000808202938285048214831517156105b857806106245750830403610613576105148161050f60049460209460011c90615d6e565b615ce6565b93516040516368d0612f60e01b815292839182906001600160a01b03165afa8015610607576000906105ce575b6105519150602083015190615d37565b916b019d971e4fe8401e740000008301928381116105b85783106105a75761058c6080916b033b2e3c9fd0803ce8000000602095049061226a565b9101518082116105a057505b604051908152f35b9050610598565b630a77254f60e01b60005260046000fd5b634e487b7160e01b600052601160045260246000fd5b506020813d6020116105ff575b816105e860209383611cad565b810103126105fa576105519051610541565b600080fd5b3d91506105db565b6040513d6000823e3d90fd5b631550e8b760e01b60005260046000fd5b634e487b7160e01b81526012600452602490fd5b634e487b7160e01b84526011600452602484fd5b634e487b7160e01b86526011600452602486fd5b634e487b7160e01b87526011600452602487fd5b9093506020813d6020116106a0575b8161069060209383611cad565b810103126105fa5751923861043f565b3d9150610683565b6040513d89823e3d90fd5b6106d39150873d89116106d9575b6106cb8183611cad565b81019061224b565b386103d8565b503d6106c1565b6040513d8e823e3d90fd5b945098506020843d60201161071d575b8161070860209383611cad565b810103126105fa579251978b93906020610389565b3d91506106fb565b6040513d8d823e3d90fd5b93506020873d60201161075d575b8161074b60209383611cad565b810103126105fa576004965193610347565b3d915061073e565b6040513d8b823e3d90fd5b95506020863d60201161079e575b8161078b60209383611cad565b810103126105fa57610334955195610300565b3d915061077e565b6040513d8a823e3d90fd5b90506020813d6020116107db575b816107cc60209383611cad565b810103126105fa5751386102da565b3d91506107bf565b9091506020813d60201161080f575b816107ff60209383611cad565b810103126105fa575190386102b5565b3d91506107f2565b6040513d88823e3d90fd5b61083c91925060203d6020116106d9576106cb8183611cad565b9038610262565b6040513d86823e3d90fd5b61086b9194503d8085833e6108638183611cad565b810190612778565b923861023c565b6040513d85823e3d90fd5b8161088791611cad565b3861020e565b6040513d84823e3d90fd5b8580fd5b6108b5915060203d6020116106d9576106cb8183611cad565b386101c6565b8380fd5b5080fd5b8280fd5b80fd5b50346108c75760403660031901126108c7576004356001600160401b0381116108bf576108fb903690600401611860565b90610904611752565b9061090e8361200c565b9161091c6040519384611cad565b8383526109288461200c565b9361093b6020850195601f190186613597565b855b8181106109a957868587604051928392602084019060208552518091526040840160408260051b8601019392905b82821061097a57505050500390f35b919360019193955060206109998192603f198a820301865288516117c6565b960192019201859493919261096b565b806109c8846109c36109be600195878a61213f565b612165565b612b38565b6109d2828861220e565b526109dd818761220e565b500161093d565b50346108c75760203660031901126108c7576004356001600160401b0381116108bf57610a15903690600401611860565b610a1e8161200c565b91610a2c6040519384611cad565b818352601f19610a3b8361200c565b01845b818110610c0d575050835b828110610acf578385604051918291602083016020845282518091526020604085019301915b818110610a7d575050500390f35b91935091602060a060019269ffffffffffffffffffff60808851828151168452858101518685015260408101516040850152606081015160608501520151166080820152019401910191849392610a6f565b6001600160a01b03610ae56109be83868661213f565b1615610bfb5760049060a06001600160a01b03610b066109be84888861213f565b1660405193848092633fabe5a360e21b82525afa8015610817578687889089928a94610b9b575b6001965069ffffffffffffffffffff610b46878c61220e565b51911690526020610b57868b61220e565b5101526040610b66858a61220e565b5101526060610b75848961220e565b51015269ffffffffffffffffffff6080610b8f848961220e565b51019116905201610a49565b505050505060a0823d8211610bf3575b81610bb860a09383611cad565b810103126108985781610bcc600193615ccf565b6020820151916040810151610be8608060608401519301615ccf565b929390919293610b2d565b3d9150610bab565b60405163044aa57560e41b8152600490fd5b602090610c1861345b565b82828801015201610a3e565b50346108c757610c3f610c3636611f68565b92919091615ac3565b90610c4f60405192839283611fa6565b0390f35b50346108c75760403660031901126108c7576020610598610c7261173c565b60243590615880565b50346108c75760603660031901126108c757610c9561173c565b90602435906001600160401b0382116108c757610c4f610cca84610cbc3660048701612023565b610cc4611768565b916157e2565b60405191829160208352602083019061189f565b50346108c75760803660031901126108c757600435906001600160401b0382116108c757610c4f610d34610d153660048601612023565b610d1d611752565b610d25611768565b90610d2e611890565b9261543e565b60405191829182611b3f565b50346108c75760403660031901126108c7576080610d6d610d5f61173c565b610d67611752565b90615039565b610d9a60405180926060809180518452602081015115156020850152604081015160408501520151910152565bf35b50346108c75760403660031901126108c757610db661173c565b90602435906001600160401b0382116108c7576060610de284610ddc3660048701611ce9565b90614f7f565b610d9a60405180926040809180518452602081015160208501520151910152565b50346108c75760403660031901126108c757610c4f610e31610e2361173c565b610e2b611752565b90614403565b6040519182916020835260208301906118fa565b50346108c75760603660031901126108c757610e5f61173c565b90602435906001600160401b0382116108c75760a0610e9384610e853660048701611ce9565b610e8d611768565b916142e5565b604080518251815260208084015181830152928201518051828401529283015160608201529101516080820152f35b50346108c757610c3f610ed436611f68565b929190916140c9565b5060a03660031901126108c757610ef261173c565b6044356001600160401b0381116108c357610f11903690600401611f3b565b90926064356001600160401b0381116108bf57610f32903690600401611860565b929091608435906001600160401b0382116108c7576020610f6a8888888888610f5e3660048b01611860565b95909460243590613c28565b6040519015158152f35b50346108c75760403660031901126108c757610c4f610f9d610f9461173c565b60243590613672565b604051918291602083526020830190611e6e565b50346108c757806003193601126108c7576040517f00000000000000000000000000000000000000000000000000000000000000006001600160a01b03168152602090f35b50346108c75760403660031901126108c7576004359060068210156108c757602061059883611023611752565b90612d5c565b50346108c75760403660031901126108c757610c4f61105761104961173c565b611051611752565b90612b38565b6040519182916020835260208301906117c6565b50346108c75761108361107d36611d30565b9161285d565b9190604051916040830160408452825180915260608401602060608360051b870101940192905b8282106110be578580868960208301520390f35b909192936020806110fb600193605f198a8203018652885190836110eb8351604084526040840190611dc4565b9201519084818403910152611d5a565b9601920192019092916110aa565b50346108c75761112161111b36611d30565b9161239e565b9190604051916040830160408452825180915260608401602060608360051b870101940192905b82821061115c578580868960208301520390f35b90919293602080611245600193605f198a8203018652885190836110eb6101a0845160408552898060a01b038151166040860152898060a01b0384820151166060860152898060a01b036040820151166080860152606081015160a0860152898060a01b0360808201511660c086015260a081015160e0860152898060a01b0360c08201511661010086015260e08101516101208601526101008101516101408601526101208101516101608601526101408101511515610180860152610160810151828601526101808101516101c086015201516101c06101e08501526102008401906117a1565b960192019201909291611148565b50346108c75760a03660031901126108c75761126d61173c565b6024356001600160401b0381116108c35761128c903690600401611ce9565b906064356001600160a01b038116918282036114a2576040516301ffc9a760e01b8152633d79d7fb60e11b60048201526001600160a01b039190911692602082602481875afa918215610817578692611466575b508161145c575b5015610bfb57602060049260405193848092633f4a2d2760e01b82525afa9182156108435761134592602091869161143f575b5060018060a01b0316936040518094819263af9a2aa760e01b835284600484015260248301906117a1565b0381865afa8015610843578490611405575b604051631839f03960e21b81526001600160a01b0391821660048201529181166024830152608480356044808501919091523560648401529316928101929092525060208160a481737A0FFAaEFbed420d00c5E60c1668693a8a26B88C5af490811561088d5782916113cf575b602082604051908152f35b90506020813d6020116113fd575b816113ea60209383611cad565b810103126108bf576020915051386113c4565b3d91506113dd565b506020823d602011611437575b8161141f60209383611cad565b810103126108bb57611432602092612179565b611357565b3d9150611412565b6114569150823d84116106d9576106cb8183611cad565b3861131a565b90501515386112e7565b9091506020813d60201161149a575b8161148260209383611cad565b81010312610898576114939061223e565b90386112e0565b3d9150611475565b8480fd5b50346108c75760803660031901126108c7576004356001600160401b0381116108bf576114d7903690600401611860565b91906114e1611752565b6114e9611768565b6114f1611890565b946114fb8161200c565b936115096040519586611cad565b818552601f196115188361200c565b01865b81811061168c575050855b82811061160d57505050839484955b845187101561155e5761155660019161154e898861220e565b515190612222565b960195611535565b90849186939461156d8261200c565b9161157b6040519384611cad565b80835261158a601f199161200c565b013660208401378495855b85518710156115fe5780975b6115ab888861220e565b51518910156115f1576001906115e9906001600160a01b036115d78c6115d18d8d61220e565b5161220e565b51166115e3828961220e565b5261222f565b9801976115a1565b9750600190960195611595565b50610c4f9391610d349361543e565b6004876001600160a01b036116266109be85888861213f565b166040519283809263f9776bcb60e01b82525afa9081156107a6579060019291899161166a575b50611658828961220e565b52611663818861220e565b5001611526565b61168691503d808b833e61167e8183611cad565b81019061218d565b3861164d565b806060602080938a0101520161151b565b50346108c75760603660031901126108c757610c4f6116d36116bd61173c565b6116c5611752565b6116cd611768565b9161210a565b604051918291602083526020830190611817565b9050346108bf5760203660031901126108bf5760043563ffffffff60e01b81168091036108c3576020925063055e0aa960e51b811490811561172b575b5015158152f35b6301ffc9a760e01b14905038611724565b600435906001600160a01b03821682036105fa57565b602435906001600160a01b03821682036105fa57565b604435906001600160a01b03821682036105fa57565b60005b8381106117915750506000910152565b8181015183820152602001611781565b906020916117ba8151809281855285808601910161177e565b601f01601f1916010190565b9060018060a01b0382511681526080806118046117f2602086015160a0602087015260a08601906117a1565b604086015185820360408701526117a1565b9360608101516060850152015191015290565b9061185d90602080611832855160a0855260a08501906117c6565b9401519101906060809180518452602081015115156020850152604081015160408501520151910152565b90565b9181601f840112156105fa578235916001600160401b0383116105fa576020808501948460051b0101116105fa57565b6064359081151582036105fa57565b9080602083519182815201916020808360051b8301019401926000915b8383106118cb57505050505090565b90919293946020806118e9600193601f198682030187528951611817565b970193019301919392906118bc565b565b9060018060a01b0382511681526105006102c06119d26119be6119aa611946611934602089015161052060208a01526105208901906117a1565b604089015188820360408a01526117c6565b6001600160801b0360608901511660608801526001600160801b03608089015116608088015260a088015160a088015260c088015160c088015260e088015160e088015261010088015161010088015261012088015187820361012089015261189f565b6101408701518682036101408801526117c6565b6101608601518582036101608701526117c6565b936101808101516101808501526101a08101516101a08501526101006101c082015160018060a01b038151166101c0870152602081015115156101e087015260408101516102008701526060810151610220870152608081015161024087015260a081015161026087015260c081015161028087015260e08101516102a0870152015182850152611a956101e08201516102e086019080518252602080820151818401526040918201518051838501529081015160608401520151608090910152565b610200810151805161038086015260208101516103a0860152604001516103c08501526001600160801b03610220820151166103e08501526001600160801b03610240820151166104008501526102608101511515610420850152610280810151151561044085015260806102a08201518051610460870152602081015161048087015260408101516104a087015260608101516104c087015201516104e0850152015191015290565b602081016020825282518091526040820191602060408360051b8301019401926000915b838310611b7257505050505090565b9091929394602080611b90600193603f1986820301875289516118fa565b97019301930191939290611b63565b60a081019081106001600160401b03821117611bba57604052565b634e487b7160e01b600052604160045260246000fd5b608081019081106001600160401b03821117611bba57604052565b604081019081106001600160401b03821117611bba57604052565b6101c081019081106001600160401b03821117611bba57604052565b61018081019081106001600160401b03821117611bba57604052565b606081019081106001600160401b03821117611bba57604052565b6102e081019081106001600160401b03821117611bba57604052565b61012081019081106001600160401b03821117611bba57604052565b61016081019081106001600160401b03821117611bba57604052565b90601f801991011681019081106001600160401b03821117611bba57604052565b6001600160401b038111611bba57601f01601f191660200190565b81601f820112156105fa57803590611d0082611cce565b92611d0e6040519485611cad565b828452602083830101116105fa57816000926020809301838601378301015290565b60609060031901126105fa576004356001600160a01b03811681036105fa57906024359060443590565b9080602083519182815201916020808360051b8301019401926000915b838310611d8657505050505090565b9091929394602080611db5600193601f198682030187526040838b5180518452015191818582015201906117a1565b97019301930191939290611d77565b9061018061016061185d93805184526020810151602085015260018060a01b03604082015116604085015260018060a01b0360608201511660608501526080810151608085015260018060a01b0360a08201511660a085015260c081015160c085015260018060a01b0360e08201511660e08501526101008101516101008501526101208101516101208501526101408101516101408501520151918161016082015201906117a1565b919082518152611e8f602084015161016060208401526101608301906118fa565b6040848101518383038285015290820192916000815b60028210611f14575050505061014084606061185d9596015160608401526080810151608084015260a081015160a084015260c081015160c084015260e081015160e08401526101008101516101008401526101208101516101208401520151906101408184039101526117a1565b90919294602080611f2d838760019503865289516117c6565b970192019201909291611ea5565b9181601f840112156105fa578235916001600160401b0383116105fa57602083818601950101116105fa57565b60809060031901126105fa576004356001600160a01b03811681036105fa57906024356001600160a01b03811681036105fa57906044359060643590565b92919060408401906040855280518092526060850191602060608260051b8801019201926000905b828210611fe15750505060209150930152565b909192602080611ffd600193605f198c82030186528851611e6e565b96019201920190939291611fce565b6001600160401b038111611bba5760051b60200190565b9080601f830112156105fa5781359061203b8261200c565b926120496040519485611cad565b82845260208085019360051b8201019182116105fa57602001915b8183106120715750505090565b82356001600160a01b03811681036105fa57815260209283019201612064565b6040519061209e82611b9f565b600060808382815260606020820152606060408201528260608201520152565b604051906120cb82611bd0565b60006060838281528260208201528260408201520152565b604051906120f082611beb565b816120f9612091565b815260206121056120be565b910152565b91906121226121289261211b6120e3565b5082612b38565b92615039565b6040519161213583611beb565b8252602082015290565b919081101561214f5760051b0190565b634e487b7160e01b600052603260045260246000fd5b356001600160a01b03811681036105fa5790565b51906001600160a01b03821682036105fa57565b6020818303126105fa578051906001600160401b0382116105fa57019080601f830112156105fa5781516121c08161200c565b926121ce6040519485611cad565b81845260208085019260051b8201019283116105fa57602001905b8282106121f65750505090565b6020809161220384612179565b8152019101906121e9565b805182101561214f5760209160051b010190565b919082018092116105b857565b60001981146105b85760010190565b519081151582036105fa57565b908160209103126105fa57516001600160a01b03811681036105fa5790565b919082039182116105b857565b9092919261228481611cce565b916122926040519384611cad565b8294828452828201116105fa5760206118f893019061177e565b9080601f830112156105fa57815161185d92602001612277565b6020818303126105fa578051906001600160401b0382116105fa57019080601f830112156105fa578151916122fa8361200c565b926123086040519485611cad565b80845260208085019160051b830101918383116105fa5760208101915b83831061233457505050505090565b82516001600160401b0381116105fa578201906040828703601f1901126105fa576040519061236282611beb565b602083015182526040830151916001600160401b0383116105fa5761238f886020809695819601016122ac565b83820152815201920191612325565b6040516301ffc9a760e01b815263fabd349d60e01b6004820152600094936001600160a01b039092169190602081602481865afa9081156106075760009161273e575b5015610bfb576040516301f0b85b60e21b815290602082600481865afa9182156106075760009261270a575b50818410156126fc57816124218286612222565b106126e75750826124319161226a565b905b61243c8261200c565b9261244a6040519485611cad565b828452601f196124598461200c565b0160005b81811061265457505060005b83811061247857505050509190565b6124828183612222565b6040519063dabe8a7160e01b82526004820152600081602481875afa90811561060757600091612530575b506124b8828761220e565b51526101006124c7828761220e565b515101519060405191635973af3960e01b83526004830152600082602481875afa80156106075760019260009161250f575b506020612506838961220e565b51015201612469565b61252a913d8091833e6125228183611cad565b8101906122c6565b386124f9565b3d8083833e61253f8183611cad565b8101906020818303126108c3578051906001600160401b0382116108bb5701916101c0838303126108c7576040519261257784611c06565b61258081612179565b845261258e60208201612179565b602085015261259f60408201612179565b6040850152606081015160608501526125ba60808201612179565b608085015260a081015160a08501526125d560c08201612179565b60c085015260e081015160e0850152610100810151610100850152610120810151610120850152612609610140820161223e565b6101408501526101608101516101608501526101808101516101808501526101a0810151916001600160401b0383116108c757506126489291016122ac565b6101a0820152386124ad565b60209060405161266381611beb565b60405161266f81611c06565b60008152600084820152600060408201526000606082015260006080820152600060a0820152600060c0820152600060e08201526000610100820152600061012082015260006101408201526000610160820152600061018082015260606101a082015281526060838201528282890101520161245d565b809295506126f6915083612222565b93612433565b505050509050606090600090565b90916020823d602011612736575b8161272560209383611cad565b810103126108c7575051903861240d565b3d9150612718565b90506020813d602011612770575b8161275960209383611cad565b810103126105fa5761276a9061223e565b386123e1565b3d915061274c565b6020818303126105fa578051906001600160401b0382116105fa5701610180818303126105fa57604051916127ac83611c22565b81518352602082015160208401526127c660408301612179565b60408401526127d760608301612179565b6060840152608082015160808401526127f260a08301612179565b60a084015260c082015160c084015261280d60e08301612179565b60e08401526101008201516101008401526101208201516101208401526101408201516101408401526101608201516001600160401b0381116105fa5761285492016122ac565b61016082015290565b6040516301ffc9a760e01b8152633d79d7fb60e11b6004820152600094936001600160a01b039092169190602081602481865afa90811561060757600091612ac8575b5015610bfb57604051630d96c0f960e21b815290602082600481865afa91821561060757600092612a94575b50818410156126fc57816128e08286612222565b10612a7f5750826128f09161226a565b905b6128fb8261200c565b926129096040519485611cad565b828452601f196129188461200c565b0160005b8181106129fc57505060005b83811061293757505050509190565b6129418183612222565b604051906344ff7dc360e01b82526004820152600081602481875afa908115610607576000916129e3575b50612977828761220e565b5152612983818661220e565b5151519060405191631d40683560e31b83526004830152600082602481875afa8015610607576001926000916129ca575b5060206129c1838961220e565b51015201612928565b6129dd913d8091833e6125228183611cad565b386129b4565b6129f6913d8091833e6108638183611cad565b3861296c565b602090604051612a0b81611beb565b604051612a1781611c22565b60008152600084820152600060408201526000606082015260006080820152600060a0820152600060c0820152600060e0820152600061010082015260006101208201526000610140820152606061016082015281526060838201528282890101520161291c565b80929550612a8e915083612222565b936128f2565b90916020823d602011612ac0575b81612aaf60209383611cad565b810103126108c757505190386128cc565b3d9150612aa2565b90506020813d602011612afa575b81612ae360209383611cad565b810103126105fa57612af49061223e565b386128a0565b3d9150612ad6565b6020818303126105fa578051906001600160401b0382116105fa57019080601f830112156105fa57815161185d92602001612277565b612b40612091565b506001600160a01b0316908115610bfb576040516395d89b4160e01b815290600082600481865afa91821561060757600092612cce575b506040516306fdde0360e01b815290600082600481875afa91821561060757600092612ca9575b5060405163313ce56760e01b8152602081600481885afa90811561060757600091612c6d575b506001600160a01b03909116918215612c6157604051926370a0823160e01b84526004840152602083602481885afa801561060757600090612c2e575b60ff9350935b60405195612c1487611b9f565b865260208601526040850152166060830152608082015290565b506020833d602011612c59575b81612c4860209383611cad565b810103126105fa5760ff9251612c01565b3d9150612c3b565b60ff9250600093612c07565b6020813d602011612ca1575b81612c8660209383611cad565b810103126108bf57519060ff821682036108c7575038612bc4565b3d9150612c79565b612cc79192503d806000833e612cbf8183611cad565b810190612b02565b9038612b9e565b612ce49192503d806000833e612cbf8183611cad565b9038612b77565b91908260809103126105fa578151916020810151916060604083015192015160038110156105fa5790565b60031115612d2057565b634e487b7160e01b600052602160045260246000fd5b818102929181159184041417156105b857565b919060208301926006821015612d205752565b604051632630c12f60e01b81526001600160a01b0390921691602081600481865afa908115610607576000916133fa575b50604051637496a94d60e11b8152602081600481875afa908115610607576000916133db575b50612dbc6120be565b60405163455259cb60e01b81523a93602090829060049082906001600160a01b03165afa908115610607576000916133a8575b508152604051632c18d6af60e21b815291608090839060049082906001600160a01b03165afa91821561060757600090600093613382575b50826040830152806060830152815192600084136000146133755750670de0b6b3a7640000019182670de0b6b3a7640000116105b857602092612e6991615d06565b9182915b0152803a11801561336d575b613365575b50604051637496a94d60e11b815291602083600481875afa92831561060757600493608091600091613346575b50604051632c18d6af60e21b815294859182906001600160a01b03165afa9384156106075760009360009561330c575b50604051633f4a2d2760e01b815293602085600481855afa948515610607576004956020916000916132ef575b506040516324890e1560e21b815296879182906001600160a01b03165afa948515610607576000956132bb575b50600095612f4281612d16565b8061301a575b5050602060049160405192838092633f4a2d2760e01b82525afa91821561060757612f9492602092600091612ffd575b50604051808095819463ee42b2d160e01b835260048301612d49565b03916001600160a01b03165afa90811561060757600091612fc7575b5092612fc2612fc29261185d95612d36565b612222565b9390506020843d602011612ff5575b81612fe360209383611cad565b810103126105fa579251612fc2612fb0565b3d9150612fd6565b6130149150833d85116106d9576106cb8183611cad565b38612f78565b61302381612d16565b60018114613174575b60029061303881612d16565b146130435780612f48565b9450600491925060209060405192838092633f4a2d2760e01b82525afa9182156106075761309292602092600091613157575b5060405180809581946306bdf5b760e21b835260048301612d49565b03916001600160a01b03165afa90811561060757600091613125575b5060405163f1c7a58b60e01b81526004810191909152602081602481600f602160991b015afa908115610607576000916130f1575b5061185d92612fc291615d06565b90506020813d60201161311d575b8161310c60209383611cad565b810103126105fa575161185d6130e3565b3d91506130ff565b90506020813d60201161314f575b8161314060209383611cad565b810103126105fa5751386130ae565b3d9150613133565b61316e9150833d85116106d9576106cb8183611cad565b38613076565b60405163f5d6ded760e01b8152909650602081600481606c5afa90811561060757600091613289575b508060041b90808204601014901517156105b857604051633f4a2d2760e01b815290602082600481875afa91821561060757600092613268575b50602060405180936306bdf5b760e21b825281806131f88a60048301612d49565b03916001600160a01b03165afa91821561060757600092613234575b50608c82018092116105b85760029161322c91612d36565b96905061302c565b90916020823d602011613260575b8161324f60209383611cad565b810103126108c75750519038613214565b3d9150613242565b61328291925060203d6020116106d9576106cb8183611cad565b90386131d7565b906020823d6020116132b3575b816132a360209383611cad565b810103126108c75750513861319d565b3d9150613296565b90946020823d6020116132e7575b816132d660209383611cad565b810103126108c75750519338612f35565b3d91506132c9565b6133069150823d84116106d9576106cb8183611cad565b38612f08565b90945061333291935060803d60801161333f575b61332a8183611cad565b810190612ceb565b9492509050929338612edb565b503d613320565b61335f915060203d6020116106d9576106cb8183611cad565b38612eab565b905038612e7e565b503a15612e79565b9250829160209150612e6d565b905061339e91925060803d60801161333f5761332a8183611cad565b5050919038612e27565b90506020813d6020116133d3575b816133c360209383611cad565b810103126105fa57516004612def565b3d91506133b6565b6133f4915060203d6020116106d9576106cb8183611cad565b38612db3565b613413915060203d6020116106d9576106cb8183611cad565b38612d8d565b6040519061342682611c3e565b60006040838281528260208201520152565b6040519061344582611c3e565b8160008152600060208201526040612105613419565b6040519061346882611b9f565b60006080838281528260208201528260408201528260608201520152565b6040519061349382611c59565b60006102c083828152606060208201526134ab612091565b60408201528260608201528260808201528260a08201528260c08201528260e08201528261010082015260606101208201526134e5612091565b6101408201526134f3612091565b61016082015282610180820152826101a082015260405161351381611c75565b8381528360208201528360408201528360608201528360808201528360a08201528360c08201528360e0820152836101008201526101c0820152613555613438565b6101e0820152613563613419565b6102008201528261022082015282610240820152826102608201528261028082015261358d61345b565b6102a08201520152565b60005b8281106135a657505050565b6020906135b1612091565b818401520161359a565b604051906135c882611c91565b81600081526135d5613486565b602082015260408051906135e98183611cad565b60005b8181106136355750916101409160609382015260008382015260006080820152600060a0820152600060c0820152600060e0820152600061010082015260006101208201520152565b602090613640612091565b81850152016135ec565b908160409103126105fa5760206040519161366483611beb565b805183520151602082015290565b9061367b6135bb565b506040516301ffc9a760e01b8152633d79d7fb60e11b60048201526001600160a01b0383169290602081602481875afa90811561060757600091613a95575b5015610bfb5760405163eb02c30160e01b815260048101839052600081602481875afa90811561060757600091613a7c575b50604081810180519151632f60fad360e21b81526004810186905290936001600160a01b0390921615916020826024818a5afa91821561060757600092613a48575b50613737613486565b948315613a22575b50604051631d40683560e31b8152600481018790526000816024818b5afa90811561060757600091613a09575b50604051600061377b82611beb565b80825260208201529760005b82518110156139fb57604051633f4a2d2760e01b8152602081600481865afa908115610607576000916139dd575b5060206137c2838661220e565b51516040516352ff146960e11b8152600481019190915291829060249082906001600160a01b03165afa9081156106075760009161399f575b506040516301ffc9a760e01b8152630452934760e01b600482015290602090829060249082906001600160a01b03165afa90811561060757600091613966575b508061394e575b61384e57600101613787565b6138789394959697989950613866915060209261220e565b5101516020808251830101910161364a565b6138e28551976040519561388b87611beb565b1561394457606087015160e08801516138b0916001600160a01b039182169116612b38565b865260a087015160e08801516138d2916001600160a01b039182169116612b38565b602087015260c087015193615880565b6020820151915192608087015195610160610120890151980151986040519a61390a8c611c91565b8b5260208b015260408a01526060890152608088015260a087015260c086015260e085015261010084015261012083015261014082015290565b60408801516138b0565b50602061395b828561220e565b510151511515613842565b906020823d8211613997575b8161397f60209383611cad565b810103126108c757506139919061223e565b3861383b565b3d9150613972565b906020823d82116139d5575b816139b860209383611cad565b810103126108c7575060206139ce602492612179565b91506137fb565b3d91506139ab565b6139f5915060203d81116106d9576106cb8183611cad565b386137b5565b505050909192939495613878565b613a1c913d8091833e6125228183611cad565b3861376c565b5160e0850151919550613a41916001600160a01b039081169116614403565b933861373f565b9091506020813d602011613a74575b81613a6460209383611cad565b810103126105fa5751903861372e565b3d9150613a57565b613a8f913d8091833e6108638183611cad565b386136ec565b90506020813d602011613ac7575b81613ab060209383611cad565b810103126105fa57613ac19061223e565b386136ba565b3d9150613aa3565b908060209392818452848401376000828201840152601f01601f1916010190565b9082604083016040845252606082019060608460051b840101938192600092601e19813603015b838510613b4d57505050505050602081830391015282815260018060fb1b0383116105fa5760209260051b809284830137010190565b909192939496605f198782030184528735828112156105fa57830180359160208201926001600160401b0381116105fa578060051b9182360385136105fa5792908084526020808501938501019493600092603e19813603015b838510613bcb57505050505050506020806001929901940195019392949190613b17565b90919293949596601f198482030187528735828112156105fa57830190604060208301359201916001600160401b0381116105fa5780360383136105fa57613c196020928392600195613acf565b99019701950193929190613ba7565b6040516301ffc9a760e01b8152633d79d7fb60e11b60048201526001600160a01b03909116976000979396959293909290916020816024818d5afa90811561076557899161403b575b5015610bfb5760405163eb02c30160e01b8152600481018590529588876024818d5afa96871561076557899761401f575b5060405194631d40683560e31b8652600486015288856024818d5afa948515610765578995614003575b50604051632630c12f60e01b81526020816004818e5afa908115613ff8578a91613fd9575b506001600160a01b031691823b15613fd5579089939291613d286040519687958694859463f197ce3560e01b865260048601613af0565b039134905af1801561081757613fc1575b50805115613fb857604051613d4d81611beb565b600081526000602082015295855b8251811015613fa257604051633f4a2d2760e01b8152602081600481865afa9081156107a6578891613f84575b506020613d95838661220e565b51516040516352ff146960e11b8152600481019190915291829060249082906001600160a01b03165afa9081156107a6578891613f46575b506040516301ffc9a760e01b8152630452934760e01b600482015290602090829060249082906001600160a01b03165afa9081156107a6578891613f09575b50613e1957600101613d5b565b602095969750613e6f94939150613e4986613e388193613e869661220e565b51015182808251830101910161364a565b015190604051968795869563a455976760e01b8752606060048801526064870190611dc4565b926024860152600319858403016044860152613acf565b0381857f00000000000000000000000000000000000000000000000000000000000000006001600160a01b03165af1918215613efd578092613ec757505090565b9091506020823d602011613ef5575b81613ee360209383611cad565b810103126108c7575061185d9061223e565b3d9150613ed6565b604051903d90823e3d90fd5b90506020813d8211613f3e575b81613f2360209383611cad565b81010312613f3a57613f349061223e565b38613e0c565b8780fd5b3d9150613f16565b90506020813d8211613f7c575b81613f6060209383611cad565b81010312613f3a576020613f75602492612179565b9150613dcd565b3d9150613f53565b613f9c915060203d81116106d9576106cb8183611cad565b38613d88565b50505090613e86613e6f92602080959697613e49565b50505050905090565b85613fce91969296611cad565b9338613d39565b8980fd5b613ff2915060203d6020116106d9576106cb8183611cad565b38613cf1565b6040513d8c823e3d90fd5b6140189195503d808b833e6125228183611cad565b9338613ccc565b6140349197503d808b833e6108638183611cad565b9538613ca2565b90506020813d602011614071575b8161405660209383611cad565b8101031261406d576140679061223e565b38613c71565b8880fd5b3d9150614049565b906140838261200c565b6140906040519182611cad565b82815280926140a1601f199161200c565b019060005b8281106140b257505050565b6020906140bd6135bb565b828285010152016140a6565b6040516301ffc9a760e01b8152633d79d7fb60e11b6004820152600095946001600160a01b0383169391602081602481885afa908115610607576000916142ab575b5080614299575b15610bfb57604051636bb1c52360e11b81526001600160a01b038316600482015290602082602481885afa91821561060757600092614265575b508186101561425557816141608288612222565b106142405750846141709161226a565b925b61417b84614079565b9460005b858110614190575050505050509190565b6141cf602061419f8385612222565b604051632906d3a960e21b81526001600160a01b0388166004820152602481019190915291829081906044820190565b0381875afa9081156106075760009161420d575b50906141f160019287613672565b6141fb828a61220e565b52614206818961220e565b500161417f565b906020823d8211614238575b8161422660209383611cad565b810103126108c75750516141f16141e3565b3d9150614219565b8094975061424f915085612222565b95614172565b5050505050509050606090600090565b90916020823d602011614291575b8161428060209383611cad565b810103126108c7575051903861414c565b3d9150614273565b506001600160a01b0382161515614112565b90506020813d6020116142dd575b816142c660209383611cad565b810103126105fa576142d79061223e565b3861410b565b3d91506142b9565b91906142ef613438565b506142f8613438565b926001600160a01b03169081156143de5760a091614334916040518095819482936311ddedf160e01b84526060600485015260648401906117a1565b90600180881b0316602483015242604483015203915afa908115610607576000918291839161436e575b5060408401526020830152815290565b9150508060a03d60a0116143d7575b6143878183611cad565b8101039160a083126108c7578151906060602084015194603f1901126108c757506080604051926143b784611c3e565b60408101518452606081015160208501520151604083015291903861435e565b503d61437d565b50505090565b908160209103126105fa57516001600160801b03811681036105fa5790565b9061440c613486565b506040516301ffc9a760e01b815260006102c052633aa17d5560e11b60048201526020816024816001600160a01b0387165afa908115614b0b576102c05191614f45575b5015610bfb57604051637437535960e01b8152916020836004816001600160a01b0385165afa928315614b0b576102c05193614f11575b50604051631f1b131360e31b81526020816004816001600160a01b0386165afa908115614b0b576004916020916102c05191614ef4575b506040516318160ddd60e01b815292839182906001600160a01b03165afa908115614b0b576102c05191614ec2575b506144f88482612222565b908115614eb9576b033b2e3c9fd0803ce800000081810290821583830482141715614e9f578104829003610613578261050f614538928260011c90615d6e565b604051630783377560e51b81526102c051816004816001600160a01b0389165afa908115614b0b576145779187916102c05191614e82575b50866157e2565b604051634c66358f60e11b815296909190610120886004816001600160a01b038a165afa978815614b0b576102c05198614dd3575b506040516307c0e8c160e31b81526020816004816001600160a01b038b165afa908115614b0b576102c05191614d90575b5060405163ddce491760e01b81526001600160a01b038881166004830152909160a09183916024918391165afa8015614b0b576102c0516102a052614d24575b506040516306fdde0360e01b81526102c051816004816001600160a01b038b165afa8015614b0b576102c05160c052614d05575b5060405163011ddaef60e71b81526020816004816001600160a01b038b165afa908115614b0b576146979189916102c05191614ca2575b506001600160a01b0316612b38565b61028052604051637f5d87bf60e11b81526020816004816001600160a01b038b165afa8015614b0b576102c05161026052614ce3575b5060405163905e383760e01b81526020816004816001600160a01b038b165afa8015614b0b576102c05161024052614cc1575b506040516358a06f0760e01b81526020816004816001600160a01b038b165afa908115614b0b576147459189916102c05191614ca257506001600160a01b0316612b38565b604051631f1b131360e31b81529094906020816004816001600160a01b038c165afa908115614b0b5761478c918a916102c05191614ca257506001600160a01b0316612b38565b60405163280188b760e21b8152979096906020896004816001600160a01b0385165afa988915614b0b576102c05199614c6e575b5060405163a223f82160e01b81529960208b6004816001600160a01b0386165afa9a8b15614b0b576102c0519b614c3a575b508b516040516306fdde0360e01b81526102c0519092916001600160a01b0390811691908490600490829088165afa908115614b0b5761483c936102c05192614c1b575b506142e5565b60e0528a516040516306fdde0360e01b81526102c05190916001600160a01b0390811691908390600490829087165afa908115614b0b57614887926102c05192614bfc575b50614f7f565b61014052604051635ea24eef60e11b81526020816004816001600160a01b0386165afa8015614b0b576102c05161022052614bda575b506040516327c37b2560e01b81526020816004816001600160a01b0386165afa8015614b0b576102c0516101e052614ba8575b50604051610200818152630c71782360e41b909152516020906004816001600160a01b0385165afa6101c0526101c05115614b0b576102c0516101a0526101c051614b64575b604051610180818152634ad09aa560e01b909152516020906004816001600160a01b0385165afa610160526101605115614b0b576102c0516101205261016051614b19575b6040516371a6cab760e01b81526020816004816001600160a01b0386165afa610100526101005115614b0b576102c05160a05261010051614ad8575b506040516080526149c9608051611c59565b60018060a01b03166080515260c0516020608051015261028051604060805101526001600160801b036102605116606060805101526001600160801b03610240511660808051015260a0608051015260c0608051015260e06080510152610100608051015261012060805101526101406080510152610160608051015261018060805101526101a060805101526101c0608051015260e0516101e060805101526101405161020060805101526001600160801b03610220511661022060805101526001600160801b036101e0511661024060805101526101a0511515610260608051015261012051151561028060805101526102a0516102a0608051015260a0516102c0608051015260805190565b6020813d602011614b03575b81614af160209383611cad565b810103126105fa575160a052386149b7565b3d9150614ae4565b6040513d6102c051823e3d90fd5b60203d602011614b5d575b80614b3460209261018051611cad565b610180519081010312614b5657614b4d6101805161223e565b6101205261497b565b6102c05180fd5b503d614b24565b60203d602011614ba1575b80614b7f60209261020051611cad565b610200519081010312614b5657614b986102005161223e565b6101a052614936565b503d614b6f565b614bc99060203d602011614bd3575b614bc18183611cad565b8101906143e4565b6101e052386148f0565b503d614bb7565b614bf29060203d602011614bd357614bc18183611cad565b61022052386148bd565b614c149192503d806102c051833e612cbf8183611cad565b9038614881565b614c339192503d806102c051833e612cbf8183611cad565b9038614836565b909a506020813d602011614c66575b81614c5660209383611cad565b810103126105fa575199386147f2565b3d9150614c49565b9098506020813d602011614c9a575b81614c8a60209383611cad565b810103126105fa575197386147c0565b3d9150614c7d565b614cbb915060203d6020116106d9576106cb8183611cad565b38614688565b614cd99060203d602011614bd357614bc18183611cad565b6102405238614700565b614cfb9060203d602011614bd357614bc18183611cad565b61026052386146cd565b614d1b903d806102c051833e612cbf8183611cad565b60c05238614651565b60a0813d60a011614d88575b81614d3d60a09383611cad565b81010312614b565760405190608090614d5583611b9f565b80518352602081015160208401526040810151604084015260608101516060840152015160808201526102a0523861461d565b3d9150614d30565b90506020813d602011614dcb575b81614dab60209383611cad565b81010312614b5657516001600160a01b0381168103614b565760a06145dd565b3d9150614d9e565b909750610120813d8211614e7a575b81614df06101209383611cad565b81010312614b565760405190614e0582611c75565b8051906001600160a01b0382168203614b5657610100918352614e2a6020820161223e565b602084015260408101516040840152606081015160608401526080810151608084015260a081015160a084015260c081015160c084015260e081015160e0840152015161010082015296386145ac565b3d9150614de2565b614e9991503d806102c051833e61167e8183611cad565b38614570565b634e487b7160e01b6102c05152601160045260246102c051fd5b6102c051614538565b90506020813d602011614eec575b81614edd60209383611cad565b81010312614b565751386144ed565b3d9150614ed0565b614f0b9150823d84116106d9576106cb8183611cad565b386144be565b9092506020813d602011614f3d575b81614f2d60209383611cad565b81010312614b5657519138614487565b3d9150614f20565b90506020813d602011614f77575b81614f6060209383611cad565b81010312614b5657614f719061223e565b38614450565b3d9150614f53565b90614f88613419565b50614f91613419565b916001600160a01b0316801561503457614fcb91606091604051808095819463230fa49560e21b83526020600484015260248301906117a1565b03915afa9081156106075760009182918391614ff1575060408401526020830152815290565b929150506060823d60601161502c575b8161500e60609383611cad565b810103126108c757508051604060208301519201519091903861435e565b3d9150615001565b505090565b6150416120be565b506040516301ffc9a760e01b8152633aa17d5560e11b60048201526001600160a01b039190911690602081602481855afa90811561060757600091615404575b50806153f2575b15610bfb57604051631e46e62f60e21b8152602081600481855afa908115610607576000916153b0575b50604051632630c12f60e01b8152906001600160a01b0316602082600481845afa9182156106075760009261538f575b5060405163011ddaef60e71b8152602081600481875afa80156106075761514493602092600092615370575b50604051634858138f60e01b81526001600160a01b03888116600483015290921660248301529093849190829081906044820190565b03916001600160a01b03165afa9182156106075760009261533c575b506040805163a4c1cccb60e01b81526001600160a01b0386166004820152949085602481875afa918215610607576000956000936152f4575b5090602060049260405193848092633f4a2d2760e01b82525afa918215610607576044926020916000916152d7575b506040516345a1aa4160e11b8152600260048201526000602482015293849182906001600160a01b03165afa918215610607576000926152a1575b50604051633623869b60e01b81526001600160a01b03909116600482015260248101919091529260209084908180604481015b03915afa9283156106075760009361526d575b506040519361525785611bd0565b8452151560208401526040830152606082015290565b9092506020813d602011615299575b8161528960209383611cad565b810103126105fa57519138615249565b3d915061527c565b91506020823d6020116152cf575b816152bc60209383611cad565b810103126105fa57905190615236615203565b3d91506152af565b6152ee9150823d84116106d9576106cb8183611cad565b386151c8565b955091506040853d604011615334575b8161531160409383611cad565b810103126105fa57600490602061532b818851980161223e565b93919250615199565b3d9150615304565b9091506020813d602011615368575b8161535860209383611cad565b810103126105fa57519038615160565b3d915061534b565b615388919250833d85116106d9576106cb8183611cad565b903861510e565b6153a991925060203d6020116106d9576106cb8183611cad565b90386150e2565b6020813d6020116153ea575b816153c960209383611cad565b810103126108bf5751906001600160a01b03821682036108c75750386150b2565b3d91506153bc565b506001600160a01b0382161515615088565b90506020813d602011615436575b8161541f60209383611cad565b810103126105fa576154309061223e565b38615081565b3d9150615412565b6040516301ffc9a760e01b8152633d79d7fb60e11b60048201526001600160a01b0390931694939092602081602481895afa908115610607576000916157a8575b5015610bfb5760009160005b845181101561570a576001600160a01b036154a6828761220e565b5116604051633f4a2d2760e01b81526020816004818c5afa908115610607576000916156ec575b506040516306fdde0360e01b8152600081600481865afa80156106075761551d926080926000926156d1575b50604051808095819463481d98fb60e11b83526020600484015260248301906117a1565b03916001600160a01b03165afa918215610607576000918293615685575b50859286156155a6575b50508161557d575b5061555b575b60010161548b565b92600190615575906001600160a01b036115d7878961220e565b939050615553565b90506001600160a01b03615591838861220e565b516001600160a01b039092169116143861554d565b6002919293506155b581612d16565b1490816155c7575b5015903880615545565b6040516358a06f0760e01b81529150602090829060049082905afa90811561060757602491602091600091615668575b506040516370a0823160e01b81526001600160a01b0387811660048301529093849290918391165afa90811561060757600091615637575b5015386155bd565b906020823d8211615660575b8161565060209383611cad565b810103126108c75750513861562f565b3d9150615643565b61567f9150823d81116106d9576106cb8183611cad565b386155f7565b9092506080813d82116156c9575b816156a060809383611cad565b810103126108bf5760206156b382612179565b9101519160038310156108c7575090913861553b565b3d9150615693565b6156e591923d8091833e612cbf8183611cad565b90386154f9565b615704915060203d81116106d9576106cb8183611cad565b386154cd565b5091929394505061571a8261200c565b926157286040519485611cad565b828452601f196157378461200c565b0160005b81811061579157505060005b838110615755575050505090565b600190615775846001600160a01b0361576e848761220e565b5116614403565b61577f828861220e565b5261578a818761220e565b5001615747565b60209061579c613486565b8282890101520161573b565b90506020813d6020116157da575b816157c360209383611cad565b810103126105fa576157d49061223e565b3861547f565b3d91506157b6565b90918251916157f08361200c565b936157fe6040519586611cad565b838552601f1961580d8561200c565b0160005b81811061586957505060005b84811061582c57505050505090565b60019061584d856001600160a01b03615845848761220e565b51168661210a565b615857828961220e565b52615862818861220e565b500161581d565b6020906158746120e3565b82828a01015201615811565b6040516301ffc9a760e01b8152633d79d7fb60e11b60048201526001600160a01b03919091169190602081602481865afa90811561060757600091615a89575b5015610bfb5760405163eb02c30160e01b815260048101829052600081602481865afa90811561060757600091615a70575b50602081015115615a685760405191632f60fad360e21b83526004830152602082602481865afa801561060757600090615a35575b60408281015160a084015160c0909401519151633f4a2d2760e01b815291959194506001600160a01b03938416931690602090859060049082905afa90811561060757602094600092615a14575b50604051631839f03960e21b81526001600160a01b0391821660048201529381166024850152604484019590955260648301919091529092166084830152818060a481015b0381737A0FFAaEFbed420d00c5E60c1668693a8a26B88C5af4908115610607576000916159e5575090565b90506020813d602011615a0c575b81615a0060209383611cad565b810103126105fa575190565b3d91506159f3565b6159ba9250615a2f90863d88116106d9576106cb8183611cad565b91615975565b506020823d602011615a60575b81615a4f60209383611cad565b810103126105fa5760049151615927565b3d9150615a42565b505050600090565b615a83913d8091833e6108638183611cad565b386158f2565b90506020813d602011615abb575b81615aa460209383611cad565b810103126105fa57615ab59061223e565b386158c0565b3d9150615a97565b6040516301ffc9a760e01b8152633d79d7fb60e11b6004820152600095946001600160a01b0383169391602081602481885afa90811561060757600091615c95575b5080615c83575b15610bfb5760405163183ea23960e21b81526001600160a01b038316600482015290602082602481885afa91821561060757600092615c4f575b50818610156142555781615b5a8288612222565b10615c3a575084615b6a9161226a565b925b615b7584614079565b9460005b858110615b8a575050505050509190565b615bc96020615b998385612222565b60405163d64470e960e01b81526001600160a01b0388166004820152602481019190915291829081906044820190565b0381875afa90811561060757600091615c07575b5090615beb60019287613672565b615bf5828a61220e565b52615c00818961220e565b5001615b79565b906020823d8211615c32575b81615c2060209383611cad565b810103126108c7575051615beb615bdd565b3d9150615c13565b80949750615c49915085612222565b95615b6c565b90916020823d602011615c7b575b81615c6a60209383611cad565b810103126108c75750519038615b46565b3d9150615c5d565b506001600160a01b0382161515615b0c565b90506020813d602011615cc7575b81615cb060209383611cad565b810103126105fa57615cc19061223e565b38615b05565b3d9150615ca3565b519069ffffffffffffffffffff821682036105fa57565b8115615cf0570490565b634e487b7160e01b600052601260045260246000fd5b90615d1091615d37565b6706f05b59d3b200008101908181116105b85781106105a757670de0b6b3a7640000900490565b600092918015918215615d4e575b50501561061357565b91509250615d66615d5f8483612d36565b9384615ce6565b143880615d45565b9190615d7a9083612222565b9182106105a75756fea26469706673582212204f5ca5dddc8f7c53ee88438958254c711c0573b5bd19e28783412409cbf5958764736f6c634300081a0033",
  "deployedBytecode": "0x6102e080604052600436101561001457600080fd5b600090813560e01c90816301ffc9a7146116e75750806314fdc0731461169d57806316569dc1146114a657806336ca926314611253578063429bd6461461110957806344ec16141461106b5780634acefed4146110295780636629bf0a14610ff6578063679bfb5b14610fb15780636c5a9cd114610f7457806388782ed914610edd5780638ddbcc6214610ec25780639e09d40e14610e45578063a8d028b514610e03578063b23c434014610d9c578063b29d57d814610d40578063b3e1d9f214610cde578063bdf4cd1814610c7b578063d030bb2514610c53578063debd310d14610c24578063e10a27a4146109e4578063f107f834146108ca5763fa24cc661461011f57600080fd5b60a03660031901126108c75761013361173c565b6044356001600160401b0381116108c357610152903690600401611f3b565b926064356001600160401b0381116108bf57610172903690600401611860565b936084356001600160401b0381116108bb57610192903690600401611860565b604051632630c12f60e01b81526001600160a01b0390931696909391926020816004818b5afa90811561081757869161089c575b506001600160a01b031691823b156108985790859392916101fd6040519687958694859463f197ce3560e01b865260048601613af0565b039134905af1801561088d5761087d575b50906040519263eb02c30160e01b845260243560048501528284602481845afa93841561087257839461084e575b50604051632630c12f60e01b815290602082600481845afa918215610843578492610822575b5060a085018051606087018051604051631dae49b960e21b81526001600160a01b039384166004820152908316602482015292989094909160209184916044918391165afa9182156108175786926107e3575b506040516301ddf49360e61b8152602081600481875afa9081156106a85787916107b1575b5060405163084b557b60e21b815294602086600481885afa9586156107a6578896610770575b508951815160405163a8905dab60e01b81526001600160a01b03928316600482015291166024820152959660208780604481015b0381895afa938415610765578994610730575b60408b81018051915163280188b760e21b8152909d909950906020908a9060049082906001600160a01b03165afa98891561072557908c949392918c9a6106eb575b5051925160c09490940151604051632630c12f60e01b815290986001600160a01b039586169590941693602090829060049082905afa9081156106e05791602095949391610418938e916106b3575b506040519a8b96879663735aad2560e01b885260048801526024870152604486015260018060a01b0316606485015260a0608485015260a4840191613acf565b038173__$75df3f6366b0557754cd3ba14359105414$__5af49384156106a8578794610674575b50670de0b6b3a76400000390670de0b6b3a7640000821161066057670de0b6b3a76400000390670de0b6b3a76400008211610660579061047e91615d06565b90670de0b6b3a76400000390670de0b6b3a7640000821161064c576104ac92916104a791615d06565b615d06565b91670de0b6b3a7640000019081670de0b6b3a76400001161063857906104d191615d06565b90670de0b6b3a7640000808202938285048214831517156105b857806106245750830403610613576105148161050f60049460209460011c90615d6e565b615ce6565b93516040516368d0612f60e01b815292839182906001600160a01b03165afa8015610607576000906105ce575b6105519150602083015190615d37565b916b019d971e4fe8401e740000008301928381116105b85783106105a75761058c6080916b033b2e3c9fd0803ce8000000602095049061226a565b9101518082116105a057505b604051908152f35b9050610598565b630a77254f60e01b60005260046000fd5b634e487b7160e01b600052601160045260246000fd5b506020813d6020116105ff575b816105e860209383611cad565b810103126105fa576105519051610541565b600080fd5b3d91506105db565b6040513d6000823e3d90fd5b631550e8b760e01b60005260046000fd5b634e487b7160e01b81526012600452602490fd5b634e487b7160e01b84526011600452602484fd5b634e487b7160e01b86526011600452602486fd5b634e487b7160e01b87526011600452602487fd5b9093506020813d6020116106a0575b8161069060209383611cad565b810103126105fa5751923861043f565b3d9150610683565b6040513d89823e3d90fd5b6106d39150873d89116106d9575b6106cb8183611cad565b81019061224b565b386103d8565b503d6106c1565b6040513d8e823e3d90fd5b945098506020843d60201161071d575b8161070860209383611cad565b810103126105fa579251978b93906020610389565b3d91506106fb565b6040513d8d823e3d90fd5b93506020873d60201161075d575b8161074b60209383611cad565b810103126105fa576004965193610347565b3d915061073e565b6040513d8b823e3d90fd5b95506020863d60201161079e575b8161078b60209383611cad565b810103126105fa57610334955195610300565b3d915061077e565b6040513d8a823e3d90fd5b90506020813d6020116107db575b816107cc60209383611cad565b810103126105fa5751386102da565b3d91506107bf565b9091506020813d60201161080f575b816107ff60209383611cad565b810103126105fa575190386102b5565b3d91506107f2565b6040513d88823e3d90fd5b61083c91925060203d6020116106d9576106cb8183611cad565b9038610262565b6040513d86823e3d90fd5b61086b9194503d8085833e6108638183611cad565b810190612778565b923861023c565b6040513d85823e3d90fd5b8161088791611cad565b3861020e565b6040513d84823e3d90fd5b8580fd5b6108b5915060203d6020116106d9576106cb8183611cad565b386101c6565b8380fd5b5080fd5b8280fd5b80fd5b50346108c75760403660031901126108c7576004356001600160401b0381116108bf576108fb903690600401611860565b90610904611752565b9061090e8361200c565b9161091c6040519384611cad565b8383526109288461200c565b9361093b6020850195601f190186613597565b855b8181106109a957868587604051928392602084019060208552518091526040840160408260051b8601019392905b82821061097a57505050500390f35b919360019193955060206109998192603f198a820301865288516117c6565b960192019201859493919261096b565b806109c8846109c36109be600195878a61213f565b612165565b612b38565b6109d2828861220e565b526109dd818761220e565b500161093d565b50346108c75760203660031901126108c7576004356001600160401b0381116108bf57610a15903690600401611860565b610a1e8161200c565b91610a2c6040519384611cad565b818352601f19610a3b8361200c565b01845b818110610c0d575050835b828110610acf578385604051918291602083016020845282518091526020604085019301915b818110610a7d575050500390f35b91935091602060a060019269ffffffffffffffffffff60808851828151168452858101518685015260408101516040850152606081015160608501520151166080820152019401910191849392610a6f565b6001600160a01b03610ae56109be83868661213f565b1615610bfb5760049060a06001600160a01b03610b066109be84888861213f565b1660405193848092633fabe5a360e21b82525afa8015610817578687889089928a94610b9b575b6001965069ffffffffffffffffffff610b46878c61220e565b51911690526020610b57868b61220e565b5101526040610b66858a61220e565b5101526060610b75848961220e565b51015269ffffffffffffffffffff6080610b8f848961220e565b51019116905201610a49565b505050505060a0823d8211610bf3575b81610bb860a09383611cad565b810103126108985781610bcc600193615ccf565b6020820151916040810151610be8608060608401519301615ccf565b929390919293610b2d565b3d9150610bab565b60405163044aa57560e41b8152600490fd5b602090610c1861345b565b82828801015201610a3e565b50346108c757610c3f610c3636611f68565b92919091615ac3565b90610c4f60405192839283611fa6565b0390f35b50346108c75760403660031901126108c7576020610598610c7261173c565b60243590615880565b50346108c75760603660031901126108c757610c9561173c565b90602435906001600160401b0382116108c757610c4f610cca84610cbc3660048701612023565b610cc4611768565b916157e2565b60405191829160208352602083019061189f565b50346108c75760803660031901126108c757600435906001600160401b0382116108c757610c4f610d34610d153660048601612023565b610d1d611752565b610d25611768565b90610d2e611890565b9261543e565b60405191829182611b3f565b50346108c75760403660031901126108c7576080610d6d610d5f61173c565b610d67611752565b90615039565b610d9a60405180926060809180518452602081015115156020850152604081015160408501520151910152565bf35b50346108c75760403660031901126108c757610db661173c565b90602435906001600160401b0382116108c7576060610de284610ddc3660048701611ce9565b90614f7f565b610d9a60405180926040809180518452602081015160208501520151910152565b50346108c75760403660031901126108c757610c4f610e31610e2361173c565b610e2b611752565b90614403565b6040519182916020835260208301906118fa565b50346108c75760603660031901126108c757610e5f61173c565b90602435906001600160401b0382116108c75760a0610e9384610e853660048701611ce9565b610e8d611768565b916142e5565b604080518251815260208084015181830152928201518051828401529283015160608201529101516080820152f35b50346108c757610c3f610ed436611f68565b929190916140c9565b5060a03660031901126108c757610ef261173c565b6044356001600160401b0381116108c357610f11903690600401611f3b565b90926064356001600160401b0381116108bf57610f32903690600401611860565b929091608435906001600160401b0382116108c7576020610f6a8888888888610f5e3660048b01611860565b95909460243590613c28565b6040519015158152f35b50346108c75760403660031901126108c757610c4f610f9d610f9461173c565b60243590613672565b604051918291602083526020830190611e6e565b50346108c757806003193601126108c7576040517f00000000000000000000000000000000000000000000000000000000000000006001600160a01b03168152602090f35b50346108c75760403660031901126108c7576004359060068210156108c757602061059883611023611752565b90612d5c565b50346108c75760403660031901126108c757610c4f61105761104961173c565b611051611752565b90612b38565b6040519182916020835260208301906117c6565b50346108c75761108361107d36611d30565b9161285d565b9190604051916040830160408452825180915260608401602060608360051b870101940192905b8282106110be578580868960208301520390f35b909192936020806110fb600193605f198a8203018652885190836110eb8351604084526040840190611dc4565b9201519084818403910152611d5a565b9601920192019092916110aa565b50346108c75761112161111b36611d30565b9161239e565b9190604051916040830160408452825180915260608401602060608360051b870101940192905b82821061115c578580868960208301520390f35b90919293602080611245600193605f198a8203018652885190836110eb6101a0845160408552898060a01b038151166040860152898060a01b0384820151166060860152898060a01b036040820151166080860152606081015160a0860152898060a01b0360808201511660c086015260a081015160e0860152898060a01b0360c08201511661010086015260e08101516101208601526101008101516101408601526101208101516101608601526101408101511515610180860152610160810151828601526101808101516101c086015201516101c06101e08501526102008401906117a1565b960192019201909291611148565b50346108c75760a03660031901126108c75761126d61173c565b6024356001600160401b0381116108c35761128c903690600401611ce9565b906064356001600160a01b038116918282036114a2576040516301ffc9a760e01b8152633d79d7fb60e11b60048201526001600160a01b039190911692602082602481875afa918215610817578692611466575b508161145c575b5015610bfb57602060049260405193848092633f4a2d2760e01b82525afa9182156108435761134592602091869161143f575b5060018060a01b0316936040518094819263af9a2aa760e01b835284600484015260248301906117a1565b0381865afa8015610843578490611405575b604051631839f03960e21b81526001600160a01b0391821660048201529181166024830152608480356044808501919091523560648401529316928101929092525060208160a48173__$75df3f6366b0557754cd3ba14359105414$__5af490811561088d5782916113cf575b602082604051908152f35b90506020813d6020116113fd575b816113ea60209383611cad565b810103126108bf576020915051386113c4565b3d91506113dd565b506020823d602011611437575b8161141f60209383611cad565b810103126108bb57611432602092612179565b611357565b3d9150611412565b6114569150823d84116106d9576106cb8183611cad565b3861131a565b90501515386112e7565b9091506020813d60201161149a575b8161148260209383611cad565b81010312610898576114939061223e565b90386112e0565b3d9150611475565b8480fd5b50346108c75760803660031901126108c7576004356001600160401b0381116108bf576114d7903690600401611860565b91906114e1611752565b6114e9611768565b6114f1611890565b946114fb8161200c565b936115096040519586611cad565b818552601f196115188361200c565b01865b81811061168c575050855b82811061160d57505050839484955b845187101561155e5761155660019161154e898861220e565b515190612222565b960195611535565b90849186939461156d8261200c565b9161157b6040519384611cad565b80835261158a601f199161200c565b013660208401378495855b85518710156115fe5780975b6115ab888861220e565b51518910156115f1576001906115e9906001600160a01b036115d78c6115d18d8d61220e565b5161220e565b51166115e3828961220e565b5261222f565b9801976115a1565b9750600190960195611595565b50610c4f9391610d349361543e565b6004876001600160a01b036116266109be85888861213f565b166040519283809263f9776bcb60e01b82525afa9081156107a6579060019291899161166a575b50611658828961220e565b52611663818861220e565b5001611526565b61168691503d808b833e61167e8183611cad565b81019061218d565b3861164d565b806060602080938a0101520161151b565b50346108c75760603660031901126108c757610c4f6116d36116bd61173c565b6116c5611752565b6116cd611768565b9161210a565b604051918291602083526020830190611817565b9050346108bf5760203660031901126108bf5760043563ffffffff60e01b81168091036108c3576020925063055e0aa960e51b811490811561172b575b5015158152f35b6301ffc9a760e01b14905038611724565b600435906001600160a01b03821682036105fa57565b602435906001600160a01b03821682036105fa57565b604435906001600160a01b03821682036105fa57565b60005b8381106117915750506000910152565b8181015183820152602001611781565b906020916117ba8151809281855285808601910161177e565b601f01601f1916010190565b9060018060a01b0382511681526080806118046117f2602086015160a0602087015260a08601906117a1565b604086015185820360408701526117a1565b9360608101516060850152015191015290565b9061185d90602080611832855160a0855260a08501906117c6565b9401519101906060809180518452602081015115156020850152604081015160408501520151910152565b90565b9181601f840112156105fa578235916001600160401b0383116105fa576020808501948460051b0101116105fa57565b6064359081151582036105fa57565b9080602083519182815201916020808360051b8301019401926000915b8383106118cb57505050505090565b90919293946020806118e9600193601f198682030187528951611817565b970193019301919392906118bc565b565b9060018060a01b0382511681526105006102c06119d26119be6119aa611946611934602089015161052060208a01526105208901906117a1565b604089015188820360408a01526117c6565b6001600160801b0360608901511660608801526001600160801b03608089015116608088015260a088015160a088015260c088015160c088015260e088015160e088015261010088015161010088015261012088015187820361012089015261189f565b6101408701518682036101408801526117c6565b6101608601518582036101608701526117c6565b936101808101516101808501526101a08101516101a08501526101006101c082015160018060a01b038151166101c0870152602081015115156101e087015260408101516102008701526060810151610220870152608081015161024087015260a081015161026087015260c081015161028087015260e08101516102a0870152015182850152611a956101e08201516102e086019080518252602080820151818401526040918201518051838501529081015160608401520151608090910152565b610200810151805161038086015260208101516103a0860152604001516103c08501526001600160801b03610220820151166103e08501526001600160801b03610240820151166104008501526102608101511515610420850152610280810151151561044085015260806102a08201518051610460870152602081015161048087015260408101516104a087015260608101516104c087015201516104e0850152015191015290565b602081016020825282518091526040820191602060408360051b8301019401926000915b838310611b7257505050505090565b9091929394602080611b90600193603f1986820301875289516118fa565b97019301930191939290611b63565b60a081019081106001600160401b03821117611bba57604052565b634e487b7160e01b600052604160045260246000fd5b608081019081106001600160401b03821117611bba57604052565b604081019081106001600160401b03821117611bba57604052565b6101c081019081106001600160401b03821117611bba57604052565b61018081019081106001600160401b03821117611bba57604052565b606081019081106001600160401b03821117611bba57604052565b6102e081019081106001600160401b03821117611bba57604052565b61012081019081106001600160401b03821117611bba57604052565b61016081019081106001600160401b03821117611bba57604052565b90601f801991011681019081106001600160401b03821117611bba57604052565b6001600160401b038111611bba57601f01601f191660200190565b81601f820112156105fa57803590611d0082611cce565b92611d0e6040519485611cad565b828452602083830101116105fa57816000926020809301838601378301015290565b60609060031901126105fa576004356001600160a01b03811681036105fa57906024359060443590565b9080602083519182815201916020808360051b8301019401926000915b838310611d8657505050505090565b9091929394602080611db5600193601f198682030187526040838b5180518452015191818582015201906117a1565b97019301930191939290611d77565b9061018061016061185d93805184526020810151602085015260018060a01b03604082015116604085015260018060a01b0360608201511660608501526080810151608085015260018060a01b0360a08201511660a085015260c081015160c085015260018060a01b0360e08201511660e08501526101008101516101008501526101208101516101208501526101408101516101408501520151918161016082015201906117a1565b919082518152611e8f602084015161016060208401526101608301906118fa565b6040848101518383038285015290820192916000815b60028210611f14575050505061014084606061185d9596015160608401526080810151608084015260a081015160a084015260c081015160c084015260e081015160e08401526101008101516101008401526101208101516101208401520151906101408184039101526117a1565b90919294602080611f2d838760019503865289516117c6565b970192019201909291611ea5565b9181601f840112156105fa578235916001600160401b0383116105fa57602083818601950101116105fa57565b60809060031901126105fa576004356001600160a01b03811681036105fa57906024356001600160a01b03811681036105fa57906044359060643590565b92919060408401906040855280518092526060850191602060608260051b8801019201926000905b828210611fe15750505060209150930152565b909192602080611ffd600193605f198c82030186528851611e6e565b96019201920190939291611fce565b6001600160401b038111611bba5760051b60200190565b9080601f830112156105fa5781359061203b8261200c565b926120496040519485611cad565b82845260208085019360051b8201019182116105fa57602001915b8183106120715750505090565b82356001600160a01b03811681036105fa57815260209283019201612064565b6040519061209e82611b9f565b600060808382815260606020820152606060408201528260608201520152565b604051906120cb82611bd0565b60006060838281528260208201528260408201520152565b604051906120f082611beb565b816120f9612091565b815260206121056120be565b910152565b91906121226121289261211b6120e3565b5082612b38565b92615039565b6040519161213583611beb565b8252602082015290565b919081101561214f5760051b0190565b634e487b7160e01b600052603260045260246000fd5b356001600160a01b03811681036105fa5790565b51906001600160a01b03821682036105fa57565b6020818303126105fa578051906001600160401b0382116105fa57019080601f830112156105fa5781516121c08161200c565b926121ce6040519485611cad565b81845260208085019260051b8201019283116105fa57602001905b8282106121f65750505090565b6020809161220384612179565b8152019101906121e9565b805182101561214f5760209160051b010190565b919082018092116105b857565b60001981146105b85760010190565b519081151582036105fa57565b908160209103126105fa57516001600160a01b03811681036105fa5790565b919082039182116105b857565b9092919261228481611cce565b916122926040519384611cad565b8294828452828201116105fa5760206118f893019061177e565b9080601f830112156105fa57815161185d92602001612277565b6020818303126105fa578051906001600160401b0382116105fa57019080601f830112156105fa578151916122fa8361200c565b926123086040519485611cad565b80845260208085019160051b830101918383116105fa5760208101915b83831061233457505050505090565b82516001600160401b0381116105fa578201906040828703601f1901126105fa576040519061236282611beb565b602083015182526040830151916001600160401b0383116105fa5761238f886020809695819601016122ac565b83820152815201920191612325565b6040516301ffc9a760e01b815263fabd349d60e01b6004820152600094936001600160a01b039092169190602081602481865afa9081156106075760009161273e575b5015610bfb576040516301f0b85b60e21b815290602082600481865afa9182156106075760009261270a575b50818410156126fc57816124218286612222565b106126e75750826124319161226a565b905b61243c8261200c565b9261244a6040519485611cad565b828452601f196124598461200c565b0160005b81811061265457505060005b83811061247857505050509190565b6124828183612222565b6040519063dabe8a7160e01b82526004820152600081602481875afa90811561060757600091612530575b506124b8828761220e565b51526101006124c7828761220e565b515101519060405191635973af3960e01b83526004830152600082602481875afa80156106075760019260009161250f575b506020612506838961220e565b51015201612469565b61252a913d8091833e6125228183611cad565b8101906122c6565b386124f9565b3d8083833e61253f8183611cad565b8101906020818303126108c3578051906001600160401b0382116108bb5701916101c0838303126108c7576040519261257784611c06565b61258081612179565b845261258e60208201612179565b602085015261259f60408201612179565b6040850152606081015160608501526125ba60808201612179565b608085015260a081015160a08501526125d560c08201612179565b60c085015260e081015160e0850152610100810151610100850152610120810151610120850152612609610140820161223e565b6101408501526101608101516101608501526101808101516101808501526101a0810151916001600160401b0383116108c757506126489291016122ac565b6101a0820152386124ad565b60209060405161266381611beb565b60405161266f81611c06565b60008152600084820152600060408201526000606082015260006080820152600060a0820152600060c0820152600060e08201526000610100820152600061012082015260006101408201526000610160820152600061018082015260606101a082015281526060838201528282890101520161245d565b809295506126f6915083612222565b93612433565b505050509050606090600090565b90916020823d602011612736575b8161272560209383611cad565b810103126108c7575051903861240d565b3d9150612718565b90506020813d602011612770575b8161275960209383611cad565b810103126105fa5761276a9061223e565b386123e1565b3d915061274c565b6020818303126105fa578051906001600160401b0382116105fa5701610180818303126105fa57604051916127ac83611c22565b81518352602082015160208401526127c660408301612179565b60408401526127d760608301612179565b6060840152608082015160808401526127f260a08301612179565b60a084015260c082015160c084015261280d60e08301612179565b60e08401526101008201516101008401526101208201516101208401526101408201516101408401526101608201516001600160401b0381116105fa5761285492016122ac565b61016082015290565b6040516301ffc9a760e01b8152633d79d7fb60e11b6004820152600094936001600160a01b039092169190602081602481865afa90811561060757600091612ac8575b5015610bfb57604051630d96c0f960e21b815290602082600481865afa91821561060757600092612a94575b50818410156126fc57816128e08286612222565b10612a7f5750826128f09161226a565b905b6128fb8261200c565b926129096040519485611cad565b828452601f196129188461200c565b0160005b8181106129fc57505060005b83811061293757505050509190565b6129418183612222565b604051906344ff7dc360e01b82526004820152600081602481875afa908115610607576000916129e3575b50612977828761220e565b5152612983818661220e565b5151519060405191631d40683560e31b83526004830152600082602481875afa8015610607576001926000916129ca575b5060206129c1838961220e565b51015201612928565b6129dd913d8091833e6125228183611cad565b386129b4565b6129f6913d8091833e6108638183611cad565b3861296c565b602090604051612a0b81611beb565b604051612a1781611c22565b60008152600084820152600060408201526000606082015260006080820152600060a0820152600060c0820152600060e0820152600061010082015260006101208201526000610140820152606061016082015281526060838201528282890101520161291c565b80929550612a8e915083612222565b936128f2565b90916020823d602011612ac0575b81612aaf60209383611cad565b810103126108c757505190386128cc565b3d9150612aa2565b90506020813d602011612afa575b81612ae360209383611cad565b810103126105fa57612af49061223e565b386128a0565b3d9150612ad6565b6020818303126105fa578051906001600160401b0382116105fa57019080601f830112156105fa57815161185d92602001612277565b612b40612091565b506001600160a01b0316908115610bfb576040516395d89b4160e01b815290600082600481865afa91821561060757600092612cce575b506040516306fdde0360e01b815290600082600481875afa91821561060757600092612ca9575b5060405163313ce56760e01b8152602081600481885afa90811561060757600091612c6d575b506001600160a01b03909116918215612c6157604051926370a0823160e01b84526004840152602083602481885afa801561060757600090612c2e575b60ff9350935b60405195612c1487611b9f565b865260208601526040850152166060830152608082015290565b506020833d602011612c59575b81612c4860209383611cad565b810103126105fa5760ff9251612c01565b3d9150612c3b565b60ff9250600093612c07565b6020813d602011612ca1575b81612c8660209383611cad565b810103126108bf57519060ff821682036108c7575038612bc4565b3d9150612c79565b612cc79192503d806000833e612cbf8183611cad565b810190612b02565b9038612b9e565b612ce49192503d806000833e612cbf8183611cad565b9038612b77565b91908260809103126105fa578151916020810151916060604083015192015160038110156105fa5790565b60031115612d2057565b634e487b7160e01b600052602160045260246000fd5b818102929181159184041417156105b857565b919060208301926006821015612d205752565b604051632630c12f60e01b81526001600160a01b0390921691602081600481865afa908115610607576000916133fa575b50604051637496a94d60e11b8152602081600481875afa908115610607576000916133db575b50612dbc6120be565b60405163455259cb60e01b81523a93602090829060049082906001600160a01b03165afa908115610607576000916133a8575b508152604051632c18d6af60e21b815291608090839060049082906001600160a01b03165afa91821561060757600090600093613382575b50826040830152806060830152815192600084136000146133755750670de0b6b3a7640000019182670de0b6b3a7640000116105b857602092612e6991615d06565b9182915b0152803a11801561336d575b613365575b50604051637496a94d60e11b815291602083600481875afa92831561060757600493608091600091613346575b50604051632c18d6af60e21b815294859182906001600160a01b03165afa9384156106075760009360009561330c575b50604051633f4a2d2760e01b815293602085600481855afa948515610607576004956020916000916132ef575b506040516324890e1560e21b815296879182906001600160a01b03165afa948515610607576000956132bb575b50600095612f4281612d16565b8061301a575b5050602060049160405192838092633f4a2d2760e01b82525afa91821561060757612f9492602092600091612ffd575b50604051808095819463ee42b2d160e01b835260048301612d49565b03916001600160a01b03165afa90811561060757600091612fc7575b5092612fc2612fc29261185d95612d36565b612222565b9390506020843d602011612ff5575b81612fe360209383611cad565b810103126105fa579251612fc2612fb0565b3d9150612fd6565b6130149150833d85116106d9576106cb8183611cad565b38612f78565b61302381612d16565b60018114613174575b60029061303881612d16565b146130435780612f48565b9450600491925060209060405192838092633f4a2d2760e01b82525afa9182156106075761309292602092600091613157575b5060405180809581946306bdf5b760e21b835260048301612d49565b03916001600160a01b03165afa90811561060757600091613125575b5060405163f1c7a58b60e01b81526004810191909152602081602481600f602160991b015afa908115610607576000916130f1575b5061185d92612fc291615d06565b90506020813d60201161311d575b8161310c60209383611cad565b810103126105fa575161185d6130e3565b3d91506130ff565b90506020813d60201161314f575b8161314060209383611cad565b810103126105fa5751386130ae565b3d9150613133565b61316e9150833d85116106d9576106cb8183611cad565b38613076565b60405163f5d6ded760e01b8152909650602081600481606c5afa90811561060757600091613289575b508060041b90808204601014901517156105b857604051633f4a2d2760e01b815290602082600481875afa91821561060757600092613268575b50602060405180936306bdf5b760e21b825281806131f88a60048301612d49565b03916001600160a01b03165afa91821561060757600092613234575b50608c82018092116105b85760029161322c91612d36565b96905061302c565b90916020823d602011613260575b8161324f60209383611cad565b810103126108c75750519038613214565b3d9150613242565b61328291925060203d6020116106d9576106cb8183611cad565b90386131d7565b906020823d6020116132b3575b816132a360209383611cad565b810103126108c75750513861319d565b3d9150613296565b90946020823d6020116132e7575b816132d660209383611cad565b810103126108c75750519338612f35565b3d91506132c9565b6133069150823d84116106d9576106cb8183611cad565b38612f08565b90945061333291935060803d60801161333f575b61332a8183611cad565b810190612ceb565b9492509050929338612edb565b503d613320565b61335f915060203d6020116106d9576106cb8183611cad565b38612eab565b905038612e7e565b503a15612e79565b9250829160209150612e6d565b905061339e91925060803d60801161333f5761332a8183611cad565b5050919038612e27565b90506020813d6020116133d3575b816133c360209383611cad565b810103126105fa57516004612def565b3d91506133b6565b6133f4915060203d6020116106d9576106cb8183611cad565b38612db3565b613413915060203d6020116106d9576106cb8183611cad565b38612d8d565b6040519061342682611c3e565b60006040838281528260208201520152565b6040519061344582611c3e565b8160008152600060208201526040612105613419565b6040519061346882611b9f565b60006080838281528260208201528260408201528260608201520152565b6040519061349382611c59565b60006102c083828152606060208201526134ab612091565b60408201528260608201528260808201528260a08201528260c08201528260e08201528261010082015260606101208201526134e5612091565b6101408201526134f3612091565b61016082015282610180820152826101a082015260405161351381611c75565b8381528360208201528360408201528360608201528360808201528360a08201528360c08201528360e0820152836101008201526101c0820152613555613438565b6101e0820152613563613419565b6102008201528261022082015282610240820152826102608201528261028082015261358d61345b565b6102a08201520152565b60005b8281106135a657505050565b6020906135b1612091565b818401520161359a565b604051906135c882611c91565b81600081526135d5613486565b602082015260408051906135e98183611cad565b60005b8181106136355750916101409160609382015260008382015260006080820152600060a0820152600060c0820152600060e0820152600061010082015260006101208201520152565b602090613640612091565b81850152016135ec565b908160409103126105fa5760206040519161366483611beb565b805183520151602082015290565b9061367b6135bb565b506040516301ffc9a760e01b8152633d79d7fb60e11b60048201526001600160a01b0383169290602081602481875afa90811561060757600091613a95575b5015610bfb5760405163eb02c30160e01b815260048101839052600081602481875afa90811561060757600091613a7c575b50604081810180519151632f60fad360e21b81526004810186905290936001600160a01b0390921615916020826024818a5afa91821561060757600092613a48575b50613737613486565b948315613a22575b50604051631d40683560e31b8152600481018790526000816024818b5afa90811561060757600091613a09575b50604051600061377b82611beb565b80825260208201529760005b82518110156139fb57604051633f4a2d2760e01b8152602081600481865afa908115610607576000916139dd575b5060206137c2838661220e565b51516040516352ff146960e11b8152600481019190915291829060249082906001600160a01b03165afa9081156106075760009161399f575b506040516301ffc9a760e01b8152630452934760e01b600482015290602090829060249082906001600160a01b03165afa90811561060757600091613966575b508061394e575b61384e57600101613787565b6138789394959697989950613866915060209261220e565b5101516020808251830101910161364a565b6138e28551976040519561388b87611beb565b1561394457606087015160e08801516138b0916001600160a01b039182169116612b38565b865260a087015160e08801516138d2916001600160a01b039182169116612b38565b602087015260c087015193615880565b6020820151915192608087015195610160610120890151980151986040519a61390a8c611c91565b8b5260208b015260408a01526060890152608088015260a087015260c086015260e085015261010084015261012083015261014082015290565b60408801516138b0565b50602061395b828561220e565b510151511515613842565b906020823d8211613997575b8161397f60209383611cad565b810103126108c757506139919061223e565b3861383b565b3d9150613972565b906020823d82116139d5575b816139b860209383611cad565b810103126108c7575060206139ce602492612179565b91506137fb565b3d91506139ab565b6139f5915060203d81116106d9576106cb8183611cad565b386137b5565b505050909192939495613878565b613a1c913d8091833e6125228183611cad565b3861376c565b5160e0850151919550613a41916001600160a01b039081169116614403565b933861373f565b9091506020813d602011613a74575b81613a6460209383611cad565b810103126105fa5751903861372e565b3d9150613a57565b613a8f913d8091833e6108638183611cad565b386136ec565b90506020813d602011613ac7575b81613ab060209383611cad565b810103126105fa57613ac19061223e565b386136ba565b3d9150613aa3565b908060209392818452848401376000828201840152601f01601f1916010190565b9082604083016040845252606082019060608460051b840101938192600092601e19813603015b838510613b4d57505050505050602081830391015282815260018060fb1b0383116105fa5760209260051b809284830137010190565b909192939496605f198782030184528735828112156105fa57830180359160208201926001600160401b0381116105fa578060051b9182360385136105fa5792908084526020808501938501019493600092603e19813603015b838510613bcb57505050505050506020806001929901940195019392949190613b17565b90919293949596601f198482030187528735828112156105fa57830190604060208301359201916001600160401b0381116105fa5780360383136105fa57613c196020928392600195613acf565b99019701950193929190613ba7565b6040516301ffc9a760e01b8152633d79d7fb60e11b60048201526001600160a01b03909116976000979396959293909290916020816024818d5afa90811561076557899161403b575b5015610bfb5760405163eb02c30160e01b8152600481018590529588876024818d5afa96871561076557899761401f575b5060405194631d40683560e31b8652600486015288856024818d5afa948515610765578995614003575b50604051632630c12f60e01b81526020816004818e5afa908115613ff8578a91613fd9575b506001600160a01b031691823b15613fd5579089939291613d286040519687958694859463f197ce3560e01b865260048601613af0565b039134905af1801561081757613fc1575b50805115613fb857604051613d4d81611beb565b600081526000602082015295855b8251811015613fa257604051633f4a2d2760e01b8152602081600481865afa9081156107a6578891613f84575b506020613d95838661220e565b51516040516352ff146960e11b8152600481019190915291829060249082906001600160a01b03165afa9081156107a6578891613f46575b506040516301ffc9a760e01b8152630452934760e01b600482015290602090829060249082906001600160a01b03165afa9081156107a6578891613f09575b50613e1957600101613d5b565b602095969750613e6f94939150613e4986613e388193613e869661220e565b51015182808251830101910161364a565b015190604051968795869563a455976760e01b8752606060048801526064870190611dc4565b926024860152600319858403016044860152613acf565b0381857f00000000000000000000000000000000000000000000000000000000000000006001600160a01b03165af1918215613efd578092613ec757505090565b9091506020823d602011613ef5575b81613ee360209383611cad565b810103126108c7575061185d9061223e565b3d9150613ed6565b604051903d90823e3d90fd5b90506020813d8211613f3e575b81613f2360209383611cad565b81010312613f3a57613f349061223e565b38613e0c565b8780fd5b3d9150613f16565b90506020813d8211613f7c575b81613f6060209383611cad565b81010312613f3a576020613f75602492612179565b9150613dcd565b3d9150613f53565b613f9c915060203d81116106d9576106cb8183611cad565b38613d88565b50505090613e86613e6f92602080959697613e49565b50505050905090565b85613fce91969296611cad565b9338613d39565b8980fd5b613ff2915060203d6020116106d9576106cb8183611cad565b38613cf1565b6040513d8c823e3d90fd5b6140189195503d808b833e6125228183611cad565b9338613ccc565b6140349197503d808b833e6108638183611cad565b9538613ca2565b90506020813d602011614071575b8161405660209383611cad565b8101031261406d576140679061223e565b38613c71565b8880fd5b3d9150614049565b906140838261200c565b6140906040519182611cad565b82815280926140a1601f199161200c565b019060005b8281106140b257505050565b6020906140bd6135bb565b828285010152016140a6565b6040516301ffc9a760e01b8152633d79d7fb60e11b6004820152600095946001600160a01b0383169391602081602481885afa908115610607576000916142ab575b5080614299575b15610bfb57604051636bb1c52360e11b81526001600160a01b038316600482015290602082602481885afa91821561060757600092614265575b508186101561425557816141608288612222565b106142405750846141709161226a565b925b61417b84614079565b9460005b858110614190575050505050509190565b6141cf602061419f8385612222565b604051632906d3a960e21b81526001600160a01b0388166004820152602481019190915291829081906044820190565b0381875afa9081156106075760009161420d575b50906141f160019287613672565b6141fb828a61220e565b52614206818961220e565b500161417f565b906020823d8211614238575b8161422660209383611cad565b810103126108c75750516141f16141e3565b3d9150614219565b8094975061424f915085612222565b95614172565b5050505050509050606090600090565b90916020823d602011614291575b8161428060209383611cad565b810103126108c7575051903861414c565b3d9150614273565b506001600160a01b0382161515614112565b90506020813d6020116142dd575b816142c660209383611cad565b810103126105fa576142d79061223e565b3861410b565b3d91506142b9565b91906142ef613438565b506142f8613438565b926001600160a01b03169081156143de5760a091614334916040518095819482936311ddedf160e01b84526060600485015260648401906117a1565b90600180881b0316602483015242604483015203915afa908115610607576000918291839161436e575b5060408401526020830152815290565b9150508060a03d60a0116143d7575b6143878183611cad565b8101039160a083126108c7578151906060602084015194603f1901126108c757506080604051926143b784611c3e565b60408101518452606081015160208501520151604083015291903861435e565b503d61437d565b50505090565b908160209103126105fa57516001600160801b03811681036105fa5790565b9061440c613486565b506040516301ffc9a760e01b815260006102c052633aa17d5560e11b60048201526020816024816001600160a01b0387165afa908115614b0b576102c05191614f45575b5015610bfb57604051637437535960e01b8152916020836004816001600160a01b0385165afa928315614b0b576102c05193614f11575b50604051631f1b131360e31b81526020816004816001600160a01b0386165afa908115614b0b576004916020916102c05191614ef4575b506040516318160ddd60e01b815292839182906001600160a01b03165afa908115614b0b576102c05191614ec2575b506144f88482612222565b908115614eb9576b033b2e3c9fd0803ce800000081810290821583830482141715614e9f578104829003610613578261050f614538928260011c90615d6e565b604051630783377560e51b81526102c051816004816001600160a01b0389165afa908115614b0b576145779187916102c05191614e82575b50866157e2565b604051634c66358f60e11b815296909190610120886004816001600160a01b038a165afa978815614b0b576102c05198614dd3575b506040516307c0e8c160e31b81526020816004816001600160a01b038b165afa908115614b0b576102c05191614d90575b5060405163ddce491760e01b81526001600160a01b038881166004830152909160a09183916024918391165afa8015614b0b576102c0516102a052614d24575b506040516306fdde0360e01b81526102c051816004816001600160a01b038b165afa8015614b0b576102c05160c052614d05575b5060405163011ddaef60e71b81526020816004816001600160a01b038b165afa908115614b0b576146979189916102c05191614ca2575b506001600160a01b0316612b38565b61028052604051637f5d87bf60e11b81526020816004816001600160a01b038b165afa8015614b0b576102c05161026052614ce3575b5060405163905e383760e01b81526020816004816001600160a01b038b165afa8015614b0b576102c05161024052614cc1575b506040516358a06f0760e01b81526020816004816001600160a01b038b165afa908115614b0b576147459189916102c05191614ca257506001600160a01b0316612b38565b604051631f1b131360e31b81529094906020816004816001600160a01b038c165afa908115614b0b5761478c918a916102c05191614ca257506001600160a01b0316612b38565b60405163280188b760e21b8152979096906020896004816001600160a01b0385165afa988915614b0b576102c05199614c6e575b5060405163a223f82160e01b81529960208b6004816001600160a01b0386165afa9a8b15614b0b576102c0519b614c3a575b508b516040516306fdde0360e01b81526102c0519092916001600160a01b0390811691908490600490829088165afa908115614b0b5761483c936102c05192614c1b575b506142e5565b60e0528a516040516306fdde0360e01b81526102c05190916001600160a01b0390811691908390600490829087165afa908115614b0b57614887926102c05192614bfc575b50614f7f565b61014052604051635ea24eef60e11b81526020816004816001600160a01b0386165afa8015614b0b576102c05161022052614bda575b506040516327c37b2560e01b81526020816004816001600160a01b0386165afa8015614b0b576102c0516101e052614ba8575b50604051610200818152630c71782360e41b909152516020906004816001600160a01b0385165afa6101c0526101c05115614b0b576102c0516101a0526101c051614b64575b604051610180818152634ad09aa560e01b909152516020906004816001600160a01b0385165afa610160526101605115614b0b576102c0516101205261016051614b19575b6040516371a6cab760e01b81526020816004816001600160a01b0386165afa610100526101005115614b0b576102c05160a05261010051614ad8575b506040516080526149c9608051611c59565b60018060a01b03166080515260c0516020608051015261028051604060805101526001600160801b036102605116606060805101526001600160801b03610240511660808051015260a0608051015260c0608051015260e06080510152610100608051015261012060805101526101406080510152610160608051015261018060805101526101a060805101526101c0608051015260e0516101e060805101526101405161020060805101526001600160801b03610220511661022060805101526001600160801b036101e0511661024060805101526101a0511515610260608051015261012051151561028060805101526102a0516102a0608051015260a0516102c0608051015260805190565b6020813d602011614b03575b81614af160209383611cad565b810103126105fa575160a052386149b7565b3d9150614ae4565b6040513d6102c051823e3d90fd5b60203d602011614b5d575b80614b3460209261018051611cad565b610180519081010312614b5657614b4d6101805161223e565b6101205261497b565b6102c05180fd5b503d614b24565b60203d602011614ba1575b80614b7f60209261020051611cad565b610200519081010312614b5657614b986102005161223e565b6101a052614936565b503d614b6f565b614bc99060203d602011614bd3575b614bc18183611cad565b8101906143e4565b6101e052386148f0565b503d614bb7565b614bf29060203d602011614bd357614bc18183611cad565b61022052386148bd565b614c149192503d806102c051833e612cbf8183611cad565b9038614881565b614c339192503d806102c051833e612cbf8183611cad565b9038614836565b909a506020813d602011614c66575b81614c5660209383611cad565b810103126105fa575199386147f2565b3d9150614c49565b9098506020813d602011614c9a575b81614c8a60209383611cad565b810103126105fa575197386147c0565b3d9150614c7d565b614cbb915060203d6020116106d9576106cb8183611cad565b38614688565b614cd99060203d602011614bd357614bc18183611cad565b6102405238614700565b614cfb9060203d602011614bd357614bc18183611cad565b61026052386146cd565b614d1b903d806102c051833e612cbf8183611cad565b60c05238614651565b60a0813d60a011614d88575b81614d3d60a09383611cad565b81010312614b565760405190608090614d5583611b9f565b80518352602081015160208401526040810151604084015260608101516060840152015160808201526102a0523861461d565b3d9150614d30565b90506020813d602011614dcb575b81614dab60209383611cad565b81010312614b5657516001600160a01b0381168103614b565760a06145dd565b3d9150614d9e565b909750610120813d8211614e7a575b81614df06101209383611cad565b81010312614b565760405190614e0582611c75565b8051906001600160a01b0382168203614b5657610100918352614e2a6020820161223e565b602084015260408101516040840152606081015160608401526080810151608084015260a081015160a084015260c081015160c084015260e081015160e0840152015161010082015296386145ac565b3d9150614de2565b614e9991503d806102c051833e61167e8183611cad565b38614570565b634e487b7160e01b6102c05152601160045260246102c051fd5b6102c051614538565b90506020813d602011614eec575b81614edd60209383611cad565b81010312614b565751386144ed565b3d9150614ed0565b614f0b9150823d84116106d9576106cb8183611cad565b386144be565b9092506020813d602011614f3d575b81614f2d60209383611cad565b81010312614b5657519138614487565b3d9150614f20565b90506020813d602011614f77575b81614f6060209383611cad565b81010312614b5657614f719061223e565b38614450565b3d9150614f53565b90614f88613419565b50614f91613419565b916001600160a01b0316801561503457614fcb91606091604051808095819463230fa49560e21b83526020600484015260248301906117a1565b03915afa9081156106075760009182918391614ff1575060408401526020830152815290565b929150506060823d60601161502c575b8161500e60609383611cad565b810103126108c757508051604060208301519201519091903861435e565b3d9150615001565b505090565b6150416120be565b506040516301ffc9a760e01b8152633aa17d5560e11b60048201526001600160a01b039190911690602081602481855afa90811561060757600091615404575b50806153f2575b15610bfb57604051631e46e62f60e21b8152602081600481855afa908115610607576000916153b0575b50604051632630c12f60e01b8152906001600160a01b0316602082600481845afa9182156106075760009261538f575b5060405163011ddaef60e71b8152602081600481875afa80156106075761514493602092600092615370575b50604051634858138f60e01b81526001600160a01b03888116600483015290921660248301529093849190829081906044820190565b03916001600160a01b03165afa9182156106075760009261533c575b506040805163a4c1cccb60e01b81526001600160a01b0386166004820152949085602481875afa918215610607576000956000936152f4575b5090602060049260405193848092633f4a2d2760e01b82525afa918215610607576044926020916000916152d7575b506040516345a1aa4160e11b8152600260048201526000602482015293849182906001600160a01b03165afa918215610607576000926152a1575b50604051633623869b60e01b81526001600160a01b03909116600482015260248101919091529260209084908180604481015b03915afa9283156106075760009361526d575b506040519361525785611bd0565b8452151560208401526040830152606082015290565b9092506020813d602011615299575b8161528960209383611cad565b810103126105fa57519138615249565b3d915061527c565b91506020823d6020116152cf575b816152bc60209383611cad565b810103126105fa57905190615236615203565b3d91506152af565b6152ee9150823d84116106d9576106cb8183611cad565b386151c8565b955091506040853d604011615334575b8161531160409383611cad565b810103126105fa57600490602061532b818851980161223e565b93919250615199565b3d9150615304565b9091506020813d602011615368575b8161535860209383611cad565b810103126105fa57519038615160565b3d915061534b565b615388919250833d85116106d9576106cb8183611cad565b903861510e565b6153a991925060203d6020116106d9576106cb8183611cad565b90386150e2565b6020813d6020116153ea575b816153c960209383611cad565b810103126108bf5751906001600160a01b03821682036108c75750386150b2565b3d91506153bc565b506001600160a01b0382161515615088565b90506020813d602011615436575b8161541f60209383611cad565b810103126105fa576154309061223e565b38615081565b3d9150615412565b6040516301ffc9a760e01b8152633d79d7fb60e11b60048201526001600160a01b0390931694939092602081602481895afa908115610607576000916157a8575b5015610bfb5760009160005b845181101561570a576001600160a01b036154a6828761220e565b5116604051633f4a2d2760e01b81526020816004818c5afa908115610607576000916156ec575b506040516306fdde0360e01b8152600081600481865afa80156106075761551d926080926000926156d1575b50604051808095819463481d98fb60e11b83526020600484015260248301906117a1565b03916001600160a01b03165afa918215610607576000918293615685575b50859286156155a6575b50508161557d575b5061555b575b60010161548b565b92600190615575906001600160a01b036115d7878961220e565b939050615553565b90506001600160a01b03615591838861220e565b516001600160a01b039092169116143861554d565b6002919293506155b581612d16565b1490816155c7575b5015903880615545565b6040516358a06f0760e01b81529150602090829060049082905afa90811561060757602491602091600091615668575b506040516370a0823160e01b81526001600160a01b0387811660048301529093849290918391165afa90811561060757600091615637575b5015386155bd565b906020823d8211615660575b8161565060209383611cad565b810103126108c75750513861562f565b3d9150615643565b61567f9150823d81116106d9576106cb8183611cad565b386155f7565b9092506080813d82116156c9575b816156a060809383611cad565b810103126108bf5760206156b382612179565b9101519160038310156108c7575090913861553b565b3d9150615693565b6156e591923d8091833e612cbf8183611cad565b90386154f9565b615704915060203d81116106d9576106cb8183611cad565b386154cd565b5091929394505061571a8261200c565b926157286040519485611cad565b828452601f196157378461200c565b0160005b81811061579157505060005b838110615755575050505090565b600190615775846001600160a01b0361576e848761220e565b5116614403565b61577f828861220e565b5261578a818761220e565b5001615747565b60209061579c613486565b8282890101520161573b565b90506020813d6020116157da575b816157c360209383611cad565b810103126105fa576157d49061223e565b3861547f565b3d91506157b6565b90918251916157f08361200c565b936157fe6040519586611cad565b838552601f1961580d8561200c565b0160005b81811061586957505060005b84811061582c57505050505090565b60019061584d856001600160a01b03615845848761220e565b51168661210a565b615857828961220e565b52615862818861220e565b500161581d565b6020906158746120e3565b82828a01015201615811565b6040516301ffc9a760e01b8152633d79d7fb60e11b60048201526001600160a01b03919091169190602081602481865afa90811561060757600091615a89575b5015610bfb5760405163eb02c30160e01b815260048101829052600081602481865afa90811561060757600091615a70575b50602081015115615a685760405191632f60fad360e21b83526004830152602082602481865afa801561060757600090615a35575b60408281015160a084015160c0909401519151633f4a2d2760e01b815291959194506001600160a01b03938416931690602090859060049082905afa90811561060757602094600092615a14575b50604051631839f03960e21b81526001600160a01b0391821660048201529381166024850152604484019590955260648301919091529092166084830152818060a481015b038173__$75df3f6366b0557754cd3ba14359105414$__5af4908115610607576000916159e5575090565b90506020813d602011615a0c575b81615a0060209383611cad565b810103126105fa575190565b3d91506159f3565b6159ba9250615a2f90863d88116106d9576106cb8183611cad565b91615975565b506020823d602011615a60575b81615a4f60209383611cad565b810103126105fa5760049151615927565b3d9150615a42565b505050600090565b615a83913d8091833e6108638183611cad565b386158f2565b90506020813d602011615abb575b81615aa460209383611cad565b810103126105fa57615ab59061223e565b386158c0565b3d9150615a97565b6040516301ffc9a760e01b8152633d79d7fb60e11b6004820152600095946001600160a01b0383169391602081602481885afa90811561060757600091615c95575b5080615c83575b15610bfb5760405163183ea23960e21b81526001600160a01b038316600482015290602082602481885afa91821561060757600092615c4f575b50818610156142555781615b5a8288612222565b10615c3a575084615b6a9161226a565b925b615b7584614079565b9460005b858110615b8a575050505050509190565b615bc96020615b998385612222565b60405163d64470e960e01b81526001600160a01b0388166004820152602481019190915291829081906044820190565b0381875afa90811561060757600091615c07575b5090615beb60019287613672565b615bf5828a61220e565b52615c00818961220e565b5001615b79565b906020823d8211615c32575b81615c2060209383611cad565b810103126108c7575051615beb615bdd565b3d9150615c13565b80949750615c49915085612222565b95615b6c565b90916020823d602011615c7b575b81615c6a60209383611cad565b810103126108c75750519038615b46565b3d9150615c5d565b506001600160a01b0382161515615b0c565b90506020813d602011615cc7575b81615cb060209383611cad565b810103126105fa57615cc19061223e565b38615b05565b3d9150615ca3565b519069ffffffffffffffffffff821682036105fa57565b8115615cf0570490565b634e487b7160e01b600052601260045260246000fd5b90615d1091615d37565b6706f05b59d3b200008101908181116105b85781106105a757670de0b6b3a7640000900490565b600092918015918215615d4e575b50501561061357565b91509250615d66615d5f8483612d36565b9384615ce6565b143880615d45565b9190615d7a9083612222565b9182106105a75756fea26469706673582212204f5ca5dddc8f7c53ee88438958254c711c0573b5bd19e28783412409cbf5958764736f6c634300081a0033",
  "libraries": {
    "PrimexPricingLibrary": "0x7A0FFAaEFbed420d00c5E60c1668693a8a26B88C",
    "PositionLibrary": "0xe31a74961DE60A4c117e000734F5079728CEB83F",
    "LimitOrderLibrary": "0x5C52411192b79A935a66b34661D5523187E7d07e",
    "Errors": "0x988288925196F0725268378d0C7c8aA0E50EB423"
  },
  "devdoc": {
    "details": "All functions in this contract are intended to be called off-chain. Do not call functions from other contracts to avoid an out-of-gas error.",
    "kind": "dev",
    "methods": {
      "getAllBucketsFactory(address[],address,address,bool)": {
        "params": {
          "_bucketFactories": "An array of the BucketFactory contracts addresses.",
          "_positionManager": "The address of the PositionManager contract.",
          "_showDeprecated": "A boolean flag indicating whether to include deprecated buckets in the result.",
          "_trader": "The address of the trader for whom the buckets are retrieved."
        },
        "returns": {
          "_0": "An array of BucketMetaData structs representing the bucket metadata."
        }
      },
      "getArrayOpenPositionDataByBucket(address,address,uint256,uint256)": {
        "params": {
          "_bucket": "The address of the bucket positions are related to",
          "_count": "The number of positions to retrieve.",
          "_cursor": "The cursor value for pagination.",
          "_positionManager": "The address of the PositionManager where the positions is stored"
        }
      },
      "getArrayOpenPositionDataByTrader(address,address,uint256,uint256)": {
        "params": {
          "_count": "The number of positions to retrieve.",
          "_cursor": "The cursor value for pagination.",
          "_positionManager": "The address of the PositionManager where the positions is stored",
          "_trader": "The address, information about all positions of which will be displayed"
        }
      },
      "getAssetMetadata(address,address)": {
        "params": {
          "_asset": "The address of the asset to retrieve metadata for.",
          "_bucket": "The address of the Bucket contract."
        },
        "returns": {
          "_0": "metadata The metadata of the asset within the bucket."
        }
      },
      "getBucket(address,address)": {
        "params": {
          "_bucket": "The address of the Bucket contract.",
          "_trader": "The address of the trader."
        },
        "returns": {
          "_0": "The metadata of the bucket."
        }
      },
      "getBucketsArray(address[],address,address,bool)": {
        "params": {
          "_buckets": "The array of bucket addresses.",
          "_positionManager": "The address of the PositionManager contract.",
          "_showDeprecated": "Flag to determine whether deprecated buckets should be included.",
          "_trader": "The address of the trader."
        },
        "returns": {
          "_0": "An array of `BucketMetaData` objects."
        }
      },
      "getChainlinkLatestRoundData(address[])": {
        "params": {
          "_feeds": "An array of feed addresses."
        },
        "returns": {
          "_0": "res An array of RoundData structs containing the latest round data for each feed."
        }
      },
      "getEstimatedMinProtocolFee(uint8,address)": {
        "params": {
          "_pm": "The instance of the PositionManager contract.",
          "_tradingOrderType": "Represents the type of trading order in enum TradingOrderType (IPrimexDNSStorageV3)"
        }
      },
      "getLMBucketInfo(address,string)": {
        "params": {
          "_bucketName": "The name of the liquidity mining bucket.",
          "liquidityMiningRewardDistributor": "The instance of the LiquidityMiningRewardDistributor contract."
        },
        "returns": {
          "_0": "info The liquidity mining bucket information."
        }
      },
      "getLenderInfo(address,string,address)": {
        "params": {
          "bucketName": "The name of the lending bucket.",
          "liquidityMiningRewardDistributor": "The instance of the LiquidityMiningRewardDistributor contract.",
          "user": "The address of the lender."
        },
        "returns": {
          "_0": "info The lender information."
        }
      },
      "getLimitOrdersWithConditions(address,uint256,uint256)": {
        "params": {
          "_count": "The number of positions to retrieve.",
          "_cursor": "The cursor value for pagination.",
          "_limitOrderManager": "The address of the LimitOrderManager where the order is stored."
        },
        "returns": {
          "limitOrdersWithConditions": "limitOrderWithConditions An array of LimitOrderWithConditions structs representing open positions with conditions.",
          "newCursor": "The new cursor value for pagination."
        }
      },
      "getLiquidationPrice(address,string,uint256,address,uint256)": {
        "details": "The liquidation price is the price at which a position can be liquidated (i.e., its collateral can cover the borrowed amount).",
        "params": {
          "_borrowedAmount": "The amount borrowed in the position.",
          "_bucket": "The name of the bucket associated with the position.",
          "_positionAmount": "The amount of the asset held in the position.",
          "_positionAsset": "The address of the asset held in the position.",
          "_positionManager": "The address of the PositionManager contract."
        },
        "returns": {
          "_0": "The liquidation price in borrowed asset for the position."
        }
      },
      "getLiquidationPrice(address,uint256)": {
        "params": {
          "_id": "The ID of the position.",
          "_positionManager": "The address of the PositionManager contract."
        },
        "returns": {
          "_0": "The liquidation price in borrowed asset of the position."
        }
      },
      "getOpenPositionData(address,uint256)": {
        "params": {
          "_id": "Position id to show the parameters position",
          "_positionManager": "The address of the PositionManager where the position is stored"
        },
        "returns": {
          "_0": "openPositionData The open position data including various details."
        }
      },
      "getOpenPositionsWithConditions(address,uint256,uint256)": {
        "params": {
          "_count": "The number of positions to retrieve.",
          "_cursor": "The cursor value for pagination.",
          "_positionManager": "The address of the PositionManager where the position is stored."
        },
        "returns": {
          "newCursor": "The new cursor value for pagination.",
          "openPositionsWithConditions": "openPositionsWithConditionsArray An array of OpenPositionWithConditions structs representing open positions with conditions."
        }
      },
      "getPositionMaxDecrease(address,uint256,bytes,bytes[][],uint256[])": {
        "details": "maxDecrease = (1 - securityBuffer) * (1 - oracleTolerableLimit) * (1 - pricedrop) * positionAmountInBorrowedAsset / (feeBuffer * (1 + maintenanceBuffer)) - position.bucket.getNormalizedVariableDebt() * position.scaledDebtAmount",
        "params": {
          "_id": "The ID of the position.",
          "_pm": "The instance of the PositionManager contract."
        },
        "returns": {
          "_0": "The maximum decrease in position value."
        }
      },
      "getSupportedAsset(address,address,address)": {
        "params": {
          "_asset": "The address of the asset for which information is requested.",
          "_bucket": "The address of the Bucket where the asset is supported.",
          "_trader": "The address of the Trader requesting the information."
        },
        "returns": {
          "_0": "supportedAsset The SupportedAsset struct containing the asset and its properties."
        }
      },
      "getSupportedAssetArray(address,address[],address)": {
        "params": {
          "_assets": "An array of asset addresses.",
          "_bucket": "The address of the Bucket.",
          "_trader": "The address of the trader."
        },
        "returns": {
          "_0": "res An array of SupportedAsset structs representing the supported assets."
        }
      },
      "getTokenArrayMetadata(address[],address)": {
        "params": {
          "_tokens": "The array of token addresses.",
          "_trader": "The address of the trader."
        },
        "returns": {
          "_0": "res The array of token metadata."
        }
      },
      "getTokenMetadata(address,address)": {
        "params": {
          "_token": "The address of the token.",
          "_trader": "The address of the trader."
        },
        "returns": {
          "_0": "metadata The metadata of the token."
        }
      },
      "isStopLossReached(address,uint256,bytes,bytes[][],uint256[])": {
        "params": {
          "_id": "The ID of the position to check.",
          "_positionManager": "The address of the PositionManager contract."
        },
        "returns": {
          "_0": "A boolean indicating whether the stop loss condition is reached."
        }
      },
      "supportsInterface(bytes4)": {
        "params": {
          "interfaceId": "The interface id to check"
        }
      }
    },
    "version": 1
  },
  "userdoc": {
    "kind": "user",
    "methods": {
      "getAllBucketsFactory(address[],address,address,bool)": {
        "notice": "Retrieves all bucket metadata from a bucket factory contract."
      },
      "getArrayOpenPositionDataByBucket(address,address,uint256,uint256)": {
        "notice": "The function shows the parameters for all open positions of the `_trader` with the best dex for each position"
      },
      "getArrayOpenPositionDataByTrader(address,address,uint256,uint256)": {
        "notice": "The function shows the parameters for all open positions of the `_trader` with the best dex for each position"
      },
      "getAssetMetadata(address,address)": {
        "notice": "Retrieves the metadata of an asset within a bucket."
      },
      "getBucket(address,address)": {
        "notice": "Retrieves the metadata of a bucket."
      },
      "getBucketsArray(address[],address,address,bool)": {
        "notice": "Retrieves an array of `BucketMetaData` for the given `_user`."
      },
      "getChainlinkLatestRoundData(address[])": {
        "notice": "Retrieves the latest round data for multiple Chainlink feeds."
      },
      "getEstimatedMinProtocolFee(uint8,address)": {
        "notice": "Calculate an approximate min protocol fee based on averageGasPerAction, which represents the typical amount of gas expended by the Keeper for the relevant action."
      },
      "getLMBucketInfo(address,string)": {
        "notice": "Retrieves information about a liquidity mining bucket."
      },
      "getLenderInfo(address,string,address)": {
        "notice": "Retrieves information about a lender from the LiquidityMiningRewardDistributor contract."
      },
      "getLimitOrdersWithConditions(address,uint256,uint256)": {
        "notice": "The function returns the limit orders with corresponding conditions"
      },
      "getLiquidationPrice(address,string,uint256,address,uint256)": {
        "notice": "Calculates the liquidation price for a given position."
      },
      "getLiquidationPrice(address,uint256)": {
        "notice": "Retrieves the liquidation price of a position."
      },
      "getOpenPositionData(address,uint256)": {
        "notice": "Retrieves open position data based on the provided position manager and id."
      },
      "getOpenPositionsWithConditions(address,uint256,uint256)": {
        "notice": "The function returns the positions with corresponding conditions."
      },
      "getPositionMaxDecrease(address,uint256,bytes,bytes[][],uint256[])": {
        "notice": "Retrieves the maximum decrease in position value for a given position ID."
      },
      "getSupportedAsset(address,address,address)": {
        "notice": "Retrieves information about a supported asset."
      },
      "getSupportedAssetArray(address,address[],address)": {
        "notice": "Retrieves an array of SupportedAsset structs for the given bucket, assets, and trader."
      },
      "getTokenArrayMetadata(address[],address)": {
        "notice": "Retrieves the metadata of an array of tokens for a given trader."
      },
      "getTokenMetadata(address,address)": {
        "notice": "Retrieves the metadata of a token for a given trader."
      },
      "isStopLossReached(address,uint256,bytes,bytes[][],uint256[])": {
        "notice": "Checks if the stop loss condition of a position is reached."
      },
      "supportsInterface(bytes4)": {
        "notice": "Interface checker"
      }
    },
    "version": 1
  },
  "storageLayout": {
    "storage": [],
    "types": null
  }
}