{
  "address": "0xD1869a3C77C17D185c9a5e8904e0e4867e5EB1D9",
  "abi": [
    {
      "inputs": [],
      "stateMutability": "nonpayable",
      "type": "constructor"
    },
    {
      "anonymous": false,
      "inputs": [
        {
          "indexed": true,
          "internalType": "bytes32",
          "name": "role",
          "type": "bytes32"
        },
        {
          "indexed": true,
          "internalType": "bytes32",
          "name": "previousAdminRole",
          "type": "bytes32"
        },
        {
          "indexed": true,
          "internalType": "bytes32",
          "name": "newAdminRole",
          "type": "bytes32"
        }
      ],
      "name": "RoleAdminChanged",
      "type": "event"
    },
    {
      "anonymous": false,
      "inputs": [
        {
          "indexed": true,
          "internalType": "bytes32",
          "name": "role",
          "type": "bytes32"
        },
        {
          "indexed": true,
          "internalType": "address",
          "name": "account",
          "type": "address"
        },
        {
          "indexed": true,
          "internalType": "address",
          "name": "sender",
          "type": "address"
        }
      ],
      "name": "RoleGranted",
      "type": "event"
    },
    {
      "anonymous": false,
      "inputs": [
        {
          "indexed": true,
          "internalType": "bytes32",
          "name": "role",
          "type": "bytes32"
        },
        {
          "indexed": true,
          "internalType": "address",
          "name": "account",
          "type": "address"
        },
        {
          "indexed": true,
          "internalType": "address",
          "name": "sender",
          "type": "address"
        }
      ],
      "name": "RoleRevoked",
      "type": "event"
    },
    {
      "inputs": [],
      "name": "DEFAULT_ADMIN_ROLE",
      "outputs": [
        {
          "internalType": "bytes32",
          "name": "",
          "type": "bytes32"
        }
      ],
      "stateMutability": "view",
      "type": "function"
    },
    {
      "inputs": [
        {
          "internalType": "bytes32",
          "name": "role",
          "type": "bytes32"
        }
      ],
      "name": "getRoleAdmin",
      "outputs": [
        {
          "internalType": "bytes32",
          "name": "",
          "type": "bytes32"
        }
      ],
      "stateMutability": "view",
      "type": "function"
    },
    {
      "inputs": [
        {
          "internalType": "bytes32",
          "name": "role",
          "type": "bytes32"
        },
        {
          "internalType": "address",
          "name": "account",
          "type": "address"
        }
      ],
      "name": "grantRole",
      "outputs": [],
      "stateMutability": "nonpayable",
      "type": "function"
    },
    {
      "inputs": [
        {
          "internalType": "bytes32",
          "name": "role",
          "type": "bytes32"
        },
        {
          "internalType": "address",
          "name": "account",
          "type": "address"
        }
      ],
      "name": "hasRole",
      "outputs": [
        {
          "internalType": "bool",
          "name": "",
          "type": "bool"
        }
      ],
      "stateMutability": "view",
      "type": "function"
    },
    {
      "inputs": [
        {
          "internalType": "bytes32",
          "name": "",
          "type": "bytes32"
        }
      ],
      "name": "isRoleForContractsOnly",
      "outputs": [
        {
          "internalType": "bool",
          "name": "",
          "type": "bool"
        }
      ],
      "stateMutability": "view",
      "type": "function"
    },
    {
      "inputs": [
        {
          "internalType": "bytes32[]",
          "name": "roles",
          "type": "bytes32[]"
        }
      ],
      "name": "removeRolesForContractsOnly",
      "outputs": [],
      "stateMutability": "nonpayable",
      "type": "function"
    },
    {
      "inputs": [
        {
          "internalType": "bytes32",
          "name": "role",
          "type": "bytes32"
        },
        {
          "internalType": "address",
          "name": "account",
          "type": "address"
        }
      ],
      "name": "renounceRole",
      "outputs": [],
      "stateMutability": "nonpayable",
      "type": "function"
    },
    {
      "inputs": [
        {
          "internalType": "bytes32",
          "name": "role",
          "type": "bytes32"
        },
        {
          "internalType": "address",
          "name": "account",
          "type": "address"
        }
      ],
      "name": "revokeRole",
      "outputs": [],
      "stateMutability": "nonpayable",
      "type": "function"
    },
    {
      "inputs": [
        {
          "internalType": "bytes32",
          "name": "role",
          "type": "bytes32"
        },
        {
          "internalType": "bytes32",
          "name": "adminRole",
          "type": "bytes32"
        }
      ],
      "name": "setRoleAdmin",
      "outputs": [],
      "stateMutability": "nonpayable",
      "type": "function"
    },
    {
      "inputs": [
        {
          "internalType": "bytes32[]",
          "name": "roles",
          "type": "bytes32[]"
        }
      ],
      "name": "setRolesForContractsOnly",
      "outputs": [],
      "stateMutability": "nonpayable",
      "type": "function"
    },
    {
      "inputs": [
        {
          "internalType": "bytes4",
          "name": "interfaceId",
          "type": "bytes4"
        }
      ],
      "name": "supportsInterface",
      "outputs": [
        {
          "internalType": "bool",
          "name": "",
          "type": "bool"
        }
      ],
      "stateMutability": "view",
      "type": "function"
    }
  ],
  "transactionHash": "0xc217db5ab1b3576321237f068b730daf885b8d9b0d37b378fd5ca8ef41ff2326",
  "args": [],
  "numDeployments": 1,
  "solcInputHash": "77b92b6c993777e32b56dbda936965f9",
  "bytecode": "0x608060408181523461012f5760008080528060205281812033825260205260ff8282205416156100e5575b7f5a7d4408f4759dddd7fdfd0d21abd99341dc2f52cda14804988a9b2df20766d891828252816020526001818320018054907fc0fc8e4dc5cff6febdf550b80d566f654e2baf1a02ea1060208c2f8ab2dd1b638091557fbd79b86ffe0ab8e8776151514217cd7cacd52c909f66475c3af44e129f0b00ff9185838680a460017f5c91514091af31f62f596a314af7d5be40146b2f2355969392f055e12e0982fb9283855284200192848454945580a4610a4290816101358239f35b80805280602052818120338252602052818120600160ff198254161790553333827f2f8788117e7eff1d82e926ec794901d17c78024a50270940304540a733656f0d8180a461002a565b600080fdfe608060408181526004918236101561001657600080fd5b600092833560e01c91826301ffc9a7146103d2575081631e4e00911461037a5781632052db561461034d578163248a9ca3146103235781632f2ff15d1461025857816336568abe146101d05750806391d1485414610197578063a217fddf1461017d578063a28f5a561461012a578063d547741f146100f75763e2c69f381461009e57600080fd5b346100f3576100ac36610450565b6100b792919261049d565b835b8181106100c4578480f35b806100d36100ee9284876109fc565b3586526001806020528487209060ff198254161790556109d7565b6100b9565b5080fd5b50346100f35760016101279161012261010f36610425565b93909283875286602052862001546106ab565b61082d565b80f35b50346100f35761013936610450565b61014492919261049d565b835b818110610151578480f35b806101606101789284876109fc565b3586526001602052838620805460ff191690556109d7565b610146565b50346100f357816003193601126100f35751908152602090f35b50346100f35760ff816020936101ac36610425565b9082528186528282206001600160a01b039091168252855220549151911615158152f35b839150346100f3576101e136610425565b91336001600160a01b038416036101fd5750906101279161082d565b608490602086519162461bcd60e51b8352820152602f60248201527f416363657373436f6e74726f6c3a2063616e206f6e6c792072656e6f756e636560448201526e103937b632b9903337b91039b2b63360891b6064820152fd5b9190503461031f5761026936610425565b9190928385526020906001825260ff838720541661030b575b50838552848152610298600183872001546106ab565b8385528481528185206001600160a01b039093168086529281528185205460ff16156102c2578480f35b83855284815281852083865290528320805460ff1916600117905533917f2f8788117e7eff1d82e926ec794901d17c78024a50270940304540a733656f0d8480a4388080808480f35b833b6102825782516339cd1d6f60e11b8152fd5b8280fd5b90503461031f57602036600319011261031f57816020936001923581528085522001549051908152f35b90503461031f57602036600319011261031f578160209360ff923581526001855220541690519015158152f35b90503461031f578160031936011261031f573560016024359261039b61049d565b828552846020528420019082825492557fbd79b86ffe0ab8e8776151514217cd7cacd52c909f66475c3af44e129f0b00ff8480a480f35b84913461031f57602036600319011261031f573563ffffffff60e01b811680910361031f5760209250637965db0b60e01b8114908115610414575b5015158152f35b6301ffc9a760e01b1490508361040d565b604090600319011261044b57600435906024356001600160a01b038116810361044b5790565b600080fd5b90602060031983011261044b5760043567ffffffffffffffff9283821161044b578060238301121561044b57816004013593841161044b5760248460051b8301011161044b576024019190565b3360009081527fad3228b676f7d3cd4284a5443f17f1962b36e491b30a40b2405849e597ba5fb560209081526040808320549092919060ff16156104e057505050565b6104e9336108c8565b8351836104f5826107d9565b6042825283820194606036873782511561069757603086538251906001918210156106975790607860218501536041915b818311610629575050506105e757846105b560486105d99360449798519889916105a68984019876020b1b1b2b9b9a1b7b73a3937b61d1030b1b1b7bab73a1604d1b8a5261057d815180928d6037890191016107b6565b8401917001034b99036b4b9b9b4b733903937b6329607d1b6037840152518093868401906107b6565b0103602881018952018761080b565b5194859362461bcd60e51b85526004850152518092816024860152858501906107b6565b601f01601f19168101030190fd5b60648386519062461bcd60e51b825280600483015260248201527f537472696e67733a20686578206c656e67746820696e73756666696369656e746044820152fd5b909192600f81166010811015610683576f181899199a1a9b1b9c1cb0b131b232b360811b901a61065985876108a1565b5360041c92801561066f57600019019190610526565b634e487b7160e01b82526011600452602482fd5b634e487b7160e01b83526032600452602483fd5b634e487b7160e01b81526032600452602490fd5b60008181526020818152604092838320338452825260ff8484205416156106d25750505050565b6106db336108c8565b908451906106e8826107d9565b6042825283820194606036873782511561069757603086538251906001918210156106975790607860218501536041915b818311610770575050506105e757846105b560486105d99360449798519889916105a68984019876020b1b1b2b9b9a1b7b73a3937b61d1030b1b1b7bab73a1604d1b8a5261057d815180928d6037890191016107b6565b909192600f81166010811015610683576f181899199a1a9b1b9c1cb0b131b232b360811b901a6107a085876108a1565b5360041c92801561066f57600019019190610719565b60005b8381106107c95750506000910152565b81810151838201526020016107b9565b6080810190811067ffffffffffffffff8211176107f557604052565b634e487b7160e01b600052604160045260246000fd5b90601f8019910116810190811067ffffffffffffffff8211176107f557604052565b9060009180835282602052604083209160018060a01b03169182845260205260ff60408420541661085d57505050565b80835282602052604083208284526020526040832060ff1981541690557ff6391f5c32d9c69d2a47ea670b442974b53935d1edc7fd64eb21e047a839171b339380a4565b9081518110156108b2570160200190565b634e487b7160e01b600052603260045260246000fd5b604051906060820182811067ffffffffffffffff8211176107f557604052602a82526020820160403682378251156108b2576030905381516001908110156108b257607860218401536029905b8082116109695750506109255790565b606460405162461bcd60e51b815260206004820152602060248201527f537472696e67733a20686578206c656e67746820696e73756666696369656e746044820152fd5b9091600f811660108110156109c2576f181899199a1a9b1b9c1cb0b131b232b360811b901a61099884866108a1565b5360041c9180156109ad576000190190610915565b60246000634e487b7160e01b81526011600452fd5b60246000634e487b7160e01b81526032600452fd5b60001981146109e65760010190565b634e487b7160e01b600052601160045260246000fd5b91908110156108b25760051b019056fea264697066735822122027bc2e8d293a93f76c04dd0156fdb3e12c7db1aa0a5fcb2b1a80a6d05ae3b51c64736f6c63430008120033",
  "libraries": {
    "Errors": "0x988288925196F0725268378d0C7c8aA0E50EB423"
  },
  "devdoc": {
    "events": {
      "RoleAdminChanged(bytes32,bytes32,bytes32)": {
        "details": "Emitted when `newAdminRole` is set as ``role``'s admin role, replacing `previousAdminRole` `DEFAULT_ADMIN_ROLE` is the starting admin for all roles, despite {RoleAdminChanged} not being emitted signaling this. _Available since v3.1._"
      },
      "RoleGranted(bytes32,address,address)": {
        "details": "Emitted when `account` is granted `role`. `sender` is the account that originated the contract call, an admin role bearer except when using {AccessControl-_setupRole}."
      },
      "RoleRevoked(bytes32,address,address)": {
        "details": "Emitted when `account` is revoked `role`. `sender` is the account that originated the contract call:   - if using `revokeRole`, it is the admin role bearer   - if using `renounceRole`, it is the role bearer (i.e. `account`)"
      }
    },
    "kind": "dev",
    "methods": {
      "getRoleAdmin(bytes32)": {
        "details": "Returns the admin role that controls `role`. See {grantRole} and {revokeRole}. To change a role's admin, use {_setRoleAdmin}."
      },
      "hasRole(bytes32,address)": {
        "details": "Returns `true` if `account` has been granted `role`."
      },
      "removeRolesForContractsOnly(bytes32[])": {
        "details": "Only callable by the BIG_TIMELOCK_ADMIN role.",
        "params": {
          "roles": "An array of bytes32 role identifiers to be removed."
        }
      },
      "renounceRole(bytes32,address)": {
        "details": "Revokes `role` from the calling account. Roles are often managed via {grantRole} and {revokeRole}: this function's purpose is to provide a mechanism for accounts to lose their privileges if they are compromised (such as when a trusted device is misplaced). If the calling account had been revoked `role`, emits a {RoleRevoked} event. Requirements: - the caller must be `account`. May emit a {RoleRevoked} event."
      },
      "revokeRole(bytes32,address)": {
        "details": "Revokes `role` from `account`. If `account` had been granted `role`, emits a {RoleRevoked} event. Requirements: - the caller must have ``role``'s admin role. May emit a {RoleRevoked} event."
      },
      "setRolesForContractsOnly(bytes32[])": {
        "details": "Only callable by the BIG_TIMELOCK_ADMIN role.",
        "params": {
          "roles": "An array of bytes32 role identifiers to be restricted for contracts only."
        }
      },
      "supportsInterface(bytes4)": {
        "details": "See {IERC165-supportsInterface}."
      }
    },
    "stateVariables": {
      "isRoleForContractsOnly": {
        "params": {
          "role": "The bytes32 identifier of the role."
        },
        "return": "True if the role is designated for contracts only",
        "returns": {
          "_0": "True if the role is designated for contracts only"
        }
      }
    },
    "version": 1
  },
  "userdoc": {
    "kind": "user",
    "methods": {
      "isRoleForContractsOnly(bytes32)": {
        "notice": "A mapping that stores whether a role is designated for contracts only."
      },
      "removeRolesForContractsOnly(bytes32[])": {
        "notice": "Removes roles to be restricted for contracts only."
      },
      "setRolesForContractsOnly(bytes32[])": {
        "notice": "Sets roles to be restricted for contracts only."
      }
    },
    "version": 1
  },
  "storageLayout": {
    "storage": [
      {
        "astId": 7515,
        "contract": "contracts/PrimexRegistry.sol:PrimexRegistry",
        "label": "_roles",
        "offset": 0,
        "slot": "0",
        "type": "t_mapping(t_bytes32,t_struct(RoleData)7510_storage)"
      },
      {
        "astId": 44698,
        "contract": "contracts/PrimexRegistry.sol:PrimexRegistry",
        "label": "isRoleForContractsOnly",
        "offset": 0,
        "slot": "1",
        "type": "t_mapping(t_bytes32,t_bool)"
      }
    ],
    "types": {
      "t_address": {
        "encoding": "inplace",
        "label": "address",
        "numberOfBytes": "20"
      },
      "t_bool": {
        "encoding": "inplace",
        "label": "bool",
        "numberOfBytes": "1"
      },
      "t_bytes32": {
        "encoding": "inplace",
        "label": "bytes32",
        "numberOfBytes": "32"
      },
      "t_mapping(t_address,t_bool)": {
        "encoding": "mapping",
        "key": "t_address",
        "label": "mapping(address => bool)",
        "numberOfBytes": "32",
        "value": "t_bool"
      },
      "t_mapping(t_bytes32,t_bool)": {
        "encoding": "mapping",
        "key": "t_bytes32",
        "label": "mapping(bytes32 => bool)",
        "numberOfBytes": "32",
        "value": "t_bool"
      },
      "t_mapping(t_bytes32,t_struct(RoleData)7510_storage)": {
        "encoding": "mapping",
        "key": "t_bytes32",
        "label": "mapping(bytes32 => struct AccessControl.RoleData)",
        "numberOfBytes": "32",
        "value": "t_struct(RoleData)7510_storage"
      },
      "t_struct(RoleData)7510_storage": {
        "encoding": "inplace",
        "label": "struct AccessControl.RoleData",
        "members": [
          {
            "astId": 7507,
            "contract": "contracts/PrimexRegistry.sol:PrimexRegistry",
            "label": "members",
            "offset": 0,
            "slot": "0",
            "type": "t_mapping(t_address,t_bool)"
          },
          {
            "astId": 7509,
            "contract": "contracts/PrimexRegistry.sol:PrimexRegistry",
            "label": "adminRole",
            "offset": 0,
            "slot": "1",
            "type": "t_bytes32"
          }
        ],
        "numberOfBytes": "64"
      }
    }
  }
}