{
  "address": "0x26785F1Ce7090075eb3F769764512750c4380FA6",
  "abi": [
    {
      "inputs": [
        {
          "internalType": "uint256",
          "name": "_minDelay",
          "type": "uint256"
        },
        {
          "internalType": "address[]",
          "name": "_proposers",
          "type": "address[]"
        },
        {
          "internalType": "address[]",
          "name": "_executors",
          "type": "address[]"
        },
        {
          "internalType": "address",
          "name": "_admin",
          "type": "address"
        },
        {
          "internalType": "address",
          "name": "_registry",
          "type": "address"
        }
      ],
      "stateMutability": "nonpayable",
      "type": "constructor"
    },
    {
      "anonymous": false,
      "inputs": [
        {
          "indexed": true,
          "internalType": "bytes32",
          "name": "id",
          "type": "bytes32"
        },
        {
          "indexed": true,
          "internalType": "uint256",
          "name": "index",
          "type": "uint256"
        },
        {
          "indexed": false,
          "internalType": "address",
          "name": "target",
          "type": "address"
        },
        {
          "indexed": false,
          "internalType": "uint256",
          "name": "value",
          "type": "uint256"
        },
        {
          "indexed": false,
          "internalType": "bytes",
          "name": "data",
          "type": "bytes"
        }
      ],
      "name": "CallExecuted",
      "type": "event"
    },
    {
      "anonymous": false,
      "inputs": [
        {
          "indexed": true,
          "internalType": "bytes32",
          "name": "id",
          "type": "bytes32"
        },
        {
          "indexed": false,
          "internalType": "bytes32",
          "name": "salt",
          "type": "bytes32"
        }
      ],
      "name": "CallSalt",
      "type": "event"
    },
    {
      "anonymous": false,
      "inputs": [
        {
          "indexed": true,
          "internalType": "bytes32",
          "name": "id",
          "type": "bytes32"
        },
        {
          "indexed": true,
          "internalType": "uint256",
          "name": "index",
          "type": "uint256"
        },
        {
          "indexed": false,
          "internalType": "address",
          "name": "target",
          "type": "address"
        },
        {
          "indexed": false,
          "internalType": "uint256",
          "name": "value",
          "type": "uint256"
        },
        {
          "indexed": false,
          "internalType": "bytes",
          "name": "data",
          "type": "bytes"
        },
        {
          "indexed": false,
          "internalType": "bytes32",
          "name": "predecessor",
          "type": "bytes32"
        },
        {
          "indexed": false,
          "internalType": "uint256",
          "name": "delay",
          "type": "uint256"
        }
      ],
      "name": "CallScheduled",
      "type": "event"
    },
    {
      "anonymous": false,
      "inputs": [
        {
          "indexed": true,
          "internalType": "bytes32",
          "name": "id",
          "type": "bytes32"
        }
      ],
      "name": "Cancelled",
      "type": "event"
    },
    {
      "anonymous": false,
      "inputs": [
        {
          "indexed": false,
          "internalType": "uint256",
          "name": "oldDuration",
          "type": "uint256"
        },
        {
          "indexed": false,
          "internalType": "uint256",
          "name": "newDuration",
          "type": "uint256"
        }
      ],
      "name": "MinDelayChange",
      "type": "event"
    },
    {
      "anonymous": false,
      "inputs": [
        {
          "indexed": false,
          "internalType": "address",
          "name": "account",
          "type": "address"
        }
      ],
      "name": "Paused",
      "type": "event"
    },
    {
      "anonymous": false,
      "inputs": [
        {
          "indexed": true,
          "internalType": "bytes32",
          "name": "role",
          "type": "bytes32"
        },
        {
          "indexed": true,
          "internalType": "bytes32",
          "name": "previousAdminRole",
          "type": "bytes32"
        },
        {
          "indexed": true,
          "internalType": "bytes32",
          "name": "newAdminRole",
          "type": "bytes32"
        }
      ],
      "name": "RoleAdminChanged",
      "type": "event"
    },
    {
      "anonymous": false,
      "inputs": [
        {
          "indexed": true,
          "internalType": "bytes32",
          "name": "role",
          "type": "bytes32"
        },
        {
          "indexed": true,
          "internalType": "address",
          "name": "account",
          "type": "address"
        },
        {
          "indexed": true,
          "internalType": "address",
          "name": "sender",
          "type": "address"
        }
      ],
      "name": "RoleGranted",
      "type": "event"
    },
    {
      "anonymous": false,
      "inputs": [
        {
          "indexed": true,
          "internalType": "bytes32",
          "name": "role",
          "type": "bytes32"
        },
        {
          "indexed": true,
          "internalType": "address",
          "name": "account",
          "type": "address"
        },
        {
          "indexed": true,
          "internalType": "address",
          "name": "sender",
          "type": "address"
        }
      ],
      "name": "RoleRevoked",
      "type": "event"
    },
    {
      "anonymous": false,
      "inputs": [
        {
          "indexed": false,
          "internalType": "address",
          "name": "account",
          "type": "address"
        }
      ],
      "name": "Unpaused",
      "type": "event"
    },
    {
      "inputs": [],
      "name": "CANCELLER_ROLE",
      "outputs": [
        {
          "internalType": "bytes32",
          "name": "",
          "type": "bytes32"
        }
      ],
      "stateMutability": "view",
      "type": "function"
    },
    {
      "inputs": [],
      "name": "DEFAULT_ADMIN_ROLE",
      "outputs": [
        {
          "internalType": "bytes32",
          "name": "",
          "type": "bytes32"
        }
      ],
      "stateMutability": "view",
      "type": "function"
    },
    {
      "inputs": [],
      "name": "EXECUTOR_ROLE",
      "outputs": [
        {
          "internalType": "bytes32",
          "name": "",
          "type": "bytes32"
        }
      ],
      "stateMutability": "view",
      "type": "function"
    },
    {
      "inputs": [],
      "name": "PROPOSER_ROLE",
      "outputs": [
        {
          "internalType": "bytes32",
          "name": "",
          "type": "bytes32"
        }
      ],
      "stateMutability": "view",
      "type": "function"
    },
    {
      "inputs": [],
      "name": "TIMELOCK_ADMIN_ROLE",
      "outputs": [
        {
          "internalType": "bytes32",
          "name": "",
          "type": "bytes32"
        }
      ],
      "stateMutability": "view",
      "type": "function"
    },
    {
      "inputs": [
        {
          "internalType": "bytes32",
          "name": "id",
          "type": "bytes32"
        }
      ],
      "name": "cancel",
      "outputs": [],
      "stateMutability": "nonpayable",
      "type": "function"
    },
    {
      "inputs": [
        {
          "internalType": "address",
          "name": "target",
          "type": "address"
        },
        {
          "internalType": "uint256",
          "name": "value",
          "type": "uint256"
        },
        {
          "internalType": "bytes",
          "name": "payload",
          "type": "bytes"
        },
        {
          "internalType": "bytes32",
          "name": "predecessor",
          "type": "bytes32"
        },
        {
          "internalType": "bytes32",
          "name": "salt",
          "type": "bytes32"
        }
      ],
      "name": "execute",
      "outputs": [],
      "stateMutability": "payable",
      "type": "function"
    },
    {
      "inputs": [
        {
          "internalType": "address[]",
          "name": "targets",
          "type": "address[]"
        },
        {
          "internalType": "uint256[]",
          "name": "values",
          "type": "uint256[]"
        },
        {
          "internalType": "bytes[]",
          "name": "payloads",
          "type": "bytes[]"
        },
        {
          "internalType": "bytes32",
          "name": "predecessor",
          "type": "bytes32"
        },
        {
          "internalType": "bytes32",
          "name": "salt",
          "type": "bytes32"
        }
      ],
      "name": "executeBatch",
      "outputs": [],
      "stateMutability": "payable",
      "type": "function"
    },
    {
      "inputs": [],
      "name": "getMinDelay",
      "outputs": [
        {
          "internalType": "uint256",
          "name": "",
          "type": "uint256"
        }
      ],
      "stateMutability": "view",
      "type": "function"
    },
    {
      "inputs": [
        {
          "internalType": "bytes32",
          "name": "role",
          "type": "bytes32"
        }
      ],
      "name": "getRoleAdmin",
      "outputs": [
        {
          "internalType": "bytes32",
          "name": "",
          "type": "bytes32"
        }
      ],
      "stateMutability": "view",
      "type": "function"
    },
    {
      "inputs": [
        {
          "internalType": "bytes32",
          "name": "id",
          "type": "bytes32"
        }
      ],
      "name": "getTimestamp",
      "outputs": [
        {
          "internalType": "uint256",
          "name": "",
          "type": "uint256"
        }
      ],
      "stateMutability": "view",
      "type": "function"
    },
    {
      "inputs": [
        {
          "internalType": "bytes32",
          "name": "role",
          "type": "bytes32"
        },
        {
          "internalType": "address",
          "name": "account",
          "type": "address"
        }
      ],
      "name": "grantRole",
      "outputs": [],
      "stateMutability": "nonpayable",
      "type": "function"
    },
    {
      "inputs": [
        {
          "internalType": "bytes32",
          "name": "role",
          "type": "bytes32"
        },
        {
          "internalType": "address",
          "name": "account",
          "type": "address"
        }
      ],
      "name": "hasRole",
      "outputs": [
        {
          "internalType": "bool",
          "name": "",
          "type": "bool"
        }
      ],
      "stateMutability": "view",
      "type": "function"
    },
    {
      "inputs": [
        {
          "internalType": "address",
          "name": "target",
          "type": "address"
        },
        {
          "internalType": "uint256",
          "name": "value",
          "type": "uint256"
        },
        {
          "internalType": "bytes",
          "name": "data",
          "type": "bytes"
        },
        {
          "internalType": "bytes32",
          "name": "predecessor",
          "type": "bytes32"
        },
        {
          "internalType": "bytes32",
          "name": "salt",
          "type": "bytes32"
        }
      ],
      "name": "hashOperation",
      "outputs": [
        {
          "internalType": "bytes32",
          "name": "",
          "type": "bytes32"
        }
      ],
      "stateMutability": "pure",
      "type": "function"
    },
    {
      "inputs": [
        {
          "internalType": "address[]",
          "name": "targets",
          "type": "address[]"
        },
        {
          "internalType": "uint256[]",
          "name": "values",
          "type": "uint256[]"
        },
        {
          "internalType": "bytes[]",
          "name": "payloads",
          "type": "bytes[]"
        },
        {
          "internalType": "bytes32",
          "name": "predecessor",
          "type": "bytes32"
        },
        {
          "internalType": "bytes32",
          "name": "salt",
          "type": "bytes32"
        }
      ],
      "name": "hashOperationBatch",
      "outputs": [
        {
          "internalType": "bytes32",
          "name": "",
          "type": "bytes32"
        }
      ],
      "stateMutability": "pure",
      "type": "function"
    },
    {
      "inputs": [
        {
          "internalType": "bytes32",
          "name": "id",
          "type": "bytes32"
        }
      ],
      "name": "isOperation",
      "outputs": [
        {
          "internalType": "bool",
          "name": "",
          "type": "bool"
        }
      ],
      "stateMutability": "view",
      "type": "function"
    },
    {
      "inputs": [
        {
          "internalType": "bytes32",
          "name": "id",
          "type": "bytes32"
        }
      ],
      "name": "isOperationDone",
      "outputs": [
        {
          "internalType": "bool",
          "name": "",
          "type": "bool"
        }
      ],
      "stateMutability": "view",
      "type": "function"
    },
    {
      "inputs": [
        {
          "internalType": "bytes32",
          "name": "id",
          "type": "bytes32"
        }
      ],
      "name": "isOperationPending",
      "outputs": [
        {
          "internalType": "bool",
          "name": "",
          "type": "bool"
        }
      ],
      "stateMutability": "view",
      "type": "function"
    },
    {
      "inputs": [
        {
          "internalType": "bytes32",
          "name": "id",
          "type": "bytes32"
        }
      ],
      "name": "isOperationReady",
      "outputs": [
        {
          "internalType": "bool",
          "name": "",
          "type": "bool"
        }
      ],
      "stateMutability": "view",
      "type": "function"
    },
    {
      "inputs": [
        {
          "internalType": "address",
          "name": "",
          "type": "address"
        },
        {
          "internalType": "address",
          "name": "",
          "type": "address"
        },
        {
          "internalType": "uint256[]",
          "name": "",
          "type": "uint256[]"
        },
        {
          "internalType": "uint256[]",
          "name": "",
          "type": "uint256[]"
        },
        {
          "internalType": "bytes",
          "name": "",
          "type": "bytes"
        }
      ],
      "name": "onERC1155BatchReceived",
      "outputs": [
        {
          "internalType": "bytes4",
          "name": "",
          "type": "bytes4"
        }
      ],
      "stateMutability": "nonpayable",
      "type": "function"
    },
    {
      "inputs": [
        {
          "internalType": "address",
          "name": "",
          "type": "address"
        },
        {
          "internalType": "address",
          "name": "",
          "type": "address"
        },
        {
          "internalType": "uint256",
          "name": "",
          "type": "uint256"
        },
        {
          "internalType": "uint256",
          "name": "",
          "type": "uint256"
        },
        {
          "internalType": "bytes",
          "name": "",
          "type": "bytes"
        }
      ],
      "name": "onERC1155Received",
      "outputs": [
        {
          "internalType": "bytes4",
          "name": "",
          "type": "bytes4"
        }
      ],
      "stateMutability": "nonpayable",
      "type": "function"
    },
    {
      "inputs": [
        {
          "internalType": "address",
          "name": "",
          "type": "address"
        },
        {
          "internalType": "address",
          "name": "",
          "type": "address"
        },
        {
          "internalType": "uint256",
          "name": "",
          "type": "uint256"
        },
        {
          "internalType": "bytes",
          "name": "",
          "type": "bytes"
        }
      ],
      "name": "onERC721Received",
      "outputs": [
        {
          "internalType": "bytes4",
          "name": "",
          "type": "bytes4"
        }
      ],
      "stateMutability": "nonpayable",
      "type": "function"
    },
    {
      "inputs": [],
      "name": "pause",
      "outputs": [],
      "stateMutability": "nonpayable",
      "type": "function"
    },
    {
      "inputs": [],
      "name": "paused",
      "outputs": [
        {
          "internalType": "bool",
          "name": "",
          "type": "bool"
        }
      ],
      "stateMutability": "view",
      "type": "function"
    },
    {
      "inputs": [],
      "name": "registry",
      "outputs": [
        {
          "internalType": "address",
          "name": "",
          "type": "address"
        }
      ],
      "stateMutability": "view",
      "type": "function"
    },
    {
      "inputs": [
        {
          "internalType": "bytes32",
          "name": "role",
          "type": "bytes32"
        },
        {
          "internalType": "address",
          "name": "account",
          "type": "address"
        }
      ],
      "name": "renounceRole",
      "outputs": [],
      "stateMutability": "nonpayable",
      "type": "function"
    },
    {
      "inputs": [
        {
          "internalType": "bytes32",
          "name": "role",
          "type": "bytes32"
        },
        {
          "internalType": "address",
          "name": "account",
          "type": "address"
        }
      ],
      "name": "revokeRole",
      "outputs": [],
      "stateMutability": "nonpayable",
      "type": "function"
    },
    {
      "inputs": [
        {
          "internalType": "address",
          "name": "target",
          "type": "address"
        },
        {
          "internalType": "uint256",
          "name": "value",
          "type": "uint256"
        },
        {
          "internalType": "bytes",
          "name": "data",
          "type": "bytes"
        },
        {
          "internalType": "bytes32",
          "name": "predecessor",
          "type": "bytes32"
        },
        {
          "internalType": "bytes32",
          "name": "salt",
          "type": "bytes32"
        },
        {
          "internalType": "uint256",
          "name": "delay",
          "type": "uint256"
        }
      ],
      "name": "schedule",
      "outputs": [],
      "stateMutability": "nonpayable",
      "type": "function"
    },
    {
      "inputs": [
        {
          "internalType": "address[]",
          "name": "targets",
          "type": "address[]"
        },
        {
          "internalType": "uint256[]",
          "name": "values",
          "type": "uint256[]"
        },
        {
          "internalType": "bytes[]",
          "name": "payloads",
          "type": "bytes[]"
        },
        {
          "internalType": "bytes32",
          "name": "predecessor",
          "type": "bytes32"
        },
        {
          "internalType": "bytes32",
          "name": "salt",
          "type": "bytes32"
        },
        {
          "internalType": "uint256",
          "name": "delay",
          "type": "uint256"
        }
      ],
      "name": "scheduleBatch",
      "outputs": [],
      "stateMutability": "nonpayable",
      "type": "function"
    },
    {
      "inputs": [
        {
          "internalType": "bytes4",
          "name": "interfaceId",
          "type": "bytes4"
        }
      ],
      "name": "supportsInterface",
      "outputs": [
        {
          "internalType": "bool",
          "name": "",
          "type": "bool"
        }
      ],
      "stateMutability": "view",
      "type": "function"
    },
    {
      "inputs": [],
      "name": "unpause",
      "outputs": [],
      "stateMutability": "nonpayable",
      "type": "function"
    },
    {
      "inputs": [
        {
          "internalType": "uint256",
          "name": "",
          "type": "uint256"
        }
      ],
      "name": "updateDelay",
      "outputs": [],
      "stateMutability": "pure",
      "type": "function"
    },
    {
      "stateMutability": "payable",
      "type": "receive"
    }
  ],
  "transactionHash": "0x69816ca6098287887a7197b48152ff07e8a144d7a55f170fc2a67ac64a32c190",
  "args": [
    "43200",
    [
      "0xC110b6e93a51ACF1f3DEd19c754789E7A2304F07"
    ],
    [
      "0xC110b6e93a51ACF1f3DEd19c754789E7A2304F07"
    ],
    "0xC110b6e93a51ACF1f3DEd19c754789E7A2304F07",
    "0xD1869a3C77C17D185c9a5e8904e0e4867e5EB1D9"
  ],
  "numDeployments": 1,
  "solcInputHash": "77b92b6c993777e32b56dbda936965f9",
  "bytecode": "0x60a06040908082523462000538576200282f80380380916200002282856200053d565b833981019060a081830312620005385780516020808301519092906001600160401b03908181116200053857856200005c9184016200058c565b94868301519182116200053857620000769183016200058c565b916200009360806200008b6060850162000577565b930162000577565b94867f5f58e3a2316349923ce3780f8d587db2d72378aed66a8261c916544fa6846ca56000958187528688526001938480858a20018481549155847fbd79b86ffe0ab8e8776151514217cd7cacd52c909f66475c3af44e129f0b00ff9181838d80a47fb09aa5aeb3702cfd50b6b62bc4532604938f21248a27a1d5ca736082b6819cc1808b52858b8284868b84200192848454945580a48a8c7fd8aa0f3194971a2a116679f7c2090f6939c8d4e01a2a8d7e41d55e5351469e639788835280868b85200181815491558a878680a4807ffd643c72710c63c0180259aba6b2d05451e3591a24e58b62239378085726f7839586855286888d8720019183835493558680a4808352898320308452825260ff998a81852054161562000501575b6001600160a01b039d8e169283620004af575b9c9a9896999795949391509a915080915b62000398575b935087925050505b620002fb575b505050505060249391817f11c24f4ead16507c69ac467fbd5e4eed5fb5c699626d2cc6d66421df253886d59260025581519087825285820152a16003805460ff1916905586516301ffc9a760e01b8152637965db0b60e01b6004820152928391829088165afa928315620002f1578293620002a8575b505050156200029757608052516121ba90816200065582396080518181816103e601528181610b6001528181610c4f0152610d4c0152f35b815163044aa57560e41b8152600490fd5b9080929350813d8311620002e9575b620002c381836200053d565b81010312620002e55751908115158203620002e257503880806200025f565b80fd5b5080fd5b503d620002b7565b85513d84823e3d90fd5b9193958193959791518310156200038d579162000346918685948c8c62000324868d9a62000629565b511693898252818152848383209252528c2054161562000355575b5062000603565b908b9593918a979593620001e3565b858b528a8c528d8b20818c528c528d8b20805460ff1916861790553390866000805160206200280f8339815191528d80a4386200033f565b9581979550620001e9565b909192939597999a8a9597999b8d88518510156200049e57908185949392620003c662000418978c62000629565b511687855284845282852081865284528d83862054161562000466575b50620003f0858b62000629565b51169187845283815281842083855281528c8285205416156200042b575b5050505062000603565b908e98969492918c8e9b999795620001d5565b878452838152818420908385525282208760ff19825416179055856000805160206200280f833981519152339380a48f388f918f926200040e565b8785528484528285208186528452828520805460ff19168b1790553390886000805160206200280f8339815191528780a438620003e3565b509a509a98969497955080620001db565b82855284815281852084865281528b8286205416620001c457828552848152818520908486525283208660ff198254161790556000805160206200280f833981519152339380a48a388f808f620001c4565b81845283835280842030855283528084208760ff198254161790553330836000805160206200280f8339815191528780a4620001b1565b600080fd5b601f909101601f19168101906001600160401b038211908210176200056157604052565b634e487b7160e01b600052604160045260246000fd5b51906001600160a01b03821682036200053857565b9080601f8301121562000538578151906001600160401b03821162000561578160051b60405193602093620005c4858401876200053d565b8552838086019282010192831162000538578301905b828210620005e9575050505090565b838091620005f78462000577565b815201910190620005da565b6000198114620006135760010190565b634e487b7160e01b600052601160045260246000fd5b80518210156200063e5760209160051b010190565b634e487b7160e01b600052603260045260246000fdfe608060405260048036101561001d575b50361561001b57600080fd5b005b600090813560e01c90816301d5062a146111dc57816301ffc9a71461116c57816307bd0265146111435781630d3cf6fc14611108578163134008d31461105e57816313bc9f2014611040578163150b7a0214610fea578163248a9ca314610fbe5781632ab0f52914610f915781632f2ff15d14610ee257816331d5075014610eb657816336568abe14610e255781633f4ba83a14610cfa578163584b153e14610cc35781635c975abb14610ca057816364d6235314610c7e5781637b10399914610c395781638065657f14610c195781638456cb5914610b0e5781638f2a0bb0146109b95781638f61f4f51461097e57816391d1485414610935578163a217fddf14610919578163b08e51c0146108de578163b1c5f427146108b3578163bc197c8114610828578163c4d252f51461038b578163d45c443514610361578163d547741f14610322578163e38335e514610204578163f23a6e61146101a6575063f27a0c920361000f57346101a357806003193601126101a3576020600254604051908152f35b80fd5b9050346102005760a0366003190112610200576101c16112c1565b506101ca6112dc565b506084356001600160401b0381116101fc576101e992503691016113da565b5060405163f23a6e6160e01b8152602090f35b8280fd5b5080fd5b8261027e60ff60406102778461021936611451565b92848688849f989c979a9e8f90859f889e610235999899611d2d565b60008051602061216583398151915281528060205281812081805260205220541615610314575b610267848314611eaf565b610272868314611eaf565b611aa2565b97886120b0565b875b818110610294578861029189612146565b80f35b8080897fc2617efa69bab66782fa219543714338489c4e9e178271560a91b82c3f612b5889896103076102ee868f6102e7828f928f908f61030f9f6102dc916102e193611f16565b611f26565b97611f16565b3595611f3a565b906102fb82828787611fa2565b60405194859485611f7b565b0390a3611f07565b610280565b61031d3361173d565b61025c565b9050346102005760403660031901126102005761029190356103426112dc565b908084528360205261035c6001604086200154339061187c565b611994565b90503461020057602036600319011261020057602091604091358152600183522054604051908152f35b905034610200576020806003193601126101fc57604051632474521560e21b81527f33c8cf2b4c3507067cccdaffa7fb5d7b51bd52e3540f05237106f5fda5ee2cee81840152336024808301919091529280359083836044817f00000000000000000000000000000000000000000000000000000000000000006001600160a01b03165afa92831561081d5786936107ee575b508261075e575b7ffd643c72710c63c0180259aba6b2d05451e3591a24e58b62239378085726f7839485875286855260408720338852855260ff6040882054161561057f5761047b83600052600160205260016040600020541190565b15610522575050808552600183528460408120557fbaa1eb22f2a492ba1a5fea61b8df4d27c6c8b5f3971e63bb58fa14ff72eedb708580a26104bb578280f35b81835282815260408320338452815260ff6040842054166104da578280f35b81835282815260408084203380865292528320805460ff191690559081907ff6391f5c32d9c69d2a47ea670b442974b53935d1edc7fd64eb21e047a839171b8480a438808280f35b60405162461bcd60e51b81529182018590526031908201527f54696d656c6f636b436f6e74726f6c6c65723a206f7065726174696f6e2063616044820152701b9b9bdd0818994818d85b98d95b1b1959607a1b6064820152608490fd5b849250858761058d33611c07565b916040519061059b8261136d565b6042825286820192606036853782511561074c576030845382519060019182101561073a5790607860218501536041915b8183116106d157505050610690579261065061065f6048889561068295604499986040519586936106278b86019b76020b1b1b2b9b9a1b7b73a3937b61d1030b1b1b7bab73a1604d1b8d528251928391603789019101611518565b8401917001034b99036b4b9b9b4b733903937b6329607d1b603784015251809386840190611518565b0103602881018452018261139e565b60405196879562461bcd60e51b8752860152519283809286015285850190611518565b601f01601f19168101030190fd5b6064858786816040519362461bcd60e51b85528401528201527f537472696e67733a20686578206c656e67746820696e73756666696369656e746044820152fd5b909192600f81166010811015610728576f181899199a1a9b1b9c1cb0b131b232b360811b901a6107018587611be0565b53881c928015610716576000190191906105cc565b634e487b7160e01b8252601189528782fd5b634e487b7160e01b835260328a528883fd5b634e487b7160e01b8152603288528690fd5b634e487b7160e01b8152603287528590fd5b7ffd643c72710c63c0180259aba6b2d05451e3591a24e58b62239378085726f78380875286855260408720338852855260ff604088205416156107a2575b50610425565b80875286855260408720338852855260408720600160ff19825416179055339033907f2f8788117e7eff1d82e926ec794901d17c78024a50270940304540a733656f0d8980a43861079c565b61080f919350843d8611610816575b610807818361139e565b810190611d15565b913861041e565b503d6107fd565b6040513d88823e3d90fd5b9050346102005760a0366003190112610200576108436112c1565b5061084c6112dc565b506001600160401b036044358181116108af5761086c90369084016114b2565b506064358181116108af5761088490369084016114b2565b506084359081116101fc5761089c92503691016113da565b5060405163bc197c8160e01b8152602090f35b8380fd5b82346101a35760206108d66108c736611451565b96959095949194939293611aa2565b604051908152f35b82346101a357806003193601126101a35760206040517ffd643c72710c63c0180259aba6b2d05451e3591a24e58b62239378085726f7838152f35b82346101a357806003193601126101a357602090604051908152f35b90503461020057604036600319011261020057604060209260ff926109586112dc565b903582528185528282206001600160a01b03909116825284522054604051911615158152f35b82346101a357806003193601126101a35760206040517fb09aa5aeb3702cfd50b6b62bc4532604938f21248a27a1d5ca736082b6819cc18152f35b9050346102005760c0366003190112610200576001600160401b039080358281116108af576109eb9036908301611421565b92602435818111610b0a57610a039036908501611421565b919093604435918211610b0657610a1f84918693369101611421565b60649491943591610a4989848489856084359d8e9560a4359b610a40611d2d565b61025c3361153b565b98610a54858b611da9565b898b5b828110610a9b578c828c80610a6a578280f35b60207f20fda5fd27a1ea7bf5b9567f143ac5470bb059374a27e8f67cb44f946f6d038791604051908152a281808280f35b80610aff927f4cf4410cc57040e44862ef0f45f3dd5a5e02db8eb8add648d4b0e236f1d07dca8b8b6103078f8c610af28f928e610aeb8f8f90610ae56102dc8f8097948195611f16565b99611f16565b3597611f3a565b9060405196879687611d71565b8a90610a57565b8680fd5b8580fd5b905034610200578160031936011261020057604051632474521560e21b81527f33c8cf2b4c3507067cccdaffa7fb5d7b51bd52e3540f05237106f5fda5ee2cee828201523360248201526020816044817f00000000000000000000000000000000000000000000000000000000000000006001600160a01b03165afa908115610c0e578391610bf0575b5015610be15750610ba7611d2d565b600160ff1960035416176003557f62e78cea01bee320cd4e420270b5ea74000d11b0c9f74754ebdbfc544b05a2586020604051338152a180f35b60405163036be76f60e61b8152fd5b610c08915060203d811161081657610807818361139e565b38610b98565b6040513d85823e3d90fd5b82346101a35760206108d6610c2d3661131f565b94939093929192611a4d565b82346101a357806003193601126101a3576040517f00000000000000000000000000000000000000000000000000000000000000006001600160a01b03168152602090f35b82346101a35760203660031901126101a35750604051638b8b98d760e01b8152fd5b82346101a357806003193601126101a357602060ff600354166040519015158152f35b82346101a35760203660031901126101a3576020610cf08335600052600160205260016040600020541190565b6040519015158152f35b905034610200578160031936011261020057604051632474521560e21b81527f33c8cf2b4c3507067cccdaffa7fb5d7b51bd52e3540f05237106f5fda5ee2cee828201523360248201526020816044817f00000000000000000000000000000000000000000000000000000000000000006001600160a01b03165afa908115610c0e578391610e07575b5015610be1576003549060ff821615610dcc575060ff19166003557f5db9ee0a495bf2e6ff9c91a7834c1ba4fdd244a5e8aa4e537bd38aeae4b073aa6020604051338152a180f35b60649060206040519162461bcd60e51b8352820152601460248201527314185d5cd8589b194e881b9bdd081c185d5cd95960621b6044820152fd5b610e1f915060203d811161081657610807818361139e565b38610d84565b82346101a35760403660031901126101a357610e3f6112dc565b336001600160a01b03821603610e5a57610291919235611994565b60405162461bcd60e51b8152602081850152602f60248201527f416363657373436f6e74726f6c3a2063616e206f6e6c792072656e6f756e636560448201526e103937b632b9903337b91039b2b63360891b6064820152608490fd5b82346101a35760203660031901126101a3576020610cf083356000526001602052604060002054151590565b9050346102005760403660031901126102005735610efe6112dc565b81835282602052610f176001604085200154339061187c565b818352602083815260408085206001600160a01b039093168086529290915283205460ff1615610f45578280f35b818352826020526040832081845260205260408320600160ff1982541617905533917f2f8788117e7eff1d82e926ec794901d17c78024a50270940304540a733656f0d8480a438808280f35b82346101a35760203660031901126101a3576020610cf08335600052600160205260016040600020541490565b905034610200576020366003190112610200576040602092600192358152808452200154604051908152f35b905034610200576080366003190112610200576110056112c1565b5061100e6112dc565b506064356001600160401b0381116101fc5761102d92503691016113da565b50604051630a85bd0160e11b8152602090f35b82346101a35760203660031901126101a3576020610cf08335611a08565b826102916110e6826110f27fc2617efa69bab66782fa219543714338489c4e9e178271560a91b82c3f612b586110dd6110963661131f565b6110a69894969198939293611d2d565b6000805160206121658339815191528a528960205260408a208a805260205260ff60408b205416156110fa575b8884848989611a4d565b988997886120b0565b6102fb82828787611fa2565b0390a3612146565b6111033361173d565b6110d3565b82346101a357806003193601126101a35760206040517f5f58e3a2316349923ce3780f8d587db2d72378aed66a8261c916544fa6846ca58152f35b82346101a357806003193601126101a35760206040516000805160206121658339815191528152f35b905034610200576020366003190112610200573563ffffffff60e01b811680910361020057602090630271189760e51b81149081156111b1575b506040519015158152f35b637965db0b60e01b8114915081156111cb575b50826111a6565b6301ffc9a760e01b149050826111c4565b9050346102005760c0366003190112610200576111f76112c1565b826024356044356001600160401b0381116101fc577f4cf4410cc57040e44862ef0f45f3dd5a5e02db8eb8add648d4b0e236f1d07dca9461123a913691016112f2565b949091606435946112846084359660a43590611254611d2d565b61125d3361153b565b61126b89828c8a8989611a4d565b998a97611278848a611da9565b60405196879687611d71565b0390a380611290578280f35b60207f20fda5fd27a1ea7bf5b9567f143ac5470bb059374a27e8f67cb44f946f6d038791604051908152a238808280f35b600435906001600160a01b03821682036112d757565b600080fd5b602435906001600160a01b03821682036112d757565b9181601f840112156112d7578235916001600160401b0383116112d757602083818601950101116112d757565b60a06003198201126112d7576004356001600160a01b03811681036112d7579160243591604435906001600160401b0382116112d757611361916004016112f2565b90916064359060843590565b608081019081106001600160401b0382111761138857604052565b634e487b7160e01b600052604160045260246000fd5b90601f801991011681019081106001600160401b0382111761138857604052565b6001600160401b03811161138857601f01601f191660200190565b81601f820112156112d7578035906113f1826113bf565b926113ff604051948561139e565b828452602083830101116112d757816000926020809301838601378301015290565b9181601f840112156112d7578235916001600160401b0383116112d7576020808501948460051b0101116112d757565b9060a06003198301126112d7576001600160401b036004358181116112d7578361147d91600401611421565b939093926024358381116112d7578261149891600401611421565b939093926044359182116112d75761136191600401611421565b9080601f830112156112d7578135906001600160401b038211611388578160051b604051936020936114e68584018761139e565b855283808601928201019283116112d7578301905b828210611509575050505090565b813581529083019083016114fb565b60005b83811061152b5750506000910152565b818101518382015260200161151b565b6001600160a01b031660008181527f3412d5605ac6cd444957cedb533e5dacad6378b4bc819ebe3652188a665066d5602090815260408083205490937fb09aa5aeb3702cfd50b6b62bc4532604938f21248a27a1d5ca736082b6819cc19160ff16156115a8575050505050565b6115b190611c07565b908451906115be8261136d565b6042825283820194606036873782511561172957603086538251906001918210156117295790607860218501536041915b8183116116bb57505050611679578461165560486106829360449798519889916116468984019876020b1b1b2b9b9a1b7b73a3937b61d1030b1b1b7bab73a1604d1b8a52610627815180928d603789019101611518565b0103602881018952018761139e565b5194859362461bcd60e51b8552600485015251809281602486015285850190611518565b60648386519062461bcd60e51b825280600483015260248201527f537472696e67733a20686578206c656e67746820696e73756666696369656e746044820152fd5b909192600f81166010811015611715576f181899199a1a9b1b9c1cb0b131b232b360811b901a6116eb8587611be0565b5360041c928015611701576000190191906115ef565b634e487b7160e01b82526011600452602482fd5b634e487b7160e01b83526032600452602483fd5b634e487b7160e01b81526032600452602490fd5b6001600160a01b031660008181527fdae2aa361dfd1ca020a396615627d436107c35eff9fe7738a3512819782d7069602090815260408083205490936000805160206121658339815191529160ff1615611798575050505050565b6117a190611c07565b908451906117ae8261136d565b6042825283820194606036873782511561172957603086538251906001918210156117295790607860218501536041915b81831161183657505050611679578461165560486106829360449798519889916116468984019876020b1b1b2b9b9a1b7b73a3937b61d1030b1b1b7bab73a1604d1b8a52610627815180928d603789019101611518565b909192600f81166010811015611715576f181899199a1a9b1b9c1cb0b131b232b360811b901a6118668587611be0565b5360041c928015611701576000190191906117df565b6000908082526020908282526040938484209060018060a01b031690818552835260ff8585205416156118b0575050505050565b6118b990611c07565b908451906118c68261136d565b6042825283820194606036873782511561172957603086538251906001918210156117295790607860218501536041915b81831161194e57505050611679578461165560486106829360449798519889916116468984019876020b1b1b2b9b9a1b7b73a3937b61d1030b1b1b7bab73a1604d1b8a52610627815180928d603789019101611518565b909192600f81166010811015611715576f181899199a1a9b1b9c1cb0b131b232b360811b901a61197e8587611be0565b5360041c928015611701576000190191906118f7565b9060009180835282602052604083209160018060a01b03169182845260205260ff6040842054166119c457505050565b80835282602052604083208284526020526040832060ff1981541690557ff6391f5c32d9c69d2a47ea670b442974b53935d1edc7fd64eb21e047a839171b339380a4565b6000526001602052604060002054600181119081611a24575090565b905042101590565b908060209392818452848401376000828201840152601f01601f1916010190565b94611a83611a9c94959293604051968795602087019960018060a01b03168a52604087015260a0606087015260c0860191611a2c565b91608084015260a083015203601f19810183528261139e565b51902090565b969294909695919560405196602091828901998060c08b0160a08d525260e08a01919060005b818110611bb857505050601f19898203810160408b0152888252976001600160fb1b0381116112d7579089969495939897929160051b80928a830137019380888601878703606089015252604085019460408260051b82010195836000925b848410611b4f57505050505050611a9c9550608084015260a08301520390810183528261139e565b9193969850919398999496603f198282030184528935601e19843603018112156112d75783018681019190356001600160401b0381116112d75780360383136112d757611ba188928392600195611a2c565b9b0194019401918b98969394919a9997959a611b27565b90919283359060018060a01b0382168092036112d75790815285019285019190600101611ac8565b908151811015611bf1570160200190565b634e487b7160e01b600052603260045260246000fd5b60405190606082018281106001600160401b0382111761138857604052602a8252602082016040368237825115611bf157603090538151600190811015611bf157607860218401536029905b808211611ca7575050611c635790565b606460405162461bcd60e51b815260206004820152602060248201527f537472696e67733a20686578206c656e67746820696e73756666696369656e746044820152fd5b9091600f81166010811015611d00576f181899199a1a9b1b9c1cb0b131b232b360811b901a611cd68486611be0565b5360041c918015611ceb576000190190611c53565b60246000634e487b7160e01b81526011600452fd5b60246000634e487b7160e01b81526032600452fd5b908160209103126112d7575180151581036112d75790565b60ff60035416611d3957565b60405162461bcd60e51b815260206004820152601060248201526f14185d5cd8589b194e881c185d5cd95960821b6044820152606490fd5b929093611d9f926080959897969860018060a01b03168552602085015260a0604085015260a0840191611a2c565b9460608201520152565b90611dc1826000526001602052604060002054151590565b611e52576002548110611dfe57420190814211611de8576000526001602052604060002055565b634e487b7160e01b600052601160045260246000fd5b60405162461bcd60e51b815260206004820152602660248201527f54696d656c6f636b436f6e74726f6c6c65723a20696e73756666696369656e746044820152652064656c617960d01b6064820152608490fd5b60405162461bcd60e51b815260206004820152602f60248201527f54696d656c6f636b436f6e74726f6c6c65723a206f7065726174696f6e20616c60448201526e1c9958591e481cd8da19591d5b1959608a1b6064820152608490fd5b15611eb657565b60405162461bcd60e51b815260206004820152602360248201527f54696d656c6f636b436f6e74726f6c6c65723a206c656e677468206d69736d616044820152620e8c6d60eb1b6064820152608490fd5b6000198114611de85760010190565b9190811015611bf15760051b0190565b356001600160a01b03811681036112d75790565b9190811015611bf15760051b81013590601e19813603018212156112d75701908135916001600160401b0383116112d75760200182360381136112d7579190565b611f9f949260609260018060a01b0316825260208201528160408201520191611a2c565b90565b90926000938493826040519384928337810185815203925af13d1561204c573d611fcb816113bf565b90611fd9604051928361139e565b8152600060203d92013e5b15611feb57565b60405162461bcd60e51b815260206004820152603360248201527f54696d656c6f636b436f6e74726f6c6c65723a20756e6465726c79696e6720746044820152721c985b9cd858dd1a5bdb881c995d995c9d1959606a1b6064820152608490fd5b611fe4565b1561205857565b60405162461bcd60e51b815260206004820152602a60248201527f54696d656c6f636b436f6e74726f6c6c65723a206f7065726174696f6e206973604482015269206e6f7420726561647960b01b6064820152608490fd5b6120bc6120c191611a08565b612051565b8015908115612127575b50156120d357565b60405162461bcd60e51b815260206004820152602660248201527f54696d656c6f636b436f6e74726f6c6c65723a206d697373696e6720646570656044820152656e64656e637960d01b6064820152608490fd5b6121409150600052600160205260016040600020541490565b386120cb565b6121526120bc82611a08565b6000526001602052600160406000205556fed8aa0f3194971a2a116679f7c2090f6939c8d4e01a2a8d7e41d55e5351469e63a2646970667358221220207b271ea8ad4dd47fe0f3a7d75685917ef12b4bb3db75039462cac953f4321664736f6c634300081200332f8788117e7eff1d82e926ec794901d17c78024a50270940304540a733656f0d",
  "libraries": {
    "Errors": "0x988288925196F0725268378d0C7c8aA0E50EB423"
  },
  "devdoc": {
    "events": {
      "CallExecuted(bytes32,uint256,address,uint256,bytes)": {
        "details": "Emitted when a call is performed as part of operation `id`."
      },
      "CallSalt(bytes32,bytes32)": {
        "details": "Emitted when new proposal is scheduled with non-zero salt."
      },
      "CallScheduled(bytes32,uint256,address,uint256,bytes,bytes32,uint256)": {
        "details": "Emitted when a call is scheduled as part of operation `id`."
      },
      "Cancelled(bytes32)": {
        "details": "Emitted when operation `id` is cancelled."
      },
      "MinDelayChange(uint256,uint256)": {
        "details": "Emitted when the minimum delay for future operations is modified."
      },
      "Paused(address)": {
        "details": "Emitted when the pause is triggered by `account`."
      },
      "RoleAdminChanged(bytes32,bytes32,bytes32)": {
        "details": "Emitted when `newAdminRole` is set as ``role``'s admin role, replacing `previousAdminRole` `DEFAULT_ADMIN_ROLE` is the starting admin for all roles, despite {RoleAdminChanged} not being emitted signaling this. _Available since v3.1._"
      },
      "RoleGranted(bytes32,address,address)": {
        "details": "Emitted when `account` is granted `role`. `sender` is the account that originated the contract call, an admin role bearer except when using {AccessControl-_setupRole}."
      },
      "RoleRevoked(bytes32,address,address)": {
        "details": "Emitted when `account` is revoked `role`. `sender` is the account that originated the contract call:   - if using `revokeRole`, it is the admin role bearer   - if using `renounceRole`, it is the role bearer (i.e. `account`)"
      },
      "Unpaused(address)": {
        "details": "Emitted when the pause is lifted by `account`."
      }
    },
    "kind": "dev",
    "methods": {
      "cancel(bytes32)": {
        "details": "This function can only be called by a guardian admin.",
        "params": {
          "id": "The ID of the task to be canceled."
        }
      },
      "execute(address,uint256,bytes,bytes32,bytes32)": {
        "details": "This function can only be called when the contract is not paused. Only callable by the EXECUTOR_ROLE role.",
        "params": {
          "payload": "The data payload to include in the transaction.",
          "predecessor": "The predecessor of the transaction (optional).",
          "salt": "The salt value to use for the transaction (optional).",
          "target": "The address of the contract to execute the transaction on.",
          "value": "The amount of native tokens (in wei) to send along with the transaction."
        }
      },
      "executeBatch(address[],uint256[],bytes[],bytes32,bytes32)": {
        "details": "This function can only be called when the contract is not paused. Only callable by the EXECUTOR_ROLE role.",
        "params": {
          "payloads": "The array of payload data for each transaction.",
          "predecessor": "The predecessor block's hash.",
          "salt": "The salt value for generating a deterministic pseudo-random address.",
          "targets": "The array of target addresses for the transactions.",
          "values": "The array of values to be sent with each transaction."
        }
      },
      "getMinDelay()": {
        "details": "Returns the minimum delay for an operation to become valid. This value can be changed by executing an operation that calls `updateDelay`."
      },
      "getRoleAdmin(bytes32)": {
        "details": "Returns the admin role that controls `role`. See {grantRole} and {revokeRole}. To change a role's admin, use {_setRoleAdmin}."
      },
      "getTimestamp(bytes32)": {
        "details": "Returns the timestamp at which an operation becomes ready (0 for unset operations, 1 for done operations)."
      },
      "grantRole(bytes32,address)": {
        "details": "Grants `role` to `account`. If `account` had not been already granted `role`, emits a {RoleGranted} event. Requirements: - the caller must have ``role``'s admin role. May emit a {RoleGranted} event."
      },
      "hasRole(bytes32,address)": {
        "details": "Returns `true` if `account` has been granted `role`."
      },
      "hashOperation(address,uint256,bytes,bytes32,bytes32)": {
        "details": "Returns the identifier of an operation containing a single transaction."
      },
      "hashOperationBatch(address[],uint256[],bytes[],bytes32,bytes32)": {
        "details": "Returns the identifier of an operation containing a batch of transactions."
      },
      "isOperation(bytes32)": {
        "details": "Returns whether an id correspond to a registered operation. This includes both Pending, Ready and Done operations."
      },
      "isOperationDone(bytes32)": {
        "details": "Returns whether an operation is done or not."
      },
      "isOperationPending(bytes32)": {
        "details": "Returns whether an operation is pending or not. Note that a \"pending\" operation may also be \"ready\"."
      },
      "isOperationReady(bytes32)": {
        "details": "Returns whether an operation is ready for execution. Note that a \"ready\" operation is also \"pending\"."
      },
      "onERC1155BatchReceived(address,address,uint256[],uint256[],bytes)": {
        "details": "See {IERC1155Receiver-onERC1155BatchReceived}."
      },
      "onERC1155Received(address,address,uint256,uint256,bytes)": {
        "details": "See {IERC1155Receiver-onERC1155Received}."
      },
      "onERC721Received(address,address,uint256,bytes)": {
        "details": "See {IERC721Receiver-onERC721Received}."
      },
      "pause()": {
        "details": "Triggers stopped state. This function can only be called by an address with the EMERGENCY_ADMIN role. Requirements: - The contract must not be paused."
      },
      "paused()": {
        "details": "Returns true if the contract is paused, and false otherwise."
      },
      "renounceRole(bytes32,address)": {
        "details": "Revokes `role` from the calling account. Roles are often managed via {grantRole} and {revokeRole}: this function's purpose is to provide a mechanism for accounts to lose their privileges if they are compromised (such as when a trusted device is misplaced). If the calling account had been revoked `role`, emits a {RoleRevoked} event. Requirements: - the caller must be `account`. May emit a {RoleRevoked} event."
      },
      "revokeRole(bytes32,address)": {
        "details": "Revokes `role` from `account`. If `account` had been granted `role`, emits a {RoleRevoked} event. Requirements: - the caller must have ``role``'s admin role. May emit a {RoleRevoked} event."
      },
      "schedule(address,uint256,bytes,bytes32,bytes32,uint256)": {
        "details": "Schedules a transaction to be executed in the future. This function can only be called when the contract is not paused. Only callable by the PROPOSER_ROLE role.",
        "params": {
          "data": "The data to be passed to the contract's function.",
          "delay": "The delay, in seconds, before the transaction can be executed.",
          "predecessor": "The hash of the preceding transaction in the same function.",
          "salt": "A random value used as a salt for the scheduled transaction.",
          "target": "The address of the contract to be called.",
          "value": "The amount of native tokens (in wei) to be sent with the transaction."
        }
      },
      "scheduleBatch(address[],uint256[],bytes[],bytes32,bytes32,uint256)": {
        "details": "Schedules a batch of transactions to be executed after a specified delay. This function can only be called when the contract is not paused. Only callable by the PROPOSER_ROLE role.",
        "params": {
          "delay": "The delay in seconds after which the transactions can be executed.",
          "payloads": "The array of payload data for each transaction.",
          "predecessor": "The predecessor hash for the batch of transactions.",
          "salt": "The salt value for generating the schedule hash.",
          "targets": "The array of target addresses for the transactions.",
          "values": "The array of values to be sent with each transaction."
        }
      },
      "supportsInterface(bytes4)": {
        "details": "See {IERC165-supportsInterface}."
      },
      "unpause()": {
        "details": "Returns to normal state. This function can only be called by an address with the SMALL_TIMELOCK_ADMIN or MEDIUM_TIMELOCK_ADMIN role depending on the contract. Requirements: - The contract must be paused."
      },
      "updateDelay(uint256)": {
        "details": "The function will revert with the `OPERATION_NOT_SUPPORTED` error."
      }
    },
    "version": 1
  },
  "userdoc": {
    "kind": "user",
    "methods": {
      "cancel(bytes32)": {
        "notice": "Cancels a specific task by its ID."
      },
      "execute(address,uint256,bytes,bytes32,bytes32)": {
        "notice": "Executes a transaction to the specified target with the given parameters."
      },
      "executeBatch(address[],uint256[],bytes[],bytes32,bytes32)": {
        "notice": "Executes a batch of transactions."
      },
      "updateDelay(uint256)": {
        "notice": "This function overrides a function in the parent contract."
      }
    },
    "version": 1
  },
  "storageLayout": {
    "storage": [
      {
        "astId": 7515,
        "contract": "contracts/PrimexTimelock.sol:PrimexTimelock",
        "label": "_roles",
        "offset": 0,
        "slot": "0",
        "type": "t_mapping(t_bytes32,t_struct(RoleData)7510_storage)"
      },
      {
        "astId": 8034,
        "contract": "contracts/PrimexTimelock.sol:PrimexTimelock",
        "label": "_timestamps",
        "offset": 0,
        "slot": "1",
        "type": "t_mapping(t_bytes32,t_uint256)"
      },
      {
        "astId": 8036,
        "contract": "contracts/PrimexTimelock.sol:PrimexTimelock",
        "label": "_minDelay",
        "offset": 0,
        "slot": "2",
        "type": "t_uint256"
      },
      {
        "astId": 9990,
        "contract": "contracts/PrimexTimelock.sol:PrimexTimelock",
        "label": "_paused",
        "offset": 0,
        "slot": "3",
        "type": "t_bool"
      }
    ],
    "types": {
      "t_address": {
        "encoding": "inplace",
        "label": "address",
        "numberOfBytes": "20"
      },
      "t_bool": {
        "encoding": "inplace",
        "label": "bool",
        "numberOfBytes": "1"
      },
      "t_bytes32": {
        "encoding": "inplace",
        "label": "bytes32",
        "numberOfBytes": "32"
      },
      "t_mapping(t_address,t_bool)": {
        "encoding": "mapping",
        "key": "t_address",
        "label": "mapping(address => bool)",
        "numberOfBytes": "32",
        "value": "t_bool"
      },
      "t_mapping(t_bytes32,t_struct(RoleData)7510_storage)": {
        "encoding": "mapping",
        "key": "t_bytes32",
        "label": "mapping(bytes32 => struct AccessControl.RoleData)",
        "numberOfBytes": "32",
        "value": "t_struct(RoleData)7510_storage"
      },
      "t_mapping(t_bytes32,t_uint256)": {
        "encoding": "mapping",
        "key": "t_bytes32",
        "label": "mapping(bytes32 => uint256)",
        "numberOfBytes": "32",
        "value": "t_uint256"
      },
      "t_struct(RoleData)7510_storage": {
        "encoding": "inplace",
        "label": "struct AccessControl.RoleData",
        "members": [
          {
            "astId": 7507,
            "contract": "contracts/PrimexTimelock.sol:PrimexTimelock",
            "label": "members",
            "offset": 0,
            "slot": "0",
            "type": "t_mapping(t_address,t_bool)"
          },
          {
            "astId": 7509,
            "contract": "contracts/PrimexTimelock.sol:PrimexTimelock",
            "label": "adminRole",
            "offset": 0,
            "slot": "1",
            "type": "t_bytes32"
          }
        ],
        "numberOfBytes": "64"
      },
      "t_uint256": {
        "encoding": "inplace",
        "label": "uint256",
        "numberOfBytes": "32"
      }
    }
  }
}