{
  "address": "0x63464916388dAB4f2e80551250335490C4518D37",
  "abi": [
    {
      "inputs": [],
      "stateMutability": "nonpayable",
      "type": "constructor"
    },
    {
      "anonymous": false,
      "inputs": [
        {
          "indexed": true,
          "internalType": "address",
          "name": "addr",
          "type": "address"
        }
      ],
      "name": "BlacklistedAddressAdded",
      "type": "event"
    },
    {
      "anonymous": false,
      "inputs": [
        {
          "indexed": true,
          "internalType": "address",
          "name": "addr",
          "type": "address"
        }
      ],
      "name": "BlacklistedAddressRemoved",
      "type": "event"
    },
    {
      "anonymous": false,
      "inputs": [
        {
          "indexed": false,
          "internalType": "uint8",
          "name": "version",
          "type": "uint8"
        }
      ],
      "name": "Initialized",
      "type": "event"
    },
    {
      "anonymous": false,
      "inputs": [
        {
          "indexed": true,
          "internalType": "address",
          "name": "addr",
          "type": "address"
        }
      ],
      "name": "WhitelistedAddressAdded",
      "type": "event"
    },
    {
      "anonymous": false,
      "inputs": [
        {
          "indexed": true,
          "internalType": "address",
          "name": "addr",
          "type": "address"
        }
      ],
      "name": "WhitelistedAddressRemoved",
      "type": "event"
    },
    {
      "inputs": [
        {
          "internalType": "address",
          "name": "_address",
          "type": "address"
        }
      ],
      "name": "addAddressToBlacklist",
      "outputs": [],
      "stateMutability": "nonpayable",
      "type": "function"
    },
    {
      "inputs": [
        {
          "internalType": "address",
          "name": "_address",
          "type": "address"
        }
      ],
      "name": "addAddressToWhitelist",
      "outputs": [],
      "stateMutability": "nonpayable",
      "type": "function"
    },
    {
      "inputs": [
        {
          "internalType": "address[]",
          "name": "_addresses",
          "type": "address[]"
        }
      ],
      "name": "addAddressesToBlacklist",
      "outputs": [],
      "stateMutability": "nonpayable",
      "type": "function"
    },
    {
      "inputs": [
        {
          "internalType": "address[]",
          "name": "_addresses",
          "type": "address[]"
        }
      ],
      "name": "addAddressesToWhitelist",
      "outputs": [],
      "stateMutability": "nonpayable",
      "type": "function"
    },
    {
      "inputs": [
        {
          "internalType": "address",
          "name": "_address",
          "type": "address"
        }
      ],
      "name": "getAccessType",
      "outputs": [
        {
          "internalType": "enum IWhiteBlackList.AccessType",
          "name": "",
          "type": "uint8"
        }
      ],
      "stateMutability": "view",
      "type": "function"
    },
    {
      "inputs": [
        {
          "internalType": "address",
          "name": "_registry",
          "type": "address"
        }
      ],
      "name": "initialize",
      "outputs": [],
      "stateMutability": "nonpayable",
      "type": "function"
    },
    {
      "inputs": [
        {
          "internalType": "address",
          "name": "_address",
          "type": "address"
        }
      ],
      "name": "isBlackListed",
      "outputs": [
        {
          "internalType": "bool",
          "name": "",
          "type": "bool"
        }
      ],
      "stateMutability": "view",
      "type": "function"
    },
    {
      "inputs": [],
      "name": "registry",
      "outputs": [
        {
          "internalType": "address",
          "name": "",
          "type": "address"
        }
      ],
      "stateMutability": "view",
      "type": "function"
    },
    {
      "inputs": [
        {
          "internalType": "address",
          "name": "_address",
          "type": "address"
        }
      ],
      "name": "removeAddressFromBlacklist",
      "outputs": [],
      "stateMutability": "nonpayable",
      "type": "function"
    },
    {
      "inputs": [
        {
          "internalType": "address",
          "name": "_address",
          "type": "address"
        }
      ],
      "name": "removeAddressFromWhitelist",
      "outputs": [],
      "stateMutability": "nonpayable",
      "type": "function"
    },
    {
      "inputs": [
        {
          "internalType": "address[]",
          "name": "_addresses",
          "type": "address[]"
        }
      ],
      "name": "removeAddressesFromBlacklist",
      "outputs": [],
      "stateMutability": "nonpayable",
      "type": "function"
    },
    {
      "inputs": [
        {
          "internalType": "address[]",
          "name": "_addresses",
          "type": "address[]"
        }
      ],
      "name": "removeAddressesFromWhitelist",
      "outputs": [],
      "stateMutability": "nonpayable",
      "type": "function"
    },
    {
      "inputs": [
        {
          "internalType": "bytes4",
          "name": "_interfaceId",
          "type": "bytes4"
        }
      ],
      "name": "supportsInterface",
      "outputs": [
        {
          "internalType": "bool",
          "name": "",
          "type": "bool"
        }
      ],
      "stateMutability": "view",
      "type": "function"
    }
  ],
  "transactionHash": "0x4223556d599742c75b28836529a974671019e240f201849de6154fdb424770b2",
  "args": [],
  "numDeployments": 1,
  "solcInputHash": "77b92b6c993777e32b56dbda936965f9",
  "bytecode": "0x608080604052346100c1576000549060ff8260081c1661006f575060ff80821603610034575b604051610ff790816100c78239f35b60ff90811916176000557f7f26b83ff96e1f2b6a682f133852f6798a09c465da95921460cefb3847402498602060405160ff8152a138610025565b62461bcd60e51b815260206004820152602760248201527f496e697469616c697a61626c653a20636f6e747261637420697320696e697469604482015266616c697a696e6760c81b6064820152608490fd5b600080fdfe608060408181526004908136101561001657600080fd5b600092833560e01c90816301ffc9a714610e0c57508063086dfcc414610daf57806324953eaa14610ca9578063286dd3f514610bc557806332258794146109dc57806335e82f3a146108d85780637b103999146108af5780637b9417c81461078c578063c4d66de8146105c1578063ca73419e14610415578063e2ec6ec3146102bb578063e47d6060146102555763f2c816ae146100b357600080fd5b346102515760208060031936011261024d576001600160a01b0383358181169491858203610249578360449160345416865192838092632474521560e21b82527f5c91514091af31f62f596a314af7d5be40146b2f2355969392f055e12e0982fb888301523360248301525afa90811561023f578791610212575b5015610203578486526033835260ff848720541660038110156101f0576001146101e1573b156101d3578385526033825260ff838620541660038110156101c0576002146101b25750828452603390528220805460ff191660021790557fee71faa2d1e96ac74ee4023d6ffa8abfa43b7648f51e3dbd8ec561823e9df1328280a280f35b8251630c71548760e41b8152fd5b634e487b7160e01b865260218252602486fd5b82516339cd1d6f60e11b8152fd5b50825163b5ddcc3760e01b8152fd5b634e487b7160e01b875260218352602487fd5b50825163036be76f60e61b8152fd5b6102329150843d8611610238575b61022a8183610eb2565b810190610eea565b3861012e565b503d610220565b85513d89823e3d90fd5b8680fd5b8380fd5b8280fd5b5091346102b85760203660031901126102b85781356001600160a01b038116908190036102b4578152603360205260ff83822054169160038310156102a1576020836002865191148152f35b634e487b7160e01b825260219052602490fd5b5080fd5b80fd5b5034610251576102ca36610e60565b9290845b8481106102d9578580f35b6102ec6102e7828785610f27565b610f4d565b60018060a01b03806034541690865192632474521560e21b84527fc0fc8e4dc5cff6febdf550b80d566f654e2baf1a02ea1060208c2f8ab2dd1b638785015283602493338583015281604460209788935afa90811561040b578b916103ee575b50156103de57169182895260339081815260ff888b2054169260038410156103cd575060018093146103bd57838a5252858820805460ff191690911790556103b891907fd1bba68c128cc3f427e5831b3c6f99f480b6efa6b9e80c757768f6124158cc3f8880a2610f02565b6102ce565b875163503d101f60e11b81528790fd5b634e487b7160e01b8b52602188528afd5b875163036be76f60e61b81528790fd5b6104059150853d87116102385761022a8183610eb2565b3861034c565b89513d8d823e3d90fd5b5090346102515761042536610e60565b9290845b848110610434578580f35b6104426102e7828785610f27565b60018060a01b03908160345416855192632474521560e21b84527f5c91514091af31f62f596a314af7d5be40146b2f2355969392f055e12e0982fb8885015283602492338483015281604460209788935afa9081156105b7578b9161059a575b501561058a57821692838a5260339182825260ff80898d205416946003958681101561057857600114610568573b1561055857858c52838352888c205416938410156105475750600280931461053757838a5252848820805460ff1916909117905561053291907fee71faa2d1e96ac74ee4023d6ffa8abfa43b7648f51e3dbd8ec561823e9df1328880a2610f02565b610429565b8651630c71548760e41b81528890fd5b634e487b7160e01b8b52602189528afd5b88516339cd1d6f60e11b81528a90fd5b895163b5ddcc3760e01b81528b90fd5b634e487b7160e01b8e5260218c52838efd5b865163036be76f60e61b81528890fd5b6105b19150853d87116102385761022a8183610eb2565b386104a2565b88513d8d823e3d90fd5b5034610251576020908160031936011261024d5782356001600160a01b03811693908490036107885784549060ff8260081c16159182809361077b575b8015610764575b1561070a5760ff1981166001178755826106f9575b5085549460ff8660081c169161062f83610f61565b84516301ffc9a760e01b8152637965db0b60e01b828201528681602481865afa9081156106ef5789916106d2575b50156106c4575090610686916bffffffffffffffffffffffff60a01b6034541617603455610f61565b61068e578380f35b7f7f26b83ff96e1f2b6a682f133852f6798a09c465da95921460cefb38474024989261ff00191684555160018152a13880808380f35b845163044aa57560e41b8152fd5b6106e99150873d89116102385761022a8183610eb2565b3861065d565b86513d8b823e3d90fd5b61ffff19166101011786553861061a565b835162461bcd60e51b8152808301869052602e60248201527f496e697469616c697a61626c653a20636f6e747261637420697320616c72656160448201526d191e481a5b9a5d1a585b1a5e995960921b6064820152608490fd5b50303b1580156106055750600160ff821614610605565b50600160ff8216106105fe565b8480fd5b50346102515760208060031936011261024d5782356001600160a01b0381811694918590036108ab578260449160345416855192838092632474521560e21b82527fc0fc8e4dc5cff6febdf550b80d566f654e2baf1a02ea1060208c2f8ab2dd1b63878301523360248301525afa9081156108a1578691610884575b5015610876578385526033825260ff838620541660038110156101c0576001146108685750828452603390528220805460ff191660011790557fd1bba68c128cc3f427e5831b3c6f99f480b6efa6b9e80c757768f6124158cc3f8280a280f35b825163503d101f60e11b8152fd5b825163036be76f60e61b8152fd5b61089b9150833d85116102385761022a8183610eb2565b38610808565b84513d88823e3d90fd5b8580fd5b8382346102b457816003193601126102b45760345490516001600160a01b039091168152602090f35b50346102515760208060031936011261024d5782356001600160a01b0381811694918590036108ab578260449160345416855192838092632474521560e21b82527f5a7d4408f4759dddd7fdfd0d21abd99341dc2f52cda14804988a9b2df20766d8878301523360248301525afa9081156108a15786916109bf575b5015610876578385526033825260ff838620541660038110156101c0576002036109b15750828452603390528220805460ff191690557fb9b02d6ef3069c468ac99865bad0d84ec0cf34671cb26053e5e47d415ae175648280a280f35b825163a8e583af60e01b8152fd5b6109d69150833d85116102385761022a8183610eb2565b38610954565b509034610251576109ec36610e60565b603480548551632474521560e21b8082527fc0fc8e4dc5cff6febdf550b80d566f654e2baf1a02ea1060208c2f8ab2dd1b6387830152336024808401919091529497956020946001600160a01b039490936044939187908290869082908a165afa908115610bbb578c91610b9e575b5015610b8e578a5b8b8b8210610a6e5780f35b899089897f5a7d4408f4759dddd7fdfd0d21abd99341dc2f52cda14804988a9b2df20766d88f8f610aa46102e7898d948d610f27565b968d8d5416905195869485938c855284015233908301525afa918215610b835791610b66575b5015610b56578616808d5260338089528a8e205460ff166003811015610b4457600203610b3457818e528852898d20805460ff19169055610b2f91907fb9b02d6ef3069c468ac99865bad0d84ec0cf34671cb26053e5e47d415ae175648e80a2610f02565b610a63565b8a5163a8e583af60e01b81528c90fd5b634e487b7160e01b8f5260218d528a8ffd5b895163036be76f60e61b81528b90fd5b610b7d9150893d8b116102385761022a8183610eb2565b38610aca565b8c51903d90823e3d90fd5b875163036be76f60e61b81528990fd5b610bb59150873d89116102385761022a8183610eb2565b38610a5b565b89513d8e823e3d90fd5b50346102515760208060031936011261024d5782356001600160a01b0381811694918590036108ab578260449160345416855192838092632474521560e21b82528a878301523360248301525afa9081156108a1578691610c8c575b5015610876578385526033825260ff838620541660038110156101c057600103610c7e5750828452603390528220805460ff191690557ff1abf01a1043b7c244d128e8595cf0c1d10743b022b03a02dffd8ca3bf729f5a8280a280f35b82516335876baf60e01b8152fd5b610ca39150833d85116102385761022a8183610eb2565b38610c21565b50903461025157610cb936610e60565b9290845b848110610cc8578580f35b610cd66102e7828785610f27565b60018060a01b03806034541690855192632474521560e21b8452898885015283602493338583015281604460209788935afa9081156105b7578b91610d92575b501561058a57169182895260339182825260ff878b2054169060038210156105475750600103610d825782895252838720805460ff19169055610d7d91907ff1abf01a1043b7c244d128e8595cf0c1d10743b022b03a02dffd8ca3bf729f5a8880a2610f02565b610cbd565b85516335876baf60e01b81528790fd5b610da99150853d87116102385761022a8183610eb2565b38610d16565b508290346102b45760203660031901126102b45782356001600160a01b03811690819003610251578252603360205260ff81832054169051916003821015610df957602083838152f35b634e487b7160e01b815260218452602490fd5b84908434610251576020366003190112610251573563ffffffff60e01b81168091036102515760209250633df6cef760e01b8114908115610e4f575b5015158152f35b6301ffc9a760e01b14905083610e48565b906020600319830112610ead5760043567ffffffffffffffff92838211610ead5780602383011215610ead578160040135938411610ead5760248460051b83010111610ead576024019190565b600080fd5b90601f8019910116810190811067ffffffffffffffff821117610ed457604052565b634e487b7160e01b600052604160045260246000fd5b90816020910312610ead57518015158103610ead5790565b6000198114610f115760010190565b634e487b7160e01b600052601160045260246000fd5b9190811015610f375760051b0190565b634e487b7160e01b600052603260045260246000fd5b356001600160a01b0381168103610ead5790565b15610f6857565b60405162461bcd60e51b815260206004820152602b60248201527f496e697469616c697a61626c653a20636f6e7472616374206973206e6f74206960448201526a6e697469616c697a696e6760a81b6064820152608490fdfea26469706673582212206be975e9a640f9e31406c31dafbbd535d70f7b4b7ca32ab243aba0ada6380aa264736f6c63430008120033",
  "libraries": {
    "Errors": "0x988288925196F0725268378d0C7c8aA0E50EB423"
  },
  "devdoc": {
    "events": {
      "Initialized(uint8)": {
        "details": "Triggered when the contract has been initialized or reinitialized."
      }
    },
    "kind": "dev",
    "methods": {
      "addAddressToBlacklist(address)": {
        "params": {
          "_address": "The address to add to blacklist"
        }
      },
      "addAddressToWhitelist(address)": {
        "params": {
          "_address": "The address to add to whitelist"
        }
      },
      "getAccessType(address)": {
        "params": {
          "_address": "The address to check on its AccessType"
        }
      },
      "initialize(address)": {
        "details": "contract initializer",
        "params": {
          "_registry": "The address of Registry contract"
        }
      },
      "supportsInterface(bytes4)": {
        "params": {
          "_interfaceId": "The interface id to check"
        }
      }
    },
    "version": 1
  },
  "userdoc": {
    "kind": "user",
    "methods": {
      "supportsInterface(bytes4)": {
        "notice": "Interface checker"
      }
    },
    "version": 1
  },
  "storageLayout": {
    "storage": [
      {
        "astId": 2890,
        "contract": "contracts/WhiteBlackList/WhiteBlackList/WhiteBlackList.sol:WhiteBlackList",
        "label": "_initialized",
        "offset": 0,
        "slot": "0",
        "type": "t_uint8"
      },
      {
        "astId": 2893,
        "contract": "contracts/WhiteBlackList/WhiteBlackList/WhiteBlackList.sol:WhiteBlackList",
        "label": "_initializing",
        "offset": 1,
        "slot": "0",
        "type": "t_bool"
      },
      {
        "astId": 6506,
        "contract": "contracts/WhiteBlackList/WhiteBlackList/WhiteBlackList.sol:WhiteBlackList",
        "label": "__gap",
        "offset": 0,
        "slot": "1",
        "type": "t_array(t_uint256)50_storage"
      },
      {
        "astId": 54096,
        "contract": "contracts/WhiteBlackList/WhiteBlackList/WhiteBlackList.sol:WhiteBlackList",
        "label": "accessList",
        "offset": 0,
        "slot": "51",
        "type": "t_mapping(t_address,t_enum(AccessType)53900)"
      },
      {
        "astId": 54099,
        "contract": "contracts/WhiteBlackList/WhiteBlackList/WhiteBlackList.sol:WhiteBlackList",
        "label": "registry",
        "offset": 0,
        "slot": "52",
        "type": "t_address"
      },
      {
        "astId": 54103,
        "contract": "contracts/WhiteBlackList/WhiteBlackList/WhiteBlackList.sol:WhiteBlackList",
        "label": "__gap",
        "offset": 0,
        "slot": "53",
        "type": "t_array(t_uint256)50_storage"
      }
    ],
    "types": {
      "t_address": {
        "encoding": "inplace",
        "label": "address",
        "numberOfBytes": "20"
      },
      "t_array(t_uint256)50_storage": {
        "base": "t_uint256",
        "encoding": "inplace",
        "label": "uint256[50]",
        "numberOfBytes": "1600"
      },
      "t_bool": {
        "encoding": "inplace",
        "label": "bool",
        "numberOfBytes": "1"
      },
      "t_enum(AccessType)53900": {
        "encoding": "inplace",
        "label": "enum IWhiteBlackList.AccessType",
        "numberOfBytes": "1"
      },
      "t_mapping(t_address,t_enum(AccessType)53900)": {
        "encoding": "mapping",
        "key": "t_address",
        "label": "mapping(address => enum IWhiteBlackList.AccessType)",
        "numberOfBytes": "32",
        "value": "t_enum(AccessType)53900"
      },
      "t_uint256": {
        "encoding": "inplace",
        "label": "uint256",
        "numberOfBytes": "32"
      },
      "t_uint8": {
        "encoding": "inplace",
        "label": "uint8",
        "numberOfBytes": "1"
      }
    }
  }
}